{
  "contractName": "Tracks",
  "abi": [
    {
      "inputs": [],
      "stateMutability": "nonpayable",
      "type": "constructor"
    },
    {
      "anonymous": false,
      "inputs": [
        {
          "indexed": true,
          "internalType": "uint256",
          "name": "trackId",
          "type": "uint256"
        },
        {
          "indexed": true,
          "internalType": "uint256",
          "name": "entryId",
          "type": "uint256"
        },
        {
          "indexed": false,
          "internalType": "string",
          "name": "name",
          "type": "string"
        },
        {
          "indexed": false,
          "internalType": "string",
          "name": "desc",
          "type": "string"
        },
        {
          "indexed": false,
          "internalType": "string",
          "name": "location",
          "type": "string"
        }
      ],
      "name": "EntryCreated",
      "type": "event"
    },
    {
      "anonymous": false,
      "inputs": [
        {
          "indexed": false,
          "internalType": "string",
          "name": "trackid",
          "type": "string"
        },
        {
          "indexed": false,
          "internalType": "string",
          "name": "entryid",
          "type": "string"
        },
        {
          "indexed": false,
          "internalType": "string",
          "name": "location",
          "type": "string"
        }
      ],
      "name": "EntryLeader",
      "type": "event"
    },
    {
      "anonymous": false,
      "inputs": [
        {
          "indexed": false,
          "internalType": "string",
          "name": "trackid",
          "type": "string"
        },
        {
          "indexed": false,
          "internalType": "string",
          "name": "entryid",
          "type": "string"
        },
        {
          "indexed": false,
          "internalType": "string",
          "name": "location",
          "type": "string"
        }
      ],
      "name": "EntryNominated",
      "type": "event"
    },
    {
      "anonymous": false,
      "inputs": [],
      "name": "TrackClosed",
      "type": "event"
    },
    {
      "anonymous": false,
      "inputs": [
        {
          "indexed": true,
          "internalType": "uint256",
          "name": "trackId",
          "type": "uint256"
        },
        {
          "indexed": false,
          "internalType": "string",
          "name": "name",
          "type": "string"
        },
        {
          "indexed": false,
          "internalType": "string",
          "name": "desc",
          "type": "string"
        }
      ],
      "name": "TrackCreated",
      "type": "event"
    },
    {
      "anonymous": false,
      "inputs": [],
      "name": "TrackListed",
      "type": "event"
    },
    {
      "anonymous": false,
      "inputs": [
        {
          "indexed": false,
          "internalType": "string",
          "name": "trackId",
          "type": "string"
        },
        {
          "indexed": false,
          "internalType": "string",
          "name": "trackDesc",
          "type": "string"
        }
      ],
      "name": "TrackOpened",
      "type": "event"
    },
    {
      "anonymous": false,
      "inputs": [],
      "name": "TrackSealed",
      "type": "event"
    },
    {
      "inputs": [
        {
          "internalType": "uint256",
          "name": "",
          "type": "uint256"
        }
      ],
      "name": "entriesTrack",
      "outputs": [
        {
          "internalType": "uint256",
          "name": "",
          "type": "uint256"
        }
      ],
      "stateMutability": "view",
      "type": "function"
    },
    {
      "inputs": [],
      "name": "nextEntryId",
      "outputs": [
        {
          "internalType": "uint256",
          "name": "",
          "type": "uint256"
        }
      ],
      "stateMutability": "view",
      "type": "function"
    },
    {
      "inputs": [],
      "name": "nextTrackId",
      "outputs": [
        {
          "internalType": "uint256",
          "name": "",
          "type": "uint256"
        }
      ],
      "stateMutability": "view",
      "type": "function"
    },
    {
      "inputs": [],
      "name": "trackCount",
      "outputs": [
        {
          "internalType": "uint256",
          "name": "",
          "type": "uint256"
        }
      ],
      "stateMutability": "view",
      "type": "function"
    },
    {
      "inputs": [
        {
          "internalType": "uint256",
          "name": "",
          "type": "uint256"
        },
        {
          "internalType": "uint256",
          "name": "",
          "type": "uint256"
        }
      ],
      "name": "trackEntries",
      "outputs": [
        {
          "internalType": "uint256",
          "name": "",
          "type": "uint256"
        }
      ],
      "stateMutability": "view",
      "type": "function"
    },
    {
      "inputs": [
        {
          "internalType": "uint256",
          "name": "",
          "type": "uint256"
        }
      ],
      "name": "tracks",
      "outputs": [
        {
          "internalType": "uint256",
          "name": "trackId",
          "type": "uint256"
        },
        {
          "internalType": "string",
          "name": "name",
          "type": "string"
        },
        {
          "internalType": "string",
          "name": "desc",
          "type": "string"
        },
        {
          "internalType": "enum Tracks.State",
          "name": "state",
          "type": "uint8"
        }
      ],
      "stateMutability": "view",
      "type": "function"
    },
    {
      "inputs": [],
      "name": "getTracks",
      "outputs": [
        {
          "components": [
            {
              "internalType": "uint256",
              "name": "trackId",
              "type": "uint256"
            },
            {
              "internalType": "string",
              "name": "name",
              "type": "string"
            },
            {
              "internalType": "string",
              "name": "desc",
              "type": "string"
            },
            {
              "internalType": "enum Tracks.State",
              "name": "state",
              "type": "uint8"
            }
          ],
          "internalType": "struct Tracks.Track[]",
          "name": "",
          "type": "tuple[]"
        }
      ],
      "stateMutability": "view",
      "type": "function"
    },
    {
      "inputs": [
        {
          "internalType": "uint256",
          "name": "_id",
          "type": "uint256"
        }
      ],
      "name": "getTrack",
      "outputs": [
        {
          "components": [
            {
              "internalType": "uint256",
              "name": "trackId",
              "type": "uint256"
            },
            {
              "internalType": "string",
              "name": "name",
              "type": "string"
            },
            {
              "internalType": "string",
              "name": "desc",
              "type": "string"
            },
            {
              "internalType": "enum Tracks.State",
              "name": "state",
              "type": "uint8"
            }
          ],
          "internalType": "struct Tracks.Track",
          "name": "",
          "type": "tuple"
        }
      ],
      "stateMutability": "view",
      "type": "function"
    },
    {
      "inputs": [
        {
          "internalType": "uint256",
          "name": "trackId",
          "type": "uint256"
        }
      ],
      "name": "getEntriesForTrack",
      "outputs": [
        {
          "internalType": "uint256[]",
          "name": "",
          "type": "uint256[]"
        }
      ],
      "stateMutability": "view",
      "type": "function"
    },
    {
      "inputs": [],
      "name": "close",
      "outputs": [],
      "stateMutability": "nonpayable",
      "type": "function"
    },
    {
      "inputs": [],
      "name": "vote",
      "outputs": [],
      "stateMutability": "nonpayable",
      "type": "function"
    },
    {
      "inputs": [
        {
          "internalType": "uint256",
          "name": "trackId",
          "type": "uint256"
        },
        {
          "internalType": "string",
          "name": "_name",
          "type": "string"
        },
        {
          "internalType": "string",
          "name": "_desc",
          "type": "string"
        },
        {
          "internalType": "string",
          "name": "_location",
          "type": "string"
        }
      ],
      "name": "addEntry",
      "outputs": [
        {
          "internalType": "uint256",
          "name": "",
          "type": "uint256"
        }
      ],
      "stateMutability": "nonpayable",
      "type": "function"
    },
    {
      "inputs": [
        {
          "internalType": "string",
          "name": "_name",
          "type": "string"
        },
        {
          "internalType": "string",
          "name": "_desc",
          "type": "string"
        }
      ],
      "name": "addTrack",
      "outputs": [
        {
          "internalType": "uint256",
          "name": "",
          "type": "uint256"
        }
      ],
      "stateMutability": "nonpayable",
      "type": "function"
    }
  ],
  "bytecode": "0x60806040523480156200001157600080fd5b506000620000906040518060400160405280600b81526020017f66697273745f747261636b0000000000000000000000000000000000000000008152506040518060400160405280601781526020017f546869732069732074686520666972737420747261636b0000000000000000008152506200014d60201b60201c565b905062000145816040518060400160405280600481526020017f6e616d65000000000000000000000000000000000000000000000000000000008152506040518060400160405280600b81526020017f6465736372697074696f6e0000000000000000000000000000000000000000008152506040518060400160405280600881526020017f6c6f636174696f6e0000000000000000000000000000000000000000000000008152506200029660201b60201c565b505062000672565b600080600354905060405180608001604052808281526020018581526020018481526020016000600181111562000189576200018862000603565b5b815250600080838152602001908152602001600020600082015181600001556020820151816001019080519060200190620001c692919062000376565b506040820151816002019080519060200190620001e592919062000376565b5060608201518160030160006101000a81548160ff0219169083600181111562000214576200021362000603565b5b021790555090505060036000815480929190620002319062000586565b9190505550600460008154809291906200024b9062000586565b9190505550807f21579433a032855e20e8afc48e980ddae0b6285e4aa03370f03192be12bea28b85856040516200028492919062000467565b60405180910390a28091505092915050565b60008060055490506000600260008381526020019081526020016000205414620002bf57600080fd5b6001600087815260200190815260200160002081908060018154018082558091505060019003906000526020600020016000909190919091505585600260008381526020019081526020016000208190555060056000815480929190620003269062000586565b919050555080867f313f81e8cc8fe5ab3d1facaeffd8e0d26068ff1776d23a4621a5bdb0c891c8178787876040516200036293929190620004a2565b60405180910390a380915050949350505050565b828054620003849062000550565b90600052602060002090601f016020900481019282620003a85760008555620003f4565b82601f10620003c357805160ff1916838001178555620003f4565b82800160010185558215620003f4579182015b82811115620003f3578251825591602001919060010190620003d6565b5b50905062000403919062000407565b5090565b5b808211156200042257600081600090555060010162000408565b5090565b60006200043382620004f4565b6200043f8185620004ff565b9350620004518185602086016200051a565b6200045c8162000661565b840191505092915050565b6000604082019050818103600083015262000483818562000426565b9050818103602083015262000499818462000426565b90509392505050565b60006060820190508181036000830152620004be818662000426565b90508181036020830152620004d4818562000426565b90508181036040830152620004ea818462000426565b9050949350505050565b600081519050919050565b600082825260208201905092915050565b6000819050919050565b60005b838110156200053a5780820151818401526020810190506200051d565b838111156200054a576000848401525b50505050565b600060028204905060018216806200056957607f821691505b6020821081141562000580576200057f62000632565b5b50919050565b6000620005938262000510565b91507fffffffffffffffffffffffffffffffffffffffffffffffffffffffffffffffff821415620005c957620005c8620005d4565b5b600182019050919050565b7f4e487b7100000000000000000000000000000000000000000000000000000000600052601160045260246000fd5b7f4e487b7100000000000000000000000000000000000000000000000000000000600052602160045260246000fd5b7f4e487b7100000000000000000000000000000000000000000000000000000000600052602260045260246000fd5b6000601f19601f8301169050919050565b6114f880620006826000396000f3fe608060405234801561001057600080fd5b50600436106100cf5760003560e01c806387548fcf1161008c578063a72024c611610066578063a72024c614610229578063ab35678c14610247578063d02f448314610265578063e6b2cf6c14610295576100cf565b806387548fcf146101a8578063924e9b95146101c6578063a2e34586146101f6576100cf565b8063109699b6146100d45780632e42ddbf1461010457806336de40be1461013457806343d726d614610164578063629058ca1461016e578063632a9a521461019e575b600080fd5b6100ee60048036038101906100e99190610d5d565b6102b3565b6040516100fb9190611107565b60405180910390f35b61011e60048036038101906101199190610ca2565b6102e4565b60405161012b9190611107565b60405180910390f35b61014e60048036038101906101499190610bfd565b6103bf565b60405161015b9190611107565b60405180910390f35b61016c6104f8565b005b61018860048036038101906101839190610c75565b6104fa565b60405161019591906110e5565b60405180910390f35b6101a661068f565b005b6101b0610691565b6040516101bd919061101e565b60405180910390f35b6101e060048036038101906101db9190610c75565b6108b9565b6040516101ed9190611107565b60405180910390f35b610210600480360381019061020b9190610c75565b6108d1565b6040516102209493929190611122565b60405180910390f35b610231610a1e565b60405161023e9190611107565b60405180910390f35b61024f610a24565b60405161025c9190611107565b60405180910390f35b61027f600480360381019061027a9190610c75565b610a2a565b60405161028c9190611040565b60405180910390f35b61029d610a95565b6040516102aa9190611107565b60405180910390f35b600160205281600052604060002081815481106102cf57600080fd5b90600052602060002001600091509150505481565b6000806005549050600060026000838152602001908152602001600020541461030c57600080fd5b60016000878152602001908152602001600020819080600181540180825580915050600190039060005260206000200160009091909190915055856002600083815260200190815260200160002081905550600560008154809291906103719061133e565b919050555080867f313f81e8cc8fe5ab3d1facaeffd8e0d26068ff1776d23a4621a5bdb0c891c8178787876040516103ab93929190611099565b60405180910390a380915050949350505050565b60008060035490506040518060800160405280828152602001858152602001848152602001600060018111156103f8576103f76113b6565b5b815250600080838152602001908152602001600020600082015181600001556020820151816001019080519060200190610433929190610a9b565b506040820151816002019080519060200190610450929190610a9b565b5060608201518160030160006101000a81548160ff0219169083600181111561047c5761047b6113b6565b5b0217905550905050600360008154809291906104979061133e565b9190505550600460008154809291906104af9061133e565b9190505550807f21579433a032855e20e8afc48e980ddae0b6285e4aa03370f03192be12bea28b85856040516104e6929190611062565b60405180910390a28091505092915050565b565b610502610b21565b60008083815260200190815260200160002060405180608001604052908160008201548152602001600182018054610539906112db565b80601f0160208091040260200160405190810160405280929190818152602001828054610565906112db565b80156105b25780601f10610587576101008083540402835291602001916105b2565b820191906000526020600020905b81548152906001019060200180831161059557829003601f168201915b505050505081526020016002820180546105cb906112db565b80601f01602080910402602001604051908101604052809291908181526020018280546105f7906112db565b80156106445780601f1061061957610100808354040283529160200191610644565b820191906000526020600020905b81548152906001019060200180831161062757829003601f168201915b505050505081526020016003820160009054906101000a900460ff166001811115610672576106716113b6565b5b6001811115610684576106836113b6565b5b815250509050919050565b565b6060600060045467ffffffffffffffff8111156106b1576106b0611443565b5b6040519080825280602002602001820160405280156106ea57816020015b6106d7610b21565b8152602001906001900390816106cf5790505b50905060005b6004548110156108b15760008082815260200190815260200160002060405180608001604052908160008201548152602001600182018054610731906112db565b80601f016020809104026020016040519081016040528092919081815260200182805461075d906112db565b80156107aa5780601f1061077f576101008083540402835291602001916107aa565b820191906000526020600020905b81548152906001019060200180831161078d57829003601f168201915b505050505081526020016002820180546107c3906112db565b80601f01602080910402602001604051908101604052809291908181526020018280546107ef906112db565b801561083c5780601f106108115761010080835404028352916020019161083c565b820191906000526020600020905b81548152906001019060200180831161081f57829003601f168201915b505050505081526020016003820160009054906101000a900460ff16600181111561086a576108696113b6565b5b600181111561087c5761087b6113b6565b5b8152505082828151811061089357610892611414565b5b602002602001018190525080806108a99061133e565b9150506106f0565b508091505090565b60026020528060005260406000206000915090505481565b60006020528060005260406000206000915090508060000154908060010180546108fa906112db565b80601f0160208091040260200160405190810160405280929190818152602001828054610926906112db565b80156109735780601f1061094857610100808354040283529160200191610973565b820191906000526020600020905b81548152906001019060200180831161095657829003601f168201915b505050505090806002018054610988906112db565b80601f01602080910402602001604051908101604052809291908181526020018280546109b4906112db565b8015610a015780601f106109d657610100808354040283529160200191610a01565b820191906000526020600020905b8154815290600101906020018083116109e457829003601f168201915b5050505050908060030160009054906101000a900460ff16905084565b60035481565b60045481565b606060016000838152602001908152602001600020805480602002602001604051908101604052809291908181526020018280548015610a8957602002820191906000526020600020905b815481526020019060010190808311610a75575b50505050509050919050565b60055481565b828054610aa7906112db565b90600052602060002090601f016020900481019282610ac95760008555610b10565b82601f10610ae257805160ff1916838001178555610b10565b82800160010185558215610b10579182015b82811115610b0f578251825591602001919060010190610af4565b5b509050610b1d9190610b5b565b5090565b604051806080016040528060008152602001606081526020016060815260200160006001811115610b5557610b546113b6565b5b81525090565b5b80821115610b74576000816000905550600101610b5c565b5090565b6000610b8b610b868461119a565b611175565b905082815260208101848484011115610ba757610ba6611477565b5b610bb2848285611299565b509392505050565b600082601f830112610bcf57610bce611472565b5b8135610bdf848260208601610b78565b91505092915050565b600081359050610bf7816114ab565b92915050565b60008060408385031215610c1457610c13611481565b5b600083013567ffffffffffffffff811115610c3257610c3161147c565b5b610c3e85828601610bba565b925050602083013567ffffffffffffffff811115610c5f57610c5e61147c565b5b610c6b85828601610bba565b9150509250929050565b600060208284031215610c8b57610c8a611481565b5b6000610c9984828501610be8565b91505092915050565b60008060008060808587031215610cbc57610cbb611481565b5b6000610cca87828801610be8565b945050602085013567ffffffffffffffff811115610ceb57610cea61147c565b5b610cf787828801610bba565b935050604085013567ffffffffffffffff811115610d1857610d1761147c565b5b610d2487828801610bba565b925050606085013567ffffffffffffffff811115610d4557610d4461147c565b5b610d5187828801610bba565b91505092959194509250565b60008060408385031215610d7457610d73611481565b5b6000610d8285828601610be8565b9250506020610d9385828601610be8565b9150509250929050565b6000610da98383610f2c565b905092915050565b6000610dbd8383611000565b60208301905092915050565b6000610dd4826111eb565b610dde8185611226565b935083602082028501610df0856111cb565b8060005b85811015610e2c5784840389528151610e0d8582610d9d565b9450610e188361120c565b925060208a01995050600181019050610df4565b50829750879550505050505092915050565b6000610e49826111f6565b610e538185611237565b9350610e5e836111db565b8060005b83811015610e8f578151610e768882610db1565b9750610e8183611219565b925050600181019050610e62565b5085935050505092915050565b610ea581611287565b82525050565b610eb481611287565b82525050565b6000610ec582611201565b610ecf8185611248565b9350610edf8185602086016112a8565b610ee881611486565b840191505092915050565b6000610efe82611201565b610f088185611259565b9350610f188185602086016112a8565b610f2181611486565b840191505092915050565b6000608083016000830151610f446000860182611000565b5060208301518482036020860152610f5c8282610eba565b91505060408301518482036040860152610f768282610eba565b9150506060830151610f8b6060860182610e9c565b508091505092915050565b6000608083016000830151610fae6000860182611000565b5060208301518482036020860152610fc68282610eba565b91505060408301518482036040860152610fe08282610eba565b9150506060830151610ff56060860182610e9c565b508091505092915050565b6110098161127d565b82525050565b6110188161127d565b82525050565b600060208201905081810360008301526110388184610dc9565b905092915050565b6000602082019050818103600083015261105a8184610e3e565b905092915050565b6000604082019050818103600083015261107c8185610ef3565b905081810360208301526110908184610ef3565b90509392505050565b600060608201905081810360008301526110b38186610ef3565b905081810360208301526110c78185610ef3565b905081810360408301526110db8184610ef3565b9050949350505050565b600060208201905081810360008301526110ff8184610f96565b905092915050565b600060208201905061111c600083018461100f565b92915050565b6000608082019050611137600083018761100f565b81810360208301526111498186610ef3565b9050818103604083015261115d8185610ef3565b905061116c6060830184610eab565b95945050505050565b600061117f611190565b905061118b828261130d565b919050565b6000604051905090565b600067ffffffffffffffff8211156111b5576111b4611443565b5b6111be82611486565b9050602081019050919050565b6000819050602082019050919050565b6000819050602082019050919050565b600081519050919050565b600081519050919050565b600081519050919050565b6000602082019050919050565b6000602082019050919050565b600082825260208201905092915050565b600082825260208201905092915050565b600082825260208201905092915050565b600082825260208201905092915050565b600081905061127882611497565b919050565b6000819050919050565b60006112928261126a565b9050919050565b82818337600083830152505050565b60005b838110156112c65780820151818401526020810190506112ab565b838111156112d5576000848401525b50505050565b600060028204905060018216806112f357607f821691505b60208210811415611307576113066113e5565b5b50919050565b61131682611486565b810181811067ffffffffffffffff8211171561133557611334611443565b5b80604052505050565b60006113498261127d565b91507fffffffffffffffffffffffffffffffffffffffffffffffffffffffffffffffff82141561137c5761137b611387565b5b600182019050919050565b7f4e487b7100000000000000000000000000000000000000000000000000000000600052601160045260246000fd5b7f4e487b7100000000000000000000000000000000000000000000000000000000600052602160045260246000fd5b7f4e487b7100000000000000000000000000000000000000000000000000000000600052602260045260246000fd5b7f4e487b7100000000000000000000000000000000000000000000000000000000600052603260045260246000fd5b7f4e487b7100000000000000000000000000000000000000000000000000000000600052604160045260246000fd5b600080fd5b600080fd5b600080fd5b600080fd5b6000601f19601f8301169050919050565b600281106114a8576114a76113b6565b5b50565b6114b48161127d565b81146114bf57600080fd5b5056fea264697066735822122050eceb18d56a050aa4efe4b664c316a6b1f7567fcef2f4ef5d8bbcfd90c8abf464736f6c63430008070033",
  "immutableReferences": {},
  "source": "// SPDX-License-Identifier: MIT\npragma solidity ^0.8.0;\n\ncontract Tracks {\n    mapping (uint  => Track) public tracks;\n    mapping (uint  => uint[]) public trackEntries;\n    mapping (uint  => uint) public entriesTrack;\n\n    uint public nextTrackId;\n    uint public trackCount;\n    uint public nextEntryId;\n\n    enum State {\n        TrackNominating,\n        TrackSealed\n    }\n\t\tstruct Entry {\n        uint entryId;\n        bool exists;\n    }\n    struct Track {\n        uint  trackId;\n        string  name;\n        string  desc;\n        State state;\n    }\n\n    event EntryNominated(string trackid, string entryid, string location);\n    event EntryLeader(string trackid, string entryid, string location);\n    event TrackSealed();\n    event TrackClosed();\n    event TrackOpened(string trackId, string trackDesc);\n    event TrackListed();\n    event TrackCreated(uint indexed trackId, string name, string desc);\n    event EntryCreated(uint indexed trackId, uint indexed entryId, string name, string desc, string location);\n\n    /**\n     * @dev Check if the address is the owner of the entry\n     * @param _entryid The id of the entry to check\n     * @param _addr The address to check against the owner\n     */\n    modifier isEntryOwner(string  memory _entryid, address _addr) {\n        _;\n    }\n\n    modifier isEntryVoter(string  memory _entryid, address _addr) {\n        _;\n    }\n\n    modifier isTrackOwner(string  memory _trackid, address _addr) {\n        _;\n    }\n\n\t\tconstructor () {\n        uint trackId = addTrack(\"first_track\", \"This is the first track\");\n        addEntry(trackId, \"name\", \"description\", \"location\");\n    }\n\n\t\tfunction getTracks() public view returns ( Track[] memory) {\n\t\t    Track[] memory _tracks = new Track[](trackCount);\n\t\t    for (uint i=0; i<trackCount; i++) {\n\t\t        _tracks[i] = tracks[i];\n\t\t    }\n\t\t    return _tracks;\n\t\t}\n\t\t\n\t\tfunction getTrack(uint _id) public view returns (Track memory) {\n\t\t    return tracks[_id];\n\t\t}\n\n\t\tfunction getEntriesForTrack(uint trackId) public view returns (uint[] memory){\n        return trackEntries[trackId];\n    }\n\n    function close() public {\n    }\n\n    function vote() public {\n    }\n    \n    function addEntry(uint trackId, string memory _name, string memory _desc, string memory _location) public returns (uint) {\n      uint entryId = nextEntryId;\n      require(entriesTrack[entryId] == 0);\n\t    trackEntries[trackId].push(entryId);\n\t    entriesTrack[entryId] = trackId;\n\t    nextEntryId++;\n     \temit EntryCreated(trackId, entryId, _name, _desc, _location);\n     \treturn entryId;\n   }\n\n    function addTrack(string memory _name, string memory _desc) public returns (uint) {\n      uint trackId = nextTrackId;\n\t    tracks[trackId] = Track({\n\t        \t\ttrackId: trackId,\n\t        \t\tname: _name,\n\t            desc: _desc,\n\t            state: State.TrackNominating\n\t       });\n\t    nextTrackId++;\n\t    trackCount++;\n     \temit TrackCreated(trackId, _name, _desc);\n     \treturn trackId;\n\n   }\n}\n\n\n",
  "sourcePath": "D:\\projects\\blockchain-developer-bootcamp-final-project\\tracks\\contracts\\Tracks.sol",
  "compiler": {
    "name": "solc",
    "version": "0.8.7+commit.e28d00a7.Emscripten.clang"
  },
  "schemaVersion": "3.4.3",
  "updatedAt": "2021-09-28T10:18:28.775Z",
  "devdoc": {
    "kind": "dev",
    "methods": {},
    "version": 1
  },
  "userdoc": {
    "kind": "user",
    "methods": {},
    "version": 1
  }
}