{
  "contractName": "Tracks",
  "abi": [
    {
      "inputs": [],
      "stateMutability": "nonpayable",
      "type": "constructor"
    },
    {
      "anonymous": false,
      "inputs": [
        {
          "indexed": false,
          "internalType": "string",
          "name": "trackid",
          "type": "string"
        },
        {
          "indexed": false,
          "internalType": "string",
          "name": "entryid",
          "type": "string"
        },
        {
          "indexed": false,
          "internalType": "string",
          "name": "location",
          "type": "string"
        }
      ],
      "name": "EntryLeader",
      "type": "event"
    },
    {
      "anonymous": false,
      "inputs": [
        {
          "indexed": false,
          "internalType": "string",
          "name": "trackid",
          "type": "string"
        },
        {
          "indexed": false,
          "internalType": "string",
          "name": "entryid",
          "type": "string"
        },
        {
          "indexed": false,
          "internalType": "string",
          "name": "location",
          "type": "string"
        }
      ],
      "name": "EntryNominated",
      "type": "event"
    },
    {
      "anonymous": false,
      "inputs": [],
      "name": "TrackClosed",
      "type": "event"
    },
    {
      "anonymous": false,
      "inputs": [
        {
          "indexed": true,
          "internalType": "uint256",
          "name": "trackId",
          "type": "uint256"
        }
      ],
      "name": "TrackCreated",
      "type": "event"
    },
    {
      "anonymous": false,
      "inputs": [],
      "name": "TrackListed",
      "type": "event"
    },
    {
      "anonymous": false,
      "inputs": [
        {
          "indexed": false,
          "internalType": "string",
          "name": "trackId",
          "type": "string"
        },
        {
          "indexed": false,
          "internalType": "string",
          "name": "trackDesc",
          "type": "string"
        }
      ],
      "name": "TrackOpened",
      "type": "event"
    },
    {
      "anonymous": false,
      "inputs": [],
      "name": "TrackSealed",
      "type": "event"
    },
    {
      "inputs": [],
      "name": "trackCount",
      "outputs": [
        {
          "internalType": "uint256",
          "name": "",
          "type": "uint256"
        }
      ],
      "stateMutability": "view",
      "type": "function"
    },
    {
      "inputs": [
        {
          "internalType": "uint256",
          "name": "",
          "type": "uint256"
        }
      ],
      "name": "tracks",
      "outputs": [
        {
          "internalType": "string",
          "name": "name",
          "type": "string"
        },
        {
          "internalType": "string",
          "name": "desc",
          "type": "string"
        },
        {
          "internalType": "enum Tracks.State",
          "name": "state",
          "type": "uint8"
        }
      ],
      "stateMutability": "view",
      "type": "function"
    },
    {
      "inputs": [
        {
          "internalType": "uint256",
          "name": "",
          "type": "uint256"
        }
      ],
      "name": "votes",
      "outputs": [
        {
          "internalType": "uint256",
          "name": "",
          "type": "uint256"
        }
      ],
      "stateMutability": "view",
      "type": "function"
    },
    {
      "inputs": [],
      "name": "getTracks",
      "outputs": [
        {
          "components": [
            {
              "internalType": "string",
              "name": "name",
              "type": "string"
            },
            {
              "internalType": "string",
              "name": "desc",
              "type": "string"
            },
            {
              "internalType": "enum Tracks.State",
              "name": "state",
              "type": "uint8"
            }
          ],
          "internalType": "struct Tracks.Track[]",
          "name": "",
          "type": "tuple[]"
        }
      ],
      "stateMutability": "view",
      "type": "function"
    },
    {
      "inputs": [
        {
          "internalType": "uint256",
          "name": "_id",
          "type": "uint256"
        }
      ],
      "name": "getTrack",
      "outputs": [
        {
          "components": [
            {
              "internalType": "string",
              "name": "name",
              "type": "string"
            },
            {
              "internalType": "string",
              "name": "desc",
              "type": "string"
            },
            {
              "internalType": "enum Tracks.State",
              "name": "state",
              "type": "uint8"
            }
          ],
          "internalType": "struct Tracks.Track",
          "name": "",
          "type": "tuple"
        }
      ],
      "stateMutability": "view",
      "type": "function"
    },
    {
      "inputs": [
        {
          "internalType": "uint256",
          "name": "_id",
          "type": "uint256"
        }
      ],
      "name": "getEntryVotes",
      "outputs": [
        {
          "internalType": "uint256",
          "name": "",
          "type": "uint256"
        }
      ],
      "stateMutability": "view",
      "type": "function"
    },
    {
      "inputs": [],
      "name": "close",
      "outputs": [],
      "stateMutability": "nonpayable",
      "type": "function"
    },
    {
      "inputs": [],
      "name": "vote",
      "outputs": [],
      "stateMutability": "nonpayable",
      "type": "function"
    },
    {
      "inputs": [
        {
          "internalType": "string",
          "name": "_name",
          "type": "string"
        },
        {
          "internalType": "string",
          "name": "_desc",
          "type": "string"
        }
      ],
      "name": "addTrack",
      "outputs": [],
      "stateMutability": "nonpayable",
      "type": "function"
    }
  ],
  "bytecode": "0x60806040523480156200001157600080fd5b506200008e6040518060400160405280600b81526020017f66697273745f747261636b0000000000000000000000000000000000000000008152506040518060400160405280601781526020017f546869732069732074686520666972737420747261636b0000000000000000008152506200009460201b60201c565b620003ae565b604051806060016040528083815260200182815260200160006001811115620000c257620000c162000350565b5b81525060008060025481526020019081526020016000206000820151816000019080519060200190620000f7929190620001a8565b50602082015181600101908051906020019062000116929190620001a8565b5060408201518160020160006101000a81548160ff0219169083600181111562000145576200014462000350565b5b0217905550905050600260008154809291906200016290620002d3565b9190505550600160025462000178919062000258565b7fec998d5412519fb1eee61e412b31effbbf805af8930df2c0a85786fa2365e5a760405160405180910390a25050565b828054620001b6906200029d565b90600052602060002090601f016020900481019282620001da576000855562000226565b82601f10620001f557805160ff191683800117855562000226565b8280016001018555821562000226579182015b828111156200022557825182559160200191906001019062000208565b5b50905062000235919062000239565b5090565b5b80821115620002545760008160009055506001016200023a565b5090565b6000620002658262000293565b9150620002728362000293565b92508282101562000288576200028762000321565b5b828203905092915050565b6000819050919050565b60006002820490506001821680620002b657607f821691505b60208210811415620002cd57620002cc6200037f565b5b50919050565b6000620002e08262000293565b91507fffffffffffffffffffffffffffffffffffffffffffffffffffffffffffffffff82141562000316576200031562000321565b5b600182019050919050565b7f4e487b7100000000000000000000000000000000000000000000000000000000600052601160045260246000fd5b7f4e487b7100000000000000000000000000000000000000000000000000000000600052602160045260246000fd5b7f4e487b7100000000000000000000000000000000000000000000000000000000600052602260045260246000fd5b610ff380620003be6000396000f3fe608060405234801561001057600080fd5b50600436106100935760003560e01c8063629058ca11610066578063629058ca1461011e578063632a9a521461014e57806387548fcf14610158578063a2e3458614610176578063ab35678c146101a857610093565b806336de40be1461009857806343d726d6146100b45780634a8d9e60146100be5780635df81330146100ee575b600080fd5b6100b260048036038101906100ad9190610956565b6101c6565b005b6100bc6102cc565b005b6100d860048036038101906100d391906109ce565b6102ce565b6040516100e59190610c5a565b60405180910390f35b610108600480360381019061010391906109ce565b6102eb565b6040516101159190610c5a565b60405180910390f35b610138600480360381019061013391906109ce565b610303565b6040516101459190610c38565b60405180910390f35b61015661048e565b005b610160610490565b60405161016d9190610bd1565b60405180910390f35b610190600480360381019061018b91906109ce565b6106ae565b60405161019f93929190610bf3565b60405180910390f35b6101b06107f5565b6040516101bd9190610c5a565b60405180910390f35b6040518060600160405280838152602001828152602001600060018111156101f1576101f0610eb1565b5b815250600080600254815260200190815260200160002060008201518160000190805190602001906102249291906107fb565b5060208201518160010190805190602001906102419291906107fb565b5060408201518160020160006101000a81548160ff0219169083600181111561026d5761026c610eb1565b5b02179055509050506002600081548092919061028890610e39565b9190505550600160025461029c9190610d31565b7fec998d5412519fb1eee61e412b31effbbf805af8930df2c0a85786fa2365e5a760405160405180910390a25050565b565b600060016000838152602001908152602001600020549050919050565b60016020528060005260406000206000915090505481565b61030b610881565b60008083815260200190815260200160002060405180606001604052908160008201805461033890610dd6565b80601f016020809104026020016040519081016040528092919081815260200182805461036490610dd6565b80156103b15780601f10610386576101008083540402835291602001916103b1565b820191906000526020600020905b81548152906001019060200180831161039457829003601f168201915b505050505081526020016001820180546103ca90610dd6565b80601f01602080910402602001604051908101604052809291908181526020018280546103f690610dd6565b80156104435780601f1061041857610100808354040283529160200191610443565b820191906000526020600020905b81548152906001019060200180831161042657829003601f168201915b505050505081526020016002820160009054906101000a900460ff16600181111561047157610470610eb1565b5b600181111561048357610482610eb1565b5b815250509050919050565b565b6060600060025467ffffffffffffffff8111156104b0576104af610f3e565b5b6040519080825280602002602001820160405280156104e957816020015b6104d6610881565b8152602001906001900390816104ce5790505b50905060005b6002548110156106a65760008082815260200190815260200160002060405180606001604052908160008201805461052690610dd6565b80601f016020809104026020016040519081016040528092919081815260200182805461055290610dd6565b801561059f5780601f106105745761010080835404028352916020019161059f565b820191906000526020600020905b81548152906001019060200180831161058257829003601f168201915b505050505081526020016001820180546105b890610dd6565b80601f01602080910402602001604051908101604052809291908181526020018280546105e490610dd6565b80156106315780601f1061060657610100808354040283529160200191610631565b820191906000526020600020905b81548152906001019060200180831161061457829003601f168201915b505050505081526020016002820160009054906101000a900460ff16600181111561065f5761065e610eb1565b5b600181111561067157610670610eb1565b5b8152505082828151811061068857610687610f0f565b5b6020026020010181905250808061069e90610e39565b9150506104ef565b508091505090565b60006020528060005260406000206000915090508060000180546106d190610dd6565b80601f01602080910402602001604051908101604052809291908181526020018280546106fd90610dd6565b801561074a5780601f1061071f5761010080835404028352916020019161074a565b820191906000526020600020905b81548152906001019060200180831161072d57829003601f168201915b50505050509080600101805461075f90610dd6565b80601f016020809104026020016040519081016040528092919081815260200182805461078b90610dd6565b80156107d85780601f106107ad576101008083540402835291602001916107d8565b820191906000526020600020905b8154815290600101906020018083116107bb57829003601f168201915b5050505050908060020160009054906101000a900460ff16905083565b60025481565b82805461080790610dd6565b90600052602060002090601f0160209004810192826108295760008555610870565b82601f1061084257805160ff1916838001178555610870565b82800160010185558215610870579182015b8281111561086f578251825591602001919060010190610854565b5b50905061087d91906108b4565b5090565b60405180606001604052806060815260200160608152602001600060018111156108ae576108ad610eb1565b5b81525090565b5b808211156108cd5760008160009055506001016108b5565b5090565b60006108e46108df84610c9a565b610c75565b905082815260208101848484011115610900576108ff610f72565b5b61090b848285610d94565b509392505050565b600082601f83011261092857610927610f6d565b5b81356109388482602086016108d1565b91505092915050565b60008135905061095081610fa6565b92915050565b6000806040838503121561096d5761096c610f7c565b5b600083013567ffffffffffffffff81111561098b5761098a610f77565b5b61099785828601610913565b925050602083013567ffffffffffffffff8111156109b8576109b7610f77565b5b6109c485828601610913565b9150509250929050565b6000602082840312156109e4576109e3610f7c565b5b60006109f284828501610941565b91505092915050565b6000610a078383610b14565b905092915050565b6000610a1a82610cdb565b610a248185610cfe565b935083602082028501610a3685610ccb565b8060005b85811015610a725784840389528151610a5385826109fb565b9450610a5e83610cf1565b925060208a01995050600181019050610a3a565b50829750879550505050505092915050565b610a8d81610d82565b82525050565b610a9c81610d82565b82525050565b6000610aad82610ce6565b610ab78185610d0f565b9350610ac7818560208601610da3565b610ad081610f81565b840191505092915050565b6000610ae682610ce6565b610af08185610d20565b9350610b00818560208601610da3565b610b0981610f81565b840191505092915050565b60006060830160008301518482036000860152610b318282610aa2565b91505060208301518482036020860152610b4b8282610aa2565b9150506040830151610b606040860182610a84565b508091505092915050565b60006060830160008301518482036000860152610b888282610aa2565b91505060208301518482036020860152610ba28282610aa2565b9150506040830151610bb76040860182610a84565b508091505092915050565b610bcb81610d78565b82525050565b60006020820190508181036000830152610beb8184610a0f565b905092915050565b60006060820190508181036000830152610c0d8186610adb565b90508181036020830152610c218185610adb565b9050610c306040830184610a93565b949350505050565b60006020820190508181036000830152610c528184610b6b565b905092915050565b6000602082019050610c6f6000830184610bc2565b92915050565b6000610c7f610c90565b9050610c8b8282610e08565b919050565b6000604051905090565b600067ffffffffffffffff821115610cb557610cb4610f3e565b5b610cbe82610f81565b9050602081019050919050565b6000819050602082019050919050565b600081519050919050565b600081519050919050565b6000602082019050919050565b600082825260208201905092915050565b600082825260208201905092915050565b600082825260208201905092915050565b6000610d3c82610d78565b9150610d4783610d78565b925082821015610d5a57610d59610e82565b5b828203905092915050565b6000819050610d7382610f92565b919050565b6000819050919050565b6000610d8d82610d65565b9050919050565b82818337600083830152505050565b60005b83811015610dc1578082015181840152602081019050610da6565b83811115610dd0576000848401525b50505050565b60006002820490506001821680610dee57607f821691505b60208210811415610e0257610e01610ee0565b5b50919050565b610e1182610f81565b810181811067ffffffffffffffff82111715610e3057610e2f610f3e565b5b80604052505050565b6000610e4482610d78565b91507fffffffffffffffffffffffffffffffffffffffffffffffffffffffffffffffff821415610e7757610e76610e82565b5b600182019050919050565b7f4e487b7100000000000000000000000000000000000000000000000000000000600052601160045260246000fd5b7f4e487b7100000000000000000000000000000000000000000000000000000000600052602160045260246000fd5b7f4e487b7100000000000000000000000000000000000000000000000000000000600052602260045260246000fd5b7f4e487b7100000000000000000000000000000000000000000000000000000000600052603260045260246000fd5b7f4e487b7100000000000000000000000000000000000000000000000000000000600052604160045260246000fd5b600080fd5b600080fd5b600080fd5b600080fd5b6000601f19601f8301169050919050565b60028110610fa357610fa2610eb1565b5b50565b610faf81610d78565b8114610fba57600080fd5b5056fea26469706673582212202e79d77b8556862695af16cd38f6ca2d2fa902985b347a726498bf8145114f6164736f6c63430008070033",
  "immutableReferences": {},
  "source": "// SPDX-License-Identifier: MIT\npragma solidity ^0.8.0;\n\ncontract Tracks {\n    mapping (uint  => Track) public tracks;\n    mapping (uint  => uint) public votes;\n    uint public trackCount;\n\n    enum State {\n        TrackNominating,\n        TrackSealed\n    }\n\n    struct Track {\n        string  name;\n        string  desc;\n        State state;\n    }\n\n    struct Entry {\n        string  location;\n        string  id;\n        string  track_id;\n        string  previous_id;\n        address owner;\n        uint votes;\n    }\n\n    event EntryNominated(string trackid, string entryid, string location);\n    event EntryLeader(string trackid, string entryid, string location);\n    event TrackSealed();\n    event TrackClosed();\n    event TrackOpened(string trackId, string trackDesc);\n    event TrackListed();\n    event TrackCreated(uint indexed trackId);\n\n    /**\n     * @dev Check if the address is the owner of the entry\n     * @param _entryid The id of the entry to check\n     * @param _addr The address to check against the owner\n     */\n    modifier isEntryOwner(string  memory _entryid, address _addr) {\n        _;\n    }\n\n    modifier isEntryVoter(string  memory _entryid, address _addr) {\n        _;\n    }\n\n    modifier isTrackOwner(string  memory _trackid, address _addr) {\n        _;\n    }\n\n\t\tconstructor () {\n        addTrack(\"first_track\", \"This is the first track\");\n    }\n\n\t\tfunction getTracks() public view returns ( Track[] memory) {\n\t\t    Track[] memory _tracks = new Track[](trackCount);\n\t\t    for (uint i=0; i<trackCount; i++) {\n\t\t        _tracks[i] = tracks[i];\n\t\t    }\n\t\t    return _tracks;\n\t\t}\n\t\t\n\t\tfunction getTrack(uint _id) public view returns (Track memory) {\n\t\t    return tracks[_id];\n\t\t}\n\n    function getEntryVotes(uint  _id) public view returns (uint){\n        return votes[_id];\n    }\n\n    function close() public {\n    }\n\n    function vote() public {\n    }\n    \n    function addTrack(string memory _name, string memory _desc) public {\n\t    tracks[trackCount] = Track({\n\t        \t\tname: _name,\n\t            desc: _desc,\n\t            state: State.TrackNominating\n\t       });\n\t    trackCount++;\n     \temit TrackCreated(trackCount-1);\n\n   }\n}\n\n\n",
  "sourcePath": "D:\\projects\\blockchain-developer-bootcamp-final-project\\tracks\\contracts\\Tracks.sol",
  "compiler": {
    "name": "solc",
    "version": "0.8.7+commit.e28d00a7.Emscripten.clang"
  },
  "schemaVersion": "3.4.3",
  "updatedAt": "2021-09-27T18:32:17.899Z",
  "devdoc": {
    "kind": "dev",
    "methods": {},
    "version": 1
  },
  "userdoc": {
    "kind": "user",
    "methods": {},
    "version": 1
  }
}