{
  "contractName": "Tracks",
  "abi": [
    {
      "inputs": [],
      "stateMutability": "nonpayable",
      "type": "constructor"
    },
    {
      "anonymous": false,
      "inputs": [
        {
          "indexed": false,
          "internalType": "string",
          "name": "trackid",
          "type": "string"
        },
        {
          "indexed": false,
          "internalType": "string",
          "name": "entryid",
          "type": "string"
        },
        {
          "indexed": false,
          "internalType": "string",
          "name": "location",
          "type": "string"
        }
      ],
      "name": "EntryLeader",
      "type": "event"
    },
    {
      "anonymous": false,
      "inputs": [
        {
          "indexed": false,
          "internalType": "string",
          "name": "trackid",
          "type": "string"
        },
        {
          "indexed": false,
          "internalType": "string",
          "name": "entryid",
          "type": "string"
        },
        {
          "indexed": false,
          "internalType": "string",
          "name": "location",
          "type": "string"
        }
      ],
      "name": "EntryNominated",
      "type": "event"
    },
    {
      "anonymous": false,
      "inputs": [],
      "name": "TrackClosed",
      "type": "event"
    },
    {
      "anonymous": false,
      "inputs": [],
      "name": "TrackListed",
      "type": "event"
    },
    {
      "anonymous": false,
      "inputs": [
        {
          "indexed": false,
          "internalType": "string",
          "name": "trackId",
          "type": "string"
        },
        {
          "indexed": false,
          "internalType": "string",
          "name": "trackDesc",
          "type": "string"
        }
      ],
      "name": "TrackOpened",
      "type": "event"
    },
    {
      "anonymous": false,
      "inputs": [],
      "name": "TrackSealed",
      "type": "event"
    },
    {
      "anonymous": false,
      "inputs": [],
      "name": "TracksCreated",
      "type": "event"
    },
    {
      "inputs": [],
      "name": "testname",
      "outputs": [
        {
          "internalType": "string",
          "name": "",
          "type": "string"
        }
      ],
      "stateMutability": "view",
      "type": "function"
    },
    {
      "inputs": [
        {
          "internalType": "uint256",
          "name": "",
          "type": "uint256"
        }
      ],
      "name": "tracks",
      "outputs": [
        {
          "internalType": "string",
          "name": "name",
          "type": "string"
        },
        {
          "internalType": "string",
          "name": "desc",
          "type": "string"
        },
        {
          "internalType": "string",
          "name": "id",
          "type": "string"
        },
        {
          "internalType": "enum Tracks.State",
          "name": "state",
          "type": "uint8"
        }
      ],
      "stateMutability": "view",
      "type": "function"
    },
    {
      "inputs": [
        {
          "internalType": "string",
          "name": "",
          "type": "string"
        }
      ],
      "name": "votes",
      "outputs": [
        {
          "internalType": "uint256",
          "name": "",
          "type": "uint256"
        }
      ],
      "stateMutability": "view",
      "type": "function"
    },
    {
      "inputs": [],
      "name": "getTracks",
      "outputs": [
        {
          "components": [
            {
              "internalType": "string",
              "name": "name",
              "type": "string"
            },
            {
              "internalType": "string",
              "name": "desc",
              "type": "string"
            },
            {
              "internalType": "string",
              "name": "id",
              "type": "string"
            },
            {
              "internalType": "enum Tracks.State",
              "name": "state",
              "type": "uint8"
            }
          ],
          "internalType": "struct Tracks.Track[]",
          "name": "",
          "type": "tuple[]"
        }
      ],
      "stateMutability": "view",
      "type": "function"
    },
    {
      "inputs": [
        {
          "internalType": "string",
          "name": "_id",
          "type": "string"
        }
      ],
      "name": "getEntryVotes",
      "outputs": [
        {
          "internalType": "uint256",
          "name": "",
          "type": "uint256"
        }
      ],
      "stateMutability": "nonpayable",
      "type": "function"
    },
    {
      "inputs": [],
      "name": "close",
      "outputs": [],
      "stateMutability": "nonpayable",
      "type": "function"
    },
    {
      "inputs": [],
      "name": "vote",
      "outputs": [],
      "stateMutability": "nonpayable",
      "type": "function"
    },
    {
      "inputs": [
        {
          "internalType": "string",
          "name": "_name",
          "type": "string"
        },
        {
          "internalType": "string",
          "name": "_desc",
          "type": "string"
        }
      ],
      "name": "addTrack",
      "outputs": [],
      "stateMutability": "nonpayable",
      "type": "function"
    }
  ],
  "bytecode": "0x60806040523480156200001157600080fd5b506040518060400160405280600581526020017f68656c6c6f000000000000000000000000000000000000000000000000000000815250600290805190602001906200005f9291906200023b565b50620000dc6040518060400160405280600b81526020017f66697273745f747261636b0000000000000000000000000000000000000000008152506040518060400160405280601781526020017f546869732069732074686520666972737420747261636b0000000000000000008152506200010e60201b60201c565b7f1136f7c192ecdf015df8e2347cf0e794cc02045428550d6f39b6abc412aa67ea60405160405180910390a16200037f565b600060405180608001604052808481526020018381526020016040518060400160405280600181526020017f300000000000000000000000000000000000000000000000000000000000000081525081526020016000600181111562000179576200017862000321565b5b81525090806001815401808255809150506001900390600052602060002090600402016000909190919091506000820151816000019080519060200190620001c39291906200023b565b506020820151816001019080519060200190620001e29291906200023b565b506040820151816002019080519060200190620002019291906200023b565b5060608201518160030160006101000a81548160ff0219169083600181111562000230576200022f62000321565b5b021790555050505050565b8280546200024990620002eb565b90600052602060002090601f0160209004810192826200026d5760008555620002b9565b82601f106200028857805160ff1916838001178555620002b9565b82800160010185558215620002b9579182015b82811115620002b85782518255916020019190600101906200029b565b5b509050620002c89190620002cc565b5090565b5b80821115620002e7576000816000905550600101620002cd565b5090565b600060028204905060018216806200030457607f821691505b602082108114156200031b576200031a62000350565b5b50919050565b7f4e487b7100000000000000000000000000000000000000000000000000000000600052602160045260246000fd5b7f4e487b7100000000000000000000000000000000000000000000000000000000600052602260045260246000fd5b610f28806200038f6000396000f3fe608060405234801561001057600080fd5b50600436106100885760003560e01c806387548fcf1161005b57806387548fcf146100db5780639f755d6c146100f9578063a2e3458614610129578063b99ef1fa1461015c57610088565b806336de40be1461008d57806343d726d6146100a9578063632a9a52146100b35780636734f048146100bd575b600080fd5b6100a760048036038101906100a2919061093b565b61018c565b005b6100b16102ad565b005b6100bb6102af565b005b6100c56102b1565b6040516100d29190610be3565b60405180910390f35b6100e361033f565b6040516100f09190610bc1565b60405180910390f35b610113600480360381019061010e91906108f2565b61058f565b6040516101209190610c5f565b60405180910390f35b610143600480360381019061013e91906109b3565b6105b7565b6040516101539493929190610c05565b60405180910390f35b610176600480360381019061017191906108f2565b61079c565b6040516101839190610c5f565b60405180910390f35b600060405180608001604052808481526020018381526020016040518060400160405280600181526020017f30000000000000000000000000000000000000000000000000000000000000008152508152602001600060018111156101f4576101f3610e15565b5b8152509080600181540180825580915050600190039060005260206000209060040201600090919091909150600082015181600001908051906020019061023c9291906107ca565b5060208201518160010190805190602001906102599291906107ca565b5060408201518160020190805190602001906102769291906107ca565b5060608201518160030160006101000a81548160ff021916908360018111156102a2576102a1610e15565b5b021790555050505050565b565b565b600280546102be90610db2565b80601f01602080910402602001604051908101604052809291908181526020018280546102ea90610db2565b80156103375780601f1061030c57610100808354040283529160200191610337565b820191906000526020600020905b81548152906001019060200180831161031a57829003601f168201915b505050505081565b60606000805480602002602001604051908101604052809291908181526020016000905b82821015610586578382906000526020600020906004020160405180608001604052908160008201805461039690610db2565b80601f01602080910402602001604051908101604052809291908181526020018280546103c290610db2565b801561040f5780601f106103e45761010080835404028352916020019161040f565b820191906000526020600020905b8154815290600101906020018083116103f257829003601f168201915b5050505050815260200160018201805461042890610db2565b80601f016020809104026020016040519081016040528092919081815260200182805461045490610db2565b80156104a15780601f10610476576101008083540402835291602001916104a1565b820191906000526020600020905b81548152906001019060200180831161048457829003601f168201915b505050505081526020016002820180546104ba90610db2565b80601f01602080910402602001604051908101604052809291908181526020018280546104e690610db2565b80156105335780601f1061050857610100808354040283529160200191610533565b820191906000526020600020905b81548152906001019060200180831161051657829003601f168201915b505050505081526020016003820160009054906101000a900460ff16600181111561056157610560610e15565b5b600181111561057357610572610e15565b5b8152505081526020019060010190610363565b50505050905090565b60006001826040516105a19190610baa565b9081526020016040518091039020549050919050565b600081815481106105c757600080fd5b90600052602060002090600402016000915090508060000180546105ea90610db2565b80601f016020809104026020016040519081016040528092919081815260200182805461061690610db2565b80156106635780601f1061063857610100808354040283529160200191610663565b820191906000526020600020905b81548152906001019060200180831161064657829003601f168201915b50505050509080600101805461067890610db2565b80601f01602080910402602001604051908101604052809291908181526020018280546106a490610db2565b80156106f15780601f106106c6576101008083540402835291602001916106f1565b820191906000526020600020905b8154815290600101906020018083116106d457829003601f168201915b50505050509080600201805461070690610db2565b80601f016020809104026020016040519081016040528092919081815260200182805461073290610db2565b801561077f5780601f106107545761010080835404028352916020019161077f565b820191906000526020600020905b81548152906001019060200180831161076257829003601f168201915b5050505050908060030160009054906101000a900460ff16905084565b6001818051602081018201805184825260208301602085012081835280955050505050506000915090505481565b8280546107d690610db2565b90600052602060002090601f0160209004810192826107f8576000855561083f565b82601f1061081157805160ff191683800117855561083f565b8280016001018555821561083f579182015b8281111561083e578251825591602001919060010190610823565b5b50905061084c9190610850565b5090565b5b80821115610869576000816000905550600101610851565b5090565b600061088061087b84610c9f565b610c7a565b90508281526020810184848401111561089c5761089b610ea7565b5b6108a7848285610d70565b509392505050565b600082601f8301126108c4576108c3610ea2565b5b81356108d484826020860161086d565b91505092915050565b6000813590506108ec81610edb565b92915050565b60006020828403121561090857610907610eb1565b5b600082013567ffffffffffffffff81111561092657610925610eac565b5b610932848285016108af565b91505092915050565b6000806040838503121561095257610951610eb1565b5b600083013567ffffffffffffffff8111156109705761096f610eac565b5b61097c858286016108af565b925050602083013567ffffffffffffffff81111561099d5761099c610eac565b5b6109a9858286016108af565b9150509250929050565b6000602082840312156109c9576109c8610eb1565b5b60006109d7848285016108dd565b91505092915050565b60006109ec8383610b2a565b905092915050565b60006109ff82610ce0565b610a098185610d03565b935083602082028501610a1b85610cd0565b8060005b85811015610a575784840389528151610a3885826109e0565b9450610a4383610cf6565b925060208a01995050600181019050610a1f565b50829750879550505050505092915050565b610a7281610d5e565b82525050565b610a8181610d5e565b82525050565b6000610a9282610ceb565b610a9c8185610d14565b9350610aac818560208601610d7f565b610ab581610eb6565b840191505092915050565b6000610acb82610ceb565b610ad58185610d25565b9350610ae5818560208601610d7f565b610aee81610eb6565b840191505092915050565b6000610b0482610ceb565b610b0e8185610d36565b9350610b1e818560208601610d7f565b80840191505092915050565b60006080830160008301518482036000860152610b478282610a87565b91505060208301518482036020860152610b618282610a87565b91505060408301518482036040860152610b7b8282610a87565b9150506060830151610b906060860182610a69565b508091505092915050565b610ba481610d54565b82525050565b6000610bb68284610af9565b915081905092915050565b60006020820190508181036000830152610bdb81846109f4565b905092915050565b60006020820190508181036000830152610bfd8184610ac0565b905092915050565b60006080820190508181036000830152610c1f8187610ac0565b90508181036020830152610c338186610ac0565b90508181036040830152610c478185610ac0565b9050610c566060830184610a78565b95945050505050565b6000602082019050610c746000830184610b9b565b92915050565b6000610c84610c95565b9050610c908282610de4565b919050565b6000604051905090565b600067ffffffffffffffff821115610cba57610cb9610e73565b5b610cc382610eb6565b9050602081019050919050565b6000819050602082019050919050565b600081519050919050565b600081519050919050565b6000602082019050919050565b600082825260208201905092915050565b600082825260208201905092915050565b600082825260208201905092915050565b600081905092915050565b6000819050610d4f82610ec7565b919050565b6000819050919050565b6000610d6982610d41565b9050919050565b82818337600083830152505050565b60005b83811015610d9d578082015181840152602081019050610d82565b83811115610dac576000848401525b50505050565b60006002820490506001821680610dca57607f821691505b60208210811415610dde57610ddd610e44565b5b50919050565b610ded82610eb6565b810181811067ffffffffffffffff82111715610e0c57610e0b610e73565b5b80604052505050565b7f4e487b7100000000000000000000000000000000000000000000000000000000600052602160045260246000fd5b7f4e487b7100000000000000000000000000000000000000000000000000000000600052602260045260246000fd5b7f4e487b7100000000000000000000000000000000000000000000000000000000600052604160045260246000fd5b600080fd5b600080fd5b600080fd5b600080fd5b6000601f19601f8301169050919050565b60028110610ed857610ed7610e15565b5b50565b610ee481610d54565b8114610eef57600080fd5b5056fea264697066735822122076bd523c260f0581edd6556482c64109af5a54da63321187de03057b8af6848f64736f6c63430008070033",
  "immutableReferences": {},
  "source": "// SPDX-License-Identifier: MIT\npragma solidity ^0.8.0;\n\ncontract Tracks {\n    Track[] public tracks;\n    mapping (string  => uint) public votes;\n\t\tstring public testname; \n    enum State {\n        TrackNominating,\n        TrackSealed\n    }\n\t\tconstructor () {\n        testname = \"hello\";\n        addTrack(\"first_track\", \"This is the first track\");\n        emit TracksCreated();\n    }\n\n    struct Track {\n        string  name;\n        string  desc;\n        string  id;\n        State state;\n    }\n\n    struct Entry {\n        string  location;\n        string  id;\n        string  track_id;\n        string  previous_id;\n        address owner;\n        uint votes;\n    }\n\n    event EntryNominated(string trackid, string entryid, string location);\n    event EntryLeader(string trackid, string entryid, string location);\n    event TrackSealed();\n    event TrackClosed();\n    event TrackOpened(string trackId, string trackDesc);\n    event TrackListed();\n    event TracksCreated();\n\n    /**\n     * @dev Check if the address is the owner of the entry\n     * @param _entryid The id of the entry to check\n     * @param _addr The address to check against the owner\n     */\n    modifier isEntryOwner(string  memory _entryid, address _addr) {\n        _;\n    }\n\n    modifier isEntryVoter(string  memory _entryid, address _addr) {\n        _;\n    }\n\n    modifier isTrackOwner(string  memory _trackid, address _addr) {\n        _;\n    }\n\n\t\tfunction getTracks() public view returns ( Track[] memory) {\n\t\t    return tracks;\n\t\t}\n\n    function getEntryVotes(string memory  _id) public returns (uint){\n        return votes[_id];\n    }\n\n    function close() public {\n    }\n\n    function vote() public {\n    }\n    \n    function addTrack(string memory _name, string memory _desc) public {\n        tracks.push(\n            Track({\n\t            name: _name,\n\t            desc: _desc,\n\t            id: \"0\",\n\t            state: State.TrackNominating\n\t       })\n\t   \t);\n\t   }\n}\n\n\n",
  "sourcePath": "D:\\projects\\blockchain-developer-bootcamp-final-project\\tracks\\contracts\\Tracks.sol",
  "compiler": {
    "name": "solc",
    "version": "0.8.7+commit.e28d00a7.Emscripten.clang"
  },
  "schemaVersion": "3.4.3",
  "updatedAt": "2021-09-27T15:08:21.550Z",
  "devdoc": {
    "kind": "dev",
    "methods": {},
    "version": 1
  },
  "userdoc": {
    "kind": "user",
    "methods": {},
    "version": 1
  }
}