{
  "contractName": "Tracks",
  "abi": [
    {
      "inputs": [],
      "stateMutability": "nonpayable",
      "type": "constructor"
    },
    {
      "anonymous": false,
      "inputs": [
        {
          "indexed": true,
          "internalType": "uint256",
          "name": "trackId",
          "type": "uint256"
        },
        {
          "indexed": true,
          "internalType": "uint256",
          "name": "entryId",
          "type": "uint256"
        },
        {
          "indexed": false,
          "internalType": "string",
          "name": "name",
          "type": "string"
        },
        {
          "indexed": false,
          "internalType": "string",
          "name": "desc",
          "type": "string"
        },
        {
          "indexed": false,
          "internalType": "string",
          "name": "location",
          "type": "string"
        }
      ],
      "name": "EntryCreated",
      "type": "event"
    },
    {
      "anonymous": false,
      "inputs": [
        {
          "indexed": true,
          "internalType": "uint256",
          "name": "trackId",
          "type": "uint256"
        },
        {
          "indexed": true,
          "internalType": "uint256",
          "name": "entryId",
          "type": "uint256"
        }
      ],
      "name": "EntryVotedFor",
      "type": "event"
    },
    {
      "anonymous": false,
      "inputs": [
        {
          "indexed": true,
          "internalType": "address",
          "name": "previousOwner",
          "type": "address"
        },
        {
          "indexed": true,
          "internalType": "address",
          "name": "newOwner",
          "type": "address"
        }
      ],
      "name": "OwnershipTransferred",
      "type": "event"
    },
    {
      "anonymous": false,
      "inputs": [
        {
          "indexed": false,
          "internalType": "uint256",
          "name": "trackId",
          "type": "uint256"
        }
      ],
      "name": "TrackBlocked",
      "type": "event"
    },
    {
      "anonymous": false,
      "inputs": [
        {
          "indexed": false,
          "internalType": "uint256",
          "name": "trackId",
          "type": "uint256"
        }
      ],
      "name": "TrackClosed",
      "type": "event"
    },
    {
      "anonymous": false,
      "inputs": [
        {
          "indexed": true,
          "internalType": "uint256",
          "name": "trackId",
          "type": "uint256"
        },
        {
          "indexed": false,
          "internalType": "string",
          "name": "name",
          "type": "string"
        },
        {
          "indexed": false,
          "internalType": "string",
          "name": "desc",
          "type": "string"
        }
      ],
      "name": "TrackCreated",
      "type": "event"
    },
    {
      "anonymous": false,
      "inputs": [
        {
          "indexed": false,
          "internalType": "uint256",
          "name": "trackId",
          "type": "uint256"
        }
      ],
      "name": "TrackOpened",
      "type": "event"
    },
    {
      "anonymous": false,
      "inputs": [
        {
          "indexed": false,
          "internalType": "uint256",
          "name": "trackId",
          "type": "uint256"
        }
      ],
      "name": "TrackUnblocked",
      "type": "event"
    },
    {
      "inputs": [],
      "name": "allTracksState",
      "outputs": [
        {
          "internalType": "enum Tracks.State",
          "name": "",
          "type": "uint8"
        }
      ],
      "stateMutability": "view",
      "type": "function"
    },
    {
      "inputs": [],
      "name": "allVotesState",
      "outputs": [
        {
          "internalType": "enum Tracks.State",
          "name": "",
          "type": "uint8"
        }
      ],
      "stateMutability": "view",
      "type": "function"
    },
    {
      "inputs": [
        {
          "internalType": "address",
          "name": "",
          "type": "address"
        }
      ],
      "name": "bannedUsers",
      "outputs": [
        {
          "internalType": "bool",
          "name": "",
          "type": "bool"
        }
      ],
      "stateMutability": "view",
      "type": "function"
    },
    {
      "inputs": [
        {
          "internalType": "uint256",
          "name": "",
          "type": "uint256"
        }
      ],
      "name": "entriesTrack",
      "outputs": [
        {
          "internalType": "uint256",
          "name": "",
          "type": "uint256"
        }
      ],
      "stateMutability": "view",
      "type": "function"
    },
    {
      "inputs": [],
      "name": "entryEventCooldownPeriod",
      "outputs": [
        {
          "internalType": "uint256",
          "name": "",
          "type": "uint256"
        }
      ],
      "stateMutability": "view",
      "type": "function"
    },
    {
      "inputs": [
        {
          "internalType": "address",
          "name": "",
          "type": "address"
        }
      ],
      "name": "entryEventsByUser",
      "outputs": [
        {
          "internalType": "uint256",
          "name": "time",
          "type": "uint256"
        },
        {
          "internalType": "uint256",
          "name": "eventId",
          "type": "uint256"
        }
      ],
      "stateMutability": "view",
      "type": "function"
    },
    {
      "inputs": [
        {
          "internalType": "address",
          "name": "",
          "type": "address"
        },
        {
          "internalType": "uint256",
          "name": "",
          "type": "uint256"
        }
      ],
      "name": "lastVoteTime",
      "outputs": [
        {
          "internalType": "uint256",
          "name": "",
          "type": "uint256"
        }
      ],
      "stateMutability": "view",
      "type": "function"
    },
    {
      "inputs": [],
      "name": "nextEntryId",
      "outputs": [
        {
          "internalType": "uint256",
          "name": "",
          "type": "uint256"
        }
      ],
      "stateMutability": "view",
      "type": "function"
    },
    {
      "inputs": [],
      "name": "nextTrackId",
      "outputs": [
        {
          "internalType": "uint256",
          "name": "",
          "type": "uint256"
        }
      ],
      "stateMutability": "view",
      "type": "function"
    },
    {
      "inputs": [],
      "name": "owner",
      "outputs": [
        {
          "internalType": "address",
          "name": "",
          "type": "address"
        }
      ],
      "stateMutability": "view",
      "type": "function"
    },
    {
      "inputs": [],
      "name": "renounceOwnership",
      "outputs": [],
      "stateMutability": "nonpayable",
      "type": "function"
    },
    {
      "inputs": [],
      "name": "trackCount",
      "outputs": [
        {
          "internalType": "uint256",
          "name": "",
          "type": "uint256"
        }
      ],
      "stateMutability": "view",
      "type": "function"
    },
    {
      "inputs": [
        {
          "internalType": "uint256",
          "name": "",
          "type": "uint256"
        },
        {
          "internalType": "uint256",
          "name": "",
          "type": "uint256"
        }
      ],
      "name": "trackEntries",
      "outputs": [
        {
          "internalType": "uint256",
          "name": "",
          "type": "uint256"
        }
      ],
      "stateMutability": "view",
      "type": "function"
    },
    {
      "inputs": [],
      "name": "trackEventCooldownPeriod",
      "outputs": [
        {
          "internalType": "uint256",
          "name": "",
          "type": "uint256"
        }
      ],
      "stateMutability": "view",
      "type": "function"
    },
    {
      "inputs": [
        {
          "internalType": "address",
          "name": "",
          "type": "address"
        }
      ],
      "name": "trackEventsByUser",
      "outputs": [
        {
          "internalType": "uint256",
          "name": "time",
          "type": "uint256"
        },
        {
          "internalType": "uint256",
          "name": "trackId",
          "type": "uint256"
        }
      ],
      "stateMutability": "view",
      "type": "function"
    },
    {
      "inputs": [
        {
          "internalType": "uint256",
          "name": "",
          "type": "uint256"
        }
      ],
      "name": "trackOwners",
      "outputs": [
        {
          "internalType": "address",
          "name": "",
          "type": "address"
        }
      ],
      "stateMutability": "view",
      "type": "function"
    },
    {
      "inputs": [
        {
          "internalType": "uint256",
          "name": "",
          "type": "uint256"
        }
      ],
      "name": "tracks",
      "outputs": [
        {
          "internalType": "uint256",
          "name": "trackId",
          "type": "uint256"
        },
        {
          "internalType": "string",
          "name": "name",
          "type": "string"
        },
        {
          "internalType": "string",
          "name": "desc",
          "type": "string"
        },
        {
          "internalType": "enum Tracks.State",
          "name": "state",
          "type": "uint8"
        },
        {
          "internalType": "bool",
          "name": "exists",
          "type": "bool"
        }
      ],
      "stateMutability": "view",
      "type": "function"
    },
    {
      "inputs": [
        {
          "internalType": "address",
          "name": "newOwner",
          "type": "address"
        }
      ],
      "name": "transferOwnership",
      "outputs": [],
      "stateMutability": "nonpayable",
      "type": "function"
    },
    {
      "inputs": [],
      "name": "voteCooldownPeriod",
      "outputs": [
        {
          "internalType": "uint256",
          "name": "",
          "type": "uint256"
        }
      ],
      "stateMutability": "view",
      "type": "function"
    },
    {
      "inputs": [
        {
          "internalType": "address",
          "name": "",
          "type": "address"
        },
        {
          "internalType": "uint256",
          "name": "",
          "type": "uint256"
        }
      ],
      "name": "votesByAddress",
      "outputs": [
        {
          "internalType": "bool",
          "name": "",
          "type": "bool"
        }
      ],
      "stateMutability": "view",
      "type": "function"
    },
    {
      "inputs": [
        {
          "internalType": "uint256",
          "name": "",
          "type": "uint256"
        }
      ],
      "name": "votesByTrack",
      "outputs": [
        {
          "internalType": "uint256",
          "name": "",
          "type": "uint256"
        }
      ],
      "stateMutability": "view",
      "type": "function"
    },
    {
      "inputs": [],
      "name": "getTracks",
      "outputs": [
        {
          "components": [
            {
              "internalType": "uint256",
              "name": "trackId",
              "type": "uint256"
            },
            {
              "internalType": "string",
              "name": "name",
              "type": "string"
            },
            {
              "internalType": "string",
              "name": "desc",
              "type": "string"
            },
            {
              "internalType": "enum Tracks.State",
              "name": "state",
              "type": "uint8"
            },
            {
              "internalType": "bool",
              "name": "exists",
              "type": "bool"
            }
          ],
          "internalType": "struct Tracks.Track[]",
          "name": "",
          "type": "tuple[]"
        }
      ],
      "stateMutability": "view",
      "type": "function"
    },
    {
      "inputs": [
        {
          "internalType": "uint256",
          "name": "_trackId",
          "type": "uint256"
        }
      ],
      "name": "getTrack",
      "outputs": [
        {
          "components": [
            {
              "internalType": "uint256",
              "name": "trackId",
              "type": "uint256"
            },
            {
              "internalType": "string",
              "name": "name",
              "type": "string"
            },
            {
              "internalType": "string",
              "name": "desc",
              "type": "string"
            },
            {
              "internalType": "enum Tracks.State",
              "name": "state",
              "type": "uint8"
            },
            {
              "internalType": "bool",
              "name": "exists",
              "type": "bool"
            }
          ],
          "internalType": "struct Tracks.Track",
          "name": "",
          "type": "tuple"
        }
      ],
      "stateMutability": "view",
      "type": "function"
    },
    {
      "inputs": [
        {
          "internalType": "uint256",
          "name": "_trackId",
          "type": "uint256"
        }
      ],
      "name": "getEntriesForTrack",
      "outputs": [
        {
          "internalType": "uint256[]",
          "name": "",
          "type": "uint256[]"
        }
      ],
      "stateMutability": "view",
      "type": "function"
    },
    {
      "inputs": [
        {
          "internalType": "uint256",
          "name": "_trackId",
          "type": "uint256"
        }
      ],
      "name": "openTrack",
      "outputs": [],
      "stateMutability": "nonpayable",
      "type": "function"
    },
    {
      "inputs": [
        {
          "internalType": "uint256",
          "name": "_trackId",
          "type": "uint256"
        }
      ],
      "name": "closeTrack",
      "outputs": [],
      "stateMutability": "nonpayable",
      "type": "function"
    },
    {
      "inputs": [
        {
          "internalType": "uint256",
          "name": "_trackId",
          "type": "uint256"
        }
      ],
      "name": "blockTrack",
      "outputs": [],
      "stateMutability": "nonpayable",
      "type": "function"
    },
    {
      "inputs": [
        {
          "internalType": "uint256",
          "name": "_trackId",
          "type": "uint256"
        }
      ],
      "name": "unblockTrack",
      "outputs": [],
      "stateMutability": "nonpayable",
      "type": "function"
    },
    {
      "inputs": [
        {
          "internalType": "uint256",
          "name": "_trackId",
          "type": "uint256"
        }
      ],
      "name": "isTrackOpen",
      "outputs": [
        {
          "internalType": "bool",
          "name": "",
          "type": "bool"
        }
      ],
      "stateMutability": "view",
      "type": "function"
    },
    {
      "inputs": [
        {
          "internalType": "uint256",
          "name": "_trackId",
          "type": "uint256"
        }
      ],
      "name": "isTrackClosed",
      "outputs": [
        {
          "internalType": "bool",
          "name": "",
          "type": "bool"
        }
      ],
      "stateMutability": "view",
      "type": "function"
    },
    {
      "inputs": [
        {
          "internalType": "uint256",
          "name": "_trackId",
          "type": "uint256"
        }
      ],
      "name": "isTrackBlocked",
      "outputs": [
        {
          "internalType": "bool",
          "name": "",
          "type": "bool"
        }
      ],
      "stateMutability": "view",
      "type": "function"
    },
    {
      "inputs": [
        {
          "internalType": "uint256",
          "name": "_entryId",
          "type": "uint256"
        }
      ],
      "name": "vote",
      "outputs": [],
      "stateMutability": "nonpayable",
      "type": "function"
    },
    {
      "inputs": [
        {
          "internalType": "uint256",
          "name": "_trackId",
          "type": "uint256"
        },
        {
          "internalType": "string",
          "name": "_name",
          "type": "string"
        },
        {
          "internalType": "string",
          "name": "_desc",
          "type": "string"
        },
        {
          "internalType": "string",
          "name": "_location",
          "type": "string"
        }
      ],
      "name": "addEntry",
      "outputs": [
        {
          "internalType": "uint256",
          "name": "",
          "type": "uint256"
        }
      ],
      "stateMutability": "nonpayable",
      "type": "function"
    },
    {
      "inputs": [
        {
          "internalType": "string",
          "name": "_name",
          "type": "string"
        },
        {
          "internalType": "string",
          "name": "_desc",
          "type": "string"
        }
      ],
      "name": "addTrack",
      "outputs": [
        {
          "internalType": "uint256",
          "name": "",
          "type": "uint256"
        }
      ],
      "stateMutability": "nonpayable",
      "type": "function"
    },
    {
      "inputs": [
        {
          "internalType": "bool",
          "name": "enable",
          "type": "bool"
        }
      ],
      "name": "disableAllTracks",
      "outputs": [],
      "stateMutability": "nonpayable",
      "type": "function"
    },
    {
      "inputs": [
        {
          "internalType": "bool",
          "name": "enable",
          "type": "bool"
        }
      ],
      "name": "disableAllVoting",
      "outputs": [],
      "stateMutability": "nonpayable",
      "type": "function"
    },
    {
      "inputs": [
        {
          "internalType": "address",
          "name": "addr",
          "type": "address"
        },
        {
          "internalType": "bool",
          "name": "banned",
          "type": "bool"
        }
      ],
      "name": "banUser",
      "outputs": [],
      "stateMutability": "nonpayable",
      "type": "function"
    },
    {
      "inputs": [
        {
          "internalType": "bool",
          "name": "enable",
          "type": "bool"
        }
      ],
      "name": "enableCooldowns",
      "outputs": [],
      "stateMutability": "nonpayable",
      "type": "function"
    }
  ],
  "bytecode": "0x60806040523480156200001157600080fd5b506200003262000026620001f360201b60201c565b620001fb60201b60201c565b603c600e81905550603c600f81905550603c6010819055506000601160006101000a81548160ff0219169083600281111562000073576200007262001209565b5b02179055506000601160016101000a81548160ff02191690836002811115620000a157620000a062001209565b5b02179055506000620001246040518060400160405280600b81526020017f66697273745f747261636b0000000000000000000000000000000000000000008152506040518060400160405280601781526020017f546869732069732074686520666972737420747261636b000000000000000000815250620002bf60201b60201c565b9050620001d9816040518060400160405280600481526020017f6e616d65000000000000000000000000000000000000000000000000000000008152506040518060400160405280600b81526020017f6465736372697074696f6e0000000000000000000000000000000000000000008152506040518060400160405280600881526020017f6c6f636174696f6e0000000000000000000000000000000000000000000000008152506200079460201b60201c565b50620001ec600162000c6060201b60201c565b5062001406565b600033905090565b60008060009054906101000a900473ffffffffffffffffffffffffffffffffffffffff169050816000806101000a81548173ffffffffffffffffffffffffffffffffffffffff021916908373ffffffffffffffffffffffffffffffffffffffff1602179055508173ffffffffffffffffffffffffffffffffffffffff168173ffffffffffffffffffffffffffffffffffffffff167f8be0079c531659141344cd1fd0a4f28419497f9722a3daafe3b4186f6b6457e060405160405180910390a35050565b6000600280811115620002d757620002d662001209565b5b601160009054906101000a900460ff166002811115620002fc57620002fb62001209565b5b141562000340576040517f08c379a0000000000000000000000000000000000000000000000000000000008152600401620003379062001059565b60405180910390fd5b33601160029054906101000a900460ff1615806200039857506200036962000d4060201b60201c565b73ffffffffffffffffffffffffffffffffffffffff168173ffffffffffffffffffffffffffffffffffffffff16145b80620003e657506000600660008373ffffffffffffffffffffffffffffffffffffffff1673ffffffffffffffffffffffffffffffffffffffff16815260200190815260200160002060000154145b8062000442575042601054600660008473ffffffffffffffffffffffffffffffffffffffff1673ffffffffffffffffffffffffffffffffffffffff16815260200190815260200160002060000154620004409190620010b9565b115b62000484576040517f08c379a00000000000000000000000000000000000000000000000000000000081526004016200047b906200107b565b60405180910390fd5b336200049562000d4060201b60201c565b73ffffffffffffffffffffffffffffffffffffffff168173ffffffffffffffffffffffffffffffffffffffff1614158062000521575060011515600a60008373ffffffffffffffffffffffffffffffffffffffff1673ffffffffffffffffffffffffffffffffffffffff16815260200190815260200160002060009054906101000a900460ff16151514155b62000563576040517f08c379a00000000000000000000000000000000000000000000000000000000081526004016200055a9062001037565b60405180910390fd5b6000600b5490506040518060a00160405280828152602001878152602001868152602001600060028111156200059e576200059d62001209565b5b81526020016001151581525060016000838152602001908152602001600020600082015181600001556020820151816001019080519060200190620005e592919062000d69565b5060408201518160020190805190602001906200060492919062000d69565b5060608201518160030160006101000a81548160ff0219169083600281111562000633576200063262001209565b5b021790555060808201518160030160016101000a81548160ff021916908315150217905550905050604051806040016040528042815260200182815250600660003373ffffffffffffffffffffffffffffffffffffffff1673ffffffffffffffffffffffffffffffffffffffff1681526020019081526020016000206000820151816000015560208201518160010155905050336004600083815260200190815260200160002060006101000a81548173ffffffffffffffffffffffffffffffffffffffff021916908373ffffffffffffffffffffffffffffffffffffffff160217905550600b60008154809291906200072d906200118c565b9190505550600c600081548092919062000747906200118c565b9190505550807f21579433a032855e20e8afc48e980ddae0b6285e4aa03370f03192be12bea28b87876040516200078092919062000f44565b60405180910390a280935050505092915050565b6000600280811115620007ac57620007ab62001209565b5b601160009054906101000a900460ff166002811115620007d157620007d062001209565b5b141562000815576040517f08c379a00000000000000000000000000000000000000000000000000000000081526004016200080c9062001059565b60405180910390fd5b336200082662000d4060201b60201c565b73ffffffffffffffffffffffffffffffffffffffff168173ffffffffffffffffffffffffffffffffffffffff16141580620008b2575060011515600a60008373ffffffffffffffffffffffffffffffffffffffff1673ffffffffffffffffffffffffffffffffffffffff16815260200190815260200160002060009054906101000a900460ff16151514155b620008f4576040517f08c379a0000000000000000000000000000000000000000000000000000000008152600401620008eb9062001037565b60405180910390fd5b33601160049054906101000a900460ff1615806200094c57506200091d62000d4060201b60201c565b73ffffffffffffffffffffffffffffffffffffffff168173ffffffffffffffffffffffffffffffffffffffff16145b806200099a57506000600760008373ffffffffffffffffffffffffffffffffffffffff1673ffffffffffffffffffffffffffffffffffffffff16815260200190815260200160002060000154145b80620009f6575042600f54600760008473ffffffffffffffffffffffffffffffffffffffff1673ffffffffffffffffffffffffffffffffffffffff16815260200190815260200160002060000154620009f49190620010b9565b115b62000a38576040517f08c379a000000000000000000000000000000000000000000000000000000000815260040162000a2f9062000ff3565b60405180910390fd5b866000600281111562000a505762000a4f62001209565b5b6001600083815260200190815260200160002060030160009054906101000a900460ff16600281111562000a895762000a8862001209565b5b1462000a9457600080fd5b6000600281111562000aab5762000aaa62001209565b5b601160009054906101000a900460ff16600281111562000ad05762000acf62001209565b5b1462000b13576040517f08c379a000000000000000000000000000000000000000000000000000000000815260040162000b0a9062000fd1565b60405180910390fd5b6000600d549050600060036000838152602001908152602001600020541462000b3b57600080fd5b600260008a8152602001908152602001600020819080600181540180825580915050600190039060005260206000200160009091909190915055886003600083815260200190815260200160002081905550604051806040016040528042815260200182815250600760003373ffffffffffffffffffffffffffffffffffffffff1673ffffffffffffffffffffffffffffffffffffffff1681526020019081526020016000206000820151816000015560208201518160010155905050600d600081548092919062000c0d906200118c565b919050555080897f313f81e8cc8fe5ab3d1facaeffd8e0d26068ff1776d23a4621a5bdb0c891c8178a8a8a60405162000c499392919062000f7f565b60405180910390a380945050505050949350505050565b62000c70620001f360201b60201c565b73ffffffffffffffffffffffffffffffffffffffff1662000c9662000d4060201b60201c565b73ffffffffffffffffffffffffffffffffffffffff161462000cef576040517f08c379a000000000000000000000000000000000000000000000000000000000815260040162000ce69062001015565b60405180910390fd5b80601160026101000a81548160ff02191690831515021790555080601160036101000a81548160ff02191690831515021790555080601160046101000a81548160ff02191690831515021790555050565b60008060009054906101000a900473ffffffffffffffffffffffffffffffffffffffff16905090565b82805462000d779062001156565b90600052602060002090601f01602090048101928262000d9b576000855562000de7565b82601f1062000db657805160ff191683800117855562000de7565b8280016001018555821562000de7579182015b8281111562000de657825182559160200191906001019062000dc9565b5b50905062000df6919062000dfa565b5090565b5b8082111562000e1557600081600090555060010162000dfb565b5090565b600062000e26826200109d565b62000e328185620010a8565b935062000e4481856020860162001120565b62000e4f8162001267565b840191505092915050565b600062000e69602483620010a8565b915062000e768262001278565b604082019050919050565b600062000e90602483620010a8565b915062000e9d82620012c7565b604082019050919050565b600062000eb7602083620010a8565b915062000ec48262001316565b602082019050919050565b600062000ede601d83620010a8565b915062000eeb826200133f565b602082019050919050565b600062000f05602583620010a8565b915062000f128262001368565b604082019050919050565b600062000f2c602483620010a8565b915062000f3982620013b7565b604082019050919050565b6000604082019050818103600083015262000f60818562000e19565b9050818103602083015262000f76818462000e19565b90509392505050565b6000606082019050818103600083015262000f9b818662000e19565b9050818103602083015262000fb1818562000e19565b9050818103604083015262000fc7818462000e19565b9050949350505050565b6000602082019050818103600083015262000fec8162000e5a565b9050919050565b600060208201905081810360008301526200100e8162000e81565b9050919050565b60006020820190508181036000830152620010308162000ea8565b9050919050565b60006020820190508181036000830152620010528162000ecf565b9050919050565b60006020820190508181036000830152620010748162000ef6565b9050919050565b60006020820190508181036000830152620010968162000f1d565b9050919050565b600081519050919050565b600082825260208201905092915050565b6000620010c68262001116565b9150620010d38362001116565b9250827fffffffffffffffffffffffffffffffffffffffffffffffffffffffffffffffff038211156200110b576200110a620011da565b5b828201905092915050565b6000819050919050565b60005b838110156200114057808201518184015260208101905062001123565b8381111562001150576000848401525b50505050565b600060028204905060018216806200116f57607f821691505b6020821081141562001186576200118562001238565b5b50919050565b6000620011998262001116565b91507fffffffffffffffffffffffffffffffffffffffffffffffffffffffffffffffff821415620011cf57620011ce620011da565b5b600182019050919050565b7f4e487b7100000000000000000000000000000000000000000000000000000000600052601160045260246000fd5b7f4e487b7100000000000000000000000000000000000000000000000000000000600052602160045260246000fd5b7f4e487b7100000000000000000000000000000000000000000000000000000000600052602260045260246000fd5b6000601f19601f8301169050919050565b7f416c6c20747261636b732068617665206265656e20636c6f736564206279206160008201527f646d696e00000000000000000000000000000000000000000000000000000000602082015250565b7f557365722069732063757272656e746c7920696e20656e74727920636f6f6c6460008201527f6f776e2e00000000000000000000000000000000000000000000000000000000602082015250565b7f4f776e61626c653a2063616c6c6572206973206e6f7420746865206f776e6572600082015250565b7f5573657220686173206265656e2062616e6e65642062792061646d696e000000600082015250565b7f416c6c20747261636b732068617665206265656e20626c6f636b65642062792060008201527f61646d696e000000000000000000000000000000000000000000000000000000602082015250565b7f557365722069732063757272656e746c7920696e20747261636b20636f6f6c6460008201527f6f776e2e00000000000000000000000000000000000000000000000000000000602082015250565b61440280620014166000396000f3fe608060405234801561001057600080fd5b50600436106102325760003560e01c8063924e9b9511610130578063caa2c2ad116100b8578063eea85bc51161007c578063eea85bc514610716578063ef75976114610747578063f2fde38b14610763578063f838e33f1461077f578063fb0084471461079d57610232565b8063caa2c2ad14610637578063d02f448314610667578063db7c01e214610697578063debe8ab7146106c7578063e6b2cf6c146106f857610232565b8063a5bf8ea9116100ff578063a5bf8ea9146105a5578063a72024c6146105c1578063ab35678c146105df578063add509c0146105fd578063bb855ee61461061957610232565b8063924e9b95146104e157806395ab2b9814610511578063962dd80714610541578063a2e345861461057157610232565b80635be85297116101be578063715018a611610182578063715018a61461044f57806387548fcf146104595780638988d078146104775780638da5cb5b146104a75780638ee223f9146104c557610232565b80635be85297146103995780635e11ca82146103b5578063629058ca146103d357806366cb59361461040357806368e982b01461043357610232565b80632e42ddbf116102055780632e42ddbf146102bd57806333abbe51146102ed57806336de40be1461031d578063423b70321461034d5780634bc558b31461036957610232565b80630121b93f146102375780630955ccff14610253578063109699b6146102715780631f6c5f00146102a1575b600080fd5b610251600480360381019061024c91906132ca565b6107bb565b005b61025b610d60565b6040516102689190613baa565b60405180910390f35b61028b600480360381019061028691906133b2565b610d66565b6040516102989190613baa565b60405180910390f35b6102bb60048036038101906102b691906132ca565b610d97565b005b6102d760048036038101906102d291906132f7565b610fdc565b6040516102e49190613baa565b60405180910390f35b610307600480360381019061030291906132ca565b61146e565b604051610314919061390f565b60405180910390f35b61033760048036038101906103329190613252565b61152e565b6040516103449190613baa565b60405180910390f35b610367600480360381019061036291906132ca565b6119ce565b005b610383600480360381019061037e91906131e5565b611c52565b6040516103909190613baa565b60405180910390f35b6103b360048036038101906103ae9190613225565b611c77565b005b6103bd611d44565b6040516103ca919061392a565b60405180910390f35b6103ed60048036038101906103e891906132ca565b611d57565b6040516103fa9190613b88565b60405180910390f35b61041d600480360381019061041891906132ca565b611f94565b60405161042a919061390f565b60405180910390f35b61044d600480360381019061044891906132ca565b612054565b005b610457612297565b005b61046161231f565b60405161046e91906138cb565b60405180910390f35b610491600480360381019061048c9190613178565b612563565b60405161049e919061390f565b60405180910390f35b6104af612583565b6040516104bc91906138b0565b60405180910390f35b6104df60048036038101906104da91906131a5565b6125ac565b005b6104fb60048036038101906104f691906132ca565b612683565b6040516105089190613baa565b60405180910390f35b61052b600480360381019061052691906132ca565b61269b565b60405161053891906138b0565b60405180910390f35b61055b600480360381019061055691906132ca565b6126ce565b6040516105689190613baa565b60405180910390f35b61058b600480360381019061058691906132ca565b6126e6565b60405161059c959493929190613bc5565b60405180910390f35b6105bf60048036038101906105ba9190613225565b612846565b005b6105c9612927565b6040516105d69190613baa565b60405180910390f35b6105e761292d565b6040516105f49190613baa565b60405180910390f35b61061760048036038101906106129190613225565b612933565b005b610621612a14565b60405161062e9190613baa565b60405180910390f35b610651600480360381019061064c91906132ca565b612a1a565b60405161065e919061390f565b60405180910390f35b610681600480360381019061067c91906132ca565b612ad9565b60405161068e91906138ed565b60405180910390f35b6106b160048036038101906106ac91906131e5565b612b44565b6040516106be919061390f565b60405180910390f35b6106e160048036038101906106dc9190613178565b612b73565b6040516106ef929190613c26565b60405180910390f35b610700612b97565b60405161070d9190613baa565b60405180910390f35b610730600480360381019061072b9190613178565b612b9d565b60405161073e929190613c26565b60405180910390f35b610761600480360381019061075c91906132ca565b612bc1565b005b61077d60048036038101906107789190613178565b612e06565b005b610787612efe565b6040516107949190613baa565b60405180910390f35b6107a5612f04565b6040516107b2919061392a565b60405180910390f35b6003600082815260200190815260200160002054600060028111156107e3576107e2613f24565b5b6001600083815260200190815260200160002060030160009054906101000a900460ff16600281111561081957610818613f24565b5b1461082357600080fd5b6000600281111561083757610836613f24565b5b601160009054906101000a900460ff16600281111561085957610858613f24565b5b14610899576040517f08c379a000000000000000000000000000000000000000000000000000000000815260040161089090613a28565b60405180910390fd5b33826108a3612583565b73ffffffffffffffffffffffffffffffffffffffff168273ffffffffffffffffffffffffffffffffffffffff16148061093d575060001515600560008473ffffffffffffffffffffffffffffffffffffffff1673ffffffffffffffffffffffffffffffffffffffff168152602001908152602001600020600083815260200190815260200160002060009054906101000a900460ff161515145b61097c576040517f08c379a000000000000000000000000000000000000000000000000000000000815260040161097390613a68565b60405180910390fd5b60028081111561098f5761098e613f24565b5b601160019054906101000a900460ff1660028111156109b1576109b0613f24565b5b14156109f2576040517f08c379a00000000000000000000000000000000000000000000000000000000081526004016109e990613a88565b60405180910390fd5b336109fb612583565b73ffffffffffffffffffffffffffffffffffffffff168173ffffffffffffffffffffffffffffffffffffffff16141580610a86575060011515600a60008373ffffffffffffffffffffffffffffffffffffffff1673ffffffffffffffffffffffffffffffffffffffff16815260200190815260200160002060009054906101000a900460ff16151514155b610ac5576040517f08c379a0000000000000000000000000000000000000000000000000000000008152600401610abc90613ae8565b60405180910390fd5b336003600087815260200190815260200160002054601160039054906101000a900460ff161580610b285750610af9612583565b73ffffffffffffffffffffffffffffffffffffffff168273ffffffffffffffffffffffffffffffffffffffff16145b80610b8357506000600960008473ffffffffffffffffffffffffffffffffffffffff1673ffffffffffffffffffffffffffffffffffffffff168152602001908152602001600020600083815260200190815260200160002054145b80610bea575042600e54600960008573ffffffffffffffffffffffffffffffffffffffff1673ffffffffffffffffffffffffffffffffffffffff168152602001908152602001600020600084815260200190815260200160002054610be89190613d44565b115b610c29576040517f08c379a0000000000000000000000000000000000000000000000000000000008152600401610c20906139e8565b60405180910390fd5b6000600360008981526020019081526020016000205490506001600560003373ffffffffffffffffffffffffffffffffffffffff1673ffffffffffffffffffffffffffffffffffffffff16815260200190815260200160002060008a815260200190815260200160002060006101000a81548160ff02191690831515021790555042600960003373ffffffffffffffffffffffffffffffffffffffff1673ffffffffffffffffffffffffffffffffffffffff168152602001908152602001600020600083815260200190815260200160002081905550600860008281526020019081526020016000206000815480929190610d2390613eac565b919050555087817f23b2bfc0c368fdbec2cf6a0878f8f7ab7d497f92861fa232c0111ca69f63dc8260405160405180910390a35050505050505050565b600e5481565b60026020528160005260406000208181548110610d8257600080fd5b90600052602060002001600091509150505481565b80600115156001600083815260200190815260200160002060030160019054906101000a900460ff16151514610e02576040517f08c379a0000000000000000000000000000000000000000000000000000000008152600401610df990613b68565b60405180910390fd5b8160016002811115610e1757610e16613f24565b5b6001600083815260200190815260200160002060030160009054906101000a900460ff166002811115610e4d57610e4c613f24565b5b14610e8d576040517f08c379a0000000000000000000000000000000000000000000000000000000008152600401610e84906139c8565b60405180910390fd5b33610e96612583565b73ffffffffffffffffffffffffffffffffffffffff168173ffffffffffffffffffffffffffffffffffffffff16141580610f21575060011515600a60008373ffffffffffffffffffffffffffffffffffffffff1673ffffffffffffffffffffffffffffffffffffffff16815260200190815260200160002060009054906101000a900460ff16151514155b610f60576040517f08c379a0000000000000000000000000000000000000000000000000000000008152600401610f5790613ae8565b60405180910390fd5b60006001600086815260200190815260200160002060030160006101000a81548160ff02191690836002811115610f9a57610f99613f24565b5b02179055507f5a695f43d53bb74f4457f1a60951e2c514c6de79da9a8d8369848853d647cc6a84604051610fce9190613baa565b60405180910390a150505050565b6000600280811115610ff157610ff0613f24565b5b601160009054906101000a900460ff16600281111561101357611012613f24565b5b1415611054576040517f08c379a000000000000000000000000000000000000000000000000000000000815260040161104b90613b08565b60405180910390fd5b3361105d612583565b73ffffffffffffffffffffffffffffffffffffffff168173ffffffffffffffffffffffffffffffffffffffff161415806110e8575060011515600a60008373ffffffffffffffffffffffffffffffffffffffff1673ffffffffffffffffffffffffffffffffffffffff16815260200190815260200160002060009054906101000a900460ff16151514155b611127576040517f08c379a000000000000000000000000000000000000000000000000000000000815260040161111e90613ae8565b60405180910390fd5b33601160049054906101000a900460ff1615806111765750611147612583565b73ffffffffffffffffffffffffffffffffffffffff168173ffffffffffffffffffffffffffffffffffffffff16145b806111c357506000600760008373ffffffffffffffffffffffffffffffffffffffff1673ffffffffffffffffffffffffffffffffffffffff16815260200190815260200160002060000154145b8061121c575042600f54600760008473ffffffffffffffffffffffffffffffffffffffff1673ffffffffffffffffffffffffffffffffffffffff1681526020019081526020016000206000015461121a9190613d44565b115b61125b576040517f08c379a000000000000000000000000000000000000000000000000000000000815260040161125290613a48565b60405180910390fd5b86600060028111156112705761126f613f24565b5b6001600083815260200190815260200160002060030160009054906101000a900460ff1660028111156112a6576112a5613f24565b5b146112b057600080fd5b600060028111156112c4576112c3613f24565b5b601160009054906101000a900460ff1660028111156112e6576112e5613f24565b5b14611326576040517f08c379a000000000000000000000000000000000000000000000000000000000815260040161131d90613a28565b60405180910390fd5b6000600d549050600060036000838152602001908152602001600020541461134d57600080fd5b600260008a8152602001908152602001600020819080600181540180825580915050600190039060005260206000200160009091909190915055886003600083815260200190815260200160002081905550604051806040016040528042815260200182815250600760003373ffffffffffffffffffffffffffffffffffffffff1673ffffffffffffffffffffffffffffffffffffffff1681526020019081526020016000206000820151816000015560208201518160010155905050600d600081548092919061141d90613eac565b919050555080897f313f81e8cc8fe5ab3d1facaeffd8e0d26068ff1776d23a4621a5bdb0c891c8178a8a8a6040516114579392919061397c565b60405180910390a380945050505050949350505050565b600081600115156001600083815260200190815260200160002060030160019054906101000a900460ff161515146114db576040517f08c379a00000000000000000000000000000000000000000000000000000000081526004016114d290613b68565b60405180910390fd5b600160028111156114ef576114ee613f24565b5b6001600085815260200190815260200160002060030160009054906101000a900460ff16600281111561152557611524613f24565b5b14915050919050565b600060028081111561154357611542613f24565b5b601160009054906101000a900460ff16600281111561156557611564613f24565b5b14156115a6576040517f08c379a000000000000000000000000000000000000000000000000000000000815260040161159d90613b08565b60405180910390fd5b33601160029054906101000a900460ff1615806115f557506115c6612583565b73ffffffffffffffffffffffffffffffffffffffff168173ffffffffffffffffffffffffffffffffffffffff16145b8061164257506000600660008373ffffffffffffffffffffffffffffffffffffffff1673ffffffffffffffffffffffffffffffffffffffff16815260200190815260200160002060000154145b8061169b575042601054600660008473ffffffffffffffffffffffffffffffffffffffff1673ffffffffffffffffffffffffffffffffffffffff168152602001908152602001600020600001546116999190613d44565b115b6116da576040517f08c379a00000000000000000000000000000000000000000000000000000000081526004016116d190613b48565b60405180910390fd5b336116e3612583565b73ffffffffffffffffffffffffffffffffffffffff168173ffffffffffffffffffffffffffffffffffffffff1614158061176e575060011515600a60008373ffffffffffffffffffffffffffffffffffffffff1673ffffffffffffffffffffffffffffffffffffffff16815260200190815260200160002060009054906101000a900460ff16151514155b6117ad576040517f08c379a00000000000000000000000000000000000000000000000000000000081526004016117a490613ae8565b60405180910390fd5b6000600b5490506040518060a00160405280828152602001878152602001868152602001600060028111156117e5576117e4613f24565b5b8152602001600115158152506001600083815260200190815260200160002060008201518160000155602082015181600101908051906020019061182a929190612fe3565b506040820151816002019080519060200190611847929190612fe3565b5060608201518160030160006101000a81548160ff0219169083600281111561187357611872613f24565b5b021790555060808201518160030160016101000a81548160ff021916908315150217905550905050604051806040016040528042815260200182815250600660003373ffffffffffffffffffffffffffffffffffffffff1673ffffffffffffffffffffffffffffffffffffffff1681526020019081526020016000206000820151816000015560208201518160010155905050336004600083815260200190815260200160002060006101000a81548173ffffffffffffffffffffffffffffffffffffffff021916908373ffffffffffffffffffffffffffffffffffffffff160217905550600b600081548092919061196b90613eac565b9190505550600c600081548092919061198390613eac565b9190505550807f21579433a032855e20e8afc48e980ddae0b6285e4aa03370f03192be12bea28b87876040516119ba929190613945565b60405180910390a280935050505092915050565b80600115156001600083815260200190815260200160002060030160019054906101000a900460ff16151514611a39576040517f08c379a0000000000000000000000000000000000000000000000000000000008152600401611a3090613b68565b60405180910390fd5b8160006002811115611a4e57611a4d613f24565b5b6001600083815260200190815260200160002060030160009054906101000a900460ff166002811115611a8457611a83613f24565b5b14611a8e57600080fd5b60006002811115611aa257611aa1613f24565b5b601160009054906101000a900460ff166002811115611ac457611ac3613f24565b5b14611b04576040517f08c379a0000000000000000000000000000000000000000000000000000000008152600401611afb90613a28565b60405180910390fd5b33611b0d612583565b73ffffffffffffffffffffffffffffffffffffffff168173ffffffffffffffffffffffffffffffffffffffff16141580611b98575060011515600a60008373ffffffffffffffffffffffffffffffffffffffff1673ffffffffffffffffffffffffffffffffffffffff16815260200190815260200160002060009054906101000a900460ff16151514155b611bd7576040517f08c379a0000000000000000000000000000000000000000000000000000000008152600401611bce90613ae8565b60405180910390fd5b600180600086815260200190815260200160002060030160006101000a81548160ff02191690836002811115611c1057611c0f613f24565b5b02179055507feabb282842a353a61f42a3352791a6bf8d0f0b5d6e9cec67e0a0e2c42f387b9b84604051611c449190613baa565b60405180910390a150505050565b6009602052816000526040600020602052806000526040600020600091509150505481565b611c7f612f17565b73ffffffffffffffffffffffffffffffffffffffff16611c9d612583565b73ffffffffffffffffffffffffffffffffffffffff1614611cf3576040517f08c379a0000000000000000000000000000000000000000000000000000000008152600401611cea90613ac8565b60405180910390fd5b80601160026101000a81548160ff02191690831515021790555080601160036101000a81548160ff02191690831515021790555080601160046101000a81548160ff02191690831515021790555050565b601160009054906101000a900460ff1681565b611d5f613069565b81600280811115611d7357611d72613f24565b5b6001600083815260200190815260200160002060030160009054906101000a900460ff166002811115611da957611da8613f24565b5b1415611dea576040517f08c379a0000000000000000000000000000000000000000000000000000000008152600401611de190613aa8565b60405180910390fd5b600160008481526020019081526020016000206040518060a001604052908160008201548152602001600182018054611e2290613e49565b80601f0160208091040260200160405190810160405280929190818152602001828054611e4e90613e49565b8015611e9b5780601f10611e7057610100808354040283529160200191611e9b565b820191906000526020600020905b815481529060010190602001808311611e7e57829003601f168201915b50505050508152602001600282018054611eb490613e49565b80601f0160208091040260200160405190810160405280929190818152602001828054611ee090613e49565b8015611f2d5780601f10611f0257610100808354040283529160200191611f2d565b820191906000526020600020905b815481529060010190602001808311611f1057829003601f168201915b505050505081526020016003820160009054906101000a900460ff166002811115611f5b57611f5a613f24565b5b6002811115611f6d57611f6c613f24565b5b81526020016003820160019054906101000a900460ff161515151581525050915050919050565b600081600115156001600083815260200190815260200160002060030160019054906101000a900460ff16151514612001576040517f08c379a0000000000000000000000000000000000000000000000000000000008152600401611ff890613b68565b60405180910390fd5b6000600281111561201557612014613f24565b5b6001600085815260200190815260200160002060030160009054906101000a900460ff16600281111561204b5761204a613f24565b5b14915050919050565b80600115156001600083815260200190815260200160002060030160019054906101000a900460ff161515146120bf576040517f08c379a00000000000000000000000000000000000000000000000000000000081526004016120b690613b68565b60405180910390fd5b816002808111156120d3576120d2613f24565b5b6001600083815260200190815260200160002060030160009054906101000a900460ff16600281111561210957612108613f24565b5b14612149576040517f08c379a000000000000000000000000000000000000000000000000000000000815260040161214090613b28565b60405180910390fd5b33612152612583565b73ffffffffffffffffffffffffffffffffffffffff168173ffffffffffffffffffffffffffffffffffffffff161415806121dd575060011515600a60008373ffffffffffffffffffffffffffffffffffffffff1673ffffffffffffffffffffffffffffffffffffffff16815260200190815260200160002060009054906101000a900460ff16151514155b61221c576040517f08c379a000000000000000000000000000000000000000000000000000000000815260040161221390613ae8565b60405180910390fd5b600180600086815260200190815260200160002060030160006101000a81548160ff0219169083600281111561225557612254613f24565b5b02179055507fe23a63f864ee1069bc665aa3ed0b1dccc848ab996543e77baed0f465e8145c60846040516122899190613baa565b60405180910390a150505050565b61229f612f17565b73ffffffffffffffffffffffffffffffffffffffff166122bd612583565b73ffffffffffffffffffffffffffffffffffffffff1614612313576040517f08c379a000000000000000000000000000000000000000000000000000000000815260040161230a90613ac8565b60405180910390fd5b61231d6000612f1f565b565b60606000600c5467ffffffffffffffff81111561233f5761233e613fb1565b5b60405190808252806020026020018201604052801561237857816020015b612365613069565b81526020019060019003908161235d5790505b50905060005b600c5481101561255b57600160008281526020019081526020016000206040518060a0016040529081600082015481526020016001820180546123c090613e49565b80601f01602080910402602001604051908101604052809291908181526020018280546123ec90613e49565b80156124395780601f1061240e57610100808354040283529160200191612439565b820191906000526020600020905b81548152906001019060200180831161241c57829003601f168201915b5050505050815260200160028201805461245290613e49565b80601f016020809104026020016040519081016040528092919081815260200182805461247e90613e49565b80156124cb5780601f106124a0576101008083540402835291602001916124cb565b820191906000526020600020905b8154815290600101906020018083116124ae57829003601f168201915b505050505081526020016003820160009054906101000a900460ff1660028111156124f9576124f8613f24565b5b600281111561250b5761250a613f24565b5b81526020016003820160019054906101000a900460ff16151515158152505082828151811061253d5761253c613f82565b5b6020026020010181905250808061255390613eac565b91505061237e565b508091505090565b600a6020528060005260406000206000915054906101000a900460ff1681565b60008060009054906101000a900473ffffffffffffffffffffffffffffffffffffffff16905090565b6125b4612f17565b73ffffffffffffffffffffffffffffffffffffffff166125d2612583565b73ffffffffffffffffffffffffffffffffffffffff1614612628576040517f08c379a000000000000000000000000000000000000000000000000000000000815260040161261f90613ac8565b60405180910390fd5b80600a60008473ffffffffffffffffffffffffffffffffffffffff1673ffffffffffffffffffffffffffffffffffffffff16815260200190815260200160002060006101000a81548160ff0219169083151502179055505050565b60036020528060005260406000206000915090505481565b60046020528060005260406000206000915054906101000a900473ffffffffffffffffffffffffffffffffffffffff1681565b60086020528060005260406000206000915090505481565b600160205280600052604060002060009150905080600001549080600101805461270f90613e49565b80601f016020809104026020016040519081016040528092919081815260200182805461273b90613e49565b80156127885780601f1061275d57610100808354040283529160200191612788565b820191906000526020600020905b81548152906001019060200180831161276b57829003601f168201915b50505050509080600201805461279d90613e49565b80601f01602080910402602001604051908101604052809291908181526020018280546127c990613e49565b80156128165780601f106127eb57610100808354040283529160200191612816565b820191906000526020600020905b8154815290600101906020018083116127f957829003601f168201915b5050505050908060030160009054906101000a900460ff16908060030160019054906101000a900460ff16905085565b61284e612f17565b73ffffffffffffffffffffffffffffffffffffffff1661286c612583565b73ffffffffffffffffffffffffffffffffffffffff16146128c2576040517f08c379a00000000000000000000000000000000000000000000000000000000081526004016128b990613ac8565b60405180910390fd5b80156128f8576002601160006101000a81548160ff021916908360028111156128ee576128ed613f24565b5b0217905550612924565b6000601160006101000a81548160ff0219169083600281111561291e5761291d613f24565b5b02179055505b50565b600b5481565b600c5481565b61293b612f17565b73ffffffffffffffffffffffffffffffffffffffff16612959612583565b73ffffffffffffffffffffffffffffffffffffffff16146129af576040517f08c379a00000000000000000000000000000000000000000000000000000000081526004016129a690613ac8565b60405180910390fd5b80156129e5576002601160016101000a81548160ff021916908360028111156129db576129da613f24565b5b0217905550612a11565b6000601160016101000a81548160ff02191690836002811115612a0b57612a0a613f24565b5b02179055505b50565b600f5481565b600081600115156001600083815260200190815260200160002060030160019054906101000a900460ff16151514612a87576040517f08c379a0000000000000000000000000000000000000000000000000000000008152600401612a7e90613b68565b60405180910390fd5b600280811115612a9a57612a99613f24565b5b6001600085815260200190815260200160002060030160009054906101000a900460ff166002811115612ad057612acf613f24565b5b14915050919050565b606060026000838152602001908152602001600020805480602002602001604051908101604052809291908181526020018280548015612b3857602002820191906000526020600020905b815481526020019060010190808311612b24575b50505050509050919050565b60056020528160005260406000206020528060005260406000206000915091509054906101000a900460ff1681565b60076020528060005260406000206000915090508060000154908060010154905082565b600d5481565b60066020528060005260406000206000915090508060000154908060010154905082565b80600115156001600083815260200190815260200160002060030160019054906101000a900460ff16151514612c2c576040517f08c379a0000000000000000000000000000000000000000000000000000000008152600401612c2390613b68565b60405180910390fd5b81600280811115612c4057612c3f613f24565b5b6001600083815260200190815260200160002060030160009054906101000a900460ff166002811115612c7657612c75613f24565b5b1415612cb7576040517f08c379a0000000000000000000000000000000000000000000000000000000008152600401612cae90613aa8565b60405180910390fd5b33612cc0612583565b73ffffffffffffffffffffffffffffffffffffffff168173ffffffffffffffffffffffffffffffffffffffff16141580612d4b575060011515600a60008373ffffffffffffffffffffffffffffffffffffffff1673ffffffffffffffffffffffffffffffffffffffff16815260200190815260200160002060009054906101000a900460ff16151514155b612d8a576040517f08c379a0000000000000000000000000000000000000000000000000000000008152600401612d8190613ae8565b60405180910390fd5b60026001600086815260200190815260200160002060030160006101000a81548160ff02191690836002811115612dc457612dc3613f24565b5b02179055507fa589501e457bda1f31782af099f2695facb8e79d38d121802e6ac1c53237b84184604051612df89190613baa565b60405180910390a150505050565b612e0e612f17565b73ffffffffffffffffffffffffffffffffffffffff16612e2c612583565b73ffffffffffffffffffffffffffffffffffffffff1614612e82576040517f08c379a0000000000000000000000000000000000000000000000000000000008152600401612e7990613ac8565b60405180910390fd5b600073ffffffffffffffffffffffffffffffffffffffff168173ffffffffffffffffffffffffffffffffffffffff161415612ef2576040517f08c379a0000000000000000000000000000000000000000000000000000000008152600401612ee990613a08565b60405180910390fd5b612efb81612f1f565b50565b60105481565b601160019054906101000a900460ff1681565b600033905090565b60008060009054906101000a900473ffffffffffffffffffffffffffffffffffffffff169050816000806101000a81548173ffffffffffffffffffffffffffffffffffffffff021916908373ffffffffffffffffffffffffffffffffffffffff1602179055508173ffffffffffffffffffffffffffffffffffffffff168173ffffffffffffffffffffffffffffffffffffffff167f8be0079c531659141344cd1fd0a4f28419497f9722a3daafe3b4186f6b6457e060405160405180910390a35050565b828054612fef90613e49565b90600052602060002090601f0160209004810192826130115760008555613058565b82601f1061302a57805160ff1916838001178555613058565b82800160010185558215613058579182015b8281111561305757825182559160200191906001019061303c565b5b50905061306591906130ac565b5090565b6040518060a001604052806000815260200160608152602001606081526020016000600281111561309d5761309c613f24565b5b81526020016000151581525090565b5b808211156130c55760008160009055506001016130ad565b5090565b60006130dc6130d784613c74565b613c4f565b9050828152602081018484840111156130f8576130f7613fe5565b5b613103848285613e07565b509392505050565b60008135905061311a81614387565b92915050565b60008135905061312f8161439e565b92915050565b600082601f83011261314a57613149613fe0565b5b813561315a8482602086016130c9565b91505092915050565b600081359050613172816143b5565b92915050565b60006020828403121561318e5761318d613fef565b5b600061319c8482850161310b565b91505092915050565b600080604083850312156131bc576131bb613fef565b5b60006131ca8582860161310b565b92505060206131db85828601613120565b9150509250929050565b600080604083850312156131fc576131fb613fef565b5b600061320a8582860161310b565b925050602061321b85828601613163565b9150509250929050565b60006020828403121561323b5761323a613fef565b5b600061324984828501613120565b91505092915050565b6000806040838503121561326957613268613fef565b5b600083013567ffffffffffffffff81111561328757613286613fea565b5b61329385828601613135565b925050602083013567ffffffffffffffff8111156132b4576132b3613fea565b5b6132c085828601613135565b9150509250929050565b6000602082840312156132e0576132df613fef565b5b60006132ee84828501613163565b91505092915050565b6000806000806080858703121561331157613310613fef565b5b600061331f87828801613163565b945050602085013567ffffffffffffffff8111156133405761333f613fea565b5b61334c87828801613135565b935050604085013567ffffffffffffffff81111561336d5761336c613fea565b5b61337987828801613135565b925050606085013567ffffffffffffffff81111561339a57613399613fea565b5b6133a687828801613135565b91505092959194509250565b600080604083850312156133c9576133c8613fef565b5b60006133d785828601613163565b92505060206133e885828601613163565b9150509250929050565b60006133fe8383613798565b905092915050565b60006134128383613892565b60208301905092915050565b61342781613d9a565b82525050565b600061343882613cc5565b6134428185613d00565b93508360208202850161345485613ca5565b8060005b85811015613490578484038952815161347185826133f2565b945061347c83613ce6565b925060208a01995050600181019050613458565b50829750879550505050505092915050565b60006134ad82613cd0565b6134b78185613d11565b93506134c283613cb5565b8060005b838110156134f35781516134da8882613406565b97506134e583613cf3565b9250506001810190506134c6565b5085935050505092915050565b61350981613dac565b82525050565b61351881613dac565b82525050565b61352781613df5565b82525050565b61353681613df5565b82525050565b600061354782613cdb565b6135518185613d22565b9350613561818560208601613e16565b61356a81613ff4565b840191505092915050565b600061358082613cdb565b61358a8185613d33565b935061359a818560208601613e16565b6135a381613ff4565b840191505092915050565b60006135bb601383613d33565b91506135c682614005565b602082019050919050565b60006135de603683613d33565b91506135e98261402e565b604082019050919050565b6000613601602683613d33565b915061360c8261407d565b604082019050919050565b6000613624602483613d33565b915061362f826140cc565b604082019050919050565b6000613647602483613d33565b91506136528261411b565b604082019050919050565b600061366a603483613d33565b91506136758261416a565b604082019050919050565b600061368d602483613d33565b9150613698826141b9565b604082019050919050565b60006136b0601183613d33565b91506136bb82614208565b602082019050919050565b60006136d3602083613d33565b91506136de82614231565b602082019050919050565b60006136f6601d83613d33565b91506137018261425a565b602082019050919050565b6000613719602583613d33565b915061372482614283565b604082019050919050565b600061373c601483613d33565b9150613747826142d2565b602082019050919050565b600061375f602483613d33565b915061376a826142fb565b604082019050919050565b6000613782601483613d33565b915061378d8261434a565b602082019050919050565b600060a0830160008301516137b06000860182613892565b50602083015184820360208601526137c8828261353c565b915050604083015184820360408601526137e2828261353c565b91505060608301516137f7606086018261351e565b50608083015161380a6080860182613500565b508091505092915050565b600060a08301600083015161382d6000860182613892565b5060208301518482036020860152613845828261353c565b9150506040830151848203604086015261385f828261353c565b9150506060830151613874606086018261351e565b5060808301516138876080860182613500565b508091505092915050565b61389b81613deb565b82525050565b6138aa81613deb565b82525050565b60006020820190506138c5600083018461341e565b92915050565b600060208201905081810360008301526138e5818461342d565b905092915050565b6000602082019050818103600083015261390781846134a2565b905092915050565b6000602082019050613924600083018461350f565b92915050565b600060208201905061393f600083018461352d565b92915050565b6000604082019050818103600083015261395f8185613575565b905081810360208301526139738184613575565b90509392505050565b600060608201905081810360008301526139968186613575565b905081810360208301526139aa8185613575565b905081810360408301526139be8184613575565b9050949350505050565b600060208201905081810360008301526139e1816135ae565b9050919050565b60006020820190508181036000830152613a01816135d1565b9050919050565b60006020820190508181036000830152613a21816135f4565b9050919050565b60006020820190508181036000830152613a4181613617565b9050919050565b60006020820190508181036000830152613a618161363a565b9050919050565b60006020820190508181036000830152613a818161365d565b9050919050565b60006020820190508181036000830152613aa181613680565b9050919050565b60006020820190508181036000830152613ac1816136a3565b9050919050565b60006020820190508181036000830152613ae1816136c6565b9050919050565b60006020820190508181036000830152613b01816136e9565b9050919050565b60006020820190508181036000830152613b218161370c565b9050919050565b60006020820190508181036000830152613b418161372f565b9050919050565b60006020820190508181036000830152613b6181613752565b9050919050565b60006020820190508181036000830152613b8181613775565b9050919050565b60006020820190508181036000830152613ba28184613815565b905092915050565b6000602082019050613bbf60008301846138a1565b92915050565b600060a082019050613bda60008301886138a1565b8181036020830152613bec8187613575565b90508181036040830152613c008186613575565b9050613c0f606083018561352d565b613c1c608083018461350f565b9695505050505050565b6000604082019050613c3b60008301856138a1565b613c4860208301846138a1565b9392505050565b6000613c59613c6a565b9050613c658282613e7b565b919050565b6000604051905090565b600067ffffffffffffffff821115613c8f57613c8e613fb1565b5b613c9882613ff4565b9050602081019050919050565b6000819050602082019050919050565b6000819050602082019050919050565b600081519050919050565b600081519050919050565b600081519050919050565b6000602082019050919050565b6000602082019050919050565b600082825260208201905092915050565b600082825260208201905092915050565b600082825260208201905092915050565b600082825260208201905092915050565b6000613d4f82613deb565b9150613d5a83613deb565b9250827fffffffffffffffffffffffffffffffffffffffffffffffffffffffffffffffff03821115613d8f57613d8e613ef5565b5b828201905092915050565b6000613da582613dcb565b9050919050565b60008115159050919050565b6000819050613dc682614373565b919050565b600073ffffffffffffffffffffffffffffffffffffffff82169050919050565b6000819050919050565b6000613e0082613db8565b9050919050565b82818337600083830152505050565b60005b83811015613e34578082015181840152602081019050613e19565b83811115613e43576000848401525b50505050565b60006002820490506001821680613e6157607f821691505b60208210811415613e7557613e74613f53565b5b50919050565b613e8482613ff4565b810181811067ffffffffffffffff82111715613ea357613ea2613fb1565b5b80604052505050565b6000613eb782613deb565b91507fffffffffffffffffffffffffffffffffffffffffffffffffffffffffffffffff821415613eea57613ee9613ef5565b5b600182019050919050565b7f4e487b7100000000000000000000000000000000000000000000000000000000600052601160045260246000fd5b7f4e487b7100000000000000000000000000000000000000000000000000000000600052602160045260246000fd5b7f4e487b7100000000000000000000000000000000000000000000000000000000600052602260045260246000fd5b7f4e487b7100000000000000000000000000000000000000000000000000000000600052603260045260246000fd5b7f4e487b7100000000000000000000000000000000000000000000000000000000600052604160045260246000fd5b600080fd5b600080fd5b600080fd5b600080fd5b6000601f19601f8301169050919050565b7f547261636b206973206e6f7420636c6f73656400000000000000000000000000600082015250565b7f557365722069732063757272656e746c7920696e20766f74696e6720636f6f6c60008201527f646f776e20706572696f6420666f7220747261636b2e00000000000000000000602082015250565b7f4f776e61626c653a206e6577206f776e657220697320746865207a65726f206160008201527f6464726573730000000000000000000000000000000000000000000000000000602082015250565b7f416c6c20747261636b732068617665206265656e20636c6f736564206279206160008201527f646d696e00000000000000000000000000000000000000000000000000000000602082015250565b7f557365722069732063757272656e746c7920696e20656e74727920636f6f6c6460008201527f6f776e2e00000000000000000000000000000000000000000000000000000000602082015250565b7f55736572732063616e6e6f7420766f746520666f72207468652073616d65206560008201527f6e747279206d756c7469706c652074696d65732e000000000000000000000000602082015250565b7f416c6c20766f74696e6720686173206265656e20626c6f636b6564206279206160008201527f646d696e00000000000000000000000000000000000000000000000000000000602082015250565b7f547261636b20697320626c6f636b65642e000000000000000000000000000000600082015250565b7f4f776e61626c653a2063616c6c6572206973206e6f7420746865206f776e6572600082015250565b7f5573657220686173206265656e2062616e6e65642062792061646d696e000000600082015250565b7f416c6c20747261636b732068617665206265656e20626c6f636b65642062792060008201527f61646d696e000000000000000000000000000000000000000000000000000000602082015250565b7f547261636b206973206e6f7420626c6f636b6564000000000000000000000000600082015250565b7f557365722069732063757272656e746c7920696e20747261636b20636f6f6c6460008201527f6f776e2e00000000000000000000000000000000000000000000000000000000602082015250565b7f547261636b20646f6573206e6f74206578697374000000000000000000000000600082015250565b6003811061438457614383613f24565b5b50565b61439081613d9a565b811461439b57600080fd5b50565b6143a781613dac565b81146143b257600080fd5b50565b6143be81613deb565b81146143c957600080fd5b5056fea26469706673582212200f89677dda0ad5e9f8cc07c9bd2f089f57558618a55d366bb7f385121158f36964736f6c63430008070033",
  "immutableReferences": {},
  "source": "// SPDX-License-Identifier: MIT\r\npragma solidity ^0.8.0;\r\nimport \"@openzeppelin/contracts/access/Ownable.sol\";\r\n\r\n\r\ncontract Tracks is Ownable {\r\n  mapping (uint => Track) public tracks;\r\n  mapping (uint => uint[]) public trackEntries; //trackId => entryId[]\r\n  mapping (uint => uint) public entriesTrack; //entryId => trackId\r\n  mapping (uint => address) public trackOwners; //trackId => address\r\n  mapping (address => mapping (uint => bool)) public votesByAddress; //address => (entryId => bool)\r\n  mapping (address => TrackEvent) public trackEventsByUser; //address => TrackEvent\r\n  mapping (address => EntryEvent) public entryEventsByUser; //address => EntryEvent\r\n  mapping (uint => uint) public votesByTrack; //trackId => vote count\r\n  mapping (address => mapping(uint => uint)) public lastVoteTime; //address => trackId => time(s)\r\n  mapping(address => bool) public bannedUsers;\r\n\r\n  uint public nextTrackId;\r\n  uint public trackCount;\r\n  uint public nextEntryId;\r\n  uint public voteCooldownPeriod;\r\n  uint public entryEventCooldownPeriod;\r\n  uint public trackEventCooldownPeriod;\r\n  State public allTracksState;\r\n  State public allVotesState;\r\n  bool trackCreationCooldownEnabled;\r\n  bool votingCooldownEnabled;\r\n  bool entryCreationCooldownEnabled;\r\n  \r\n  \r\n\tstruct EntryEvent {\r\n\t    uint time;\r\n\t    uint eventId;\r\n\t}\r\n\t\r\n\tstruct TrackEvent {\r\n\t    uint time;\r\n\t    uint trackId;\r\n\t}\r\n\t\r\n  enum State {\r\n      Open,\r\n      Closed,\r\n      Blocked\r\n  }\r\n  struct Track {\r\n      uint  trackId;\r\n      string  name;\r\n      string  desc;\r\n      State state;\r\n      bool exists;\r\n  }\r\n\r\n  event TrackOpened(uint trackId);\r\n  event TrackClosed(uint trackId);\r\n  event TrackBlocked(uint trackId);\r\n  event TrackUnblocked(uint trackId);\r\n  event TrackCreated(uint indexed trackId, string name, string desc);\r\n  event EntryCreated(uint indexed trackId, uint indexed entryId, string name, string desc, string location);\r\n  event EntryVotedFor(uint indexed trackId, uint indexed entryId);\r\n\r\n\r\n  /**\r\n   * @dev XXX\r\n   * @param _trackId The id of the track\r\n   */\r\n\tmodifier checkTrackOpen(uint _trackId) {\r\n\t\trequire(tracks[_trackId].state == State.Open);\r\n\t\trequire(allTracksState == State.Open, \"All tracks have been closed by admin\");\r\n    _;\r\n  }\r\n  \r\n\t/**\r\n   * @dev XXX\r\n   * @param _trackId The id of the track\r\n   */\r\n\tmodifier checkTrackClosed(uint _trackId) {\r\n\t\trequire(tracks[_trackId].state == State.Closed, \"Track is not closed\");\r\n    _;\r\n  }\r\n  \r\n  /**\r\n   * @dev XXX\r\n   * @param _trackId The id of the track\r\n   */\r\n\tmodifier checkTrackBlocked(uint _trackId) {\r\n\t\trequire(tracks[_trackId].state == State.Blocked, \"Track is not blocked\");\r\n    _;\r\n  }\r\n  \r\n  /**\r\n   * @dev XXX\r\n   */\r\n\tmodifier checkTracksNotBlockedByAdmin() {\r\n\t\trequire(allTracksState != State.Blocked, \"All tracks have been blocked by admin\");\r\n    _;\r\n  }\r\n  \r\n  \r\n  /**\r\n   * @dev XXX\r\n   */\r\n\tmodifier checkVotingNotBlockedByAdmin() {\r\n\t\trequire(allVotesState != State.Blocked, \"All voting has been blocked by admin\");\r\n    _;\r\n  }\r\n  \r\n  \r\n  /**\r\n   * @dev XXX\r\n   * @param _trackId The id of the track\r\n   */\r\n\tmodifier checkTrackUnblocked(uint _trackId) {\r\n\t\trequire(tracks[_trackId].state != State.Blocked, \"Track is blocked.\");\r\n    _;\r\n  }\r\n  \r\n  /**\r\n   * @dev XXX\r\n   * @param _trackId The id of the track\r\n   */\r\n\tmodifier checkTrackExists(uint _trackId) {\r\n\t\t\trequire(tracks[_trackId].exists == true, \"Track does not exist\");\r\n\t    _;\r\n\t  }\r\n\r\n\tmodifier isUserBanned(address addr){\r\n\t\t\trequire(\r\n\t\t\t    addr != owner()\r\n\t\t\t    || bannedUsers[addr] != true,\r\n\t\t\t    \"User has been banned by admin\"\r\n\t\t\t);\r\n\t    _;\r\n\t}\r\n\r\n\tmodifier hasNotVotedForEntry(address addr, uint _entryId){\r\n\t    require(\r\n\t        addr == owner()\r\n\t        || votesByAddress[addr][_entryId] == false,\r\n\t        \"Users cannot vote for the same entry multiple times.\"\r\n\t    );\r\n\t    _;\r\n\t}\r\n\t\r\n\tmodifier isNotInVotingCooldown(address addr, uint trackId){\r\n\t    require(\r\n\t        !votingCooldownEnabled\r\n          || addr == owner()\r\n\t        || lastVoteTime[addr][trackId] == 0 \r\n\t        || lastVoteTime[addr][trackId] + voteCooldownPeriod > block.timestamp,\r\n\t        \"User is currently in voting cooldown period for track.\"\r\n\t    );\r\n\t    _;\r\n\t}\r\n\r\n\tmodifier isNotInTrackCreationCooldown(address addr){\r\n\t    require(\r\n\t        !trackCreationCooldownEnabled\r\n          || addr == owner()\r\n\t        || trackEventsByUser[addr].time == 0\r\n          || (trackEventsByUser[addr].time + trackEventCooldownPeriod) > block.timestamp,\r\n\t       \"User is currently in track cooldown.\"\r\n\t     );\r\n\t    _;\r\n\t}\r\n\t\r\n\tmodifier isNotInEntryCreationCooldown(address addr){\r\n\t    require(\r\n\t        !entryCreationCooldownEnabled\r\n\t        || addr == owner()\r\n\t        || entryEventsByUser[addr].time == 0\r\n\t        || (entryEventsByUser[addr].time + entryEventCooldownPeriod) > block.timestamp,\r\n\t        \"User is currently in entry cooldown.\"\r\n\t    );\r\n\t    _;\r\n\t}\r\n\t\r\n\t/**\r\n   * @dev XXX\r\n   */\r\n  constructor () {\r\n      voteCooldownPeriod = 1 minutes;\r\n      entryEventCooldownPeriod = 1 minutes;\r\n      trackEventCooldownPeriod = 1 minutes;\r\n      allTracksState = State.Open;\r\n      allVotesState = State.Open;\r\n      uint trackId = addTrack(\"first_track\", \"This is the first track\");\r\n      addEntry(trackId, \"name\", \"description\", \"location\");\r\n      enableCooldowns(true);\r\n  }\r\n\r\n\t/**\r\n   * @dev XXX\r\n   */\r\n  function getTracks() public view returns ( Track[] memory) {\r\n      Track[] memory _tracks = new Track[](trackCount);\r\n      for (uint i=0; i<trackCount; i++) {\r\n          _tracks[i] = tracks[i];\r\n      }\r\n      return _tracks;\r\n  }\r\n\r\n  /**\r\n   * @dev XXX\r\n   * @param _trackId The id of the track\r\n   */\r\n  function getTrack(uint _trackId) public view checkTrackUnblocked(_trackId) returns (Track memory) {\r\n      return tracks[_trackId];\r\n  }\r\n\t\r\n\r\n  /**\r\n   * @dev XXX\r\n   * @param _trackId The id of the track\r\n   */\r\n  function getEntriesForTrack(uint _trackId) public view returns (uint[] memory){\r\n      return trackEntries[_trackId];\r\n  }\r\n\r\n\t/**\r\n   * @dev XXX\r\n   * @param _trackId The id of the track\r\n   */\r\n  function openTrack(uint _trackId) public checkTrackExists(_trackId) checkTrackClosed(_trackId) isUserBanned(msg.sender){\r\n      tracks[_trackId].state = State.Open;\r\n      emit TrackOpened(_trackId);\r\n  }\r\n\r\n\t/**\r\n   * @dev XXX\r\n   * @param _trackId The id of the track\r\n   */\r\n\tfunction closeTrack(uint _trackId) public checkTrackExists(_trackId) checkTrackOpen(_trackId) isUserBanned(msg.sender){\r\n      tracks[_trackId].state = State.Closed;\r\n      emit TrackClosed(_trackId);\r\n  }\r\n\r\n\t/**\r\n   * @dev XXX\r\n   * @param _trackId The id of the track\r\n   */\r\n\tfunction blockTrack(uint _trackId) public checkTrackExists(_trackId) checkTrackUnblocked(_trackId) isUserBanned(msg.sender){\r\n      tracks[_trackId].state = State.Blocked;\r\n      emit TrackBlocked(_trackId);\r\n  }\r\n\r\n  /**\r\n   * @dev XXX\r\n   * @param _trackId The id of the track\r\n   */\r\n  function unblockTrack(uint _trackId) public checkTrackExists(_trackId) checkTrackBlocked(_trackId) isUserBanned(msg.sender) {\r\n      tracks[_trackId].state = State.Closed;\r\n      emit TrackUnblocked(_trackId);\r\n  }\r\n\r\n\t/**\r\n   * @dev XXX\r\n   * @param _trackId The id of the track\r\n   */\r\n  function isTrackOpen(uint _trackId) public view checkTrackExists(_trackId) returns (bool){\r\n      return (tracks[_trackId].state == State.Open);\r\n  }\r\n  /**\r\n   * @dev XXX\r\n   * @param _trackId The id of the track\r\n   */\r\n  function isTrackClosed(uint _trackId) public view checkTrackExists(_trackId) returns (bool){\r\n      return (tracks[_trackId].state == State.Closed);\r\n  }\r\n  /**\r\n   * @dev XXX\r\n   * @param _trackId The id of the track\r\n   */\r\n  function isTrackBlocked(uint _trackId) public view checkTrackExists(_trackId) returns (bool){\r\n      return (tracks[_trackId].state == State.Blocked);\r\n  }\r\n\r\n\t/**\r\n   * @dev XXX\r\n   * @param _entryId The id of the entry\r\n   */\r\n  function vote(uint _entryId) public checkTrackOpen(entriesTrack[_entryId]) hasNotVotedForEntry(msg.sender, _entryId) checkVotingNotBlockedByAdmin isUserBanned(msg.sender) isNotInVotingCooldown(msg.sender, entriesTrack[_entryId]) {\r\n    uint _trackId = entriesTrack[_entryId];\r\n    votesByAddress[msg.sender][_entryId] = true;\r\n    lastVoteTime[msg.sender][_trackId] = block.timestamp;\r\n    votesByTrack[_trackId]++;\r\n    emit EntryVotedFor(_trackId, _entryId);\r\n  }\r\n\r\n  /**\r\n   * @dev XXX\r\n   * @param _trackId The id of the track\r\n   */\r\n  function addEntry(uint _trackId, string memory _name, string memory _desc, string memory _location) public checkTracksNotBlockedByAdmin isUserBanned(msg.sender) isNotInEntryCreationCooldown(msg.sender)  checkTrackOpen(_trackId) returns (uint) {\r\n    uint entryId = nextEntryId;\r\n    require(entriesTrack[entryId] == 0);\r\n    trackEntries[_trackId].push(entryId);\r\n    entriesTrack[entryId] = _trackId;\r\n    entryEventsByUser[msg.sender] = EntryEvent(block.timestamp, entryId);\r\n    nextEntryId++;\r\n    emit EntryCreated(_trackId, entryId, _name, _desc, _location);\r\n    return entryId;\r\n  }\r\n\r\n\t/**\r\n   * @dev XXX\r\n   * @param _name XXX\r\n   * @param _desc XXX\r\n   */\r\n  function addTrack(string memory _name, string memory _desc) public checkTracksNotBlockedByAdmin isNotInTrackCreationCooldown(msg.sender) isUserBanned(msg.sender) returns (uint) {\r\n    uint trackId = nextTrackId;\r\n    tracks[trackId] = Track({\r\n      trackId: trackId,\r\n      name: _name,\r\n      desc: _desc,\r\n      state: State.Open,\r\n      exists: true\r\n    });\r\n    trackEventsByUser[msg.sender] = TrackEvent(block.timestamp, trackId);\r\n    trackOwners[trackId] = msg.sender;\r\n    nextTrackId++;\r\n    trackCount++;\r\n    emit TrackCreated(trackId, _name, _desc);\r\n    return trackId;\r\n   }\r\n   \r\n   function disableAllTracks(bool enable) public onlyOwner {\r\n       if (enable) {\r\n           allTracksState = State.Blocked;   \r\n       } else {\r\n           allTracksState = State.Open;   \r\n       }\r\n\t}\r\n   \r\n   function disableAllVoting(bool enable) public onlyOwner {\r\n       if (enable) {\r\n           allVotesState = State.Blocked;   \r\n       } else {\r\n           allVotesState = State.Open;   \r\n       }\r\n\t}\r\n   \r\n   function banUser(address addr, bool banned) public onlyOwner {\r\n\t \t\tbannedUsers[addr] = banned;   \r\n\t\t}\r\n   \r\n   function enableCooldowns(bool enable) public onlyOwner {\r\n    trackCreationCooldownEnabled = enable;\r\n    votingCooldownEnabled = enable;\r\n    entryCreationCooldownEnabled = enable;\r\n  }\r\n}\r\n\r\n\r\n\t",
  "sourcePath": "/Users/niall/projects/blockchain-developer-bootcamp-final-project/tracks/contracts/Tracks.sol",
  "compiler": {
    "name": "solc",
    "version": "0.8.7+commit.e28d00a7.Emscripten.clang"
  },
  "schemaVersion": "3.4.3",
  "updatedAt": "2021-10-11T17:49:00.778Z",
  "devdoc": {
    "kind": "dev",
    "methods": {
      "addEntry(uint256,string,string,string)": {
        "details": "XXX",
        "params": {
          "_trackId": "The id of the track"
        }
      },
      "addTrack(string,string)": {
        "details": "XXX",
        "params": {
          "_desc": "XXX",
          "_name": "XXX"
        }
      },
      "blockTrack(uint256)": {
        "details": "XXX",
        "params": {
          "_trackId": "The id of the track"
        }
      },
      "closeTrack(uint256)": {
        "details": "XXX",
        "params": {
          "_trackId": "The id of the track"
        }
      },
      "constructor": {
        "details": "XXX"
      },
      "getEntriesForTrack(uint256)": {
        "details": "XXX",
        "params": {
          "_trackId": "The id of the track"
        }
      },
      "getTrack(uint256)": {
        "details": "XXX",
        "params": {
          "_trackId": "The id of the track"
        }
      },
      "getTracks()": {
        "details": "XXX"
      },
      "isTrackBlocked(uint256)": {
        "details": "XXX",
        "params": {
          "_trackId": "The id of the track"
        }
      },
      "isTrackClosed(uint256)": {
        "details": "XXX",
        "params": {
          "_trackId": "The id of the track"
        }
      },
      "isTrackOpen(uint256)": {
        "details": "XXX",
        "params": {
          "_trackId": "The id of the track"
        }
      },
      "openTrack(uint256)": {
        "details": "XXX",
        "params": {
          "_trackId": "The id of the track"
        }
      },
      "owner()": {
        "details": "Returns the address of the current owner."
      },
      "renounceOwnership()": {
        "details": "Leaves the contract without owner. It will not be possible to call `onlyOwner` functions anymore. Can only be called by the current owner. NOTE: Renouncing ownership will leave the contract without an owner, thereby removing any functionality that is only available to the owner."
      },
      "transferOwnership(address)": {
        "details": "Transfers ownership of the contract to a new account (`newOwner`). Can only be called by the current owner."
      },
      "unblockTrack(uint256)": {
        "details": "XXX",
        "params": {
          "_trackId": "The id of the track"
        }
      },
      "vote(uint256)": {
        "details": "XXX",
        "params": {
          "_entryId": "The id of the entry"
        }
      }
    },
    "version": 1
  },
  "userdoc": {
    "kind": "user",
    "methods": {},
    "version": 1
  }
}