{
  "contractName": "Tracks",
  "abi": [
    {
      "inputs": [],
      "stateMutability": "nonpayable",
      "type": "constructor"
    },
    {
      "anonymous": false,
      "inputs": [
        {
          "indexed": true,
          "internalType": "uint256",
          "name": "trackId",
          "type": "uint256"
        },
        {
          "indexed": true,
          "internalType": "uint256",
          "name": "entryId",
          "type": "uint256"
        },
        {
          "indexed": false,
          "internalType": "string",
          "name": "name",
          "type": "string"
        },
        {
          "indexed": false,
          "internalType": "string",
          "name": "desc",
          "type": "string"
        },
        {
          "indexed": false,
          "internalType": "string",
          "name": "location",
          "type": "string"
        }
      ],
      "name": "EntryCreated",
      "type": "event"
    },
    {
      "anonymous": false,
      "inputs": [
        {
          "indexed": true,
          "internalType": "uint256",
          "name": "trackId",
          "type": "uint256"
        },
        {
          "indexed": true,
          "internalType": "uint256",
          "name": "entryId",
          "type": "uint256"
        }
      ],
      "name": "EntryVotedFor",
      "type": "event"
    },
    {
      "anonymous": false,
      "inputs": [
        {
          "indexed": false,
          "internalType": "uint256",
          "name": "trackId",
          "type": "uint256"
        }
      ],
      "name": "TrackBlocked",
      "type": "event"
    },
    {
      "anonymous": false,
      "inputs": [
        {
          "indexed": false,
          "internalType": "uint256",
          "name": "trackId",
          "type": "uint256"
        }
      ],
      "name": "TrackClosed",
      "type": "event"
    },
    {
      "anonymous": false,
      "inputs": [
        {
          "indexed": true,
          "internalType": "uint256",
          "name": "trackId",
          "type": "uint256"
        },
        {
          "indexed": false,
          "internalType": "string",
          "name": "name",
          "type": "string"
        },
        {
          "indexed": false,
          "internalType": "string",
          "name": "desc",
          "type": "string"
        }
      ],
      "name": "TrackCreated",
      "type": "event"
    },
    {
      "anonymous": false,
      "inputs": [
        {
          "indexed": false,
          "internalType": "uint256",
          "name": "trackId",
          "type": "uint256"
        }
      ],
      "name": "TrackOpened",
      "type": "event"
    },
    {
      "anonymous": false,
      "inputs": [
        {
          "indexed": false,
          "internalType": "uint256",
          "name": "trackId",
          "type": "uint256"
        }
      ],
      "name": "TrackUnblocked",
      "type": "event"
    },
    {
      "inputs": [],
      "name": "cooldownPeriod",
      "outputs": [
        {
          "internalType": "uint256",
          "name": "",
          "type": "uint256"
        }
      ],
      "stateMutability": "view",
      "type": "function",
      "constant": true
    },
    {
      "inputs": [
        {
          "internalType": "uint256",
          "name": "",
          "type": "uint256"
        }
      ],
      "name": "entriesTrack",
      "outputs": [
        {
          "internalType": "uint256",
          "name": "",
          "type": "uint256"
        }
      ],
      "stateMutability": "view",
      "type": "function",
      "constant": true
    },
    {
      "inputs": [
        {
          "internalType": "address",
          "name": "",
          "type": "address"
        },
        {
          "internalType": "uint256",
          "name": "",
          "type": "uint256"
        }
      ],
      "name": "lastVoteTime",
      "outputs": [
        {
          "internalType": "uint256",
          "name": "",
          "type": "uint256"
        }
      ],
      "stateMutability": "view",
      "type": "function",
      "constant": true
    },
    {
      "inputs": [],
      "name": "nextEntryId",
      "outputs": [
        {
          "internalType": "uint256",
          "name": "",
          "type": "uint256"
        }
      ],
      "stateMutability": "view",
      "type": "function",
      "constant": true
    },
    {
      "inputs": [],
      "name": "nextTrackId",
      "outputs": [
        {
          "internalType": "uint256",
          "name": "",
          "type": "uint256"
        }
      ],
      "stateMutability": "view",
      "type": "function",
      "constant": true
    },
    {
      "inputs": [],
      "name": "trackCount",
      "outputs": [
        {
          "internalType": "uint256",
          "name": "",
          "type": "uint256"
        }
      ],
      "stateMutability": "view",
      "type": "function",
      "constant": true
    },
    {
      "inputs": [
        {
          "internalType": "uint256",
          "name": "",
          "type": "uint256"
        },
        {
          "internalType": "uint256",
          "name": "",
          "type": "uint256"
        }
      ],
      "name": "trackEntries",
      "outputs": [
        {
          "internalType": "uint256",
          "name": "",
          "type": "uint256"
        }
      ],
      "stateMutability": "view",
      "type": "function",
      "constant": true
    },
    {
      "inputs": [
        {
          "internalType": "uint256",
          "name": "",
          "type": "uint256"
        }
      ],
      "name": "tracks",
      "outputs": [
        {
          "internalType": "uint256",
          "name": "trackId",
          "type": "uint256"
        },
        {
          "internalType": "string",
          "name": "name",
          "type": "string"
        },
        {
          "internalType": "string",
          "name": "desc",
          "type": "string"
        },
        {
          "internalType": "enum Tracks.State",
          "name": "state",
          "type": "uint8"
        },
        {
          "internalType": "bool",
          "name": "exists",
          "type": "bool"
        }
      ],
      "stateMutability": "view",
      "type": "function",
      "constant": true
    },
    {
      "inputs": [
        {
          "internalType": "address",
          "name": "",
          "type": "address"
        },
        {
          "internalType": "uint256",
          "name": "",
          "type": "uint256"
        }
      ],
      "name": "votesByAddress",
      "outputs": [
        {
          "internalType": "bool",
          "name": "",
          "type": "bool"
        }
      ],
      "stateMutability": "view",
      "type": "function",
      "constant": true
    },
    {
      "inputs": [
        {
          "internalType": "uint256",
          "name": "",
          "type": "uint256"
        }
      ],
      "name": "votesByTrack",
      "outputs": [
        {
          "internalType": "uint256",
          "name": "",
          "type": "uint256"
        }
      ],
      "stateMutability": "view",
      "type": "function",
      "constant": true
    },
    {
      "inputs": [],
      "name": "getTracks",
      "outputs": [
        {
          "components": [
            {
              "internalType": "uint256",
              "name": "trackId",
              "type": "uint256"
            },
            {
              "internalType": "string",
              "name": "name",
              "type": "string"
            },
            {
              "internalType": "string",
              "name": "desc",
              "type": "string"
            },
            {
              "internalType": "enum Tracks.State",
              "name": "state",
              "type": "uint8"
            },
            {
              "internalType": "bool",
              "name": "exists",
              "type": "bool"
            }
          ],
          "internalType": "struct Tracks.Track[]",
          "name": "",
          "type": "tuple[]"
        }
      ],
      "stateMutability": "view",
      "type": "function",
      "constant": true
    },
    {
      "inputs": [
        {
          "internalType": "uint256",
          "name": "_trackId",
          "type": "uint256"
        }
      ],
      "name": "getTrack",
      "outputs": [
        {
          "components": [
            {
              "internalType": "uint256",
              "name": "trackId",
              "type": "uint256"
            },
            {
              "internalType": "string",
              "name": "name",
              "type": "string"
            },
            {
              "internalType": "string",
              "name": "desc",
              "type": "string"
            },
            {
              "internalType": "enum Tracks.State",
              "name": "state",
              "type": "uint8"
            },
            {
              "internalType": "bool",
              "name": "exists",
              "type": "bool"
            }
          ],
          "internalType": "struct Tracks.Track",
          "name": "",
          "type": "tuple"
        }
      ],
      "stateMutability": "view",
      "type": "function",
      "constant": true
    },
    {
      "inputs": [
        {
          "internalType": "uint256",
          "name": "_trackId",
          "type": "uint256"
        }
      ],
      "name": "getEntriesForTrack",
      "outputs": [
        {
          "internalType": "uint256[]",
          "name": "",
          "type": "uint256[]"
        }
      ],
      "stateMutability": "view",
      "type": "function",
      "constant": true
    },
    {
      "inputs": [
        {
          "internalType": "uint256",
          "name": "_trackId",
          "type": "uint256"
        }
      ],
      "name": "openTrack",
      "outputs": [],
      "stateMutability": "nonpayable",
      "type": "function"
    },
    {
      "inputs": [
        {
          "internalType": "uint256",
          "name": "_trackId",
          "type": "uint256"
        }
      ],
      "name": "closeTrack",
      "outputs": [],
      "stateMutability": "nonpayable",
      "type": "function"
    },
    {
      "inputs": [
        {
          "internalType": "uint256",
          "name": "_trackId",
          "type": "uint256"
        }
      ],
      "name": "blockTrack",
      "outputs": [],
      "stateMutability": "nonpayable",
      "type": "function"
    },
    {
      "inputs": [
        {
          "internalType": "uint256",
          "name": "_trackId",
          "type": "uint256"
        }
      ],
      "name": "unblockTrack",
      "outputs": [],
      "stateMutability": "nonpayable",
      "type": "function"
    },
    {
      "inputs": [
        {
          "internalType": "uint256",
          "name": "_trackId",
          "type": "uint256"
        }
      ],
      "name": "isTrackOpen",
      "outputs": [
        {
          "internalType": "bool",
          "name": "",
          "type": "bool"
        }
      ],
      "stateMutability": "view",
      "type": "function",
      "constant": true
    },
    {
      "inputs": [
        {
          "internalType": "uint256",
          "name": "_trackId",
          "type": "uint256"
        }
      ],
      "name": "isTrackClosed",
      "outputs": [
        {
          "internalType": "bool",
          "name": "",
          "type": "bool"
        }
      ],
      "stateMutability": "view",
      "type": "function",
      "constant": true
    },
    {
      "inputs": [
        {
          "internalType": "uint256",
          "name": "_trackId",
          "type": "uint256"
        }
      ],
      "name": "isTrackBlocked",
      "outputs": [
        {
          "internalType": "bool",
          "name": "",
          "type": "bool"
        }
      ],
      "stateMutability": "view",
      "type": "function",
      "constant": true
    },
    {
      "inputs": [
        {
          "internalType": "uint256",
          "name": "_entryId",
          "type": "uint256"
        }
      ],
      "name": "vote",
      "outputs": [],
      "stateMutability": "nonpayable",
      "type": "function"
    },
    {
      "inputs": [
        {
          "internalType": "uint256",
          "name": "_trackId",
          "type": "uint256"
        },
        {
          "internalType": "string",
          "name": "_name",
          "type": "string"
        },
        {
          "internalType": "string",
          "name": "_desc",
          "type": "string"
        },
        {
          "internalType": "string",
          "name": "_location",
          "type": "string"
        }
      ],
      "name": "addEntry",
      "outputs": [
        {
          "internalType": "uint256",
          "name": "",
          "type": "uint256"
        }
      ],
      "stateMutability": "nonpayable",
      "type": "function"
    },
    {
      "inputs": [
        {
          "internalType": "string",
          "name": "_name",
          "type": "string"
        },
        {
          "internalType": "string",
          "name": "_desc",
          "type": "string"
        }
      ],
      "name": "addTrack",
      "outputs": [
        {
          "internalType": "uint256",
          "name": "",
          "type": "uint256"
        }
      ],
      "stateMutability": "nonpayable",
      "type": "function"
    }
  ],
  "bytecode": "0x60806040523480156200001157600080fd5b506000620000906040518060400160405280600b81526020017f66697273745f747261636b0000000000000000000000000000000000000000008152506040518060400160405280601781526020017f546869732069732074686520666972737420747261636b0000000000000000008152506200015660201b60201c565b905062000145816040518060400160405280600481526020017f6e616d65000000000000000000000000000000000000000000000000000000008152506040518060400160405280600b81526020017f6465736372697074696f6e0000000000000000000000000000000000000000008152506040518060400160405280600881526020017f6c6f636174696f6e000000000000000000000000000000000000000000000000815250620002c860201b60201c565b50610e106009819055505062000701565b60008060065490506040518060a001604052808281526020018581526020018481526020016000600281111562000192576200019162000692565b5b815260200160011515815250600080838152602001908152602001600020600082015181600001556020820151816001019080519060200190620001d892919062000405565b506040820151816002019080519060200190620001f792919062000405565b5060608201518160030160006101000a81548160ff0219169083600281111562000226576200022562000692565b5b021790555060808201518160030160016101000a81548160ff02191690831515021790555090505060066000815480929190620002639062000615565b9190505550600760008154809291906200027d9062000615565b9190505550807f21579433a032855e20e8afc48e980ddae0b6285e4aa03370f03192be12bea28b8585604051620002b6929190620004f6565b60405180910390a28091505092915050565b60008460006002811115620002e257620002e162000692565b5b60008083815260200190815260200160002060030160009054906101000a900460ff1660028111156200031a576200031962000692565b5b146200032557600080fd5b6000600854905060006002600083815260200190815260200160002054146200034d57600080fd5b6001600088815260200190815260200160002081908060018154018082558091505060019003906000526020600020016000909190919091505586600260008381526020019081526020016000208190555060086000815480929190620003b49062000615565b919050555080877f313f81e8cc8fe5ab3d1facaeffd8e0d26068ff1776d23a4621a5bdb0c891c817888888604051620003f09392919062000531565b60405180910390a38092505050949350505050565b8280546200041390620005df565b90600052602060002090601f01602090048101928262000437576000855562000483565b82601f106200045257805160ff191683800117855562000483565b8280016001018555821562000483579182015b828111156200048257825182559160200191906001019062000465565b5b50905062000492919062000496565b5090565b5b80821115620004b157600081600090555060010162000497565b5090565b6000620004c28262000583565b620004ce81856200058e565b9350620004e0818560208601620005a9565b620004eb81620006f0565b840191505092915050565b60006040820190508181036000830152620005128185620004b5565b90508181036020830152620005288184620004b5565b90509392505050565b600060608201905081810360008301526200054d8186620004b5565b90508181036020830152620005638185620004b5565b90508181036040830152620005798184620004b5565b9050949350505050565b600081519050919050565b600082825260208201905092915050565b6000819050919050565b60005b83811015620005c9578082015181840152602081019050620005ac565b83811115620005d9576000848401525b50505050565b60006002820490506001821680620005f857607f821691505b602082108114156200060f576200060e620006c1565b5b50919050565b600062000622826200059f565b91507fffffffffffffffffffffffffffffffffffffffffffffffffffffffffffffffff82141562000658576200065762000663565b5b600182019050919050565b7f4e487b7100000000000000000000000000000000000000000000000000000000600052601160045260246000fd5b7f4e487b7100000000000000000000000000000000000000000000000000000000600052602160045260246000fd5b7f4e487b7100000000000000000000000000000000000000000000000000000000600052602260045260246000fd5b6000601f19601f8301169050919050565b61244280620007116000396000f3fe608060405234801561001057600080fd5b506004361061014d5760003560e01c806368e982b0116100c3578063ab35678c1161007c578063ab35678c14610400578063caa2c2ad1461041e578063d02f44831461044e578063db7c01e21461047e578063e6b2cf6c146104ae578063ef759761146104cc5761014d565b806368e982b01461031457806387548fcf14610330578063924e9b951461034e578063962dd8071461037e578063a2e34586146103ae578063a72024c6146103e25761014d565b806333abbe511161011557806333abbe511461020857806336de40be14610238578063423b7032146102685780634bc558b314610284578063629058ca146102b457806366cb5936146102e45761014d565b80630121b93f1461015257806304646a491461016e578063109699b61461018c5780631f6c5f00146101bc5780632e42ddbf146101d8575b600080fd5b61016c60048036038101906101679190611983565b6104e8565b005b61017661083a565b6040516101839190611efa565b60405180910390f35b6101a660048036038101906101a19190611a6b565b610840565b6040516101b39190611efa565b60405180910390f35b6101d660048036038101906101d19190611983565b610871565b005b6101f260048036038101906101ed91906119b0565b610973565b6040516101ff9190611efa565b60405180910390f35b610222600480360381019061021d9190611983565b610aa4565b60405161022f9190611dfa565b60405180910390f35b610252600480360381019061024d919061190b565b610b2c565b60405161025f9190611efa565b60405180910390f35b610282600480360381019061027d9190611983565b610c8e565b005b61029e600480360381019061029991906118cb565b610d90565b6040516102ab9190611efa565b60405180910390f35b6102ce60048036038101906102c99190611983565b610db5565b6040516102db9190611ed8565b60405180910390f35b6102fe60048036038101906102f99190611983565b610fba565b60405161030b9190611dfa565b60405180910390f35b61032e60048036038101906103299190611983565b611042565b005b610338611143565b6040516103459190611db6565b60405180910390f35b61036860048036038101906103639190611983565b611386565b6040516103759190611efa565b60405180910390f35b61039860048036038101906103939190611983565b61139e565b6040516103a59190611efa565b60405180910390f35b6103c860048036038101906103c39190611983565b6113b6565b6040516103d9959493929190611f15565b60405180910390f35b6103ea611516565b6040516103f79190611efa565b60405180910390f35b61040861151c565b6040516104159190611efa565b60405180910390f35b61043860048036038101906104339190611983565b611522565b6040516104459190611dfa565b60405180910390f35b61046860048036038101906104639190611983565b6115a9565b6040516104759190611dd8565b60405180910390f35b610498600480360381019061049391906118cb565b611614565b6040516104a59190611dfa565b60405180910390f35b6104b6611643565b6040516104c39190611efa565b60405180910390f35b6104e660048036038101906104e19190611983565b611649565b005b6002600082815260200190815260200160002054600060028111156105105761050f61224b565b5b60008083815260200190815260200160002060030160009054906101000a900460ff1660028111156105455761054461224b565b5b1461054f57600080fd5b338260001515600360003373ffffffffffffffffffffffffffffffffffffffff1673ffffffffffffffffffffffffffffffffffffffff168152602001908152602001600020600083815260200190815260200160002060009054906101000a900460ff161515146105f5576040517f08c379a00000000000000000000000000000000000000000000000000000000081526004016105ec90611eb8565b60405180910390fd5b3360026000868152602001908152602001600020546000600560008473ffffffffffffffffffffffffffffffffffffffff1673ffffffffffffffffffffffffffffffffffffffff16815260200190815260200160002060008381526020019081526020016000205414806106c5575042600954600560008573ffffffffffffffffffffffffffffffffffffffff1673ffffffffffffffffffffffffffffffffffffffff1681526020019081526020016000206000848152602001908152602001600020546106c3919061206b565b105b610704576040517f08c379a00000000000000000000000000000000000000000000000000000000081526004016106fb90611e98565b60405180910390fd5b6000600260008881526020019081526020016000205490506001600360003373ffffffffffffffffffffffffffffffffffffffff1673ffffffffffffffffffffffffffffffffffffffff168152602001908152602001600020600089815260200190815260200160002060006101000a81548160ff02191690831515021790555042600560003373ffffffffffffffffffffffffffffffffffffffff1673ffffffffffffffffffffffffffffffffffffffff1681526020019081526020016000206000838152602001908152602001600020819055506004600082815260200190815260200160002060008154809291906107fe906121d3565b919050555086817f23b2bfc0c368fdbec2cf6a0878f8f7ab7d497f92861fa232c0111ca69f63dc8260405160405180910390a350505050505050565b60095481565b6001602052816000526040600020818154811061085c57600080fd5b90600052602060002001600091509150505481565b806001151560008083815260200190815260200160002060030160019054906101000a900460ff161515146108a557600080fd5b81600160028111156108ba576108b961224b565b5b60008083815260200190815260200160002060030160009054906101000a900460ff1660028111156108ef576108ee61224b565b5b146108f957600080fd5b600080600085815260200190815260200160002060030160006101000a81548160ff021916908360028111156109325761093161224b565b5b02179055507f5a695f43d53bb74f4457f1a60951e2c514c6de79da9a8d8369848853d647cc6a836040516109669190611efa565b60405180910390a1505050565b6000846000600281111561098a5761098961224b565b5b60008083815260200190815260200160002060030160009054906101000a900460ff1660028111156109bf576109be61224b565b5b146109c957600080fd5b6000600854905060006002600083815260200190815260200160002054146109f057600080fd5b6001600088815260200190815260200160002081908060018154018082558091505060019003906000526020600020016000909190919091505586600260008381526020019081526020016000208190555060086000815480929190610a55906121d3565b919050555080877f313f81e8cc8fe5ab3d1facaeffd8e0d26068ff1776d23a4621a5bdb0c891c817888888604051610a8f93929190611e4c565b60405180910390a38092505050949350505050565b6000816001151560008083815260200190815260200160002060030160019054906101000a900460ff16151514610ada57600080fd5b60016002811115610aee57610aed61224b565b5b60008085815260200190815260200160002060030160009054906101000a900460ff166002811115610b2357610b2261224b565b5b14915050919050565b60008060065490506040518060a0016040528082815260200185815260200184815260200160006002811115610b6557610b6461224b565b5b815260200160011515815250600080838152602001908152602001600020600082015181600001556020820151816001019080519060200190610ba992919061174b565b506040820151816002019080519060200190610bc692919061174b565b5060608201518160030160006101000a81548160ff02191690836002811115610bf257610bf161224b565b5b021790555060808201518160030160016101000a81548160ff02191690831515021790555090505060066000815480929190610c2d906121d3565b919050555060076000815480929190610c45906121d3565b9190505550807f21579433a032855e20e8afc48e980ddae0b6285e4aa03370f03192be12bea28b8585604051610c7c929190611e15565b60405180910390a28091505092915050565b806001151560008083815260200190815260200160002060030160019054906101000a900460ff16151514610cc257600080fd5b8160006002811115610cd757610cd661224b565b5b60008083815260200190815260200160002060030160009054906101000a900460ff166002811115610d0c57610d0b61224b565b5b14610d1657600080fd5b600160008085815260200190815260200160002060030160006101000a81548160ff02191690836002811115610d4f57610d4e61224b565b5b02179055507feabb282842a353a61f42a3352791a6bf8d0f0b5d6e9cec67e0a0e2c42f387b9b83604051610d839190611efa565b60405180910390a1505050565b6005602052816000526040600020602052806000526040600020600091509150505481565b610dbd6117d1565b81600280811115610dd157610dd061224b565b5b60008083815260200190815260200160002060030160009054906101000a900460ff166002811115610e0657610e0561224b565b5b1415610e1157600080fd5b6000808481526020019081526020016000206040518060a001604052908160008201548152602001600182018054610e4890612170565b80601f0160208091040260200160405190810160405280929190818152602001828054610e7490612170565b8015610ec15780601f10610e9657610100808354040283529160200191610ec1565b820191906000526020600020905b815481529060010190602001808311610ea457829003601f168201915b50505050508152602001600282018054610eda90612170565b80601f0160208091040260200160405190810160405280929190818152602001828054610f0690612170565b8015610f535780601f10610f2857610100808354040283529160200191610f53565b820191906000526020600020905b815481529060010190602001808311610f3657829003601f168201915b505050505081526020016003820160009054906101000a900460ff166002811115610f8157610f8061224b565b5b6002811115610f9357610f9261224b565b5b81526020016003820160019054906101000a900460ff161515151581525050915050919050565b6000816001151560008083815260200190815260200160002060030160019054906101000a900460ff16151514610ff057600080fd5b600060028111156110045761100361224b565b5b60008085815260200190815260200160002060030160009054906101000a900460ff1660028111156110395761103861224b565b5b14915050919050565b806001151560008083815260200190815260200160002060030160019054906101000a900460ff1615151461107657600080fd5b8160028081111561108a5761108961224b565b5b60008083815260200190815260200160002060030160009054906101000a900460ff1660028111156110bf576110be61224b565b5b146110c957600080fd5b600160008085815260200190815260200160002060030160006101000a81548160ff021916908360028111156111025761110161224b565b5b02179055507fe23a63f864ee1069bc665aa3ed0b1dccc848ab996543e77baed0f465e8145c60836040516111369190611efa565b60405180910390a1505050565b6060600060075467ffffffffffffffff811115611163576111626122d8565b5b60405190808252806020026020018201604052801561119c57816020015b6111896117d1565b8152602001906001900390816111815790505b50905060005b60075481101561137e576000808281526020019081526020016000206040518060a0016040529081600082015481526020016001820180546111e390612170565b80601f016020809104026020016040519081016040528092919081815260200182805461120f90612170565b801561125c5780601f106112315761010080835404028352916020019161125c565b820191906000526020600020905b81548152906001019060200180831161123f57829003601f168201915b5050505050815260200160028201805461127590612170565b80601f01602080910402602001604051908101604052809291908181526020018280546112a190612170565b80156112ee5780601f106112c3576101008083540402835291602001916112ee565b820191906000526020600020905b8154815290600101906020018083116112d157829003601f168201915b505050505081526020016003820160009054906101000a900460ff16600281111561131c5761131b61224b565b5b600281111561132e5761132d61224b565b5b81526020016003820160019054906101000a900460ff1615151515815250508282815181106113605761135f6122a9565b5b60200260200101819052508080611376906121d3565b9150506111a2565b508091505090565b60026020528060005260406000206000915090505481565b60046020528060005260406000206000915090505481565b60006020528060005260406000206000915090508060000154908060010180546113df90612170565b80601f016020809104026020016040519081016040528092919081815260200182805461140b90612170565b80156114585780601f1061142d57610100808354040283529160200191611458565b820191906000526020600020905b81548152906001019060200180831161143b57829003601f168201915b50505050509080600201805461146d90612170565b80601f016020809104026020016040519081016040528092919081815260200182805461149990612170565b80156114e65780601f106114bb576101008083540402835291602001916114e6565b820191906000526020600020905b8154815290600101906020018083116114c957829003601f168201915b5050505050908060030160009054906101000a900460ff16908060030160019054906101000a900460ff16905085565b60065481565b60075481565b6000816001151560008083815260200190815260200160002060030160019054906101000a900460ff1615151461155857600080fd5b60028081111561156b5761156a61224b565b5b60008085815260200190815260200160002060030160009054906101000a900460ff1660028111156115a05761159f61224b565b5b14915050919050565b60606001600083815260200190815260200160002080548060200260200160405190810160405280929190818152602001828054801561160857602002820191906000526020600020905b8154815260200190600101908083116115f4575b50505050509050919050565b60036020528160005260406000206020528060005260406000206000915091509054906101000a900460ff1681565b60085481565b806001151560008083815260200190815260200160002060030160019054906101000a900460ff1615151461167d57600080fd5b816002808111156116915761169061224b565b5b60008083815260200190815260200160002060030160009054906101000a900460ff1660028111156116c6576116c561224b565b5b14156116d157600080fd5b600260008085815260200190815260200160002060030160006101000a81548160ff0219169083600281111561170a5761170961224b565b5b02179055507fa589501e457bda1f31782af099f2695facb8e79d38d121802e6ac1c53237b8418360405161173e9190611efa565b60405180910390a1505050565b82805461175790612170565b90600052602060002090601f01602090048101928261177957600085556117c0565b82601f1061179257805160ff19168380011785556117c0565b828001600101855582156117c0579182015b828111156117bf5782518255916020019190600101906117a4565b5b5090506117cd9190611814565b5090565b6040518060a00160405280600081526020016060815260200160608152602001600060028111156118055761180461224b565b5b81526020016000151581525090565b5b8082111561182d576000816000905550600101611815565b5090565b600061184461183f84611f9b565b611f76565b9050828152602081018484840111156118605761185f61230c565b5b61186b84828561212e565b509392505050565b600081359050611882816123de565b92915050565b600082601f83011261189d5761189c612307565b5b81356118ad848260208601611831565b91505092915050565b6000813590506118c5816123f5565b92915050565b600080604083850312156118e2576118e1612316565b5b60006118f085828601611873565b9250506020611901858286016118b6565b9150509250929050565b6000806040838503121561192257611921612316565b5b600083013567ffffffffffffffff8111156119405761193f612311565b5b61194c85828601611888565b925050602083013567ffffffffffffffff81111561196d5761196c612311565b5b61197985828601611888565b9150509250929050565b60006020828403121561199957611998612316565b5b60006119a7848285016118b6565b91505092915050565b600080600080608085870312156119ca576119c9612316565b5b60006119d8878288016118b6565b945050602085013567ffffffffffffffff8111156119f9576119f8612311565b5b611a0587828801611888565b935050604085013567ffffffffffffffff811115611a2657611a25612311565b5b611a3287828801611888565b925050606085013567ffffffffffffffff811115611a5357611a52612311565b5b611a5f87828801611888565b91505092959194509250565b60008060408385031215611a8257611a81612316565b5b6000611a90858286016118b6565b9250506020611aa1858286016118b6565b9150509250929050565b6000611ab78383611c9e565b905092915050565b6000611acb8383611d98565b60208301905092915050565b6000611ae282611fec565b611aec8185612027565b935083602082028501611afe85611fcc565b8060005b85811015611b3a5784840389528151611b1b8582611aab565b9450611b268361200d565b925060208a01995050600181019050611b02565b50829750879550505050505092915050565b6000611b5782611ff7565b611b618185612038565b9350611b6c83611fdc565b8060005b83811015611b9d578151611b848882611abf565b9750611b8f8361201a565b925050600181019050611b70565b5085935050505092915050565b611bb3816120d3565b82525050565b611bc2816120d3565b82525050565b611bd18161211c565b82525050565b611be08161211c565b82525050565b6000611bf182612002565b611bfb8185612049565b9350611c0b81856020860161213d565b611c148161231b565b840191505092915050565b6000611c2a82612002565b611c34818561205a565b9350611c4481856020860161213d565b611c4d8161231b565b840191505092915050565b6000611c6560368361205a565b9150611c708261232c565b604082019050919050565b6000611c8860348361205a565b9150611c938261237b565b604082019050919050565b600060a083016000830151611cb66000860182611d98565b5060208301518482036020860152611cce8282611be6565b91505060408301518482036040860152611ce88282611be6565b9150506060830151611cfd6060860182611bc8565b506080830151611d106080860182611baa565b508091505092915050565b600060a083016000830151611d336000860182611d98565b5060208301518482036020860152611d4b8282611be6565b91505060408301518482036040860152611d658282611be6565b9150506060830151611d7a6060860182611bc8565b506080830151611d8d6080860182611baa565b508091505092915050565b611da181612112565b82525050565b611db081612112565b82525050565b60006020820190508181036000830152611dd08184611ad7565b905092915050565b60006020820190508181036000830152611df28184611b4c565b905092915050565b6000602082019050611e0f6000830184611bb9565b92915050565b60006040820190508181036000830152611e2f8185611c1f565b90508181036020830152611e438184611c1f565b90509392505050565b60006060820190508181036000830152611e668186611c1f565b90508181036020830152611e7a8185611c1f565b90508181036040830152611e8e8184611c1f565b9050949350505050565b60006020820190508181036000830152611eb181611c58565b9050919050565b60006020820190508181036000830152611ed181611c7b565b9050919050565b60006020820190508181036000830152611ef28184611d1b565b905092915050565b6000602082019050611f0f6000830184611da7565b92915050565b600060a082019050611f2a6000830188611da7565b8181036020830152611f3c8187611c1f565b90508181036040830152611f508186611c1f565b9050611f5f6060830185611bd7565b611f6c6080830184611bb9565b9695505050505050565b6000611f80611f91565b9050611f8c82826121a2565b919050565b6000604051905090565b600067ffffffffffffffff821115611fb657611fb56122d8565b5b611fbf8261231b565b9050602081019050919050565b6000819050602082019050919050565b6000819050602082019050919050565b600081519050919050565b600081519050919050565b600081519050919050565b6000602082019050919050565b6000602082019050919050565b600082825260208201905092915050565b600082825260208201905092915050565b600082825260208201905092915050565b600082825260208201905092915050565b600061207682612112565b915061208183612112565b9250827fffffffffffffffffffffffffffffffffffffffffffffffffffffffffffffffff038211156120b6576120b561221c565b5b828201905092915050565b60006120cc826120f2565b9050919050565b60008115159050919050565b60008190506120ed826123ca565b919050565b600073ffffffffffffffffffffffffffffffffffffffff82169050919050565b6000819050919050565b6000612127826120df565b9050919050565b82818337600083830152505050565b60005b8381101561215b578082015181840152602081019050612140565b8381111561216a576000848401525b50505050565b6000600282049050600182168061218857607f821691505b6020821081141561219c5761219b61227a565b5b50919050565b6121ab8261231b565b810181811067ffffffffffffffff821117156121ca576121c96122d8565b5b80604052505050565b60006121de82612112565b91507fffffffffffffffffffffffffffffffffffffffffffffffffffffffffffffffff8214156122115761221061221c565b5b600182019050919050565b7f4e487b7100000000000000000000000000000000000000000000000000000000600052601160045260246000fd5b7f4e487b7100000000000000000000000000000000000000000000000000000000600052602160045260246000fd5b7f4e487b7100000000000000000000000000000000000000000000000000000000600052602260045260246000fd5b7f4e487b7100000000000000000000000000000000000000000000000000000000600052603260045260246000fd5b7f4e487b7100000000000000000000000000000000000000000000000000000000600052604160045260246000fd5b600080fd5b600080fd5b600080fd5b600080fd5b6000601f19601f8301169050919050565b7f557365722069732063757272656e746c7920696e20766f74696e6720636f6f6c60008201527f646f776e20706572696f6420666f7220747261636b2e00000000000000000000602082015250565b7f55736572732063616e6e6f7420766f746520666f72207468652073616d65206560008201527f6e747279206d756c7469706c652074696d65732e000000000000000000000000602082015250565b600381106123db576123da61224b565b5b50565b6123e7816120c1565b81146123f257600080fd5b50565b6123fe81612112565b811461240957600080fd5b5056fea26469706673582212207fa72c76abe52dabde59688a84242fa211db32ce27942e3396f6ee504d2da10e64736f6c63430008070033",
  "immutableReferences": {},
  "source": "// SPDX-License-Identifier: MIT\r\npragma solidity ^0.8.0;\r\n\r\ncontract Tracks {\r\n  mapping (uint  => Track) public tracks;\r\n  mapping (uint  => uint[]) public trackEntries; //trackId => entryId[]\r\n  mapping (uint  => uint) public entriesTrack; //entryId => trackId\r\n  mapping (address  => mapping (uint => bool)) public votesByAddress; //address => (entryId => bool)\r\n  mapping (uint  => uint) public votesByTrack; //trackId => vote count\r\n  mapping (address  => mapping(uint => uint)) public lastVoteTime; //address => trackId => time(s)\r\n\r\n  uint public nextTrackId;\r\n  uint public trackCount;\r\n  uint public nextEntryId;\r\n  uint public cooldownPeriod;\r\n\r\n  enum State {\r\n      TrackOpen,\r\n      TrackClosed,\r\n      TrackBlocked\r\n  }\r\n  struct Track {\r\n      uint  trackId;\r\n      string  name;\r\n      string  desc;\r\n      State state;\r\n      bool exists;\r\n  }\r\n\r\n  event TrackOpened(uint trackId);\r\n  event TrackClosed(uint trackId);\r\n  event TrackBlocked(uint trackId);\r\n  event TrackUnblocked(uint trackId);\r\n  event TrackCreated(uint indexed trackId, string name, string desc);\r\n  event EntryCreated(uint indexed trackId, uint indexed entryId, string name, string desc, string location);\r\n  event EntryVotedFor(uint indexed trackId, uint indexed entryId);\r\n\r\n  /**\r\n   * @dev XXX\r\n   * @param _trackId The id of the track\r\n   */\r\n\tmodifier checkTrackOpen(uint _trackId) {\r\n\t\trequire(tracks[_trackId].state == State.TrackOpen);\r\n    _;\r\n  }\r\n  \r\n\t/**\r\n   * @dev XXX\r\n   * @param _trackId The id of the track\r\n   */\r\n\tmodifier checkTrackClosed(uint _trackId) {\r\n\t\trequire(tracks[_trackId].state == State.TrackClosed);\r\n    _;\r\n  }\r\n  \r\n  /**\r\n   * @dev XXX\r\n   * @param _trackId The id of the track\r\n   */\r\n\tmodifier checkTrackBlocked(uint _trackId) {\r\n\t\trequire(tracks[_trackId].state == State.TrackBlocked);\r\n    _;\r\n  }\r\n  \r\n  /**\r\n   * @dev XXX\r\n   * @param _trackId The id of the track\r\n   */\r\n\tmodifier checkTrackUnblocked(uint _trackId) {\r\n\t\trequire(tracks[_trackId].state != State.TrackBlocked);\r\n    _;\r\n  }\r\n  \r\n  /**\r\n   * @dev XXX\r\n   * @param _trackId The id of the track\r\n   */\r\n\tmodifier checkTrackExists(uint _trackId) {\r\n\t\t\trequire(tracks[_trackId].exists == true);\r\n\t    _;\r\n\t  }\r\n\r\n\tmodifier hasNotVotedForEntry(address _addr, uint _entryId){\r\n\t    require(votesByAddress[msg.sender][_entryId] == false, \"Users cannot vote for the same entry multiple times.\");\r\n\t    _;\r\n\t}\r\n\t\r\n\tmodifier isNotInCooldown(address addr, uint trackId){\r\n\t    require(lastVoteTime[addr][trackId] == 0 || lastVoteTime[addr][trackId] + cooldownPeriod < block.timestamp, \"User is currently in voting cooldown period for track.\");\r\n\t    _;\r\n\t}\r\n\r\n\t/**\r\n   * @dev XXX\r\n   */\r\n  constructor () {\r\n      uint trackId = addTrack(\"first_track\", \"This is the first track\");\r\n      addEntry(trackId, \"name\", \"description\", \"location\");\r\n      cooldownPeriod = 1 hours;\r\n  }\r\n\r\n\t/**\r\n   * @dev XXX\r\n   */\r\n  function getTracks() public view returns ( Track[] memory) {\r\n      Track[] memory _tracks = new Track[](trackCount);\r\n      for (uint i=0; i<trackCount; i++) {\r\n          _tracks[i] = tracks[i];\r\n      }\r\n      return _tracks;\r\n  }\r\n\r\n  /**\r\n   * @dev XXX\r\n   * @param _trackId The id of the track\r\n   */\r\n  function getTrack(uint _trackId) public view checkTrackUnblocked(_trackId) returns (Track memory) {\r\n      return tracks[_trackId];\r\n  }\r\n\t\r\n\r\n  /**\r\n   * @dev XXX\r\n   * @param _trackId The id of the track\r\n   */\r\n  function getEntriesForTrack(uint _trackId) public view returns (uint[] memory){\r\n      return trackEntries[_trackId];\r\n  }\r\n\r\n\t/**\r\n   * @dev XXX\r\n   * @param _trackId The id of the track\r\n   */\r\n  function openTrack(uint _trackId) public checkTrackExists(_trackId) checkTrackClosed(_trackId) {\r\n      tracks[_trackId].state = State.TrackOpen;\r\n      emit TrackOpened(_trackId);\r\n  }\r\n\r\n\t/**\r\n   * @dev XXX\r\n   * @param _trackId The id of the track\r\n   */\r\n\tfunction closeTrack(uint _trackId) public checkTrackExists(_trackId) checkTrackOpen(_trackId) {\r\n      tracks[_trackId].state = State.TrackClosed;\r\n      emit TrackClosed(_trackId);\r\n  }\r\n\r\n\t/**\r\n   * @dev XXX\r\n   * @param _trackId The id of the track\r\n   */\r\n\tfunction blockTrack(uint _trackId) public checkTrackExists(_trackId) checkTrackUnblocked(_trackId) {\r\n      tracks[_trackId].state = State.TrackBlocked;\r\n      emit TrackBlocked(_trackId);\r\n  }\r\n\r\n  /**\r\n   * @dev XXX\r\n   * @param _trackId The id of the track\r\n   */\r\n  function unblockTrack(uint _trackId) public checkTrackExists(_trackId) checkTrackBlocked(_trackId) {\r\n      tracks[_trackId].state = State.TrackClosed;\r\n      emit TrackUnblocked(_trackId);\r\n  }\r\n\r\n\t/**\r\n   * @dev XXX\r\n   * @param _trackId The id of the track\r\n   */\r\n  function isTrackOpen(uint _trackId) public view checkTrackExists(_trackId) returns (bool){\r\n      return (tracks[_trackId].state == State.TrackOpen);\r\n  }\r\n  /**\r\n   * @dev XXX\r\n   * @param _trackId The id of the track\r\n   */\r\n  function isTrackClosed(uint _trackId) public view checkTrackExists(_trackId) returns (bool){\r\n      return (tracks[_trackId].state == State.TrackClosed);\r\n  }\r\n  /**\r\n   * @dev XXX\r\n   * @param _trackId The id of the track\r\n   */\r\n  function isTrackBlocked(uint _trackId) public view checkTrackExists(_trackId) returns (bool){\r\n      return (tracks[_trackId].state == State.TrackBlocked);\r\n  }\r\n\r\n\t/**\r\n   * @dev XXX\r\n   * @param _entryId The id of the entry\r\n   */\r\n  function vote(uint _entryId) public checkTrackOpen(entriesTrack[_entryId]) hasNotVotedForEntry(msg.sender, _entryId) isNotInCooldown(msg.sender, entriesTrack[_entryId]) {\r\n    uint _trackId = entriesTrack[_entryId];\r\n    votesByAddress[msg.sender][_entryId] = true;\r\n    lastVoteTime[msg.sender][_trackId] = block.timestamp;\r\n    votesByTrack[_trackId]++;\r\n    emit EntryVotedFor(_trackId, _entryId);\r\n  }\r\n\r\n  /**\r\n   * @dev XXX\r\n   * @param _trackId The id of the track\r\n   */\r\n  function addEntry(uint _trackId, string memory _name, string memory _desc, string memory _location) public checkTrackOpen(_trackId) returns (uint) {\r\n    uint entryId = nextEntryId;\r\n    require(entriesTrack[entryId] == 0);\r\n    trackEntries[_trackId].push(entryId);\r\n    entriesTrack[entryId] = _trackId;\r\n    nextEntryId++;\r\n    emit EntryCreated(_trackId, entryId, _name, _desc, _location);\r\n    return entryId;\r\n  }\r\n\r\n\t/**\r\n   * @dev XXX\r\n   * @param _name XXX\r\n   * @param _desc XXX\r\n   */\r\n  function addTrack(string memory _name, string memory _desc) public returns (uint) {\r\n    uint trackId = nextTrackId;\r\n    tracks[trackId] = Track({\r\n      trackId: trackId,\r\n      name: _name,\r\n      desc: _desc,\r\n      state: State.TrackOpen,\r\n      exists: true\r\n    });\r\n    nextTrackId++;\r\n    trackCount++;\r\n    emit TrackCreated(trackId, _name, _desc);\r\n    return trackId;\r\n   }\r\n}\r\n\r\n\r\n",
  "sourcePath": "D:\\projects\\blockchain-developer-bootcamp-final-project\\tracks\\contracts\\Tracks.sol",
  "compiler": {
    "name": "solc",
    "version": "0.8.7+commit.e28d00a7.Emscripten.clang"
  },
  "schemaVersion": "3.4.3",
  "updatedAt": "2021-10-08T08:41:06.816Z",
  "networkType": "ethereum",
  "devdoc": {
    "kind": "dev",
    "methods": {
      "addEntry(uint256,string,string,string)": {
        "details": "XXX",
        "params": {
          "_trackId": "The id of the track"
        }
      },
      "addTrack(string,string)": {
        "details": "XXX",
        "params": {
          "_desc": "XXX",
          "_name": "XXX"
        }
      },
      "blockTrack(uint256)": {
        "details": "XXX",
        "params": {
          "_trackId": "The id of the track"
        }
      },
      "closeTrack(uint256)": {
        "details": "XXX",
        "params": {
          "_trackId": "The id of the track"
        }
      },
      "constructor": {
        "details": "XXX"
      },
      "getEntriesForTrack(uint256)": {
        "details": "XXX",
        "params": {
          "_trackId": "The id of the track"
        }
      },
      "getTrack(uint256)": {
        "details": "XXX",
        "params": {
          "_trackId": "The id of the track"
        }
      },
      "getTracks()": {
        "details": "XXX"
      },
      "isTrackBlocked(uint256)": {
        "details": "XXX",
        "params": {
          "_trackId": "The id of the track"
        }
      },
      "isTrackClosed(uint256)": {
        "details": "XXX",
        "params": {
          "_trackId": "The id of the track"
        }
      },
      "isTrackOpen(uint256)": {
        "details": "XXX",
        "params": {
          "_trackId": "The id of the track"
        }
      },
      "openTrack(uint256)": {
        "details": "XXX",
        "params": {
          "_trackId": "The id of the track"
        }
      },
      "unblockTrack(uint256)": {
        "details": "XXX",
        "params": {
          "_trackId": "The id of the track"
        }
      },
      "vote(uint256)": {
        "details": "XXX",
        "params": {
          "_entryId": "The id of the entry"
        }
      }
    },
    "version": 1
  },
  "userdoc": {
    "kind": "user",
    "methods": {},
    "version": 1
  }
}