{
  "contractName": "Tracks",
  "abi": [
    {
      "inputs": [],
      "stateMutability": "nonpayable",
      "type": "constructor"
    },
    {
      "anonymous": false,
      "inputs": [
        {
          "indexed": true,
          "internalType": "uint256",
          "name": "trackId",
          "type": "uint256"
        },
        {
          "indexed": true,
          "internalType": "uint256",
          "name": "entryId",
          "type": "uint256"
        },
        {
          "indexed": false,
          "internalType": "string",
          "name": "name",
          "type": "string"
        },
        {
          "indexed": false,
          "internalType": "string",
          "name": "desc",
          "type": "string"
        },
        {
          "indexed": false,
          "internalType": "string",
          "name": "location",
          "type": "string"
        }
      ],
      "name": "EntryCreated",
      "type": "event"
    },
    {
      "anonymous": false,
      "inputs": [
        {
          "indexed": true,
          "internalType": "uint256",
          "name": "trackId",
          "type": "uint256"
        },
        {
          "indexed": true,
          "internalType": "uint256",
          "name": "entryId",
          "type": "uint256"
        }
      ],
      "name": "EntryVotedFor",
      "type": "event"
    },
    {
      "anonymous": false,
      "inputs": [
        {
          "indexed": true,
          "internalType": "address",
          "name": "previousOwner",
          "type": "address"
        },
        {
          "indexed": true,
          "internalType": "address",
          "name": "newOwner",
          "type": "address"
        }
      ],
      "name": "OwnershipTransferred",
      "type": "event"
    },
    {
      "anonymous": false,
      "inputs": [
        {
          "indexed": false,
          "internalType": "uint256",
          "name": "trackId",
          "type": "uint256"
        }
      ],
      "name": "TrackBlocked",
      "type": "event"
    },
    {
      "anonymous": false,
      "inputs": [
        {
          "indexed": false,
          "internalType": "uint256",
          "name": "trackId",
          "type": "uint256"
        }
      ],
      "name": "TrackClosed",
      "type": "event"
    },
    {
      "anonymous": false,
      "inputs": [
        {
          "indexed": true,
          "internalType": "uint256",
          "name": "trackId",
          "type": "uint256"
        },
        {
          "indexed": false,
          "internalType": "string",
          "name": "name",
          "type": "string"
        },
        {
          "indexed": false,
          "internalType": "string",
          "name": "desc",
          "type": "string"
        }
      ],
      "name": "TrackCreated",
      "type": "event"
    },
    {
      "anonymous": false,
      "inputs": [
        {
          "indexed": false,
          "internalType": "uint256",
          "name": "trackId",
          "type": "uint256"
        }
      ],
      "name": "TrackOpened",
      "type": "event"
    },
    {
      "anonymous": false,
      "inputs": [
        {
          "indexed": false,
          "internalType": "uint256",
          "name": "trackId",
          "type": "uint256"
        }
      ],
      "name": "TrackUnblocked",
      "type": "event"
    },
    {
      "inputs": [],
      "name": "allTracksState",
      "outputs": [
        {
          "internalType": "enum Tracks.State",
          "name": "",
          "type": "uint8"
        }
      ],
      "stateMutability": "view",
      "type": "function"
    },
    {
      "inputs": [],
      "name": "allVotesState",
      "outputs": [
        {
          "internalType": "enum Tracks.State",
          "name": "",
          "type": "uint8"
        }
      ],
      "stateMutability": "view",
      "type": "function"
    },
    {
      "inputs": [
        {
          "internalType": "address",
          "name": "",
          "type": "address"
        }
      ],
      "name": "bannedUsers",
      "outputs": [
        {
          "internalType": "bool",
          "name": "",
          "type": "bool"
        }
      ],
      "stateMutability": "view",
      "type": "function"
    },
    {
      "inputs": [
        {
          "internalType": "uint256",
          "name": "",
          "type": "uint256"
        }
      ],
      "name": "entriesTrack",
      "outputs": [
        {
          "internalType": "uint256",
          "name": "",
          "type": "uint256"
        }
      ],
      "stateMutability": "view",
      "type": "function"
    },
    {
      "inputs": [],
      "name": "entryCreationCooldownEnabled",
      "outputs": [
        {
          "internalType": "bool",
          "name": "",
          "type": "bool"
        }
      ],
      "stateMutability": "view",
      "type": "function"
    },
    {
      "inputs": [],
      "name": "entryEventCooldownPeriod",
      "outputs": [
        {
          "internalType": "uint256",
          "name": "",
          "type": "uint256"
        }
      ],
      "stateMutability": "view",
      "type": "function"
    },
    {
      "inputs": [
        {
          "internalType": "address",
          "name": "",
          "type": "address"
        }
      ],
      "name": "entryEventsByUser",
      "outputs": [
        {
          "internalType": "uint256",
          "name": "time",
          "type": "uint256"
        },
        {
          "internalType": "uint256",
          "name": "eventId",
          "type": "uint256"
        }
      ],
      "stateMutability": "view",
      "type": "function"
    },
    {
      "inputs": [
        {
          "internalType": "address",
          "name": "",
          "type": "address"
        },
        {
          "internalType": "uint256",
          "name": "",
          "type": "uint256"
        }
      ],
      "name": "lastVoteTime",
      "outputs": [
        {
          "internalType": "uint256",
          "name": "",
          "type": "uint256"
        }
      ],
      "stateMutability": "view",
      "type": "function"
    },
    {
      "inputs": [],
      "name": "nextEntryId",
      "outputs": [
        {
          "internalType": "uint256",
          "name": "",
          "type": "uint256"
        }
      ],
      "stateMutability": "view",
      "type": "function"
    },
    {
      "inputs": [],
      "name": "nextTrackId",
      "outputs": [
        {
          "internalType": "uint256",
          "name": "",
          "type": "uint256"
        }
      ],
      "stateMutability": "view",
      "type": "function"
    },
    {
      "inputs": [],
      "name": "owner",
      "outputs": [
        {
          "internalType": "address",
          "name": "",
          "type": "address"
        }
      ],
      "stateMutability": "view",
      "type": "function"
    },
    {
      "inputs": [],
      "name": "renounceOwnership",
      "outputs": [],
      "stateMutability": "nonpayable",
      "type": "function"
    },
    {
      "inputs": [],
      "name": "trackCount",
      "outputs": [
        {
          "internalType": "uint256",
          "name": "",
          "type": "uint256"
        }
      ],
      "stateMutability": "view",
      "type": "function"
    },
    {
      "inputs": [],
      "name": "trackCreationCooldownEnabled",
      "outputs": [
        {
          "internalType": "bool",
          "name": "",
          "type": "bool"
        }
      ],
      "stateMutability": "view",
      "type": "function"
    },
    {
      "inputs": [
        {
          "internalType": "uint256",
          "name": "",
          "type": "uint256"
        },
        {
          "internalType": "uint256",
          "name": "",
          "type": "uint256"
        }
      ],
      "name": "trackEntries",
      "outputs": [
        {
          "internalType": "uint256",
          "name": "",
          "type": "uint256"
        }
      ],
      "stateMutability": "view",
      "type": "function"
    },
    {
      "inputs": [],
      "name": "trackEventCooldownPeriod",
      "outputs": [
        {
          "internalType": "uint256",
          "name": "",
          "type": "uint256"
        }
      ],
      "stateMutability": "view",
      "type": "function"
    },
    {
      "inputs": [
        {
          "internalType": "address",
          "name": "",
          "type": "address"
        }
      ],
      "name": "trackEventsByUser",
      "outputs": [
        {
          "internalType": "uint256",
          "name": "time",
          "type": "uint256"
        },
        {
          "internalType": "uint256",
          "name": "trackId",
          "type": "uint256"
        }
      ],
      "stateMutability": "view",
      "type": "function"
    },
    {
      "inputs": [
        {
          "internalType": "uint256",
          "name": "",
          "type": "uint256"
        }
      ],
      "name": "trackOwners",
      "outputs": [
        {
          "internalType": "address",
          "name": "",
          "type": "address"
        }
      ],
      "stateMutability": "view",
      "type": "function"
    },
    {
      "inputs": [
        {
          "internalType": "uint256",
          "name": "",
          "type": "uint256"
        }
      ],
      "name": "tracks",
      "outputs": [
        {
          "internalType": "uint256",
          "name": "trackId",
          "type": "uint256"
        },
        {
          "internalType": "string",
          "name": "name",
          "type": "string"
        },
        {
          "internalType": "string",
          "name": "desc",
          "type": "string"
        },
        {
          "internalType": "enum Tracks.State",
          "name": "state",
          "type": "uint8"
        },
        {
          "internalType": "bool",
          "name": "exists",
          "type": "bool"
        }
      ],
      "stateMutability": "view",
      "type": "function"
    },
    {
      "inputs": [
        {
          "internalType": "address",
          "name": "newOwner",
          "type": "address"
        }
      ],
      "name": "transferOwnership",
      "outputs": [],
      "stateMutability": "nonpayable",
      "type": "function"
    },
    {
      "inputs": [],
      "name": "voteCooldownPeriod",
      "outputs": [
        {
          "internalType": "uint256",
          "name": "",
          "type": "uint256"
        }
      ],
      "stateMutability": "view",
      "type": "function"
    },
    {
      "inputs": [
        {
          "internalType": "address",
          "name": "",
          "type": "address"
        },
        {
          "internalType": "uint256",
          "name": "",
          "type": "uint256"
        }
      ],
      "name": "votesByAddress",
      "outputs": [
        {
          "internalType": "bool",
          "name": "",
          "type": "bool"
        }
      ],
      "stateMutability": "view",
      "type": "function"
    },
    {
      "inputs": [
        {
          "internalType": "uint256",
          "name": "",
          "type": "uint256"
        }
      ],
      "name": "votesByTrack",
      "outputs": [
        {
          "internalType": "uint256",
          "name": "",
          "type": "uint256"
        }
      ],
      "stateMutability": "view",
      "type": "function"
    },
    {
      "inputs": [],
      "name": "votingCooldownEnabled",
      "outputs": [
        {
          "internalType": "bool",
          "name": "",
          "type": "bool"
        }
      ],
      "stateMutability": "view",
      "type": "function"
    },
    {
      "inputs": [],
      "name": "getTracks",
      "outputs": [
        {
          "components": [
            {
              "internalType": "uint256",
              "name": "trackId",
              "type": "uint256"
            },
            {
              "internalType": "string",
              "name": "name",
              "type": "string"
            },
            {
              "internalType": "string",
              "name": "desc",
              "type": "string"
            },
            {
              "internalType": "enum Tracks.State",
              "name": "state",
              "type": "uint8"
            },
            {
              "internalType": "bool",
              "name": "exists",
              "type": "bool"
            }
          ],
          "internalType": "struct Tracks.Track[]",
          "name": "",
          "type": "tuple[]"
        }
      ],
      "stateMutability": "view",
      "type": "function"
    },
    {
      "inputs": [
        {
          "internalType": "uint256",
          "name": "_trackId",
          "type": "uint256"
        }
      ],
      "name": "getTrack",
      "outputs": [
        {
          "components": [
            {
              "internalType": "uint256",
              "name": "trackId",
              "type": "uint256"
            },
            {
              "internalType": "string",
              "name": "name",
              "type": "string"
            },
            {
              "internalType": "string",
              "name": "desc",
              "type": "string"
            },
            {
              "internalType": "enum Tracks.State",
              "name": "state",
              "type": "uint8"
            },
            {
              "internalType": "bool",
              "name": "exists",
              "type": "bool"
            }
          ],
          "internalType": "struct Tracks.Track",
          "name": "",
          "type": "tuple"
        }
      ],
      "stateMutability": "view",
      "type": "function"
    },
    {
      "inputs": [
        {
          "internalType": "uint256",
          "name": "_trackId",
          "type": "uint256"
        }
      ],
      "name": "getEntriesForTrack",
      "outputs": [
        {
          "internalType": "uint256[]",
          "name": "",
          "type": "uint256[]"
        }
      ],
      "stateMutability": "view",
      "type": "function"
    },
    {
      "inputs": [
        {
          "internalType": "uint256",
          "name": "_trackId",
          "type": "uint256"
        }
      ],
      "name": "openTrack",
      "outputs": [],
      "stateMutability": "nonpayable",
      "type": "function"
    },
    {
      "inputs": [
        {
          "internalType": "uint256",
          "name": "_trackId",
          "type": "uint256"
        }
      ],
      "name": "closeTrack",
      "outputs": [],
      "stateMutability": "nonpayable",
      "type": "function"
    },
    {
      "inputs": [
        {
          "internalType": "uint256",
          "name": "_trackId",
          "type": "uint256"
        }
      ],
      "name": "blockTrack",
      "outputs": [],
      "stateMutability": "nonpayable",
      "type": "function"
    },
    {
      "inputs": [
        {
          "internalType": "uint256",
          "name": "_trackId",
          "type": "uint256"
        }
      ],
      "name": "unblockTrack",
      "outputs": [],
      "stateMutability": "nonpayable",
      "type": "function"
    },
    {
      "inputs": [
        {
          "internalType": "uint256",
          "name": "_trackId",
          "type": "uint256"
        }
      ],
      "name": "isTrackOpen",
      "outputs": [
        {
          "internalType": "bool",
          "name": "",
          "type": "bool"
        }
      ],
      "stateMutability": "view",
      "type": "function"
    },
    {
      "inputs": [
        {
          "internalType": "uint256",
          "name": "_trackId",
          "type": "uint256"
        }
      ],
      "name": "isTrackClosed",
      "outputs": [
        {
          "internalType": "bool",
          "name": "",
          "type": "bool"
        }
      ],
      "stateMutability": "view",
      "type": "function"
    },
    {
      "inputs": [
        {
          "internalType": "uint256",
          "name": "_trackId",
          "type": "uint256"
        }
      ],
      "name": "isTrackBlocked",
      "outputs": [
        {
          "internalType": "bool",
          "name": "",
          "type": "bool"
        }
      ],
      "stateMutability": "view",
      "type": "function"
    },
    {
      "inputs": [
        {
          "internalType": "uint256",
          "name": "_entryId",
          "type": "uint256"
        }
      ],
      "name": "vote",
      "outputs": [],
      "stateMutability": "nonpayable",
      "type": "function"
    },
    {
      "inputs": [
        {
          "internalType": "uint256",
          "name": "_trackId",
          "type": "uint256"
        },
        {
          "internalType": "string",
          "name": "_name",
          "type": "string"
        },
        {
          "internalType": "string",
          "name": "_desc",
          "type": "string"
        },
        {
          "internalType": "string",
          "name": "_location",
          "type": "string"
        }
      ],
      "name": "addEntry",
      "outputs": [
        {
          "internalType": "uint256",
          "name": "",
          "type": "uint256"
        }
      ],
      "stateMutability": "nonpayable",
      "type": "function"
    },
    {
      "inputs": [
        {
          "internalType": "string",
          "name": "_name",
          "type": "string"
        },
        {
          "internalType": "string",
          "name": "_desc",
          "type": "string"
        }
      ],
      "name": "addTrack",
      "outputs": [
        {
          "internalType": "uint256",
          "name": "",
          "type": "uint256"
        }
      ],
      "stateMutability": "nonpayable",
      "type": "function"
    },
    {
      "inputs": [
        {
          "internalType": "bool",
          "name": "enable",
          "type": "bool"
        }
      ],
      "name": "disableAllTracks",
      "outputs": [],
      "stateMutability": "nonpayable",
      "type": "function"
    },
    {
      "inputs": [
        {
          "internalType": "bool",
          "name": "enable",
          "type": "bool"
        }
      ],
      "name": "disableAllVoting",
      "outputs": [],
      "stateMutability": "nonpayable",
      "type": "function"
    },
    {
      "inputs": [
        {
          "internalType": "address",
          "name": "addr",
          "type": "address"
        },
        {
          "internalType": "bool",
          "name": "banned",
          "type": "bool"
        }
      ],
      "name": "banUser",
      "outputs": [],
      "stateMutability": "nonpayable",
      "type": "function"
    },
    {
      "inputs": [],
      "name": "isSenderInTrackCreationCooldown",
      "outputs": [
        {
          "internalType": "bool",
          "name": "",
          "type": "bool"
        }
      ],
      "stateMutability": "view",
      "type": "function"
    },
    {
      "inputs": [],
      "name": "isSenderInEntryCreationCooldown",
      "outputs": [
        {
          "internalType": "bool",
          "name": "",
          "type": "bool"
        }
      ],
      "stateMutability": "view",
      "type": "function"
    },
    {
      "inputs": [
        {
          "internalType": "uint256",
          "name": "trackId",
          "type": "uint256"
        }
      ],
      "name": "isSenderInVotingCooldown",
      "outputs": [
        {
          "internalType": "bool",
          "name": "",
          "type": "bool"
        }
      ],
      "stateMutability": "view",
      "type": "function"
    },
    {
      "inputs": [
        {
          "internalType": "bool",
          "name": "enable",
          "type": "bool"
        }
      ],
      "name": "enableCooldowns",
      "outputs": [],
      "stateMutability": "nonpayable",
      "type": "function"
    }
  ],
  "bytecode": "0x60806040523480156200001157600080fd5b506200003262000026620001f360201b60201c565b620001fb60201b60201c565b603c600e81905550603c600f81905550603c6010819055506000601160006101000a81548160ff0219169083600281111562000073576200007262001209565b5b02179055506000601160016101000a81548160ff02191690836002811115620000a157620000a062001209565b5b02179055506000620001246040518060400160405280600b81526020017f66697273745f747261636b0000000000000000000000000000000000000000008152506040518060400160405280601781526020017f546869732069732074686520666972737420747261636b000000000000000000815250620002bf60201b60201c565b9050620001d9816040518060400160405280600481526020017f6e616d65000000000000000000000000000000000000000000000000000000008152506040518060400160405280600b81526020017f6465736372697074696f6e0000000000000000000000000000000000000000008152506040518060400160405280600881526020017f6c6f636174696f6e0000000000000000000000000000000000000000000000008152506200079460201b60201c565b50620001ec600162000c6060201b60201c565b5062001406565b600033905090565b60008060009054906101000a900473ffffffffffffffffffffffffffffffffffffffff169050816000806101000a81548173ffffffffffffffffffffffffffffffffffffffff021916908373ffffffffffffffffffffffffffffffffffffffff1602179055508173ffffffffffffffffffffffffffffffffffffffff168173ffffffffffffffffffffffffffffffffffffffff167f8be0079c531659141344cd1fd0a4f28419497f9722a3daafe3b4186f6b6457e060405160405180910390a35050565b6000600280811115620002d757620002d662001209565b5b601160009054906101000a900460ff166002811115620002fc57620002fb62001209565b5b141562000340576040517f08c379a0000000000000000000000000000000000000000000000000000000008152600401620003379062001059565b60405180910390fd5b33601160029054906101000a900460ff1615806200039857506200036962000d4060201b60201c565b73ffffffffffffffffffffffffffffffffffffffff168173ffffffffffffffffffffffffffffffffffffffff16145b80620003e657506000600660008373ffffffffffffffffffffffffffffffffffffffff1673ffffffffffffffffffffffffffffffffffffffff16815260200190815260200160002060000154145b8062000442575042601054600660008473ffffffffffffffffffffffffffffffffffffffff1673ffffffffffffffffffffffffffffffffffffffff16815260200190815260200160002060000154620004409190620010b9565b115b62000484576040517f08c379a00000000000000000000000000000000000000000000000000000000081526004016200047b906200107b565b60405180910390fd5b336200049562000d4060201b60201c565b73ffffffffffffffffffffffffffffffffffffffff168173ffffffffffffffffffffffffffffffffffffffff1614158062000521575060011515600a60008373ffffffffffffffffffffffffffffffffffffffff1673ffffffffffffffffffffffffffffffffffffffff16815260200190815260200160002060009054906101000a900460ff16151514155b62000563576040517f08c379a00000000000000000000000000000000000000000000000000000000081526004016200055a9062001037565b60405180910390fd5b6000600b5490506040518060a00160405280828152602001878152602001868152602001600060028111156200059e576200059d62001209565b5b81526020016001151581525060016000838152602001908152602001600020600082015181600001556020820151816001019080519060200190620005e592919062000d69565b5060408201518160020190805190602001906200060492919062000d69565b5060608201518160030160006101000a81548160ff0219169083600281111562000633576200063262001209565b5b021790555060808201518160030160016101000a81548160ff021916908315150217905550905050604051806040016040528042815260200182815250600660003373ffffffffffffffffffffffffffffffffffffffff1673ffffffffffffffffffffffffffffffffffffffff1681526020019081526020016000206000820151816000015560208201518160010155905050336004600083815260200190815260200160002060006101000a81548173ffffffffffffffffffffffffffffffffffffffff021916908373ffffffffffffffffffffffffffffffffffffffff160217905550600b60008154809291906200072d906200118c565b9190505550600c600081548092919062000747906200118c565b9190505550807f21579433a032855e20e8afc48e980ddae0b6285e4aa03370f03192be12bea28b87876040516200078092919062000f44565b60405180910390a280935050505092915050565b6000600280811115620007ac57620007ab62001209565b5b601160009054906101000a900460ff166002811115620007d157620007d062001209565b5b141562000815576040517f08c379a00000000000000000000000000000000000000000000000000000000081526004016200080c9062001059565b60405180910390fd5b336200082662000d4060201b60201c565b73ffffffffffffffffffffffffffffffffffffffff168173ffffffffffffffffffffffffffffffffffffffff16141580620008b2575060011515600a60008373ffffffffffffffffffffffffffffffffffffffff1673ffffffffffffffffffffffffffffffffffffffff16815260200190815260200160002060009054906101000a900460ff16151514155b620008f4576040517f08c379a0000000000000000000000000000000000000000000000000000000008152600401620008eb9062001037565b60405180910390fd5b33601160049054906101000a900460ff1615806200094c57506200091d62000d4060201b60201c565b73ffffffffffffffffffffffffffffffffffffffff168173ffffffffffffffffffffffffffffffffffffffff16145b806200099a57506000600760008373ffffffffffffffffffffffffffffffffffffffff1673ffffffffffffffffffffffffffffffffffffffff16815260200190815260200160002060000154145b80620009f6575042600f54600760008473ffffffffffffffffffffffffffffffffffffffff1673ffffffffffffffffffffffffffffffffffffffff16815260200190815260200160002060000154620009f49190620010b9565b115b62000a38576040517f08c379a000000000000000000000000000000000000000000000000000000000815260040162000a2f9062000ff3565b60405180910390fd5b866000600281111562000a505762000a4f62001209565b5b6001600083815260200190815260200160002060030160009054906101000a900460ff16600281111562000a895762000a8862001209565b5b1462000a9457600080fd5b6000600281111562000aab5762000aaa62001209565b5b601160009054906101000a900460ff16600281111562000ad05762000acf62001209565b5b1462000b13576040517f08c379a000000000000000000000000000000000000000000000000000000000815260040162000b0a9062000fd1565b60405180910390fd5b6000600d549050600060036000838152602001908152602001600020541462000b3b57600080fd5b600260008a8152602001908152602001600020819080600181540180825580915050600190039060005260206000200160009091909190915055886003600083815260200190815260200160002081905550604051806040016040528042815260200182815250600760003373ffffffffffffffffffffffffffffffffffffffff1673ffffffffffffffffffffffffffffffffffffffff1681526020019081526020016000206000820151816000015560208201518160010155905050600d600081548092919062000c0d906200118c565b919050555080897f313f81e8cc8fe5ab3d1facaeffd8e0d26068ff1776d23a4621a5bdb0c891c8178a8a8a60405162000c499392919062000f7f565b60405180910390a380945050505050949350505050565b62000c70620001f360201b60201c565b73ffffffffffffffffffffffffffffffffffffffff1662000c9662000d4060201b60201c565b73ffffffffffffffffffffffffffffffffffffffff161462000cef576040517f08c379a000000000000000000000000000000000000000000000000000000000815260040162000ce69062001015565b60405180910390fd5b80601160026101000a81548160ff02191690831515021790555080601160036101000a81548160ff02191690831515021790555080601160046101000a81548160ff02191690831515021790555050565b60008060009054906101000a900473ffffffffffffffffffffffffffffffffffffffff16905090565b82805462000d779062001156565b90600052602060002090601f01602090048101928262000d9b576000855562000de7565b82601f1062000db657805160ff191683800117855562000de7565b8280016001018555821562000de7579182015b8281111562000de657825182559160200191906001019062000dc9565b5b50905062000df6919062000dfa565b5090565b5b8082111562000e1557600081600090555060010162000dfb565b5090565b600062000e26826200109d565b62000e328185620010a8565b935062000e4481856020860162001120565b62000e4f8162001267565b840191505092915050565b600062000e69602483620010a8565b915062000e768262001278565b604082019050919050565b600062000e90602483620010a8565b915062000e9d82620012c7565b604082019050919050565b600062000eb7602083620010a8565b915062000ec48262001316565b602082019050919050565b600062000ede601d83620010a8565b915062000eeb826200133f565b602082019050919050565b600062000f05602583620010a8565b915062000f128262001368565b604082019050919050565b600062000f2c602483620010a8565b915062000f3982620013b7565b604082019050919050565b6000604082019050818103600083015262000f60818562000e19565b9050818103602083015262000f76818462000e19565b90509392505050565b6000606082019050818103600083015262000f9b818662000e19565b9050818103602083015262000fb1818562000e19565b9050818103604083015262000fc7818462000e19565b9050949350505050565b6000602082019050818103600083015262000fec8162000e5a565b9050919050565b600060208201905081810360008301526200100e8162000e81565b9050919050565b60006020820190508181036000830152620010308162000ea8565b9050919050565b60006020820190508181036000830152620010528162000ecf565b9050919050565b60006020820190508181036000830152620010748162000ef6565b9050919050565b60006020820190508181036000830152620010968162000f1d565b9050919050565b600081519050919050565b600082825260208201905092915050565b6000620010c68262001116565b9150620010d38362001116565b9250827fffffffffffffffffffffffffffffffffffffffffffffffffffffffffffffffff038211156200110b576200110a620011da565b5b828201905092915050565b6000819050919050565b60005b838110156200114057808201518184015260208101905062001123565b8381111562001150576000848401525b50505050565b600060028204905060018216806200116f57607f821691505b6020821081141562001186576200118562001238565b5b50919050565b6000620011998262001116565b91507fffffffffffffffffffffffffffffffffffffffffffffffffffffffffffffffff821415620011cf57620011ce620011da565b5b600182019050919050565b7f4e487b7100000000000000000000000000000000000000000000000000000000600052601160045260246000fd5b7f4e487b7100000000000000000000000000000000000000000000000000000000600052602160045260246000fd5b7f4e487b7100000000000000000000000000000000000000000000000000000000600052602260045260246000fd5b6000601f19601f8301169050919050565b7f416c6c20747261636b732068617665206265656e20636c6f736564206279206160008201527f646d696e00000000000000000000000000000000000000000000000000000000602082015250565b7f557365722069732063757272656e746c7920696e20656e74727920636f6f6c6460008201527f6f776e2e00000000000000000000000000000000000000000000000000000000602082015250565b7f4f776e61626c653a2063616c6c6572206973206e6f7420746865206f776e6572600082015250565b7f5573657220686173206265656e2062616e6e65642062792061646d696e000000600082015250565b7f416c6c20747261636b732068617665206265656e20626c6f636b65642062792060008201527f61646d696e000000000000000000000000000000000000000000000000000000602082015250565b7f557365722069732063757272656e746c7920696e20747261636b20636f6f6c6460008201527f6f776e2e00000000000000000000000000000000000000000000000000000000602082015250565b6146d980620014166000396000f3fe608060405234801561001057600080fd5b50600436106102745760003560e01c806395ab2b9811610151578063d02f4483116100c3578063eea85bc511610087578063eea85bc514610800578063ef75976114610831578063f2fde38b1461084d578063f838e33f14610869578063f9eafb5714610887578063fb008447146108a557610274565b8063d02f448314610733578063d249662414610763578063db7c01e214610781578063debe8ab7146107b1578063e6b2cf6c146107e257610274565b8063a72024c611610115578063a72024c61461065d578063ab35678c1461067b578063add509c014610699578063bb855ee6146106b5578063c67f8b8a146106d3578063caa2c2ad1461070357610274565b806395ab2b981461058f578063962dd807146105bf5780639ebe639a146105ef578063a2e345861461060d578063a5bf8ea91461064157610274565b80635e11ca82116101ea5780637e8898ea116101ae5780637e8898ea146104b957806387548fcf146104d75780638988d078146104f55780638da5cb5b146105255780638ee223f914610543578063924e9b951461055f57610274565b80635e11ca8214610415578063629058ca1461043357806366cb59361461046357806368e982b014610493578063715018a6146104af57610274565b80632e42ddbf1161023c5780632e42ddbf1461031d57806333abbe511461034d57806336de40be1461037d578063423b7032146103ad5780634bc558b3146103c95780635be85297146103f957610274565b80630121b93f146102795780630955ccff14610295578063109699b6146102b35780631f6c5f00146102e357806328ae3ebb146102ff575b600080fd5b610293600480360381019061028e91906135a1565b6108c3565b005b61029d610e68565b6040516102aa9190613e81565b60405180910390f35b6102cd60048036038101906102c89190613689565b610e6e565b6040516102da9190613e81565b60405180910390f35b6102fd60048036038101906102f891906135a1565b610e9f565b005b6103076110e4565b6040516103149190613be6565b60405180910390f35b610337600480360381019061033291906135ce565b611166565b6040516103449190613e81565b60405180910390f35b610367600480360381019061036291906135a1565b6115f8565b6040516103749190613be6565b60405180910390f35b61039760048036038101906103929190613529565b6116b8565b6040516103a49190613e81565b60405180910390f35b6103c760048036038101906103c291906135a1565b611b58565b005b6103e360048036038101906103de91906134bc565b611ddc565b6040516103f09190613e81565b60405180910390f35b610413600480360381019061040e91906134fc565b611e01565b005b61041d611ece565b60405161042a9190613c01565b60405180910390f35b61044d600480360381019061044891906135a1565b611ee1565b60405161045a9190613e5f565b60405180910390f35b61047d600480360381019061047891906135a1565b61211e565b60405161048a9190613be6565b60405180910390f35b6104ad60048036038101906104a891906135a1565b6121de565b005b6104b7612421565b005b6104c16124a9565b6040516104ce9190613be6565b60405180910390f35b6104df6124bc565b6040516104ec9190613ba2565b60405180910390f35b61050f600480360381019061050a919061344f565b612700565b60405161051c9190613be6565b60405180910390f35b61052d612720565b60405161053a9190613b87565b60405180910390f35b61055d6004803603810190610558919061347c565b612749565b005b610579600480360381019061057491906135a1565b612820565b6040516105869190613e81565b60405180910390f35b6105a960048036038101906105a491906135a1565b612838565b6040516105b69190613b87565b60405180910390f35b6105d960048036038101906105d491906135a1565b61286b565b6040516105e69190613e81565b60405180910390f35b6105f7612883565b6040516106049190613be6565b60405180910390f35b610627600480360381019061062291906135a1565b612896565b604051610638959493929190613e9c565b60405180910390f35b61065b600480360381019061065691906134fc565b6129f6565b005b610665612ad7565b6040516106729190613e81565b60405180910390f35b610683612add565b6040516106909190613e81565b60405180910390f35b6106b360048036038101906106ae91906134fc565b612ae3565b005b6106bd612bc4565b6040516106ca9190613e81565b60405180910390f35b6106ed60048036038101906106e891906135a1565b612bca565b6040516106fa9190613be6565b60405180910390f35b61071d600480360381019061071891906135a1565b612c5c565b60405161072a9190613be6565b60405180910390f35b61074d600480360381019061074891906135a1565b612d1b565b60405161075a9190613bc4565b60405180910390f35b61076b612d86565b6040516107789190613be6565b60405180910390f35b61079b600480360381019061079691906134bc565b612d99565b6040516107a89190613be6565b60405180910390f35b6107cb60048036038101906107c6919061344f565b612dc8565b6040516107d9929190613efd565b60405180910390f35b6107ea612dec565b6040516107f79190613e81565b60405180910390f35b61081a6004803603810190610815919061344f565b612df2565b604051610828929190613efd565b60405180910390f35b61084b600480360381019061084691906135a1565b612e16565b005b6108676004803603810190610862919061344f565b61305b565b005b610871613153565b60405161087e9190613e81565b60405180910390f35b61088f613159565b60405161089c9190613be6565b60405180910390f35b6108ad6131db565b6040516108ba9190613c01565b60405180910390f35b6003600082815260200190815260200160002054600060028111156108eb576108ea6141fb565b5b6001600083815260200190815260200160002060030160009054906101000a900460ff166002811115610921576109206141fb565b5b1461092b57600080fd5b6000600281111561093f5761093e6141fb565b5b601160009054906101000a900460ff166002811115610961576109606141fb565b5b146109a1576040517f08c379a000000000000000000000000000000000000000000000000000000000815260040161099890613cff565b60405180910390fd5b33826109ab612720565b73ffffffffffffffffffffffffffffffffffffffff168273ffffffffffffffffffffffffffffffffffffffff161480610a45575060001515600560008473ffffffffffffffffffffffffffffffffffffffff1673ffffffffffffffffffffffffffffffffffffffff168152602001908152602001600020600083815260200190815260200160002060009054906101000a900460ff161515145b610a84576040517f08c379a0000000000000000000000000000000000000000000000000000000008152600401610a7b90613d3f565b60405180910390fd5b600280811115610a9757610a966141fb565b5b601160019054906101000a900460ff166002811115610ab957610ab86141fb565b5b1415610afa576040517f08c379a0000000000000000000000000000000000000000000000000000000008152600401610af190613d5f565b60405180910390fd5b33610b03612720565b73ffffffffffffffffffffffffffffffffffffffff168173ffffffffffffffffffffffffffffffffffffffff16141580610b8e575060011515600a60008373ffffffffffffffffffffffffffffffffffffffff1673ffffffffffffffffffffffffffffffffffffffff16815260200190815260200160002060009054906101000a900460ff16151514155b610bcd576040517f08c379a0000000000000000000000000000000000000000000000000000000008152600401610bc490613dbf565b60405180910390fd5b336003600087815260200190815260200160002054601160039054906101000a900460ff161580610c305750610c01612720565b73ffffffffffffffffffffffffffffffffffffffff168273ffffffffffffffffffffffffffffffffffffffff16145b80610c8b57506000600960008473ffffffffffffffffffffffffffffffffffffffff1673ffffffffffffffffffffffffffffffffffffffff168152602001908152602001600020600083815260200190815260200160002054145b80610cf2575042600e54600960008573ffffffffffffffffffffffffffffffffffffffff1673ffffffffffffffffffffffffffffffffffffffff168152602001908152602001600020600084815260200190815260200160002054610cf0919061401b565b115b610d31576040517f08c379a0000000000000000000000000000000000000000000000000000000008152600401610d2890613cbf565b60405180910390fd5b6000600360008981526020019081526020016000205490506001600560003373ffffffffffffffffffffffffffffffffffffffff1673ffffffffffffffffffffffffffffffffffffffff16815260200190815260200160002060008a815260200190815260200160002060006101000a81548160ff02191690831515021790555042600960003373ffffffffffffffffffffffffffffffffffffffff1673ffffffffffffffffffffffffffffffffffffffff168152602001908152602001600020600083815260200190815260200160002081905550600860008281526020019081526020016000206000815480929190610e2b90614183565b919050555087817f23b2bfc0c368fdbec2cf6a0878f8f7ab7d497f92861fa232c0111ca69f63dc8260405160405180910390a35050505050505050565b600e5481565b60026020528160005260406000208181548110610e8a57600080fd5b90600052602060002001600091509150505481565b80600115156001600083815260200190815260200160002060030160019054906101000a900460ff16151514610f0a576040517f08c379a0000000000000000000000000000000000000000000000000000000008152600401610f0190613e3f565b60405180910390fd5b8160016002811115610f1f57610f1e6141fb565b5b6001600083815260200190815260200160002060030160009054906101000a900460ff166002811115610f5557610f546141fb565b5b14610f95576040517f08c379a0000000000000000000000000000000000000000000000000000000008152600401610f8c90613c9f565b60405180910390fd5b33610f9e612720565b73ffffffffffffffffffffffffffffffffffffffff168173ffffffffffffffffffffffffffffffffffffffff16141580611029575060011515600a60008373ffffffffffffffffffffffffffffffffffffffff1673ffffffffffffffffffffffffffffffffffffffff16815260200190815260200160002060009054906101000a900460ff16151514155b611068576040517f08c379a000000000000000000000000000000000000000000000000000000000815260040161105f90613dbf565b60405180910390fd5b60006001600086815260200190815260200160002060030160006101000a81548160ff021916908360028111156110a2576110a16141fb565b5b02179055507f5a695f43d53bb74f4457f1a60951e2c514c6de79da9a8d8369848853d647cc6a846040516110d69190613e81565b60405180910390a150505050565b6000601160049054906101000a900460ff168015611150575042600f54600760003373ffffffffffffffffffffffffffffffffffffffff1673ffffffffffffffffffffffffffffffffffffffff1681526020019081526020016000206000015461114e919061401b565b105b1561115e5760019050611163565b600090505b90565b600060028081111561117b5761117a6141fb565b5b601160009054906101000a900460ff16600281111561119d5761119c6141fb565b5b14156111de576040517f08c379a00000000000000000000000000000000000000000000000000000000081526004016111d590613ddf565b60405180910390fd5b336111e7612720565b73ffffffffffffffffffffffffffffffffffffffff168173ffffffffffffffffffffffffffffffffffffffff16141580611272575060011515600a60008373ffffffffffffffffffffffffffffffffffffffff1673ffffffffffffffffffffffffffffffffffffffff16815260200190815260200160002060009054906101000a900460ff16151514155b6112b1576040517f08c379a00000000000000000000000000000000000000000000000000000000081526004016112a890613dbf565b60405180910390fd5b33601160049054906101000a900460ff16158061130057506112d1612720565b73ffffffffffffffffffffffffffffffffffffffff168173ffffffffffffffffffffffffffffffffffffffff16145b8061134d57506000600760008373ffffffffffffffffffffffffffffffffffffffff1673ffffffffffffffffffffffffffffffffffffffff16815260200190815260200160002060000154145b806113a6575042600f54600760008473ffffffffffffffffffffffffffffffffffffffff1673ffffffffffffffffffffffffffffffffffffffff168152602001908152602001600020600001546113a4919061401b565b115b6113e5576040517f08c379a00000000000000000000000000000000000000000000000000000000081526004016113dc90613d1f565b60405180910390fd5b86600060028111156113fa576113f96141fb565b5b6001600083815260200190815260200160002060030160009054906101000a900460ff1660028111156114305761142f6141fb565b5b1461143a57600080fd5b6000600281111561144e5761144d6141fb565b5b601160009054906101000a900460ff1660028111156114705761146f6141fb565b5b146114b0576040517f08c379a00000000000000000000000000000000000000000000000000000000081526004016114a790613cff565b60405180910390fd5b6000600d54905060006003600083815260200190815260200160002054146114d757600080fd5b600260008a8152602001908152602001600020819080600181540180825580915050600190039060005260206000200160009091909190915055886003600083815260200190815260200160002081905550604051806040016040528042815260200182815250600760003373ffffffffffffffffffffffffffffffffffffffff1673ffffffffffffffffffffffffffffffffffffffff1681526020019081526020016000206000820151816000015560208201518160010155905050600d60008154809291906115a790614183565b919050555080897f313f81e8cc8fe5ab3d1facaeffd8e0d26068ff1776d23a4621a5bdb0c891c8178a8a8a6040516115e193929190613c53565b60405180910390a380945050505050949350505050565b600081600115156001600083815260200190815260200160002060030160019054906101000a900460ff16151514611665576040517f08c379a000000000000000000000000000000000000000000000000000000000815260040161165c90613e3f565b60405180910390fd5b60016002811115611679576116786141fb565b5b6001600085815260200190815260200160002060030160009054906101000a900460ff1660028111156116af576116ae6141fb565b5b14915050919050565b60006002808111156116cd576116cc6141fb565b5b601160009054906101000a900460ff1660028111156116ef576116ee6141fb565b5b1415611730576040517f08c379a000000000000000000000000000000000000000000000000000000000815260040161172790613ddf565b60405180910390fd5b33601160029054906101000a900460ff16158061177f5750611750612720565b73ffffffffffffffffffffffffffffffffffffffff168173ffffffffffffffffffffffffffffffffffffffff16145b806117cc57506000600660008373ffffffffffffffffffffffffffffffffffffffff1673ffffffffffffffffffffffffffffffffffffffff16815260200190815260200160002060000154145b80611825575042601054600660008473ffffffffffffffffffffffffffffffffffffffff1673ffffffffffffffffffffffffffffffffffffffff16815260200190815260200160002060000154611823919061401b565b115b611864576040517f08c379a000000000000000000000000000000000000000000000000000000000815260040161185b90613e1f565b60405180910390fd5b3361186d612720565b73ffffffffffffffffffffffffffffffffffffffff168173ffffffffffffffffffffffffffffffffffffffff161415806118f8575060011515600a60008373ffffffffffffffffffffffffffffffffffffffff1673ffffffffffffffffffffffffffffffffffffffff16815260200190815260200160002060009054906101000a900460ff16151514155b611937576040517f08c379a000000000000000000000000000000000000000000000000000000000815260040161192e90613dbf565b60405180910390fd5b6000600b5490506040518060a001604052808281526020018781526020018681526020016000600281111561196f5761196e6141fb565b5b815260200160011515815250600160008381526020019081526020016000206000820151816000015560208201518160010190805190602001906119b49291906132ba565b5060408201518160020190805190602001906119d19291906132ba565b5060608201518160030160006101000a81548160ff021916908360028111156119fd576119fc6141fb565b5b021790555060808201518160030160016101000a81548160ff021916908315150217905550905050604051806040016040528042815260200182815250600660003373ffffffffffffffffffffffffffffffffffffffff1673ffffffffffffffffffffffffffffffffffffffff1681526020019081526020016000206000820151816000015560208201518160010155905050336004600083815260200190815260200160002060006101000a81548173ffffffffffffffffffffffffffffffffffffffff021916908373ffffffffffffffffffffffffffffffffffffffff160217905550600b6000815480929190611af590614183565b9190505550600c6000815480929190611b0d90614183565b9190505550807f21579433a032855e20e8afc48e980ddae0b6285e4aa03370f03192be12bea28b8787604051611b44929190613c1c565b60405180910390a280935050505092915050565b80600115156001600083815260200190815260200160002060030160019054906101000a900460ff16151514611bc3576040517f08c379a0000000000000000000000000000000000000000000000000000000008152600401611bba90613e3f565b60405180910390fd5b8160006002811115611bd857611bd76141fb565b5b6001600083815260200190815260200160002060030160009054906101000a900460ff166002811115611c0e57611c0d6141fb565b5b14611c1857600080fd5b60006002811115611c2c57611c2b6141fb565b5b601160009054906101000a900460ff166002811115611c4e57611c4d6141fb565b5b14611c8e576040517f08c379a0000000000000000000000000000000000000000000000000000000008152600401611c8590613cff565b60405180910390fd5b33611c97612720565b73ffffffffffffffffffffffffffffffffffffffff168173ffffffffffffffffffffffffffffffffffffffff16141580611d22575060011515600a60008373ffffffffffffffffffffffffffffffffffffffff1673ffffffffffffffffffffffffffffffffffffffff16815260200190815260200160002060009054906101000a900460ff16151514155b611d61576040517f08c379a0000000000000000000000000000000000000000000000000000000008152600401611d5890613dbf565b60405180910390fd5b600180600086815260200190815260200160002060030160006101000a81548160ff02191690836002811115611d9a57611d996141fb565b5b02179055507feabb282842a353a61f42a3352791a6bf8d0f0b5d6e9cec67e0a0e2c42f387b9b84604051611dce9190613e81565b60405180910390a150505050565b6009602052816000526040600020602052806000526040600020600091509150505481565b611e096131ee565b73ffffffffffffffffffffffffffffffffffffffff16611e27612720565b73ffffffffffffffffffffffffffffffffffffffff1614611e7d576040517f08c379a0000000000000000000000000000000000000000000000000000000008152600401611e7490613d9f565b60405180910390fd5b80601160026101000a81548160ff02191690831515021790555080601160036101000a81548160ff02191690831515021790555080601160046101000a81548160ff02191690831515021790555050565b601160009054906101000a900460ff1681565b611ee9613340565b81600280811115611efd57611efc6141fb565b5b6001600083815260200190815260200160002060030160009054906101000a900460ff166002811115611f3357611f326141fb565b5b1415611f74576040517f08c379a0000000000000000000000000000000000000000000000000000000008152600401611f6b90613d7f565b60405180910390fd5b600160008481526020019081526020016000206040518060a001604052908160008201548152602001600182018054611fac90614120565b80601f0160208091040260200160405190810160405280929190818152602001828054611fd890614120565b80156120255780601f10611ffa57610100808354040283529160200191612025565b820191906000526020600020905b81548152906001019060200180831161200857829003601f168201915b5050505050815260200160028201805461203e90614120565b80601f016020809104026020016040519081016040528092919081815260200182805461206a90614120565b80156120b75780601f1061208c576101008083540402835291602001916120b7565b820191906000526020600020905b81548152906001019060200180831161209a57829003601f168201915b505050505081526020016003820160009054906101000a900460ff1660028111156120e5576120e46141fb565b5b60028111156120f7576120f66141fb565b5b81526020016003820160019054906101000a900460ff161515151581525050915050919050565b600081600115156001600083815260200190815260200160002060030160019054906101000a900460ff1615151461218b576040517f08c379a000000000000000000000000000000000000000000000000000000000815260040161218290613e3f565b60405180910390fd5b6000600281111561219f5761219e6141fb565b5b6001600085815260200190815260200160002060030160009054906101000a900460ff1660028111156121d5576121d46141fb565b5b14915050919050565b80600115156001600083815260200190815260200160002060030160019054906101000a900460ff16151514612249576040517f08c379a000000000000000000000000000000000000000000000000000000000815260040161224090613e3f565b60405180910390fd5b8160028081111561225d5761225c6141fb565b5b6001600083815260200190815260200160002060030160009054906101000a900460ff166002811115612293576122926141fb565b5b146122d3576040517f08c379a00000000000000000000000000000000000000000000000000000000081526004016122ca90613dff565b60405180910390fd5b336122dc612720565b73ffffffffffffffffffffffffffffffffffffffff168173ffffffffffffffffffffffffffffffffffffffff16141580612367575060011515600a60008373ffffffffffffffffffffffffffffffffffffffff1673ffffffffffffffffffffffffffffffffffffffff16815260200190815260200160002060009054906101000a900460ff16151514155b6123a6576040517f08c379a000000000000000000000000000000000000000000000000000000000815260040161239d90613dbf565b60405180910390fd5b600180600086815260200190815260200160002060030160006101000a81548160ff021916908360028111156123df576123de6141fb565b5b02179055507fe23a63f864ee1069bc665aa3ed0b1dccc848ab996543e77baed0f465e8145c60846040516124139190613e81565b60405180910390a150505050565b6124296131ee565b73ffffffffffffffffffffffffffffffffffffffff16612447612720565b73ffffffffffffffffffffffffffffffffffffffff161461249d576040517f08c379a000000000000000000000000000000000000000000000000000000000815260040161249490613d9f565b60405180910390fd5b6124a760006131f6565b565b601160039054906101000a900460ff1681565b60606000600c5467ffffffffffffffff8111156124dc576124db614288565b5b60405190808252806020026020018201604052801561251557816020015b612502613340565b8152602001906001900390816124fa5790505b50905060005b600c548110156126f857600160008281526020019081526020016000206040518060a00160405290816000820154815260200160018201805461255d90614120565b80601f016020809104026020016040519081016040528092919081815260200182805461258990614120565b80156125d65780601f106125ab576101008083540402835291602001916125d6565b820191906000526020600020905b8154815290600101906020018083116125b957829003601f168201915b505050505081526020016002820180546125ef90614120565b80601f016020809104026020016040519081016040528092919081815260200182805461261b90614120565b80156126685780601f1061263d57610100808354040283529160200191612668565b820191906000526020600020905b81548152906001019060200180831161264b57829003601f168201915b505050505081526020016003820160009054906101000a900460ff166002811115612696576126956141fb565b5b60028111156126a8576126a76141fb565b5b81526020016003820160019054906101000a900460ff1615151515815250508282815181106126da576126d9614259565b5b602002602001018190525080806126f090614183565b91505061251b565b508091505090565b600a6020528060005260406000206000915054906101000a900460ff1681565b60008060009054906101000a900473ffffffffffffffffffffffffffffffffffffffff16905090565b6127516131ee565b73ffffffffffffffffffffffffffffffffffffffff1661276f612720565b73ffffffffffffffffffffffffffffffffffffffff16146127c5576040517f08c379a00000000000000000000000000000000000000000000000000000000081526004016127bc90613d9f565b60405180910390fd5b80600a60008473ffffffffffffffffffffffffffffffffffffffff1673ffffffffffffffffffffffffffffffffffffffff16815260200190815260200160002060006101000a81548160ff0219169083151502179055505050565b60036020528060005260406000206000915090505481565b60046020528060005260406000206000915054906101000a900473ffffffffffffffffffffffffffffffffffffffff1681565b60086020528060005260406000206000915090505481565b601160049054906101000a900460ff1681565b60016020528060005260406000206000915090508060000154908060010180546128bf90614120565b80601f01602080910402602001604051908101604052809291908181526020018280546128eb90614120565b80156129385780601f1061290d57610100808354040283529160200191612938565b820191906000526020600020905b81548152906001019060200180831161291b57829003601f168201915b50505050509080600201805461294d90614120565b80601f016020809104026020016040519081016040528092919081815260200182805461297990614120565b80156129c65780601f1061299b576101008083540402835291602001916129c6565b820191906000526020600020905b8154815290600101906020018083116129a957829003601f168201915b5050505050908060030160009054906101000a900460ff16908060030160019054906101000a900460ff16905085565b6129fe6131ee565b73ffffffffffffffffffffffffffffffffffffffff16612a1c612720565b73ffffffffffffffffffffffffffffffffffffffff1614612a72576040517f08c379a0000000000000000000000000000000000000000000000000000000008152600401612a6990613d9f565b60405180910390fd5b8015612aa8576002601160006101000a81548160ff02191690836002811115612a9e57612a9d6141fb565b5b0217905550612ad4565b6000601160006101000a81548160ff02191690836002811115612ace57612acd6141fb565b5b02179055505b50565b600b5481565b600c5481565b612aeb6131ee565b73ffffffffffffffffffffffffffffffffffffffff16612b09612720565b73ffffffffffffffffffffffffffffffffffffffff1614612b5f576040517f08c379a0000000000000000000000000000000000000000000000000000000008152600401612b5690613d9f565b60405180910390fd5b8015612b95576002601160016101000a81548160ff02191690836002811115612b8b57612b8a6141fb565b5b0217905550612bc1565b6000601160016101000a81548160ff02191690836002811115612bbb57612bba6141fb565b5b02179055505b50565b600f5481565b6000601160039054906101000a900460ff168015612c44575042600e54600960003373ffffffffffffffffffffffffffffffffffffffff1673ffffffffffffffffffffffffffffffffffffffff168152602001908152602001600020600085815260200190815260200160002054612c42919061401b565b115b15612c525760019050612c57565b600090505b919050565b600081600115156001600083815260200190815260200160002060030160019054906101000a900460ff16151514612cc9576040517f08c379a0000000000000000000000000000000000000000000000000000000008152600401612cc090613e3f565b60405180910390fd5b600280811115612cdc57612cdb6141fb565b5b6001600085815260200190815260200160002060030160009054906101000a900460ff166002811115612d1257612d116141fb565b5b14915050919050565b606060026000838152602001908152602001600020805480602002602001604051908101604052809291908181526020018280548015612d7a57602002820191906000526020600020905b815481526020019060010190808311612d66575b50505050509050919050565b601160029054906101000a900460ff1681565b60056020528160005260406000206020528060005260406000206000915091509054906101000a900460ff1681565b60076020528060005260406000206000915090508060000154908060010154905082565b600d5481565b60066020528060005260406000206000915090508060000154908060010154905082565b80600115156001600083815260200190815260200160002060030160019054906101000a900460ff16151514612e81576040517f08c379a0000000000000000000000000000000000000000000000000000000008152600401612e7890613e3f565b60405180910390fd5b81600280811115612e9557612e946141fb565b5b6001600083815260200190815260200160002060030160009054906101000a900460ff166002811115612ecb57612eca6141fb565b5b1415612f0c576040517f08c379a0000000000000000000000000000000000000000000000000000000008152600401612f0390613d7f565b60405180910390fd5b33612f15612720565b73ffffffffffffffffffffffffffffffffffffffff168173ffffffffffffffffffffffffffffffffffffffff16141580612fa0575060011515600a60008373ffffffffffffffffffffffffffffffffffffffff1673ffffffffffffffffffffffffffffffffffffffff16815260200190815260200160002060009054906101000a900460ff16151514155b612fdf576040517f08c379a0000000000000000000000000000000000000000000000000000000008152600401612fd690613dbf565b60405180910390fd5b60026001600086815260200190815260200160002060030160006101000a81548160ff02191690836002811115613019576130186141fb565b5b02179055507fa589501e457bda1f31782af099f2695facb8e79d38d121802e6ac1c53237b8418460405161304d9190613e81565b60405180910390a150505050565b6130636131ee565b73ffffffffffffffffffffffffffffffffffffffff16613081612720565b73ffffffffffffffffffffffffffffffffffffffff16146130d7576040517f08c379a00000000000000000000000000000000000000000000000000000000081526004016130ce90613d9f565b60405180910390fd5b600073ffffffffffffffffffffffffffffffffffffffff168173ffffffffffffffffffffffffffffffffffffffff161415613147576040517f08c379a000000000000000000000000000000000000000000000000000000000815260040161313e90613cdf565b60405180910390fd5b613150816131f6565b50565b60105481565b6000601160039054906101000a900460ff1680156131c5575042601054600660003373ffffffffffffffffffffffffffffffffffffffff1673ffffffffffffffffffffffffffffffffffffffff168152602001908152602001600020600001546131c3919061401b565b105b156131d357600190506131d8565b600090505b90565b601160019054906101000a900460ff1681565b600033905090565b60008060009054906101000a900473ffffffffffffffffffffffffffffffffffffffff169050816000806101000a81548173ffffffffffffffffffffffffffffffffffffffff021916908373ffffffffffffffffffffffffffffffffffffffff1602179055508173ffffffffffffffffffffffffffffffffffffffff168173ffffffffffffffffffffffffffffffffffffffff167f8be0079c531659141344cd1fd0a4f28419497f9722a3daafe3b4186f6b6457e060405160405180910390a35050565b8280546132c690614120565b90600052602060002090601f0160209004810192826132e8576000855561332f565b82601f1061330157805160ff191683800117855561332f565b8280016001018555821561332f579182015b8281111561332e578251825591602001919060010190613313565b5b50905061333c9190613383565b5090565b6040518060a0016040528060008152602001606081526020016060815260200160006002811115613374576133736141fb565b5b81526020016000151581525090565b5b8082111561339c576000816000905550600101613384565b5090565b60006133b36133ae84613f4b565b613f26565b9050828152602081018484840111156133cf576133ce6142bc565b5b6133da8482856140de565b509392505050565b6000813590506133f18161465e565b92915050565b60008135905061340681614675565b92915050565b600082601f830112613421576134206142b7565b5b81356134318482602086016133a0565b91505092915050565b6000813590506134498161468c565b92915050565b600060208284031215613465576134646142c6565b5b6000613473848285016133e2565b91505092915050565b60008060408385031215613493576134926142c6565b5b60006134a1858286016133e2565b92505060206134b2858286016133f7565b9150509250929050565b600080604083850312156134d3576134d26142c6565b5b60006134e1858286016133e2565b92505060206134f28582860161343a565b9150509250929050565b600060208284031215613512576135116142c6565b5b6000613520848285016133f7565b91505092915050565b600080604083850312156135405761353f6142c6565b5b600083013567ffffffffffffffff81111561355e5761355d6142c1565b5b61356a8582860161340c565b925050602083013567ffffffffffffffff81111561358b5761358a6142c1565b5b6135978582860161340c565b9150509250929050565b6000602082840312156135b7576135b66142c6565b5b60006135c58482850161343a565b91505092915050565b600080600080608085870312156135e8576135e76142c6565b5b60006135f68782880161343a565b945050602085013567ffffffffffffffff811115613617576136166142c1565b5b6136238782880161340c565b935050604085013567ffffffffffffffff811115613644576136436142c1565b5b6136508782880161340c565b925050606085013567ffffffffffffffff811115613671576136706142c1565b5b61367d8782880161340c565b91505092959194509250565b600080604083850312156136a05761369f6142c6565b5b60006136ae8582860161343a565b92505060206136bf8582860161343a565b9150509250929050565b60006136d58383613a6f565b905092915050565b60006136e98383613b69565b60208301905092915050565b6136fe81614071565b82525050565b600061370f82613f9c565b6137198185613fd7565b93508360208202850161372b85613f7c565b8060005b85811015613767578484038952815161374885826136c9565b945061375383613fbd565b925060208a0199505060018101905061372f565b50829750879550505050505092915050565b600061378482613fa7565b61378e8185613fe8565b935061379983613f8c565b8060005b838110156137ca5781516137b188826136dd565b97506137bc83613fca565b92505060018101905061379d565b5085935050505092915050565b6137e081614083565b82525050565b6137ef81614083565b82525050565b6137fe816140cc565b82525050565b61380d816140cc565b82525050565b600061381e82613fb2565b6138288185613ff9565b93506138388185602086016140ed565b613841816142cb565b840191505092915050565b600061385782613fb2565b613861818561400a565b93506138718185602086016140ed565b61387a816142cb565b840191505092915050565b600061389260138361400a565b915061389d826142dc565b602082019050919050565b60006138b560368361400a565b91506138c082614305565b604082019050919050565b60006138d860268361400a565b91506138e382614354565b604082019050919050565b60006138fb60248361400a565b9150613906826143a3565b604082019050919050565b600061391e60248361400a565b9150613929826143f2565b604082019050919050565b600061394160348361400a565b915061394c82614441565b604082019050919050565b600061396460248361400a565b915061396f82614490565b604082019050919050565b600061398760118361400a565b9150613992826144df565b602082019050919050565b60006139aa60208361400a565b91506139b582614508565b602082019050919050565b60006139cd601d8361400a565b91506139d882614531565b602082019050919050565b60006139f060258361400a565b91506139fb8261455a565b604082019050919050565b6000613a1360148361400a565b9150613a1e826145a9565b602082019050919050565b6000613a3660248361400a565b9150613a41826145d2565b604082019050919050565b6000613a5960148361400a565b9150613a6482614621565b602082019050919050565b600060a083016000830151613a876000860182613b69565b5060208301518482036020860152613a9f8282613813565b91505060408301518482036040860152613ab98282613813565b9150506060830151613ace60608601826137f5565b506080830151613ae160808601826137d7565b508091505092915050565b600060a083016000830151613b046000860182613b69565b5060208301518482036020860152613b1c8282613813565b91505060408301518482036040860152613b368282613813565b9150506060830151613b4b60608601826137f5565b506080830151613b5e60808601826137d7565b508091505092915050565b613b72816140c2565b82525050565b613b81816140c2565b82525050565b6000602082019050613b9c60008301846136f5565b92915050565b60006020820190508181036000830152613bbc8184613704565b905092915050565b60006020820190508181036000830152613bde8184613779565b905092915050565b6000602082019050613bfb60008301846137e6565b92915050565b6000602082019050613c166000830184613804565b92915050565b60006040820190508181036000830152613c36818561384c565b90508181036020830152613c4a818461384c565b90509392505050565b60006060820190508181036000830152613c6d818661384c565b90508181036020830152613c81818561384c565b90508181036040830152613c95818461384c565b9050949350505050565b60006020820190508181036000830152613cb881613885565b9050919050565b60006020820190508181036000830152613cd8816138a8565b9050919050565b60006020820190508181036000830152613cf8816138cb565b9050919050565b60006020820190508181036000830152613d18816138ee565b9050919050565b60006020820190508181036000830152613d3881613911565b9050919050565b60006020820190508181036000830152613d5881613934565b9050919050565b60006020820190508181036000830152613d7881613957565b9050919050565b60006020820190508181036000830152613d988161397a565b9050919050565b60006020820190508181036000830152613db88161399d565b9050919050565b60006020820190508181036000830152613dd8816139c0565b9050919050565b60006020820190508181036000830152613df8816139e3565b9050919050565b60006020820190508181036000830152613e1881613a06565b9050919050565b60006020820190508181036000830152613e3881613a29565b9050919050565b60006020820190508181036000830152613e5881613a4c565b9050919050565b60006020820190508181036000830152613e798184613aec565b905092915050565b6000602082019050613e966000830184613b78565b92915050565b600060a082019050613eb16000830188613b78565b8181036020830152613ec3818761384c565b90508181036040830152613ed7818661384c565b9050613ee66060830185613804565b613ef360808301846137e6565b9695505050505050565b6000604082019050613f126000830185613b78565b613f1f6020830184613b78565b9392505050565b6000613f30613f41565b9050613f3c8282614152565b919050565b6000604051905090565b600067ffffffffffffffff821115613f6657613f65614288565b5b613f6f826142cb565b9050602081019050919050565b6000819050602082019050919050565b6000819050602082019050919050565b600081519050919050565b600081519050919050565b600081519050919050565b6000602082019050919050565b6000602082019050919050565b600082825260208201905092915050565b600082825260208201905092915050565b600082825260208201905092915050565b600082825260208201905092915050565b6000614026826140c2565b9150614031836140c2565b9250827fffffffffffffffffffffffffffffffffffffffffffffffffffffffffffffffff03821115614066576140656141cc565b5b828201905092915050565b600061407c826140a2565b9050919050565b60008115159050919050565b600081905061409d8261464a565b919050565b600073ffffffffffffffffffffffffffffffffffffffff82169050919050565b6000819050919050565b60006140d78261408f565b9050919050565b82818337600083830152505050565b60005b8381101561410b5780820151818401526020810190506140f0565b8381111561411a576000848401525b50505050565b6000600282049050600182168061413857607f821691505b6020821081141561414c5761414b61422a565b5b50919050565b61415b826142cb565b810181811067ffffffffffffffff8211171561417a57614179614288565b5b80604052505050565b600061418e826140c2565b91507fffffffffffffffffffffffffffffffffffffffffffffffffffffffffffffffff8214156141c1576141c06141cc565b5b600182019050919050565b7f4e487b7100000000000000000000000000000000000000000000000000000000600052601160045260246000fd5b7f4e487b7100000000000000000000000000000000000000000000000000000000600052602160045260246000fd5b7f4e487b7100000000000000000000000000000000000000000000000000000000600052602260045260246000fd5b7f4e487b7100000000000000000000000000000000000000000000000000000000600052603260045260246000fd5b7f4e487b7100000000000000000000000000000000000000000000000000000000600052604160045260246000fd5b600080fd5b600080fd5b600080fd5b600080fd5b6000601f19601f8301169050919050565b7f547261636b206973206e6f7420636c6f73656400000000000000000000000000600082015250565b7f557365722069732063757272656e746c7920696e20766f74696e6720636f6f6c60008201527f646f776e20706572696f6420666f7220747261636b2e00000000000000000000602082015250565b7f4f776e61626c653a206e6577206f776e657220697320746865207a65726f206160008201527f6464726573730000000000000000000000000000000000000000000000000000602082015250565b7f416c6c20747261636b732068617665206265656e20636c6f736564206279206160008201527f646d696e00000000000000000000000000000000000000000000000000000000602082015250565b7f557365722069732063757272656e746c7920696e20656e74727920636f6f6c6460008201527f6f776e2e00000000000000000000000000000000000000000000000000000000602082015250565b7f55736572732063616e6e6f7420766f746520666f72207468652073616d65206560008201527f6e747279206d756c7469706c652074696d65732e000000000000000000000000602082015250565b7f416c6c20766f74696e6720686173206265656e20626c6f636b6564206279206160008201527f646d696e00000000000000000000000000000000000000000000000000000000602082015250565b7f547261636b20697320626c6f636b65642e000000000000000000000000000000600082015250565b7f4f776e61626c653a2063616c6c6572206973206e6f7420746865206f776e6572600082015250565b7f5573657220686173206265656e2062616e6e65642062792061646d696e000000600082015250565b7f416c6c20747261636b732068617665206265656e20626c6f636b65642062792060008201527f61646d696e000000000000000000000000000000000000000000000000000000602082015250565b7f547261636b206973206e6f7420626c6f636b6564000000000000000000000000600082015250565b7f557365722069732063757272656e746c7920696e20747261636b20636f6f6c6460008201527f6f776e2e00000000000000000000000000000000000000000000000000000000602082015250565b7f547261636b20646f6573206e6f74206578697374000000000000000000000000600082015250565b6003811061465b5761465a6141fb565b5b50565b61466781614071565b811461467257600080fd5b50565b61467e81614083565b811461468957600080fd5b50565b614695816140c2565b81146146a057600080fd5b5056fea26469706673582212201f0024bdbf248259702ec15872c5c19f5c09fdd6fd2e98489486edccc847fa9064736f6c63430008070033",
  "immutableReferences": {},
  "source": "// SPDX-License-Identifier: MIT\r\npragma solidity ^0.8.0;\r\nimport \"@openzeppelin/contracts/access/Ownable.sol\";\r\n\r\n\r\ncontract Tracks is Ownable {\r\n  mapping (uint => Track) public tracks;\r\n  mapping (uint => uint[]) public trackEntries; //trackId => entryId[]\r\n  mapping (uint => uint) public entriesTrack; //entryId => trackId\r\n  mapping (uint => address) public trackOwners; //trackId => address\r\n  mapping (address => mapping (uint => bool)) public votesByAddress; //address => (entryId => bool)\r\n  mapping (address => TrackEvent) public trackEventsByUser; //address => TrackEvent\r\n  mapping (address => EntryEvent) public entryEventsByUser; //address => EntryEvent\r\n  mapping (uint => uint) public votesByTrack; //trackId => vote count\r\n  mapping (address => mapping(uint => uint)) public lastVoteTime; //address => trackId => time(s)\r\n  mapping(address => bool) public bannedUsers;\r\n\r\n  uint public nextTrackId;\r\n  uint public trackCount;\r\n  uint public nextEntryId;\r\n  uint public voteCooldownPeriod;\r\n  uint public entryEventCooldownPeriod;\r\n  uint public trackEventCooldownPeriod;\r\n  State public allTracksState;\r\n  State public allVotesState;\r\n  bool public trackCreationCooldownEnabled;\r\n  bool public votingCooldownEnabled;\r\n  bool public entryCreationCooldownEnabled;\r\n  \r\n  \r\n\tstruct EntryEvent {\r\n\t    uint time;\r\n\t    uint eventId;\r\n\t}\r\n\t\r\n\tstruct TrackEvent {\r\n\t    uint time;\r\n\t    uint trackId;\r\n\t}\r\n\t\r\n  enum State {\r\n      Open,\r\n      Closed,\r\n      Blocked\r\n  }\r\n  struct Track {\r\n      uint  trackId;\r\n      string  name;\r\n      string  desc;\r\n      State state;\r\n      bool exists;\r\n  }\r\n\r\n  event TrackOpened(uint trackId);\r\n  event TrackClosed(uint trackId);\r\n  event TrackBlocked(uint trackId);\r\n  event TrackUnblocked(uint trackId);\r\n  event TrackCreated(uint indexed trackId, string name, string desc);\r\n  event EntryCreated(uint indexed trackId, uint indexed entryId, string name, string desc, string location);\r\n  event EntryVotedFor(uint indexed trackId, uint indexed entryId);\r\n\r\n\r\n  /**\r\n   * @dev XXX\r\n   * @param _trackId The id of the track\r\n   */\r\n\tmodifier checkTrackOpen(uint _trackId) {\r\n\t\trequire(tracks[_trackId].state == State.Open);\r\n\t\trequire(allTracksState == State.Open, \"All tracks have been closed by admin\");\r\n    _;\r\n  }\r\n  \r\n\t/**\r\n   * @dev XXX\r\n   * @param _trackId The id of the track\r\n   */\r\n\tmodifier checkTrackClosed(uint _trackId) {\r\n\t\trequire(tracks[_trackId].state == State.Closed, \"Track is not closed\");\r\n    _;\r\n  }\r\n  \r\n  /**\r\n   * @dev XXX\r\n   * @param _trackId The id of the track\r\n   */\r\n\tmodifier checkTrackBlocked(uint _trackId) {\r\n\t\trequire(tracks[_trackId].state == State.Blocked, \"Track is not blocked\");\r\n    _;\r\n  }\r\n  \r\n  /**\r\n   * @dev XXX\r\n   */\r\n\tmodifier checkTracksNotBlockedByAdmin() {\r\n\t\trequire(allTracksState != State.Blocked, \"All tracks have been blocked by admin\");\r\n    _;\r\n  }\r\n  \r\n  \r\n  /**\r\n   * @dev XXX\r\n   */\r\n\tmodifier checkVotingNotBlockedByAdmin() {\r\n\t\trequire(allVotesState != State.Blocked, \"All voting has been blocked by admin\");\r\n    _;\r\n  }\r\n  \r\n  \r\n  /**\r\n   * @dev XXX\r\n   * @param _trackId The id of the track\r\n   */\r\n\tmodifier checkTrackUnblocked(uint _trackId) {\r\n\t\trequire(tracks[_trackId].state != State.Blocked, \"Track is blocked.\");\r\n    _;\r\n  }\r\n  \r\n  /**\r\n   * @dev XXX\r\n   * @param _trackId The id of the track\r\n   */\r\n\tmodifier checkTrackExists(uint _trackId) {\r\n\t\t\trequire(tracks[_trackId].exists == true, \"Track does not exist\");\r\n\t    _;\r\n\t  }\r\n\r\n\tmodifier isUserBanned(address addr){\r\n\t\t\trequire(\r\n\t\t\t    addr != owner()\r\n\t\t\t    || bannedUsers[addr] != true,\r\n\t\t\t    \"User has been banned by admin\"\r\n\t\t\t);\r\n\t    _;\r\n\t}\r\n\r\n\tmodifier hasNotVotedForEntry(address addr, uint _entryId){\r\n\t    require(\r\n\t        addr == owner()\r\n\t        || votesByAddress[addr][_entryId] == false,\r\n\t        \"Users cannot vote for the same entry multiple times.\"\r\n\t    );\r\n\t    _;\r\n\t}\r\n\t\r\n\tmodifier isNotInVotingCooldown(address addr, uint trackId){\r\n\t    require(\r\n\t        !votingCooldownEnabled\r\n          || addr == owner()\r\n\t        || lastVoteTime[addr][trackId] == 0 \r\n\t        || lastVoteTime[addr][trackId] + voteCooldownPeriod > block.timestamp,\r\n\t        \"User is currently in voting cooldown period for track.\"\r\n\t    );\r\n\t    _;\r\n\t}\r\n\r\n\tmodifier isNotInTrackCreationCooldown(address addr){\r\n\t    require(\r\n\t        !trackCreationCooldownEnabled\r\n          || addr == owner()\r\n\t        || trackEventsByUser[addr].time == 0\r\n          || (trackEventsByUser[addr].time + trackEventCooldownPeriod) > block.timestamp,\r\n\t       \"User is currently in track cooldown.\"\r\n\t     );\r\n\t    _;\r\n\t}\r\n\t\r\n\tmodifier isNotInEntryCreationCooldown(address addr){\r\n\t    require(\r\n\t        !entryCreationCooldownEnabled\r\n\t        || addr == owner()\r\n\t        || entryEventsByUser[addr].time == 0\r\n\t        || (entryEventsByUser[addr].time + entryEventCooldownPeriod) > block.timestamp,\r\n\t        \"User is currently in entry cooldown.\"\r\n\t    );\r\n\t    _;\r\n\t}\r\n\t\r\n\t/**\r\n   * @dev XXX\r\n   */\r\n  constructor () {\r\n      voteCooldownPeriod = 1 minutes;\r\n      entryEventCooldownPeriod = 1 minutes;\r\n      trackEventCooldownPeriod = 1 minutes;\r\n      allTracksState = State.Open;\r\n      allVotesState = State.Open;\r\n      uint trackId = addTrack(\"first_track\", \"This is the first track\");\r\n      addEntry(trackId, \"name\", \"description\", \"location\");\r\n      enableCooldowns(true);\r\n  }\r\n\r\n\t/**\r\n   * @dev XXX\r\n   */\r\n  function getTracks() public view returns ( Track[] memory) {\r\n      Track[] memory _tracks = new Track[](trackCount);\r\n      for (uint i=0; i<trackCount; i++) {\r\n          _tracks[i] = tracks[i];\r\n      }\r\n      return _tracks;\r\n  }\r\n\r\n  /**\r\n   * @dev XXX\r\n   * @param _trackId The id of the track\r\n   */\r\n  function getTrack(uint _trackId) public view checkTrackUnblocked(_trackId) returns (Track memory) {\r\n      return tracks[_trackId];\r\n  }\r\n\t\r\n\r\n  /**\r\n   * @dev XXX\r\n   * @param _trackId The id of the track\r\n   */\r\n  function getEntriesForTrack(uint _trackId) public view returns (uint[] memory){\r\n      return trackEntries[_trackId];\r\n  }\r\n\r\n\t/**\r\n   * @dev XXX\r\n   * @param _trackId The id of the track\r\n   */\r\n  function openTrack(uint _trackId) public checkTrackExists(_trackId) checkTrackClosed(_trackId) isUserBanned(msg.sender){\r\n      tracks[_trackId].state = State.Open;\r\n      emit TrackOpened(_trackId);\r\n  }\r\n\r\n\t/**\r\n   * @dev XXX\r\n   * @param _trackId The id of the track\r\n   */\r\n\tfunction closeTrack(uint _trackId) public checkTrackExists(_trackId) checkTrackOpen(_trackId) isUserBanned(msg.sender){\r\n      tracks[_trackId].state = State.Closed;\r\n      emit TrackClosed(_trackId);\r\n  }\r\n\r\n\t/**\r\n   * @dev XXX\r\n   * @param _trackId The id of the track\r\n   */\r\n\tfunction blockTrack(uint _trackId) public checkTrackExists(_trackId) checkTrackUnblocked(_trackId) isUserBanned(msg.sender){\r\n      tracks[_trackId].state = State.Blocked;\r\n      emit TrackBlocked(_trackId);\r\n  }\r\n\r\n  /**\r\n   * @dev XXX\r\n   * @param _trackId The id of the track\r\n   */\r\n  function unblockTrack(uint _trackId) public checkTrackExists(_trackId) checkTrackBlocked(_trackId) isUserBanned(msg.sender) {\r\n      tracks[_trackId].state = State.Closed;\r\n      emit TrackUnblocked(_trackId);\r\n  }\r\n\r\n\t/**\r\n   * @dev XXX\r\n   * @param _trackId The id of the track\r\n   */\r\n  function isTrackOpen(uint _trackId) public view checkTrackExists(_trackId) returns (bool){\r\n      return (tracks[_trackId].state == State.Open);\r\n  }\r\n  /**\r\n   * @dev XXX\r\n   * @param _trackId The id of the track\r\n   */\r\n  function isTrackClosed(uint _trackId) public view checkTrackExists(_trackId) returns (bool){\r\n      return (tracks[_trackId].state == State.Closed);\r\n  }\r\n  /**\r\n   * @dev XXX\r\n   * @param _trackId The id of the track\r\n   */\r\n  function isTrackBlocked(uint _trackId) public view checkTrackExists(_trackId) returns (bool){\r\n      return (tracks[_trackId].state == State.Blocked);\r\n  }\r\n\r\n\t/**\r\n   * @dev XXX\r\n   * @param _entryId The id of the entry\r\n   */\r\n  function vote(uint _entryId) public checkTrackOpen(entriesTrack[_entryId]) hasNotVotedForEntry(msg.sender, _entryId) checkVotingNotBlockedByAdmin isUserBanned(msg.sender) isNotInVotingCooldown(msg.sender, entriesTrack[_entryId]) {\r\n    uint _trackId = entriesTrack[_entryId];\r\n    votesByAddress[msg.sender][_entryId] = true;\r\n    lastVoteTime[msg.sender][_trackId] = block.timestamp;\r\n    votesByTrack[_trackId]++;\r\n    emit EntryVotedFor(_trackId, _entryId);\r\n  }\r\n\r\n  /**\r\n   * @dev XXX\r\n   * @param _trackId The id of the track\r\n   */\r\n  function addEntry(uint _trackId, string memory _name, string memory _desc, string memory _location) public checkTracksNotBlockedByAdmin isUserBanned(msg.sender) isNotInEntryCreationCooldown(msg.sender)  checkTrackOpen(_trackId) returns (uint) {\r\n    uint entryId = nextEntryId;\r\n    require(entriesTrack[entryId] == 0);\r\n    trackEntries[_trackId].push(entryId);\r\n    entriesTrack[entryId] = _trackId;\r\n    entryEventsByUser[msg.sender] = EntryEvent(block.timestamp, entryId);\r\n    nextEntryId++;\r\n    emit EntryCreated(_trackId, entryId, _name, _desc, _location);\r\n    return entryId;\r\n  }\r\n\r\n\t/**\r\n   * @dev XXX\r\n   * @param _name XXX\r\n   * @param _desc XXX\r\n   */\r\n  function addTrack(string memory _name, string memory _desc) public checkTracksNotBlockedByAdmin isNotInTrackCreationCooldown(msg.sender) isUserBanned(msg.sender) returns (uint) {\r\n    uint trackId = nextTrackId;\r\n    tracks[trackId] = Track({\r\n      trackId: trackId,\r\n      name: _name,\r\n      desc: _desc,\r\n      state: State.Open,\r\n      exists: true\r\n    });\r\n    trackEventsByUser[msg.sender] = TrackEvent(block.timestamp, trackId);\r\n    trackOwners[trackId] = msg.sender;\r\n    nextTrackId++;\r\n    trackCount++;\r\n    emit TrackCreated(trackId, _name, _desc);\r\n    return trackId;\r\n   }\r\n   \r\n   function disableAllTracks(bool enable) public onlyOwner {\r\n       if (enable) {\r\n           allTracksState = State.Blocked;   \r\n       } else {\r\n           allTracksState = State.Open;   \r\n       }\r\n\t}\r\n   \r\n   function disableAllVoting(bool enable) public onlyOwner {\r\n       if (enable) {\r\n           allVotesState = State.Blocked;   \r\n       } else {\r\n           allVotesState = State.Open;   \r\n       }\r\n\t}\r\n   \r\n function banUser(address addr, bool banned) public onlyOwner {\r\n \t\tbannedUsers[addr] = banned;   \r\n\t}\r\n   \r\n  function isSenderInTrackCreationCooldown() public view returns (bool) {\r\n      if (votingCooldownEnabled\r\n\t        && ((trackEventsByUser[msg.sender].time + trackEventCooldownPeriod) < block.timestamp)){\r\n\t            return true;\r\n\t   \t}\r\n\t   \treturn false;\r\n\t}\r\n\t\r\n\tfunction isSenderInEntryCreationCooldown() public view returns (bool) {\r\n      if (entryCreationCooldownEnabled\r\n\t        && ((entryEventsByUser[msg.sender].time + entryEventCooldownPeriod) < block.timestamp)){\r\n\t            return true;\r\n\t   \t}\r\n\t   \treturn false;\r\n\t}\r\n\t\r\n\tfunction isSenderInVotingCooldown(uint trackId) public view returns (bool) {\r\n      if (votingCooldownEnabled\r\n\t        && ((lastVoteTime[msg.sender][trackId] + voteCooldownPeriod) > block.timestamp)){\r\n\t            return true;\r\n\t   \t}\r\n\t   \treturn false;\r\n\t}\r\n\t\r\n   function enableCooldowns(bool enable) public onlyOwner {\r\n    trackCreationCooldownEnabled = enable;\r\n    votingCooldownEnabled = enable;\r\n    entryCreationCooldownEnabled = enable;\r\n  }\r\n}\r\n\r\n\r\n\t",
  "sourcePath": "D:\\projects\\blockchain-developer-bootcamp-final-project\\tracks\\contracts\\Tracks.sol",
  "compiler": {
    "name": "solc",
    "version": "0.8.7+commit.e28d00a7.Emscripten.clang"
  },
  "schemaVersion": "3.4.3",
  "updatedAt": "2021-10-12T07:40:04.456Z",
  "devdoc": {
    "kind": "dev",
    "methods": {
      "addEntry(uint256,string,string,string)": {
        "details": "XXX",
        "params": {
          "_trackId": "The id of the track"
        }
      },
      "addTrack(string,string)": {
        "details": "XXX",
        "params": {
          "_desc": "XXX",
          "_name": "XXX"
        }
      },
      "blockTrack(uint256)": {
        "details": "XXX",
        "params": {
          "_trackId": "The id of the track"
        }
      },
      "closeTrack(uint256)": {
        "details": "XXX",
        "params": {
          "_trackId": "The id of the track"
        }
      },
      "constructor": {
        "details": "XXX"
      },
      "getEntriesForTrack(uint256)": {
        "details": "XXX",
        "params": {
          "_trackId": "The id of the track"
        }
      },
      "getTrack(uint256)": {
        "details": "XXX",
        "params": {
          "_trackId": "The id of the track"
        }
      },
      "getTracks()": {
        "details": "XXX"
      },
      "isTrackBlocked(uint256)": {
        "details": "XXX",
        "params": {
          "_trackId": "The id of the track"
        }
      },
      "isTrackClosed(uint256)": {
        "details": "XXX",
        "params": {
          "_trackId": "The id of the track"
        }
      },
      "isTrackOpen(uint256)": {
        "details": "XXX",
        "params": {
          "_trackId": "The id of the track"
        }
      },
      "openTrack(uint256)": {
        "details": "XXX",
        "params": {
          "_trackId": "The id of the track"
        }
      },
      "owner()": {
        "details": "Returns the address of the current owner."
      },
      "renounceOwnership()": {
        "details": "Leaves the contract without owner. It will not be possible to call `onlyOwner` functions anymore. Can only be called by the current owner. NOTE: Renouncing ownership will leave the contract without an owner, thereby removing any functionality that is only available to the owner."
      },
      "transferOwnership(address)": {
        "details": "Transfers ownership of the contract to a new account (`newOwner`). Can only be called by the current owner."
      },
      "unblockTrack(uint256)": {
        "details": "XXX",
        "params": {
          "_trackId": "The id of the track"
        }
      },
      "vote(uint256)": {
        "details": "XXX",
        "params": {
          "_entryId": "The id of the entry"
        }
      }
    },
    "version": 1
  },
  "userdoc": {
    "kind": "user",
    "methods": {},
    "version": 1
  }
}