{
  "contractName": "Tracks",
  "abi": [
    {
      "inputs": [],
      "stateMutability": "nonpayable",
      "type": "constructor"
    },
    {
      "anonymous": false,
      "inputs": [
        {
          "indexed": false,
          "internalType": "string",
          "name": "trackid",
          "type": "string"
        },
        {
          "indexed": false,
          "internalType": "string",
          "name": "entryid",
          "type": "string"
        },
        {
          "indexed": false,
          "internalType": "string",
          "name": "location",
          "type": "string"
        }
      ],
      "name": "EntryLeader",
      "type": "event"
    },
    {
      "anonymous": false,
      "inputs": [
        {
          "indexed": false,
          "internalType": "string",
          "name": "trackid",
          "type": "string"
        },
        {
          "indexed": false,
          "internalType": "string",
          "name": "entryid",
          "type": "string"
        },
        {
          "indexed": false,
          "internalType": "string",
          "name": "location",
          "type": "string"
        }
      ],
      "name": "EntryNominated",
      "type": "event"
    },
    {
      "anonymous": false,
      "inputs": [],
      "name": "TrackClosed",
      "type": "event"
    },
    {
      "anonymous": false,
      "inputs": [],
      "name": "TrackSealed",
      "type": "event"
    },
    {
      "inputs": [
        {
          "internalType": "string",
          "name": "",
          "type": "string"
        }
      ],
      "name": "tracks",
      "outputs": [
        {
          "internalType": "string",
          "name": "name",
          "type": "string"
        },
        {
          "internalType": "string",
          "name": "description",
          "type": "string"
        },
        {
          "internalType": "string",
          "name": "id",
          "type": "string"
        },
        {
          "internalType": "enum Tracks.State",
          "name": "state",
          "type": "uint8"
        }
      ],
      "stateMutability": "view",
      "type": "function"
    },
    {
      "inputs": [
        {
          "internalType": "string",
          "name": "",
          "type": "string"
        }
      ],
      "name": "votes",
      "outputs": [
        {
          "internalType": "uint256",
          "name": "",
          "type": "uint256"
        }
      ],
      "stateMutability": "view",
      "type": "function"
    },
    {
      "inputs": [
        {
          "internalType": "string",
          "name": "_id",
          "type": "string"
        }
      ],
      "name": "getEntryVotes",
      "outputs": [
        {
          "internalType": "uint256",
          "name": "",
          "type": "uint256"
        }
      ],
      "stateMutability": "view",
      "type": "function"
    },
    {
      "inputs": [],
      "name": "close",
      "outputs": [],
      "stateMutability": "nonpayable",
      "type": "function"
    },
    {
      "inputs": [],
      "name": "vote",
      "outputs": [],
      "stateMutability": "nonpayable",
      "type": "function"
    }
  ],
  "bytecode": "0x608060405234801561001057600080fd5b50610762806100206000396000f3fe608060405234801561001057600080fd5b50600436106100575760003560e01c8063083e928c1461005c57806343d726d61461008f578063632a9a52146100995780639f755d6c146100a3578063b99ef1fa146100d3575b600080fd5b610076600480360381019061007191906103b8565b610103565b60405161008694939291906104a0565b60405180910390f35b6100976102ee565b005b6100a16102f0565b005b6100bd60048036038101906100b891906103b8565b6102f2565b6040516100ca91906104fa565b60405180910390f35b6100ed60048036038101906100e891906103b8565b61031a565b6040516100fa91906104fa565b60405180910390f35b60008180516020810182018051848252602083016020850120818352809550505050505060009150905080600001805461013c90610603565b80601f016020809104026020016040519081016040528092919081815260200182805461016890610603565b80156101b55780601f1061018a576101008083540402835291602001916101b5565b820191906000526020600020905b81548152906001019060200180831161019857829003601f168201915b5050505050908060010180546101ca90610603565b80601f01602080910402602001604051908101604052809291908181526020018280546101f690610603565b80156102435780601f1061021857610100808354040283529160200191610243565b820191906000526020600020905b81548152906001019060200180831161022657829003601f168201915b50505050509080600201805461025890610603565b80601f016020809104026020016040519081016040528092919081815260200182805461028490610603565b80156102d15780601f106102a6576101008083540402835291602001916102d1565b820191906000526020600020905b8154815290600101906020018083116102b457829003601f168201915b5050505050908060030160009054906101000a900460ff16905084565b565b565b60006001826040516103049190610489565b9081526020016040518091039020549050919050565b6001818051602081018201805184825260208301602085012081835280955050505050506000915090505481565b600061035b6103568461053a565b610515565b905082815260208101848484011115610377576103766106f8565b5b6103828482856105c1565b509392505050565b600082601f83011261039f5761039e6106f3565b5b81356103af848260208601610348565b91505092915050565b6000602082840312156103ce576103cd610702565b5b600082013567ffffffffffffffff8111156103ec576103eb6106fd565b5b6103f88482850161038a565b91505092915050565b61040a816105af565b82525050565b600061041b8261056b565b6104258185610576565b93506104358185602086016105d0565b61043e81610707565b840191505092915050565b60006104548261056b565b61045e8185610587565b935061046e8185602086016105d0565b80840191505092915050565b610483816105a5565b82525050565b60006104958284610449565b915081905092915050565b600060808201905081810360008301526104ba8187610410565b905081810360208301526104ce8186610410565b905081810360408301526104e28185610410565b90506104f16060830184610401565b95945050505050565b600060208201905061050f600083018461047a565b92915050565b600061051f610530565b905061052b8282610635565b919050565b6000604051905090565b600067ffffffffffffffff821115610555576105546106c4565b5b61055e82610707565b9050602081019050919050565b600081519050919050565b600082825260208201905092915050565b600081905092915050565b60008190506105a082610718565b919050565b6000819050919050565b60006105ba82610592565b9050919050565b82818337600083830152505050565b60005b838110156105ee5780820151818401526020810190506105d3565b838111156105fd576000848401525b50505050565b6000600282049050600182168061061b57607f821691505b6020821081141561062f5761062e610695565b5b50919050565b61063e82610707565b810181811067ffffffffffffffff8211171561065d5761065c6106c4565b5b80604052505050565b7f4e487b7100000000000000000000000000000000000000000000000000000000600052602160045260246000fd5b7f4e487b7100000000000000000000000000000000000000000000000000000000600052602260045260246000fd5b7f4e487b7100000000000000000000000000000000000000000000000000000000600052604160045260246000fd5b600080fd5b600080fd5b600080fd5b600080fd5b6000601f19601f8301169050919050565b6002811061072957610728610666565b5b5056fea264697066735822122083b3b5296987e25cecb989e59f3004c1aa4564ff320fbb1e4f391df49f32518864736f6c63430008070033",
  "immutableReferences": {},
  "source": "// SPDX-License-Identifier: MIT\npragma solidity ^0.8.0;\n\ncontract Tracks {\n    mapping (string  => Track) public tracks;\n    mapping (string  => uint) public votes;\n\n    enum State {\n        TrackNominating,\n        TrackSealed\n    }\n\n    struct Track {\n        string  name;\n        string  description;\n        string  id;\n        State state;\n    }\n\n    struct Entry {\n        string  location;\n        string  id;\n        string  track_id;\n        string  previous_id;\n        address owner;\n        uint votes;\n    }\n\n    event EntryNominated(string trackid, string entryid, string location);\n    event EntryLeader(string trackid, string entryid, string location);\n    event TrackSealed();\n    event TrackClosed();\n\n    /**\n     * @dev Check if the address is the owner of the entry\n     * @param _entryid The id of the entry to check\n     * @param _addr The address to check against the owner\n     */\n    modifier isEntryOwner(string  memory _entryid, address _addr) {\n        _;\n    }\n\n    modifier isEntryVoter(string  memory _entryid, address _addr) {\n        _;\n    }\n\n    modifier isTrackOwner(string  memory _trackid, address _addr) {\n        _;\n    }\n\n    constructor () {\n    }\n\n    function getEntryVotes(string memory  _id) public view returns (uint){\n        return votes[_id];\n    }\n\n    function close() public {\n    }\n\n    function vote() public {\n    }\n}\n\n\n",
  "sourcePath": "D:\\projects\\blockchain-developer-bootcamp-final-project\\tracks\\contracts\\Tracks.sol",
  "compiler": {
    "name": "solc",
    "version": "0.8.7+commit.e28d00a7.Emscripten.clang"
  },
  "schemaVersion": "3.4.3",
  "updatedAt": "2021-09-27T09:49:19.423Z",
  "devdoc": {
    "kind": "dev",
    "methods": {},
    "version": 1
  },
  "userdoc": {
    "kind": "user",
    "methods": {},
    "version": 1
  }
}