{
  "contractName": "Tracks",
  "abi": [
    {
      "inputs": [],
      "stateMutability": "nonpayable",
      "type": "constructor"
    },
    {
      "anonymous": false,
      "inputs": [
        {
          "indexed": true,
          "internalType": "uint256",
          "name": "trackId",
          "type": "uint256"
        },
        {
          "indexed": true,
          "internalType": "uint256",
          "name": "entryId",
          "type": "uint256"
        },
        {
          "indexed": false,
          "internalType": "string",
          "name": "name",
          "type": "string"
        },
        {
          "indexed": false,
          "internalType": "string",
          "name": "desc",
          "type": "string"
        },
        {
          "indexed": false,
          "internalType": "string",
          "name": "location",
          "type": "string"
        }
      ],
      "name": "EntryCreated",
      "type": "event"
    },
    {
      "anonymous": false,
      "inputs": [
        {
          "indexed": true,
          "internalType": "uint256",
          "name": "trackId",
          "type": "uint256"
        },
        {
          "indexed": true,
          "internalType": "uint256",
          "name": "entryId",
          "type": "uint256"
        }
      ],
      "name": "EntryVotedFor",
      "type": "event"
    },
    {
      "anonymous": false,
      "inputs": [
        {
          "indexed": false,
          "internalType": "uint256",
          "name": "trackId",
          "type": "uint256"
        }
      ],
      "name": "TrackBlocked",
      "type": "event"
    },
    {
      "anonymous": false,
      "inputs": [
        {
          "indexed": false,
          "internalType": "uint256",
          "name": "trackId",
          "type": "uint256"
        }
      ],
      "name": "TrackClosed",
      "type": "event"
    },
    {
      "anonymous": false,
      "inputs": [
        {
          "indexed": true,
          "internalType": "uint256",
          "name": "trackId",
          "type": "uint256"
        },
        {
          "indexed": false,
          "internalType": "string",
          "name": "name",
          "type": "string"
        },
        {
          "indexed": false,
          "internalType": "string",
          "name": "desc",
          "type": "string"
        }
      ],
      "name": "TrackCreated",
      "type": "event"
    },
    {
      "anonymous": false,
      "inputs": [
        {
          "indexed": false,
          "internalType": "uint256",
          "name": "trackId",
          "type": "uint256"
        }
      ],
      "name": "TrackOpened",
      "type": "event"
    },
    {
      "anonymous": false,
      "inputs": [
        {
          "indexed": false,
          "internalType": "uint256",
          "name": "trackId",
          "type": "uint256"
        }
      ],
      "name": "TrackUnblocked",
      "type": "event"
    },
    {
      "inputs": [
        {
          "internalType": "uint256",
          "name": "",
          "type": "uint256"
        }
      ],
      "name": "entriesTrack",
      "outputs": [
        {
          "internalType": "uint256",
          "name": "",
          "type": "uint256"
        }
      ],
      "stateMutability": "view",
      "type": "function"
    },
    {
      "inputs": [],
      "name": "nextEntryId",
      "outputs": [
        {
          "internalType": "uint256",
          "name": "",
          "type": "uint256"
        }
      ],
      "stateMutability": "view",
      "type": "function"
    },
    {
      "inputs": [],
      "name": "nextTrackId",
      "outputs": [
        {
          "internalType": "uint256",
          "name": "",
          "type": "uint256"
        }
      ],
      "stateMutability": "view",
      "type": "function"
    },
    {
      "inputs": [],
      "name": "trackCount",
      "outputs": [
        {
          "internalType": "uint256",
          "name": "",
          "type": "uint256"
        }
      ],
      "stateMutability": "view",
      "type": "function"
    },
    {
      "inputs": [
        {
          "internalType": "uint256",
          "name": "",
          "type": "uint256"
        },
        {
          "internalType": "uint256",
          "name": "",
          "type": "uint256"
        }
      ],
      "name": "trackEntries",
      "outputs": [
        {
          "internalType": "uint256",
          "name": "",
          "type": "uint256"
        }
      ],
      "stateMutability": "view",
      "type": "function"
    },
    {
      "inputs": [
        {
          "internalType": "uint256",
          "name": "",
          "type": "uint256"
        }
      ],
      "name": "tracks",
      "outputs": [
        {
          "internalType": "uint256",
          "name": "trackId",
          "type": "uint256"
        },
        {
          "internalType": "string",
          "name": "name",
          "type": "string"
        },
        {
          "internalType": "string",
          "name": "desc",
          "type": "string"
        },
        {
          "internalType": "enum Tracks.State",
          "name": "state",
          "type": "uint8"
        },
        {
          "internalType": "bool",
          "name": "exists",
          "type": "bool"
        }
      ],
      "stateMutability": "view",
      "type": "function"
    },
    {
      "inputs": [
        {
          "internalType": "uint256",
          "name": "",
          "type": "uint256"
        }
      ],
      "name": "votes",
      "outputs": [
        {
          "internalType": "uint256",
          "name": "",
          "type": "uint256"
        }
      ],
      "stateMutability": "view",
      "type": "function"
    },
    {
      "inputs": [
        {
          "internalType": "address",
          "name": "",
          "type": "address"
        },
        {
          "internalType": "uint256",
          "name": "",
          "type": "uint256"
        }
      ],
      "name": "votesByAddress",
      "outputs": [
        {
          "internalType": "bool",
          "name": "",
          "type": "bool"
        }
      ],
      "stateMutability": "view",
      "type": "function"
    },
    {
      "inputs": [],
      "name": "getTracks",
      "outputs": [
        {
          "components": [
            {
              "internalType": "uint256",
              "name": "trackId",
              "type": "uint256"
            },
            {
              "internalType": "string",
              "name": "name",
              "type": "string"
            },
            {
              "internalType": "string",
              "name": "desc",
              "type": "string"
            },
            {
              "internalType": "enum Tracks.State",
              "name": "state",
              "type": "uint8"
            },
            {
              "internalType": "bool",
              "name": "exists",
              "type": "bool"
            }
          ],
          "internalType": "struct Tracks.Track[]",
          "name": "",
          "type": "tuple[]"
        }
      ],
      "stateMutability": "view",
      "type": "function"
    },
    {
      "inputs": [
        {
          "internalType": "uint256",
          "name": "_trackId",
          "type": "uint256"
        }
      ],
      "name": "getTrack",
      "outputs": [
        {
          "components": [
            {
              "internalType": "uint256",
              "name": "trackId",
              "type": "uint256"
            },
            {
              "internalType": "string",
              "name": "name",
              "type": "string"
            },
            {
              "internalType": "string",
              "name": "desc",
              "type": "string"
            },
            {
              "internalType": "enum Tracks.State",
              "name": "state",
              "type": "uint8"
            },
            {
              "internalType": "bool",
              "name": "exists",
              "type": "bool"
            }
          ],
          "internalType": "struct Tracks.Track",
          "name": "",
          "type": "tuple"
        }
      ],
      "stateMutability": "view",
      "type": "function"
    },
    {
      "inputs": [
        {
          "internalType": "uint256",
          "name": "_trackId",
          "type": "uint256"
        }
      ],
      "name": "getEntriesForTrack",
      "outputs": [
        {
          "internalType": "uint256[]",
          "name": "",
          "type": "uint256[]"
        }
      ],
      "stateMutability": "view",
      "type": "function"
    },
    {
      "inputs": [
        {
          "internalType": "uint256",
          "name": "_trackId",
          "type": "uint256"
        }
      ],
      "name": "open",
      "outputs": [],
      "stateMutability": "nonpayable",
      "type": "function"
    },
    {
      "inputs": [
        {
          "internalType": "uint256",
          "name": "_trackId",
          "type": "uint256"
        }
      ],
      "name": "close",
      "outputs": [],
      "stateMutability": "nonpayable",
      "type": "function"
    },
    {
      "inputs": [
        {
          "internalType": "uint256",
          "name": "_trackId",
          "type": "uint256"
        }
      ],
      "name": "block",
      "outputs": [],
      "stateMutability": "nonpayable",
      "type": "function"
    },
    {
      "inputs": [
        {
          "internalType": "uint256",
          "name": "_trackId",
          "type": "uint256"
        }
      ],
      "name": "unblock",
      "outputs": [],
      "stateMutability": "nonpayable",
      "type": "function"
    },
    {
      "inputs": [
        {
          "internalType": "uint256",
          "name": "_entryId",
          "type": "uint256"
        }
      ],
      "name": "vote",
      "outputs": [],
      "stateMutability": "nonpayable",
      "type": "function"
    },
    {
      "inputs": [
        {
          "internalType": "uint256",
          "name": "_trackId",
          "type": "uint256"
        },
        {
          "internalType": "string",
          "name": "_name",
          "type": "string"
        },
        {
          "internalType": "string",
          "name": "_desc",
          "type": "string"
        },
        {
          "internalType": "string",
          "name": "_location",
          "type": "string"
        }
      ],
      "name": "addEntry",
      "outputs": [
        {
          "internalType": "uint256",
          "name": "",
          "type": "uint256"
        }
      ],
      "stateMutability": "nonpayable",
      "type": "function"
    },
    {
      "inputs": [
        {
          "internalType": "string",
          "name": "_name",
          "type": "string"
        },
        {
          "internalType": "string",
          "name": "_desc",
          "type": "string"
        }
      ],
      "name": "addTrack",
      "outputs": [
        {
          "internalType": "uint256",
          "name": "",
          "type": "uint256"
        }
      ],
      "stateMutability": "nonpayable",
      "type": "function"
    }
  ],
  "bytecode": "0x60806040523480156200001157600080fd5b506000620000906040518060400160405280600b81526020017f66697273745f747261636b0000000000000000000000000000000000000000008152506040518060400160405280601781526020017f546869732069732074686520666972737420747261636b0000000000000000008152506200014d60201b60201c565b905062000145816040518060400160405280600481526020017f6e616d65000000000000000000000000000000000000000000000000000000008152506040518060400160405280600b81526020017f6465736372697074696f6e0000000000000000000000000000000000000000008152506040518060400160405280600881526020017f6c6f636174696f6e000000000000000000000000000000000000000000000000815250620002bf60201b60201c565b5050620006f8565b60008060055490506040518060a001604052808281526020018581526020018481526020016000600281111562000189576200018862000689565b5b815260200160011515815250600080838152602001908152602001600020600082015181600001556020820151816001019080519060200190620001cf929190620003fc565b506040820151816002019080519060200190620001ee929190620003fc565b5060608201518160030160006101000a81548160ff021916908360028111156200021d576200021c62000689565b5b021790555060808201518160030160016101000a81548160ff021916908315150217905550905050600560008154809291906200025a906200060c565b91905055506006600081548092919062000274906200060c565b9190505550807f21579433a032855e20e8afc48e980ddae0b6285e4aa03370f03192be12bea28b8585604051620002ad929190620004ed565b60405180910390a28091505092915050565b60008460006002811115620002d957620002d862000689565b5b60008083815260200190815260200160002060030160009054906101000a900460ff16600281111562000311576200031062000689565b5b146200031c57600080fd5b6000600754905060006002600083815260200190815260200160002054146200034457600080fd5b6001600088815260200190815260200160002081908060018154018082558091505060019003906000526020600020016000909190919091505586600260008381526020019081526020016000208190555060076000815480929190620003ab906200060c565b919050555080877f313f81e8cc8fe5ab3d1facaeffd8e0d26068ff1776d23a4621a5bdb0c891c817888888604051620003e79392919062000528565b60405180910390a38092505050949350505050565b8280546200040a90620005d6565b90600052602060002090601f0160209004810192826200042e57600085556200047a565b82601f106200044957805160ff19168380011785556200047a565b828001600101855582156200047a579182015b82811115620004795782518255916020019190600101906200045c565b5b5090506200048991906200048d565b5090565b5b80821115620004a85760008160009055506001016200048e565b5090565b6000620004b9826200057a565b620004c5818562000585565b9350620004d7818560208601620005a0565b620004e281620006e7565b840191505092915050565b60006040820190508181036000830152620005098185620004ac565b905081810360208301526200051f8184620004ac565b90509392505050565b60006060820190508181036000830152620005448186620004ac565b905081810360208301526200055a8185620004ac565b90508181036040830152620005708184620004ac565b9050949350505050565b600081519050919050565b600082825260208201905092915050565b6000819050919050565b60005b83811015620005c0578082015181840152602081019050620005a3565b83811115620005d0576000848401525b50505050565b60006002820490506001821680620005ef57607f821691505b60208210811415620006065762000605620006b8565b5b50919050565b6000620006198262000596565b91507fffffffffffffffffffffffffffffffffffffffffffffffffffffffffffffffff8214156200064f576200064e6200065a565b5b600182019050919050565b7f4e487b7100000000000000000000000000000000000000000000000000000000600052601160045260246000fd5b7f4e487b7100000000000000000000000000000000000000000000000000000000600052602160045260246000fd5b7f4e487b7100000000000000000000000000000000000000000000000000000000600052602260045260246000fd5b6000601f19601f8301169050919050565b611e8280620007086000396000f3fe608060405234801561001057600080fd5b50600436106101165760003560e01c806387548fcf116100a2578063a72024c611610071578063a72024c614610319578063ab35678c14610337578063d02f448314610355578063db7c01e214610385578063e6b2cf6c146103b557610116565b806387548fcf1461027b578063924e9b9514610299578063a2e34586146102c9578063a5b243f1146102fd57610116565b806336de40be116100e957806336de40be146101b35780635df81330146101e3578063629058ca14610213578063690e7c0914610243578063768d130e1461025f57610116565b80630121b93f1461011b5780630aebeb4e14610137578063109699b6146101535780632e42ddbf14610183575b600080fd5b6101356004803603810190610130919061153d565b6103d3565b005b610151600480360381019061014c919061153d565b6105b6565b005b61016d60048036038101906101689190611625565b6106b8565b60405161017a9190611a2e565b60405180910390f35b61019d6004803603810190610198919061156a565b6106e9565b6040516101aa9190611a2e565b60405180910390f35b6101cd60048036038101906101c891906114c5565b61081a565b6040516101da9190611a2e565b60405180910390f35b6101fd60048036038101906101f8919061153d565b61097c565b60405161020a9190611a2e565b60405180910390f35b61022d6004803603810190610228919061153d565b610994565b60405161023a9190611a0c565b60405180910390f35b61025d6004803603810190610258919061153d565b610b99565b005b6102796004803603810190610274919061153d565b610c9b565b005b610283610d9d565b604051610290919061192a565b60405180910390f35b6102b360048036038101906102ae919061153d565b610fe0565b6040516102c09190611a2e565b60405180910390f35b6102e360048036038101906102de919061153d565b610ff8565b6040516102f4959493929190611a49565b60405180910390f35b6103176004803603810190610312919061153d565b611158565b005b610321611259565b60405161032e9190611a2e565b60405180910390f35b61033f61125f565b60405161034c9190611a2e565b60405180910390f35b61036f600480360381019061036a919061153d565b611265565b60405161037c919061194c565b60405180910390f35b61039f600480360381019061039a9190611485565b6112d0565b6040516103ac919061196e565b60405180910390f35b6103bd6112ff565b6040516103ca9190611a2e565b60405180910390f35b6002600082815260200190815260200160002054600060028111156103fb576103fa611d29565b5b60008083815260200190815260200160002060030160009054906101000a900460ff1660028111156104305761042f611d29565b5b1461043a57600080fd5b336002600084815260200190815260200160002054600360003373ffffffffffffffffffffffffffffffffffffffff1673ffffffffffffffffffffffffffffffffffffffff16815260200190815260200160002060006002600084815260200190815260200160002054815260200190815260200160002060009054906101000a900460ff16156104ca57600080fd5b6001600360003373ffffffffffffffffffffffffffffffffffffffff1673ffffffffffffffffffffffffffffffffffffffff16815260200190815260200160002060006002600088815260200190815260200160002054815260200190815260200160002060006101000a81548160ff02191690831515021790555060046000858152602001908152602001600020600081548092919061056a90611cb1565b91905055508360026000868152602001908152602001600020547f23b2bfc0c368fdbec2cf6a0878f8f7ab7d497f92861fa232c0111ca69f63dc8260405160405180910390a350505050565b806001151560008083815260200190815260200160002060030160019054906101000a900460ff161515146105ea57600080fd5b81600060028111156105ff576105fe611d29565b5b60008083815260200190815260200160002060030160009054906101000a900460ff16600281111561063457610633611d29565b5b1461063e57600080fd5b600160008085815260200190815260200160002060030160006101000a81548160ff0219169083600281111561067757610676611d29565b5b02179055507feabb282842a353a61f42a3352791a6bf8d0f0b5d6e9cec67e0a0e2c42f387b9b836040516106ab9190611a2e565b60405180910390a1505050565b600160205281600052604060002081815481106106d457600080fd5b90600052602060002001600091509150505481565b60008460006002811115610700576106ff611d29565b5b60008083815260200190815260200160002060030160009054906101000a900460ff16600281111561073557610734611d29565b5b1461073f57600080fd5b60006007549050600060026000838152602001908152602001600020541461076657600080fd5b60016000888152602001908152602001600020819080600181540180825580915050600190039060005260206000200160009091909190915055866002600083815260200190815260200160002081905550600760008154809291906107cb90611cb1565b919050555080877f313f81e8cc8fe5ab3d1facaeffd8e0d26068ff1776d23a4621a5bdb0c891c817888888604051610805939291906119c0565b60405180910390a38092505050949350505050565b60008060055490506040518060a001604052808281526020018581526020018481526020016000600281111561085357610852611d29565b5b815260200160011515815250600080838152602001908152602001600020600082015181600001556020820151816001019080519060200190610897929190611305565b5060408201518160020190805190602001906108b4929190611305565b5060608201518160030160006101000a81548160ff021916908360028111156108e0576108df611d29565b5b021790555060808201518160030160016101000a81548160ff0219169083151502179055509050506005600081548092919061091b90611cb1565b91905055506006600081548092919061093390611cb1565b9190505550807f21579433a032855e20e8afc48e980ddae0b6285e4aa03370f03192be12bea28b858560405161096a929190611989565b60405180910390a28091505092915050565b60046020528060005260406000206000915090505481565b61099c61138b565b816002808111156109b0576109af611d29565b5b60008083815260200190815260200160002060030160009054906101000a900460ff1660028111156109e5576109e4611d29565b5b14156109f057600080fd5b6000808481526020019081526020016000206040518060a001604052908160008201548152602001600182018054610a2790611c4e565b80601f0160208091040260200160405190810160405280929190818152602001828054610a5390611c4e565b8015610aa05780601f10610a7557610100808354040283529160200191610aa0565b820191906000526020600020905b815481529060010190602001808311610a8357829003601f168201915b50505050508152602001600282018054610ab990611c4e565b80601f0160208091040260200160405190810160405280929190818152602001828054610ae590611c4e565b8015610b325780601f10610b0757610100808354040283529160200191610b32565b820191906000526020600020905b815481529060010190602001808311610b1557829003601f168201915b505050505081526020016003820160009054906101000a900460ff166002811115610b6057610b5f611d29565b5b6002811115610b7257610b71611d29565b5b81526020016003820160019054906101000a900460ff161515151581525050915050919050565b806001151560008083815260200190815260200160002060030160019054906101000a900460ff16151514610bcd57600080fd5b8160016002811115610be257610be1611d29565b5b60008083815260200190815260200160002060030160009054906101000a900460ff166002811115610c1757610c16611d29565b5b14610c2157600080fd5b600080600085815260200190815260200160002060030160006101000a81548160ff02191690836002811115610c5a57610c59611d29565b5b02179055507f5a695f43d53bb74f4457f1a60951e2c514c6de79da9a8d8369848853d647cc6a83604051610c8e9190611a2e565b60405180910390a1505050565b806001151560008083815260200190815260200160002060030160019054906101000a900460ff16151514610ccf57600080fd5b81600280811115610ce357610ce2611d29565b5b60008083815260200190815260200160002060030160009054906101000a900460ff166002811115610d1857610d17611d29565b5b1415610d2357600080fd5b600260008085815260200190815260200160002060030160006101000a81548160ff02191690836002811115610d5c57610d5b611d29565b5b02179055507fa589501e457bda1f31782af099f2695facb8e79d38d121802e6ac1c53237b84183604051610d909190611a2e565b60405180910390a1505050565b6060600060065467ffffffffffffffff811115610dbd57610dbc611db6565b5b604051908082528060200260200182016040528015610df657816020015b610de361138b565b815260200190600190039081610ddb5790505b50905060005b600654811015610fd8576000808281526020019081526020016000206040518060a001604052908160008201548152602001600182018054610e3d90611c4e565b80601f0160208091040260200160405190810160405280929190818152602001828054610e6990611c4e565b8015610eb65780601f10610e8b57610100808354040283529160200191610eb6565b820191906000526020600020905b815481529060010190602001808311610e9957829003601f168201915b50505050508152602001600282018054610ecf90611c4e565b80601f0160208091040260200160405190810160405280929190818152602001828054610efb90611c4e565b8015610f485780601f10610f1d57610100808354040283529160200191610f48565b820191906000526020600020905b815481529060010190602001808311610f2b57829003601f168201915b505050505081526020016003820160009054906101000a900460ff166002811115610f7657610f75611d29565b5b6002811115610f8857610f87611d29565b5b81526020016003820160019054906101000a900460ff161515151581525050828281518110610fba57610fb9611d87565b5b60200260200101819052508080610fd090611cb1565b915050610dfc565b508091505090565b60026020528060005260406000206000915090505481565b600060205280600052604060002060009150905080600001549080600101805461102190611c4e565b80601f016020809104026020016040519081016040528092919081815260200182805461104d90611c4e565b801561109a5780601f1061106f5761010080835404028352916020019161109a565b820191906000526020600020905b81548152906001019060200180831161107d57829003601f168201915b5050505050908060020180546110af90611c4e565b80601f01602080910402602001604051908101604052809291908181526020018280546110db90611c4e565b80156111285780601f106110fd57610100808354040283529160200191611128565b820191906000526020600020905b81548152906001019060200180831161110b57829003601f168201915b5050505050908060030160009054906101000a900460ff16908060030160019054906101000a900460ff16905085565b806001151560008083815260200190815260200160002060030160019054906101000a900460ff1615151461118c57600080fd5b816002808111156111a05761119f611d29565b5b60008083815260200190815260200160002060030160009054906101000a900460ff1660028111156111d5576111d4611d29565b5b146111df57600080fd5b600160008085815260200190815260200160002060030160006101000a81548160ff0219169083600281111561121857611217611d29565b5b02179055507fe23a63f864ee1069bc665aa3ed0b1dccc848ab996543e77baed0f465e8145c608360405161124c9190611a2e565b60405180910390a1505050565b60055481565b60065481565b6060600160008381526020019081526020016000208054806020026020016040519081016040528092919081815260200182805480156112c457602002820191906000526020600020905b8154815260200190600101908083116112b0575b50505050509050919050565b60036020528160005260406000206020528060005260406000206000915091509054906101000a900460ff1681565b60075481565b82805461131190611c4e565b90600052602060002090601f016020900481019282611333576000855561137a565b82601f1061134c57805160ff191683800117855561137a565b8280016001018555821561137a579182015b8281111561137957825182559160200191906001019061135e565b5b50905061138791906113ce565b5090565b6040518060a00160405280600081526020016060815260200160608152602001600060028111156113bf576113be611d29565b5b81526020016000151581525090565b5b808211156113e75760008160009055506001016113cf565b5090565b60006113fe6113f984611acf565b611aaa565b90508281526020810184848401111561141a57611419611dea565b5b611425848285611c0c565b509392505050565b60008135905061143c81611e1e565b92915050565b600082601f83011261145757611456611de5565b5b81356114678482602086016113eb565b91505092915050565b60008135905061147f81611e35565b92915050565b6000806040838503121561149c5761149b611df4565b5b60006114aa8582860161142d565b92505060206114bb85828601611470565b9150509250929050565b600080604083850312156114dc576114db611df4565b5b600083013567ffffffffffffffff8111156114fa576114f9611def565b5b61150685828601611442565b925050602083013567ffffffffffffffff81111561152757611526611def565b5b61153385828601611442565b9150509250929050565b60006020828403121561155357611552611df4565b5b600061156184828501611470565b91505092915050565b6000806000806080858703121561158457611583611df4565b5b600061159287828801611470565b945050602085013567ffffffffffffffff8111156115b3576115b2611def565b5b6115bf87828801611442565b935050604085013567ffffffffffffffff8111156115e0576115df611def565b5b6115ec87828801611442565b925050606085013567ffffffffffffffff81111561160d5761160c611def565b5b61161987828801611442565b91505092959194509250565b6000806040838503121561163c5761163b611df4565b5b600061164a85828601611470565b925050602061165b85828601611470565b9150509250929050565b60006116718383611812565b905092915050565b6000611685838361190c565b60208301905092915050565b600061169c82611b20565b6116a68185611b5b565b9350836020820285016116b885611b00565b8060005b858110156116f457848403895281516116d58582611665565b94506116e083611b41565b925060208a019950506001810190506116bc565b50829750879550505050505092915050565b600061171182611b2b565b61171b8185611b6c565b935061172683611b10565b8060005b8381101561175757815161173e8882611679565b975061174983611b4e565b92505060018101905061172a565b5085935050505092915050565b61176d81611bb1565b82525050565b61177c81611bb1565b82525050565b61178b81611bfa565b82525050565b61179a81611bfa565b82525050565b60006117ab82611b36565b6117b58185611b7d565b93506117c5818560208601611c1b565b6117ce81611df9565b840191505092915050565b60006117e482611b36565b6117ee8185611b8e565b93506117fe818560208601611c1b565b61180781611df9565b840191505092915050565b600060a08301600083015161182a600086018261190c565b506020830151848203602086015261184282826117a0565b9150506040830151848203604086015261185c82826117a0565b91505060608301516118716060860182611782565b5060808301516118846080860182611764565b508091505092915050565b600060a0830160008301516118a7600086018261190c565b50602083015184820360208601526118bf82826117a0565b915050604083015184820360408601526118d982826117a0565b91505060608301516118ee6060860182611782565b5060808301516119016080860182611764565b508091505092915050565b61191581611bf0565b82525050565b61192481611bf0565b82525050565b600060208201905081810360008301526119448184611691565b905092915050565b600060208201905081810360008301526119668184611706565b905092915050565b60006020820190506119836000830184611773565b92915050565b600060408201905081810360008301526119a381856117d9565b905081810360208301526119b781846117d9565b90509392505050565b600060608201905081810360008301526119da81866117d9565b905081810360208301526119ee81856117d9565b90508181036040830152611a0281846117d9565b9050949350505050565b60006020820190508181036000830152611a26818461188f565b905092915050565b6000602082019050611a43600083018461191b565b92915050565b600060a082019050611a5e600083018861191b565b8181036020830152611a7081876117d9565b90508181036040830152611a8481866117d9565b9050611a936060830185611791565b611aa06080830184611773565b9695505050505050565b6000611ab4611ac5565b9050611ac08282611c80565b919050565b6000604051905090565b600067ffffffffffffffff821115611aea57611ae9611db6565b5b611af382611df9565b9050602081019050919050565b6000819050602082019050919050565b6000819050602082019050919050565b600081519050919050565b600081519050919050565b600081519050919050565b6000602082019050919050565b6000602082019050919050565b600082825260208201905092915050565b600082825260208201905092915050565b600082825260208201905092915050565b600082825260208201905092915050565b6000611baa82611bd0565b9050919050565b60008115159050919050565b6000819050611bcb82611e0a565b919050565b600073ffffffffffffffffffffffffffffffffffffffff82169050919050565b6000819050919050565b6000611c0582611bbd565b9050919050565b82818337600083830152505050565b60005b83811015611c39578082015181840152602081019050611c1e565b83811115611c48576000848401525b50505050565b60006002820490506001821680611c6657607f821691505b60208210811415611c7a57611c79611d58565b5b50919050565b611c8982611df9565b810181811067ffffffffffffffff82111715611ca857611ca7611db6565b5b80604052505050565b6000611cbc82611bf0565b91507fffffffffffffffffffffffffffffffffffffffffffffffffffffffffffffffff821415611cef57611cee611cfa565b5b600182019050919050565b7f4e487b7100000000000000000000000000000000000000000000000000000000600052601160045260246000fd5b7f4e487b7100000000000000000000000000000000000000000000000000000000600052602160045260246000fd5b7f4e487b7100000000000000000000000000000000000000000000000000000000600052602260045260246000fd5b7f4e487b7100000000000000000000000000000000000000000000000000000000600052603260045260246000fd5b7f4e487b7100000000000000000000000000000000000000000000000000000000600052604160045260246000fd5b600080fd5b600080fd5b600080fd5b600080fd5b6000601f19601f8301169050919050565b60038110611e1b57611e1a611d29565b5b50565b611e2781611b9f565b8114611e3257600080fd5b50565b611e3e81611bf0565b8114611e4957600080fd5b5056fea26469706673582212206fede570f7c5afc184d5f581f9fcf029969aa25a041e0b557005d9ac618a032a64736f6c63430008070033",
  "immutableReferences": {},
  "source": "// SPDX-License-Identifier: MIT\r\npragma solidity ^0.8.0;\r\n\r\ncontract Tracks {\r\n  mapping (uint  => Track) public tracks;\r\n  mapping (uint  => uint[]) public trackEntries; //trackId => entryId[]\r\n  mapping (uint  => uint) public entriesTrack; //entryId => trackId\r\n  mapping (address  => mapping (uint => bool)) public votesByAddress; //address => (trackId => bool)\r\n  mapping (uint  => uint) public votes; //entryId => Vote\r\n\r\n  uint public nextTrackId;\r\n  uint public trackCount;\r\n  uint public nextEntryId;\r\n\r\n  enum State {\r\n      TrackOpen,\r\n      TrackClosed,\r\n      TrackBlocked\r\n  }\r\n  struct Track {\r\n      uint  trackId;\r\n      string  name;\r\n      string  desc;\r\n      State state;\r\n      bool exists;\r\n  }\r\n\r\n  event TrackOpened(uint trackId);\r\n  event TrackClosed(uint trackId);\r\n  event TrackBlocked(uint trackId);\r\n  event TrackUnblocked(uint trackId);\r\n  event TrackCreated(uint indexed trackId, string name, string desc);\r\n  event EntryCreated(uint indexed trackId, uint indexed entryId, string name, string desc, string location);\r\n  event EntryVotedFor(uint indexed trackId, uint indexed entryId);\r\n\r\n  /**\r\n   * @dev XXX\r\n   * @param _trackId The id of the track\r\n   */\r\n\tmodifier isTrackOpen(uint _trackId) {\r\n\t\trequire(tracks[_trackId].state == State.TrackOpen);\r\n    _;\r\n  }\r\n  \r\n\t/**\r\n   * @dev XXX\r\n   * @param _trackId The id of the track\r\n   */\r\n\tmodifier isTrackClosed(uint _trackId) {\r\n\t\trequire(tracks[_trackId].state == State.TrackClosed);\r\n    _;\r\n  }\r\n  \r\n  /**\r\n   * @dev XXX\r\n   * @param _trackId The id of the track\r\n   */\r\n\tmodifier isTrackBlocked(uint _trackId) {\r\n\t\trequire(tracks[_trackId].state == State.TrackBlocked);\r\n    _;\r\n  }\r\n  \r\n  /**\r\n   * @dev XXX\r\n   * @param _trackId The id of the track\r\n   */\r\n\tmodifier isTrackUnblocked(uint _trackId) {\r\n\t\trequire(tracks[_trackId].state != State.TrackBlocked);\r\n    _;\r\n  }\r\n  \r\n  /**\r\n   * @dev XXX\r\n   * @param _trackId The id of the track\r\n   */\r\n\tmodifier trackExists(uint _trackId) {\r\n\t\t\trequire(tracks[_trackId].exists == true);\r\n\t    _;\r\n\t  }\r\n\r\n\tmodifier hasNotVotedForTrack(address _addr, uint _entryId){\r\n\t    require(!votesByAddress[msg.sender][entriesTrack[_entryId]]);\r\n\t    _;\r\n\t}\r\n\t/**\r\n   * @dev XXX\r\n   */\r\n  constructor () {\r\n      uint trackId = addTrack(\"first_track\", \"This is the first track\");\r\n      addEntry(trackId, \"name\", \"description\", \"location\");\r\n  }\r\n\r\n\t/**\r\n   * @dev XXX\r\n   */\r\n  function getTracks() public view returns ( Track[] memory) {\r\n      Track[] memory _tracks = new Track[](trackCount);\r\n      for (uint i=0; i<trackCount; i++) {\r\n          _tracks[i] = tracks[i];\r\n      }\r\n      return _tracks;\r\n  }\r\n\r\n  /**\r\n   * @dev XXX\r\n   * @param _trackId The id of the track\r\n   */\r\n  function getTrack(uint _trackId) public view isTrackUnblocked(_trackId) returns (Track memory) {\r\n      return tracks[_trackId];\r\n  }\r\n\r\n  /**\r\n   * @dev XXX\r\n   * @param _trackId The id of the track\r\n   */\r\n  function getEntriesForTrack(uint _trackId) public view returns (uint[] memory){\r\n      return trackEntries[_trackId];\r\n  }\r\n\r\n\t/**\r\n   * @dev XXX\r\n   * @param _trackId The id of the track\r\n   */\r\n  function open(uint _trackId) public trackExists(_trackId) isTrackClosed(_trackId) {\r\n      tracks[_trackId].state = State.TrackOpen;\r\n      emit TrackOpened(_trackId);\r\n  }\r\n\r\n\t/**\r\n   * @dev XXX\r\n   * @param _trackId The id of the track\r\n   */\r\n\tfunction close(uint _trackId) public trackExists(_trackId) isTrackOpen(_trackId) {\r\n      tracks[_trackId].state = State.TrackClosed;\r\n      emit TrackClosed(_trackId);\r\n  }\r\n\r\n\t/**\r\n   * @dev XXX\r\n   * @param _trackId The id of the track\r\n   */\r\n\tfunction block(uint _trackId) public trackExists(_trackId) isTrackUnblocked(_trackId) {\r\n      tracks[_trackId].state = State.TrackBlocked;\r\n      emit TrackBlocked(_trackId);\r\n  }\r\n\r\n  /**\r\n   * @dev XXX\r\n   * @param _trackId The id of the track\r\n   */\r\n  function unblock(uint _trackId) public trackExists(_trackId) isTrackBlocked(_trackId) {\r\n      tracks[_trackId].state = State.TrackClosed;\r\n      emit TrackUnblocked(_trackId);\r\n  }\r\n\r\n\t/**\r\n   * @dev XXX\r\n   * @param _entryId The id of the entry\r\n   */\r\n  function vote(uint _entryId) public isTrackOpen(entriesTrack[_entryId]) hasNotVotedForTrack(msg.sender,entriesTrack[_entryId]){\r\n    votesByAddress[msg.sender][entriesTrack[_entryId]] = true;\r\n    votes[_entryId]++;\r\n \t\temit EntryVotedFor(entriesTrack[_entryId], _entryId);\r\n  }\r\n\r\n  /**\r\n   * @dev XXX\r\n   * @param _trackId The id of the track\r\n   */\r\n  function addEntry(uint _trackId, string memory _name, string memory _desc, string memory _location) public isTrackOpen(_trackId) returns (uint) {\r\n    uint entryId = nextEntryId;\r\n    require(entriesTrack[entryId] == 0);\r\n    trackEntries[_trackId].push(entryId);\r\n    entriesTrack[entryId] = _trackId;\r\n    nextEntryId++;\r\n    emit EntryCreated(_trackId, entryId, _name, _desc, _location);\r\n    return entryId;\r\n  }\r\n\r\n\t/**\r\n   * @dev XXX\r\n   * @param _name XXX\r\n   * @param _desc XXX\r\n   */\r\n  function addTrack(string memory _name, string memory _desc) public returns (uint) {\r\n    uint trackId = nextTrackId;\r\n    tracks[trackId] = Track({\r\n      trackId: trackId,\r\n      name: _name,\r\n      desc: _desc,\r\n      state: State.TrackOpen,\r\n      exists: true\r\n    });\r\n    nextTrackId++;\r\n    trackCount++;\r\n    emit TrackCreated(trackId, _name, _desc);\r\n    return trackId;\r\n   }\r\n}\r\n\r\n\r\n",
  "sourcePath": "D:\\projects\\blockchain-developer-bootcamp-final-project\\tracks\\contracts\\Tracks.sol",
  "compiler": {
    "name": "solc",
    "version": "0.8.7+commit.e28d00a7.Emscripten.clang"
  },
  "schemaVersion": "3.4.3",
  "updatedAt": "2021-09-30T10:51:24.906Z",
  "devdoc": {
    "kind": "dev",
    "methods": {
      "addEntry(uint256,string,string,string)": {
        "details": "XXX",
        "params": {
          "_trackId": "The id of the track"
        }
      },
      "addTrack(string,string)": {
        "details": "XXX",
        "params": {
          "_desc": "XXX",
          "_name": "XXX"
        }
      },
      "block(uint256)": {
        "details": "XXX",
        "params": {
          "_trackId": "The id of the track"
        }
      },
      "close(uint256)": {
        "details": "XXX",
        "params": {
          "_trackId": "The id of the track"
        }
      },
      "constructor": {
        "details": "XXX"
      },
      "getEntriesForTrack(uint256)": {
        "details": "XXX",
        "params": {
          "_trackId": "The id of the track"
        }
      },
      "getTrack(uint256)": {
        "details": "XXX",
        "params": {
          "_trackId": "The id of the track"
        }
      },
      "getTracks()": {
        "details": "XXX"
      },
      "open(uint256)": {
        "details": "XXX",
        "params": {
          "_trackId": "The id of the track"
        }
      },
      "unblock(uint256)": {
        "details": "XXX",
        "params": {
          "_trackId": "The id of the track"
        }
      },
      "vote(uint256)": {
        "details": "XXX",
        "params": {
          "_entryId": "The id of the entry"
        }
      }
    },
    "version": 1
  },
  "userdoc": {
    "kind": "user",
    "methods": {},
    "version": 1
  }
}