{
  "contractName": "Tracks",
  "abi": [
    {
      "inputs": [],
      "stateMutability": "nonpayable",
      "type": "constructor"
    },
    {
      "anonymous": false,
      "inputs": [
        {
          "indexed": true,
          "internalType": "uint256",
          "name": "trackId",
          "type": "uint256"
        },
        {
          "indexed": true,
          "internalType": "uint256",
          "name": "entryId",
          "type": "uint256"
        },
        {
          "indexed": false,
          "internalType": "string",
          "name": "name",
          "type": "string"
        },
        {
          "indexed": false,
          "internalType": "string",
          "name": "desc",
          "type": "string"
        },
        {
          "indexed": false,
          "internalType": "string",
          "name": "location",
          "type": "string"
        }
      ],
      "name": "EntryCreated",
      "type": "event"
    },
    {
      "anonymous": false,
      "inputs": [
        {
          "indexed": true,
          "internalType": "uint256",
          "name": "trackId",
          "type": "uint256"
        },
        {
          "indexed": true,
          "internalType": "uint256",
          "name": "entryId",
          "type": "uint256"
        }
      ],
      "name": "EntryVotedFor",
      "type": "event"
    },
    {
      "anonymous": false,
      "inputs": [
        {
          "indexed": false,
          "internalType": "uint256",
          "name": "trackId",
          "type": "uint256"
        }
      ],
      "name": "TrackBlocked",
      "type": "event"
    },
    {
      "anonymous": false,
      "inputs": [
        {
          "indexed": false,
          "internalType": "uint256",
          "name": "trackId",
          "type": "uint256"
        }
      ],
      "name": "TrackClosed",
      "type": "event"
    },
    {
      "anonymous": false,
      "inputs": [
        {
          "indexed": true,
          "internalType": "uint256",
          "name": "trackId",
          "type": "uint256"
        },
        {
          "indexed": false,
          "internalType": "string",
          "name": "name",
          "type": "string"
        },
        {
          "indexed": false,
          "internalType": "string",
          "name": "desc",
          "type": "string"
        }
      ],
      "name": "TrackCreated",
      "type": "event"
    },
    {
      "anonymous": false,
      "inputs": [
        {
          "indexed": false,
          "internalType": "uint256",
          "name": "trackId",
          "type": "uint256"
        }
      ],
      "name": "TrackOpened",
      "type": "event"
    },
    {
      "anonymous": false,
      "inputs": [
        {
          "indexed": false,
          "internalType": "uint256",
          "name": "trackId",
          "type": "uint256"
        }
      ],
      "name": "TrackUnblocked",
      "type": "event"
    },
    {
      "inputs": [
        {
          "internalType": "uint256",
          "name": "",
          "type": "uint256"
        }
      ],
      "name": "entriesTrack",
      "outputs": [
        {
          "internalType": "uint256",
          "name": "",
          "type": "uint256"
        }
      ],
      "stateMutability": "view",
      "type": "function",
      "constant": true
    },
    {
      "inputs": [],
      "name": "nextEntryId",
      "outputs": [
        {
          "internalType": "uint256",
          "name": "",
          "type": "uint256"
        }
      ],
      "stateMutability": "view",
      "type": "function",
      "constant": true
    },
    {
      "inputs": [],
      "name": "nextTrackId",
      "outputs": [
        {
          "internalType": "uint256",
          "name": "",
          "type": "uint256"
        }
      ],
      "stateMutability": "view",
      "type": "function",
      "constant": true
    },
    {
      "inputs": [],
      "name": "trackCount",
      "outputs": [
        {
          "internalType": "uint256",
          "name": "",
          "type": "uint256"
        }
      ],
      "stateMutability": "view",
      "type": "function",
      "constant": true
    },
    {
      "inputs": [
        {
          "internalType": "uint256",
          "name": "",
          "type": "uint256"
        },
        {
          "internalType": "uint256",
          "name": "",
          "type": "uint256"
        }
      ],
      "name": "trackEntries",
      "outputs": [
        {
          "internalType": "uint256",
          "name": "",
          "type": "uint256"
        }
      ],
      "stateMutability": "view",
      "type": "function",
      "constant": true
    },
    {
      "inputs": [
        {
          "internalType": "uint256",
          "name": "",
          "type": "uint256"
        }
      ],
      "name": "tracks",
      "outputs": [
        {
          "internalType": "uint256",
          "name": "trackId",
          "type": "uint256"
        },
        {
          "internalType": "string",
          "name": "name",
          "type": "string"
        },
        {
          "internalType": "string",
          "name": "desc",
          "type": "string"
        },
        {
          "internalType": "enum Tracks.State",
          "name": "state",
          "type": "uint8"
        },
        {
          "internalType": "bool",
          "name": "exists",
          "type": "bool"
        }
      ],
      "stateMutability": "view",
      "type": "function",
      "constant": true
    },
    {
      "inputs": [
        {
          "internalType": "uint256",
          "name": "",
          "type": "uint256"
        }
      ],
      "name": "votes",
      "outputs": [
        {
          "internalType": "uint256",
          "name": "",
          "type": "uint256"
        }
      ],
      "stateMutability": "view",
      "type": "function",
      "constant": true
    },
    {
      "inputs": [
        {
          "internalType": "address",
          "name": "",
          "type": "address"
        },
        {
          "internalType": "uint256",
          "name": "",
          "type": "uint256"
        }
      ],
      "name": "votesByAddress",
      "outputs": [
        {
          "internalType": "bool",
          "name": "",
          "type": "bool"
        }
      ],
      "stateMutability": "view",
      "type": "function",
      "constant": true
    },
    {
      "inputs": [],
      "name": "getTracks",
      "outputs": [
        {
          "components": [
            {
              "internalType": "uint256",
              "name": "trackId",
              "type": "uint256"
            },
            {
              "internalType": "string",
              "name": "name",
              "type": "string"
            },
            {
              "internalType": "string",
              "name": "desc",
              "type": "string"
            },
            {
              "internalType": "enum Tracks.State",
              "name": "state",
              "type": "uint8"
            },
            {
              "internalType": "bool",
              "name": "exists",
              "type": "bool"
            }
          ],
          "internalType": "struct Tracks.Track[]",
          "name": "",
          "type": "tuple[]"
        }
      ],
      "stateMutability": "view",
      "type": "function",
      "constant": true
    },
    {
      "inputs": [
        {
          "internalType": "uint256",
          "name": "_trackId",
          "type": "uint256"
        }
      ],
      "name": "getTrack",
      "outputs": [
        {
          "components": [
            {
              "internalType": "uint256",
              "name": "trackId",
              "type": "uint256"
            },
            {
              "internalType": "string",
              "name": "name",
              "type": "string"
            },
            {
              "internalType": "string",
              "name": "desc",
              "type": "string"
            },
            {
              "internalType": "enum Tracks.State",
              "name": "state",
              "type": "uint8"
            },
            {
              "internalType": "bool",
              "name": "exists",
              "type": "bool"
            }
          ],
          "internalType": "struct Tracks.Track",
          "name": "",
          "type": "tuple"
        }
      ],
      "stateMutability": "view",
      "type": "function",
      "constant": true
    },
    {
      "inputs": [
        {
          "internalType": "uint256",
          "name": "_entryId",
          "type": "uint256"
        }
      ],
      "name": "getVotesForEntry",
      "outputs": [
        {
          "internalType": "uint256",
          "name": "",
          "type": "uint256"
        }
      ],
      "stateMutability": "view",
      "type": "function",
      "constant": true
    },
    {
      "inputs": [
        {
          "internalType": "uint256",
          "name": "_trackId",
          "type": "uint256"
        }
      ],
      "name": "getEntriesForTrack",
      "outputs": [
        {
          "internalType": "uint256[]",
          "name": "",
          "type": "uint256[]"
        }
      ],
      "stateMutability": "view",
      "type": "function",
      "constant": true
    },
    {
      "inputs": [
        {
          "internalType": "uint256",
          "name": "_trackId",
          "type": "uint256"
        }
      ],
      "name": "openTrack",
      "outputs": [],
      "stateMutability": "nonpayable",
      "type": "function"
    },
    {
      "inputs": [
        {
          "internalType": "uint256",
          "name": "_trackId",
          "type": "uint256"
        }
      ],
      "name": "closeTrack",
      "outputs": [],
      "stateMutability": "nonpayable",
      "type": "function"
    },
    {
      "inputs": [
        {
          "internalType": "uint256",
          "name": "_trackId",
          "type": "uint256"
        }
      ],
      "name": "blockTrack",
      "outputs": [],
      "stateMutability": "nonpayable",
      "type": "function"
    },
    {
      "inputs": [
        {
          "internalType": "uint256",
          "name": "_trackId",
          "type": "uint256"
        }
      ],
      "name": "unblockTrack",
      "outputs": [],
      "stateMutability": "nonpayable",
      "type": "function"
    },
    {
      "inputs": [
        {
          "internalType": "uint256",
          "name": "_trackId",
          "type": "uint256"
        }
      ],
      "name": "isTrackOpen",
      "outputs": [
        {
          "internalType": "bool",
          "name": "",
          "type": "bool"
        }
      ],
      "stateMutability": "view",
      "type": "function",
      "constant": true
    },
    {
      "inputs": [
        {
          "internalType": "uint256",
          "name": "_trackId",
          "type": "uint256"
        }
      ],
      "name": "isTrackClosed",
      "outputs": [
        {
          "internalType": "bool",
          "name": "",
          "type": "bool"
        }
      ],
      "stateMutability": "view",
      "type": "function",
      "constant": true
    },
    {
      "inputs": [
        {
          "internalType": "uint256",
          "name": "_trackId",
          "type": "uint256"
        }
      ],
      "name": "isTrackBlocked",
      "outputs": [
        {
          "internalType": "bool",
          "name": "",
          "type": "bool"
        }
      ],
      "stateMutability": "view",
      "type": "function",
      "constant": true
    },
    {
      "inputs": [
        {
          "internalType": "uint256",
          "name": "_entryId",
          "type": "uint256"
        }
      ],
      "name": "vote",
      "outputs": [],
      "stateMutability": "nonpayable",
      "type": "function"
    },
    {
      "inputs": [
        {
          "internalType": "uint256",
          "name": "_trackId",
          "type": "uint256"
        },
        {
          "internalType": "string",
          "name": "_name",
          "type": "string"
        },
        {
          "internalType": "string",
          "name": "_desc",
          "type": "string"
        },
        {
          "internalType": "string",
          "name": "_location",
          "type": "string"
        }
      ],
      "name": "addEntry",
      "outputs": [
        {
          "internalType": "uint256",
          "name": "",
          "type": "uint256"
        }
      ],
      "stateMutability": "nonpayable",
      "type": "function"
    },
    {
      "inputs": [
        {
          "internalType": "string",
          "name": "_name",
          "type": "string"
        },
        {
          "internalType": "string",
          "name": "_desc",
          "type": "string"
        }
      ],
      "name": "addTrack",
      "outputs": [
        {
          "internalType": "uint256",
          "name": "",
          "type": "uint256"
        }
      ],
      "stateMutability": "nonpayable",
      "type": "function"
    }
  ],
  "bytecode": "0x60806040523480156200001157600080fd5b506000620000906040518060400160405280600b81526020017f66697273745f747261636b0000000000000000000000000000000000000000008152506040518060400160405280601781526020017f546869732069732074686520666972737420747261636b0000000000000000008152506200014d60201b60201c565b905062000145816040518060400160405280600481526020017f6e616d65000000000000000000000000000000000000000000000000000000008152506040518060400160405280600b81526020017f6465736372697074696f6e0000000000000000000000000000000000000000008152506040518060400160405280600881526020017f6c6f636174696f6e000000000000000000000000000000000000000000000000815250620002bf60201b60201c565b5050620006f8565b60008060055490506040518060a001604052808281526020018581526020018481526020016000600281111562000189576200018862000689565b5b815260200160011515815250600080838152602001908152602001600020600082015181600001556020820151816001019080519060200190620001cf929190620003fc565b506040820151816002019080519060200190620001ee929190620003fc565b5060608201518160030160006101000a81548160ff021916908360028111156200021d576200021c62000689565b5b021790555060808201518160030160016101000a81548160ff021916908315150217905550905050600560008154809291906200025a906200060c565b91905055506006600081548092919062000274906200060c565b9190505550807f21579433a032855e20e8afc48e980ddae0b6285e4aa03370f03192be12bea28b8585604051620002ad929190620004ed565b60405180910390a28091505092915050565b60008460006002811115620002d957620002d862000689565b5b60008083815260200190815260200160002060030160009054906101000a900460ff16600281111562000311576200031062000689565b5b146200031c57600080fd5b6000600754905060006002600083815260200190815260200160002054146200034457600080fd5b6001600088815260200190815260200160002081908060018154018082558091505060019003906000526020600020016000909190919091505586600260008381526020019081526020016000208190555060076000815480929190620003ab906200060c565b919050555080877f313f81e8cc8fe5ab3d1facaeffd8e0d26068ff1776d23a4621a5bdb0c891c817888888604051620003e79392919062000528565b60405180910390a38092505050949350505050565b8280546200040a90620005d6565b90600052602060002090601f0160209004810192826200042e57600085556200047a565b82601f106200044957805160ff19168380011785556200047a565b828001600101855582156200047a579182015b82811115620004795782518255916020019190600101906200045c565b5b5090506200048991906200048d565b5090565b5b80821115620004a85760008160009055506001016200048e565b5090565b6000620004b9826200057a565b620004c5818562000585565b9350620004d7818560208601620005a0565b620004e281620006e7565b840191505092915050565b60006040820190508181036000830152620005098185620004ac565b905081810360208301526200051f8184620004ac565b90509392505050565b60006060820190508181036000830152620005448186620004ac565b905081810360208301526200055a8185620004ac565b90508181036040830152620005708184620004ac565b9050949350505050565b600081519050919050565b600082825260208201905092915050565b6000819050919050565b60005b83811015620005c0578082015181840152602081019050620005a3565b83811115620005d0576000848401525b50505050565b60006002820490506001821680620005ef57607f821691505b60208210811415620006065762000605620006b8565b5b50919050565b6000620006198262000596565b91507fffffffffffffffffffffffffffffffffffffffffffffffffffffffffffffffff8214156200064f576200064e6200065a565b5b600182019050919050565b7f4e487b7100000000000000000000000000000000000000000000000000000000600052601160045260246000fd5b7f4e487b7100000000000000000000000000000000000000000000000000000000600052602160045260246000fd5b7f4e487b7100000000000000000000000000000000000000000000000000000000600052602260045260246000fd5b6000601f19601f8301169050919050565b6121f680620007086000396000f3fe608060405234801561001057600080fd5b50600436106101425760003560e01c806387548fcf116100b8578063caa2c2ad1161007c578063caa2c2ad146103c5578063d02f4483146103f5578063db7c01e214610425578063e6b2cf6c14610455578063ef75976114610473578063ff9edb9e1461048f57610142565b806387548fcf14610307578063924e9b9514610325578063a2e3458614610355578063a72024c614610389578063ab35678c146103a757610142565b806336de40be1161010a57806336de40be1461020f578063423b70321461023f5780635df813301461025b578063629058ca1461028b57806366cb5936146102bb57806368e982b0146102eb57610142565b80630121b93f14610147578063109699b6146101635780631f6c5f00146101935780632e42ddbf146101af57806333abbe51146101df575b600080fd5b610161600480360381019061015c919061181f565b6104bf565b005b61017d60048036038101906101789190611907565b61067c565b60405161018a9190611d53565b60405180910390f35b6101ad60048036038101906101a8919061181f565b6106ad565b005b6101c960048036038101906101c4919061184c565b6107af565b6040516101d69190611d53565b60405180910390f35b6101f960048036038101906101f4919061181f565b6108e0565b6040516102069190611c73565b60405180910390f35b610229600480360381019061022491906117a7565b610968565b6040516102369190611d53565b60405180910390f35b6102596004803603810190610254919061181f565b610aca565b005b6102756004803603810190610270919061181f565b610bcc565b6040516102829190611d53565b60405180910390f35b6102a560048036038101906102a0919061181f565b610be4565b6040516102b29190611d31565b60405180910390f35b6102d560048036038101906102d0919061181f565b610de9565b6040516102e29190611c73565b60405180910390f35b6103056004803603810190610300919061181f565b610e71565b005b61030f610f72565b60405161031c9190611c2f565b60405180910390f35b61033f600480360381019061033a919061181f565b6111b5565b60405161034c9190611d53565b60405180910390f35b61036f600480360381019061036a919061181f565b6111cd565b604051610380959493929190611d6e565b60405180910390f35b61039161132d565b60405161039e9190611d53565b60405180910390f35b6103af611333565b6040516103bc9190611d53565b60405180910390f35b6103df60048036038101906103da919061181f565b611339565b6040516103ec9190611c73565b60405180910390f35b61040f600480360381019061040a919061181f565b6113c0565b60405161041c9190611c51565b60405180910390f35b61043f600480360381019061043a9190611767565b61142b565b60405161044c9190611c73565b60405180910390f35b61045d61145a565b60405161046a9190611d53565b60405180910390f35b61048d6004803603810190610488919061181f565b611460565b005b6104a960048036038101906104a4919061181f565b611562565b6040516104b69190611d53565b60405180910390f35b6002600082815260200190815260200160002054600060028111156104e7576104e661204e565b5b60008083815260200190815260200160002060030160009054906101000a900460ff16600281111561051c5761051b61204e565b5b1461052657600080fd5b338260001515600360003373ffffffffffffffffffffffffffffffffffffffff1673ffffffffffffffffffffffffffffffffffffffff168152602001908152602001600020600083815260200190815260200160002060009054906101000a900460ff161515146105cc576040517f08c379a00000000000000000000000000000000000000000000000000000000081526004016105c390611d11565b60405180910390fd5b6001600360003373ffffffffffffffffffffffffffffffffffffffff1673ffffffffffffffffffffffffffffffffffffffff168152602001908152602001600020600086815260200190815260200160002060006101000a81548160ff0219169083151502179055508360026000868152602001908152602001600020547f23b2bfc0c368fdbec2cf6a0878f8f7ab7d497f92861fa232c0111ca69f63dc8260405160405180910390a350505050565b6001602052816000526040600020818154811061069857600080fd5b90600052602060002001600091509150505481565b806001151560008083815260200190815260200160002060030160019054906101000a900460ff161515146106e157600080fd5b81600160028111156106f6576106f561204e565b5b60008083815260200190815260200160002060030160009054906101000a900460ff16600281111561072b5761072a61204e565b5b1461073557600080fd5b600080600085815260200190815260200160002060030160006101000a81548160ff0219169083600281111561076e5761076d61204e565b5b02179055507f5a695f43d53bb74f4457f1a60951e2c514c6de79da9a8d8369848853d647cc6a836040516107a29190611d53565b60405180910390a1505050565b600084600060028111156107c6576107c561204e565b5b60008083815260200190815260200160002060030160009054906101000a900460ff1660028111156107fb576107fa61204e565b5b1461080557600080fd5b60006007549050600060026000838152602001908152602001600020541461082c57600080fd5b600160008881526020019081526020016000208190806001815401808255809150506001900390600052602060002001600090919091909150558660026000838152602001908152602001600020819055506007600081548092919061089190611fd6565b919050555080877f313f81e8cc8fe5ab3d1facaeffd8e0d26068ff1776d23a4621a5bdb0c891c8178888886040516108cb93929190611cc5565b60405180910390a38092505050949350505050565b6000816001151560008083815260200190815260200160002060030160019054906101000a900460ff1615151461091657600080fd5b6001600281111561092a5761092961204e565b5b60008085815260200190815260200160002060030160009054906101000a900460ff16600281111561095f5761095e61204e565b5b14915050919050565b60008060055490506040518060a00160405280828152602001858152602001848152602001600060028111156109a1576109a061204e565b5b8152602001600115158152506000808381526020019081526020016000206000820151816000015560208201518160010190805190602001906109e59291906115e7565b506040820151816002019080519060200190610a029291906115e7565b5060608201518160030160006101000a81548160ff02191690836002811115610a2e57610a2d61204e565b5b021790555060808201518160030160016101000a81548160ff02191690831515021790555090505060056000815480929190610a6990611fd6565b919050555060066000815480929190610a8190611fd6565b9190505550807f21579433a032855e20e8afc48e980ddae0b6285e4aa03370f03192be12bea28b8585604051610ab8929190611c8e565b60405180910390a28091505092915050565b806001151560008083815260200190815260200160002060030160019054906101000a900460ff16151514610afe57600080fd5b8160006002811115610b1357610b1261204e565b5b60008083815260200190815260200160002060030160009054906101000a900460ff166002811115610b4857610b4761204e565b5b14610b5257600080fd5b600160008085815260200190815260200160002060030160006101000a81548160ff02191690836002811115610b8b57610b8a61204e565b5b02179055507feabb282842a353a61f42a3352791a6bf8d0f0b5d6e9cec67e0a0e2c42f387b9b83604051610bbf9190611d53565b60405180910390a1505050565b60046020528060005260406000206000915090505481565b610bec61166d565b81600280811115610c0057610bff61204e565b5b60008083815260200190815260200160002060030160009054906101000a900460ff166002811115610c3557610c3461204e565b5b1415610c4057600080fd5b6000808481526020019081526020016000206040518060a001604052908160008201548152602001600182018054610c7790611f73565b80601f0160208091040260200160405190810160405280929190818152602001828054610ca390611f73565b8015610cf05780601f10610cc557610100808354040283529160200191610cf0565b820191906000526020600020905b815481529060010190602001808311610cd357829003601f168201915b50505050508152602001600282018054610d0990611f73565b80601f0160208091040260200160405190810160405280929190818152602001828054610d3590611f73565b8015610d825780601f10610d5757610100808354040283529160200191610d82565b820191906000526020600020905b815481529060010190602001808311610d6557829003601f168201915b505050505081526020016003820160009054906101000a900460ff166002811115610db057610daf61204e565b5b6002811115610dc257610dc161204e565b5b81526020016003820160019054906101000a900460ff161515151581525050915050919050565b6000816001151560008083815260200190815260200160002060030160019054906101000a900460ff16151514610e1f57600080fd5b60006002811115610e3357610e3261204e565b5b60008085815260200190815260200160002060030160009054906101000a900460ff166002811115610e6857610e6761204e565b5b14915050919050565b806001151560008083815260200190815260200160002060030160019054906101000a900460ff16151514610ea557600080fd5b81600280811115610eb957610eb861204e565b5b60008083815260200190815260200160002060030160009054906101000a900460ff166002811115610eee57610eed61204e565b5b14610ef857600080fd5b600160008085815260200190815260200160002060030160006101000a81548160ff02191690836002811115610f3157610f3061204e565b5b02179055507fe23a63f864ee1069bc665aa3ed0b1dccc848ab996543e77baed0f465e8145c6083604051610f659190611d53565b60405180910390a1505050565b6060600060065467ffffffffffffffff811115610f9257610f916120db565b5b604051908082528060200260200182016040528015610fcb57816020015b610fb861166d565b815260200190600190039081610fb05790505b50905060005b6006548110156111ad576000808281526020019081526020016000206040518060a00160405290816000820154815260200160018201805461101290611f73565b80601f016020809104026020016040519081016040528092919081815260200182805461103e90611f73565b801561108b5780601f106110605761010080835404028352916020019161108b565b820191906000526020600020905b81548152906001019060200180831161106e57829003601f168201915b505050505081526020016002820180546110a490611f73565b80601f01602080910402602001604051908101604052809291908181526020018280546110d090611f73565b801561111d5780601f106110f25761010080835404028352916020019161111d565b820191906000526020600020905b81548152906001019060200180831161110057829003601f168201915b505050505081526020016003820160009054906101000a900460ff16600281111561114b5761114a61204e565b5b600281111561115d5761115c61204e565b5b81526020016003820160019054906101000a900460ff16151515158152505082828151811061118f5761118e6120ac565b5b602002602001018190525080806111a590611fd6565b915050610fd1565b508091505090565b60026020528060005260406000206000915090505481565b60006020528060005260406000206000915090508060000154908060010180546111f690611f73565b80601f016020809104026020016040519081016040528092919081815260200182805461122290611f73565b801561126f5780601f106112445761010080835404028352916020019161126f565b820191906000526020600020905b81548152906001019060200180831161125257829003601f168201915b50505050509080600201805461128490611f73565b80601f01602080910402602001604051908101604052809291908181526020018280546112b090611f73565b80156112fd5780601f106112d2576101008083540402835291602001916112fd565b820191906000526020600020905b8154815290600101906020018083116112e057829003601f168201915b5050505050908060030160009054906101000a900460ff16908060030160019054906101000a900460ff16905085565b60055481565b60065481565b6000816001151560008083815260200190815260200160002060030160019054906101000a900460ff1615151461136f57600080fd5b6002808111156113825761138161204e565b5b60008085815260200190815260200160002060030160009054906101000a900460ff1660028111156113b7576113b661204e565b5b14915050919050565b60606001600083815260200190815260200160002080548060200260200160405190810160405280929190818152602001828054801561141f57602002820191906000526020600020905b81548152602001906001019080831161140b575b50505050509050919050565b60036020528160005260406000206020528060005260406000206000915091509054906101000a900460ff1681565b60075481565b806001151560008083815260200190815260200160002060030160019054906101000a900460ff1615151461149457600080fd5b816002808111156114a8576114a761204e565b5b60008083815260200190815260200160002060030160009054906101000a900460ff1660028111156114dd576114dc61204e565b5b14156114e857600080fd5b600260008085815260200190815260200160002060030160006101000a81548160ff021916908360028111156115215761152061204e565b5b02179055507fa589501e457bda1f31782af099f2695facb8e79d38d121802e6ac1c53237b841836040516115559190611d53565b60405180910390a1505050565b6000600260008381526020019081526020016000205460028081111561158b5761158a61204e565b5b60008083815260200190815260200160002060030160009054906101000a900460ff1660028111156115c0576115bf61204e565b5b14156115cb57600080fd5b6004600084815260200190815260200160002054915050919050565b8280546115f390611f73565b90600052602060002090601f016020900481019282611615576000855561165c565b82601f1061162e57805160ff191683800117855561165c565b8280016001018555821561165c579182015b8281111561165b578251825591602001919060010190611640565b5b50905061166991906116b0565b5090565b6040518060a00160405280600081526020016060815260200160608152602001600060028111156116a1576116a061204e565b5b81526020016000151581525090565b5b808211156116c95760008160009055506001016116b1565b5090565b60006116e06116db84611df4565b611dcf565b9050828152602081018484840111156116fc576116fb61210f565b5b611707848285611f31565b509392505050565b60008135905061171e81612192565b92915050565b600082601f8301126117395761173861210a565b5b81356117498482602086016116cd565b91505092915050565b600081359050611761816121a9565b92915050565b6000806040838503121561177e5761177d612119565b5b600061178c8582860161170f565b925050602061179d85828601611752565b9150509250929050565b600080604083850312156117be576117bd612119565b5b600083013567ffffffffffffffff8111156117dc576117db612114565b5b6117e885828601611724565b925050602083013567ffffffffffffffff81111561180957611808612114565b5b61181585828601611724565b9150509250929050565b60006020828403121561183557611834612119565b5b600061184384828501611752565b91505092915050565b6000806000806080858703121561186657611865612119565b5b600061187487828801611752565b945050602085013567ffffffffffffffff81111561189557611894612114565b5b6118a187828801611724565b935050604085013567ffffffffffffffff8111156118c2576118c1612114565b5b6118ce87828801611724565b925050606085013567ffffffffffffffff8111156118ef576118ee612114565b5b6118fb87828801611724565b91505092959194509250565b6000806040838503121561191e5761191d612119565b5b600061192c85828601611752565b925050602061193d85828601611752565b9150509250929050565b60006119538383611b17565b905092915050565b60006119678383611c11565b60208301905092915050565b600061197e82611e45565b6119888185611e80565b93508360208202850161199a85611e25565b8060005b858110156119d657848403895281516119b78582611947565b94506119c283611e66565b925060208a0199505060018101905061199e565b50829750879550505050505092915050565b60006119f382611e50565b6119fd8185611e91565b9350611a0883611e35565b8060005b83811015611a39578151611a20888261195b565b9750611a2b83611e73565b925050600181019050611a0c565b5085935050505092915050565b611a4f81611ed6565b82525050565b611a5e81611ed6565b82525050565b611a6d81611f1f565b82525050565b611a7c81611f1f565b82525050565b6000611a8d82611e5b565b611a978185611ea2565b9350611aa7818560208601611f40565b611ab08161211e565b840191505092915050565b6000611ac682611e5b565b611ad08185611eb3565b9350611ae0818560208601611f40565b611ae98161211e565b840191505092915050565b6000611b01603483611eb3565b9150611b0c8261212f565b604082019050919050565b600060a083016000830151611b2f6000860182611c11565b5060208301518482036020860152611b478282611a82565b91505060408301518482036040860152611b618282611a82565b9150506060830151611b766060860182611a64565b506080830151611b896080860182611a46565b508091505092915050565b600060a083016000830151611bac6000860182611c11565b5060208301518482036020860152611bc48282611a82565b91505060408301518482036040860152611bde8282611a82565b9150506060830151611bf36060860182611a64565b506080830151611c066080860182611a46565b508091505092915050565b611c1a81611f15565b82525050565b611c2981611f15565b82525050565b60006020820190508181036000830152611c498184611973565b905092915050565b60006020820190508181036000830152611c6b81846119e8565b905092915050565b6000602082019050611c886000830184611a55565b92915050565b60006040820190508181036000830152611ca88185611abb565b90508181036020830152611cbc8184611abb565b90509392505050565b60006060820190508181036000830152611cdf8186611abb565b90508181036020830152611cf38185611abb565b90508181036040830152611d078184611abb565b9050949350505050565b60006020820190508181036000830152611d2a81611af4565b9050919050565b60006020820190508181036000830152611d4b8184611b94565b905092915050565b6000602082019050611d686000830184611c20565b92915050565b600060a082019050611d836000830188611c20565b8181036020830152611d958187611abb565b90508181036040830152611da98186611abb565b9050611db86060830185611a73565b611dc56080830184611a55565b9695505050505050565b6000611dd9611dea565b9050611de58282611fa5565b919050565b6000604051905090565b600067ffffffffffffffff821115611e0f57611e0e6120db565b5b611e188261211e565b9050602081019050919050565b6000819050602082019050919050565b6000819050602082019050919050565b600081519050919050565b600081519050919050565b600081519050919050565b6000602082019050919050565b6000602082019050919050565b600082825260208201905092915050565b600082825260208201905092915050565b600082825260208201905092915050565b600082825260208201905092915050565b6000611ecf82611ef5565b9050919050565b60008115159050919050565b6000819050611ef08261217e565b919050565b600073ffffffffffffffffffffffffffffffffffffffff82169050919050565b6000819050919050565b6000611f2a82611ee2565b9050919050565b82818337600083830152505050565b60005b83811015611f5e578082015181840152602081019050611f43565b83811115611f6d576000848401525b50505050565b60006002820490506001821680611f8b57607f821691505b60208210811415611f9f57611f9e61207d565b5b50919050565b611fae8261211e565b810181811067ffffffffffffffff82111715611fcd57611fcc6120db565b5b80604052505050565b6000611fe182611f15565b91507fffffffffffffffffffffffffffffffffffffffffffffffffffffffffffffffff8214156120145761201361201f565b5b600182019050919050565b7f4e487b7100000000000000000000000000000000000000000000000000000000600052601160045260246000fd5b7f4e487b7100000000000000000000000000000000000000000000000000000000600052602160045260246000fd5b7f4e487b7100000000000000000000000000000000000000000000000000000000600052602260045260246000fd5b7f4e487b7100000000000000000000000000000000000000000000000000000000600052603260045260246000fd5b7f4e487b7100000000000000000000000000000000000000000000000000000000600052604160045260246000fd5b600080fd5b600080fd5b600080fd5b600080fd5b6000601f19601f8301169050919050565b7f55736572732063616e6e6f7420766f746520666f72207468652073616d65206560008201527f6e747279206d756c7469706c652074696d65732e000000000000000000000000602082015250565b6003811061218f5761218e61204e565b5b50565b61219b81611ec4565b81146121a657600080fd5b50565b6121b281611f15565b81146121bd57600080fd5b5056fea2646970667358221220c643ac8d7babaae62fbef6e05ddb248558edc294be3033b4f6c44e7294b752cf64736f6c63430008070033",
  "immutableReferences": {},
  "source": "// SPDX-License-Identifier: MIT\r\npragma solidity ^0.8.0;\r\n\r\ncontract Tracks {\r\n  mapping (uint  => Track) public tracks;\r\n  mapping (uint  => uint[]) public trackEntries; //trackId => entryId[]\r\n  mapping (uint  => uint) public entriesTrack; //entryId => trackId\r\n  mapping (address  => mapping (uint => bool)) public votesByAddress; //address => (entryId => bool)\r\n  mapping (uint  => uint) public votes; //entryId => Vote\r\n\r\n  uint public nextTrackId;\r\n  uint public trackCount;\r\n  uint public nextEntryId;\r\n\r\n  enum State {\r\n      TrackOpen,\r\n      TrackClosed,\r\n      TrackBlocked\r\n  }\r\n  struct Track {\r\n      uint  trackId;\r\n      string  name;\r\n      string  desc;\r\n      State state;\r\n      bool exists;\r\n  }\r\n\r\n  event TrackOpened(uint trackId);\r\n  event TrackClosed(uint trackId);\r\n  event TrackBlocked(uint trackId);\r\n  event TrackUnblocked(uint trackId);\r\n  event TrackCreated(uint indexed trackId, string name, string desc);\r\n  event EntryCreated(uint indexed trackId, uint indexed entryId, string name, string desc, string location);\r\n  event EntryVotedFor(uint indexed trackId, uint indexed entryId);\r\n\r\n  /**\r\n   * @dev XXX\r\n   * @param _trackId The id of the track\r\n   */\r\n\tmodifier checkTrackOpen(uint _trackId) {\r\n\t\trequire(tracks[_trackId].state == State.TrackOpen);\r\n    _;\r\n  }\r\n  \r\n\t/**\r\n   * @dev XXX\r\n   * @param _trackId The id of the track\r\n   */\r\n\tmodifier checkTrackClosed(uint _trackId) {\r\n\t\trequire(tracks[_trackId].state == State.TrackClosed);\r\n    _;\r\n  }\r\n  \r\n  /**\r\n   * @dev XXX\r\n   * @param _trackId The id of the track\r\n   */\r\n\tmodifier checkTrackBlocked(uint _trackId) {\r\n\t\trequire(tracks[_trackId].state == State.TrackBlocked);\r\n    _;\r\n  }\r\n  \r\n  /**\r\n   * @dev XXX\r\n   * @param _trackId The id of the track\r\n   */\r\n\tmodifier checkTrackUnblocked(uint _trackId) {\r\n\t\trequire(tracks[_trackId].state != State.TrackBlocked);\r\n    _;\r\n  }\r\n  \r\n  /**\r\n   * @dev XXX\r\n   * @param _trackId The id of the track\r\n   */\r\n\tmodifier checkTrackExists(uint _trackId) {\r\n\t\t\trequire(tracks[_trackId].exists == true);\r\n\t    _;\r\n\t  }\r\n\r\n\tmodifier hasNotVotedForEntry(address _addr, uint _entryId){\r\n\t    require(votesByAddress[msg.sender][_entryId] == false, \"Users cannot vote for the same entry multiple times.\");\r\n\t    _;\r\n\t}\r\n\t/**\r\n   * @dev XXX\r\n   */\r\n  constructor () {\r\n      uint trackId = addTrack(\"first_track\", \"This is the first track\");\r\n      addEntry(trackId, \"name\", \"description\", \"location\");\r\n  }\r\n\r\n\t/**\r\n   * @dev XXX\r\n   */\r\n  function getTracks() public view returns ( Track[] memory) {\r\n      Track[] memory _tracks = new Track[](trackCount);\r\n      for (uint i=0; i<trackCount; i++) {\r\n          _tracks[i] = tracks[i];\r\n      }\r\n      return _tracks;\r\n  }\r\n\r\n  /**\r\n   * @dev XXX\r\n   * @param _trackId The id of the track\r\n   */\r\n  function getTrack(uint _trackId) public view checkTrackUnblocked(_trackId) returns (Track memory) {\r\n      return tracks[_trackId];\r\n  }\r\n\t\r\n\t/**\r\n   * @dev XXX\r\n   * @param _entryId The id of the entry\r\n   */\r\n  function getVotesForEntry(uint _entryId) public view checkTrackUnblocked(entriesTrack[_entryId]) returns (uint) {\r\n      return votes[_entryId];\r\n  }\r\n  \r\n\r\n  /**\r\n   * @dev XXX\r\n   * @param _trackId The id of the track\r\n   */\r\n  function getEntriesForTrack(uint _trackId) public view returns (uint[] memory){\r\n      return trackEntries[_trackId];\r\n  }\r\n\r\n\t/**\r\n   * @dev XXX\r\n   * @param _trackId The id of the track\r\n   */\r\n  function openTrack(uint _trackId) public checkTrackExists(_trackId) checkTrackClosed(_trackId) {\r\n      tracks[_trackId].state = State.TrackOpen;\r\n      emit TrackOpened(_trackId);\r\n  }\r\n\r\n\t/**\r\n   * @dev XXX\r\n   * @param _trackId The id of the track\r\n   */\r\n\tfunction closeTrack(uint _trackId) public checkTrackExists(_trackId) checkTrackOpen(_trackId) {\r\n      tracks[_trackId].state = State.TrackClosed;\r\n      emit TrackClosed(_trackId);\r\n  }\r\n\r\n\t/**\r\n   * @dev XXX\r\n   * @param _trackId The id of the track\r\n   */\r\n\tfunction blockTrack(uint _trackId) public checkTrackExists(_trackId) checkTrackUnblocked(_trackId) {\r\n      tracks[_trackId].state = State.TrackBlocked;\r\n      emit TrackBlocked(_trackId);\r\n  }\r\n\r\n  /**\r\n   * @dev XXX\r\n   * @param _trackId The id of the track\r\n   */\r\n  function unblockTrack(uint _trackId) public checkTrackExists(_trackId) checkTrackBlocked(_trackId) {\r\n      tracks[_trackId].state = State.TrackClosed;\r\n      emit TrackUnblocked(_trackId);\r\n  }\r\n\r\n\t/**\r\n   * @dev XXX\r\n   * @param _trackId The id of the track\r\n   */\r\n  function isTrackOpen(uint _trackId) public view checkTrackExists(_trackId) returns (bool){\r\n      return (tracks[_trackId].state == State.TrackOpen);\r\n  }\r\n  /**\r\n   * @dev XXX\r\n   * @param _trackId The id of the track\r\n   */\r\n  function isTrackClosed(uint _trackId) public view checkTrackExists(_trackId) returns (bool){\r\n      return (tracks[_trackId].state == State.TrackClosed);\r\n  }\r\n  /**\r\n   * @dev XXX\r\n   * @param _trackId The id of the track\r\n   */\r\n  function isTrackBlocked(uint _trackId) public view checkTrackExists(_trackId) returns (bool){\r\n      return (tracks[_trackId].state == State.TrackBlocked);\r\n  }\r\n\r\n\t/**\r\n   * @dev XXX\r\n   * @param _entryId The id of the entry\r\n   */\r\n  function vote(uint _entryId) public checkTrackOpen(entriesTrack[_entryId]) hasNotVotedForEntry(msg.sender, _entryId){\r\n    votesByAddress[msg.sender][_entryId] = true;\r\n    emit EntryVotedFor(entriesTrack[_entryId], _entryId);\r\n  }\r\n\r\n  /**\r\n   * @dev XXX\r\n   * @param _trackId The id of the track\r\n   */\r\n  function addEntry(uint _trackId, string memory _name, string memory _desc, string memory _location) public checkTrackOpen(_trackId) returns (uint) {\r\n    uint entryId = nextEntryId;\r\n    require(entriesTrack[entryId] == 0);\r\n    trackEntries[_trackId].push(entryId);\r\n    entriesTrack[entryId] = _trackId;\r\n    nextEntryId++;\r\n    emit EntryCreated(_trackId, entryId, _name, _desc, _location);\r\n    return entryId;\r\n  }\r\n\r\n\t/**\r\n   * @dev XXX\r\n   * @param _name XXX\r\n   * @param _desc XXX\r\n   */\r\n  function addTrack(string memory _name, string memory _desc) public returns (uint) {\r\n    uint trackId = nextTrackId;\r\n    tracks[trackId] = Track({\r\n      trackId: trackId,\r\n      name: _name,\r\n      desc: _desc,\r\n      state: State.TrackOpen,\r\n      exists: true\r\n    });\r\n    nextTrackId++;\r\n    trackCount++;\r\n    emit TrackCreated(trackId, _name, _desc);\r\n    return trackId;\r\n   }\r\n}\r\n\r\n\r\n",
  "sourcePath": "/Users/niall/projects/blockchain-developer-bootcamp-final-project/tracks/contracts/Tracks.sol",
  "compiler": {
    "name": "solc",
    "version": "0.8.7+commit.e28d00a7.Emscripten.clang"
  },
  "schemaVersion": "3.4.3",
  "updatedAt": "2021-10-05T13:14:34.808Z",
  "networkType": "ethereum",
  "devdoc": {
    "kind": "dev",
    "methods": {
      "addEntry(uint256,string,string,string)": {
        "details": "XXX",
        "params": {
          "_trackId": "The id of the track"
        }
      },
      "addTrack(string,string)": {
        "details": "XXX",
        "params": {
          "_desc": "XXX",
          "_name": "XXX"
        }
      },
      "blockTrack(uint256)": {
        "details": "XXX",
        "params": {
          "_trackId": "The id of the track"
        }
      },
      "closeTrack(uint256)": {
        "details": "XXX",
        "params": {
          "_trackId": "The id of the track"
        }
      },
      "constructor": {
        "details": "XXX"
      },
      "getEntriesForTrack(uint256)": {
        "details": "XXX",
        "params": {
          "_trackId": "The id of the track"
        }
      },
      "getTrack(uint256)": {
        "details": "XXX",
        "params": {
          "_trackId": "The id of the track"
        }
      },
      "getTracks()": {
        "details": "XXX"
      },
      "getVotesForEntry(uint256)": {
        "details": "XXX",
        "params": {
          "_entryId": "The id of the entry"
        }
      },
      "isTrackBlocked(uint256)": {
        "details": "XXX",
        "params": {
          "_trackId": "The id of the track"
        }
      },
      "isTrackClosed(uint256)": {
        "details": "XXX",
        "params": {
          "_trackId": "The id of the track"
        }
      },
      "isTrackOpen(uint256)": {
        "details": "XXX",
        "params": {
          "_trackId": "The id of the track"
        }
      },
      "openTrack(uint256)": {
        "details": "XXX",
        "params": {
          "_trackId": "The id of the track"
        }
      },
      "unblockTrack(uint256)": {
        "details": "XXX",
        "params": {
          "_trackId": "The id of the track"
        }
      },
      "vote(uint256)": {
        "details": "XXX",
        "params": {
          "_entryId": "The id of the entry"
        }
      }
    },
    "version": 1
  },
  "userdoc": {
    "kind": "user",
    "methods": {},
    "version": 1
  }
}