{
  "contractName": "Tracks",
  "abi": [
    {
      "inputs": [],
      "stateMutability": "nonpayable",
      "type": "constructor"
    },
    {
      "anonymous": false,
      "inputs": [
        {
          "indexed": true,
          "internalType": "uint256",
          "name": "trackId",
          "type": "uint256"
        },
        {
          "indexed": true,
          "internalType": "uint256",
          "name": "entryId",
          "type": "uint256"
        },
        {
          "indexed": false,
          "internalType": "string",
          "name": "name",
          "type": "string"
        },
        {
          "indexed": false,
          "internalType": "string",
          "name": "desc",
          "type": "string"
        },
        {
          "indexed": false,
          "internalType": "string",
          "name": "location",
          "type": "string"
        }
      ],
      "name": "EntryCreated",
      "type": "event"
    },
    {
      "anonymous": false,
      "inputs": [
        {
          "indexed": true,
          "internalType": "uint256",
          "name": "trackId",
          "type": "uint256"
        },
        {
          "indexed": true,
          "internalType": "uint256",
          "name": "entryId",
          "type": "uint256"
        }
      ],
      "name": "EntryVotedFor",
      "type": "event"
    },
    {
      "anonymous": false,
      "inputs": [
        {
          "indexed": false,
          "internalType": "uint256",
          "name": "trackId",
          "type": "uint256"
        }
      ],
      "name": "TrackBlocked",
      "type": "event"
    },
    {
      "anonymous": false,
      "inputs": [
        {
          "indexed": false,
          "internalType": "uint256",
          "name": "trackId",
          "type": "uint256"
        }
      ],
      "name": "TrackClosed",
      "type": "event"
    },
    {
      "anonymous": false,
      "inputs": [
        {
          "indexed": true,
          "internalType": "uint256",
          "name": "trackId",
          "type": "uint256"
        },
        {
          "indexed": false,
          "internalType": "string",
          "name": "name",
          "type": "string"
        },
        {
          "indexed": false,
          "internalType": "string",
          "name": "desc",
          "type": "string"
        }
      ],
      "name": "TrackCreated",
      "type": "event"
    },
    {
      "anonymous": false,
      "inputs": [
        {
          "indexed": false,
          "internalType": "uint256",
          "name": "trackId",
          "type": "uint256"
        }
      ],
      "name": "TrackOpened",
      "type": "event"
    },
    {
      "anonymous": false,
      "inputs": [
        {
          "indexed": false,
          "internalType": "uint256",
          "name": "trackId",
          "type": "uint256"
        }
      ],
      "name": "TrackUnblocked",
      "type": "event"
    },
    {
      "inputs": [
        {
          "internalType": "uint256",
          "name": "",
          "type": "uint256"
        }
      ],
      "name": "entriesTrack",
      "outputs": [
        {
          "internalType": "uint256",
          "name": "",
          "type": "uint256"
        }
      ],
      "stateMutability": "view",
      "type": "function"
    },
    {
      "inputs": [],
      "name": "nextEntryId",
      "outputs": [
        {
          "internalType": "uint256",
          "name": "",
          "type": "uint256"
        }
      ],
      "stateMutability": "view",
      "type": "function"
    },
    {
      "inputs": [],
      "name": "nextTrackId",
      "outputs": [
        {
          "internalType": "uint256",
          "name": "",
          "type": "uint256"
        }
      ],
      "stateMutability": "view",
      "type": "function"
    },
    {
      "inputs": [],
      "name": "trackCount",
      "outputs": [
        {
          "internalType": "uint256",
          "name": "",
          "type": "uint256"
        }
      ],
      "stateMutability": "view",
      "type": "function"
    },
    {
      "inputs": [
        {
          "internalType": "uint256",
          "name": "",
          "type": "uint256"
        },
        {
          "internalType": "uint256",
          "name": "",
          "type": "uint256"
        }
      ],
      "name": "trackEntries",
      "outputs": [
        {
          "internalType": "uint256",
          "name": "",
          "type": "uint256"
        }
      ],
      "stateMutability": "view",
      "type": "function"
    },
    {
      "inputs": [
        {
          "internalType": "uint256",
          "name": "",
          "type": "uint256"
        }
      ],
      "name": "tracks",
      "outputs": [
        {
          "internalType": "uint256",
          "name": "trackId",
          "type": "uint256"
        },
        {
          "internalType": "string",
          "name": "name",
          "type": "string"
        },
        {
          "internalType": "string",
          "name": "desc",
          "type": "string"
        },
        {
          "internalType": "enum Tracks.State",
          "name": "state",
          "type": "uint8"
        },
        {
          "internalType": "bool",
          "name": "exists",
          "type": "bool"
        }
      ],
      "stateMutability": "view",
      "type": "function"
    },
    {
      "inputs": [
        {
          "internalType": "uint256",
          "name": "",
          "type": "uint256"
        }
      ],
      "name": "votes",
      "outputs": [
        {
          "internalType": "uint256",
          "name": "",
          "type": "uint256"
        }
      ],
      "stateMutability": "view",
      "type": "function"
    },
    {
      "inputs": [
        {
          "internalType": "address",
          "name": "",
          "type": "address"
        },
        {
          "internalType": "uint256",
          "name": "",
          "type": "uint256"
        }
      ],
      "name": "votesByAddress",
      "outputs": [
        {
          "internalType": "bool",
          "name": "",
          "type": "bool"
        }
      ],
      "stateMutability": "view",
      "type": "function"
    },
    {
      "inputs": [],
      "name": "getTracks",
      "outputs": [
        {
          "components": [
            {
              "internalType": "uint256",
              "name": "trackId",
              "type": "uint256"
            },
            {
              "internalType": "string",
              "name": "name",
              "type": "string"
            },
            {
              "internalType": "string",
              "name": "desc",
              "type": "string"
            },
            {
              "internalType": "enum Tracks.State",
              "name": "state",
              "type": "uint8"
            },
            {
              "internalType": "bool",
              "name": "exists",
              "type": "bool"
            }
          ],
          "internalType": "struct Tracks.Track[]",
          "name": "",
          "type": "tuple[]"
        }
      ],
      "stateMutability": "view",
      "type": "function"
    },
    {
      "inputs": [
        {
          "internalType": "uint256",
          "name": "_trackId",
          "type": "uint256"
        }
      ],
      "name": "getTrack",
      "outputs": [
        {
          "components": [
            {
              "internalType": "uint256",
              "name": "trackId",
              "type": "uint256"
            },
            {
              "internalType": "string",
              "name": "name",
              "type": "string"
            },
            {
              "internalType": "string",
              "name": "desc",
              "type": "string"
            },
            {
              "internalType": "enum Tracks.State",
              "name": "state",
              "type": "uint8"
            },
            {
              "internalType": "bool",
              "name": "exists",
              "type": "bool"
            }
          ],
          "internalType": "struct Tracks.Track",
          "name": "",
          "type": "tuple"
        }
      ],
      "stateMutability": "view",
      "type": "function"
    },
    {
      "inputs": [
        {
          "internalType": "uint256",
          "name": "_entryId",
          "type": "uint256"
        }
      ],
      "name": "getVotesForEntry",
      "outputs": [
        {
          "internalType": "uint256",
          "name": "",
          "type": "uint256"
        }
      ],
      "stateMutability": "view",
      "type": "function"
    },
    {
      "inputs": [
        {
          "internalType": "uint256",
          "name": "_trackId",
          "type": "uint256"
        }
      ],
      "name": "getEntriesForTrack",
      "outputs": [
        {
          "internalType": "uint256[]",
          "name": "",
          "type": "uint256[]"
        }
      ],
      "stateMutability": "view",
      "type": "function"
    },
    {
      "inputs": [
        {
          "internalType": "uint256",
          "name": "_trackId",
          "type": "uint256"
        }
      ],
      "name": "openTrack",
      "outputs": [],
      "stateMutability": "nonpayable",
      "type": "function"
    },
    {
      "inputs": [
        {
          "internalType": "uint256",
          "name": "_trackId",
          "type": "uint256"
        }
      ],
      "name": "closeTrack",
      "outputs": [],
      "stateMutability": "nonpayable",
      "type": "function"
    },
    {
      "inputs": [
        {
          "internalType": "uint256",
          "name": "_trackId",
          "type": "uint256"
        }
      ],
      "name": "blockTrack",
      "outputs": [],
      "stateMutability": "nonpayable",
      "type": "function"
    },
    {
      "inputs": [
        {
          "internalType": "uint256",
          "name": "_trackId",
          "type": "uint256"
        }
      ],
      "name": "unblockTrack",
      "outputs": [],
      "stateMutability": "nonpayable",
      "type": "function"
    },
    {
      "inputs": [
        {
          "internalType": "uint256",
          "name": "_trackId",
          "type": "uint256"
        }
      ],
      "name": "isTrackOpen",
      "outputs": [
        {
          "internalType": "bool",
          "name": "",
          "type": "bool"
        }
      ],
      "stateMutability": "view",
      "type": "function"
    },
    {
      "inputs": [
        {
          "internalType": "uint256",
          "name": "_trackId",
          "type": "uint256"
        }
      ],
      "name": "isTrackClosed",
      "outputs": [
        {
          "internalType": "bool",
          "name": "",
          "type": "bool"
        }
      ],
      "stateMutability": "view",
      "type": "function"
    },
    {
      "inputs": [
        {
          "internalType": "uint256",
          "name": "_trackId",
          "type": "uint256"
        }
      ],
      "name": "isTrackBlocked",
      "outputs": [
        {
          "internalType": "bool",
          "name": "",
          "type": "bool"
        }
      ],
      "stateMutability": "view",
      "type": "function"
    },
    {
      "inputs": [
        {
          "internalType": "uint256",
          "name": "_entryId",
          "type": "uint256"
        }
      ],
      "name": "vote",
      "outputs": [],
      "stateMutability": "nonpayable",
      "type": "function"
    },
    {
      "inputs": [
        {
          "internalType": "uint256",
          "name": "_trackId",
          "type": "uint256"
        },
        {
          "internalType": "string",
          "name": "_name",
          "type": "string"
        },
        {
          "internalType": "string",
          "name": "_desc",
          "type": "string"
        },
        {
          "internalType": "string",
          "name": "_location",
          "type": "string"
        }
      ],
      "name": "addEntry",
      "outputs": [
        {
          "internalType": "uint256",
          "name": "",
          "type": "uint256"
        }
      ],
      "stateMutability": "nonpayable",
      "type": "function"
    },
    {
      "inputs": [
        {
          "internalType": "string",
          "name": "_name",
          "type": "string"
        },
        {
          "internalType": "string",
          "name": "_desc",
          "type": "string"
        }
      ],
      "name": "addTrack",
      "outputs": [
        {
          "internalType": "uint256",
          "name": "",
          "type": "uint256"
        }
      ],
      "stateMutability": "nonpayable",
      "type": "function"
    }
  ],
  "bytecode": "0x60806040523480156200001157600080fd5b506000620000906040518060400160405280600b81526020017f66697273745f747261636b0000000000000000000000000000000000000000008152506040518060400160405280601781526020017f546869732069732074686520666972737420747261636b0000000000000000008152506200014d60201b60201c565b905062000145816040518060400160405280600481526020017f6e616d65000000000000000000000000000000000000000000000000000000008152506040518060400160405280600b81526020017f6465736372697074696f6e0000000000000000000000000000000000000000008152506040518060400160405280600881526020017f6c6f636174696f6e000000000000000000000000000000000000000000000000815250620002bf60201b60201c565b5050620006f8565b60008060055490506040518060a001604052808281526020018581526020018481526020016000600281111562000189576200018862000689565b5b815260200160011515815250600080838152602001908152602001600020600082015181600001556020820151816001019080519060200190620001cf929190620003fc565b506040820151816002019080519060200190620001ee929190620003fc565b5060608201518160030160006101000a81548160ff021916908360028111156200021d576200021c62000689565b5b021790555060808201518160030160016101000a81548160ff021916908315150217905550905050600560008154809291906200025a906200060c565b91905055506006600081548092919062000274906200060c565b9190505550807f21579433a032855e20e8afc48e980ddae0b6285e4aa03370f03192be12bea28b8585604051620002ad929190620004ed565b60405180910390a28091505092915050565b60008460006002811115620002d957620002d862000689565b5b60008083815260200190815260200160002060030160009054906101000a900460ff16600281111562000311576200031062000689565b5b146200031c57600080fd5b6000600754905060006002600083815260200190815260200160002054146200034457600080fd5b6001600088815260200190815260200160002081908060018154018082558091505060019003906000526020600020016000909190919091505586600260008381526020019081526020016000208190555060076000815480929190620003ab906200060c565b919050555080877f313f81e8cc8fe5ab3d1facaeffd8e0d26068ff1776d23a4621a5bdb0c891c817888888604051620003e79392919062000528565b60405180910390a38092505050949350505050565b8280546200040a90620005d6565b90600052602060002090601f0160209004810192826200042e57600085556200047a565b82601f106200044957805160ff19168380011785556200047a565b828001600101855582156200047a579182015b82811115620004795782518255916020019190600101906200045c565b5b5090506200048991906200048d565b5090565b5b80821115620004a85760008160009055506001016200048e565b5090565b6000620004b9826200057a565b620004c5818562000585565b9350620004d7818560208601620005a0565b620004e281620006e7565b840191505092915050565b60006040820190508181036000830152620005098185620004ac565b905081810360208301526200051f8184620004ac565b90509392505050565b60006060820190508181036000830152620005448186620004ac565b905081810360208301526200055a8185620004ac565b90508181036040830152620005708184620004ac565b9050949350505050565b600081519050919050565b600082825260208201905092915050565b6000819050919050565b60005b83811015620005c0578082015181840152602081019050620005a3565b83811115620005d0576000848401525b50505050565b60006002820490506001821680620005ef57607f821691505b60208210811415620006065762000605620006b8565b5b50919050565b6000620006198262000596565b91507fffffffffffffffffffffffffffffffffffffffffffffffffffffffffffffffff8214156200064f576200064e6200065a565b5b600182019050919050565b7f4e487b7100000000000000000000000000000000000000000000000000000000600052601160045260246000fd5b7f4e487b7100000000000000000000000000000000000000000000000000000000600052602160045260246000fd5b7f4e487b7100000000000000000000000000000000000000000000000000000000600052602260045260246000fd5b6000601f19601f8301169050919050565b61206a80620007086000396000f3fe608060405234801561001057600080fd5b50600436106101425760003560e01c806387548fcf116100b8578063caa2c2ad1161007c578063caa2c2ad146103c5578063d02f4483146103f5578063db7c01e214610425578063e6b2cf6c14610455578063ef75976114610473578063ff9edb9e1461048f57610142565b806387548fcf14610307578063924e9b9514610325578063a2e3458614610355578063a72024c614610389578063ab35678c146103a757610142565b806336de40be1161010a57806336de40be1461020f578063423b70321461023f5780635df813301461025b578063629058ca1461028b57806366cb5936146102bb57806368e982b0146102eb57610142565b80630121b93f14610147578063109699b6146101635780631f6c5f00146101935780632e42ddbf146101af57806333abbe51146101df575b600080fd5b610161600480360381019061015c9190611725565b6104bf565b005b61017d6004803603810190610178919061180d565b610582565b60405161018a9190611c16565b60405180910390f35b6101ad60048036038101906101a89190611725565b6105b3565b005b6101c960048036038101906101c49190611752565b6106b5565b6040516101d69190611c16565b60405180910390f35b6101f960048036038101906101f49190611725565b6107e6565b6040516102069190611b56565b60405180910390f35b610229600480360381019061022491906116ad565b61086e565b6040516102369190611c16565b60405180910390f35b61025960048036038101906102549190611725565b6109d0565b005b61027560048036038101906102709190611725565b610ad2565b6040516102829190611c16565b60405180910390f35b6102a560048036038101906102a09190611725565b610aea565b6040516102b29190611bf4565b60405180910390f35b6102d560048036038101906102d09190611725565b610cef565b6040516102e29190611b56565b60405180910390f35b61030560048036038101906103009190611725565b610d77565b005b61030f610e78565b60405161031c9190611b12565b60405180910390f35b61033f600480360381019061033a9190611725565b6110bb565b60405161034c9190611c16565b60405180910390f35b61036f600480360381019061036a9190611725565b6110d3565b604051610380959493929190611c31565b60405180910390f35b610391611233565b60405161039e9190611c16565b60405180910390f35b6103af611239565b6040516103bc9190611c16565b60405180910390f35b6103df60048036038101906103da9190611725565b61123f565b6040516103ec9190611b56565b60405180910390f35b61040f600480360381019061040a9190611725565b6112c6565b60405161041c9190611b34565b60405180910390f35b61043f600480360381019061043a919061166d565b611331565b60405161044c9190611b56565b60405180910390f35b61045d611360565b60405161046a9190611c16565b60405180910390f35b61048d60048036038101906104889190611725565b611366565b005b6104a960048036038101906104a49190611725565b611468565b6040516104b69190611c16565b60405180910390f35b6002600082815260200190815260200160002054600060028111156104e7576104e6611f11565b5b60008083815260200190815260200160002060030160009054906101000a900460ff16600281111561051c5761051b611f11565b5b1461052657600080fd5b3360026000848152602001908152602001600020548360026000868152602001908152602001600020547f23b2bfc0c368fdbec2cf6a0878f8f7ab7d497f92861fa232c0111ca69f63dc8260405160405180910390a350505050565b6001602052816000526040600020818154811061059e57600080fd5b90600052602060002001600091509150505481565b806001151560008083815260200190815260200160002060030160019054906101000a900460ff161515146105e757600080fd5b81600160028111156105fc576105fb611f11565b5b60008083815260200190815260200160002060030160009054906101000a900460ff16600281111561063157610630611f11565b5b1461063b57600080fd5b600080600085815260200190815260200160002060030160006101000a81548160ff0219169083600281111561067457610673611f11565b5b02179055507f5a695f43d53bb74f4457f1a60951e2c514c6de79da9a8d8369848853d647cc6a836040516106a89190611c16565b60405180910390a1505050565b600084600060028111156106cc576106cb611f11565b5b60008083815260200190815260200160002060030160009054906101000a900460ff16600281111561070157610700611f11565b5b1461070b57600080fd5b60006007549050600060026000838152602001908152602001600020541461073257600080fd5b600160008881526020019081526020016000208190806001815401808255809150506001900390600052602060002001600090919091909150558660026000838152602001908152602001600020819055506007600081548092919061079790611e99565b919050555080877f313f81e8cc8fe5ab3d1facaeffd8e0d26068ff1776d23a4621a5bdb0c891c8178888886040516107d193929190611ba8565b60405180910390a38092505050949350505050565b6000816001151560008083815260200190815260200160002060030160019054906101000a900460ff1615151461081c57600080fd5b600160028111156108305761082f611f11565b5b60008085815260200190815260200160002060030160009054906101000a900460ff16600281111561086557610864611f11565b5b14915050919050565b60008060055490506040518060a00160405280828152602001858152602001848152602001600060028111156108a7576108a6611f11565b5b8152602001600115158152506000808381526020019081526020016000206000820151816000015560208201518160010190805190602001906108eb9291906114ed565b5060408201518160020190805190602001906109089291906114ed565b5060608201518160030160006101000a81548160ff0219169083600281111561093457610933611f11565b5b021790555060808201518160030160016101000a81548160ff0219169083151502179055509050506005600081548092919061096f90611e99565b91905055506006600081548092919061098790611e99565b9190505550807f21579433a032855e20e8afc48e980ddae0b6285e4aa03370f03192be12bea28b85856040516109be929190611b71565b60405180910390a28091505092915050565b806001151560008083815260200190815260200160002060030160019054906101000a900460ff16151514610a0457600080fd5b8160006002811115610a1957610a18611f11565b5b60008083815260200190815260200160002060030160009054906101000a900460ff166002811115610a4e57610a4d611f11565b5b14610a5857600080fd5b600160008085815260200190815260200160002060030160006101000a81548160ff02191690836002811115610a9157610a90611f11565b5b02179055507feabb282842a353a61f42a3352791a6bf8d0f0b5d6e9cec67e0a0e2c42f387b9b83604051610ac59190611c16565b60405180910390a1505050565b60046020528060005260406000206000915090505481565b610af2611573565b81600280811115610b0657610b05611f11565b5b60008083815260200190815260200160002060030160009054906101000a900460ff166002811115610b3b57610b3a611f11565b5b1415610b4657600080fd5b6000808481526020019081526020016000206040518060a001604052908160008201548152602001600182018054610b7d90611e36565b80601f0160208091040260200160405190810160405280929190818152602001828054610ba990611e36565b8015610bf65780601f10610bcb57610100808354040283529160200191610bf6565b820191906000526020600020905b815481529060010190602001808311610bd957829003601f168201915b50505050508152602001600282018054610c0f90611e36565b80601f0160208091040260200160405190810160405280929190818152602001828054610c3b90611e36565b8015610c885780601f10610c5d57610100808354040283529160200191610c88565b820191906000526020600020905b815481529060010190602001808311610c6b57829003601f168201915b505050505081526020016003820160009054906101000a900460ff166002811115610cb657610cb5611f11565b5b6002811115610cc857610cc7611f11565b5b81526020016003820160019054906101000a900460ff161515151581525050915050919050565b6000816001151560008083815260200190815260200160002060030160019054906101000a900460ff16151514610d2557600080fd5b60006002811115610d3957610d38611f11565b5b60008085815260200190815260200160002060030160009054906101000a900460ff166002811115610d6e57610d6d611f11565b5b14915050919050565b806001151560008083815260200190815260200160002060030160019054906101000a900460ff16151514610dab57600080fd5b81600280811115610dbf57610dbe611f11565b5b60008083815260200190815260200160002060030160009054906101000a900460ff166002811115610df457610df3611f11565b5b14610dfe57600080fd5b600160008085815260200190815260200160002060030160006101000a81548160ff02191690836002811115610e3757610e36611f11565b5b02179055507fe23a63f864ee1069bc665aa3ed0b1dccc848ab996543e77baed0f465e8145c6083604051610e6b9190611c16565b60405180910390a1505050565b6060600060065467ffffffffffffffff811115610e9857610e97611f9e565b5b604051908082528060200260200182016040528015610ed157816020015b610ebe611573565b815260200190600190039081610eb65790505b50905060005b6006548110156110b3576000808281526020019081526020016000206040518060a001604052908160008201548152602001600182018054610f1890611e36565b80601f0160208091040260200160405190810160405280929190818152602001828054610f4490611e36565b8015610f915780601f10610f6657610100808354040283529160200191610f91565b820191906000526020600020905b815481529060010190602001808311610f7457829003601f168201915b50505050508152602001600282018054610faa90611e36565b80601f0160208091040260200160405190810160405280929190818152602001828054610fd690611e36565b80156110235780601f10610ff857610100808354040283529160200191611023565b820191906000526020600020905b81548152906001019060200180831161100657829003601f168201915b505050505081526020016003820160009054906101000a900460ff16600281111561105157611050611f11565b5b600281111561106357611062611f11565b5b81526020016003820160019054906101000a900460ff16151515158152505082828151811061109557611094611f6f565b5b602002602001018190525080806110ab90611e99565b915050610ed7565b508091505090565b60026020528060005260406000206000915090505481565b60006020528060005260406000206000915090508060000154908060010180546110fc90611e36565b80601f016020809104026020016040519081016040528092919081815260200182805461112890611e36565b80156111755780601f1061114a57610100808354040283529160200191611175565b820191906000526020600020905b81548152906001019060200180831161115857829003601f168201915b50505050509080600201805461118a90611e36565b80601f01602080910402602001604051908101604052809291908181526020018280546111b690611e36565b80156112035780601f106111d857610100808354040283529160200191611203565b820191906000526020600020905b8154815290600101906020018083116111e657829003601f168201915b5050505050908060030160009054906101000a900460ff16908060030160019054906101000a900460ff16905085565b60055481565b60065481565b6000816001151560008083815260200190815260200160002060030160019054906101000a900460ff1615151461127557600080fd5b60028081111561128857611287611f11565b5b60008085815260200190815260200160002060030160009054906101000a900460ff1660028111156112bd576112bc611f11565b5b14915050919050565b60606001600083815260200190815260200160002080548060200260200160405190810160405280929190818152602001828054801561132557602002820191906000526020600020905b815481526020019060010190808311611311575b50505050509050919050565b60036020528160005260406000206020528060005260406000206000915091509054906101000a900460ff1681565b60075481565b806001151560008083815260200190815260200160002060030160019054906101000a900460ff1615151461139a57600080fd5b816002808111156113ae576113ad611f11565b5b60008083815260200190815260200160002060030160009054906101000a900460ff1660028111156113e3576113e2611f11565b5b14156113ee57600080fd5b600260008085815260200190815260200160002060030160006101000a81548160ff0219169083600281111561142757611426611f11565b5b02179055507fa589501e457bda1f31782af099f2695facb8e79d38d121802e6ac1c53237b8418360405161145b9190611c16565b60405180910390a1505050565b6000600260008381526020019081526020016000205460028081111561149157611490611f11565b5b60008083815260200190815260200160002060030160009054906101000a900460ff1660028111156114c6576114c5611f11565b5b14156114d157600080fd5b6004600084815260200190815260200160002054915050919050565b8280546114f990611e36565b90600052602060002090601f01602090048101928261151b5760008555611562565b82601f1061153457805160ff1916838001178555611562565b82800160010185558215611562579182015b82811115611561578251825591602001919060010190611546565b5b50905061156f91906115b6565b5090565b6040518060a00160405280600081526020016060815260200160608152602001600060028111156115a7576115a6611f11565b5b81526020016000151581525090565b5b808211156115cf5760008160009055506001016115b7565b5090565b60006115e66115e184611cb7565b611c92565b90508281526020810184848401111561160257611601611fd2565b5b61160d848285611df4565b509392505050565b60008135905061162481612006565b92915050565b600082601f83011261163f5761163e611fcd565b5b813561164f8482602086016115d3565b91505092915050565b6000813590506116678161201d565b92915050565b6000806040838503121561168457611683611fdc565b5b600061169285828601611615565b92505060206116a385828601611658565b9150509250929050565b600080604083850312156116c4576116c3611fdc565b5b600083013567ffffffffffffffff8111156116e2576116e1611fd7565b5b6116ee8582860161162a565b925050602083013567ffffffffffffffff81111561170f5761170e611fd7565b5b61171b8582860161162a565b9150509250929050565b60006020828403121561173b5761173a611fdc565b5b600061174984828501611658565b91505092915050565b6000806000806080858703121561176c5761176b611fdc565b5b600061177a87828801611658565b945050602085013567ffffffffffffffff81111561179b5761179a611fd7565b5b6117a78782880161162a565b935050604085013567ffffffffffffffff8111156117c8576117c7611fd7565b5b6117d48782880161162a565b925050606085013567ffffffffffffffff8111156117f5576117f4611fd7565b5b6118018782880161162a565b91505092959194509250565b6000806040838503121561182457611823611fdc565b5b600061183285828601611658565b925050602061184385828601611658565b9150509250929050565b600061185983836119fa565b905092915050565b600061186d8383611af4565b60208301905092915050565b600061188482611d08565b61188e8185611d43565b9350836020820285016118a085611ce8565b8060005b858110156118dc57848403895281516118bd858261184d565b94506118c883611d29565b925060208a019950506001810190506118a4565b50829750879550505050505092915050565b60006118f982611d13565b6119038185611d54565b935061190e83611cf8565b8060005b8381101561193f5781516119268882611861565b975061193183611d36565b925050600181019050611912565b5085935050505092915050565b61195581611d99565b82525050565b61196481611d99565b82525050565b61197381611de2565b82525050565b61198281611de2565b82525050565b600061199382611d1e565b61199d8185611d65565b93506119ad818560208601611e03565b6119b681611fe1565b840191505092915050565b60006119cc82611d1e565b6119d68185611d76565b93506119e6818560208601611e03565b6119ef81611fe1565b840191505092915050565b600060a083016000830151611a126000860182611af4565b5060208301518482036020860152611a2a8282611988565b91505060408301518482036040860152611a448282611988565b9150506060830151611a59606086018261196a565b506080830151611a6c608086018261194c565b508091505092915050565b600060a083016000830151611a8f6000860182611af4565b5060208301518482036020860152611aa78282611988565b91505060408301518482036040860152611ac18282611988565b9150506060830151611ad6606086018261196a565b506080830151611ae9608086018261194c565b508091505092915050565b611afd81611dd8565b82525050565b611b0c81611dd8565b82525050565b60006020820190508181036000830152611b2c8184611879565b905092915050565b60006020820190508181036000830152611b4e81846118ee565b905092915050565b6000602082019050611b6b600083018461195b565b92915050565b60006040820190508181036000830152611b8b81856119c1565b90508181036020830152611b9f81846119c1565b90509392505050565b60006060820190508181036000830152611bc281866119c1565b90508181036020830152611bd681856119c1565b90508181036040830152611bea81846119c1565b9050949350505050565b60006020820190508181036000830152611c0e8184611a77565b905092915050565b6000602082019050611c2b6000830184611b03565b92915050565b600060a082019050611c466000830188611b03565b8181036020830152611c5881876119c1565b90508181036040830152611c6c81866119c1565b9050611c7b6060830185611979565b611c88608083018461195b565b9695505050505050565b6000611c9c611cad565b9050611ca88282611e68565b919050565b6000604051905090565b600067ffffffffffffffff821115611cd257611cd1611f9e565b5b611cdb82611fe1565b9050602081019050919050565b6000819050602082019050919050565b6000819050602082019050919050565b600081519050919050565b600081519050919050565b600081519050919050565b6000602082019050919050565b6000602082019050919050565b600082825260208201905092915050565b600082825260208201905092915050565b600082825260208201905092915050565b600082825260208201905092915050565b6000611d9282611db8565b9050919050565b60008115159050919050565b6000819050611db382611ff2565b919050565b600073ffffffffffffffffffffffffffffffffffffffff82169050919050565b6000819050919050565b6000611ded82611da5565b9050919050565b82818337600083830152505050565b60005b83811015611e21578082015181840152602081019050611e06565b83811115611e30576000848401525b50505050565b60006002820490506001821680611e4e57607f821691505b60208210811415611e6257611e61611f40565b5b50919050565b611e7182611fe1565b810181811067ffffffffffffffff82111715611e9057611e8f611f9e565b5b80604052505050565b6000611ea482611dd8565b91507fffffffffffffffffffffffffffffffffffffffffffffffffffffffffffffffff821415611ed757611ed6611ee2565b5b600182019050919050565b7f4e487b7100000000000000000000000000000000000000000000000000000000600052601160045260246000fd5b7f4e487b7100000000000000000000000000000000000000000000000000000000600052602160045260246000fd5b7f4e487b7100000000000000000000000000000000000000000000000000000000600052602260045260246000fd5b7f4e487b7100000000000000000000000000000000000000000000000000000000600052603260045260246000fd5b7f4e487b7100000000000000000000000000000000000000000000000000000000600052604160045260246000fd5b600080fd5b600080fd5b600080fd5b600080fd5b6000601f19601f8301169050919050565b6003811061200357612002611f11565b5b50565b61200f81611d87565b811461201a57600080fd5b50565b61202681611dd8565b811461203157600080fd5b5056fea2646970667358221220260c3e9ea28dfaa8db95eab777dd285527d9b3745088b2a4e1e8a9b36396168064736f6c63430008070033",
  "immutableReferences": {},
  "source": "// SPDX-License-Identifier: MIT\r\npragma solidity ^0.8.0;\r\n\r\ncontract Tracks {\r\n  mapping (uint  => Track) public tracks;\r\n  mapping (uint  => uint[]) public trackEntries; //trackId => entryId[]\r\n  mapping (uint  => uint) public entriesTrack; //entryId => trackId\r\n  mapping (address  => mapping (uint => bool)) public votesByAddress; //address => (trackId => bool)\r\n  mapping (uint  => uint) public votes; //entryId => Vote\r\n\r\n  uint public nextTrackId;\r\n  uint public trackCount;\r\n  uint public nextEntryId;\r\n\r\n  enum State {\r\n      TrackOpen,\r\n      TrackClosed,\r\n      TrackBlocked\r\n  }\r\n  struct Track {\r\n      uint  trackId;\r\n      string  name;\r\n      string  desc;\r\n      State state;\r\n      bool exists;\r\n  }\r\n\r\n  event TrackOpened(uint trackId);\r\n  event TrackClosed(uint trackId);\r\n  event TrackBlocked(uint trackId);\r\n  event TrackUnblocked(uint trackId);\r\n  event TrackCreated(uint indexed trackId, string name, string desc);\r\n  event EntryCreated(uint indexed trackId, uint indexed entryId, string name, string desc, string location);\r\n  event EntryVotedFor(uint indexed trackId, uint indexed entryId);\r\n\r\n  /**\r\n   * @dev XXX\r\n   * @param _trackId The id of the track\r\n   */\r\n\tmodifier checkTrackOpen(uint _trackId) {\r\n\t\trequire(tracks[_trackId].state == State.TrackOpen);\r\n    _;\r\n  }\r\n  \r\n\t/**\r\n   * @dev XXX\r\n   * @param _trackId The id of the track\r\n   */\r\n\tmodifier checkTrackClosed(uint _trackId) {\r\n\t\trequire(tracks[_trackId].state == State.TrackClosed);\r\n    _;\r\n  }\r\n  \r\n  /**\r\n   * @dev XXX\r\n   * @param _trackId The id of the track\r\n   */\r\n\tmodifier checkTrackBlocked(uint _trackId) {\r\n\t\trequire(tracks[_trackId].state == State.TrackBlocked);\r\n    _;\r\n  }\r\n  \r\n  /**\r\n   * @dev XXX\r\n   * @param _trackId The id of the track\r\n   */\r\n\tmodifier checkTrackUnblocked(uint _trackId) {\r\n\t\trequire(tracks[_trackId].state != State.TrackBlocked);\r\n    _;\r\n  }\r\n  \r\n  /**\r\n   * @dev XXX\r\n   * @param _trackId The id of the track\r\n   */\r\n\tmodifier checkTrackExists(uint _trackId) {\r\n\t\t\trequire(tracks[_trackId].exists == true);\r\n\t    _;\r\n\t  }\r\n\r\n\tmodifier hasNotVotedForTrack(address _addr, uint _entryId){\r\n\t    //require(!votesByAddress[msg.sender][entriesTrack[_entryId]]);\r\n\t    _;\r\n\t}\r\n\t/**\r\n   * @dev XXX\r\n   */\r\n  constructor () {\r\n      uint trackId = addTrack(\"first_track\", \"This is the first track\");\r\n      addEntry(trackId, \"name\", \"description\", \"location\");\r\n  }\r\n\r\n\t/**\r\n   * @dev XXX\r\n   */\r\n  function getTracks() public view returns ( Track[] memory) {\r\n      Track[] memory _tracks = new Track[](trackCount);\r\n      for (uint i=0; i<trackCount; i++) {\r\n          _tracks[i] = tracks[i];\r\n      }\r\n      return _tracks;\r\n  }\r\n\r\n  /**\r\n   * @dev XXX\r\n   * @param _trackId The id of the track\r\n   */\r\n  function getTrack(uint _trackId) public view checkTrackUnblocked(_trackId) returns (Track memory) {\r\n      return tracks[_trackId];\r\n  }\r\n\t\r\n\t/**\r\n   * @dev XXX\r\n   * @param _entryId The id of the entry\r\n   */\r\n  function getVotesForEntry(uint _entryId) public view checkTrackUnblocked(entriesTrack[_entryId]) returns (uint) {\r\n      return votes[_entryId];\r\n  }\r\n  \r\n\r\n  /**\r\n   * @dev XXX\r\n   * @param _trackId The id of the track\r\n   */\r\n  function getEntriesForTrack(uint _trackId) public view returns (uint[] memory){\r\n      return trackEntries[_trackId];\r\n  }\r\n\r\n\t/**\r\n   * @dev XXX\r\n   * @param _trackId The id of the track\r\n   */\r\n  function openTrack(uint _trackId) public checkTrackExists(_trackId) checkTrackClosed(_trackId) {\r\n      tracks[_trackId].state = State.TrackOpen;\r\n      emit TrackOpened(_trackId);\r\n  }\r\n\r\n\t/**\r\n   * @dev XXX\r\n   * @param _trackId The id of the track\r\n   */\r\n\tfunction closeTrack(uint _trackId) public checkTrackExists(_trackId) checkTrackOpen(_trackId) {\r\n      tracks[_trackId].state = State.TrackClosed;\r\n      emit TrackClosed(_trackId);\r\n  }\r\n\r\n\t/**\r\n   * @dev XXX\r\n   * @param _trackId The id of the track\r\n   */\r\n\tfunction blockTrack(uint _trackId) public checkTrackExists(_trackId) checkTrackUnblocked(_trackId) {\r\n      tracks[_trackId].state = State.TrackBlocked;\r\n      emit TrackBlocked(_trackId);\r\n  }\r\n\r\n  /**\r\n   * @dev XXX\r\n   * @param _trackId The id of the track\r\n   */\r\n  function unblockTrack(uint _trackId) public checkTrackExists(_trackId) checkTrackBlocked(_trackId) {\r\n      tracks[_trackId].state = State.TrackClosed;\r\n      emit TrackUnblocked(_trackId);\r\n  }\r\n\r\n\t/**\r\n   * @dev XXX\r\n   * @param _trackId The id of the track\r\n   */\r\n  function isTrackOpen(uint _trackId) public view checkTrackExists(_trackId) returns (bool){\r\n      return (tracks[_trackId].state == State.TrackOpen);\r\n  }\r\n  /**\r\n   * @dev XXX\r\n   * @param _trackId The id of the track\r\n   */\r\n  function isTrackClosed(uint _trackId) public view checkTrackExists(_trackId) returns (bool){\r\n      return (tracks[_trackId].state == State.TrackClosed);\r\n  }\r\n  /**\r\n   * @dev XXX\r\n   * @param _trackId The id of the track\r\n   */\r\n  function isTrackBlocked(uint _trackId) public view checkTrackExists(_trackId) returns (bool){\r\n      return (tracks[_trackId].state == State.TrackBlocked);\r\n  }\r\n\r\n\t/**\r\n   * @dev XXX\r\n   * @param _entryId The id of the entry\r\n   */\r\n  function vote(uint _entryId) public checkTrackOpen(entriesTrack[_entryId]) hasNotVotedForTrack(msg.sender,entriesTrack[_entryId]){\r\n    //votesByAddress[msg.sender][entriesTrack[_entryId]] = true;\r\n    //votes[_entryId]++;\r\n \t\temit EntryVotedFor(entriesTrack[_entryId], _entryId);\r\n  }\r\n\r\n  /**\r\n   * @dev XXX\r\n   * @param _trackId The id of the track\r\n   */\r\n  function addEntry(uint _trackId, string memory _name, string memory _desc, string memory _location) public checkTrackOpen(_trackId) returns (uint) {\r\n    uint entryId = nextEntryId;\r\n    require(entriesTrack[entryId] == 0);\r\n    trackEntries[_trackId].push(entryId);\r\n    entriesTrack[entryId] = _trackId;\r\n    nextEntryId++;\r\n    emit EntryCreated(_trackId, entryId, _name, _desc, _location);\r\n    return entryId;\r\n  }\r\n\r\n\t/**\r\n   * @dev XXX\r\n   * @param _name XXX\r\n   * @param _desc XXX\r\n   */\r\n  function addTrack(string memory _name, string memory _desc) public returns (uint) {\r\n    uint trackId = nextTrackId;\r\n    tracks[trackId] = Track({\r\n      trackId: trackId,\r\n      name: _name,\r\n      desc: _desc,\r\n      state: State.TrackOpen,\r\n      exists: true\r\n    });\r\n    nextTrackId++;\r\n    trackCount++;\r\n    emit TrackCreated(trackId, _name, _desc);\r\n    return trackId;\r\n   }\r\n}\r\n\r\n\r\n",
  "sourcePath": "D:\\projects\\blockchain-developer-bootcamp-final-project\\tracks\\contracts\\Tracks.sol",
  "compiler": {
    "name": "solc",
    "version": "0.8.7+commit.e28d00a7.Emscripten.clang"
  },
  "schemaVersion": "3.4.3",
  "updatedAt": "2021-09-30T16:41:11.520Z",
  "devdoc": {
    "kind": "dev",
    "methods": {
      "addEntry(uint256,string,string,string)": {
        "details": "XXX",
        "params": {
          "_trackId": "The id of the track"
        }
      },
      "addTrack(string,string)": {
        "details": "XXX",
        "params": {
          "_desc": "XXX",
          "_name": "XXX"
        }
      },
      "blockTrack(uint256)": {
        "details": "XXX",
        "params": {
          "_trackId": "The id of the track"
        }
      },
      "closeTrack(uint256)": {
        "details": "XXX",
        "params": {
          "_trackId": "The id of the track"
        }
      },
      "constructor": {
        "details": "XXX"
      },
      "getEntriesForTrack(uint256)": {
        "details": "XXX",
        "params": {
          "_trackId": "The id of the track"
        }
      },
      "getTrack(uint256)": {
        "details": "XXX",
        "params": {
          "_trackId": "The id of the track"
        }
      },
      "getTracks()": {
        "details": "XXX"
      },
      "getVotesForEntry(uint256)": {
        "details": "XXX",
        "params": {
          "_entryId": "The id of the entry"
        }
      },
      "isTrackBlocked(uint256)": {
        "details": "XXX",
        "params": {
          "_trackId": "The id of the track"
        }
      },
      "isTrackClosed(uint256)": {
        "details": "XXX",
        "params": {
          "_trackId": "The id of the track"
        }
      },
      "isTrackOpen(uint256)": {
        "details": "XXX",
        "params": {
          "_trackId": "The id of the track"
        }
      },
      "openTrack(uint256)": {
        "details": "XXX",
        "params": {
          "_trackId": "The id of the track"
        }
      },
      "unblockTrack(uint256)": {
        "details": "XXX",
        "params": {
          "_trackId": "The id of the track"
        }
      },
      "vote(uint256)": {
        "details": "XXX",
        "params": {
          "_entryId": "The id of the entry"
        }
      }
    },
    "version": 1
  },
  "userdoc": {
    "kind": "user",
    "methods": {},
    "version": 1
  }
}