{
  "contractName": "Tracks",
  "abi": [
    {
      "inputs": [],
      "stateMutability": "nonpayable",
      "type": "constructor"
    },
    {
      "anonymous": false,
      "inputs": [
        {
          "indexed": true,
          "internalType": "uint256",
          "name": "trackId",
          "type": "uint256"
        },
        {
          "indexed": true,
          "internalType": "uint256",
          "name": "entryId",
          "type": "uint256"
        },
        {
          "indexed": false,
          "internalType": "string",
          "name": "name",
          "type": "string"
        },
        {
          "indexed": false,
          "internalType": "string",
          "name": "desc",
          "type": "string"
        },
        {
          "indexed": false,
          "internalType": "string",
          "name": "location",
          "type": "string"
        }
      ],
      "name": "EntryCreated",
      "type": "event"
    },
    {
      "anonymous": false,
      "inputs": [
        {
          "indexed": true,
          "internalType": "uint256",
          "name": "trackId",
          "type": "uint256"
        },
        {
          "indexed": true,
          "internalType": "uint256",
          "name": "entryId",
          "type": "uint256"
        }
      ],
      "name": "EntryVotedFor",
      "type": "event"
    },
    {
      "anonymous": false,
      "inputs": [
        {
          "indexed": true,
          "internalType": "address",
          "name": "previousOwner",
          "type": "address"
        },
        {
          "indexed": true,
          "internalType": "address",
          "name": "newOwner",
          "type": "address"
        }
      ],
      "name": "OwnershipTransferred",
      "type": "event"
    },
    {
      "anonymous": false,
      "inputs": [
        {
          "indexed": false,
          "internalType": "uint256",
          "name": "trackId",
          "type": "uint256"
        }
      ],
      "name": "TrackBlocked",
      "type": "event"
    },
    {
      "anonymous": false,
      "inputs": [
        {
          "indexed": false,
          "internalType": "uint256",
          "name": "trackId",
          "type": "uint256"
        }
      ],
      "name": "TrackClosed",
      "type": "event"
    },
    {
      "anonymous": false,
      "inputs": [
        {
          "indexed": true,
          "internalType": "uint256",
          "name": "trackId",
          "type": "uint256"
        },
        {
          "indexed": false,
          "internalType": "string",
          "name": "name",
          "type": "string"
        },
        {
          "indexed": false,
          "internalType": "string",
          "name": "desc",
          "type": "string"
        }
      ],
      "name": "TrackCreated",
      "type": "event"
    },
    {
      "anonymous": false,
      "inputs": [
        {
          "indexed": false,
          "internalType": "uint256",
          "name": "trackId",
          "type": "uint256"
        }
      ],
      "name": "TrackOpened",
      "type": "event"
    },
    {
      "anonymous": false,
      "inputs": [
        {
          "indexed": false,
          "internalType": "uint256",
          "name": "trackId",
          "type": "uint256"
        }
      ],
      "name": "TrackUnblocked",
      "type": "event"
    },
    {
      "inputs": [],
      "name": "allTracksState",
      "outputs": [
        {
          "internalType": "enum Tracks.State",
          "name": "",
          "type": "uint8"
        }
      ],
      "stateMutability": "view",
      "type": "function",
      "constant": true
    },
    {
      "inputs": [],
      "name": "allVotesState",
      "outputs": [
        {
          "internalType": "enum Tracks.State",
          "name": "",
          "type": "uint8"
        }
      ],
      "stateMutability": "view",
      "type": "function",
      "constant": true
    },
    {
      "inputs": [
        {
          "internalType": "address",
          "name": "",
          "type": "address"
        }
      ],
      "name": "bannedUsers",
      "outputs": [
        {
          "internalType": "bool",
          "name": "",
          "type": "bool"
        }
      ],
      "stateMutability": "view",
      "type": "function",
      "constant": true
    },
    {
      "inputs": [
        {
          "internalType": "uint256",
          "name": "",
          "type": "uint256"
        }
      ],
      "name": "entriesTrack",
      "outputs": [
        {
          "internalType": "uint256",
          "name": "",
          "type": "uint256"
        }
      ],
      "stateMutability": "view",
      "type": "function",
      "constant": true
    },
    {
      "inputs": [],
      "name": "entryEventCooldownPeriod",
      "outputs": [
        {
          "internalType": "uint256",
          "name": "",
          "type": "uint256"
        }
      ],
      "stateMutability": "view",
      "type": "function",
      "constant": true
    },
    {
      "inputs": [
        {
          "internalType": "address",
          "name": "",
          "type": "address"
        }
      ],
      "name": "entryEventsByUser",
      "outputs": [
        {
          "internalType": "uint256",
          "name": "time",
          "type": "uint256"
        },
        {
          "internalType": "uint256",
          "name": "eventId",
          "type": "uint256"
        }
      ],
      "stateMutability": "view",
      "type": "function",
      "constant": true
    },
    {
      "inputs": [
        {
          "internalType": "address",
          "name": "",
          "type": "address"
        },
        {
          "internalType": "uint256",
          "name": "",
          "type": "uint256"
        }
      ],
      "name": "lastVoteTime",
      "outputs": [
        {
          "internalType": "uint256",
          "name": "",
          "type": "uint256"
        }
      ],
      "stateMutability": "view",
      "type": "function",
      "constant": true
    },
    {
      "inputs": [],
      "name": "nextEntryId",
      "outputs": [
        {
          "internalType": "uint256",
          "name": "",
          "type": "uint256"
        }
      ],
      "stateMutability": "view",
      "type": "function",
      "constant": true
    },
    {
      "inputs": [],
      "name": "nextTrackId",
      "outputs": [
        {
          "internalType": "uint256",
          "name": "",
          "type": "uint256"
        }
      ],
      "stateMutability": "view",
      "type": "function",
      "constant": true
    },
    {
      "inputs": [],
      "name": "owner",
      "outputs": [
        {
          "internalType": "address",
          "name": "",
          "type": "address"
        }
      ],
      "stateMutability": "view",
      "type": "function",
      "constant": true
    },
    {
      "inputs": [],
      "name": "renounceOwnership",
      "outputs": [],
      "stateMutability": "nonpayable",
      "type": "function"
    },
    {
      "inputs": [],
      "name": "trackCount",
      "outputs": [
        {
          "internalType": "uint256",
          "name": "",
          "type": "uint256"
        }
      ],
      "stateMutability": "view",
      "type": "function",
      "constant": true
    },
    {
      "inputs": [
        {
          "internalType": "uint256",
          "name": "",
          "type": "uint256"
        },
        {
          "internalType": "uint256",
          "name": "",
          "type": "uint256"
        }
      ],
      "name": "trackEntries",
      "outputs": [
        {
          "internalType": "uint256",
          "name": "",
          "type": "uint256"
        }
      ],
      "stateMutability": "view",
      "type": "function",
      "constant": true
    },
    {
      "inputs": [],
      "name": "trackEventCooldownPeriod",
      "outputs": [
        {
          "internalType": "uint256",
          "name": "",
          "type": "uint256"
        }
      ],
      "stateMutability": "view",
      "type": "function",
      "constant": true
    },
    {
      "inputs": [
        {
          "internalType": "address",
          "name": "",
          "type": "address"
        }
      ],
      "name": "trackEventsByUser",
      "outputs": [
        {
          "internalType": "uint256",
          "name": "time",
          "type": "uint256"
        },
        {
          "internalType": "uint256",
          "name": "trackId",
          "type": "uint256"
        }
      ],
      "stateMutability": "view",
      "type": "function",
      "constant": true
    },
    {
      "inputs": [
        {
          "internalType": "uint256",
          "name": "",
          "type": "uint256"
        }
      ],
      "name": "trackOwners",
      "outputs": [
        {
          "internalType": "address",
          "name": "",
          "type": "address"
        }
      ],
      "stateMutability": "view",
      "type": "function",
      "constant": true
    },
    {
      "inputs": [
        {
          "internalType": "uint256",
          "name": "",
          "type": "uint256"
        }
      ],
      "name": "tracks",
      "outputs": [
        {
          "internalType": "uint256",
          "name": "trackId",
          "type": "uint256"
        },
        {
          "internalType": "string",
          "name": "name",
          "type": "string"
        },
        {
          "internalType": "string",
          "name": "desc",
          "type": "string"
        },
        {
          "internalType": "enum Tracks.State",
          "name": "state",
          "type": "uint8"
        },
        {
          "internalType": "bool",
          "name": "exists",
          "type": "bool"
        }
      ],
      "stateMutability": "view",
      "type": "function",
      "constant": true
    },
    {
      "inputs": [
        {
          "internalType": "address",
          "name": "newOwner",
          "type": "address"
        }
      ],
      "name": "transferOwnership",
      "outputs": [],
      "stateMutability": "nonpayable",
      "type": "function"
    },
    {
      "inputs": [],
      "name": "voteCooldownPeriod",
      "outputs": [
        {
          "internalType": "uint256",
          "name": "",
          "type": "uint256"
        }
      ],
      "stateMutability": "view",
      "type": "function",
      "constant": true
    },
    {
      "inputs": [
        {
          "internalType": "address",
          "name": "",
          "type": "address"
        },
        {
          "internalType": "uint256",
          "name": "",
          "type": "uint256"
        }
      ],
      "name": "votesByAddress",
      "outputs": [
        {
          "internalType": "bool",
          "name": "",
          "type": "bool"
        }
      ],
      "stateMutability": "view",
      "type": "function",
      "constant": true
    },
    {
      "inputs": [
        {
          "internalType": "uint256",
          "name": "",
          "type": "uint256"
        }
      ],
      "name": "votesByTrack",
      "outputs": [
        {
          "internalType": "uint256",
          "name": "",
          "type": "uint256"
        }
      ],
      "stateMutability": "view",
      "type": "function",
      "constant": true
    },
    {
      "inputs": [],
      "name": "getTracks",
      "outputs": [
        {
          "components": [
            {
              "internalType": "uint256",
              "name": "trackId",
              "type": "uint256"
            },
            {
              "internalType": "string",
              "name": "name",
              "type": "string"
            },
            {
              "internalType": "string",
              "name": "desc",
              "type": "string"
            },
            {
              "internalType": "enum Tracks.State",
              "name": "state",
              "type": "uint8"
            },
            {
              "internalType": "bool",
              "name": "exists",
              "type": "bool"
            }
          ],
          "internalType": "struct Tracks.Track[]",
          "name": "",
          "type": "tuple[]"
        }
      ],
      "stateMutability": "view",
      "type": "function",
      "constant": true
    },
    {
      "inputs": [
        {
          "internalType": "uint256",
          "name": "_trackId",
          "type": "uint256"
        }
      ],
      "name": "getTrack",
      "outputs": [
        {
          "components": [
            {
              "internalType": "uint256",
              "name": "trackId",
              "type": "uint256"
            },
            {
              "internalType": "string",
              "name": "name",
              "type": "string"
            },
            {
              "internalType": "string",
              "name": "desc",
              "type": "string"
            },
            {
              "internalType": "enum Tracks.State",
              "name": "state",
              "type": "uint8"
            },
            {
              "internalType": "bool",
              "name": "exists",
              "type": "bool"
            }
          ],
          "internalType": "struct Tracks.Track",
          "name": "",
          "type": "tuple"
        }
      ],
      "stateMutability": "view",
      "type": "function",
      "constant": true
    },
    {
      "inputs": [
        {
          "internalType": "uint256",
          "name": "_trackId",
          "type": "uint256"
        }
      ],
      "name": "getEntriesForTrack",
      "outputs": [
        {
          "internalType": "uint256[]",
          "name": "",
          "type": "uint256[]"
        }
      ],
      "stateMutability": "view",
      "type": "function",
      "constant": true
    },
    {
      "inputs": [
        {
          "internalType": "uint256",
          "name": "_trackId",
          "type": "uint256"
        }
      ],
      "name": "openTrack",
      "outputs": [],
      "stateMutability": "nonpayable",
      "type": "function"
    },
    {
      "inputs": [
        {
          "internalType": "uint256",
          "name": "_trackId",
          "type": "uint256"
        }
      ],
      "name": "closeTrack",
      "outputs": [],
      "stateMutability": "nonpayable",
      "type": "function"
    },
    {
      "inputs": [
        {
          "internalType": "uint256",
          "name": "_trackId",
          "type": "uint256"
        }
      ],
      "name": "blockTrack",
      "outputs": [],
      "stateMutability": "nonpayable",
      "type": "function"
    },
    {
      "inputs": [
        {
          "internalType": "uint256",
          "name": "_trackId",
          "type": "uint256"
        }
      ],
      "name": "unblockTrack",
      "outputs": [],
      "stateMutability": "nonpayable",
      "type": "function"
    },
    {
      "inputs": [
        {
          "internalType": "uint256",
          "name": "_trackId",
          "type": "uint256"
        }
      ],
      "name": "isTrackOpen",
      "outputs": [
        {
          "internalType": "bool",
          "name": "",
          "type": "bool"
        }
      ],
      "stateMutability": "view",
      "type": "function",
      "constant": true
    },
    {
      "inputs": [
        {
          "internalType": "uint256",
          "name": "_trackId",
          "type": "uint256"
        }
      ],
      "name": "isTrackClosed",
      "outputs": [
        {
          "internalType": "bool",
          "name": "",
          "type": "bool"
        }
      ],
      "stateMutability": "view",
      "type": "function",
      "constant": true
    },
    {
      "inputs": [
        {
          "internalType": "uint256",
          "name": "_trackId",
          "type": "uint256"
        }
      ],
      "name": "isTrackBlocked",
      "outputs": [
        {
          "internalType": "bool",
          "name": "",
          "type": "bool"
        }
      ],
      "stateMutability": "view",
      "type": "function",
      "constant": true
    },
    {
      "inputs": [
        {
          "internalType": "uint256",
          "name": "_entryId",
          "type": "uint256"
        }
      ],
      "name": "vote",
      "outputs": [],
      "stateMutability": "nonpayable",
      "type": "function"
    },
    {
      "inputs": [
        {
          "internalType": "uint256",
          "name": "_trackId",
          "type": "uint256"
        },
        {
          "internalType": "string",
          "name": "_name",
          "type": "string"
        },
        {
          "internalType": "string",
          "name": "_desc",
          "type": "string"
        },
        {
          "internalType": "string",
          "name": "_location",
          "type": "string"
        }
      ],
      "name": "addEntry",
      "outputs": [
        {
          "internalType": "uint256",
          "name": "",
          "type": "uint256"
        }
      ],
      "stateMutability": "nonpayable",
      "type": "function"
    },
    {
      "inputs": [
        {
          "internalType": "string",
          "name": "_name",
          "type": "string"
        },
        {
          "internalType": "string",
          "name": "_desc",
          "type": "string"
        }
      ],
      "name": "addTrack",
      "outputs": [
        {
          "internalType": "uint256",
          "name": "",
          "type": "uint256"
        }
      ],
      "stateMutability": "nonpayable",
      "type": "function"
    },
    {
      "inputs": [
        {
          "internalType": "bool",
          "name": "enable",
          "type": "bool"
        }
      ],
      "name": "disableAllTracks",
      "outputs": [],
      "stateMutability": "nonpayable",
      "type": "function"
    },
    {
      "inputs": [
        {
          "internalType": "bool",
          "name": "enable",
          "type": "bool"
        }
      ],
      "name": "disableAllVoting",
      "outputs": [],
      "stateMutability": "nonpayable",
      "type": "function"
    },
    {
      "inputs": [
        {
          "internalType": "address",
          "name": "addr",
          "type": "address"
        },
        {
          "internalType": "bool",
          "name": "banned",
          "type": "bool"
        }
      ],
      "name": "banUser",
      "outputs": [],
      "stateMutability": "nonpayable",
      "type": "function"
    }
  ],
  "bytecode": "0x60806040523480156200001157600080fd5b506200003262000026620001e160201b60201c565b620001e960201b60201c565b603c600e81905550603c600f81905550603c6010819055506000601160006101000a81548160ff0219169083600281111562000073576200007262000f59565b5b02179055506000601160016101000a81548160ff02191690836002811115620000a157620000a062000f59565b5b02179055506000620001246040518060400160405280600b81526020017f66697273745f747261636b0000000000000000000000000000000000000000008152506040518060400160405280601781526020017f546869732069732074686520666972737420747261636b000000000000000000815250620002ad60201b60201c565b9050620001d9816040518060400160405280600481526020017f6e616d65000000000000000000000000000000000000000000000000000000008152506040518060400160405280600b81526020017f6465736372697074696f6e0000000000000000000000000000000000000000008152506040518060400160405280600881526020017f6c6f636174696f6e000000000000000000000000000000000000000000000000815250620006dc60201b60201c565b50506200112d565b600033905090565b60008060009054906101000a900473ffffffffffffffffffffffffffffffffffffffff169050816000806101000a81548173ffffffffffffffffffffffffffffffffffffffff021916908373ffffffffffffffffffffffffffffffffffffffff1602179055508173ffffffffffffffffffffffffffffffffffffffff168173ffffffffffffffffffffffffffffffffffffffff167f8be0079c531659141344cd1fd0a4f28419497f9722a3daafe3b4186f6b6457e060405160405180910390a35050565b6000600280811115620002c557620002c462000f59565b5b601160009054906101000a900460ff166002811115620002ea57620002e962000f59565b5b14156200032e576040517f08c379a0000000000000000000000000000000000000000000000000000000008152600401620003259062000da9565b60405180910390fd5b336000600660008373ffffffffffffffffffffffffffffffffffffffff1673ffffffffffffffffffffffffffffffffffffffff168152602001908152602001600020600001541480620003d1575042601054600660008473ffffffffffffffffffffffffffffffffffffffff1673ffffffffffffffffffffffffffffffffffffffff16815260200190815260200160002060000154620003cf919062000e09565b115b62000413576040517f08c379a00000000000000000000000000000000000000000000000000000000081526004016200040a9062000dcb565b60405180910390fd5b3360011515600a60003373ffffffffffffffffffffffffffffffffffffffff1673ffffffffffffffffffffffffffffffffffffffff16815260200190815260200160002060009054906101000a900460ff1615151415620004ab576040517f08c379a0000000000000000000000000000000000000000000000000000000008152600401620004a29062000d87565b60405180910390fd5b6000600b5490506040518060a0016040528082815260200187815260200186815260200160006002811115620004e657620004e562000f59565b5b815260200160011515815250600160008381526020019081526020016000206000820151816000015560208201518160010190805190602001906200052d92919062000b02565b5060408201518160020190805190602001906200054c92919062000b02565b5060608201518160030160006101000a81548160ff021916908360028111156200057b576200057a62000f59565b5b021790555060808201518160030160016101000a81548160ff021916908315150217905550905050604051806040016040528042815260200182815250600660003373ffffffffffffffffffffffffffffffffffffffff1673ffffffffffffffffffffffffffffffffffffffff1681526020019081526020016000206000820151816000015560208201518160010155905050336004600083815260200190815260200160002060006101000a81548173ffffffffffffffffffffffffffffffffffffffff021916908373ffffffffffffffffffffffffffffffffffffffff160217905550600b6000815480929190620006759062000edc565b9190505550600c60008154809291906200068f9062000edc565b9190505550807f21579433a032855e20e8afc48e980ddae0b6285e4aa03370f03192be12bea28b8787604051620006c892919062000cb6565b60405180910390a280935050505092915050565b6000600280811115620006f457620006f362000f59565b5b601160009054906101000a900460ff16600281111562000719576200071862000f59565b5b14156200075d576040517f08c379a0000000000000000000000000000000000000000000000000000000008152600401620007549062000da9565b60405180910390fd5b3360011515600a60003373ffffffffffffffffffffffffffffffffffffffff1673ffffffffffffffffffffffffffffffffffffffff16815260200190815260200160002060009054906101000a900460ff1615151415620007f5576040517f08c379a0000000000000000000000000000000000000000000000000000000008152600401620007ec9062000d87565b60405180910390fd5b336000600760008373ffffffffffffffffffffffffffffffffffffffff1673ffffffffffffffffffffffffffffffffffffffff16815260200190815260200160002060000154148062000898575042600f54600760008473ffffffffffffffffffffffffffffffffffffffff1673ffffffffffffffffffffffffffffffffffffffff1681526020019081526020016000206000015462000896919062000e09565b115b620008da576040517f08c379a0000000000000000000000000000000000000000000000000000000008152600401620008d19062000d65565b60405180910390fd5b8660006002811115620008f257620008f162000f59565b5b6001600083815260200190815260200160002060030160009054906101000a900460ff1660028111156200092b576200092a62000f59565b5b146200093657600080fd5b600060028111156200094d576200094c62000f59565b5b601160009054906101000a900460ff16600281111562000972576200097162000f59565b5b14620009b5576040517f08c379a0000000000000000000000000000000000000000000000000000000008152600401620009ac9062000d43565b60405180910390fd5b6000600d5490506000600360008381526020019081526020016000205414620009dd57600080fd5b600260008a8152602001908152602001600020819080600181540180825580915050600190039060005260206000200160009091909190915055886003600083815260200190815260200160002081905550604051806040016040528042815260200182815250600760003373ffffffffffffffffffffffffffffffffffffffff1673ffffffffffffffffffffffffffffffffffffffff1681526020019081526020016000206000820151816000015560208201518160010155905050600d600081548092919062000aaf9062000edc565b919050555080897f313f81e8cc8fe5ab3d1facaeffd8e0d26068ff1776d23a4621a5bdb0c891c8178a8a8a60405162000aeb9392919062000cf1565b60405180910390a380945050505050949350505050565b82805462000b109062000ea6565b90600052602060002090601f01602090048101928262000b34576000855562000b80565b82601f1062000b4f57805160ff191683800117855562000b80565b8280016001018555821562000b80579182015b8281111562000b7f57825182559160200191906001019062000b62565b5b50905062000b8f919062000b93565b5090565b5b8082111562000bae57600081600090555060010162000b94565b5090565b600062000bbf8262000ded565b62000bcb818562000df8565b935062000bdd81856020860162000e70565b62000be88162000fb7565b840191505092915050565b600062000c0260248362000df8565b915062000c0f8262000fc8565b604082019050919050565b600062000c2960248362000df8565b915062000c368262001017565b604082019050919050565b600062000c50601d8362000df8565b915062000c5d8262001066565b602082019050919050565b600062000c7760258362000df8565b915062000c84826200108f565b604082019050919050565b600062000c9e60248362000df8565b915062000cab82620010de565b604082019050919050565b6000604082019050818103600083015262000cd2818562000bb2565b9050818103602083015262000ce8818462000bb2565b90509392505050565b6000606082019050818103600083015262000d0d818662000bb2565b9050818103602083015262000d23818562000bb2565b9050818103604083015262000d39818462000bb2565b9050949350505050565b6000602082019050818103600083015262000d5e8162000bf3565b9050919050565b6000602082019050818103600083015262000d808162000c1a565b9050919050565b6000602082019050818103600083015262000da28162000c41565b9050919050565b6000602082019050818103600083015262000dc48162000c68565b9050919050565b6000602082019050818103600083015262000de68162000c8f565b9050919050565b600081519050919050565b600082825260208201905092915050565b600062000e168262000e66565b915062000e238362000e66565b9250827fffffffffffffffffffffffffffffffffffffffffffffffffffffffffffffffff0382111562000e5b5762000e5a62000f2a565b5b828201905092915050565b6000819050919050565b60005b8381101562000e9057808201518184015260208101905062000e73565b8381111562000ea0576000848401525b50505050565b6000600282049050600182168062000ebf57607f821691505b6020821081141562000ed65762000ed562000f88565b5b50919050565b600062000ee98262000e66565b91507fffffffffffffffffffffffffffffffffffffffffffffffffffffffffffffffff82141562000f1f5762000f1e62000f2a565b5b600182019050919050565b7f4e487b7100000000000000000000000000000000000000000000000000000000600052601160045260246000fd5b7f4e487b7100000000000000000000000000000000000000000000000000000000600052602160045260246000fd5b7f4e487b7100000000000000000000000000000000000000000000000000000000600052602260045260246000fd5b6000601f19601f8301169050919050565b7f416c6c20747261636b732068617665206265656e20636c6f736564206279206160008201527f646d696e00000000000000000000000000000000000000000000000000000000602082015250565b7f557365722069732063757272656e746c7920696e20656e74727920636f6f6c6460008201527f6f776e2e00000000000000000000000000000000000000000000000000000000602082015250565b7f5573657220686173206265656e2062616e6e65642062792061646d696e000000600082015250565b7f416c6c20747261636b732068617665206265656e20626c6f636b65642062792060008201527f61646d696e000000000000000000000000000000000000000000000000000000602082015250565b7f557365722069732063757272656e746c7920696e20747261636b20636f6f6c6460008201527f6f776e2e00000000000000000000000000000000000000000000000000000000602082015250565b613c1e806200113d6000396000f3fe608060405234801561001057600080fd5b50600436106102275760003560e01c8063924e9b9511610130578063caa2c2ad116100b8578063eea85bc51161007c578063eea85bc5146106ef578063ef75976114610720578063f2fde38b1461073c578063f838e33f14610758578063fb0084471461077657610227565b8063caa2c2ad14610610578063d02f448314610640578063db7c01e214610670578063debe8ab7146106a0578063e6b2cf6c146106d157610227565b8063a5bf8ea9116100ff578063a5bf8ea91461057e578063a72024c61461059a578063ab35678c146105b8578063add509c0146105d6578063bb855ee6146105f257610227565b8063924e9b95146104ba57806395ab2b98146104ea578063962dd8071461051a578063a2e345861461054a57610227565b80635e11ca82116101b3578063715018a611610182578063715018a61461042857806387548fcf146104325780638988d078146104505780638da5cb5b146104805780638ee223f91461049e57610227565b80635e11ca821461038e578063629058ca146103ac57806366cb5936146103dc57806368e982b01461040c57610227565b80632e42ddbf116101fa5780632e42ddbf146102b257806333abbe51146102e257806336de40be14610312578063423b7032146103425780634bc558b31461035e57610227565b80630121b93f1461022c5780630955ccff14610248578063109699b6146102665780631f6c5f0014610296575b600080fd5b61024660048036038101906102419190612c96565b610794565b005b610250610c69565b60405161025d919061346a565b60405180910390f35b610280600480360381019061027b9190612d7e565b610c6f565b60405161028d919061346a565b60405180910390f35b6102b060048036038101906102ab9190612c96565b610ca0565b005b6102cc60048036038101906102c79190612cc3565b610e3b565b6040516102d9919061346a565b60405180910390f35b6102fc60048036038101906102f79190612c96565b61123a565b604051610309919061324f565b60405180910390f35b61032c60048036038101906103279190612c1e565b6112c4565b604051610339919061346a565b60405180910390f35b61035c60048036038101906103579190612c96565b6116d1565b005b61037860048036038101906103739190612bb1565b6118e1565b604051610385919061346a565b60405180910390f35b610396611906565b6040516103a3919061326a565b60405180910390f35b6103c660048036038101906103c19190612c96565b611919565b6040516103d39190613448565b60405180910390f35b6103f660048036038101906103f19190612c96565b611b20565b604051610403919061324f565b60405180910390f35b61042660048036038101906104219190612c96565b611baa565b005b610430611d43565b005b61043a611dcb565b604051610447919061320b565b60405180910390f35b61046a60048036038101906104659190612b44565b61200f565b604051610477919061324f565b60405180910390f35b61048861202f565b60405161049591906131f0565b60405180910390f35b6104b860048036038101906104b39190612b71565b612058565b005b6104d460048036038101906104cf9190612c96565b61212f565b6040516104e1919061346a565b60405180910390f35b61050460048036038101906104ff9190612c96565b612147565b60405161051191906131f0565b60405180910390f35b610534600480360381019061052f9190612c96565b61217a565b604051610541919061346a565b60405180910390f35b610564600480360381019061055f9190612c96565b612192565b604051610575959493929190613485565b60405180910390f35b61059860048036038101906105939190612bf1565b6122f2565b005b6105a26123d3565b6040516105af919061346a565b60405180910390f35b6105c06123d9565b6040516105cd919061346a565b60405180910390f35b6105f060048036038101906105eb9190612bf1565b6123df565b005b6105fa6124c0565b604051610607919061346a565b60405180910390f35b61062a60048036038101906106259190612c96565b6124c6565b604051610637919061324f565b60405180910390f35b61065a60048036038101906106559190612c96565b61254f565b604051610667919061322d565b60405180910390f35b61068a60048036038101906106859190612bb1565b6125ba565b604051610697919061324f565b60405180910390f35b6106ba60048036038101906106b59190612b44565b6125e9565b6040516106c89291906134e6565b60405180910390f35b6106d961260d565b6040516106e6919061346a565b60405180910390f35b61070960048036038101906107049190612b44565b612613565b6040516107179291906134e6565b60405180910390f35b61073a60048036038101906107359190612c96565b612637565b005b61075660048036038101906107519190612b44565b6127d2565b005b6107606128ca565b60405161076d919061346a565b60405180910390f35b61077e6128d0565b60405161078b919061326a565b60405180910390f35b6003600082815260200190815260200160002054600060028111156107bc576107bb6137e4565b5b6001600083815260200190815260200160002060030160009054906101000a900460ff1660028111156107f2576107f16137e4565b5b146107fc57600080fd5b600060028111156108105761080f6137e4565b5b601160009054906101000a900460ff166002811115610832576108316137e4565b5b14610872576040517f08c379a000000000000000000000000000000000000000000000000000000000815260040161086990613348565b60405180910390fd5b338260001515600560003373ffffffffffffffffffffffffffffffffffffffff1673ffffffffffffffffffffffffffffffffffffffff168152602001908152602001600020600083815260200190815260200160002060009054906101000a900460ff16151514610918576040517f08c379a000000000000000000000000000000000000000000000000000000000815260040161090f90613388565b60405180910390fd5b60028081111561092b5761092a6137e4565b5b601160019054906101000a900460ff16600281111561094d5761094c6137e4565b5b141561098e576040517f08c379a0000000000000000000000000000000000000000000000000000000008152600401610985906133a8565b60405180910390fd5b3360011515600a60003373ffffffffffffffffffffffffffffffffffffffff1673ffffffffffffffffffffffffffffffffffffffff16815260200190815260200160002060009054906101000a900460ff1615151415610a23576040517f08c379a0000000000000000000000000000000000000000000000000000000008152600401610a1a906133e8565b60405180910390fd5b3360036000878152602001908152602001600020546000600960008473ffffffffffffffffffffffffffffffffffffffff1673ffffffffffffffffffffffffffffffffffffffff1681526020019081526020016000206000838152602001908152602001600020541480610af3575042600e54600960008573ffffffffffffffffffffffffffffffffffffffff1673ffffffffffffffffffffffffffffffffffffffff168152602001908152602001600020600084815260200190815260200160002054610af19190613604565b115b610b32576040517f08c379a0000000000000000000000000000000000000000000000000000000008152600401610b2990613308565b60405180910390fd5b6000600360008981526020019081526020016000205490506001600560003373ffffffffffffffffffffffffffffffffffffffff1673ffffffffffffffffffffffffffffffffffffffff16815260200190815260200160002060008a815260200190815260200160002060006101000a81548160ff02191690831515021790555042600960003373ffffffffffffffffffffffffffffffffffffffff1673ffffffffffffffffffffffffffffffffffffffff168152602001908152602001600020600083815260200190815260200160002081905550600860008281526020019081526020016000206000815480929190610c2c9061376c565b919050555087817f23b2bfc0c368fdbec2cf6a0878f8f7ab7d497f92861fa232c0111ca69f63dc8260405160405180910390a35050505050505050565b600e5481565b60026020528160005260406000208181548110610c8b57600080fd5b90600052602060002001600091509150505481565b80600115156001600083815260200190815260200160002060030160019054906101000a900460ff16151514610cd557600080fd5b8160016002811115610cea57610ce96137e4565b5b6001600083815260200190815260200160002060030160009054906101000a900460ff166002811115610d2057610d1f6137e4565b5b14610d2a57600080fd5b3360011515600a60003373ffffffffffffffffffffffffffffffffffffffff1673ffffffffffffffffffffffffffffffffffffffff16815260200190815260200160002060009054906101000a900460ff1615151415610dbf576040517f08c379a0000000000000000000000000000000000000000000000000000000008152600401610db6906133e8565b60405180910390fd5b60006001600086815260200190815260200160002060030160006101000a81548160ff02191690836002811115610df957610df86137e4565b5b02179055507f5a695f43d53bb74f4457f1a60951e2c514c6de79da9a8d8369848853d647cc6a84604051610e2d919061346a565b60405180910390a150505050565b6000600280811115610e5057610e4f6137e4565b5b601160009054906101000a900460ff166002811115610e7257610e716137e4565b5b1415610eb3576040517f08c379a0000000000000000000000000000000000000000000000000000000008152600401610eaa90613408565b60405180910390fd5b3360011515600a60003373ffffffffffffffffffffffffffffffffffffffff1673ffffffffffffffffffffffffffffffffffffffff16815260200190815260200160002060009054906101000a900460ff1615151415610f48576040517f08c379a0000000000000000000000000000000000000000000000000000000008152600401610f3f906133e8565b60405180910390fd5b336000600760008373ffffffffffffffffffffffffffffffffffffffff1673ffffffffffffffffffffffffffffffffffffffff168152602001908152602001600020600001541480610fe8575042600f54600760008473ffffffffffffffffffffffffffffffffffffffff1673ffffffffffffffffffffffffffffffffffffffff16815260200190815260200160002060000154610fe69190613604565b115b611027576040517f08c379a000000000000000000000000000000000000000000000000000000000815260040161101e90613368565b60405180910390fd5b866000600281111561103c5761103b6137e4565b5b6001600083815260200190815260200160002060030160009054906101000a900460ff166002811115611072576110716137e4565b5b1461107c57600080fd5b600060028111156110905761108f6137e4565b5b601160009054906101000a900460ff1660028111156110b2576110b16137e4565b5b146110f2576040517f08c379a00000000000000000000000000000000000000000000000000000000081526004016110e990613348565b60405180910390fd5b6000600d549050600060036000838152602001908152602001600020541461111957600080fd5b600260008a8152602001908152602001600020819080600181540180825580915050600190039060005260206000200160009091909190915055886003600083815260200190815260200160002081905550604051806040016040528042815260200182815250600760003373ffffffffffffffffffffffffffffffffffffffff1673ffffffffffffffffffffffffffffffffffffffff1681526020019081526020016000206000820151816000015560208201518160010155905050600d60008154809291906111e99061376c565b919050555080897f313f81e8cc8fe5ab3d1facaeffd8e0d26068ff1776d23a4621a5bdb0c891c8178a8a8a604051611223939291906132bc565b60405180910390a380945050505050949350505050565b600081600115156001600083815260200190815260200160002060030160019054906101000a900460ff1615151461127157600080fd5b60016002811115611285576112846137e4565b5b6001600085815260200190815260200160002060030160009054906101000a900460ff1660028111156112bb576112ba6137e4565b5b14915050919050565b60006002808111156112d9576112d86137e4565b5b601160009054906101000a900460ff1660028111156112fb576112fa6137e4565b5b141561133c576040517f08c379a000000000000000000000000000000000000000000000000000000000815260040161133390613408565b60405180910390fd5b336000600660008373ffffffffffffffffffffffffffffffffffffffff1673ffffffffffffffffffffffffffffffffffffffff1681526020019081526020016000206000015414806113dc575042601054600660008473ffffffffffffffffffffffffffffffffffffffff1673ffffffffffffffffffffffffffffffffffffffff168152602001908152602001600020600001546113da9190613604565b115b61141b576040517f08c379a000000000000000000000000000000000000000000000000000000000815260040161141290613428565b60405180910390fd5b3360011515600a60003373ffffffffffffffffffffffffffffffffffffffff1673ffffffffffffffffffffffffffffffffffffffff16815260200190815260200160002060009054906101000a900460ff16151514156114b0576040517f08c379a00000000000000000000000000000000000000000000000000000000081526004016114a7906133e8565b60405180910390fd5b6000600b5490506040518060a00160405280828152602001878152602001868152602001600060028111156114e8576114e76137e4565b5b8152602001600115158152506001600083815260200190815260200160002060008201518160000155602082015181600101908051906020019061152d9291906129af565b50604082015181600201908051906020019061154a9291906129af565b5060608201518160030160006101000a81548160ff02191690836002811115611576576115756137e4565b5b021790555060808201518160030160016101000a81548160ff021916908315150217905550905050604051806040016040528042815260200182815250600660003373ffffffffffffffffffffffffffffffffffffffff1673ffffffffffffffffffffffffffffffffffffffff1681526020019081526020016000206000820151816000015560208201518160010155905050336004600083815260200190815260200160002060006101000a81548173ffffffffffffffffffffffffffffffffffffffff021916908373ffffffffffffffffffffffffffffffffffffffff160217905550600b600081548092919061166e9061376c565b9190505550600c60008154809291906116869061376c565b9190505550807f21579433a032855e20e8afc48e980ddae0b6285e4aa03370f03192be12bea28b87876040516116bd929190613285565b60405180910390a280935050505092915050565b80600115156001600083815260200190815260200160002060030160019054906101000a900460ff1615151461170657600080fd5b816000600281111561171b5761171a6137e4565b5b6001600083815260200190815260200160002060030160009054906101000a900460ff166002811115611751576117506137e4565b5b1461175b57600080fd5b6000600281111561176f5761176e6137e4565b5b601160009054906101000a900460ff166002811115611791576117906137e4565b5b146117d1576040517f08c379a00000000000000000000000000000000000000000000000000000000081526004016117c890613348565b60405180910390fd5b3360011515600a60003373ffffffffffffffffffffffffffffffffffffffff1673ffffffffffffffffffffffffffffffffffffffff16815260200190815260200160002060009054906101000a900460ff1615151415611866576040517f08c379a000000000000000000000000000000000000000000000000000000000815260040161185d906133e8565b60405180910390fd5b600180600086815260200190815260200160002060030160006101000a81548160ff0219169083600281111561189f5761189e6137e4565b5b02179055507feabb282842a353a61f42a3352791a6bf8d0f0b5d6e9cec67e0a0e2c42f387b9b846040516118d3919061346a565b60405180910390a150505050565b6009602052816000526040600020602052806000526040600020600091509150505481565b601160009054906101000a900460ff1681565b611921612a35565b81600280811115611935576119346137e4565b5b6001600083815260200190815260200160002060030160009054906101000a900460ff16600281111561196b5761196a6137e4565b5b141561197657600080fd5b600160008481526020019081526020016000206040518060a0016040529081600082015481526020016001820180546119ae90613709565b80601f01602080910402602001604051908101604052809291908181526020018280546119da90613709565b8015611a275780601f106119fc57610100808354040283529160200191611a27565b820191906000526020600020905b815481529060010190602001808311611a0a57829003601f168201915b50505050508152602001600282018054611a4090613709565b80601f0160208091040260200160405190810160405280929190818152602001828054611a6c90613709565b8015611ab95780601f10611a8e57610100808354040283529160200191611ab9565b820191906000526020600020905b815481529060010190602001808311611a9c57829003601f168201915b505050505081526020016003820160009054906101000a900460ff166002811115611ae757611ae66137e4565b5b6002811115611af957611af86137e4565b5b81526020016003820160019054906101000a900460ff161515151581525050915050919050565b600081600115156001600083815260200190815260200160002060030160019054906101000a900460ff16151514611b5757600080fd5b60006002811115611b6b57611b6a6137e4565b5b6001600085815260200190815260200160002060030160009054906101000a900460ff166002811115611ba157611ba06137e4565b5b14915050919050565b80600115156001600083815260200190815260200160002060030160019054906101000a900460ff16151514611bdf57600080fd5b81600280811115611bf357611bf26137e4565b5b6001600083815260200190815260200160002060030160009054906101000a900460ff166002811115611c2957611c286137e4565b5b14611c3357600080fd5b3360011515600a60003373ffffffffffffffffffffffffffffffffffffffff1673ffffffffffffffffffffffffffffffffffffffff16815260200190815260200160002060009054906101000a900460ff1615151415611cc8576040517f08c379a0000000000000000000000000000000000000000000000000000000008152600401611cbf906133e8565b60405180910390fd5b600180600086815260200190815260200160002060030160006101000a81548160ff02191690836002811115611d0157611d006137e4565b5b02179055507fe23a63f864ee1069bc665aa3ed0b1dccc848ab996543e77baed0f465e8145c6084604051611d35919061346a565b60405180910390a150505050565b611d4b6128e3565b73ffffffffffffffffffffffffffffffffffffffff16611d6961202f565b73ffffffffffffffffffffffffffffffffffffffff1614611dbf576040517f08c379a0000000000000000000000000000000000000000000000000000000008152600401611db6906133c8565b60405180910390fd5b611dc960006128eb565b565b60606000600c5467ffffffffffffffff811115611deb57611dea613871565b5b604051908082528060200260200182016040528015611e2457816020015b611e11612a35565b815260200190600190039081611e095790505b50905060005b600c5481101561200757600160008281526020019081526020016000206040518060a001604052908160008201548152602001600182018054611e6c90613709565b80601f0160208091040260200160405190810160405280929190818152602001828054611e9890613709565b8015611ee55780601f10611eba57610100808354040283529160200191611ee5565b820191906000526020600020905b815481529060010190602001808311611ec857829003601f168201915b50505050508152602001600282018054611efe90613709565b80601f0160208091040260200160405190810160405280929190818152602001828054611f2a90613709565b8015611f775780601f10611f4c57610100808354040283529160200191611f77565b820191906000526020600020905b815481529060010190602001808311611f5a57829003601f168201915b505050505081526020016003820160009054906101000a900460ff166002811115611fa557611fa46137e4565b5b6002811115611fb757611fb66137e4565b5b81526020016003820160019054906101000a900460ff161515151581525050828281518110611fe957611fe8613842565b5b60200260200101819052508080611fff9061376c565b915050611e2a565b508091505090565b600a6020528060005260406000206000915054906101000a900460ff1681565b60008060009054906101000a900473ffffffffffffffffffffffffffffffffffffffff16905090565b6120606128e3565b73ffffffffffffffffffffffffffffffffffffffff1661207e61202f565b73ffffffffffffffffffffffffffffffffffffffff16146120d4576040517f08c379a00000000000000000000000000000000000000000000000000000000081526004016120cb906133c8565b60405180910390fd5b80600a60008473ffffffffffffffffffffffffffffffffffffffff1673ffffffffffffffffffffffffffffffffffffffff16815260200190815260200160002060006101000a81548160ff0219169083151502179055505050565b60036020528060005260406000206000915090505481565b60046020528060005260406000206000915054906101000a900473ffffffffffffffffffffffffffffffffffffffff1681565b60086020528060005260406000206000915090505481565b60016020528060005260406000206000915090508060000154908060010180546121bb90613709565b80601f01602080910402602001604051908101604052809291908181526020018280546121e790613709565b80156122345780601f1061220957610100808354040283529160200191612234565b820191906000526020600020905b81548152906001019060200180831161221757829003601f168201915b50505050509080600201805461224990613709565b80601f016020809104026020016040519081016040528092919081815260200182805461227590613709565b80156122c25780601f10612297576101008083540402835291602001916122c2565b820191906000526020600020905b8154815290600101906020018083116122a557829003601f168201915b5050505050908060030160009054906101000a900460ff16908060030160019054906101000a900460ff16905085565b6122fa6128e3565b73ffffffffffffffffffffffffffffffffffffffff1661231861202f565b73ffffffffffffffffffffffffffffffffffffffff161461236e576040517f08c379a0000000000000000000000000000000000000000000000000000000008152600401612365906133c8565b60405180910390fd5b80156123a4576002601160006101000a81548160ff0219169083600281111561239a576123996137e4565b5b02179055506123d0565b6000601160006101000a81548160ff021916908360028111156123ca576123c96137e4565b5b02179055505b50565b600b5481565b600c5481565b6123e76128e3565b73ffffffffffffffffffffffffffffffffffffffff1661240561202f565b73ffffffffffffffffffffffffffffffffffffffff161461245b576040517f08c379a0000000000000000000000000000000000000000000000000000000008152600401612452906133c8565b60405180910390fd5b8015612491576002601160016101000a81548160ff02191690836002811115612487576124866137e4565b5b02179055506124bd565b6000601160016101000a81548160ff021916908360028111156124b7576124b66137e4565b5b02179055505b50565b600f5481565b600081600115156001600083815260200190815260200160002060030160019054906101000a900460ff161515146124fd57600080fd5b6002808111156125105761250f6137e4565b5b6001600085815260200190815260200160002060030160009054906101000a900460ff166002811115612546576125456137e4565b5b14915050919050565b6060600260008381526020019081526020016000208054806020026020016040519081016040528092919081815260200182805480156125ae57602002820191906000526020600020905b81548152602001906001019080831161259a575b50505050509050919050565b60056020528160005260406000206020528060005260406000206000915091509054906101000a900460ff1681565b60076020528060005260406000206000915090508060000154908060010154905082565b600d5481565b60066020528060005260406000206000915090508060000154908060010154905082565b80600115156001600083815260200190815260200160002060030160019054906101000a900460ff1615151461266c57600080fd5b816002808111156126805761267f6137e4565b5b6001600083815260200190815260200160002060030160009054906101000a900460ff1660028111156126b6576126b56137e4565b5b14156126c157600080fd5b3360011515600a60003373ffffffffffffffffffffffffffffffffffffffff1673ffffffffffffffffffffffffffffffffffffffff16815260200190815260200160002060009054906101000a900460ff1615151415612756576040517f08c379a000000000000000000000000000000000000000000000000000000000815260040161274d906133e8565b60405180910390fd5b60026001600086815260200190815260200160002060030160006101000a81548160ff021916908360028111156127905761278f6137e4565b5b02179055507fa589501e457bda1f31782af099f2695facb8e79d38d121802e6ac1c53237b841846040516127c4919061346a565b60405180910390a150505050565b6127da6128e3565b73ffffffffffffffffffffffffffffffffffffffff166127f861202f565b73ffffffffffffffffffffffffffffffffffffffff161461284e576040517f08c379a0000000000000000000000000000000000000000000000000000000008152600401612845906133c8565b60405180910390fd5b600073ffffffffffffffffffffffffffffffffffffffff168173ffffffffffffffffffffffffffffffffffffffff1614156128be576040517f08c379a00000000000000000000000000000000000000000000000000000000081526004016128b590613328565b60405180910390fd5b6128c7816128eb565b50565b60105481565b601160019054906101000a900460ff1681565b600033905090565b60008060009054906101000a900473ffffffffffffffffffffffffffffffffffffffff169050816000806101000a81548173ffffffffffffffffffffffffffffffffffffffff021916908373ffffffffffffffffffffffffffffffffffffffff1602179055508173ffffffffffffffffffffffffffffffffffffffff168173ffffffffffffffffffffffffffffffffffffffff167f8be0079c531659141344cd1fd0a4f28419497f9722a3daafe3b4186f6b6457e060405160405180910390a35050565b8280546129bb90613709565b90600052602060002090601f0160209004810192826129dd5760008555612a24565b82601f106129f657805160ff1916838001178555612a24565b82800160010185558215612a24579182015b82811115612a23578251825591602001919060010190612a08565b5b509050612a319190612a78565b5090565b6040518060a0016040528060008152602001606081526020016060815260200160006002811115612a6957612a686137e4565b5b81526020016000151581525090565b5b80821115612a91576000816000905550600101612a79565b5090565b6000612aa8612aa384613534565b61350f565b905082815260208101848484011115612ac457612ac36138a5565b5b612acf8482856136c7565b509392505050565b600081359050612ae681613ba3565b92915050565b600081359050612afb81613bba565b92915050565b600082601f830112612b1657612b156138a0565b5b8135612b26848260208601612a95565b91505092915050565b600081359050612b3e81613bd1565b92915050565b600060208284031215612b5a57612b596138af565b5b6000612b6884828501612ad7565b91505092915050565b60008060408385031215612b8857612b876138af565b5b6000612b9685828601612ad7565b9250506020612ba785828601612aec565b9150509250929050565b60008060408385031215612bc857612bc76138af565b5b6000612bd685828601612ad7565b9250506020612be785828601612b2f565b9150509250929050565b600060208284031215612c0757612c066138af565b5b6000612c1584828501612aec565b91505092915050565b60008060408385031215612c3557612c346138af565b5b600083013567ffffffffffffffff811115612c5357612c526138aa565b5b612c5f85828601612b01565b925050602083013567ffffffffffffffff811115612c8057612c7f6138aa565b5b612c8c85828601612b01565b9150509250929050565b600060208284031215612cac57612cab6138af565b5b6000612cba84828501612b2f565b91505092915050565b60008060008060808587031215612cdd57612cdc6138af565b5b6000612ceb87828801612b2f565b945050602085013567ffffffffffffffff811115612d0c57612d0b6138aa565b5b612d1887828801612b01565b935050604085013567ffffffffffffffff811115612d3957612d386138aa565b5b612d4587828801612b01565b925050606085013567ffffffffffffffff811115612d6657612d656138aa565b5b612d7287828801612b01565b91505092959194509250565b60008060408385031215612d9557612d946138af565b5b6000612da385828601612b2f565b9250506020612db485828601612b2f565b9150509250929050565b6000612dca83836130d8565b905092915050565b6000612dde83836131d2565b60208301905092915050565b612df38161365a565b82525050565b6000612e0482613585565b612e0e81856135c0565b935083602082028501612e2085613565565b8060005b85811015612e5c5784840389528151612e3d8582612dbe565b9450612e48836135a6565b925060208a01995050600181019050612e24565b50829750879550505050505092915050565b6000612e7982613590565b612e8381856135d1565b9350612e8e83613575565b8060005b83811015612ebf578151612ea68882612dd2565b9750612eb1836135b3565b925050600181019050612e92565b5085935050505092915050565b612ed58161366c565b82525050565b612ee48161366c565b82525050565b612ef3816136b5565b82525050565b612f02816136b5565b82525050565b6000612f138261359b565b612f1d81856135e2565b9350612f2d8185602086016136d6565b612f36816138b4565b840191505092915050565b6000612f4c8261359b565b612f5681856135f3565b9350612f668185602086016136d6565b612f6f816138b4565b840191505092915050565b6000612f876036836135f3565b9150612f92826138c5565b604082019050919050565b6000612faa6026836135f3565b9150612fb582613914565b604082019050919050565b6000612fcd6024836135f3565b9150612fd882613963565b604082019050919050565b6000612ff06024836135f3565b9150612ffb826139b2565b604082019050919050565b60006130136034836135f3565b915061301e82613a01565b604082019050919050565b60006130366024836135f3565b915061304182613a50565b604082019050919050565b60006130596020836135f3565b915061306482613a9f565b602082019050919050565b600061307c601d836135f3565b915061308782613ac8565b602082019050919050565b600061309f6025836135f3565b91506130aa82613af1565b604082019050919050565b60006130c26024836135f3565b91506130cd82613b40565b604082019050919050565b600060a0830160008301516130f060008601826131d2565b50602083015184820360208601526131088282612f08565b915050604083015184820360408601526131228282612f08565b91505060608301516131376060860182612eea565b50608083015161314a6080860182612ecc565b508091505092915050565b600060a08301600083015161316d60008601826131d2565b50602083015184820360208601526131858282612f08565b9150506040830151848203604086015261319f8282612f08565b91505060608301516131b46060860182612eea565b5060808301516131c76080860182612ecc565b508091505092915050565b6131db816136ab565b82525050565b6131ea816136ab565b82525050565b60006020820190506132056000830184612dea565b92915050565b600060208201905081810360008301526132258184612df9565b905092915050565b600060208201905081810360008301526132478184612e6e565b905092915050565b60006020820190506132646000830184612edb565b92915050565b600060208201905061327f6000830184612ef9565b92915050565b6000604082019050818103600083015261329f8185612f41565b905081810360208301526132b38184612f41565b90509392505050565b600060608201905081810360008301526132d68186612f41565b905081810360208301526132ea8185612f41565b905081810360408301526132fe8184612f41565b9050949350505050565b6000602082019050818103600083015261332181612f7a565b9050919050565b6000602082019050818103600083015261334181612f9d565b9050919050565b6000602082019050818103600083015261336181612fc0565b9050919050565b6000602082019050818103600083015261338181612fe3565b9050919050565b600060208201905081810360008301526133a181613006565b9050919050565b600060208201905081810360008301526133c181613029565b9050919050565b600060208201905081810360008301526133e18161304c565b9050919050565b600060208201905081810360008301526134018161306f565b9050919050565b6000602082019050818103600083015261342181613092565b9050919050565b60006020820190508181036000830152613441816130b5565b9050919050565b600060208201905081810360008301526134628184613155565b905092915050565b600060208201905061347f60008301846131e1565b92915050565b600060a08201905061349a60008301886131e1565b81810360208301526134ac8187612f41565b905081810360408301526134c08186612f41565b90506134cf6060830185612ef9565b6134dc6080830184612edb565b9695505050505050565b60006040820190506134fb60008301856131e1565b61350860208301846131e1565b9392505050565b600061351961352a565b9050613525828261373b565b919050565b6000604051905090565b600067ffffffffffffffff82111561354f5761354e613871565b5b613558826138b4565b9050602081019050919050565b6000819050602082019050919050565b6000819050602082019050919050565b600081519050919050565b600081519050919050565b600081519050919050565b6000602082019050919050565b6000602082019050919050565b600082825260208201905092915050565b600082825260208201905092915050565b600082825260208201905092915050565b600082825260208201905092915050565b600061360f826136ab565b915061361a836136ab565b9250827fffffffffffffffffffffffffffffffffffffffffffffffffffffffffffffffff0382111561364f5761364e6137b5565b5b828201905092915050565b60006136658261368b565b9050919050565b60008115159050919050565b600081905061368682613b8f565b919050565b600073ffffffffffffffffffffffffffffffffffffffff82169050919050565b6000819050919050565b60006136c082613678565b9050919050565b82818337600083830152505050565b60005b838110156136f45780820151818401526020810190506136d9565b83811115613703576000848401525b50505050565b6000600282049050600182168061372157607f821691505b6020821081141561373557613734613813565b5b50919050565b613744826138b4565b810181811067ffffffffffffffff8211171561376357613762613871565b5b80604052505050565b6000613777826136ab565b91507fffffffffffffffffffffffffffffffffffffffffffffffffffffffffffffffff8214156137aa576137a96137b5565b5b600182019050919050565b7f4e487b7100000000000000000000000000000000000000000000000000000000600052601160045260246000fd5b7f4e487b7100000000000000000000000000000000000000000000000000000000600052602160045260246000fd5b7f4e487b7100000000000000000000000000000000000000000000000000000000600052602260045260246000fd5b7f4e487b7100000000000000000000000000000000000000000000000000000000600052603260045260246000fd5b7f4e487b7100000000000000000000000000000000000000000000000000000000600052604160045260246000fd5b600080fd5b600080fd5b600080fd5b600080fd5b6000601f19601f8301169050919050565b7f557365722069732063757272656e746c7920696e20766f74696e6720636f6f6c60008201527f646f776e20706572696f6420666f7220747261636b2e00000000000000000000602082015250565b7f4f776e61626c653a206e6577206f776e657220697320746865207a65726f206160008201527f6464726573730000000000000000000000000000000000000000000000000000602082015250565b7f416c6c20747261636b732068617665206265656e20636c6f736564206279206160008201527f646d696e00000000000000000000000000000000000000000000000000000000602082015250565b7f557365722069732063757272656e746c7920696e20656e74727920636f6f6c6460008201527f6f776e2e00000000000000000000000000000000000000000000000000000000602082015250565b7f55736572732063616e6e6f7420766f746520666f72207468652073616d65206560008201527f6e747279206d756c7469706c652074696d65732e000000000000000000000000602082015250565b7f416c6c20766f74696e6720686173206265656e20626c6f636b6564206279206160008201527f646d696e00000000000000000000000000000000000000000000000000000000602082015250565b7f4f776e61626c653a2063616c6c6572206973206e6f7420746865206f776e6572600082015250565b7f5573657220686173206265656e2062616e6e65642062792061646d696e000000600082015250565b7f416c6c20747261636b732068617665206265656e20626c6f636b65642062792060008201527f61646d696e000000000000000000000000000000000000000000000000000000602082015250565b7f557365722069732063757272656e746c7920696e20747261636b20636f6f6c6460008201527f6f776e2e00000000000000000000000000000000000000000000000000000000602082015250565b60038110613ba057613b9f6137e4565b5b50565b613bac8161365a565b8114613bb757600080fd5b50565b613bc38161366c565b8114613bce57600080fd5b50565b613bda816136ab565b8114613be557600080fd5b5056fea2646970667358221220389c6f9253554b9dd1cb4df240a0854af7e44c552c69874ee667bdb30c11b61d64736f6c63430008070033",
  "immutableReferences": {},
  "source": "// SPDX-License-Identifier: MIT\r\npragma solidity ^0.8.0;\r\nimport \"@openzeppelin/contracts/access/Ownable.sol\";\r\n\r\n\r\ncontract Tracks  is Ownable {\r\n  mapping (uint  => Track) public tracks;\r\n  mapping (uint  => uint[]) public trackEntries; //trackId => entryId[]\r\n  mapping (uint  => uint) public entriesTrack; //entryId => trackId\r\n  mapping (uint  => address) public trackOwners; //trackId => address\r\n  mapping (address  => mapping (uint => bool)) public votesByAddress; //address => (entryId => bool)\r\n  mapping (address  => TrackEvent) public trackEventsByUser; //address => TrackEvent\r\n  mapping (address  => EntryEvent) public entryEventsByUser; //address => EntryEvent\r\n  mapping (uint  => uint) public votesByTrack; //trackId => vote count\r\n  mapping (address  => mapping(uint => uint)) public lastVoteTime; //address => trackId => time(s)\r\n  mapping(address => bool) public bannedUsers;\r\n\r\n  uint public nextTrackId;\r\n  uint public trackCount;\r\n  uint public nextEntryId;\r\n  uint public voteCooldownPeriod;\r\n  uint public entryEventCooldownPeriod;\r\n  uint public trackEventCooldownPeriod;\r\n  State public allTracksState;\r\n  State public allVotesState;\r\n  \r\n  \r\n\tstruct EntryEvent {\r\n\t    uint time;\r\n\t    uint eventId;\r\n\t}\r\n\t\r\n\tstruct TrackEvent {\r\n\t    uint time;\r\n\t    uint trackId;\r\n\t}\r\n\t\r\n  enum State {\r\n      Open,\r\n      Closed,\r\n      Blocked\r\n  }\r\n  struct Track {\r\n      uint  trackId;\r\n      string  name;\r\n      string  desc;\r\n      State state;\r\n      bool exists;\r\n  }\r\n\r\n  event TrackOpened(uint trackId);\r\n  event TrackClosed(uint trackId);\r\n  event TrackBlocked(uint trackId);\r\n  event TrackUnblocked(uint trackId);\r\n  event TrackCreated(uint indexed trackId, string name, string desc);\r\n  event EntryCreated(uint indexed trackId, uint indexed entryId, string name, string desc, string location);\r\n  event EntryVotedFor(uint indexed trackId, uint indexed entryId);\r\n\r\n\r\n  /**\r\n   * @dev XXX\r\n   * @param _trackId The id of the track\r\n   */\r\n\tmodifier checkTrackOpen(uint _trackId) {\r\n\t\trequire(tracks[_trackId].state == State.Open);\r\n\t\trequire(allTracksState == State.Open, \"All tracks have been closed by admin\");\r\n    _;\r\n  }\r\n  \r\n\t/**\r\n   * @dev XXX\r\n   * @param _trackId The id of the track\r\n   */\r\n\tmodifier checkTrackClosed(uint _trackId) {\r\n\t\trequire(tracks[_trackId].state == State.Closed);\r\n    _;\r\n  }\r\n  \r\n  /**\r\n   * @dev XXX\r\n   * @param _trackId The id of the track\r\n   */\r\n\tmodifier checkTrackBlocked(uint _trackId) {\r\n\t\trequire(tracks[_trackId].state == State.Blocked);\r\n    _;\r\n  }\r\n  \r\n  /**\r\n   * @dev XXX\r\n   */\r\n\tmodifier checkTracksNotBlockedByAdmin() {\r\n\t\trequire(allTracksState != State.Blocked, \"All tracks have been blocked by admin\");\r\n    _;\r\n  }\r\n  \r\n  \r\n  /**\r\n   * @dev XXX\r\n   */\r\n\tmodifier checkVotingNotBlockedByAdmin() {\r\n\t\trequire(allVotesState != State.Blocked, \"All voting has been blocked by admin\");\r\n    _;\r\n  }\r\n  \r\n  \r\n  /**\r\n   * @dev XXX\r\n   * @param _trackId The id of the track\r\n   */\r\n\tmodifier checkTrackUnblocked(uint _trackId) {\r\n\t\trequire(tracks[_trackId].state != State.Blocked);\r\n    _;\r\n  }\r\n  \r\n  /**\r\n   * @dev XXX\r\n   * @param _trackId The id of the track\r\n   */\r\n\tmodifier checkTrackExists(uint _trackId) {\r\n\t\t\trequire(tracks[_trackId].exists == true);\r\n\t    _;\r\n\t  }\r\n\r\n\tmodifier isUserBanned(address _addr){\r\n\t\t\trequire(bannedUsers[msg.sender] != true, \"User has been banned by admin\");\r\n\t    _;\r\n\t}\r\n\r\n\tmodifier hasNotVotedForEntry(address _addr, uint _entryId){\r\n\t    require(votesByAddress[msg.sender][_entryId] == false, \"Users cannot vote for the same entry multiple times.\");\r\n\t    _;\r\n\t}\r\n\t\r\n\tmodifier isNotInVotingCooldown(address addr, uint trackId){\r\n\t    require(lastVoteTime[addr][trackId] == 0 || lastVoteTime[addr][trackId] + voteCooldownPeriod > block.timestamp, \"User is currently in voting cooldown period for track.\");\r\n\t    _;\r\n\t}\r\n\r\n\tmodifier isNotInTrackCreationCooldown(address addr){\r\n\t    require(trackEventsByUser[addr].time == 0 || (trackEventsByUser[addr].time + trackEventCooldownPeriod) > block.timestamp, \"User is currently in track cooldown.\");\r\n\t    _;\r\n\t}\r\n\t\r\n\tmodifier isNotInEntryCreationCooldown(address addr){\r\n\t    require(entryEventsByUser[addr].time == 0 || (entryEventsByUser[addr].time + entryEventCooldownPeriod) > block.timestamp, \"User is currently in entry cooldown.\");\r\n\t    _;\r\n\t}\r\n\t\r\n\t/**\r\n   * @dev XXX\r\n   */\r\n  constructor () {\r\n      voteCooldownPeriod = 1 minutes;\r\n      entryEventCooldownPeriod = 1 minutes;\r\n      trackEventCooldownPeriod = 1 minutes;\r\n      allTracksState = State.Open;\r\n      allVotesState = State.Open;\r\n      uint trackId = addTrack(\"first_track\", \"This is the first track\");\r\n      addEntry(trackId, \"name\", \"description\", \"location\");\r\n  }\r\n\r\n\t/**\r\n   * @dev XXX\r\n   */\r\n  function getTracks() public view returns ( Track[] memory) {\r\n      Track[] memory _tracks = new Track[](trackCount);\r\n      for (uint i=0; i<trackCount; i++) {\r\n          _tracks[i] = tracks[i];\r\n      }\r\n      return _tracks;\r\n  }\r\n\r\n  /**\r\n   * @dev XXX\r\n   * @param _trackId The id of the track\r\n   */\r\n  function getTrack(uint _trackId) public view checkTrackUnblocked(_trackId) returns (Track memory) {\r\n      return tracks[_trackId];\r\n  }\r\n\t\r\n\r\n  /**\r\n   * @dev XXX\r\n   * @param _trackId The id of the track\r\n   */\r\n  function getEntriesForTrack(uint _trackId) public view returns (uint[] memory){\r\n      return trackEntries[_trackId];\r\n  }\r\n\r\n\t/**\r\n   * @dev XXX\r\n   * @param _trackId The id of the track\r\n   */\r\n  function openTrack(uint _trackId) public checkTrackExists(_trackId) checkTrackClosed(_trackId) isUserBanned(msg.sender){\r\n      tracks[_trackId].state = State.Open;\r\n      emit TrackOpened(_trackId);\r\n  }\r\n\r\n\t/**\r\n   * @dev XXX\r\n   * @param _trackId The id of the track\r\n   */\r\n\tfunction closeTrack(uint _trackId) public checkTrackExists(_trackId) checkTrackOpen(_trackId) isUserBanned(msg.sender){\r\n      tracks[_trackId].state = State.Closed;\r\n      emit TrackClosed(_trackId);\r\n  }\r\n\r\n\t/**\r\n   * @dev XXX\r\n   * @param _trackId The id of the track\r\n   */\r\n\tfunction blockTrack(uint _trackId) public checkTrackExists(_trackId) checkTrackUnblocked(_trackId) isUserBanned(msg.sender){\r\n      tracks[_trackId].state = State.Blocked;\r\n      emit TrackBlocked(_trackId);\r\n  }\r\n\r\n  /**\r\n   * @dev XXX\r\n   * @param _trackId The id of the track\r\n   */\r\n  function unblockTrack(uint _trackId) public checkTrackExists(_trackId) checkTrackBlocked(_trackId) isUserBanned(msg.sender) {\r\n      tracks[_trackId].state = State.Closed;\r\n      emit TrackUnblocked(_trackId);\r\n  }\r\n\r\n\t/**\r\n   * @dev XXX\r\n   * @param _trackId The id of the track\r\n   */\r\n  function isTrackOpen(uint _trackId) public view checkTrackExists(_trackId) returns (bool){\r\n      return (tracks[_trackId].state == State.Open);\r\n  }\r\n  /**\r\n   * @dev XXX\r\n   * @param _trackId The id of the track\r\n   */\r\n  function isTrackClosed(uint _trackId) public view checkTrackExists(_trackId) returns (bool){\r\n      return (tracks[_trackId].state == State.Closed);\r\n  }\r\n  /**\r\n   * @dev XXX\r\n   * @param _trackId The id of the track\r\n   */\r\n  function isTrackBlocked(uint _trackId) public view checkTrackExists(_trackId) returns (bool){\r\n      return (tracks[_trackId].state == State.Blocked);\r\n  }\r\n\r\n\t/**\r\n   * @dev XXX\r\n   * @param _entryId The id of the entry\r\n   */\r\n  function vote(uint _entryId) public checkTrackOpen(entriesTrack[_entryId]) hasNotVotedForEntry(msg.sender, _entryId) checkVotingNotBlockedByAdmin isUserBanned(msg.sender) isNotInVotingCooldown(msg.sender, entriesTrack[_entryId]) {\r\n    uint _trackId = entriesTrack[_entryId];\r\n    votesByAddress[msg.sender][_entryId] = true;\r\n    lastVoteTime[msg.sender][_trackId] = block.timestamp;\r\n    votesByTrack[_trackId]++;\r\n    emit EntryVotedFor(_trackId, _entryId);\r\n  }\r\n\r\n  /**\r\n   * @dev XXX\r\n   * @param _trackId The id of the track\r\n   */\r\n  function addEntry(uint _trackId, string memory _name, string memory _desc, string memory _location) public checkTracksNotBlockedByAdmin isUserBanned(msg.sender) isNotInEntryCreationCooldown(msg.sender)  checkTrackOpen(_trackId) returns (uint) {\r\n    uint entryId = nextEntryId;\r\n    require(entriesTrack[entryId] == 0);\r\n    trackEntries[_trackId].push(entryId);\r\n    entriesTrack[entryId] = _trackId;\r\n    entryEventsByUser[msg.sender] = EntryEvent(block.timestamp, entryId);\r\n    nextEntryId++;\r\n    emit EntryCreated(_trackId, entryId, _name, _desc, _location);\r\n    return entryId;\r\n  }\r\n\r\n\t/**\r\n   * @dev XXX\r\n   * @param _name XXX\r\n   * @param _desc XXX\r\n   */\r\n  function addTrack(string memory _name, string memory _desc) public checkTracksNotBlockedByAdmin isNotInTrackCreationCooldown(msg.sender) isUserBanned(msg.sender) returns (uint) {\r\n    uint trackId = nextTrackId;\r\n    tracks[trackId] = Track({\r\n      trackId: trackId,\r\n      name: _name,\r\n      desc: _desc,\r\n      state: State.Open,\r\n      exists: true\r\n    });\r\n    trackEventsByUser[msg.sender] = TrackEvent(block.timestamp, trackId);\r\n    trackOwners[trackId] = msg.sender;\r\n    nextTrackId++;\r\n    trackCount++;\r\n    emit TrackCreated(trackId, _name, _desc);\r\n    return trackId;\r\n   }\r\n   \r\n   function disableAllTracks(bool enable) public onlyOwner {\r\n       if (enable) {\r\n           allTracksState = State.Blocked;   \r\n       } else {\r\n           allTracksState = State.Open;   \r\n       }\r\n\t}\r\n   \r\n   function disableAllVoting(bool enable) public onlyOwner {\r\n       if (enable) {\r\n           allVotesState = State.Blocked;   \r\n       } else {\r\n           allVotesState = State.Open;   \r\n       }\r\n\t}\r\n   \r\n   function banUser(address addr, bool banned) public onlyOwner {\r\n\t \t\tbannedUsers[addr] = banned;   \r\n\t\t}\r\n   \r\n}\r\n\r\n\r\n\t",
  "sourcePath": "D:\\projects\\blockchain-developer-bootcamp-final-project\\tracks\\contracts\\Tracks.sol",
  "compiler": {
    "name": "solc",
    "version": "0.8.7+commit.e28d00a7.Emscripten.clang"
  },
  "schemaVersion": "3.4.3",
  "updatedAt": "2021-10-11T10:05:12.400Z",
  "networkType": "ethereum",
  "devdoc": {
    "kind": "dev",
    "methods": {
      "addEntry(uint256,string,string,string)": {
        "details": "XXX",
        "params": {
          "_trackId": "The id of the track"
        }
      },
      "addTrack(string,string)": {
        "details": "XXX",
        "params": {
          "_desc": "XXX",
          "_name": "XXX"
        }
      },
      "blockTrack(uint256)": {
        "details": "XXX",
        "params": {
          "_trackId": "The id of the track"
        }
      },
      "closeTrack(uint256)": {
        "details": "XXX",
        "params": {
          "_trackId": "The id of the track"
        }
      },
      "constructor": {
        "details": "XXX"
      },
      "getEntriesForTrack(uint256)": {
        "details": "XXX",
        "params": {
          "_trackId": "The id of the track"
        }
      },
      "getTrack(uint256)": {
        "details": "XXX",
        "params": {
          "_trackId": "The id of the track"
        }
      },
      "getTracks()": {
        "details": "XXX"
      },
      "isTrackBlocked(uint256)": {
        "details": "XXX",
        "params": {
          "_trackId": "The id of the track"
        }
      },
      "isTrackClosed(uint256)": {
        "details": "XXX",
        "params": {
          "_trackId": "The id of the track"
        }
      },
      "isTrackOpen(uint256)": {
        "details": "XXX",
        "params": {
          "_trackId": "The id of the track"
        }
      },
      "openTrack(uint256)": {
        "details": "XXX",
        "params": {
          "_trackId": "The id of the track"
        }
      },
      "owner()": {
        "details": "Returns the address of the current owner."
      },
      "renounceOwnership()": {
        "details": "Leaves the contract without owner. It will not be possible to call `onlyOwner` functions anymore. Can only be called by the current owner. NOTE: Renouncing ownership will leave the contract without an owner, thereby removing any functionality that is only available to the owner."
      },
      "transferOwnership(address)": {
        "details": "Transfers ownership of the contract to a new account (`newOwner`). Can only be called by the current owner."
      },
      "unblockTrack(uint256)": {
        "details": "XXX",
        "params": {
          "_trackId": "The id of the track"
        }
      },
      "vote(uint256)": {
        "details": "XXX",
        "params": {
          "_entryId": "The id of the entry"
        }
      }
    },
    "version": 1
  },
  "userdoc": {
    "kind": "user",
    "methods": {},
    "version": 1
  }
}