{
  "contractName": "Tracks",
  "abi": [
    {
      "inputs": [],
      "stateMutability": "nonpayable",
      "type": "constructor"
    },
    {
      "anonymous": false,
      "inputs": [
        {
          "indexed": true,
          "internalType": "uint256",
          "name": "trackId",
          "type": "uint256"
        },
        {
          "indexed": true,
          "internalType": "uint256",
          "name": "entryId",
          "type": "uint256"
        },
        {
          "indexed": false,
          "internalType": "string",
          "name": "name",
          "type": "string"
        },
        {
          "indexed": false,
          "internalType": "string",
          "name": "desc",
          "type": "string"
        },
        {
          "indexed": false,
          "internalType": "string",
          "name": "location",
          "type": "string"
        }
      ],
      "name": "EntryCreated",
      "type": "event"
    },
    {
      "anonymous": false,
      "inputs": [
        {
          "indexed": true,
          "internalType": "uint256",
          "name": "trackId",
          "type": "uint256"
        },
        {
          "indexed": true,
          "internalType": "uint256",
          "name": "entryId",
          "type": "uint256"
        }
      ],
      "name": "EntryVotedFor",
      "type": "event"
    },
    {
      "anonymous": false,
      "inputs": [
        {
          "indexed": false,
          "internalType": "uint256",
          "name": "trackId",
          "type": "uint256"
        }
      ],
      "name": "TrackBlocked",
      "type": "event"
    },
    {
      "anonymous": false,
      "inputs": [
        {
          "indexed": false,
          "internalType": "uint256",
          "name": "trackId",
          "type": "uint256"
        }
      ],
      "name": "TrackClosed",
      "type": "event"
    },
    {
      "anonymous": false,
      "inputs": [
        {
          "indexed": true,
          "internalType": "uint256",
          "name": "trackId",
          "type": "uint256"
        },
        {
          "indexed": false,
          "internalType": "string",
          "name": "name",
          "type": "string"
        },
        {
          "indexed": false,
          "internalType": "string",
          "name": "desc",
          "type": "string"
        }
      ],
      "name": "TrackCreated",
      "type": "event"
    },
    {
      "anonymous": false,
      "inputs": [
        {
          "indexed": false,
          "internalType": "uint256",
          "name": "trackId",
          "type": "uint256"
        }
      ],
      "name": "TrackOpened",
      "type": "event"
    },
    {
      "anonymous": false,
      "inputs": [
        {
          "indexed": false,
          "internalType": "uint256",
          "name": "trackId",
          "type": "uint256"
        }
      ],
      "name": "TrackUnblocked",
      "type": "event"
    },
    {
      "inputs": [],
      "name": "cooldownPeriod",
      "outputs": [
        {
          "internalType": "uint256",
          "name": "",
          "type": "uint256"
        }
      ],
      "stateMutability": "view",
      "type": "function"
    },
    {
      "inputs": [
        {
          "internalType": "uint256",
          "name": "",
          "type": "uint256"
        }
      ],
      "name": "entriesTrack",
      "outputs": [
        {
          "internalType": "uint256",
          "name": "",
          "type": "uint256"
        }
      ],
      "stateMutability": "view",
      "type": "function"
    },
    {
      "inputs": [
        {
          "internalType": "address",
          "name": "",
          "type": "address"
        }
      ],
      "name": "lastVoteTime",
      "outputs": [
        {
          "internalType": "uint256",
          "name": "",
          "type": "uint256"
        }
      ],
      "stateMutability": "view",
      "type": "function"
    },
    {
      "inputs": [],
      "name": "nextEntryId",
      "outputs": [
        {
          "internalType": "uint256",
          "name": "",
          "type": "uint256"
        }
      ],
      "stateMutability": "view",
      "type": "function"
    },
    {
      "inputs": [],
      "name": "nextTrackId",
      "outputs": [
        {
          "internalType": "uint256",
          "name": "",
          "type": "uint256"
        }
      ],
      "stateMutability": "view",
      "type": "function"
    },
    {
      "inputs": [],
      "name": "trackCount",
      "outputs": [
        {
          "internalType": "uint256",
          "name": "",
          "type": "uint256"
        }
      ],
      "stateMutability": "view",
      "type": "function"
    },
    {
      "inputs": [
        {
          "internalType": "uint256",
          "name": "",
          "type": "uint256"
        },
        {
          "internalType": "uint256",
          "name": "",
          "type": "uint256"
        }
      ],
      "name": "trackEntries",
      "outputs": [
        {
          "internalType": "uint256",
          "name": "",
          "type": "uint256"
        }
      ],
      "stateMutability": "view",
      "type": "function"
    },
    {
      "inputs": [
        {
          "internalType": "uint256",
          "name": "",
          "type": "uint256"
        }
      ],
      "name": "tracks",
      "outputs": [
        {
          "internalType": "uint256",
          "name": "trackId",
          "type": "uint256"
        },
        {
          "internalType": "string",
          "name": "name",
          "type": "string"
        },
        {
          "internalType": "string",
          "name": "desc",
          "type": "string"
        },
        {
          "internalType": "enum Tracks.State",
          "name": "state",
          "type": "uint8"
        },
        {
          "internalType": "bool",
          "name": "exists",
          "type": "bool"
        }
      ],
      "stateMutability": "view",
      "type": "function"
    },
    {
      "inputs": [
        {
          "internalType": "uint256",
          "name": "",
          "type": "uint256"
        }
      ],
      "name": "votes",
      "outputs": [
        {
          "internalType": "uint256",
          "name": "",
          "type": "uint256"
        }
      ],
      "stateMutability": "view",
      "type": "function"
    },
    {
      "inputs": [
        {
          "internalType": "address",
          "name": "",
          "type": "address"
        },
        {
          "internalType": "uint256",
          "name": "",
          "type": "uint256"
        }
      ],
      "name": "votesByAddress",
      "outputs": [
        {
          "internalType": "bool",
          "name": "",
          "type": "bool"
        }
      ],
      "stateMutability": "view",
      "type": "function"
    },
    {
      "inputs": [],
      "name": "getTracks",
      "outputs": [
        {
          "components": [
            {
              "internalType": "uint256",
              "name": "trackId",
              "type": "uint256"
            },
            {
              "internalType": "string",
              "name": "name",
              "type": "string"
            },
            {
              "internalType": "string",
              "name": "desc",
              "type": "string"
            },
            {
              "internalType": "enum Tracks.State",
              "name": "state",
              "type": "uint8"
            },
            {
              "internalType": "bool",
              "name": "exists",
              "type": "bool"
            }
          ],
          "internalType": "struct Tracks.Track[]",
          "name": "",
          "type": "tuple[]"
        }
      ],
      "stateMutability": "view",
      "type": "function"
    },
    {
      "inputs": [
        {
          "internalType": "uint256",
          "name": "_trackId",
          "type": "uint256"
        }
      ],
      "name": "getTrack",
      "outputs": [
        {
          "components": [
            {
              "internalType": "uint256",
              "name": "trackId",
              "type": "uint256"
            },
            {
              "internalType": "string",
              "name": "name",
              "type": "string"
            },
            {
              "internalType": "string",
              "name": "desc",
              "type": "string"
            },
            {
              "internalType": "enum Tracks.State",
              "name": "state",
              "type": "uint8"
            },
            {
              "internalType": "bool",
              "name": "exists",
              "type": "bool"
            }
          ],
          "internalType": "struct Tracks.Track",
          "name": "",
          "type": "tuple"
        }
      ],
      "stateMutability": "view",
      "type": "function"
    },
    {
      "inputs": [
        {
          "internalType": "uint256",
          "name": "_entryId",
          "type": "uint256"
        }
      ],
      "name": "getVotesForEntry",
      "outputs": [
        {
          "internalType": "uint256",
          "name": "",
          "type": "uint256"
        }
      ],
      "stateMutability": "view",
      "type": "function"
    },
    {
      "inputs": [
        {
          "internalType": "uint256",
          "name": "_trackId",
          "type": "uint256"
        }
      ],
      "name": "getEntriesForTrack",
      "outputs": [
        {
          "internalType": "uint256[]",
          "name": "",
          "type": "uint256[]"
        }
      ],
      "stateMutability": "view",
      "type": "function"
    },
    {
      "inputs": [
        {
          "internalType": "uint256",
          "name": "_trackId",
          "type": "uint256"
        }
      ],
      "name": "openTrack",
      "outputs": [],
      "stateMutability": "nonpayable",
      "type": "function"
    },
    {
      "inputs": [
        {
          "internalType": "uint256",
          "name": "_trackId",
          "type": "uint256"
        }
      ],
      "name": "closeTrack",
      "outputs": [],
      "stateMutability": "nonpayable",
      "type": "function"
    },
    {
      "inputs": [
        {
          "internalType": "uint256",
          "name": "_trackId",
          "type": "uint256"
        }
      ],
      "name": "blockTrack",
      "outputs": [],
      "stateMutability": "nonpayable",
      "type": "function"
    },
    {
      "inputs": [
        {
          "internalType": "uint256",
          "name": "_trackId",
          "type": "uint256"
        }
      ],
      "name": "unblockTrack",
      "outputs": [],
      "stateMutability": "nonpayable",
      "type": "function"
    },
    {
      "inputs": [
        {
          "internalType": "uint256",
          "name": "_trackId",
          "type": "uint256"
        }
      ],
      "name": "isTrackOpen",
      "outputs": [
        {
          "internalType": "bool",
          "name": "",
          "type": "bool"
        }
      ],
      "stateMutability": "view",
      "type": "function"
    },
    {
      "inputs": [
        {
          "internalType": "uint256",
          "name": "_trackId",
          "type": "uint256"
        }
      ],
      "name": "isTrackClosed",
      "outputs": [
        {
          "internalType": "bool",
          "name": "",
          "type": "bool"
        }
      ],
      "stateMutability": "view",
      "type": "function"
    },
    {
      "inputs": [
        {
          "internalType": "uint256",
          "name": "_trackId",
          "type": "uint256"
        }
      ],
      "name": "isTrackBlocked",
      "outputs": [
        {
          "internalType": "bool",
          "name": "",
          "type": "bool"
        }
      ],
      "stateMutability": "view",
      "type": "function"
    },
    {
      "inputs": [
        {
          "internalType": "uint256",
          "name": "_entryId",
          "type": "uint256"
        }
      ],
      "name": "vote",
      "outputs": [],
      "stateMutability": "nonpayable",
      "type": "function"
    },
    {
      "inputs": [
        {
          "internalType": "uint256",
          "name": "_trackId",
          "type": "uint256"
        },
        {
          "internalType": "string",
          "name": "_name",
          "type": "string"
        },
        {
          "internalType": "string",
          "name": "_desc",
          "type": "string"
        },
        {
          "internalType": "string",
          "name": "_location",
          "type": "string"
        }
      ],
      "name": "addEntry",
      "outputs": [
        {
          "internalType": "uint256",
          "name": "",
          "type": "uint256"
        }
      ],
      "stateMutability": "nonpayable",
      "type": "function"
    },
    {
      "inputs": [
        {
          "internalType": "string",
          "name": "_name",
          "type": "string"
        },
        {
          "internalType": "string",
          "name": "_desc",
          "type": "string"
        }
      ],
      "name": "addTrack",
      "outputs": [
        {
          "internalType": "uint256",
          "name": "",
          "type": "uint256"
        }
      ],
      "stateMutability": "nonpayable",
      "type": "function"
    }
  ],
  "bytecode": "0x60806040523480156200001157600080fd5b506000620000906040518060400160405280600b81526020017f66697273745f747261636b0000000000000000000000000000000000000000008152506040518060400160405280601781526020017f546869732069732074686520666972737420747261636b0000000000000000008152506200015760201b60201c565b905062000145816040518060400160405280600481526020017f6e616d65000000000000000000000000000000000000000000000000000000008152506040518060400160405280600b81526020017f6465736372697074696f6e0000000000000000000000000000000000000000008152506040518060400160405280600881526020017f6c6f636174696f6e000000000000000000000000000000000000000000000000815250620002c960201b60201c565b50620151806009819055505062000702565b60008060065490506040518060a001604052808281526020018581526020018481526020016000600281111562000193576200019262000693565b5b815260200160011515815250600080838152602001908152602001600020600082015181600001556020820151816001019080519060200190620001d992919062000406565b506040820151816002019080519060200190620001f892919062000406565b5060608201518160030160006101000a81548160ff0219169083600281111562000227576200022662000693565b5b021790555060808201518160030160016101000a81548160ff02191690831515021790555090505060066000815480929190620002649062000616565b9190505550600760008154809291906200027e9062000616565b9190505550807f21579433a032855e20e8afc48e980ddae0b6285e4aa03370f03192be12bea28b8585604051620002b7929190620004f7565b60405180910390a28091505092915050565b60008460006002811115620002e357620002e262000693565b5b60008083815260200190815260200160002060030160009054906101000a900460ff1660028111156200031b576200031a62000693565b5b146200032657600080fd5b6000600854905060006002600083815260200190815260200160002054146200034e57600080fd5b6001600088815260200190815260200160002081908060018154018082558091505060019003906000526020600020016000909190919091505586600260008381526020019081526020016000208190555060086000815480929190620003b59062000616565b919050555080877f313f81e8cc8fe5ab3d1facaeffd8e0d26068ff1776d23a4621a5bdb0c891c817888888604051620003f19392919062000532565b60405180910390a38092505050949350505050565b8280546200041490620005e0565b90600052602060002090601f01602090048101928262000438576000855562000484565b82601f106200045357805160ff191683800117855562000484565b8280016001018555821562000484579182015b828111156200048357825182559160200191906001019062000466565b5b50905062000493919062000497565b5090565b5b80821115620004b257600081600090555060010162000498565b5090565b6000620004c38262000584565b620004cf81856200058f565b9350620004e1818560208601620005aa565b620004ec81620006f1565b840191505092915050565b60006040820190508181036000830152620005138185620004b6565b90508181036020830152620005298184620004b6565b90509392505050565b600060608201905081810360008301526200054e8186620004b6565b90508181036020830152620005648185620004b6565b905081810360408301526200057a8184620004b6565b9050949350505050565b600081519050919050565b600082825260208201905092915050565b6000819050919050565b60005b83811015620005ca578082015181840152602081019050620005ad565b83811115620005da576000848401525b50505050565b60006002820490506001821680620005f957607f821691505b6020821081141562000610576200060f620006c2565b5b50919050565b60006200062382620005a0565b91507fffffffffffffffffffffffffffffffffffffffffffffffffffffffffffffffff82141562000659576200065862000664565b5b600182019050919050565b7f4e487b7100000000000000000000000000000000000000000000000000000000600052601160045260246000fd5b7f4e487b7100000000000000000000000000000000000000000000000000000000600052602160045260246000fd5b7f4e487b7100000000000000000000000000000000000000000000000000000000600052602260045260246000fd5b6000601f19601f8301169050919050565b6124aa80620007126000396000f3fe608060405234801561001057600080fd5b50600436106101575760003560e01c806368e982b0116100c3578063caa2c2ad1161007c578063caa2c2ad14610428578063d02f448314610458578063db7c01e214610488578063e6b2cf6c146104b8578063ef759761146104d6578063ff9edb9e146104f257610157565b806368e982b01461034e57806387548fcf1461036a578063924e9b9514610388578063a2e34586146103b8578063a72024c6146103ec578063ab35678c1461040a57610157565b806333abbe511161011557806333abbe511461024257806336de40be14610272578063423b7032146102a25780635df81330146102be578063629058ca146102ee57806366cb59361461031e57610157565b8062ae25241461015c5780630121b93f1461018c57806304646a49146101a8578063109699b6146101c65780631f6c5f00146101f65780632e42ddbf14610212575b600080fd5b61017660048036038101906101719190611906565b610522565b6040516101839190611f62565b60405180910390f35b6101a660048036038101906101a191906119eb565b61053a565b005b6101b0610815565b6040516101bd9190611f62565b60405180910390f35b6101e060048036038101906101db9190611ad3565b61081b565b6040516101ed9190611f62565b60405180910390f35b610210600480360381019061020b91906119eb565b61084c565b005b61022c60048036038101906102279190611a18565b61094e565b6040516102399190611f62565b60405180910390f35b61025c600480360381019061025791906119eb565b610a7f565b6040516102699190611e62565b60405180910390f35b61028c60048036038101906102879190611973565b610b07565b6040516102999190611f62565b60405180910390f35b6102bc60048036038101906102b791906119eb565b610c69565b005b6102d860048036038101906102d391906119eb565b610d6b565b6040516102e59190611f62565b60405180910390f35b610308600480360381019061030391906119eb565b610d83565b6040516103159190611f40565b60405180910390f35b610338600480360381019061033391906119eb565b610f88565b6040516103459190611e62565b60405180910390f35b610368600480360381019061036391906119eb565b611010565b005b610372611111565b60405161037f9190611e1e565b60405180910390f35b6103a2600480360381019061039d91906119eb565b611354565b6040516103af9190611f62565b60405180910390f35b6103d260048036038101906103cd91906119eb565b61136c565b6040516103e3959493929190611f7d565b60405180910390f35b6103f46114cc565b6040516104019190611f62565b60405180910390f35b6104126114d2565b60405161041f9190611f62565b60405180910390f35b610442600480360381019061043d91906119eb565b6114d8565b60405161044f9190611e62565b60405180910390f35b610472600480360381019061046d91906119eb565b61155f565b60405161047f9190611e40565b60405180910390f35b6104a2600480360381019061049d9190611933565b6115ca565b6040516104af9190611e62565b60405180910390f35b6104c06115f9565b6040516104cd9190611f62565b60405180910390f35b6104f060048036038101906104eb91906119eb565b6115ff565b005b61050c600480360381019061050791906119eb565b611701565b6040516105199190611f62565b60405180910390f35b60056020528060005260406000206000915090505481565b600260008281526020019081526020016000205460006002811115610562576105616122b3565b5b60008083815260200190815260200160002060030160009054906101000a900460ff166002811115610597576105966122b3565b5b146105a157600080fd5b338260001515600360003373ffffffffffffffffffffffffffffffffffffffff1673ffffffffffffffffffffffffffffffffffffffff168152602001908152602001600020600083815260200190815260200160002060009054906101000a900460ff16151514610647576040517f08c379a000000000000000000000000000000000000000000000000000000000815260040161063e90611f20565b60405180910390fd5b336000600560008373ffffffffffffffffffffffffffffffffffffffff1673ffffffffffffffffffffffffffffffffffffffff1681526020019081526020016000205414806106e1575042600954600560008473ffffffffffffffffffffffffffffffffffffffff1673ffffffffffffffffffffffffffffffffffffffff168152602001908152602001600020546106df91906120d3565b105b610720576040517f08c379a000000000000000000000000000000000000000000000000000000000815260040161071790611f00565b60405180910390fd5b6001600360003373ffffffffffffffffffffffffffffffffffffffff1673ffffffffffffffffffffffffffffffffffffffff168152602001908152602001600020600087815260200190815260200160002060006101000a81548160ff02191690831515021790555042600560003373ffffffffffffffffffffffffffffffffffffffff1673ffffffffffffffffffffffffffffffffffffffff168152602001908152602001600020819055508460026000878152602001908152602001600020547f23b2bfc0c368fdbec2cf6a0878f8f7ab7d497f92861fa232c0111ca69f63dc8260405160405180910390a35050505050565b60095481565b6001602052816000526040600020818154811061083757600080fd5b90600052602060002001600091509150505481565b806001151560008083815260200190815260200160002060030160019054906101000a900460ff1615151461088057600080fd5b8160016002811115610895576108946122b3565b5b60008083815260200190815260200160002060030160009054906101000a900460ff1660028111156108ca576108c96122b3565b5b146108d457600080fd5b600080600085815260200190815260200160002060030160006101000a81548160ff0219169083600281111561090d5761090c6122b3565b5b02179055507f5a695f43d53bb74f4457f1a60951e2c514c6de79da9a8d8369848853d647cc6a836040516109419190611f62565b60405180910390a1505050565b60008460006002811115610965576109646122b3565b5b60008083815260200190815260200160002060030160009054906101000a900460ff16600281111561099a576109996122b3565b5b146109a457600080fd5b6000600854905060006002600083815260200190815260200160002054146109cb57600080fd5b6001600088815260200190815260200160002081908060018154018082558091505060019003906000526020600020016000909190919091505586600260008381526020019081526020016000208190555060086000815480929190610a309061223b565b919050555080877f313f81e8cc8fe5ab3d1facaeffd8e0d26068ff1776d23a4621a5bdb0c891c817888888604051610a6a93929190611eb4565b60405180910390a38092505050949350505050565b6000816001151560008083815260200190815260200160002060030160019054906101000a900460ff16151514610ab557600080fd5b60016002811115610ac957610ac86122b3565b5b60008085815260200190815260200160002060030160009054906101000a900460ff166002811115610afe57610afd6122b3565b5b14915050919050565b60008060065490506040518060a0016040528082815260200185815260200184815260200160006002811115610b4057610b3f6122b3565b5b815260200160011515815250600080838152602001908152602001600020600082015181600001556020820151816001019080519060200190610b84929190611786565b506040820151816002019080519060200190610ba1929190611786565b5060608201518160030160006101000a81548160ff02191690836002811115610bcd57610bcc6122b3565b5b021790555060808201518160030160016101000a81548160ff02191690831515021790555090505060066000815480929190610c089061223b565b919050555060076000815480929190610c209061223b565b9190505550807f21579433a032855e20e8afc48e980ddae0b6285e4aa03370f03192be12bea28b8585604051610c57929190611e7d565b60405180910390a28091505092915050565b806001151560008083815260200190815260200160002060030160019054906101000a900460ff16151514610c9d57600080fd5b8160006002811115610cb257610cb16122b3565b5b60008083815260200190815260200160002060030160009054906101000a900460ff166002811115610ce757610ce66122b3565b5b14610cf157600080fd5b600160008085815260200190815260200160002060030160006101000a81548160ff02191690836002811115610d2a57610d296122b3565b5b02179055507feabb282842a353a61f42a3352791a6bf8d0f0b5d6e9cec67e0a0e2c42f387b9b83604051610d5e9190611f62565b60405180910390a1505050565b60046020528060005260406000206000915090505481565b610d8b61180c565b81600280811115610d9f57610d9e6122b3565b5b60008083815260200190815260200160002060030160009054906101000a900460ff166002811115610dd457610dd36122b3565b5b1415610ddf57600080fd5b6000808481526020019081526020016000206040518060a001604052908160008201548152602001600182018054610e16906121d8565b80601f0160208091040260200160405190810160405280929190818152602001828054610e42906121d8565b8015610e8f5780601f10610e6457610100808354040283529160200191610e8f565b820191906000526020600020905b815481529060010190602001808311610e7257829003601f168201915b50505050508152602001600282018054610ea8906121d8565b80601f0160208091040260200160405190810160405280929190818152602001828054610ed4906121d8565b8015610f215780601f10610ef657610100808354040283529160200191610f21565b820191906000526020600020905b815481529060010190602001808311610f0457829003601f168201915b505050505081526020016003820160009054906101000a900460ff166002811115610f4f57610f4e6122b3565b5b6002811115610f6157610f606122b3565b5b81526020016003820160019054906101000a900460ff161515151581525050915050919050565b6000816001151560008083815260200190815260200160002060030160019054906101000a900460ff16151514610fbe57600080fd5b60006002811115610fd257610fd16122b3565b5b60008085815260200190815260200160002060030160009054906101000a900460ff166002811115611007576110066122b3565b5b14915050919050565b806001151560008083815260200190815260200160002060030160019054906101000a900460ff1615151461104457600080fd5b81600280811115611058576110576122b3565b5b60008083815260200190815260200160002060030160009054906101000a900460ff16600281111561108d5761108c6122b3565b5b1461109757600080fd5b600160008085815260200190815260200160002060030160006101000a81548160ff021916908360028111156110d0576110cf6122b3565b5b02179055507fe23a63f864ee1069bc665aa3ed0b1dccc848ab996543e77baed0f465e8145c60836040516111049190611f62565b60405180910390a1505050565b6060600060075467ffffffffffffffff81111561113157611130612340565b5b60405190808252806020026020018201604052801561116a57816020015b61115761180c565b81526020019060019003908161114f5790505b50905060005b60075481101561134c576000808281526020019081526020016000206040518060a0016040529081600082015481526020016001820180546111b1906121d8565b80601f01602080910402602001604051908101604052809291908181526020018280546111dd906121d8565b801561122a5780601f106111ff5761010080835404028352916020019161122a565b820191906000526020600020905b81548152906001019060200180831161120d57829003601f168201915b50505050508152602001600282018054611243906121d8565b80601f016020809104026020016040519081016040528092919081815260200182805461126f906121d8565b80156112bc5780601f10611291576101008083540402835291602001916112bc565b820191906000526020600020905b81548152906001019060200180831161129f57829003601f168201915b505050505081526020016003820160009054906101000a900460ff1660028111156112ea576112e96122b3565b5b60028111156112fc576112fb6122b3565b5b81526020016003820160019054906101000a900460ff16151515158152505082828151811061132e5761132d612311565b5b602002602001018190525080806113449061223b565b915050611170565b508091505090565b60026020528060005260406000206000915090505481565b6000602052806000526040600020600091509050806000015490806001018054611395906121d8565b80601f01602080910402602001604051908101604052809291908181526020018280546113c1906121d8565b801561140e5780601f106113e35761010080835404028352916020019161140e565b820191906000526020600020905b8154815290600101906020018083116113f157829003601f168201915b505050505090806002018054611423906121d8565b80601f016020809104026020016040519081016040528092919081815260200182805461144f906121d8565b801561149c5780601f106114715761010080835404028352916020019161149c565b820191906000526020600020905b81548152906001019060200180831161147f57829003601f168201915b5050505050908060030160009054906101000a900460ff16908060030160019054906101000a900460ff16905085565b60065481565b60075481565b6000816001151560008083815260200190815260200160002060030160019054906101000a900460ff1615151461150e57600080fd5b600280811115611521576115206122b3565b5b60008085815260200190815260200160002060030160009054906101000a900460ff166002811115611556576115556122b3565b5b14915050919050565b6060600160008381526020019081526020016000208054806020026020016040519081016040528092919081815260200182805480156115be57602002820191906000526020600020905b8154815260200190600101908083116115aa575b50505050509050919050565b60036020528160005260406000206020528060005260406000206000915091509054906101000a900460ff1681565b60085481565b806001151560008083815260200190815260200160002060030160019054906101000a900460ff1615151461163357600080fd5b81600280811115611647576116466122b3565b5b60008083815260200190815260200160002060030160009054906101000a900460ff16600281111561167c5761167b6122b3565b5b141561168757600080fd5b600260008085815260200190815260200160002060030160006101000a81548160ff021916908360028111156116c0576116bf6122b3565b5b02179055507fa589501e457bda1f31782af099f2695facb8e79d38d121802e6ac1c53237b841836040516116f49190611f62565b60405180910390a1505050565b6000600260008381526020019081526020016000205460028081111561172a576117296122b3565b5b60008083815260200190815260200160002060030160009054906101000a900460ff16600281111561175f5761175e6122b3565b5b141561176a57600080fd5b6004600084815260200190815260200160002054915050919050565b828054611792906121d8565b90600052602060002090601f0160209004810192826117b457600085556117fb565b82601f106117cd57805160ff19168380011785556117fb565b828001600101855582156117fb579182015b828111156117fa5782518255916020019190600101906117df565b5b509050611808919061184f565b5090565b6040518060a00160405280600081526020016060815260200160608152602001600060028111156118405761183f6122b3565b5b81526020016000151581525090565b5b80821115611868576000816000905550600101611850565b5090565b600061187f61187a84612003565b611fde565b90508281526020810184848401111561189b5761189a612374565b5b6118a6848285612196565b509392505050565b6000813590506118bd81612446565b92915050565b600082601f8301126118d8576118d761236f565b5b81356118e884826020860161186c565b91505092915050565b6000813590506119008161245d565b92915050565b60006020828403121561191c5761191b61237e565b5b600061192a848285016118ae565b91505092915050565b6000806040838503121561194a5761194961237e565b5b6000611958858286016118ae565b9250506020611969858286016118f1565b9150509250929050565b6000806040838503121561198a5761198961237e565b5b600083013567ffffffffffffffff8111156119a8576119a7612379565b5b6119b4858286016118c3565b925050602083013567ffffffffffffffff8111156119d5576119d4612379565b5b6119e1858286016118c3565b9150509250929050565b600060208284031215611a0157611a0061237e565b5b6000611a0f848285016118f1565b91505092915050565b60008060008060808587031215611a3257611a3161237e565b5b6000611a40878288016118f1565b945050602085013567ffffffffffffffff811115611a6157611a60612379565b5b611a6d878288016118c3565b935050604085013567ffffffffffffffff811115611a8e57611a8d612379565b5b611a9a878288016118c3565b925050606085013567ffffffffffffffff811115611abb57611aba612379565b5b611ac7878288016118c3565b91505092959194509250565b60008060408385031215611aea57611ae961237e565b5b6000611af8858286016118f1565b9250506020611b09858286016118f1565b9150509250929050565b6000611b1f8383611d06565b905092915050565b6000611b338383611e00565b60208301905092915050565b6000611b4a82612054565b611b54818561208f565b935083602082028501611b6685612034565b8060005b85811015611ba25784840389528151611b838582611b13565b9450611b8e83612075565b925060208a01995050600181019050611b6a565b50829750879550505050505092915050565b6000611bbf8261205f565b611bc981856120a0565b9350611bd483612044565b8060005b83811015611c05578151611bec8882611b27565b9750611bf783612082565b925050600181019050611bd8565b5085935050505092915050565b611c1b8161213b565b82525050565b611c2a8161213b565b82525050565b611c3981612184565b82525050565b611c4881612184565b82525050565b6000611c598261206a565b611c6381856120b1565b9350611c738185602086016121a5565b611c7c81612383565b840191505092915050565b6000611c928261206a565b611c9c81856120c2565b9350611cac8185602086016121a5565b611cb581612383565b840191505092915050565b6000611ccd602c836120c2565b9150611cd882612394565b604082019050919050565b6000611cf06034836120c2565b9150611cfb826123e3565b604082019050919050565b600060a083016000830151611d1e6000860182611e00565b5060208301518482036020860152611d368282611c4e565b91505060408301518482036040860152611d508282611c4e565b9150506060830151611d656060860182611c30565b506080830151611d786080860182611c12565b508091505092915050565b600060a083016000830151611d9b6000860182611e00565b5060208301518482036020860152611db38282611c4e565b91505060408301518482036040860152611dcd8282611c4e565b9150506060830151611de26060860182611c30565b506080830151611df56080860182611c12565b508091505092915050565b611e098161217a565b82525050565b611e188161217a565b82525050565b60006020820190508181036000830152611e388184611b3f565b905092915050565b60006020820190508181036000830152611e5a8184611bb4565b905092915050565b6000602082019050611e776000830184611c21565b92915050565b60006040820190508181036000830152611e978185611c87565b90508181036020830152611eab8184611c87565b90509392505050565b60006060820190508181036000830152611ece8186611c87565b90508181036020830152611ee28185611c87565b90508181036040830152611ef68184611c87565b9050949350505050565b60006020820190508181036000830152611f1981611cc0565b9050919050565b60006020820190508181036000830152611f3981611ce3565b9050919050565b60006020820190508181036000830152611f5a8184611d83565b905092915050565b6000602082019050611f776000830184611e0f565b92915050565b600060a082019050611f926000830188611e0f565b8181036020830152611fa48187611c87565b90508181036040830152611fb88186611c87565b9050611fc76060830185611c3f565b611fd46080830184611c21565b9695505050505050565b6000611fe8611ff9565b9050611ff4828261220a565b919050565b6000604051905090565b600067ffffffffffffffff82111561201e5761201d612340565b5b61202782612383565b9050602081019050919050565b6000819050602082019050919050565b6000819050602082019050919050565b600081519050919050565b600081519050919050565b600081519050919050565b6000602082019050919050565b6000602082019050919050565b600082825260208201905092915050565b600082825260208201905092915050565b600082825260208201905092915050565b600082825260208201905092915050565b60006120de8261217a565b91506120e98361217a565b9250827fffffffffffffffffffffffffffffffffffffffffffffffffffffffffffffffff0382111561211e5761211d612284565b5b828201905092915050565b60006121348261215a565b9050919050565b60008115159050919050565b600081905061215582612432565b919050565b600073ffffffffffffffffffffffffffffffffffffffff82169050919050565b6000819050919050565b600061218f82612147565b9050919050565b82818337600083830152505050565b60005b838110156121c35780820151818401526020810190506121a8565b838111156121d2576000848401525b50505050565b600060028204905060018216806121f057607f821691505b60208210811415612204576122036122e2565b5b50919050565b61221382612383565b810181811067ffffffffffffffff8211171561223257612231612340565b5b80604052505050565b60006122468261217a565b91507fffffffffffffffffffffffffffffffffffffffffffffffffffffffffffffffff82141561227957612278612284565b5b600182019050919050565b7f4e487b7100000000000000000000000000000000000000000000000000000000600052601160045260246000fd5b7f4e487b7100000000000000000000000000000000000000000000000000000000600052602160045260246000fd5b7f4e487b7100000000000000000000000000000000000000000000000000000000600052602260045260246000fd5b7f4e487b7100000000000000000000000000000000000000000000000000000000600052603260045260246000fd5b7f4e487b7100000000000000000000000000000000000000000000000000000000600052604160045260246000fd5b600080fd5b600080fd5b600080fd5b600080fd5b6000601f19601f8301169050919050565b7f557365722069732063757272656e746c7920696e20766f74696e6720636f6f6c60008201527f646f776e20706572696f642e0000000000000000000000000000000000000000602082015250565b7f55736572732063616e6e6f7420766f746520666f72207468652073616d65206560008201527f6e747279206d756c7469706c652074696d65732e000000000000000000000000602082015250565b60038110612443576124426122b3565b5b50565b61244f81612129565b811461245a57600080fd5b50565b6124668161217a565b811461247157600080fd5b5056fea26469706673582212204d11668ed467256b8a07bffdc1ff2f2c9ee0a3a89ac90ac6cb57bfb1d731991464736f6c63430008070033",
  "immutableReferences": {},
  "source": "// SPDX-License-Identifier: MIT\r\npragma solidity ^0.8.0;\r\n\r\ncontract Tracks {\r\n  mapping (uint  => Track) public tracks;\r\n  mapping (uint  => uint[]) public trackEntries; //trackId => entryId[]\r\n  mapping (uint  => uint) public entriesTrack; //entryId => trackId\r\n  mapping (address  => mapping (uint => bool)) public votesByAddress; //address => (entryId => bool)\r\n  mapping (uint  => uint) public votes; //entryId => Vote\r\n  mapping (address  => uint) public lastVoteTime; //address => time(s)\r\n\r\n  uint public nextTrackId;\r\n  uint public trackCount;\r\n  uint public nextEntryId;\r\n  uint public cooldownPeriod;\r\n\r\n  enum State {\r\n      TrackOpen,\r\n      TrackClosed,\r\n      TrackBlocked\r\n  }\r\n  struct Track {\r\n      uint  trackId;\r\n      string  name;\r\n      string  desc;\r\n      State state;\r\n      bool exists;\r\n  }\r\n\r\n  event TrackOpened(uint trackId);\r\n  event TrackClosed(uint trackId);\r\n  event TrackBlocked(uint trackId);\r\n  event TrackUnblocked(uint trackId);\r\n  event TrackCreated(uint indexed trackId, string name, string desc);\r\n  event EntryCreated(uint indexed trackId, uint indexed entryId, string name, string desc, string location);\r\n  event EntryVotedFor(uint indexed trackId, uint indexed entryId);\r\n\r\n  /**\r\n   * @dev XXX\r\n   * @param _trackId The id of the track\r\n   */\r\n\tmodifier checkTrackOpen(uint _trackId) {\r\n\t\trequire(tracks[_trackId].state == State.TrackOpen);\r\n    _;\r\n  }\r\n  \r\n\t/**\r\n   * @dev XXX\r\n   * @param _trackId The id of the track\r\n   */\r\n\tmodifier checkTrackClosed(uint _trackId) {\r\n\t\trequire(tracks[_trackId].state == State.TrackClosed);\r\n    _;\r\n  }\r\n  \r\n  /**\r\n   * @dev XXX\r\n   * @param _trackId The id of the track\r\n   */\r\n\tmodifier checkTrackBlocked(uint _trackId) {\r\n\t\trequire(tracks[_trackId].state == State.TrackBlocked);\r\n    _;\r\n  }\r\n  \r\n  /**\r\n   * @dev XXX\r\n   * @param _trackId The id of the track\r\n   */\r\n\tmodifier checkTrackUnblocked(uint _trackId) {\r\n\t\trequire(tracks[_trackId].state != State.TrackBlocked);\r\n    _;\r\n  }\r\n  \r\n  /**\r\n   * @dev XXX\r\n   * @param _trackId The id of the track\r\n   */\r\n\tmodifier checkTrackExists(uint _trackId) {\r\n\t\t\trequire(tracks[_trackId].exists == true);\r\n\t    _;\r\n\t  }\r\n\r\n\tmodifier hasNotVotedForEntry(address _addr, uint _entryId){\r\n\t    require(votesByAddress[msg.sender][_entryId] == false, \"Users cannot vote for the same entry multiple times.\");\r\n\t    _;\r\n\t}\r\n\t\r\n\tmodifier isNotInCooldown(address addr){\r\n\t    require(lastVoteTime[addr] == 0 || lastVoteTime[addr] + cooldownPeriod < block.timestamp, \"User is currently in voting cooldown period.\");\r\n\t    _;\r\n\t}\r\n\r\n\t/**\r\n   * @dev XXX\r\n   */\r\n  constructor () {\r\n      uint trackId = addTrack(\"first_track\", \"This is the first track\");\r\n      addEntry(trackId, \"name\", \"description\", \"location\");\r\n      cooldownPeriod = 1 days;\r\n  }\r\n\r\n\t/**\r\n   * @dev XXX\r\n   */\r\n  function getTracks() public view returns ( Track[] memory) {\r\n      Track[] memory _tracks = new Track[](trackCount);\r\n      for (uint i=0; i<trackCount; i++) {\r\n          _tracks[i] = tracks[i];\r\n      }\r\n      return _tracks;\r\n  }\r\n\r\n  /**\r\n   * @dev XXX\r\n   * @param _trackId The id of the track\r\n   */\r\n  function getTrack(uint _trackId) public view checkTrackUnblocked(_trackId) returns (Track memory) {\r\n      return tracks[_trackId];\r\n  }\r\n\t\r\n\t/**\r\n   * @dev XXX\r\n   * @param _entryId The id of the entry\r\n   */\r\n  function getVotesForEntry(uint _entryId) public view checkTrackUnblocked(entriesTrack[_entryId]) returns (uint) {\r\n      return votes[_entryId];\r\n  }\r\n  \r\n\r\n  /**\r\n   * @dev XXX\r\n   * @param _trackId The id of the track\r\n   */\r\n  function getEntriesForTrack(uint _trackId) public view returns (uint[] memory){\r\n      return trackEntries[_trackId];\r\n  }\r\n\r\n\t/**\r\n   * @dev XXX\r\n   * @param _trackId The id of the track\r\n   */\r\n  function openTrack(uint _trackId) public checkTrackExists(_trackId) checkTrackClosed(_trackId) {\r\n      tracks[_trackId].state = State.TrackOpen;\r\n      emit TrackOpened(_trackId);\r\n  }\r\n\r\n\t/**\r\n   * @dev XXX\r\n   * @param _trackId The id of the track\r\n   */\r\n\tfunction closeTrack(uint _trackId) public checkTrackExists(_trackId) checkTrackOpen(_trackId) {\r\n      tracks[_trackId].state = State.TrackClosed;\r\n      emit TrackClosed(_trackId);\r\n  }\r\n\r\n\t/**\r\n   * @dev XXX\r\n   * @param _trackId The id of the track\r\n   */\r\n\tfunction blockTrack(uint _trackId) public checkTrackExists(_trackId) checkTrackUnblocked(_trackId) {\r\n      tracks[_trackId].state = State.TrackBlocked;\r\n      emit TrackBlocked(_trackId);\r\n  }\r\n\r\n  /**\r\n   * @dev XXX\r\n   * @param _trackId The id of the track\r\n   */\r\n  function unblockTrack(uint _trackId) public checkTrackExists(_trackId) checkTrackBlocked(_trackId) {\r\n      tracks[_trackId].state = State.TrackClosed;\r\n      emit TrackUnblocked(_trackId);\r\n  }\r\n\r\n\t/**\r\n   * @dev XXX\r\n   * @param _trackId The id of the track\r\n   */\r\n  function isTrackOpen(uint _trackId) public view checkTrackExists(_trackId) returns (bool){\r\n      return (tracks[_trackId].state == State.TrackOpen);\r\n  }\r\n  /**\r\n   * @dev XXX\r\n   * @param _trackId The id of the track\r\n   */\r\n  function isTrackClosed(uint _trackId) public view checkTrackExists(_trackId) returns (bool){\r\n      return (tracks[_trackId].state == State.TrackClosed);\r\n  }\r\n  /**\r\n   * @dev XXX\r\n   * @param _trackId The id of the track\r\n   */\r\n  function isTrackBlocked(uint _trackId) public view checkTrackExists(_trackId) returns (bool){\r\n      return (tracks[_trackId].state == State.TrackBlocked);\r\n  }\r\n\r\n\t/**\r\n   * @dev XXX\r\n   * @param _entryId The id of the entry\r\n   */\r\n  function vote(uint _entryId) public checkTrackOpen(entriesTrack[_entryId]) hasNotVotedForEntry(msg.sender, _entryId) isNotInCooldown(msg.sender) {\r\n    votesByAddress[msg.sender][_entryId] = true;\r\n    lastVoteTime[msg.sender] = block.timestamp;\r\n    emit EntryVotedFor(entriesTrack[_entryId], _entryId);\r\n  }\r\n\r\n  /**\r\n   * @dev XXX\r\n   * @param _trackId The id of the track\r\n   */\r\n  function addEntry(uint _trackId, string memory _name, string memory _desc, string memory _location) public checkTrackOpen(_trackId) returns (uint) {\r\n    uint entryId = nextEntryId;\r\n    require(entriesTrack[entryId] == 0);\r\n    trackEntries[_trackId].push(entryId);\r\n    entriesTrack[entryId] = _trackId;\r\n    nextEntryId++;\r\n    emit EntryCreated(_trackId, entryId, _name, _desc, _location);\r\n    return entryId;\r\n  }\r\n\r\n\t/**\r\n   * @dev XXX\r\n   * @param _name XXX\r\n   * @param _desc XXX\r\n   */\r\n  function addTrack(string memory _name, string memory _desc) public returns (uint) {\r\n    uint trackId = nextTrackId;\r\n    tracks[trackId] = Track({\r\n      trackId: trackId,\r\n      name: _name,\r\n      desc: _desc,\r\n      state: State.TrackOpen,\r\n      exists: true\r\n    });\r\n    nextTrackId++;\r\n    trackCount++;\r\n    emit TrackCreated(trackId, _name, _desc);\r\n    return trackId;\r\n   }\r\n}\r\n\r\n\r\n",
  "sourcePath": "/mnt/d/projects/blockchain-developer-bootcamp-final-project/tracks/contracts/Tracks.sol",
  "compiler": {
    "name": "solc",
    "version": "0.8.7+commit.e28d00a7.Emscripten.clang"
  },
  "schemaVersion": "3.4.3",
  "updatedAt": "2021-10-06T07:44:47.261Z",
  "devdoc": {
    "kind": "dev",
    "methods": {
      "addEntry(uint256,string,string,string)": {
        "details": "XXX",
        "params": {
          "_trackId": "The id of the track"
        }
      },
      "addTrack(string,string)": {
        "details": "XXX",
        "params": {
          "_desc": "XXX",
          "_name": "XXX"
        }
      },
      "blockTrack(uint256)": {
        "details": "XXX",
        "params": {
          "_trackId": "The id of the track"
        }
      },
      "closeTrack(uint256)": {
        "details": "XXX",
        "params": {
          "_trackId": "The id of the track"
        }
      },
      "constructor": {
        "details": "XXX"
      },
      "getEntriesForTrack(uint256)": {
        "details": "XXX",
        "params": {
          "_trackId": "The id of the track"
        }
      },
      "getTrack(uint256)": {
        "details": "XXX",
        "params": {
          "_trackId": "The id of the track"
        }
      },
      "getTracks()": {
        "details": "XXX"
      },
      "getVotesForEntry(uint256)": {
        "details": "XXX",
        "params": {
          "_entryId": "The id of the entry"
        }
      },
      "isTrackBlocked(uint256)": {
        "details": "XXX",
        "params": {
          "_trackId": "The id of the track"
        }
      },
      "isTrackClosed(uint256)": {
        "details": "XXX",
        "params": {
          "_trackId": "The id of the track"
        }
      },
      "isTrackOpen(uint256)": {
        "details": "XXX",
        "params": {
          "_trackId": "The id of the track"
        }
      },
      "openTrack(uint256)": {
        "details": "XXX",
        "params": {
          "_trackId": "The id of the track"
        }
      },
      "unblockTrack(uint256)": {
        "details": "XXX",
        "params": {
          "_trackId": "The id of the track"
        }
      },
      "vote(uint256)": {
        "details": "XXX",
        "params": {
          "_entryId": "The id of the entry"
        }
      }
    },
    "version": 1
  },
  "userdoc": {
    "kind": "user",
    "methods": {},
    "version": 1
  }
}