{
  "contractName": "Tracks",
  "abi": [
    {
      "inputs": [],
      "stateMutability": "nonpayable",
      "type": "constructor"
    },
    {
      "anonymous": false,
      "inputs": [
        {
          "indexed": true,
          "internalType": "uint256",
          "name": "trackId",
          "type": "uint256"
        },
        {
          "indexed": true,
          "internalType": "uint256",
          "name": "entryId",
          "type": "uint256"
        },
        {
          "indexed": false,
          "internalType": "string",
          "name": "name",
          "type": "string"
        },
        {
          "indexed": false,
          "internalType": "string",
          "name": "desc",
          "type": "string"
        },
        {
          "indexed": false,
          "internalType": "string",
          "name": "location",
          "type": "string"
        }
      ],
      "name": "EntryCreated",
      "type": "event"
    },
    {
      "anonymous": false,
      "inputs": [
        {
          "indexed": true,
          "internalType": "uint256",
          "name": "trackId",
          "type": "uint256"
        },
        {
          "indexed": true,
          "internalType": "uint256",
          "name": "entryId",
          "type": "uint256"
        }
      ],
      "name": "EntryVotedFor",
      "type": "event"
    },
    {
      "anonymous": false,
      "inputs": [
        {
          "indexed": false,
          "internalType": "uint256",
          "name": "trackId",
          "type": "uint256"
        }
      ],
      "name": "TrackBlocked",
      "type": "event"
    },
    {
      "anonymous": false,
      "inputs": [
        {
          "indexed": false,
          "internalType": "uint256",
          "name": "trackId",
          "type": "uint256"
        }
      ],
      "name": "TrackClosed",
      "type": "event"
    },
    {
      "anonymous": false,
      "inputs": [
        {
          "indexed": true,
          "internalType": "uint256",
          "name": "trackId",
          "type": "uint256"
        },
        {
          "indexed": false,
          "internalType": "string",
          "name": "name",
          "type": "string"
        },
        {
          "indexed": false,
          "internalType": "string",
          "name": "desc",
          "type": "string"
        }
      ],
      "name": "TrackCreated",
      "type": "event"
    },
    {
      "anonymous": false,
      "inputs": [
        {
          "indexed": false,
          "internalType": "uint256",
          "name": "trackId",
          "type": "uint256"
        }
      ],
      "name": "TrackOpened",
      "type": "event"
    },
    {
      "anonymous": false,
      "inputs": [
        {
          "indexed": false,
          "internalType": "uint256",
          "name": "trackId",
          "type": "uint256"
        }
      ],
      "name": "TrackUnblocked",
      "type": "event"
    },
    {
      "inputs": [],
      "name": "cooldownPeriod",
      "outputs": [
        {
          "internalType": "uint256",
          "name": "",
          "type": "uint256"
        }
      ],
      "stateMutability": "view",
      "type": "function",
      "constant": true
    },
    {
      "inputs": [
        {
          "internalType": "uint256",
          "name": "",
          "type": "uint256"
        }
      ],
      "name": "entriesTrack",
      "outputs": [
        {
          "internalType": "uint256",
          "name": "",
          "type": "uint256"
        }
      ],
      "stateMutability": "view",
      "type": "function",
      "constant": true
    },
    {
      "inputs": [
        {
          "internalType": "address",
          "name": "",
          "type": "address"
        },
        {
          "internalType": "uint256",
          "name": "",
          "type": "uint256"
        }
      ],
      "name": "lastVoteTime",
      "outputs": [
        {
          "internalType": "uint256",
          "name": "",
          "type": "uint256"
        }
      ],
      "stateMutability": "view",
      "type": "function",
      "constant": true
    },
    {
      "inputs": [],
      "name": "nextEntryId",
      "outputs": [
        {
          "internalType": "uint256",
          "name": "",
          "type": "uint256"
        }
      ],
      "stateMutability": "view",
      "type": "function",
      "constant": true
    },
    {
      "inputs": [],
      "name": "nextTrackId",
      "outputs": [
        {
          "internalType": "uint256",
          "name": "",
          "type": "uint256"
        }
      ],
      "stateMutability": "view",
      "type": "function",
      "constant": true
    },
    {
      "inputs": [],
      "name": "trackCount",
      "outputs": [
        {
          "internalType": "uint256",
          "name": "",
          "type": "uint256"
        }
      ],
      "stateMutability": "view",
      "type": "function",
      "constant": true
    },
    {
      "inputs": [
        {
          "internalType": "uint256",
          "name": "",
          "type": "uint256"
        },
        {
          "internalType": "uint256",
          "name": "",
          "type": "uint256"
        }
      ],
      "name": "trackEntries",
      "outputs": [
        {
          "internalType": "uint256",
          "name": "",
          "type": "uint256"
        }
      ],
      "stateMutability": "view",
      "type": "function",
      "constant": true
    },
    {
      "inputs": [
        {
          "internalType": "uint256",
          "name": "",
          "type": "uint256"
        }
      ],
      "name": "tracks",
      "outputs": [
        {
          "internalType": "uint256",
          "name": "trackId",
          "type": "uint256"
        },
        {
          "internalType": "string",
          "name": "name",
          "type": "string"
        },
        {
          "internalType": "string",
          "name": "desc",
          "type": "string"
        },
        {
          "internalType": "enum Tracks.State",
          "name": "state",
          "type": "uint8"
        },
        {
          "internalType": "bool",
          "name": "exists",
          "type": "bool"
        }
      ],
      "stateMutability": "view",
      "type": "function",
      "constant": true
    },
    {
      "inputs": [
        {
          "internalType": "uint256",
          "name": "",
          "type": "uint256"
        }
      ],
      "name": "votes",
      "outputs": [
        {
          "internalType": "uint256",
          "name": "",
          "type": "uint256"
        }
      ],
      "stateMutability": "view",
      "type": "function",
      "constant": true
    },
    {
      "inputs": [
        {
          "internalType": "address",
          "name": "",
          "type": "address"
        },
        {
          "internalType": "uint256",
          "name": "",
          "type": "uint256"
        }
      ],
      "name": "votesByAddress",
      "outputs": [
        {
          "internalType": "bool",
          "name": "",
          "type": "bool"
        }
      ],
      "stateMutability": "view",
      "type": "function",
      "constant": true
    },
    {
      "inputs": [],
      "name": "getTracks",
      "outputs": [
        {
          "components": [
            {
              "internalType": "uint256",
              "name": "trackId",
              "type": "uint256"
            },
            {
              "internalType": "string",
              "name": "name",
              "type": "string"
            },
            {
              "internalType": "string",
              "name": "desc",
              "type": "string"
            },
            {
              "internalType": "enum Tracks.State",
              "name": "state",
              "type": "uint8"
            },
            {
              "internalType": "bool",
              "name": "exists",
              "type": "bool"
            }
          ],
          "internalType": "struct Tracks.Track[]",
          "name": "",
          "type": "tuple[]"
        }
      ],
      "stateMutability": "view",
      "type": "function",
      "constant": true
    },
    {
      "inputs": [
        {
          "internalType": "uint256",
          "name": "_trackId",
          "type": "uint256"
        }
      ],
      "name": "getTrack",
      "outputs": [
        {
          "components": [
            {
              "internalType": "uint256",
              "name": "trackId",
              "type": "uint256"
            },
            {
              "internalType": "string",
              "name": "name",
              "type": "string"
            },
            {
              "internalType": "string",
              "name": "desc",
              "type": "string"
            },
            {
              "internalType": "enum Tracks.State",
              "name": "state",
              "type": "uint8"
            },
            {
              "internalType": "bool",
              "name": "exists",
              "type": "bool"
            }
          ],
          "internalType": "struct Tracks.Track",
          "name": "",
          "type": "tuple"
        }
      ],
      "stateMutability": "view",
      "type": "function",
      "constant": true
    },
    {
      "inputs": [
        {
          "internalType": "uint256",
          "name": "_entryId",
          "type": "uint256"
        }
      ],
      "name": "getVotesForEntry",
      "outputs": [
        {
          "internalType": "uint256",
          "name": "",
          "type": "uint256"
        }
      ],
      "stateMutability": "view",
      "type": "function",
      "constant": true
    },
    {
      "inputs": [
        {
          "internalType": "uint256",
          "name": "_trackId",
          "type": "uint256"
        }
      ],
      "name": "getEntriesForTrack",
      "outputs": [
        {
          "internalType": "uint256[]",
          "name": "",
          "type": "uint256[]"
        }
      ],
      "stateMutability": "view",
      "type": "function",
      "constant": true
    },
    {
      "inputs": [
        {
          "internalType": "uint256",
          "name": "_trackId",
          "type": "uint256"
        }
      ],
      "name": "openTrack",
      "outputs": [],
      "stateMutability": "nonpayable",
      "type": "function"
    },
    {
      "inputs": [
        {
          "internalType": "uint256",
          "name": "_trackId",
          "type": "uint256"
        }
      ],
      "name": "closeTrack",
      "outputs": [],
      "stateMutability": "nonpayable",
      "type": "function"
    },
    {
      "inputs": [
        {
          "internalType": "uint256",
          "name": "_trackId",
          "type": "uint256"
        }
      ],
      "name": "blockTrack",
      "outputs": [],
      "stateMutability": "nonpayable",
      "type": "function"
    },
    {
      "inputs": [
        {
          "internalType": "uint256",
          "name": "_trackId",
          "type": "uint256"
        }
      ],
      "name": "unblockTrack",
      "outputs": [],
      "stateMutability": "nonpayable",
      "type": "function"
    },
    {
      "inputs": [
        {
          "internalType": "uint256",
          "name": "_trackId",
          "type": "uint256"
        }
      ],
      "name": "isTrackOpen",
      "outputs": [
        {
          "internalType": "bool",
          "name": "",
          "type": "bool"
        }
      ],
      "stateMutability": "view",
      "type": "function",
      "constant": true
    },
    {
      "inputs": [
        {
          "internalType": "uint256",
          "name": "_trackId",
          "type": "uint256"
        }
      ],
      "name": "isTrackClosed",
      "outputs": [
        {
          "internalType": "bool",
          "name": "",
          "type": "bool"
        }
      ],
      "stateMutability": "view",
      "type": "function",
      "constant": true
    },
    {
      "inputs": [
        {
          "internalType": "uint256",
          "name": "_trackId",
          "type": "uint256"
        }
      ],
      "name": "isTrackBlocked",
      "outputs": [
        {
          "internalType": "bool",
          "name": "",
          "type": "bool"
        }
      ],
      "stateMutability": "view",
      "type": "function",
      "constant": true
    },
    {
      "inputs": [
        {
          "internalType": "uint256",
          "name": "_entryId",
          "type": "uint256"
        }
      ],
      "name": "vote",
      "outputs": [],
      "stateMutability": "nonpayable",
      "type": "function"
    },
    {
      "inputs": [
        {
          "internalType": "uint256",
          "name": "_trackId",
          "type": "uint256"
        },
        {
          "internalType": "string",
          "name": "_name",
          "type": "string"
        },
        {
          "internalType": "string",
          "name": "_desc",
          "type": "string"
        },
        {
          "internalType": "string",
          "name": "_location",
          "type": "string"
        }
      ],
      "name": "addEntry",
      "outputs": [
        {
          "internalType": "uint256",
          "name": "",
          "type": "uint256"
        }
      ],
      "stateMutability": "nonpayable",
      "type": "function"
    },
    {
      "inputs": [
        {
          "internalType": "string",
          "name": "_name",
          "type": "string"
        },
        {
          "internalType": "string",
          "name": "_desc",
          "type": "string"
        }
      ],
      "name": "addTrack",
      "outputs": [
        {
          "internalType": "uint256",
          "name": "",
          "type": "uint256"
        }
      ],
      "stateMutability": "nonpayable",
      "type": "function"
    }
  ],
  "bytecode": "0x60806040523480156200001157600080fd5b506000620000906040518060400160405280600b81526020017f66697273745f747261636b0000000000000000000000000000000000000000008152506040518060400160405280601781526020017f546869732069732074686520666972737420747261636b0000000000000000008152506200015660201b60201c565b905062000145816040518060400160405280600481526020017f6e616d65000000000000000000000000000000000000000000000000000000008152506040518060400160405280600b81526020017f6465736372697074696f6e0000000000000000000000000000000000000000008152506040518060400160405280600881526020017f6c6f636174696f6e000000000000000000000000000000000000000000000000815250620002c860201b60201c565b50610e106009819055505062000701565b60008060065490506040518060a001604052808281526020018581526020018481526020016000600281111562000192576200019162000692565b5b815260200160011515815250600080838152602001908152602001600020600082015181600001556020820151816001019080519060200190620001d892919062000405565b506040820151816002019080519060200190620001f792919062000405565b5060608201518160030160006101000a81548160ff0219169083600281111562000226576200022562000692565b5b021790555060808201518160030160016101000a81548160ff02191690831515021790555090505060066000815480929190620002639062000615565b9190505550600760008154809291906200027d9062000615565b9190505550807f21579433a032855e20e8afc48e980ddae0b6285e4aa03370f03192be12bea28b8585604051620002b6929190620004f6565b60405180910390a28091505092915050565b60008460006002811115620002e257620002e162000692565b5b60008083815260200190815260200160002060030160009054906101000a900460ff1660028111156200031a576200031962000692565b5b146200032557600080fd5b6000600854905060006002600083815260200190815260200160002054146200034d57600080fd5b6001600088815260200190815260200160002081908060018154018082558091505060019003906000526020600020016000909190919091505586600260008381526020019081526020016000208190555060086000815480929190620003b49062000615565b919050555080877f313f81e8cc8fe5ab3d1facaeffd8e0d26068ff1776d23a4621a5bdb0c891c817888888604051620003f09392919062000531565b60405180910390a38092505050949350505050565b8280546200041390620005df565b90600052602060002090601f01602090048101928262000437576000855562000483565b82601f106200045257805160ff191683800117855562000483565b8280016001018555821562000483579182015b828111156200048257825182559160200191906001019062000465565b5b50905062000492919062000496565b5090565b5b80821115620004b157600081600090555060010162000497565b5090565b6000620004c28262000583565b620004ce81856200058e565b9350620004e0818560208601620005a9565b620004eb81620006f0565b840191505092915050565b60006040820190508181036000830152620005128185620004b5565b90508181036020830152620005288184620004b5565b90509392505050565b600060608201905081810360008301526200054d8186620004b5565b90508181036020830152620005638185620004b5565b90508181036040830152620005798184620004b5565b9050949350505050565b600081519050919050565b600082825260208201905092915050565b6000819050919050565b60005b83811015620005c9578082015181840152602081019050620005ac565b83811115620005d9576000848401525b50505050565b60006002820490506001821680620005f857607f821691505b602082108114156200060f576200060e620006c1565b5b50919050565b600062000622826200059f565b91507fffffffffffffffffffffffffffffffffffffffffffffffffffffffffffffffff82141562000658576200065762000663565b5b600182019050919050565b7f4e487b7100000000000000000000000000000000000000000000000000000000600052601160045260246000fd5b7f4e487b7100000000000000000000000000000000000000000000000000000000600052602160045260246000fd5b7f4e487b7100000000000000000000000000000000000000000000000000000000600052602260045260246000fd5b6000601f19601f8301169050919050565b6124d980620007116000396000f3fe608060405234801561001057600080fd5b50600436106101585760003560e01c806368e982b0116100c3578063caa2c2ad1161007c578063caa2c2ad14610429578063d02f448314610459578063db7c01e214610489578063e6b2cf6c146104b9578063ef759761146104d7578063ff9edb9e146104f357610158565b806368e982b01461034f57806387548fcf1461036b578063924e9b9514610389578063a2e34586146103b9578063a72024c6146103ed578063ab35678c1461040b57610158565b806336de40be1161011557806336de40be14610243578063423b7032146102735780634bc558b31461028f5780635df81330146102bf578063629058ca146102ef57806366cb59361461031f57610158565b80630121b93f1461015d57806304646a4914610179578063109699b6146101975780631f6c5f00146101c75780632e42ddbf146101e357806333abbe5114610213575b600080fd5b61017760048036038101906101729190611a1a565b610523565b005b61018161084c565b60405161018e9190611f91565b60405180910390f35b6101b160048036038101906101ac9190611b02565b610852565b6040516101be9190611f91565b60405180910390f35b6101e160048036038101906101dc9190611a1a565b610883565b005b6101fd60048036038101906101f89190611a47565b610985565b60405161020a9190611f91565b60405180910390f35b61022d60048036038101906102289190611a1a565b610ab6565b60405161023a9190611e91565b60405180910390f35b61025d600480360381019061025891906119a2565b610b3e565b60405161026a9190611f91565b60405180910390f35b61028d60048036038101906102889190611a1a565b610ca0565b005b6102a960048036038101906102a49190611962565b610da2565b6040516102b69190611f91565b60405180910390f35b6102d960048036038101906102d49190611a1a565b610dc7565b6040516102e69190611f91565b60405180910390f35b61030960048036038101906103049190611a1a565b610ddf565b6040516103169190611f6f565b60405180910390f35b61033960048036038101906103349190611a1a565b610fe4565b6040516103469190611e91565b60405180910390f35b61036960048036038101906103649190611a1a565b61106c565b005b61037361116d565b6040516103809190611e4d565b60405180910390f35b6103a3600480360381019061039e9190611a1a565b6113b0565b6040516103b09190611f91565b60405180910390f35b6103d360048036038101906103ce9190611a1a565b6113c8565b6040516103e4959493929190611fac565b60405180910390f35b6103f5611528565b6040516104029190611f91565b60405180910390f35b61041361152e565b6040516104209190611f91565b60405180910390f35b610443600480360381019061043e9190611a1a565b611534565b6040516104509190611e91565b60405180910390f35b610473600480360381019061046e9190611a1a565b6115bb565b6040516104809190611e6f565b60405180910390f35b6104a3600480360381019061049e9190611962565b611626565b6040516104b09190611e91565b60405180910390f35b6104c1611655565b6040516104ce9190611f91565b60405180910390f35b6104f160048036038101906104ec9190611a1a565b61165b565b005b61050d60048036038101906105089190611a1a565b61175d565b60405161051a9190611f91565b60405180910390f35b60026000828152602001908152602001600020546000600281111561054b5761054a6122e2565b5b60008083815260200190815260200160002060030160009054906101000a900460ff1660028111156105805761057f6122e2565b5b1461058a57600080fd5b338260001515600360003373ffffffffffffffffffffffffffffffffffffffff1673ffffffffffffffffffffffffffffffffffffffff168152602001908152602001600020600083815260200190815260200160002060009054906101000a900460ff16151514610630576040517f08c379a000000000000000000000000000000000000000000000000000000000815260040161062790611f4f565b60405180910390fd5b3360026000868152602001908152602001600020546000600560008473ffffffffffffffffffffffffffffffffffffffff1673ffffffffffffffffffffffffffffffffffffffff1681526020019081526020016000206000838152602001908152602001600020541480610700575042600954600560008573ffffffffffffffffffffffffffffffffffffffff1673ffffffffffffffffffffffffffffffffffffffff1681526020019081526020016000206000848152602001908152602001600020546106fe9190612102565b105b61073f576040517f08c379a000000000000000000000000000000000000000000000000000000000815260040161073690611f2f565b60405180910390fd5b6000600260008881526020019081526020016000205490506001600360003373ffffffffffffffffffffffffffffffffffffffff1673ffffffffffffffffffffffffffffffffffffffff168152602001908152602001600020600089815260200190815260200160002060006101000a81548160ff02191690831515021790555042600560003373ffffffffffffffffffffffffffffffffffffffff1673ffffffffffffffffffffffffffffffffffffffff16815260200190815260200160002060008381526020019081526020016000208190555086817f23b2bfc0c368fdbec2cf6a0878f8f7ab7d497f92861fa232c0111ca69f63dc8260405160405180910390a350505050505050565b60095481565b6001602052816000526040600020818154811061086e57600080fd5b90600052602060002001600091509150505481565b806001151560008083815260200190815260200160002060030160019054906101000a900460ff161515146108b757600080fd5b81600160028111156108cc576108cb6122e2565b5b60008083815260200190815260200160002060030160009054906101000a900460ff166002811115610901576109006122e2565b5b1461090b57600080fd5b600080600085815260200190815260200160002060030160006101000a81548160ff02191690836002811115610944576109436122e2565b5b02179055507f5a695f43d53bb74f4457f1a60951e2c514c6de79da9a8d8369848853d647cc6a836040516109789190611f91565b60405180910390a1505050565b6000846000600281111561099c5761099b6122e2565b5b60008083815260200190815260200160002060030160009054906101000a900460ff1660028111156109d1576109d06122e2565b5b146109db57600080fd5b600060085490506000600260008381526020019081526020016000205414610a0257600080fd5b6001600088815260200190815260200160002081908060018154018082558091505060019003906000526020600020016000909190919091505586600260008381526020019081526020016000208190555060086000815480929190610a679061226a565b919050555080877f313f81e8cc8fe5ab3d1facaeffd8e0d26068ff1776d23a4621a5bdb0c891c817888888604051610aa193929190611ee3565b60405180910390a38092505050949350505050565b6000816001151560008083815260200190815260200160002060030160019054906101000a900460ff16151514610aec57600080fd5b60016002811115610b0057610aff6122e2565b5b60008085815260200190815260200160002060030160009054906101000a900460ff166002811115610b3557610b346122e2565b5b14915050919050565b60008060065490506040518060a0016040528082815260200185815260200184815260200160006002811115610b7757610b766122e2565b5b815260200160011515815250600080838152602001908152602001600020600082015181600001556020820151816001019080519060200190610bbb9291906117e2565b506040820151816002019080519060200190610bd89291906117e2565b5060608201518160030160006101000a81548160ff02191690836002811115610c0457610c036122e2565b5b021790555060808201518160030160016101000a81548160ff02191690831515021790555090505060066000815480929190610c3f9061226a565b919050555060076000815480929190610c579061226a565b9190505550807f21579433a032855e20e8afc48e980ddae0b6285e4aa03370f03192be12bea28b8585604051610c8e929190611eac565b60405180910390a28091505092915050565b806001151560008083815260200190815260200160002060030160019054906101000a900460ff16151514610cd457600080fd5b8160006002811115610ce957610ce86122e2565b5b60008083815260200190815260200160002060030160009054906101000a900460ff166002811115610d1e57610d1d6122e2565b5b14610d2857600080fd5b600160008085815260200190815260200160002060030160006101000a81548160ff02191690836002811115610d6157610d606122e2565b5b02179055507feabb282842a353a61f42a3352791a6bf8d0f0b5d6e9cec67e0a0e2c42f387b9b83604051610d959190611f91565b60405180910390a1505050565b6005602052816000526040600020602052806000526040600020600091509150505481565b60046020528060005260406000206000915090505481565b610de7611868565b81600280811115610dfb57610dfa6122e2565b5b60008083815260200190815260200160002060030160009054906101000a900460ff166002811115610e3057610e2f6122e2565b5b1415610e3b57600080fd5b6000808481526020019081526020016000206040518060a001604052908160008201548152602001600182018054610e7290612207565b80601f0160208091040260200160405190810160405280929190818152602001828054610e9e90612207565b8015610eeb5780601f10610ec057610100808354040283529160200191610eeb565b820191906000526020600020905b815481529060010190602001808311610ece57829003601f168201915b50505050508152602001600282018054610f0490612207565b80601f0160208091040260200160405190810160405280929190818152602001828054610f3090612207565b8015610f7d5780601f10610f5257610100808354040283529160200191610f7d565b820191906000526020600020905b815481529060010190602001808311610f6057829003601f168201915b505050505081526020016003820160009054906101000a900460ff166002811115610fab57610faa6122e2565b5b6002811115610fbd57610fbc6122e2565b5b81526020016003820160019054906101000a900460ff161515151581525050915050919050565b6000816001151560008083815260200190815260200160002060030160019054906101000a900460ff1615151461101a57600080fd5b6000600281111561102e5761102d6122e2565b5b60008085815260200190815260200160002060030160009054906101000a900460ff166002811115611063576110626122e2565b5b14915050919050565b806001151560008083815260200190815260200160002060030160019054906101000a900460ff161515146110a057600080fd5b816002808111156110b4576110b36122e2565b5b60008083815260200190815260200160002060030160009054906101000a900460ff1660028111156110e9576110e86122e2565b5b146110f357600080fd5b600160008085815260200190815260200160002060030160006101000a81548160ff0219169083600281111561112c5761112b6122e2565b5b02179055507fe23a63f864ee1069bc665aa3ed0b1dccc848ab996543e77baed0f465e8145c60836040516111609190611f91565b60405180910390a1505050565b6060600060075467ffffffffffffffff81111561118d5761118c61236f565b5b6040519080825280602002602001820160405280156111c657816020015b6111b3611868565b8152602001906001900390816111ab5790505b50905060005b6007548110156113a8576000808281526020019081526020016000206040518060a00160405290816000820154815260200160018201805461120d90612207565b80601f016020809104026020016040519081016040528092919081815260200182805461123990612207565b80156112865780601f1061125b57610100808354040283529160200191611286565b820191906000526020600020905b81548152906001019060200180831161126957829003601f168201915b5050505050815260200160028201805461129f90612207565b80601f01602080910402602001604051908101604052809291908181526020018280546112cb90612207565b80156113185780601f106112ed57610100808354040283529160200191611318565b820191906000526020600020905b8154815290600101906020018083116112fb57829003601f168201915b505050505081526020016003820160009054906101000a900460ff166002811115611346576113456122e2565b5b6002811115611358576113576122e2565b5b81526020016003820160019054906101000a900460ff16151515158152505082828151811061138a57611389612340565b5b602002602001018190525080806113a09061226a565b9150506111cc565b508091505090565b60026020528060005260406000206000915090505481565b60006020528060005260406000206000915090508060000154908060010180546113f190612207565b80601f016020809104026020016040519081016040528092919081815260200182805461141d90612207565b801561146a5780601f1061143f5761010080835404028352916020019161146a565b820191906000526020600020905b81548152906001019060200180831161144d57829003601f168201915b50505050509080600201805461147f90612207565b80601f01602080910402602001604051908101604052809291908181526020018280546114ab90612207565b80156114f85780601f106114cd576101008083540402835291602001916114f8565b820191906000526020600020905b8154815290600101906020018083116114db57829003601f168201915b5050505050908060030160009054906101000a900460ff16908060030160019054906101000a900460ff16905085565b60065481565b60075481565b6000816001151560008083815260200190815260200160002060030160019054906101000a900460ff1615151461156a57600080fd5b60028081111561157d5761157c6122e2565b5b60008085815260200190815260200160002060030160009054906101000a900460ff1660028111156115b2576115b16122e2565b5b14915050919050565b60606001600083815260200190815260200160002080548060200260200160405190810160405280929190818152602001828054801561161a57602002820191906000526020600020905b815481526020019060010190808311611606575b50505050509050919050565b60036020528160005260406000206020528060005260406000206000915091509054906101000a900460ff1681565b60085481565b806001151560008083815260200190815260200160002060030160019054906101000a900460ff1615151461168f57600080fd5b816002808111156116a3576116a26122e2565b5b60008083815260200190815260200160002060030160009054906101000a900460ff1660028111156116d8576116d76122e2565b5b14156116e357600080fd5b600260008085815260200190815260200160002060030160006101000a81548160ff0219169083600281111561171c5761171b6122e2565b5b02179055507fa589501e457bda1f31782af099f2695facb8e79d38d121802e6ac1c53237b841836040516117509190611f91565b60405180910390a1505050565b60006002600083815260200190815260200160002054600280811115611786576117856122e2565b5b60008083815260200190815260200160002060030160009054906101000a900460ff1660028111156117bb576117ba6122e2565b5b14156117c657600080fd5b6004600084815260200190815260200160002054915050919050565b8280546117ee90612207565b90600052602060002090601f0160209004810192826118105760008555611857565b82601f1061182957805160ff1916838001178555611857565b82800160010185558215611857579182015b8281111561185657825182559160200191906001019061183b565b5b50905061186491906118ab565b5090565b6040518060a001604052806000815260200160608152602001606081526020016000600281111561189c5761189b6122e2565b5b81526020016000151581525090565b5b808211156118c45760008160009055506001016118ac565b5090565b60006118db6118d684612032565b61200d565b9050828152602081018484840111156118f7576118f66123a3565b5b6119028482856121c5565b509392505050565b60008135905061191981612475565b92915050565b600082601f8301126119345761193361239e565b5b81356119448482602086016118c8565b91505092915050565b60008135905061195c8161248c565b92915050565b60008060408385031215611979576119786123ad565b5b60006119878582860161190a565b92505060206119988582860161194d565b9150509250929050565b600080604083850312156119b9576119b86123ad565b5b600083013567ffffffffffffffff8111156119d7576119d66123a8565b5b6119e38582860161191f565b925050602083013567ffffffffffffffff811115611a0457611a036123a8565b5b611a108582860161191f565b9150509250929050565b600060208284031215611a3057611a2f6123ad565b5b6000611a3e8482850161194d565b91505092915050565b60008060008060808587031215611a6157611a606123ad565b5b6000611a6f8782880161194d565b945050602085013567ffffffffffffffff811115611a9057611a8f6123a8565b5b611a9c8782880161191f565b935050604085013567ffffffffffffffff811115611abd57611abc6123a8565b5b611ac98782880161191f565b925050606085013567ffffffffffffffff811115611aea57611ae96123a8565b5b611af68782880161191f565b91505092959194509250565b60008060408385031215611b1957611b186123ad565b5b6000611b278582860161194d565b9250506020611b388582860161194d565b9150509250929050565b6000611b4e8383611d35565b905092915050565b6000611b628383611e2f565b60208301905092915050565b6000611b7982612083565b611b8381856120be565b935083602082028501611b9585612063565b8060005b85811015611bd15784840389528151611bb28582611b42565b9450611bbd836120a4565b925060208a01995050600181019050611b99565b50829750879550505050505092915050565b6000611bee8261208e565b611bf881856120cf565b9350611c0383612073565b8060005b83811015611c34578151611c1b8882611b56565b9750611c26836120b1565b925050600181019050611c07565b5085935050505092915050565b611c4a8161216a565b82525050565b611c598161216a565b82525050565b611c68816121b3565b82525050565b611c77816121b3565b82525050565b6000611c8882612099565b611c9281856120e0565b9350611ca28185602086016121d4565b611cab816123b2565b840191505092915050565b6000611cc182612099565b611ccb81856120f1565b9350611cdb8185602086016121d4565b611ce4816123b2565b840191505092915050565b6000611cfc6036836120f1565b9150611d07826123c3565b604082019050919050565b6000611d1f6034836120f1565b9150611d2a82612412565b604082019050919050565b600060a083016000830151611d4d6000860182611e2f565b5060208301518482036020860152611d658282611c7d565b91505060408301518482036040860152611d7f8282611c7d565b9150506060830151611d946060860182611c5f565b506080830151611da76080860182611c41565b508091505092915050565b600060a083016000830151611dca6000860182611e2f565b5060208301518482036020860152611de28282611c7d565b91505060408301518482036040860152611dfc8282611c7d565b9150506060830151611e116060860182611c5f565b506080830151611e246080860182611c41565b508091505092915050565b611e38816121a9565b82525050565b611e47816121a9565b82525050565b60006020820190508181036000830152611e678184611b6e565b905092915050565b60006020820190508181036000830152611e898184611be3565b905092915050565b6000602082019050611ea66000830184611c50565b92915050565b60006040820190508181036000830152611ec68185611cb6565b90508181036020830152611eda8184611cb6565b90509392505050565b60006060820190508181036000830152611efd8186611cb6565b90508181036020830152611f118185611cb6565b90508181036040830152611f258184611cb6565b9050949350505050565b60006020820190508181036000830152611f4881611cef565b9050919050565b60006020820190508181036000830152611f6881611d12565b9050919050565b60006020820190508181036000830152611f898184611db2565b905092915050565b6000602082019050611fa66000830184611e3e565b92915050565b600060a082019050611fc16000830188611e3e565b8181036020830152611fd38187611cb6565b90508181036040830152611fe78186611cb6565b9050611ff66060830185611c6e565b6120036080830184611c50565b9695505050505050565b6000612017612028565b90506120238282612239565b919050565b6000604051905090565b600067ffffffffffffffff82111561204d5761204c61236f565b5b612056826123b2565b9050602081019050919050565b6000819050602082019050919050565b6000819050602082019050919050565b600081519050919050565b600081519050919050565b600081519050919050565b6000602082019050919050565b6000602082019050919050565b600082825260208201905092915050565b600082825260208201905092915050565b600082825260208201905092915050565b600082825260208201905092915050565b600061210d826121a9565b9150612118836121a9565b9250827fffffffffffffffffffffffffffffffffffffffffffffffffffffffffffffffff0382111561214d5761214c6122b3565b5b828201905092915050565b600061216382612189565b9050919050565b60008115159050919050565b600081905061218482612461565b919050565b600073ffffffffffffffffffffffffffffffffffffffff82169050919050565b6000819050919050565b60006121be82612176565b9050919050565b82818337600083830152505050565b60005b838110156121f25780820151818401526020810190506121d7565b83811115612201576000848401525b50505050565b6000600282049050600182168061221f57607f821691505b6020821081141561223357612232612311565b5b50919050565b612242826123b2565b810181811067ffffffffffffffff821117156122615761226061236f565b5b80604052505050565b6000612275826121a9565b91507fffffffffffffffffffffffffffffffffffffffffffffffffffffffffffffffff8214156122a8576122a76122b3565b5b600182019050919050565b7f4e487b7100000000000000000000000000000000000000000000000000000000600052601160045260246000fd5b7f4e487b7100000000000000000000000000000000000000000000000000000000600052602160045260246000fd5b7f4e487b7100000000000000000000000000000000000000000000000000000000600052602260045260246000fd5b7f4e487b7100000000000000000000000000000000000000000000000000000000600052603260045260246000fd5b7f4e487b7100000000000000000000000000000000000000000000000000000000600052604160045260246000fd5b600080fd5b600080fd5b600080fd5b600080fd5b6000601f19601f8301169050919050565b7f557365722069732063757272656e746c7920696e20766f74696e6720636f6f6c60008201527f646f776e20706572696f6420666f7220747261636b2e00000000000000000000602082015250565b7f55736572732063616e6e6f7420766f746520666f72207468652073616d65206560008201527f6e747279206d756c7469706c652074696d65732e000000000000000000000000602082015250565b60038110612472576124716122e2565b5b50565b61247e81612158565b811461248957600080fd5b50565b612495816121a9565b81146124a057600080fd5b5056fea26469706673582212208b348f6ec0a0249b1dbc36fcb4b695b80b0cd0f10a78178ca8acb19cb71490d864736f6c63430008070033",
  "immutableReferences": {},
  "source": "// SPDX-License-Identifier: MIT\r\npragma solidity ^0.8.0;\r\n\r\ncontract Tracks {\r\n  mapping (uint  => Track) public tracks;\r\n  mapping (uint  => uint[]) public trackEntries; //trackId => entryId[]\r\n  mapping (uint  => uint) public entriesTrack; //entryId => trackId\r\n  mapping (address  => mapping (uint => bool)) public votesByAddress; //address => (entryId => bool)\r\n  mapping (uint  => uint) public votes; //entryId => Vote\r\n  mapping (address  => mapping(uint => uint)) public lastVoteTime; //address => trackId => time(s)\r\n\r\n  uint public nextTrackId;\r\n  uint public trackCount;\r\n  uint public nextEntryId;\r\n  uint public cooldownPeriod;\r\n\r\n  enum State {\r\n      TrackOpen,\r\n      TrackClosed,\r\n      TrackBlocked\r\n  }\r\n  struct Track {\r\n      uint  trackId;\r\n      string  name;\r\n      string  desc;\r\n      State state;\r\n      bool exists;\r\n  }\r\n\r\n  event TrackOpened(uint trackId);\r\n  event TrackClosed(uint trackId);\r\n  event TrackBlocked(uint trackId);\r\n  event TrackUnblocked(uint trackId);\r\n  event TrackCreated(uint indexed trackId, string name, string desc);\r\n  event EntryCreated(uint indexed trackId, uint indexed entryId, string name, string desc, string location);\r\n  event EntryVotedFor(uint indexed trackId, uint indexed entryId);\r\n\r\n  /**\r\n   * @dev XXX\r\n   * @param _trackId The id of the track\r\n   */\r\n\tmodifier checkTrackOpen(uint _trackId) {\r\n\t\trequire(tracks[_trackId].state == State.TrackOpen);\r\n    _;\r\n  }\r\n  \r\n\t/**\r\n   * @dev XXX\r\n   * @param _trackId The id of the track\r\n   */\r\n\tmodifier checkTrackClosed(uint _trackId) {\r\n\t\trequire(tracks[_trackId].state == State.TrackClosed);\r\n    _;\r\n  }\r\n  \r\n  /**\r\n   * @dev XXX\r\n   * @param _trackId The id of the track\r\n   */\r\n\tmodifier checkTrackBlocked(uint _trackId) {\r\n\t\trequire(tracks[_trackId].state == State.TrackBlocked);\r\n    _;\r\n  }\r\n  \r\n  /**\r\n   * @dev XXX\r\n   * @param _trackId The id of the track\r\n   */\r\n\tmodifier checkTrackUnblocked(uint _trackId) {\r\n\t\trequire(tracks[_trackId].state != State.TrackBlocked);\r\n    _;\r\n  }\r\n  \r\n  /**\r\n   * @dev XXX\r\n   * @param _trackId The id of the track\r\n   */\r\n\tmodifier checkTrackExists(uint _trackId) {\r\n\t\t\trequire(tracks[_trackId].exists == true);\r\n\t    _;\r\n\t  }\r\n\r\n\tmodifier hasNotVotedForEntry(address _addr, uint _entryId){\r\n\t    require(votesByAddress[msg.sender][_entryId] == false, \"Users cannot vote for the same entry multiple times.\");\r\n\t    _;\r\n\t}\r\n\t\r\n\tmodifier isNotInCooldown(address addr, uint trackId){\r\n\t    require(lastVoteTime[addr][trackId] == 0 || lastVoteTime[addr][trackId] + cooldownPeriod < block.timestamp, \"User is currently in voting cooldown period for track.\");\r\n\t    _;\r\n\t}\r\n\r\n\t/**\r\n   * @dev XXX\r\n   */\r\n  constructor () {\r\n      uint trackId = addTrack(\"first_track\", \"This is the first track\");\r\n      addEntry(trackId, \"name\", \"description\", \"location\");\r\n      cooldownPeriod = 1 hours;\r\n  }\r\n\r\n\t/**\r\n   * @dev XXX\r\n   */\r\n  function getTracks() public view returns ( Track[] memory) {\r\n      Track[] memory _tracks = new Track[](trackCount);\r\n      for (uint i=0; i<trackCount; i++) {\r\n          _tracks[i] = tracks[i];\r\n      }\r\n      return _tracks;\r\n  }\r\n\r\n  /**\r\n   * @dev XXX\r\n   * @param _trackId The id of the track\r\n   */\r\n  function getTrack(uint _trackId) public view checkTrackUnblocked(_trackId) returns (Track memory) {\r\n      return tracks[_trackId];\r\n  }\r\n\t\r\n\t/**\r\n   * @dev XXX\r\n   * @param _entryId The id of the entry\r\n   */\r\n  function getVotesForEntry(uint _entryId) public view checkTrackUnblocked(entriesTrack[_entryId]) returns (uint) {\r\n      return votes[_entryId];\r\n  }\r\n  \r\n\r\n  /**\r\n   * @dev XXX\r\n   * @param _trackId The id of the track\r\n   */\r\n  function getEntriesForTrack(uint _trackId) public view returns (uint[] memory){\r\n      return trackEntries[_trackId];\r\n  }\r\n\r\n\t/**\r\n   * @dev XXX\r\n   * @param _trackId The id of the track\r\n   */\r\n  function openTrack(uint _trackId) public checkTrackExists(_trackId) checkTrackClosed(_trackId) {\r\n      tracks[_trackId].state = State.TrackOpen;\r\n      emit TrackOpened(_trackId);\r\n  }\r\n\r\n\t/**\r\n   * @dev XXX\r\n   * @param _trackId The id of the track\r\n   */\r\n\tfunction closeTrack(uint _trackId) public checkTrackExists(_trackId) checkTrackOpen(_trackId) {\r\n      tracks[_trackId].state = State.TrackClosed;\r\n      emit TrackClosed(_trackId);\r\n  }\r\n\r\n\t/**\r\n   * @dev XXX\r\n   * @param _trackId The id of the track\r\n   */\r\n\tfunction blockTrack(uint _trackId) public checkTrackExists(_trackId) checkTrackUnblocked(_trackId) {\r\n      tracks[_trackId].state = State.TrackBlocked;\r\n      emit TrackBlocked(_trackId);\r\n  }\r\n\r\n  /**\r\n   * @dev XXX\r\n   * @param _trackId The id of the track\r\n   */\r\n  function unblockTrack(uint _trackId) public checkTrackExists(_trackId) checkTrackBlocked(_trackId) {\r\n      tracks[_trackId].state = State.TrackClosed;\r\n      emit TrackUnblocked(_trackId);\r\n  }\r\n\r\n\t/**\r\n   * @dev XXX\r\n   * @param _trackId The id of the track\r\n   */\r\n  function isTrackOpen(uint _trackId) public view checkTrackExists(_trackId) returns (bool){\r\n      return (tracks[_trackId].state == State.TrackOpen);\r\n  }\r\n  /**\r\n   * @dev XXX\r\n   * @param _trackId The id of the track\r\n   */\r\n  function isTrackClosed(uint _trackId) public view checkTrackExists(_trackId) returns (bool){\r\n      return (tracks[_trackId].state == State.TrackClosed);\r\n  }\r\n  /**\r\n   * @dev XXX\r\n   * @param _trackId The id of the track\r\n   */\r\n  function isTrackBlocked(uint _trackId) public view checkTrackExists(_trackId) returns (bool){\r\n      return (tracks[_trackId].state == State.TrackBlocked);\r\n  }\r\n\r\n\t/**\r\n   * @dev XXX\r\n   * @param _entryId The id of the entry\r\n   */\r\n  function vote(uint _entryId) public checkTrackOpen(entriesTrack[_entryId]) hasNotVotedForEntry(msg.sender, _entryId) isNotInCooldown(msg.sender, entriesTrack[_entryId]) {\r\n    uint trackId = entriesTrack[_entryId];\r\n    votesByAddress[msg.sender][_entryId] = true;\r\n    lastVoteTime[msg.sender][trackId] = block.timestamp;\r\n    emit EntryVotedFor(trackId, _entryId);\r\n  }\r\n\r\n  /**\r\n   * @dev XXX\r\n   * @param _trackId The id of the track\r\n   */\r\n  function addEntry(uint _trackId, string memory _name, string memory _desc, string memory _location) public checkTrackOpen(_trackId) returns (uint) {\r\n    uint entryId = nextEntryId;\r\n    require(entriesTrack[entryId] == 0);\r\n    trackEntries[_trackId].push(entryId);\r\n    entriesTrack[entryId] = _trackId;\r\n    nextEntryId++;\r\n    emit EntryCreated(_trackId, entryId, _name, _desc, _location);\r\n    return entryId;\r\n  }\r\n\r\n\t/**\r\n   * @dev XXX\r\n   * @param _name XXX\r\n   * @param _desc XXX\r\n   */\r\n  function addTrack(string memory _name, string memory _desc) public returns (uint) {\r\n    uint trackId = nextTrackId;\r\n    tracks[trackId] = Track({\r\n      trackId: trackId,\r\n      name: _name,\r\n      desc: _desc,\r\n      state: State.TrackOpen,\r\n      exists: true\r\n    });\r\n    nextTrackId++;\r\n    trackCount++;\r\n    emit TrackCreated(trackId, _name, _desc);\r\n    return trackId;\r\n   }\r\n}\r\n\r\n\r\n",
  "sourcePath": "/Users/niall/projects/blockchain-developer-bootcamp-final-project/tracks/contracts/Tracks.sol",
  "compiler": {
    "name": "solc",
    "version": "0.8.7+commit.e28d00a7.Emscripten.clang"
  },
  "schemaVersion": "3.4.3",
  "updatedAt": "2021-10-07T15:50:06.025Z",
  "networkType": "ethereum",
  "devdoc": {
    "kind": "dev",
    "methods": {
      "addEntry(uint256,string,string,string)": {
        "details": "XXX",
        "params": {
          "_trackId": "The id of the track"
        }
      },
      "addTrack(string,string)": {
        "details": "XXX",
        "params": {
          "_desc": "XXX",
          "_name": "XXX"
        }
      },
      "blockTrack(uint256)": {
        "details": "XXX",
        "params": {
          "_trackId": "The id of the track"
        }
      },
      "closeTrack(uint256)": {
        "details": "XXX",
        "params": {
          "_trackId": "The id of the track"
        }
      },
      "constructor": {
        "details": "XXX"
      },
      "getEntriesForTrack(uint256)": {
        "details": "XXX",
        "params": {
          "_trackId": "The id of the track"
        }
      },
      "getTrack(uint256)": {
        "details": "XXX",
        "params": {
          "_trackId": "The id of the track"
        }
      },
      "getTracks()": {
        "details": "XXX"
      },
      "getVotesForEntry(uint256)": {
        "details": "XXX",
        "params": {
          "_entryId": "The id of the entry"
        }
      },
      "isTrackBlocked(uint256)": {
        "details": "XXX",
        "params": {
          "_trackId": "The id of the track"
        }
      },
      "isTrackClosed(uint256)": {
        "details": "XXX",
        "params": {
          "_trackId": "The id of the track"
        }
      },
      "isTrackOpen(uint256)": {
        "details": "XXX",
        "params": {
          "_trackId": "The id of the track"
        }
      },
      "openTrack(uint256)": {
        "details": "XXX",
        "params": {
          "_trackId": "The id of the track"
        }
      },
      "unblockTrack(uint256)": {
        "details": "XXX",
        "params": {
          "_trackId": "The id of the track"
        }
      },
      "vote(uint256)": {
        "details": "XXX",
        "params": {
          "_entryId": "The id of the entry"
        }
      }
    },
    "version": 1
  },
  "userdoc": {
    "kind": "user",
    "methods": {},
    "version": 1
  }
}