{
  "contractName": "Tracks",
  "abi": [
    {
      "inputs": [],
      "stateMutability": "nonpayable",
      "type": "constructor"
    },
    {
      "anonymous": false,
      "inputs": [
        {
          "indexed": false,
          "internalType": "uint256",
          "name": "trackId",
          "type": "uint256"
        }
      ],
      "name": "Blocked",
      "type": "event"
    },
    {
      "anonymous": false,
      "inputs": [
        {
          "indexed": false,
          "internalType": "uint256",
          "name": "trackId",
          "type": "uint256"
        }
      ],
      "name": "Closed",
      "type": "event"
    },
    {
      "anonymous": false,
      "inputs": [
        {
          "indexed": true,
          "internalType": "uint256",
          "name": "trackId",
          "type": "uint256"
        },
        {
          "indexed": true,
          "internalType": "uint256",
          "name": "entryId",
          "type": "uint256"
        },
        {
          "indexed": false,
          "internalType": "string",
          "name": "name",
          "type": "string"
        },
        {
          "indexed": false,
          "internalType": "string",
          "name": "desc",
          "type": "string"
        },
        {
          "indexed": false,
          "internalType": "string",
          "name": "location",
          "type": "string"
        }
      ],
      "name": "EntryCreated",
      "type": "event"
    },
    {
      "anonymous": false,
      "inputs": [
        {
          "indexed": true,
          "internalType": "uint256",
          "name": "trackId",
          "type": "uint256"
        },
        {
          "indexed": true,
          "internalType": "uint256",
          "name": "entryId",
          "type": "uint256"
        }
      ],
      "name": "EntryVotedFor",
      "type": "event"
    },
    {
      "anonymous": false,
      "inputs": [
        {
          "indexed": false,
          "internalType": "uint256",
          "name": "trackId",
          "type": "uint256"
        }
      ],
      "name": "Opened",
      "type": "event"
    },
    {
      "anonymous": false,
      "inputs": [
        {
          "indexed": true,
          "internalType": "address",
          "name": "previousOwner",
          "type": "address"
        },
        {
          "indexed": true,
          "internalType": "address",
          "name": "newOwner",
          "type": "address"
        }
      ],
      "name": "OwnershipTransferred",
      "type": "event"
    },
    {
      "anonymous": false,
      "inputs": [
        {
          "indexed": true,
          "internalType": "uint256",
          "name": "trackId",
          "type": "uint256"
        },
        {
          "indexed": false,
          "internalType": "string",
          "name": "name",
          "type": "string"
        },
        {
          "indexed": false,
          "internalType": "string",
          "name": "desc",
          "type": "string"
        }
      ],
      "name": "TrackCreated",
      "type": "event"
    },
    {
      "anonymous": false,
      "inputs": [
        {
          "indexed": false,
          "internalType": "uint256",
          "name": "trackId",
          "type": "uint256"
        }
      ],
      "name": "TrackUnblocked",
      "type": "event"
    },
    {
      "inputs": [],
      "name": "allTracksState",
      "outputs": [
        {
          "internalType": "enum Tracks.State",
          "name": "",
          "type": "uint8"
        }
      ],
      "stateMutability": "view",
      "type": "function"
    },
    {
      "inputs": [],
      "name": "allVotesState",
      "outputs": [
        {
          "internalType": "enum Tracks.State",
          "name": "",
          "type": "uint8"
        }
      ],
      "stateMutability": "view",
      "type": "function"
    },
    {
      "inputs": [
        {
          "internalType": "address",
          "name": "",
          "type": "address"
        }
      ],
      "name": "bannedUsers",
      "outputs": [
        {
          "internalType": "bool",
          "name": "",
          "type": "bool"
        }
      ],
      "stateMutability": "view",
      "type": "function"
    },
    {
      "inputs": [
        {
          "internalType": "uint256",
          "name": "",
          "type": "uint256"
        }
      ],
      "name": "entriesTrack",
      "outputs": [
        {
          "internalType": "uint256",
          "name": "",
          "type": "uint256"
        }
      ],
      "stateMutability": "view",
      "type": "function"
    },
    {
      "inputs": [],
      "name": "entryEventCooldownPeriod",
      "outputs": [
        {
          "internalType": "uint256",
          "name": "",
          "type": "uint256"
        }
      ],
      "stateMutability": "view",
      "type": "function"
    },
    {
      "inputs": [
        {
          "internalType": "address",
          "name": "",
          "type": "address"
        }
      ],
      "name": "entryEventsByUser",
      "outputs": [
        {
          "internalType": "uint256",
          "name": "time",
          "type": "uint256"
        },
        {
          "internalType": "uint256",
          "name": "eventId",
          "type": "uint256"
        }
      ],
      "stateMutability": "view",
      "type": "function"
    },
    {
      "inputs": [
        {
          "internalType": "address",
          "name": "",
          "type": "address"
        },
        {
          "internalType": "uint256",
          "name": "",
          "type": "uint256"
        }
      ],
      "name": "lastVoteTime",
      "outputs": [
        {
          "internalType": "uint256",
          "name": "",
          "type": "uint256"
        }
      ],
      "stateMutability": "view",
      "type": "function"
    },
    {
      "inputs": [],
      "name": "nextEntryId",
      "outputs": [
        {
          "internalType": "uint256",
          "name": "",
          "type": "uint256"
        }
      ],
      "stateMutability": "view",
      "type": "function"
    },
    {
      "inputs": [],
      "name": "nextTrackId",
      "outputs": [
        {
          "internalType": "uint256",
          "name": "",
          "type": "uint256"
        }
      ],
      "stateMutability": "view",
      "type": "function"
    },
    {
      "inputs": [],
      "name": "owner",
      "outputs": [
        {
          "internalType": "address",
          "name": "",
          "type": "address"
        }
      ],
      "stateMutability": "view",
      "type": "function"
    },
    {
      "inputs": [],
      "name": "renounceOwnership",
      "outputs": [],
      "stateMutability": "nonpayable",
      "type": "function"
    },
    {
      "inputs": [],
      "name": "trackCount",
      "outputs": [
        {
          "internalType": "uint256",
          "name": "",
          "type": "uint256"
        }
      ],
      "stateMutability": "view",
      "type": "function"
    },
    {
      "inputs": [
        {
          "internalType": "uint256",
          "name": "",
          "type": "uint256"
        },
        {
          "internalType": "uint256",
          "name": "",
          "type": "uint256"
        }
      ],
      "name": "trackEntries",
      "outputs": [
        {
          "internalType": "uint256",
          "name": "",
          "type": "uint256"
        }
      ],
      "stateMutability": "view",
      "type": "function"
    },
    {
      "inputs": [],
      "name": "trackEventCooldownPeriod",
      "outputs": [
        {
          "internalType": "uint256",
          "name": "",
          "type": "uint256"
        }
      ],
      "stateMutability": "view",
      "type": "function"
    },
    {
      "inputs": [
        {
          "internalType": "address",
          "name": "",
          "type": "address"
        }
      ],
      "name": "trackEventsByUser",
      "outputs": [
        {
          "internalType": "uint256",
          "name": "time",
          "type": "uint256"
        },
        {
          "internalType": "uint256",
          "name": "trackId",
          "type": "uint256"
        }
      ],
      "stateMutability": "view",
      "type": "function"
    },
    {
      "inputs": [
        {
          "internalType": "uint256",
          "name": "",
          "type": "uint256"
        }
      ],
      "name": "trackOwners",
      "outputs": [
        {
          "internalType": "address",
          "name": "",
          "type": "address"
        }
      ],
      "stateMutability": "view",
      "type": "function"
    },
    {
      "inputs": [
        {
          "internalType": "uint256",
          "name": "",
          "type": "uint256"
        }
      ],
      "name": "tracks",
      "outputs": [
        {
          "internalType": "uint256",
          "name": "trackId",
          "type": "uint256"
        },
        {
          "internalType": "string",
          "name": "name",
          "type": "string"
        },
        {
          "internalType": "string",
          "name": "desc",
          "type": "string"
        },
        {
          "internalType": "enum Tracks.State",
          "name": "state",
          "type": "uint8"
        },
        {
          "internalType": "bool",
          "name": "exists",
          "type": "bool"
        }
      ],
      "stateMutability": "view",
      "type": "function"
    },
    {
      "inputs": [
        {
          "internalType": "address",
          "name": "newOwner",
          "type": "address"
        }
      ],
      "name": "transferOwnership",
      "outputs": [],
      "stateMutability": "nonpayable",
      "type": "function"
    },
    {
      "inputs": [],
      "name": "voteCooldownPeriod",
      "outputs": [
        {
          "internalType": "uint256",
          "name": "",
          "type": "uint256"
        }
      ],
      "stateMutability": "view",
      "type": "function"
    },
    {
      "inputs": [
        {
          "internalType": "address",
          "name": "",
          "type": "address"
        },
        {
          "internalType": "uint256",
          "name": "",
          "type": "uint256"
        }
      ],
      "name": "votesByAddress",
      "outputs": [
        {
          "internalType": "bool",
          "name": "",
          "type": "bool"
        }
      ],
      "stateMutability": "view",
      "type": "function"
    },
    {
      "inputs": [
        {
          "internalType": "uint256",
          "name": "",
          "type": "uint256"
        }
      ],
      "name": "votesByTrack",
      "outputs": [
        {
          "internalType": "uint256",
          "name": "",
          "type": "uint256"
        }
      ],
      "stateMutability": "view",
      "type": "function"
    },
    {
      "inputs": [],
      "name": "getTracks",
      "outputs": [
        {
          "components": [
            {
              "internalType": "uint256",
              "name": "trackId",
              "type": "uint256"
            },
            {
              "internalType": "string",
              "name": "name",
              "type": "string"
            },
            {
              "internalType": "string",
              "name": "desc",
              "type": "string"
            },
            {
              "internalType": "enum Tracks.State",
              "name": "state",
              "type": "uint8"
            },
            {
              "internalType": "bool",
              "name": "exists",
              "type": "bool"
            }
          ],
          "internalType": "struct Tracks.Track[]",
          "name": "",
          "type": "tuple[]"
        }
      ],
      "stateMutability": "view",
      "type": "function"
    },
    {
      "inputs": [
        {
          "internalType": "uint256",
          "name": "_trackId",
          "type": "uint256"
        }
      ],
      "name": "getTrack",
      "outputs": [
        {
          "components": [
            {
              "internalType": "uint256",
              "name": "trackId",
              "type": "uint256"
            },
            {
              "internalType": "string",
              "name": "name",
              "type": "string"
            },
            {
              "internalType": "string",
              "name": "desc",
              "type": "string"
            },
            {
              "internalType": "enum Tracks.State",
              "name": "state",
              "type": "uint8"
            },
            {
              "internalType": "bool",
              "name": "exists",
              "type": "bool"
            }
          ],
          "internalType": "struct Tracks.Track",
          "name": "",
          "type": "tuple"
        }
      ],
      "stateMutability": "view",
      "type": "function"
    },
    {
      "inputs": [
        {
          "internalType": "uint256",
          "name": "_trackId",
          "type": "uint256"
        }
      ],
      "name": "getEntriesForTrack",
      "outputs": [
        {
          "internalType": "uint256[]",
          "name": "",
          "type": "uint256[]"
        }
      ],
      "stateMutability": "view",
      "type": "function"
    },
    {
      "inputs": [
        {
          "internalType": "uint256",
          "name": "_trackId",
          "type": "uint256"
        }
      ],
      "name": "openTrack",
      "outputs": [],
      "stateMutability": "nonpayable",
      "type": "function"
    },
    {
      "inputs": [
        {
          "internalType": "uint256",
          "name": "_trackId",
          "type": "uint256"
        }
      ],
      "name": "closeTrack",
      "outputs": [],
      "stateMutability": "nonpayable",
      "type": "function"
    },
    {
      "inputs": [
        {
          "internalType": "uint256",
          "name": "_trackId",
          "type": "uint256"
        }
      ],
      "name": "blockTrack",
      "outputs": [],
      "stateMutability": "nonpayable",
      "type": "function"
    },
    {
      "inputs": [
        {
          "internalType": "uint256",
          "name": "_trackId",
          "type": "uint256"
        }
      ],
      "name": "unblockTrack",
      "outputs": [],
      "stateMutability": "nonpayable",
      "type": "function"
    },
    {
      "inputs": [
        {
          "internalType": "uint256",
          "name": "_trackId",
          "type": "uint256"
        }
      ],
      "name": "isOpen",
      "outputs": [
        {
          "internalType": "bool",
          "name": "",
          "type": "bool"
        }
      ],
      "stateMutability": "view",
      "type": "function"
    },
    {
      "inputs": [
        {
          "internalType": "uint256",
          "name": "_trackId",
          "type": "uint256"
        }
      ],
      "name": "isClosed",
      "outputs": [
        {
          "internalType": "bool",
          "name": "",
          "type": "bool"
        }
      ],
      "stateMutability": "view",
      "type": "function"
    },
    {
      "inputs": [
        {
          "internalType": "uint256",
          "name": "_trackId",
          "type": "uint256"
        }
      ],
      "name": "isBlocked",
      "outputs": [
        {
          "internalType": "bool",
          "name": "",
          "type": "bool"
        }
      ],
      "stateMutability": "view",
      "type": "function"
    },
    {
      "inputs": [
        {
          "internalType": "uint256",
          "name": "_entryId",
          "type": "uint256"
        }
      ],
      "name": "vote",
      "outputs": [],
      "stateMutability": "nonpayable",
      "type": "function"
    },
    {
      "inputs": [
        {
          "internalType": "uint256",
          "name": "_trackId",
          "type": "uint256"
        },
        {
          "internalType": "string",
          "name": "_name",
          "type": "string"
        },
        {
          "internalType": "string",
          "name": "_desc",
          "type": "string"
        },
        {
          "internalType": "string",
          "name": "_location",
          "type": "string"
        }
      ],
      "name": "addEntry",
      "outputs": [
        {
          "internalType": "uint256",
          "name": "",
          "type": "uint256"
        }
      ],
      "stateMutability": "nonpayable",
      "type": "function"
    },
    {
      "inputs": [
        {
          "internalType": "string",
          "name": "_name",
          "type": "string"
        },
        {
          "internalType": "string",
          "name": "_desc",
          "type": "string"
        }
      ],
      "name": "addTrack",
      "outputs": [
        {
          "internalType": "uint256",
          "name": "",
          "type": "uint256"
        }
      ],
      "stateMutability": "nonpayable",
      "type": "function"
    },
    {
      "inputs": [
        {
          "internalType": "bool",
          "name": "enable",
          "type": "bool"
        }
      ],
      "name": "blockTracks",
      "outputs": [],
      "stateMutability": "nonpayable",
      "type": "function"
    },
    {
      "inputs": [
        {
          "internalType": "bool",
          "name": "enable",
          "type": "bool"
        }
      ],
      "name": "closeTracks",
      "outputs": [],
      "stateMutability": "nonpayable",
      "type": "function"
    },
    {
      "inputs": [
        {
          "internalType": "bool",
          "name": "enable",
          "type": "bool"
        }
      ],
      "name": "blockVotes",
      "outputs": [],
      "stateMutability": "nonpayable",
      "type": "function"
    },
    {
      "inputs": [
        {
          "internalType": "address",
          "name": "addr",
          "type": "address"
        },
        {
          "internalType": "bool",
          "name": "banned",
          "type": "bool"
        }
      ],
      "name": "banUser",
      "outputs": [],
      "stateMutability": "nonpayable",
      "type": "function"
    }
  ],
  "bytecode": "0x60806040523480156200001157600080fd5b5062000032620000266200018560201b60201c565b6200018d60201b60201c565b6000620000b06040518060400160405280600b81526020017f66697273745f747261636b0000000000000000000000000000000000000000008152506040518060400160405280601781526020017f546869732069732074686520666972737420747261636b0000000000000000008152506200025160201b60201c565b905062000165816040518060400160405280600481526020017f6e616d65000000000000000000000000000000000000000000000000000000008152506040518060400160405280600b81526020017f6465736372697074696f6e0000000000000000000000000000000000000000008152506040518060400160405280600881526020017f6c6f636174696f6e0000000000000000000000000000000000000000000000008152506200060160201b60201c565b50603c600e81905550603c600f81905550603c6010819055505062000f3c565b600033905090565b60008060009054906101000a900473ffffffffffffffffffffffffffffffffffffffff169050816000806101000a81548173ffffffffffffffffffffffffffffffffffffffff021916908373ffffffffffffffffffffffffffffffffffffffff1602179055508173ffffffffffffffffffffffffffffffffffffffff168173ffffffffffffffffffffffffffffffffffffffff167f8be0079c531659141344cd1fd0a4f28419497f9722a3daafe3b4186f6b6457e060405160405180910390a35050565b6000336000600660008373ffffffffffffffffffffffffffffffffffffffff1673ffffffffffffffffffffffffffffffffffffffff168152602001908152602001600020600001541480620002f6575042601054600660008473ffffffffffffffffffffffffffffffffffffffff1673ffffffffffffffffffffffffffffffffffffffff16815260200190815260200160002060000154620002f4919062000c67565b105b62000338576040517f08c379a00000000000000000000000000000000000000000000000000000000081526004016200032f9062000c29565b60405180910390fd5b3360011515600a60003373ffffffffffffffffffffffffffffffffffffffff1673ffffffffffffffffffffffffffffffffffffffff16815260200190815260200160002060009054906101000a900460ff1615151415620003d0576040517f08c379a0000000000000000000000000000000000000000000000000000000008152600401620003c79062000c07565b60405180910390fd5b6000600b5490506040518060a00160405280828152602001878152602001868152602001600060028111156200040b576200040a62000db7565b5b8152602001600115158152506001600083815260200190815260200160002060008201518160000155602082015181600101908051906020019062000452929190620009a9565b50604082015181600201908051906020019062000471929190620009a9565b5060608201518160030160006101000a81548160ff02191690836002811115620004a0576200049f62000db7565b5b021790555060808201518160030160016101000a81548160ff021916908315150217905550905050604051806040016040528042815260200182815250600660003373ffffffffffffffffffffffffffffffffffffffff1673ffffffffffffffffffffffffffffffffffffffff1681526020019081526020016000206000820151816000015560208201518160010155905050336004600083815260200190815260200160002060006101000a81548173ffffffffffffffffffffffffffffffffffffffff021916908373ffffffffffffffffffffffffffffffffffffffff160217905550600b60008154809291906200059a9062000d3a565b9190505550600c6000815480929190620005b49062000d3a565b9190505550807f21579433a032855e20e8afc48e980ddae0b6285e4aa03370f03192be12bea28b8787604051620005ed92919062000b36565b60405180910390a280935050505092915050565b60003360011515600a60003373ffffffffffffffffffffffffffffffffffffffff1673ffffffffffffffffffffffffffffffffffffffff16815260200190815260200160002060009054906101000a900460ff16151514156200069b576040517f08c379a0000000000000000000000000000000000000000000000000000000008152600401620006929062000c07565b60405180910390fd5b336000600760008373ffffffffffffffffffffffffffffffffffffffff1673ffffffffffffffffffffffffffffffffffffffff1681526020019081526020016000206000015414806200073e575042600f54600760008473ffffffffffffffffffffffffffffffffffffffff1673ffffffffffffffffffffffffffffffffffffffff168152602001908152602001600020600001546200073c919062000c67565b105b62000780576040517f08c379a0000000000000000000000000000000000000000000000000000000008152600401620007779062000be5565b60405180910390fd5b866000600281111562000798576200079762000db7565b5b6001600083815260200190815260200160002060030160009054906101000a900460ff166002811115620007d157620007d062000db7565b5b14620007dc57600080fd5b60016002811115620007f357620007f262000db7565b5b601160009054906101000a900460ff16600281111562000818576200081762000db7565b5b14156200085c576040517f08c379a0000000000000000000000000000000000000000000000000000000008152600401620008539062000bc3565b60405180910390fd5b6000600d54905060006003600083815260200190815260200160002054146200088457600080fd5b600260008a8152602001908152602001600020819080600181540180825580915050600190039060005260206000200160009091909190915055886003600083815260200190815260200160002081905550604051806040016040528042815260200182815250600760003373ffffffffffffffffffffffffffffffffffffffff1673ffffffffffffffffffffffffffffffffffffffff1681526020019081526020016000206000820151816000015560208201518160010155905050600d6000815480929190620009569062000d3a565b919050555080897f313f81e8cc8fe5ab3d1facaeffd8e0d26068ff1776d23a4621a5bdb0c891c8178a8a8a604051620009929392919062000b71565b60405180910390a380945050505050949350505050565b828054620009b79062000d04565b90600052602060002090601f016020900481019282620009db576000855562000a27565b82601f10620009f657805160ff191683800117855562000a27565b8280016001018555821562000a27579182015b8281111562000a2657825182559160200191906001019062000a09565b5b50905062000a36919062000a3a565b5090565b5b8082111562000a5557600081600090555060010162000a3b565b5090565b600062000a668262000c4b565b62000a72818562000c56565b935062000a8481856020860162000cce565b62000a8f8162000e15565b840191505092915050565b600062000aa960248362000c56565b915062000ab68262000e26565b604082019050919050565b600062000ad060248362000c56565b915062000add8262000e75565b604082019050919050565b600062000af7601d8362000c56565b915062000b048262000ec4565b602082019050919050565b600062000b1e60248362000c56565b915062000b2b8262000eed565b604082019050919050565b6000604082019050818103600083015262000b52818562000a59565b9050818103602083015262000b68818462000a59565b90509392505050565b6000606082019050818103600083015262000b8d818662000a59565b9050818103602083015262000ba3818562000a59565b9050818103604083015262000bb9818462000a59565b9050949350505050565b6000602082019050818103600083015262000bde8162000a9a565b9050919050565b6000602082019050818103600083015262000c008162000ac1565b9050919050565b6000602082019050818103600083015262000c228162000ae8565b9050919050565b6000602082019050818103600083015262000c448162000b0f565b9050919050565b600081519050919050565b600082825260208201905092915050565b600062000c748262000cc4565b915062000c818362000cc4565b9250827fffffffffffffffffffffffffffffffffffffffffffffffffffffffffffffffff0382111562000cb95762000cb862000d88565b5b828201905092915050565b6000819050919050565b60005b8381101562000cee57808201518184015260208101905062000cd1565b8381111562000cfe576000848401525b50505050565b6000600282049050600182168062000d1d57607f821691505b6020821081141562000d345762000d3362000de6565b5b50919050565b600062000d478262000cc4565b91507fffffffffffffffffffffffffffffffffffffffffffffffffffffffffffffffff82141562000d7d5762000d7c62000d88565b5b600182019050919050565b7f4e487b7100000000000000000000000000000000000000000000000000000000600052601160045260246000fd5b7f4e487b7100000000000000000000000000000000000000000000000000000000600052602160045260246000fd5b7f4e487b7100000000000000000000000000000000000000000000000000000000600052602260045260246000fd5b6000601f19601f8301169050919050565b7f416c6c20747261636b732068617665206265656e20636c6f736564206279206160008201527f646d696e00000000000000000000000000000000000000000000000000000000602082015250565b7f557365722069732063757272656e746c7920696e20656e74727920636f6f6c6460008201527f6f776e2e00000000000000000000000000000000000000000000000000000000602082015250565b7f5573657220686173206265656e2062616e6e65642062792061646d696e000000600082015250565b7f557365722069732063757272656e746c7920696e20747261636b20636f6f6c6460008201527f6f776e2e00000000000000000000000000000000000000000000000000000000602082015250565b613da98062000f4c6000396000f3fe608060405234801561001057600080fd5b50600436106102325760003560e01c8063924e9b9511610130578063d02f4483116100b8578063eea85bc51161007c578063eea85bc514610716578063ef75976114610747578063f2fde38b14610763578063f838e33f1461077f578063fb0084471461079d57610232565b8063d02f448314610637578063d5c78a2814610667578063db7c01e214610697578063debe8ab7146106c7578063e6b2cf6c146106f857610232565b8063a72024c6116100ff578063a72024c614610591578063ab35678c146105af578063b0aa98c7146105cd578063b6baac81146105fd578063bb855ee61461061957610232565b8063924e9b95146104cd57806395ab2b98146104fd578063962dd8071461052d578063a2e345861461055d57610232565b80634bc558b3116101be578063715018a611610182578063715018a61461043b57806387548fcf146104455780638988d078146104635780638da5cb5b146104935780638ee223f9146104b157610232565b80634bc558b3146103715780634d6861a6146103a15780635e11ca82146103d1578063629058ca146103ef57806368e982b01461041f57610232565b80632e42ddbf116102055780632e42ddbf146102bd57806336de40be146102ed57806338415c7d1461031d578063423b7032146103395780634959bdfe1461035557610232565b80630121b93f146102375780630955ccff14610253578063109699b6146102715780631f6c5f00146102a1575b600080fd5b610251600480360381019061024c9190612e21565b6107bb565b005b61025b610c92565b60405161026891906135f5565b60405180910390f35b61028b60048036038101906102869190612f09565b610c98565b60405161029891906135f5565b60405180910390f35b6102bb60048036038101906102b69190612e21565b610cc9565b005b6102d760048036038101906102d29190612e4e565b610eda565b6040516102e491906135f5565b60405180910390f35b61030760048036038101906103029190612da9565b611264565b60405161031491906135f5565b60405180910390f35b61033760048036038101906103329190612d7c565b6115fb565b005b610353600480360381019061034e9190612e21565b6116dc565b005b61036f600480360381019061036a9190612d7c565b6118ed565b005b61038b60048036038101906103869190612d3c565b6119ce565b60405161039891906135f5565b60405180910390f35b6103bb60048036038101906103b69190612e21565b6119f3565b6040516103c891906133da565b60405180910390f35b6103d9611a7d565b6040516103e691906133f5565b60405180910390f35b61040960048036038101906104049190612e21565b611a90565b60405161041691906135d3565b60405180910390f35b61043960048036038101906104349190612e21565b611cd7565b005b610443611ee5565b005b61044d611f6d565b60405161045a9190613396565b60405180910390f35b61047d60048036038101906104789190612ccf565b6121b1565b60405161048a91906133da565b60405180910390f35b61049b6121d1565b6040516104a8919061337b565b60405180910390f35b6104cb60048036038101906104c69190612cfc565b6121fa565b005b6104e760048036038101906104e29190612e21565b6122d1565b6040516104f491906135f5565b60405180910390f35b61051760048036038101906105129190612e21565b6122e9565b604051610524919061337b565b60405180910390f35b61054760048036038101906105429190612e21565b61231c565b60405161055491906135f5565b60405180910390f35b61057760048036038101906105729190612e21565b612334565b604051610588959493929190613610565b60405180910390f35b610599612494565b6040516105a691906135f5565b60405180910390f35b6105b761249a565b6040516105c491906135f5565b60405180910390f35b6105e760048036038101906105e29190612e21565b6124a0565b6040516105f491906133da565b60405180910390f35b61061760048036038101906106129190612d7c565b612529565b005b61062161260a565b60405161062e91906135f5565b60405180910390f35b610651600480360381019061064c9190612e21565b612610565b60405161065e91906133b8565b60405180910390f35b610681600480360381019061067c9190612e21565b61267b565b60405161068e91906133da565b60405180910390f35b6106b160048036038101906106ac9190612d3c565b612705565b6040516106be91906133da565b60405180910390f35b6106e160048036038101906106dc9190612ccf565b612734565b6040516106ef929190613671565b60405180910390f35b610700612758565b60405161070d91906135f5565b60405180910390f35b610730600480360381019061072b9190612ccf565b61275e565b60405161073e929190613671565b60405180910390f35b610761600480360381019061075c9190612e21565b612782565b005b61077d60048036038101906107789190612ccf565b61295d565b005b610787612a55565b60405161079491906135f5565b60405180910390f35b6107a5612a5b565b6040516107b291906133f5565b60405180910390f35b6003600082815260200190815260200160002054600060028111156107e3576107e261396f565b5b6001600083815260200190815260200160002060030160009054906101000a900460ff1660028111156108195761081861396f565b5b1461082357600080fd5b600160028111156108375761083661396f565b5b601160009054906101000a900460ff1660028111156108595761085861396f565b5b141561089a576040517f08c379a0000000000000000000000000000000000000000000000000000000008152600401610891906134d3565b60405180910390fd5b338260001515600560003373ffffffffffffffffffffffffffffffffffffffff1673ffffffffffffffffffffffffffffffffffffffff168152602001908152602001600020600083815260200190815260200160002060009054906101000a900460ff16151514610940576040517f08c379a000000000000000000000000000000000000000000000000000000000815260040161093790613513565b60405180910390fd5b600160028111156109545761095361396f565b5b601160019054906101000a900460ff1660028111156109765761097561396f565b5b14156109b7576040517f08c379a00000000000000000000000000000000000000000000000000000000081526004016109ae90613533565b60405180910390fd5b3360011515600a60003373ffffffffffffffffffffffffffffffffffffffff1673ffffffffffffffffffffffffffffffffffffffff16815260200190815260200160002060009054906101000a900460ff1615151415610a4c576040517f08c379a0000000000000000000000000000000000000000000000000000000008152600401610a4390613573565b60405180910390fd5b3360036000878152602001908152602001600020546000600960008473ffffffffffffffffffffffffffffffffffffffff1673ffffffffffffffffffffffffffffffffffffffff1681526020019081526020016000206000838152602001908152602001600020541480610b1c575042600e54600960008573ffffffffffffffffffffffffffffffffffffffff1673ffffffffffffffffffffffffffffffffffffffff168152602001908152602001600020600084815260200190815260200160002054610b1a919061378f565b105b610b5b576040517f08c379a0000000000000000000000000000000000000000000000000000000008152600401610b5290613493565b60405180910390fd5b6000600360008981526020019081526020016000205490506001600560003373ffffffffffffffffffffffffffffffffffffffff1673ffffffffffffffffffffffffffffffffffffffff16815260200190815260200160002060008a815260200190815260200160002060006101000a81548160ff02191690831515021790555042600960003373ffffffffffffffffffffffffffffffffffffffff1673ffffffffffffffffffffffffffffffffffffffff168152602001908152602001600020600083815260200190815260200160002081905550600860008281526020019081526020016000206000815480929190610c55906138f7565b919050555087817f23b2bfc0c368fdbec2cf6a0878f8f7ab7d497f92861fa232c0111ca69f63dc8260405160405180910390a35050505050505050565b600e5481565b60026020528160005260406000208181548110610cb457600080fd5b90600052602060002001600091509150505481565b80600115156001600083815260200190815260200160002060030160019054906101000a900460ff16151514610cfe57600080fd5b8160016002811115610d1357610d1261396f565b5b6001600083815260200190815260200160002060030160009054906101000a900460ff166002811115610d4957610d4861396f565b5b14610d5357600080fd5b60016002811115610d6757610d6661396f565b5b601160009054906101000a900460ff166002811115610d8957610d8861396f565b5b14610dc9576040517f08c379a0000000000000000000000000000000000000000000000000000000008152600401610dc0906134d3565b60405180910390fd5b3360011515600a60003373ffffffffffffffffffffffffffffffffffffffff1673ffffffffffffffffffffffffffffffffffffffff16815260200190815260200160002060009054906101000a900460ff1615151415610e5e576040517f08c379a0000000000000000000000000000000000000000000000000000000008152600401610e5590613573565b60405180910390fd5b60006001600086815260200190815260200160002060030160006101000a81548160ff02191690836002811115610e9857610e9761396f565b5b02179055507f076ee234681125279e2cfc540cc3442961385c988bd343b4081105999f39f5ea84604051610ecc91906135f5565b60405180910390a150505050565b60003360011515600a60003373ffffffffffffffffffffffffffffffffffffffff1673ffffffffffffffffffffffffffffffffffffffff16815260200190815260200160002060009054906101000a900460ff1615151415610f71576040517f08c379a0000000000000000000000000000000000000000000000000000000008152600401610f6890613573565b60405180910390fd5b336000600760008373ffffffffffffffffffffffffffffffffffffffff1673ffffffffffffffffffffffffffffffffffffffff168152602001908152602001600020600001541480611011575042600f54600760008473ffffffffffffffffffffffffffffffffffffffff1673ffffffffffffffffffffffffffffffffffffffff1681526020019081526020016000206000015461100f919061378f565b105b611050576040517f08c379a0000000000000000000000000000000000000000000000000000000008152600401611047906134f3565b60405180910390fd5b86600060028111156110655761106461396f565b5b6001600083815260200190815260200160002060030160009054906101000a900460ff16600281111561109b5761109a61396f565b5b146110a557600080fd5b600160028111156110b9576110b861396f565b5b601160009054906101000a900460ff1660028111156110db576110da61396f565b5b141561111c576040517f08c379a0000000000000000000000000000000000000000000000000000000008152600401611113906134d3565b60405180910390fd5b6000600d549050600060036000838152602001908152602001600020541461114357600080fd5b600260008a8152602001908152602001600020819080600181540180825580915050600190039060005260206000200160009091909190915055886003600083815260200190815260200160002081905550604051806040016040528042815260200182815250600760003373ffffffffffffffffffffffffffffffffffffffff1673ffffffffffffffffffffffffffffffffffffffff1681526020019081526020016000206000820151816000015560208201518160010155905050600d6000815480929190611213906138f7565b919050555080897f313f81e8cc8fe5ab3d1facaeffd8e0d26068ff1776d23a4621a5bdb0c891c8178a8a8a60405161124d93929190613447565b60405180910390a380945050505050949350505050565b6000336000600660008373ffffffffffffffffffffffffffffffffffffffff1673ffffffffffffffffffffffffffffffffffffffff168152602001908152602001600020600001541480611306575042601054600660008473ffffffffffffffffffffffffffffffffffffffff1673ffffffffffffffffffffffffffffffffffffffff16815260200190815260200160002060000154611304919061378f565b105b611345576040517f08c379a000000000000000000000000000000000000000000000000000000000815260040161133c906135b3565b60405180910390fd5b3360011515600a60003373ffffffffffffffffffffffffffffffffffffffff1673ffffffffffffffffffffffffffffffffffffffff16815260200190815260200160002060009054906101000a900460ff16151514156113da576040517f08c379a00000000000000000000000000000000000000000000000000000000081526004016113d190613573565b60405180910390fd5b6000600b5490506040518060a00160405280828152602001878152602001868152602001600060028111156114125761141161396f565b5b81526020016001151581525060016000838152602001908152602001600020600082015181600001556020820151816001019080519060200190611457929190612b3a565b506040820151816002019080519060200190611474929190612b3a565b5060608201518160030160006101000a81548160ff021916908360028111156114a05761149f61396f565b5b021790555060808201518160030160016101000a81548160ff021916908315150217905550905050604051806040016040528042815260200182815250600660003373ffffffffffffffffffffffffffffffffffffffff1673ffffffffffffffffffffffffffffffffffffffff1681526020019081526020016000206000820151816000015560208201518160010155905050336004600083815260200190815260200160002060006101000a81548173ffffffffffffffffffffffffffffffffffffffff021916908373ffffffffffffffffffffffffffffffffffffffff160217905550600b6000815480929190611598906138f7565b9190505550600c60008154809291906115b0906138f7565b9190505550807f21579433a032855e20e8afc48e980ddae0b6285e4aa03370f03192be12bea28b87876040516115e7929190613410565b60405180910390a280935050505092915050565b611603612a6e565b73ffffffffffffffffffffffffffffffffffffffff166116216121d1565b73ffffffffffffffffffffffffffffffffffffffff1614611677576040517f08c379a000000000000000000000000000000000000000000000000000000000815260040161166e90613553565b60405180910390fd5b80156116ad576001601160006101000a81548160ff021916908360028111156116a3576116a261396f565b5b02179055506116d9565b6000601160006101000a81548160ff021916908360028111156116d3576116d261396f565b5b02179055505b50565b80600115156001600083815260200190815260200160002060030160019054906101000a900460ff1615151461171157600080fd5b81600060028111156117265761172561396f565b5b6001600083815260200190815260200160002060030160009054906101000a900460ff16600281111561175c5761175b61396f565b5b1461176657600080fd5b6001600281111561177a5761177961396f565b5b601160009054906101000a900460ff16600281111561179c5761179b61396f565b5b14156117dd576040517f08c379a00000000000000000000000000000000000000000000000000000000081526004016117d4906134d3565b60405180910390fd5b3360011515600a60003373ffffffffffffffffffffffffffffffffffffffff1673ffffffffffffffffffffffffffffffffffffffff16815260200190815260200160002060009054906101000a900460ff1615151415611872576040517f08c379a000000000000000000000000000000000000000000000000000000000815260040161186990613573565b60405180910390fd5b600180600086815260200190815260200160002060030160006101000a81548160ff021916908360028111156118ab576118aa61396f565b5b02179055507f6cc09e7b5c3e49861ebe8f6867e1618fbfc14c8d0e968fde37c4243ca02a6f83846040516118df91906135f5565b60405180910390a150505050565b6118f5612a6e565b73ffffffffffffffffffffffffffffffffffffffff166119136121d1565b73ffffffffffffffffffffffffffffffffffffffff1614611969576040517f08c379a000000000000000000000000000000000000000000000000000000000815260040161196090613553565b60405180910390fd5b801561199f576002601160006101000a81548160ff021916908360028111156119955761199461396f565b5b02179055506119cb565b6000601160006101000a81548160ff021916908360028111156119c5576119c461396f565b5b02179055505b50565b6009602052816000526040600020602052806000526040600020600091509150505481565b600081600115156001600083815260200190815260200160002060030160019054906101000a900460ff16151514611a2a57600080fd5b60006002811115611a3e57611a3d61396f565b5b6001600085815260200190815260200160002060030160009054906101000a900460ff166002811115611a7457611a7361396f565b5b14915050919050565b601160009054906101000a900460ff1681565b611a98612bc0565b81600280811115611aac57611aab61396f565b5b6001600083815260200190815260200160002060030160009054906101000a900460ff166002811115611ae257611ae161396f565b5b1415611aed57600080fd5b600280811115611b0057611aff61396f565b5b601160009054906101000a900460ff166002811115611b2257611b2161396f565b5b1415611b2d57600080fd5b600160008481526020019081526020016000206040518060a001604052908160008201548152602001600182018054611b6590613894565b80601f0160208091040260200160405190810160405280929190818152602001828054611b9190613894565b8015611bde5780601f10611bb357610100808354040283529160200191611bde565b820191906000526020600020905b815481529060010190602001808311611bc157829003601f168201915b50505050508152602001600282018054611bf790613894565b80601f0160208091040260200160405190810160405280929190818152602001828054611c2390613894565b8015611c705780601f10611c4557610100808354040283529160200191611c70565b820191906000526020600020905b815481529060010190602001808311611c5357829003601f168201915b505050505081526020016003820160009054906101000a900460ff166002811115611c9e57611c9d61396f565b5b6002811115611cb057611caf61396f565b5b81526020016003820160019054906101000a900460ff161515151581525050915050919050565b80600115156001600083815260200190815260200160002060030160019054906101000a900460ff16151514611d0c57600080fd5b81600280811115611d2057611d1f61396f565b5b6001600083815260200190815260200160002060030160009054906101000a900460ff166002811115611d5657611d5561396f565b5b14611d6057600080fd5b600280811115611d7357611d7261396f565b5b601160009054906101000a900460ff166002811115611d9557611d9461396f565b5b14611dd5576040517f08c379a0000000000000000000000000000000000000000000000000000000008152600401611dcc90613593565b60405180910390fd5b3360011515600a60003373ffffffffffffffffffffffffffffffffffffffff1673ffffffffffffffffffffffffffffffffffffffff16815260200190815260200160002060009054906101000a900460ff1615151415611e6a576040517f08c379a0000000000000000000000000000000000000000000000000000000008152600401611e6190613573565b60405180910390fd5b600180600086815260200190815260200160002060030160006101000a81548160ff02191690836002811115611ea357611ea261396f565b5b02179055507fe23a63f864ee1069bc665aa3ed0b1dccc848ab996543e77baed0f465e8145c6084604051611ed791906135f5565b60405180910390a150505050565b611eed612a6e565b73ffffffffffffffffffffffffffffffffffffffff16611f0b6121d1565b73ffffffffffffffffffffffffffffffffffffffff1614611f61576040517f08c379a0000000000000000000000000000000000000000000000000000000008152600401611f5890613553565b60405180910390fd5b611f6b6000612a76565b565b60606000600c5467ffffffffffffffff811115611f8d57611f8c6139fc565b5b604051908082528060200260200182016040528015611fc657816020015b611fb3612bc0565b815260200190600190039081611fab5790505b50905060005b600c548110156121a957600160008281526020019081526020016000206040518060a00160405290816000820154815260200160018201805461200e90613894565b80601f016020809104026020016040519081016040528092919081815260200182805461203a90613894565b80156120875780601f1061205c57610100808354040283529160200191612087565b820191906000526020600020905b81548152906001019060200180831161206a57829003601f168201915b505050505081526020016002820180546120a090613894565b80601f01602080910402602001604051908101604052809291908181526020018280546120cc90613894565b80156121195780601f106120ee57610100808354040283529160200191612119565b820191906000526020600020905b8154815290600101906020018083116120fc57829003601f168201915b505050505081526020016003820160009054906101000a900460ff1660028111156121475761214661396f565b5b60028111156121595761215861396f565b5b81526020016003820160019054906101000a900460ff16151515158152505082828151811061218b5761218a6139cd565b5b602002602001018190525080806121a1906138f7565b915050611fcc565b508091505090565b600a6020528060005260406000206000915054906101000a900460ff1681565b60008060009054906101000a900473ffffffffffffffffffffffffffffffffffffffff16905090565b612202612a6e565b73ffffffffffffffffffffffffffffffffffffffff166122206121d1565b73ffffffffffffffffffffffffffffffffffffffff1614612276576040517f08c379a000000000000000000000000000000000000000000000000000000000815260040161226d90613553565b60405180910390fd5b80600a60008473ffffffffffffffffffffffffffffffffffffffff1673ffffffffffffffffffffffffffffffffffffffff16815260200190815260200160002060006101000a81548160ff0219169083151502179055505050565b60036020528060005260406000206000915090505481565b60046020528060005260406000206000915054906101000a900473ffffffffffffffffffffffffffffffffffffffff1681565b60086020528060005260406000206000915090505481565b600160205280600052604060002060009150905080600001549080600101805461235d90613894565b80601f016020809104026020016040519081016040528092919081815260200182805461238990613894565b80156123d65780601f106123ab576101008083540402835291602001916123d6565b820191906000526020600020905b8154815290600101906020018083116123b957829003601f168201915b5050505050908060020180546123eb90613894565b80601f016020809104026020016040519081016040528092919081815260200182805461241790613894565b80156124645780601f1061243957610100808354040283529160200191612464565b820191906000526020600020905b81548152906001019060200180831161244757829003601f168201915b5050505050908060030160009054906101000a900460ff16908060030160019054906101000a900460ff16905085565b600b5481565b600c5481565b600081600115156001600083815260200190815260200160002060030160019054906101000a900460ff161515146124d757600080fd5b6002808111156124ea576124e961396f565b5b6001600085815260200190815260200160002060030160009054906101000a900460ff1660028111156125205761251f61396f565b5b14915050919050565b612531612a6e565b73ffffffffffffffffffffffffffffffffffffffff1661254f6121d1565b73ffffffffffffffffffffffffffffffffffffffff16146125a5576040517f08c379a000000000000000000000000000000000000000000000000000000000815260040161259c90613553565b60405180910390fd5b80156125db576002601160016101000a81548160ff021916908360028111156125d1576125d061396f565b5b0217905550612607565b6000601160016101000a81548160ff021916908360028111156126015761260061396f565b5b02179055505b50565b600f5481565b60606002600083815260200190815260200160002080548060200260200160405190810160405280929190818152602001828054801561266f57602002820191906000526020600020905b81548152602001906001019080831161265b575b50505050509050919050565b600081600115156001600083815260200190815260200160002060030160019054906101000a900460ff161515146126b257600080fd5b600160028111156126c6576126c561396f565b5b6001600085815260200190815260200160002060030160009054906101000a900460ff1660028111156126fc576126fb61396f565b5b14915050919050565b60056020528160005260406000206020528060005260406000206000915091509054906101000a900460ff1681565b60076020528060005260406000206000915090508060000154908060010154905082565b600d5481565b60066020528060005260406000206000915090508060000154908060010154905082565b80600115156001600083815260200190815260200160002060030160019054906101000a900460ff161515146127b757600080fd5b816002808111156127cb576127ca61396f565b5b6001600083815260200190815260200160002060030160009054906101000a900460ff1660028111156128015761280061396f565b5b141561280c57600080fd5b60028081111561281f5761281e61396f565b5b601160009054906101000a900460ff1660028111156128415761284061396f565b5b141561284c57600080fd5b3360011515600a60003373ffffffffffffffffffffffffffffffffffffffff1673ffffffffffffffffffffffffffffffffffffffff16815260200190815260200160002060009054906101000a900460ff16151514156128e1576040517f08c379a00000000000000000000000000000000000000000000000000000000081526004016128d890613573565b60405180910390fd5b60026001600086815260200190815260200160002060030160006101000a81548160ff0219169083600281111561291b5761291a61396f565b5b02179055507f2ce5d9351b1d590d5a066db0d2dc7602d55f092506a83a7ee8c4d78ee357d75a8460405161294f91906135f5565b60405180910390a150505050565b612965612a6e565b73ffffffffffffffffffffffffffffffffffffffff166129836121d1565b73ffffffffffffffffffffffffffffffffffffffff16146129d9576040517f08c379a00000000000000000000000000000000000000000000000000000000081526004016129d090613553565b60405180910390fd5b600073ffffffffffffffffffffffffffffffffffffffff168173ffffffffffffffffffffffffffffffffffffffff161415612a49576040517f08c379a0000000000000000000000000000000000000000000000000000000008152600401612a40906134b3565b60405180910390fd5b612a5281612a76565b50565b60105481565b601160019054906101000a900460ff1681565b600033905090565b60008060009054906101000a900473ffffffffffffffffffffffffffffffffffffffff169050816000806101000a81548173ffffffffffffffffffffffffffffffffffffffff021916908373ffffffffffffffffffffffffffffffffffffffff1602179055508173ffffffffffffffffffffffffffffffffffffffff168173ffffffffffffffffffffffffffffffffffffffff167f8be0079c531659141344cd1fd0a4f28419497f9722a3daafe3b4186f6b6457e060405160405180910390a35050565b828054612b4690613894565b90600052602060002090601f016020900481019282612b685760008555612baf565b82601f10612b8157805160ff1916838001178555612baf565b82800160010185558215612baf579182015b82811115612bae578251825591602001919060010190612b93565b5b509050612bbc9190612c03565b5090565b6040518060a0016040528060008152602001606081526020016060815260200160006002811115612bf457612bf361396f565b5b81526020016000151581525090565b5b80821115612c1c576000816000905550600101612c04565b5090565b6000612c33612c2e846136bf565b61369a565b905082815260208101848484011115612c4f57612c4e613a30565b5b612c5a848285613852565b509392505050565b600081359050612c7181613d2e565b92915050565b600081359050612c8681613d45565b92915050565b600082601f830112612ca157612ca0613a2b565b5b8135612cb1848260208601612c20565b91505092915050565b600081359050612cc981613d5c565b92915050565b600060208284031215612ce557612ce4613a3a565b5b6000612cf384828501612c62565b91505092915050565b60008060408385031215612d1357612d12613a3a565b5b6000612d2185828601612c62565b9250506020612d3285828601612c77565b9150509250929050565b60008060408385031215612d5357612d52613a3a565b5b6000612d6185828601612c62565b9250506020612d7285828601612cba565b9150509250929050565b600060208284031215612d9257612d91613a3a565b5b6000612da084828501612c77565b91505092915050565b60008060408385031215612dc057612dbf613a3a565b5b600083013567ffffffffffffffff811115612dde57612ddd613a35565b5b612dea85828601612c8c565b925050602083013567ffffffffffffffff811115612e0b57612e0a613a35565b5b612e1785828601612c8c565b9150509250929050565b600060208284031215612e3757612e36613a3a565b5b6000612e4584828501612cba565b91505092915050565b60008060008060808587031215612e6857612e67613a3a565b5b6000612e7687828801612cba565b945050602085013567ffffffffffffffff811115612e9757612e96613a35565b5b612ea387828801612c8c565b935050604085013567ffffffffffffffff811115612ec457612ec3613a35565b5b612ed087828801612c8c565b925050606085013567ffffffffffffffff811115612ef157612ef0613a35565b5b612efd87828801612c8c565b91505092959194509250565b60008060408385031215612f2057612f1f613a3a565b5b6000612f2e85828601612cba565b9250506020612f3f85828601612cba565b9150509250929050565b6000612f558383613263565b905092915050565b6000612f69838361335d565b60208301905092915050565b612f7e816137e5565b82525050565b6000612f8f82613710565b612f99818561374b565b935083602082028501612fab856136f0565b8060005b85811015612fe75784840389528151612fc88582612f49565b9450612fd383613731565b925060208a01995050600181019050612faf565b50829750879550505050505092915050565b60006130048261371b565b61300e818561375c565b935061301983613700565b8060005b8381101561304a5781516130318882612f5d565b975061303c8361373e565b92505060018101905061301d565b5085935050505092915050565b613060816137f7565b82525050565b61306f816137f7565b82525050565b61307e81613840565b82525050565b61308d81613840565b82525050565b600061309e82613726565b6130a8818561376d565b93506130b8818560208601613861565b6130c181613a3f565b840191505092915050565b60006130d782613726565b6130e1818561377e565b93506130f1818560208601613861565b6130fa81613a3f565b840191505092915050565b600061311260368361377e565b915061311d82613a50565b604082019050919050565b600061313560268361377e565b915061314082613a9f565b604082019050919050565b600061315860248361377e565b915061316382613aee565b604082019050919050565b600061317b60248361377e565b915061318682613b3d565b604082019050919050565b600061319e60348361377e565b91506131a982613b8c565b604082019050919050565b60006131c160248361377e565b91506131cc82613bdb565b604082019050919050565b60006131e460208361377e565b91506131ef82613c2a565b602082019050919050565b6000613207601d8361377e565b915061321282613c53565b602082019050919050565b600061322a60258361377e565b915061323582613c7c565b604082019050919050565b600061324d60248361377e565b915061325882613ccb565b604082019050919050565b600060a08301600083015161327b600086018261335d565b50602083015184820360208601526132938282613093565b915050604083015184820360408601526132ad8282613093565b91505060608301516132c26060860182613075565b5060808301516132d56080860182613057565b508091505092915050565b600060a0830160008301516132f8600086018261335d565b50602083015184820360208601526133108282613093565b9150506040830151848203604086015261332a8282613093565b915050606083015161333f6060860182613075565b5060808301516133526080860182613057565b508091505092915050565b61336681613836565b82525050565b61337581613836565b82525050565b60006020820190506133906000830184612f75565b92915050565b600060208201905081810360008301526133b08184612f84565b905092915050565b600060208201905081810360008301526133d28184612ff9565b905092915050565b60006020820190506133ef6000830184613066565b92915050565b600060208201905061340a6000830184613084565b92915050565b6000604082019050818103600083015261342a81856130cc565b9050818103602083015261343e81846130cc565b90509392505050565b6000606082019050818103600083015261346181866130cc565b9050818103602083015261347581856130cc565b9050818103604083015261348981846130cc565b9050949350505050565b600060208201905081810360008301526134ac81613105565b9050919050565b600060208201905081810360008301526134cc81613128565b9050919050565b600060208201905081810360008301526134ec8161314b565b9050919050565b6000602082019050818103600083015261350c8161316e565b9050919050565b6000602082019050818103600083015261352c81613191565b9050919050565b6000602082019050818103600083015261354c816131b4565b9050919050565b6000602082019050818103600083015261356c816131d7565b9050919050565b6000602082019050818103600083015261358c816131fa565b9050919050565b600060208201905081810360008301526135ac8161321d565b9050919050565b600060208201905081810360008301526135cc81613240565b9050919050565b600060208201905081810360008301526135ed81846132e0565b905092915050565b600060208201905061360a600083018461336c565b92915050565b600060a082019050613625600083018861336c565b818103602083015261363781876130cc565b9050818103604083015261364b81866130cc565b905061365a6060830185613084565b6136676080830184613066565b9695505050505050565b6000604082019050613686600083018561336c565b613693602083018461336c565b9392505050565b60006136a46136b5565b90506136b082826138c6565b919050565b6000604051905090565b600067ffffffffffffffff8211156136da576136d96139fc565b5b6136e382613a3f565b9050602081019050919050565b6000819050602082019050919050565b6000819050602082019050919050565b600081519050919050565b600081519050919050565b600081519050919050565b6000602082019050919050565b6000602082019050919050565b600082825260208201905092915050565b600082825260208201905092915050565b600082825260208201905092915050565b600082825260208201905092915050565b600061379a82613836565b91506137a583613836565b9250827fffffffffffffffffffffffffffffffffffffffffffffffffffffffffffffffff038211156137da576137d9613940565b5b828201905092915050565b60006137f082613816565b9050919050565b60008115159050919050565b600081905061381182613d1a565b919050565b600073ffffffffffffffffffffffffffffffffffffffff82169050919050565b6000819050919050565b600061384b82613803565b9050919050565b82818337600083830152505050565b60005b8381101561387f578082015181840152602081019050613864565b8381111561388e576000848401525b50505050565b600060028204905060018216806138ac57607f821691505b602082108114156138c0576138bf61399e565b5b50919050565b6138cf82613a3f565b810181811067ffffffffffffffff821117156138ee576138ed6139fc565b5b80604052505050565b600061390282613836565b91507fffffffffffffffffffffffffffffffffffffffffffffffffffffffffffffffff82141561393557613934613940565b5b600182019050919050565b7f4e487b7100000000000000000000000000000000000000000000000000000000600052601160045260246000fd5b7f4e487b7100000000000000000000000000000000000000000000000000000000600052602160045260246000fd5b7f4e487b7100000000000000000000000000000000000000000000000000000000600052602260045260246000fd5b7f4e487b7100000000000000000000000000000000000000000000000000000000600052603260045260246000fd5b7f4e487b7100000000000000000000000000000000000000000000000000000000600052604160045260246000fd5b600080fd5b600080fd5b600080fd5b600080fd5b6000601f19601f8301169050919050565b7f557365722069732063757272656e746c7920696e20766f74696e6720636f6f6c60008201527f646f776e20706572696f6420666f7220747261636b2e00000000000000000000602082015250565b7f4f776e61626c653a206e6577206f776e657220697320746865207a65726f206160008201527f6464726573730000000000000000000000000000000000000000000000000000602082015250565b7f416c6c20747261636b732068617665206265656e20636c6f736564206279206160008201527f646d696e00000000000000000000000000000000000000000000000000000000602082015250565b7f557365722069732063757272656e746c7920696e20656e74727920636f6f6c6460008201527f6f776e2e00000000000000000000000000000000000000000000000000000000602082015250565b7f55736572732063616e6e6f7420766f746520666f72207468652073616d65206560008201527f6e747279206d756c7469706c652074696d65732e000000000000000000000000602082015250565b7f416c6c20766f74696e6720686173206265656e20626c6f636b6564206279206160008201527f646d696e00000000000000000000000000000000000000000000000000000000602082015250565b7f4f776e61626c653a2063616c6c6572206973206e6f7420746865206f776e6572600082015250565b7f5573657220686173206265656e2062616e6e65642062792061646d696e000000600082015250565b7f416c6c20747261636b732068617665206265656e20626c6f636b65642062792060008201527f61646d696e000000000000000000000000000000000000000000000000000000602082015250565b7f557365722069732063757272656e746c7920696e20747261636b20636f6f6c6460008201527f6f776e2e00000000000000000000000000000000000000000000000000000000602082015250565b60038110613d2b57613d2a61396f565b5b50565b613d37816137e5565b8114613d4257600080fd5b50565b613d4e816137f7565b8114613d5957600080fd5b50565b613d6581613836565b8114613d7057600080fd5b5056fea2646970667358221220c1eed19952d16ae5daf2a28d32b834dba80412caee9397c1a77552c53b9f6c7064736f6c63430008070033",
  "immutableReferences": {},
  "source": "// SPDX-License-Identifier: MIT\r\npragma solidity ^0.8.0;\r\nimport \"@openzeppelin/contracts/access/Ownable.sol\";\r\n\r\n\r\ncontract Tracks  is Ownable {\r\n  mapping (uint  => Track) public tracks;\r\n  mapping (uint  => uint[]) public trackEntries; //trackId => entryId[]\r\n  mapping (uint  => uint) public entriesTrack; //entryId => trackId\r\n  mapping (uint  => address) public trackOwners; //trackId => address\r\n  mapping (address  => mapping (uint => bool)) public votesByAddress; //address => (entryId => bool)\r\n  mapping (address  => TrackEvent) public trackEventsByUser; //address => TrackEvent\r\n  mapping (address  => EntryEvent) public entryEventsByUser; //address => EntryEvent\r\n  mapping (uint  => uint) public votesByTrack; //trackId => vote count\r\n  mapping (address  => mapping(uint => uint)) public lastVoteTime; //address => trackId => time(s)\r\n  mapping(address => bool) public bannedUsers;\r\n\r\n  uint public nextTrackId;\r\n  uint public trackCount;\r\n  uint public nextEntryId;\r\n  uint public voteCooldownPeriod;\r\n  uint public entryEventCooldownPeriod;\r\n  uint public trackEventCooldownPeriod;\r\n  State public allTracksState;\r\n  State public allVotesState;\r\n  \r\n  \r\n\tstruct EntryEvent {\r\n\t    uint time;\r\n\t    uint eventId;\r\n\t}\r\n\t\r\n\tstruct TrackEvent {\r\n\t    uint time;\r\n\t    uint trackId;\r\n\t}\r\n\t\r\n  enum State {\r\n      Open,\r\n      Closed,\r\n      Blocked\r\n  }\r\n  struct Track {\r\n      uint  trackId;\r\n      string  name;\r\n      string  desc;\r\n      State state;\r\n      bool exists;\r\n  }\r\n\r\n  event Opened(uint trackId);\r\n  event Closed(uint trackId);\r\n  event Blocked(uint trackId);\r\n  event TrackUnblocked(uint trackId);\r\n  event TrackCreated(uint indexed trackId, string name, string desc);\r\n  event EntryCreated(uint indexed trackId, uint indexed entryId, string name, string desc, string location);\r\n  event EntryVotedFor(uint indexed trackId, uint indexed entryId);\r\n\r\n  /**\r\n   * @dev XXX\r\n   * @param _trackId The id of the track\r\n   */\r\n\tmodifier checkOpen(uint _trackId) {\r\n\t\trequire(tracks[_trackId].state == State.Open);\r\n\t\trequire(allTracksState != State.Closed, \"All tracks have been closed by admin\");\r\n    _;\r\n  }\r\n  \r\n\t/**\r\n   * @dev XXX\r\n   * @param _trackId The id of the track\r\n   */\r\n\tmodifier checkClosed(uint _trackId) {\r\n\t\trequire(tracks[_trackId].state == State.Closed);\r\n\t\trequire(allTracksState == State.Closed, \"All tracks have been closed by admin\");\r\n    _;\r\n  }\r\n  \r\n  /**\r\n   * @dev XXX\r\n   * @param _trackId The id of the track\r\n   */\r\n\tmodifier checkBlocked(uint _trackId) {\r\n\t\trequire(tracks[_trackId].state == State.Blocked);\r\n\t\trequire(allTracksState == State.Blocked, \"All tracks have been blocked by admin\");\r\n    _;\r\n  }\r\n  \r\n  /**\r\n   * @dev XXX\r\n   * @param _trackId The id of the track\r\n   */\r\n\tmodifier checkTrackUnblocked(uint _trackId) {\r\n\t\trequire(tracks[_trackId].state != State.Blocked);\r\n\t\trequire(allTracksState != State.Blocked);\r\n    _;\r\n  }\r\n  \r\n  /**\r\n   * @dev XXX\r\n   * @param _trackId The id of the track\r\n   */\r\n\tmodifier checkTrackExists(uint _trackId) {\r\n\t\t\trequire(tracks[_trackId].exists == true);\r\n\t    _;\r\n\t  }\r\n\r\n\tmodifier isUserBanned(address _addr){\r\n\t\t\trequire(bannedUsers[msg.sender] != true, \"User has been banned by admin\");\r\n\t    _;\r\n\t}\r\n\r\n\tmodifier hasNotVotedForEntry(address _addr, uint _entryId){\r\n\t    require(votesByAddress[msg.sender][_entryId] == false, \"Users cannot vote for the same entry multiple times.\");\r\n\t\t\trequire(allVotesState != State.Closed, \"All voting has been blocked by admin\");\r\n\t    _;\r\n\t}\r\n\t\r\n\tmodifier isNotInVotingCooldown(address addr, uint trackId){\r\n\t    require(lastVoteTime[addr][trackId] == 0 || lastVoteTime[addr][trackId] + voteCooldownPeriod < block.timestamp, \"User is currently in voting cooldown period for track.\");\r\n\t    _;\r\n\t}\r\n\r\n\tmodifier isNotInTrackCreationCooldown(address addr){\r\n\t    require(trackEventsByUser[addr].time == 0 || (trackEventsByUser[addr].time + trackEventCooldownPeriod) < block.timestamp, \"User is currently in track cooldown.\");\r\n\t    _;\r\n\t}\r\n\t\r\n\tmodifier isNotInEntryCreationCooldown(address addr){\r\n\t    require(entryEventsByUser[addr].time == 0 || (entryEventsByUser[addr].time + entryEventCooldownPeriod) < block.timestamp, \"User is currently in entry cooldown.\");\r\n\t    _;\r\n\t}\r\n\t\r\n\t/**\r\n   * @dev XXX\r\n   */\r\n  constructor () {\r\n      uint trackId = addTrack(\"first_track\", \"This is the first track\");\r\n      addEntry(trackId, \"name\", \"description\", \"location\");\r\n      voteCooldownPeriod = 1 minutes;\r\n      entryEventCooldownPeriod = 1 minutes;\r\n      trackEventCooldownPeriod = 1 minutes;\r\n  }\r\n\r\n\t/**\r\n   * @dev XXX\r\n   */\r\n  function getTracks() public view returns ( Track[] memory) {\r\n      Track[] memory _tracks = new Track[](trackCount);\r\n      for (uint i=0; i<trackCount; i++) {\r\n          _tracks[i] = tracks[i];\r\n      }\r\n      return _tracks;\r\n  }\r\n\r\n  /**\r\n   * @dev XXX\r\n   * @param _trackId The id of the track\r\n   */\r\n  function getTrack(uint _trackId) public view checkTrackUnblocked(_trackId) returns (Track memory) {\r\n      return tracks[_trackId];\r\n  }\r\n\t\r\n\r\n  /**\r\n   * @dev XXX\r\n   * @param _trackId The id of the track\r\n   */\r\n  function getEntriesForTrack(uint _trackId) public view returns (uint[] memory){\r\n      return trackEntries[_trackId];\r\n  }\r\n\r\n\t/**\r\n   * @dev XXX\r\n   * @param _trackId The id of the track\r\n   */\r\n  function openTrack(uint _trackId) public checkTrackExists(_trackId) checkClosed(_trackId) isUserBanned(msg.sender){\r\n      tracks[_trackId].state = State.Open;\r\n      emit Opened(_trackId);\r\n  }\r\n\r\n\t/**\r\n   * @dev XXX\r\n   * @param _trackId The id of the track\r\n   */\r\n\tfunction closeTrack(uint _trackId) public checkTrackExists(_trackId) checkOpen(_trackId) isUserBanned(msg.sender){\r\n      tracks[_trackId].state = State.Closed;\r\n      emit Closed(_trackId);\r\n  }\r\n\r\n\t/**\r\n   * @dev XXX\r\n   * @param _trackId The id of the track\r\n   */\r\n\tfunction blockTrack(uint _trackId) public checkTrackExists(_trackId) checkTrackUnblocked(_trackId) isUserBanned(msg.sender){\r\n      tracks[_trackId].state = State.Blocked;\r\n      emit Blocked(_trackId);\r\n  }\r\n\r\n  /**\r\n   * @dev XXX\r\n   * @param _trackId The id of the track\r\n   */\r\n  function unblockTrack(uint _trackId) public checkTrackExists(_trackId) checkBlocked(_trackId) isUserBanned(msg.sender) {\r\n      tracks[_trackId].state = State.Closed;\r\n      emit TrackUnblocked(_trackId);\r\n  }\r\n\r\n\t/**\r\n   * @dev XXX\r\n   * @param _trackId The id of the track\r\n   */\r\n  function isOpen(uint _trackId) public view checkTrackExists(_trackId) returns (bool){\r\n      return (tracks[_trackId].state == State.Open);\r\n  }\r\n  /**\r\n   * @dev XXX\r\n   * @param _trackId The id of the track\r\n   */\r\n  function isClosed(uint _trackId) public view checkTrackExists(_trackId) returns (bool){\r\n      return (tracks[_trackId].state == State.Closed);\r\n  }\r\n  /**\r\n   * @dev XXX\r\n   * @param _trackId The id of the track\r\n   */\r\n  function isBlocked(uint _trackId) public view checkTrackExists(_trackId) returns (bool){\r\n      return (tracks[_trackId].state == State.Blocked);\r\n  }\r\n\r\n\t/**\r\n   * @dev XXX\r\n   * @param _entryId The id of the entry\r\n   */\r\n  function vote(uint _entryId) public checkOpen(entriesTrack[_entryId]) hasNotVotedForEntry(msg.sender, _entryId) isUserBanned(msg.sender) isNotInVotingCooldown(msg.sender, entriesTrack[_entryId]) {\r\n    uint _trackId = entriesTrack[_entryId];\r\n    votesByAddress[msg.sender][_entryId] = true;\r\n    lastVoteTime[msg.sender][_trackId] = block.timestamp;\r\n    votesByTrack[_trackId]++;\r\n    emit EntryVotedFor(_trackId, _entryId);\r\n  }\r\n\r\n  /**\r\n   * @dev XXX\r\n   * @param _trackId The id of the track\r\n   */\r\n  function addEntry(uint _trackId, string memory _name, string memory _desc, string memory _location) public isUserBanned(msg.sender) isNotInEntryCreationCooldown(msg.sender)  checkOpen(_trackId) returns (uint) {\r\n    uint entryId = nextEntryId;\r\n    require(entriesTrack[entryId] == 0);\r\n    trackEntries[_trackId].push(entryId);\r\n    entriesTrack[entryId] = _trackId;\r\n    entryEventsByUser[msg.sender] = EntryEvent(block.timestamp, entryId);\r\n    nextEntryId++;\r\n    emit EntryCreated(_trackId, entryId, _name, _desc, _location);\r\n    return entryId;\r\n  }\r\n\r\n\t/**\r\n   * @dev XXX\r\n   * @param _name XXX\r\n   * @param _desc XXX\r\n   */\r\n  function addTrack(string memory _name, string memory _desc) public isNotInTrackCreationCooldown(msg.sender) isUserBanned(msg.sender) returns (uint) {\r\n    uint trackId = nextTrackId;\r\n    tracks[trackId] = Track({\r\n      trackId: trackId,\r\n      name: _name,\r\n      desc: _desc,\r\n      state: State.Open,\r\n      exists: true\r\n    });\r\n    trackEventsByUser[msg.sender] = TrackEvent(block.timestamp, trackId);\r\n    trackOwners[trackId] = msg.sender;\r\n    nextTrackId++;\r\n    trackCount++;\r\n    emit TrackCreated(trackId, _name, _desc);\r\n    return trackId;\r\n   }\r\n   \r\n   function blockTracks(bool enable) public onlyOwner {\r\n       if (enable) {\r\n           allTracksState = State.Blocked;   \r\n       } else {\r\n           allTracksState = State.Open;   \r\n       }\r\n\t}\r\n   function closeTracks(bool enable) public onlyOwner {\r\n       if (enable) {\r\n           allTracksState = State.Closed;   \r\n       } else {\r\n           allTracksState = State.Open;   \r\n       }\r\n\t}\r\n   \r\n   function blockVotes(bool enable) public onlyOwner {\r\n       if (enable) {\r\n           allVotesState = State.Blocked;   \r\n       } else {\r\n           allVotesState = State.Open;   \r\n       }\r\n\t}\r\n   \r\n   function banUser(address addr, bool banned) public onlyOwner {\r\n\t \t\tbannedUsers[addr] = banned;   \r\n\t\t}\r\n   \r\n}\r\n\r\n\r\n\t",
  "sourcePath": "D:\\projects\\blockchain-developer-bootcamp-final-project\\tracks\\contracts\\Tracks.sol",
  "compiler": {
    "name": "solc",
    "version": "0.8.7+commit.e28d00a7.Emscripten.clang"
  },
  "schemaVersion": "3.4.3",
  "updatedAt": "2021-10-10T15:58:51.551Z",
  "devdoc": {
    "kind": "dev",
    "methods": {
      "addEntry(uint256,string,string,string)": {
        "details": "XXX",
        "params": {
          "_trackId": "The id of the track"
        }
      },
      "addTrack(string,string)": {
        "details": "XXX",
        "params": {
          "_desc": "XXX",
          "_name": "XXX"
        }
      },
      "blockTrack(uint256)": {
        "details": "XXX",
        "params": {
          "_trackId": "The id of the track"
        }
      },
      "closeTrack(uint256)": {
        "details": "XXX",
        "params": {
          "_trackId": "The id of the track"
        }
      },
      "constructor": {
        "details": "XXX"
      },
      "getEntriesForTrack(uint256)": {
        "details": "XXX",
        "params": {
          "_trackId": "The id of the track"
        }
      },
      "getTrack(uint256)": {
        "details": "XXX",
        "params": {
          "_trackId": "The id of the track"
        }
      },
      "getTracks()": {
        "details": "XXX"
      },
      "isBlocked(uint256)": {
        "details": "XXX",
        "params": {
          "_trackId": "The id of the track"
        }
      },
      "isClosed(uint256)": {
        "details": "XXX",
        "params": {
          "_trackId": "The id of the track"
        }
      },
      "isOpen(uint256)": {
        "details": "XXX",
        "params": {
          "_trackId": "The id of the track"
        }
      },
      "openTrack(uint256)": {
        "details": "XXX",
        "params": {
          "_trackId": "The id of the track"
        }
      },
      "owner()": {
        "details": "Returns the address of the current owner."
      },
      "renounceOwnership()": {
        "details": "Leaves the contract without owner. It will not be possible to call `onlyOwner` functions anymore. Can only be called by the current owner. NOTE: Renouncing ownership will leave the contract without an owner, thereby removing any functionality that is only available to the owner."
      },
      "transferOwnership(address)": {
        "details": "Transfers ownership of the contract to a new account (`newOwner`). Can only be called by the current owner."
      },
      "unblockTrack(uint256)": {
        "details": "XXX",
        "params": {
          "_trackId": "The id of the track"
        }
      },
      "vote(uint256)": {
        "details": "XXX",
        "params": {
          "_entryId": "The id of the entry"
        }
      }
    },
    "version": 1
  },
  "userdoc": {
    "kind": "user",
    "methods": {},
    "version": 1
  }
}