{
  "contractName": "Tracks",
  "abi": [
    {
      "inputs": [],
      "stateMutability": "nonpayable",
      "type": "constructor"
    },
    {
      "anonymous": false,
      "inputs": [
        {
          "indexed": true,
          "internalType": "uint256",
          "name": "trackId",
          "type": "uint256"
        },
        {
          "indexed": true,
          "internalType": "uint256",
          "name": "entryId",
          "type": "uint256"
        },
        {
          "indexed": false,
          "internalType": "string",
          "name": "name",
          "type": "string"
        },
        {
          "indexed": false,
          "internalType": "string",
          "name": "desc",
          "type": "string"
        },
        {
          "indexed": false,
          "internalType": "string",
          "name": "location",
          "type": "string"
        }
      ],
      "name": "EntryCreated",
      "type": "event"
    },
    {
      "anonymous": false,
      "inputs": [
        {
          "indexed": true,
          "internalType": "uint256",
          "name": "trackId",
          "type": "uint256"
        },
        {
          "indexed": true,
          "internalType": "uint256",
          "name": "entryId",
          "type": "uint256"
        }
      ],
      "name": "EntryVotedFor",
      "type": "event"
    },
    {
      "anonymous": false,
      "inputs": [
        {
          "indexed": false,
          "internalType": "uint256",
          "name": "trackId",
          "type": "uint256"
        }
      ],
      "name": "TrackBlocked",
      "type": "event"
    },
    {
      "anonymous": false,
      "inputs": [
        {
          "indexed": false,
          "internalType": "uint256",
          "name": "trackId",
          "type": "uint256"
        }
      ],
      "name": "TrackClosed",
      "type": "event"
    },
    {
      "anonymous": false,
      "inputs": [
        {
          "indexed": true,
          "internalType": "uint256",
          "name": "trackId",
          "type": "uint256"
        },
        {
          "indexed": false,
          "internalType": "string",
          "name": "name",
          "type": "string"
        },
        {
          "indexed": false,
          "internalType": "string",
          "name": "desc",
          "type": "string"
        }
      ],
      "name": "TrackCreated",
      "type": "event"
    },
    {
      "anonymous": false,
      "inputs": [
        {
          "indexed": false,
          "internalType": "uint256",
          "name": "trackId",
          "type": "uint256"
        }
      ],
      "name": "TrackOpened",
      "type": "event"
    },
    {
      "anonymous": false,
      "inputs": [
        {
          "indexed": false,
          "internalType": "uint256",
          "name": "trackId",
          "type": "uint256"
        }
      ],
      "name": "TrackUnblocked",
      "type": "event"
    },
    {
      "inputs": [
        {
          "internalType": "uint256",
          "name": "",
          "type": "uint256"
        }
      ],
      "name": "entriesTrack",
      "outputs": [
        {
          "internalType": "uint256",
          "name": "",
          "type": "uint256"
        }
      ],
      "stateMutability": "view",
      "type": "function",
      "constant": true
    },
    {
      "inputs": [],
      "name": "nextEntryId",
      "outputs": [
        {
          "internalType": "uint256",
          "name": "",
          "type": "uint256"
        }
      ],
      "stateMutability": "view",
      "type": "function",
      "constant": true
    },
    {
      "inputs": [],
      "name": "nextTrackId",
      "outputs": [
        {
          "internalType": "uint256",
          "name": "",
          "type": "uint256"
        }
      ],
      "stateMutability": "view",
      "type": "function",
      "constant": true
    },
    {
      "inputs": [],
      "name": "trackCount",
      "outputs": [
        {
          "internalType": "uint256",
          "name": "",
          "type": "uint256"
        }
      ],
      "stateMutability": "view",
      "type": "function",
      "constant": true
    },
    {
      "inputs": [
        {
          "internalType": "uint256",
          "name": "",
          "type": "uint256"
        },
        {
          "internalType": "uint256",
          "name": "",
          "type": "uint256"
        }
      ],
      "name": "trackEntries",
      "outputs": [
        {
          "internalType": "uint256",
          "name": "",
          "type": "uint256"
        }
      ],
      "stateMutability": "view",
      "type": "function",
      "constant": true
    },
    {
      "inputs": [
        {
          "internalType": "uint256",
          "name": "",
          "type": "uint256"
        }
      ],
      "name": "tracks",
      "outputs": [
        {
          "internalType": "uint256",
          "name": "trackId",
          "type": "uint256"
        },
        {
          "internalType": "string",
          "name": "name",
          "type": "string"
        },
        {
          "internalType": "string",
          "name": "desc",
          "type": "string"
        },
        {
          "internalType": "enum Tracks.State",
          "name": "state",
          "type": "uint8"
        },
        {
          "internalType": "bool",
          "name": "exists",
          "type": "bool"
        }
      ],
      "stateMutability": "view",
      "type": "function",
      "constant": true
    },
    {
      "inputs": [
        {
          "internalType": "uint256",
          "name": "",
          "type": "uint256"
        }
      ],
      "name": "votes",
      "outputs": [
        {
          "internalType": "uint256",
          "name": "",
          "type": "uint256"
        }
      ],
      "stateMutability": "view",
      "type": "function",
      "constant": true
    },
    {
      "inputs": [
        {
          "internalType": "address",
          "name": "",
          "type": "address"
        },
        {
          "internalType": "uint256",
          "name": "",
          "type": "uint256"
        }
      ],
      "name": "votesByAddress",
      "outputs": [
        {
          "internalType": "bool",
          "name": "",
          "type": "bool"
        }
      ],
      "stateMutability": "view",
      "type": "function",
      "constant": true
    },
    {
      "inputs": [],
      "name": "getTracks",
      "outputs": [
        {
          "components": [
            {
              "internalType": "uint256",
              "name": "trackId",
              "type": "uint256"
            },
            {
              "internalType": "string",
              "name": "name",
              "type": "string"
            },
            {
              "internalType": "string",
              "name": "desc",
              "type": "string"
            },
            {
              "internalType": "enum Tracks.State",
              "name": "state",
              "type": "uint8"
            },
            {
              "internalType": "bool",
              "name": "exists",
              "type": "bool"
            }
          ],
          "internalType": "struct Tracks.Track[]",
          "name": "",
          "type": "tuple[]"
        }
      ],
      "stateMutability": "view",
      "type": "function",
      "constant": true
    },
    {
      "inputs": [
        {
          "internalType": "uint256",
          "name": "_trackId",
          "type": "uint256"
        }
      ],
      "name": "getTrack",
      "outputs": [
        {
          "components": [
            {
              "internalType": "uint256",
              "name": "trackId",
              "type": "uint256"
            },
            {
              "internalType": "string",
              "name": "name",
              "type": "string"
            },
            {
              "internalType": "string",
              "name": "desc",
              "type": "string"
            },
            {
              "internalType": "enum Tracks.State",
              "name": "state",
              "type": "uint8"
            },
            {
              "internalType": "bool",
              "name": "exists",
              "type": "bool"
            }
          ],
          "internalType": "struct Tracks.Track",
          "name": "",
          "type": "tuple"
        }
      ],
      "stateMutability": "view",
      "type": "function",
      "constant": true
    },
    {
      "inputs": [
        {
          "internalType": "uint256",
          "name": "_entryId",
          "type": "uint256"
        }
      ],
      "name": "getVotes",
      "outputs": [
        {
          "internalType": "uint256",
          "name": "",
          "type": "uint256"
        }
      ],
      "stateMutability": "view",
      "type": "function",
      "constant": true
    },
    {
      "inputs": [
        {
          "internalType": "uint256",
          "name": "_trackId",
          "type": "uint256"
        }
      ],
      "name": "getEntriesForTrack",
      "outputs": [
        {
          "internalType": "uint256[]",
          "name": "",
          "type": "uint256[]"
        }
      ],
      "stateMutability": "view",
      "type": "function",
      "constant": true
    },
    {
      "inputs": [
        {
          "internalType": "uint256",
          "name": "_trackId",
          "type": "uint256"
        }
      ],
      "name": "openTrack",
      "outputs": [],
      "stateMutability": "nonpayable",
      "type": "function"
    },
    {
      "inputs": [
        {
          "internalType": "uint256",
          "name": "_trackId",
          "type": "uint256"
        }
      ],
      "name": "closeTrack",
      "outputs": [],
      "stateMutability": "nonpayable",
      "type": "function"
    },
    {
      "inputs": [
        {
          "internalType": "uint256",
          "name": "_trackId",
          "type": "uint256"
        }
      ],
      "name": "blockTrack",
      "outputs": [],
      "stateMutability": "nonpayable",
      "type": "function"
    },
    {
      "inputs": [
        {
          "internalType": "uint256",
          "name": "_trackId",
          "type": "uint256"
        }
      ],
      "name": "unblockTrack",
      "outputs": [],
      "stateMutability": "nonpayable",
      "type": "function"
    },
    {
      "inputs": [
        {
          "internalType": "uint256",
          "name": "_trackId",
          "type": "uint256"
        }
      ],
      "name": "isTrackOpen",
      "outputs": [
        {
          "internalType": "bool",
          "name": "",
          "type": "bool"
        }
      ],
      "stateMutability": "view",
      "type": "function",
      "constant": true
    },
    {
      "inputs": [
        {
          "internalType": "uint256",
          "name": "_trackId",
          "type": "uint256"
        }
      ],
      "name": "isTrackClosed",
      "outputs": [
        {
          "internalType": "bool",
          "name": "",
          "type": "bool"
        }
      ],
      "stateMutability": "view",
      "type": "function",
      "constant": true
    },
    {
      "inputs": [
        {
          "internalType": "uint256",
          "name": "_trackId",
          "type": "uint256"
        }
      ],
      "name": "isTrackBlocked",
      "outputs": [
        {
          "internalType": "bool",
          "name": "",
          "type": "bool"
        }
      ],
      "stateMutability": "view",
      "type": "function",
      "constant": true
    },
    {
      "inputs": [
        {
          "internalType": "uint256",
          "name": "_entryId",
          "type": "uint256"
        }
      ],
      "name": "vote",
      "outputs": [],
      "stateMutability": "nonpayable",
      "type": "function"
    },
    {
      "inputs": [
        {
          "internalType": "uint256",
          "name": "_trackId",
          "type": "uint256"
        },
        {
          "internalType": "string",
          "name": "_name",
          "type": "string"
        },
        {
          "internalType": "string",
          "name": "_desc",
          "type": "string"
        },
        {
          "internalType": "string",
          "name": "_location",
          "type": "string"
        }
      ],
      "name": "addEntry",
      "outputs": [
        {
          "internalType": "uint256",
          "name": "",
          "type": "uint256"
        }
      ],
      "stateMutability": "nonpayable",
      "type": "function"
    },
    {
      "inputs": [
        {
          "internalType": "string",
          "name": "_name",
          "type": "string"
        },
        {
          "internalType": "string",
          "name": "_desc",
          "type": "string"
        }
      ],
      "name": "addTrack",
      "outputs": [
        {
          "internalType": "uint256",
          "name": "",
          "type": "uint256"
        }
      ],
      "stateMutability": "nonpayable",
      "type": "function"
    }
  ],
  "bytecode": "0x60806040523480156200001157600080fd5b506000620000906040518060400160405280600b81526020017f66697273745f747261636b0000000000000000000000000000000000000000008152506040518060400160405280601781526020017f546869732069732074686520666972737420747261636b0000000000000000008152506200014d60201b60201c565b905062000145816040518060400160405280600481526020017f6e616d65000000000000000000000000000000000000000000000000000000008152506040518060400160405280600b81526020017f6465736372697074696f6e0000000000000000000000000000000000000000008152506040518060400160405280600881526020017f6c6f636174696f6e000000000000000000000000000000000000000000000000815250620002bf60201b60201c565b5050620006f8565b60008060055490506040518060a001604052808281526020018581526020018481526020016000600281111562000189576200018862000689565b5b815260200160011515815250600080838152602001908152602001600020600082015181600001556020820151816001019080519060200190620001cf929190620003fc565b506040820151816002019080519060200190620001ee929190620003fc565b5060608201518160030160006101000a81548160ff021916908360028111156200021d576200021c62000689565b5b021790555060808201518160030160016101000a81548160ff021916908315150217905550905050600560008154809291906200025a906200060c565b91905055506006600081548092919062000274906200060c565b9190505550807f21579433a032855e20e8afc48e980ddae0b6285e4aa03370f03192be12bea28b8585604051620002ad929190620004ed565b60405180910390a28091505092915050565b60008460006002811115620002d957620002d862000689565b5b60008083815260200190815260200160002060030160009054906101000a900460ff16600281111562000311576200031062000689565b5b146200031c57600080fd5b6000600754905060006002600083815260200190815260200160002054146200034457600080fd5b6001600088815260200190815260200160002081908060018154018082558091505060019003906000526020600020016000909190919091505586600260008381526020019081526020016000208190555060076000815480929190620003ab906200060c565b919050555080877f313f81e8cc8fe5ab3d1facaeffd8e0d26068ff1776d23a4621a5bdb0c891c817888888604051620003e79392919062000528565b60405180910390a38092505050949350505050565b8280546200040a90620005d6565b90600052602060002090601f0160209004810192826200042e57600085556200047a565b82601f106200044957805160ff19168380011785556200047a565b828001600101855582156200047a579182015b82811115620004795782518255916020019190600101906200045c565b5b5090506200048991906200048d565b5090565b5b80821115620004a85760008160009055506001016200048e565b5090565b6000620004b9826200057a565b620004c5818562000585565b9350620004d7818560208601620005a0565b620004e281620006e7565b840191505092915050565b60006040820190508181036000830152620005098185620004ac565b905081810360208301526200051f8184620004ac565b90509392505050565b60006060820190508181036000830152620005448186620004ac565b905081810360208301526200055a8185620004ac565b90508181036040830152620005708184620004ac565b9050949350505050565b600081519050919050565b600082825260208201905092915050565b6000819050919050565b60005b83811015620005c0578082015181840152602081019050620005a3565b83811115620005d0576000848401525b50505050565b60006002820490506001821680620005ef57607f821691505b60208210811415620006065762000605620006b8565b5b50919050565b6000620006198262000596565b91507fffffffffffffffffffffffffffffffffffffffffffffffffffffffffffffffff8214156200064f576200064e6200065a565b5b600182019050919050565b7f4e487b7100000000000000000000000000000000000000000000000000000000600052601160045260246000fd5b7f4e487b7100000000000000000000000000000000000000000000000000000000600052602160045260246000fd5b7f4e487b7100000000000000000000000000000000000000000000000000000000600052602260045260246000fd5b6000601f19601f8301169050919050565b61218a80620007086000396000f3fe608060405234801561001057600080fd5b50600436106101425760003560e01c806387548fcf116100b8578063caa2c2ad1161007c578063caa2c2ad146103c5578063d02f4483146103f5578063db7c01e214610425578063e6b2cf6c14610455578063ef75976114610473578063ff9810991461048f57610142565b806387548fcf14610307578063924e9b9514610325578063a2e3458614610355578063a72024c614610389578063ab35678c146103a757610142565b806336de40be1161010a57806336de40be1461020f578063423b70321461023f5780635df813301461025b578063629058ca1461028b57806366cb5936146102bb57806368e982b0146102eb57610142565b80630121b93f14610147578063109699b6146101635780631f6c5f00146101935780632e42ddbf146101af57806333abbe51146101df575b600080fd5b610161600480360381019061015c9190611845565b6104bf565b005b61017d6004803603810190610178919061192d565b6106a2565b60405161018a9190611d36565b60405180910390f35b6101ad60048036038101906101a89190611845565b6106d3565b005b6101c960048036038101906101c49190611872565b6107d5565b6040516101d69190611d36565b60405180910390f35b6101f960048036038101906101f49190611845565b610906565b6040516102069190611c76565b60405180910390f35b610229600480360381019061022491906117cd565b61098e565b6040516102369190611d36565b60405180910390f35b61025960048036038101906102549190611845565b610af0565b005b61027560048036038101906102709190611845565b610bf2565b6040516102829190611d36565b60405180910390f35b6102a560048036038101906102a09190611845565b610c0a565b6040516102b29190611d14565b60405180910390f35b6102d560048036038101906102d09190611845565b610e0f565b6040516102e29190611c76565b60405180910390f35b61030560048036038101906103009190611845565b610e97565b005b61030f610f98565b60405161031c9190611c32565b60405180910390f35b61033f600480360381019061033a9190611845565b6111db565b60405161034c9190611d36565b60405180910390f35b61036f600480360381019061036a9190611845565b6111f3565b604051610380959493929190611d51565b60405180910390f35b610391611353565b60405161039e9190611d36565b60405180910390f35b6103af611359565b6040516103bc9190611d36565b60405180910390f35b6103df60048036038101906103da9190611845565b61135f565b6040516103ec9190611c76565b60405180910390f35b61040f600480360381019061040a9190611845565b6113e6565b60405161041c9190611c54565b60405180910390f35b61043f600480360381019061043a919061178d565b611451565b60405161044c9190611c76565b60405180910390f35b61045d611480565b60405161046a9190611d36565b60405180910390f35b61048d60048036038101906104889190611845565b611486565b005b6104a960048036038101906104a49190611845565b611588565b6040516104b69190611d36565b60405180910390f35b6002600082815260200190815260200160002054600060028111156104e7576104e6612031565b5b60008083815260200190815260200160002060030160009054906101000a900460ff16600281111561051c5761051b612031565b5b1461052657600080fd5b336002600084815260200190815260200160002054600360003373ffffffffffffffffffffffffffffffffffffffff1673ffffffffffffffffffffffffffffffffffffffff16815260200190815260200160002060006002600084815260200190815260200160002054815260200190815260200160002060009054906101000a900460ff16156105b657600080fd5b6001600360003373ffffffffffffffffffffffffffffffffffffffff1673ffffffffffffffffffffffffffffffffffffffff16815260200190815260200160002060006002600088815260200190815260200160002054815260200190815260200160002060006101000a81548160ff02191690831515021790555060046000858152602001908152602001600020600081548092919061065690611fb9565b91905055508360026000868152602001908152602001600020547f23b2bfc0c368fdbec2cf6a0878f8f7ab7d497f92861fa232c0111ca69f63dc8260405160405180910390a350505050565b600160205281600052604060002081815481106106be57600080fd5b90600052602060002001600091509150505481565b806001151560008083815260200190815260200160002060030160019054906101000a900460ff1615151461070757600080fd5b816001600281111561071c5761071b612031565b5b60008083815260200190815260200160002060030160009054906101000a900460ff16600281111561075157610750612031565b5b1461075b57600080fd5b600080600085815260200190815260200160002060030160006101000a81548160ff0219169083600281111561079457610793612031565b5b02179055507f5a695f43d53bb74f4457f1a60951e2c514c6de79da9a8d8369848853d647cc6a836040516107c89190611d36565b60405180910390a1505050565b600084600060028111156107ec576107eb612031565b5b60008083815260200190815260200160002060030160009054906101000a900460ff16600281111561082157610820612031565b5b1461082b57600080fd5b60006007549050600060026000838152602001908152602001600020541461085257600080fd5b60016000888152602001908152602001600020819080600181540180825580915050600190039060005260206000200160009091909190915055866002600083815260200190815260200160002081905550600760008154809291906108b790611fb9565b919050555080877f313f81e8cc8fe5ab3d1facaeffd8e0d26068ff1776d23a4621a5bdb0c891c8178888886040516108f193929190611cc8565b60405180910390a38092505050949350505050565b6000816001151560008083815260200190815260200160002060030160019054906101000a900460ff1615151461093c57600080fd5b600160028111156109505761094f612031565b5b60008085815260200190815260200160002060030160009054906101000a900460ff16600281111561098557610984612031565b5b14915050919050565b60008060055490506040518060a00160405280828152602001858152602001848152602001600060028111156109c7576109c6612031565b5b815260200160011515815250600080838152602001908152602001600020600082015181600001556020820151816001019080519060200190610a0b92919061160d565b506040820151816002019080519060200190610a2892919061160d565b5060608201518160030160006101000a81548160ff02191690836002811115610a5457610a53612031565b5b021790555060808201518160030160016101000a81548160ff02191690831515021790555090505060056000815480929190610a8f90611fb9565b919050555060066000815480929190610aa790611fb9565b9190505550807f21579433a032855e20e8afc48e980ddae0b6285e4aa03370f03192be12bea28b8585604051610ade929190611c91565b60405180910390a28091505092915050565b806001151560008083815260200190815260200160002060030160019054906101000a900460ff16151514610b2457600080fd5b8160006002811115610b3957610b38612031565b5b60008083815260200190815260200160002060030160009054906101000a900460ff166002811115610b6e57610b6d612031565b5b14610b7857600080fd5b600160008085815260200190815260200160002060030160006101000a81548160ff02191690836002811115610bb157610bb0612031565b5b02179055507feabb282842a353a61f42a3352791a6bf8d0f0b5d6e9cec67e0a0e2c42f387b9b83604051610be59190611d36565b60405180910390a1505050565b60046020528060005260406000206000915090505481565b610c12611693565b81600280811115610c2657610c25612031565b5b60008083815260200190815260200160002060030160009054906101000a900460ff166002811115610c5b57610c5a612031565b5b1415610c6657600080fd5b6000808481526020019081526020016000206040518060a001604052908160008201548152602001600182018054610c9d90611f56565b80601f0160208091040260200160405190810160405280929190818152602001828054610cc990611f56565b8015610d165780601f10610ceb57610100808354040283529160200191610d16565b820191906000526020600020905b815481529060010190602001808311610cf957829003601f168201915b50505050508152602001600282018054610d2f90611f56565b80601f0160208091040260200160405190810160405280929190818152602001828054610d5b90611f56565b8015610da85780601f10610d7d57610100808354040283529160200191610da8565b820191906000526020600020905b815481529060010190602001808311610d8b57829003601f168201915b505050505081526020016003820160009054906101000a900460ff166002811115610dd657610dd5612031565b5b6002811115610de857610de7612031565b5b81526020016003820160019054906101000a900460ff161515151581525050915050919050565b6000816001151560008083815260200190815260200160002060030160019054906101000a900460ff16151514610e4557600080fd5b60006002811115610e5957610e58612031565b5b60008085815260200190815260200160002060030160009054906101000a900460ff166002811115610e8e57610e8d612031565b5b14915050919050565b806001151560008083815260200190815260200160002060030160019054906101000a900460ff16151514610ecb57600080fd5b81600280811115610edf57610ede612031565b5b60008083815260200190815260200160002060030160009054906101000a900460ff166002811115610f1457610f13612031565b5b14610f1e57600080fd5b600160008085815260200190815260200160002060030160006101000a81548160ff02191690836002811115610f5757610f56612031565b5b02179055507fe23a63f864ee1069bc665aa3ed0b1dccc848ab996543e77baed0f465e8145c6083604051610f8b9190611d36565b60405180910390a1505050565b6060600060065467ffffffffffffffff811115610fb857610fb76120be565b5b604051908082528060200260200182016040528015610ff157816020015b610fde611693565b815260200190600190039081610fd65790505b50905060005b6006548110156111d3576000808281526020019081526020016000206040518060a00160405290816000820154815260200160018201805461103890611f56565b80601f016020809104026020016040519081016040528092919081815260200182805461106490611f56565b80156110b15780601f10611086576101008083540402835291602001916110b1565b820191906000526020600020905b81548152906001019060200180831161109457829003601f168201915b505050505081526020016002820180546110ca90611f56565b80601f01602080910402602001604051908101604052809291908181526020018280546110f690611f56565b80156111435780601f1061111857610100808354040283529160200191611143565b820191906000526020600020905b81548152906001019060200180831161112657829003601f168201915b505050505081526020016003820160009054906101000a900460ff16600281111561117157611170612031565b5b600281111561118357611182612031565b5b81526020016003820160019054906101000a900460ff1615151515815250508282815181106111b5576111b461208f565b5b602002602001018190525080806111cb90611fb9565b915050610ff7565b508091505090565b60026020528060005260406000206000915090505481565b600060205280600052604060002060009150905080600001549080600101805461121c90611f56565b80601f016020809104026020016040519081016040528092919081815260200182805461124890611f56565b80156112955780601f1061126a57610100808354040283529160200191611295565b820191906000526020600020905b81548152906001019060200180831161127857829003601f168201915b5050505050908060020180546112aa90611f56565b80601f01602080910402602001604051908101604052809291908181526020018280546112d690611f56565b80156113235780601f106112f857610100808354040283529160200191611323565b820191906000526020600020905b81548152906001019060200180831161130657829003601f168201915b5050505050908060030160009054906101000a900460ff16908060030160019054906101000a900460ff16905085565b60055481565b60065481565b6000816001151560008083815260200190815260200160002060030160019054906101000a900460ff1615151461139557600080fd5b6002808111156113a8576113a7612031565b5b60008085815260200190815260200160002060030160009054906101000a900460ff1660028111156113dd576113dc612031565b5b14915050919050565b60606001600083815260200190815260200160002080548060200260200160405190810160405280929190818152602001828054801561144557602002820191906000526020600020905b815481526020019060010190808311611431575b50505050509050919050565b60036020528160005260406000206020528060005260406000206000915091509054906101000a900460ff1681565b60075481565b806001151560008083815260200190815260200160002060030160019054906101000a900460ff161515146114ba57600080fd5b816002808111156114ce576114cd612031565b5b60008083815260200190815260200160002060030160009054906101000a900460ff16600281111561150357611502612031565b5b141561150e57600080fd5b600260008085815260200190815260200160002060030160006101000a81548160ff0219169083600281111561154757611546612031565b5b02179055507fa589501e457bda1f31782af099f2695facb8e79d38d121802e6ac1c53237b8418360405161157b9190611d36565b60405180910390a1505050565b600060026000838152602001908152602001600020546002808111156115b1576115b0612031565b5b60008083815260200190815260200160002060030160009054906101000a900460ff1660028111156115e6576115e5612031565b5b14156115f157600080fd5b6004600084815260200190815260200160002054915050919050565b82805461161990611f56565b90600052602060002090601f01602090048101928261163b5760008555611682565b82601f1061165457805160ff1916838001178555611682565b82800160010185558215611682579182015b82811115611681578251825591602001919060010190611666565b5b50905061168f91906116d6565b5090565b6040518060a00160405280600081526020016060815260200160608152602001600060028111156116c7576116c6612031565b5b81526020016000151581525090565b5b808211156116ef5760008160009055506001016116d7565b5090565b600061170661170184611dd7565b611db2565b905082815260208101848484011115611722576117216120f2565b5b61172d848285611f14565b509392505050565b60008135905061174481612126565b92915050565b600082601f83011261175f5761175e6120ed565b5b813561176f8482602086016116f3565b91505092915050565b6000813590506117878161213d565b92915050565b600080604083850312156117a4576117a36120fc565b5b60006117b285828601611735565b92505060206117c385828601611778565b9150509250929050565b600080604083850312156117e4576117e36120fc565b5b600083013567ffffffffffffffff811115611802576118016120f7565b5b61180e8582860161174a565b925050602083013567ffffffffffffffff81111561182f5761182e6120f7565b5b61183b8582860161174a565b9150509250929050565b60006020828403121561185b5761185a6120fc565b5b600061186984828501611778565b91505092915050565b6000806000806080858703121561188c5761188b6120fc565b5b600061189a87828801611778565b945050602085013567ffffffffffffffff8111156118bb576118ba6120f7565b5b6118c78782880161174a565b935050604085013567ffffffffffffffff8111156118e8576118e76120f7565b5b6118f48782880161174a565b925050606085013567ffffffffffffffff811115611915576119146120f7565b5b6119218782880161174a565b91505092959194509250565b60008060408385031215611944576119436120fc565b5b600061195285828601611778565b925050602061196385828601611778565b9150509250929050565b60006119798383611b1a565b905092915050565b600061198d8383611c14565b60208301905092915050565b60006119a482611e28565b6119ae8185611e63565b9350836020820285016119c085611e08565b8060005b858110156119fc57848403895281516119dd858261196d565b94506119e883611e49565b925060208a019950506001810190506119c4565b50829750879550505050505092915050565b6000611a1982611e33565b611a238185611e74565b9350611a2e83611e18565b8060005b83811015611a5f578151611a468882611981565b9750611a5183611e56565b925050600181019050611a32565b5085935050505092915050565b611a7581611eb9565b82525050565b611a8481611eb9565b82525050565b611a9381611f02565b82525050565b611aa281611f02565b82525050565b6000611ab382611e3e565b611abd8185611e85565b9350611acd818560208601611f23565b611ad681612101565b840191505092915050565b6000611aec82611e3e565b611af68185611e96565b9350611b06818560208601611f23565b611b0f81612101565b840191505092915050565b600060a083016000830151611b326000860182611c14565b5060208301518482036020860152611b4a8282611aa8565b91505060408301518482036040860152611b648282611aa8565b9150506060830151611b796060860182611a8a565b506080830151611b8c6080860182611a6c565b508091505092915050565b600060a083016000830151611baf6000860182611c14565b5060208301518482036020860152611bc78282611aa8565b91505060408301518482036040860152611be18282611aa8565b9150506060830151611bf66060860182611a8a565b506080830151611c096080860182611a6c565b508091505092915050565b611c1d81611ef8565b82525050565b611c2c81611ef8565b82525050565b60006020820190508181036000830152611c4c8184611999565b905092915050565b60006020820190508181036000830152611c6e8184611a0e565b905092915050565b6000602082019050611c8b6000830184611a7b565b92915050565b60006040820190508181036000830152611cab8185611ae1565b90508181036020830152611cbf8184611ae1565b90509392505050565b60006060820190508181036000830152611ce28186611ae1565b90508181036020830152611cf68185611ae1565b90508181036040830152611d0a8184611ae1565b9050949350505050565b60006020820190508181036000830152611d2e8184611b97565b905092915050565b6000602082019050611d4b6000830184611c23565b92915050565b600060a082019050611d666000830188611c23565b8181036020830152611d788187611ae1565b90508181036040830152611d8c8186611ae1565b9050611d9b6060830185611a99565b611da86080830184611a7b565b9695505050505050565b6000611dbc611dcd565b9050611dc88282611f88565b919050565b6000604051905090565b600067ffffffffffffffff821115611df257611df16120be565b5b611dfb82612101565b9050602081019050919050565b6000819050602082019050919050565b6000819050602082019050919050565b600081519050919050565b600081519050919050565b600081519050919050565b6000602082019050919050565b6000602082019050919050565b600082825260208201905092915050565b600082825260208201905092915050565b600082825260208201905092915050565b600082825260208201905092915050565b6000611eb282611ed8565b9050919050565b60008115159050919050565b6000819050611ed382612112565b919050565b600073ffffffffffffffffffffffffffffffffffffffff82169050919050565b6000819050919050565b6000611f0d82611ec5565b9050919050565b82818337600083830152505050565b60005b83811015611f41578082015181840152602081019050611f26565b83811115611f50576000848401525b50505050565b60006002820490506001821680611f6e57607f821691505b60208210811415611f8257611f81612060565b5b50919050565b611f9182612101565b810181811067ffffffffffffffff82111715611fb057611faf6120be565b5b80604052505050565b6000611fc482611ef8565b91507fffffffffffffffffffffffffffffffffffffffffffffffffffffffffffffffff821415611ff757611ff6612002565b5b600182019050919050565b7f4e487b7100000000000000000000000000000000000000000000000000000000600052601160045260246000fd5b7f4e487b7100000000000000000000000000000000000000000000000000000000600052602160045260246000fd5b7f4e487b7100000000000000000000000000000000000000000000000000000000600052602260045260246000fd5b7f4e487b7100000000000000000000000000000000000000000000000000000000600052603260045260246000fd5b7f4e487b7100000000000000000000000000000000000000000000000000000000600052604160045260246000fd5b600080fd5b600080fd5b600080fd5b600080fd5b6000601f19601f8301169050919050565b6003811061212357612122612031565b5b50565b61212f81611ea7565b811461213a57600080fd5b50565b61214681611ef8565b811461215157600080fd5b5056fea2646970667358221220de0c3b462c6439aca72562e4c3e900f0f879c7ef9adf0256e94ed803e1c16e8c64736f6c63430008070033",
  "immutableReferences": {},
  "source": "// SPDX-License-Identifier: MIT\r\npragma solidity ^0.8.0;\r\n\r\ncontract Tracks {\r\n  mapping (uint  => Track) public tracks;\r\n  mapping (uint  => uint[]) public trackEntries; //trackId => entryId[]\r\n  mapping (uint  => uint) public entriesTrack; //entryId => trackId\r\n  mapping (address  => mapping (uint => bool)) public votesByAddress; //address => (trackId => bool)\r\n  mapping (uint  => uint) public votes; //entryId => Vote\r\n\r\n  uint public nextTrackId;\r\n  uint public trackCount;\r\n  uint public nextEntryId;\r\n\r\n  enum State {\r\n      TrackOpen,\r\n      TrackClosed,\r\n      TrackBlocked\r\n  }\r\n  struct Track {\r\n      uint  trackId;\r\n      string  name;\r\n      string  desc;\r\n      State state;\r\n      bool exists;\r\n  }\r\n\r\n  event TrackOpened(uint trackId);\r\n  event TrackClosed(uint trackId);\r\n  event TrackBlocked(uint trackId);\r\n  event TrackUnblocked(uint trackId);\r\n  event TrackCreated(uint indexed trackId, string name, string desc);\r\n  event EntryCreated(uint indexed trackId, uint indexed entryId, string name, string desc, string location);\r\n  event EntryVotedFor(uint indexed trackId, uint indexed entryId);\r\n\r\n  /**\r\n   * @dev XXX\r\n   * @param _trackId The id of the track\r\n   */\r\n\tmodifier checkTrackOpen(uint _trackId) {\r\n\t\trequire(tracks[_trackId].state == State.TrackOpen);\r\n    _;\r\n  }\r\n  \r\n\t/**\r\n   * @dev XXX\r\n   * @param _trackId The id of the track\r\n   */\r\n\tmodifier checkTrackClosed(uint _trackId) {\r\n\t\trequire(tracks[_trackId].state == State.TrackClosed);\r\n    _;\r\n  }\r\n  \r\n  /**\r\n   * @dev XXX\r\n   * @param _trackId The id of the track\r\n   */\r\n\tmodifier checkTrackBlocked(uint _trackId) {\r\n\t\trequire(tracks[_trackId].state == State.TrackBlocked);\r\n    _;\r\n  }\r\n  \r\n  /**\r\n   * @dev XXX\r\n   * @param _trackId The id of the track\r\n   */\r\n\tmodifier checkTrackUnblocked(uint _trackId) {\r\n\t\trequire(tracks[_trackId].state != State.TrackBlocked);\r\n    _;\r\n  }\r\n  \r\n  /**\r\n   * @dev XXX\r\n   * @param _trackId The id of the track\r\n   */\r\n\tmodifier checkTrackExists(uint _trackId) {\r\n\t\t\trequire(tracks[_trackId].exists == true);\r\n\t    _;\r\n\t  }\r\n\r\n\tmodifier hasNotVotedForTrack(address _addr, uint _entryId){\r\n\t    require(!votesByAddress[msg.sender][entriesTrack[_entryId]]);\r\n\t    _;\r\n\t}\r\n\t/**\r\n   * @dev XXX\r\n   */\r\n  constructor () {\r\n      uint trackId = addTrack(\"first_track\", \"This is the first track\");\r\n      addEntry(trackId, \"name\", \"description\", \"location\");\r\n  }\r\n\r\n\t/**\r\n   * @dev XXX\r\n   */\r\n  function getTracks() public view returns ( Track[] memory) {\r\n      Track[] memory _tracks = new Track[](trackCount);\r\n      for (uint i=0; i<trackCount; i++) {\r\n          _tracks[i] = tracks[i];\r\n      }\r\n      return _tracks;\r\n  }\r\n\r\n  /**\r\n   * @dev XXX\r\n   * @param _trackId The id of the track\r\n   */\r\n  function getTrack(uint _trackId) public view checkTrackUnblocked(_trackId) returns (Track memory) {\r\n      return tracks[_trackId];\r\n  }\r\n\t\r\n\t/**\r\n   * @dev XXX\r\n   * @param _entryId The id of the entry\r\n   */\r\n  function getVotes(uint _entryId) public view checkTrackUnblocked(entriesTrack[_entryId]) returns (uint) {\r\n      return votes[_entryId];\r\n  }\r\n\r\n  /**\r\n   * @dev XXX\r\n   * @param _trackId The id of the track\r\n   */\r\n  function getEntriesForTrack(uint _trackId) public view returns (uint[] memory){\r\n      return trackEntries[_trackId];\r\n  }\r\n\r\n\t/**\r\n   * @dev XXX\r\n   * @param _trackId The id of the track\r\n   */\r\n  function openTrack(uint _trackId) public checkTrackExists(_trackId) checkTrackClosed(_trackId) {\r\n      tracks[_trackId].state = State.TrackOpen;\r\n      emit TrackOpened(_trackId);\r\n  }\r\n\r\n\t/**\r\n   * @dev XXX\r\n   * @param _trackId The id of the track\r\n   */\r\n\tfunction closeTrack(uint _trackId) public checkTrackExists(_trackId) checkTrackOpen(_trackId) {\r\n      tracks[_trackId].state = State.TrackClosed;\r\n      emit TrackClosed(_trackId);\r\n  }\r\n\r\n\t/**\r\n   * @dev XXX\r\n   * @param _trackId The id of the track\r\n   */\r\n\tfunction blockTrack(uint _trackId) public checkTrackExists(_trackId) checkTrackUnblocked(_trackId) {\r\n      tracks[_trackId].state = State.TrackBlocked;\r\n      emit TrackBlocked(_trackId);\r\n  }\r\n\r\n  /**\r\n   * @dev XXX\r\n   * @param _trackId The id of the track\r\n   */\r\n  function unblockTrack(uint _trackId) public checkTrackExists(_trackId) checkTrackBlocked(_trackId) {\r\n      tracks[_trackId].state = State.TrackClosed;\r\n      emit TrackUnblocked(_trackId);\r\n  }\r\n\r\n\t/**\r\n   * @dev XXX\r\n   * @param _trackId The id of the track\r\n   */\r\n  function isTrackOpen(uint _trackId) public view checkTrackExists(_trackId) returns (bool){\r\n      return (tracks[_trackId].state == State.TrackOpen);\r\n  }\r\n  /**\r\n   * @dev XXX\r\n   * @param _trackId The id of the track\r\n   */\r\n  function isTrackClosed(uint _trackId) public view checkTrackExists(_trackId) returns (bool){\r\n      return (tracks[_trackId].state == State.TrackClosed);\r\n  }\r\n  /**\r\n   * @dev XXX\r\n   * @param _trackId The id of the track\r\n   */\r\n  function isTrackBlocked(uint _trackId) public view checkTrackExists(_trackId) returns (bool){\r\n      return (tracks[_trackId].state == State.TrackBlocked);\r\n  }\r\n\r\n\t/**\r\n   * @dev XXX\r\n   * @param _entryId The id of the entry\r\n   */\r\n  function vote(uint _entryId) public checkTrackOpen(entriesTrack[_entryId]) hasNotVotedForTrack(msg.sender,entriesTrack[_entryId]){\r\n    votesByAddress[msg.sender][entriesTrack[_entryId]] = true;\r\n    votes[_entryId]++;\r\n \t\temit EntryVotedFor(entriesTrack[_entryId], _entryId);\r\n  }\r\n\r\n  /**\r\n   * @dev XXX\r\n   * @param _trackId The id of the track\r\n   */\r\n  function addEntry(uint _trackId, string memory _name, string memory _desc, string memory _location) public checkTrackOpen(_trackId) returns (uint) {\r\n    uint entryId = nextEntryId;\r\n    require(entriesTrack[entryId] == 0);\r\n    trackEntries[_trackId].push(entryId);\r\n    entriesTrack[entryId] = _trackId;\r\n    nextEntryId++;\r\n    emit EntryCreated(_trackId, entryId, _name, _desc, _location);\r\n    return entryId;\r\n  }\r\n\r\n\t/**\r\n   * @dev XXX\r\n   * @param _name XXX\r\n   * @param _desc XXX\r\n   */\r\n  function addTrack(string memory _name, string memory _desc) public returns (uint) {\r\n    uint trackId = nextTrackId;\r\n    tracks[trackId] = Track({\r\n      trackId: trackId,\r\n      name: _name,\r\n      desc: _desc,\r\n      state: State.TrackOpen,\r\n      exists: true\r\n    });\r\n    nextTrackId++;\r\n    trackCount++;\r\n    emit TrackCreated(trackId, _name, _desc);\r\n    return trackId;\r\n   }\r\n}\r\n\r\n\r\n",
  "sourcePath": "D:\\projects\\blockchain-developer-bootcamp-final-project\\tracks\\contracts\\Tracks.sol",
  "compiler": {
    "name": "solc",
    "version": "0.8.7+commit.e28d00a7.Emscripten.clang"
  },
  "schemaVersion": "3.4.3",
  "updatedAt": "2021-09-30T11:53:11.487Z",
  "networkType": "ethereum",
  "devdoc": {
    "kind": "dev",
    "methods": {
      "addEntry(uint256,string,string,string)": {
        "details": "XXX",
        "params": {
          "_trackId": "The id of the track"
        }
      },
      "addTrack(string,string)": {
        "details": "XXX",
        "params": {
          "_desc": "XXX",
          "_name": "XXX"
        }
      },
      "blockTrack(uint256)": {
        "details": "XXX",
        "params": {
          "_trackId": "The id of the track"
        }
      },
      "closeTrack(uint256)": {
        "details": "XXX",
        "params": {
          "_trackId": "The id of the track"
        }
      },
      "constructor": {
        "details": "XXX"
      },
      "getEntriesForTrack(uint256)": {
        "details": "XXX",
        "params": {
          "_trackId": "The id of the track"
        }
      },
      "getTrack(uint256)": {
        "details": "XXX",
        "params": {
          "_trackId": "The id of the track"
        }
      },
      "getTracks()": {
        "details": "XXX"
      },
      "getVotes(uint256)": {
        "details": "XXX",
        "params": {
          "_entryId": "The id of the entry"
        }
      },
      "isTrackBlocked(uint256)": {
        "details": "XXX",
        "params": {
          "_trackId": "The id of the track"
        }
      },
      "isTrackClosed(uint256)": {
        "details": "XXX",
        "params": {
          "_trackId": "The id of the track"
        }
      },
      "isTrackOpen(uint256)": {
        "details": "XXX",
        "params": {
          "_trackId": "The id of the track"
        }
      },
      "openTrack(uint256)": {
        "details": "XXX",
        "params": {
          "_trackId": "The id of the track"
        }
      },
      "unblockTrack(uint256)": {
        "details": "XXX",
        "params": {
          "_trackId": "The id of the track"
        }
      },
      "vote(uint256)": {
        "details": "XXX",
        "params": {
          "_entryId": "The id of the entry"
        }
      }
    },
    "version": 1
  },
  "userdoc": {
    "kind": "user",
    "methods": {},
    "version": 1
  }
}