{
  "contractName": "Tracks",
  "abi": [
    {
      "inputs": [],
      "stateMutability": "nonpayable",
      "type": "constructor"
    },
    {
      "anonymous": false,
      "inputs": [
        {
          "indexed": true,
          "internalType": "uint256",
          "name": "trackId",
          "type": "uint256"
        },
        {
          "indexed": true,
          "internalType": "uint256",
          "name": "entryId",
          "type": "uint256"
        },
        {
          "indexed": false,
          "internalType": "string",
          "name": "name",
          "type": "string"
        },
        {
          "indexed": false,
          "internalType": "string",
          "name": "desc",
          "type": "string"
        },
        {
          "indexed": false,
          "internalType": "string",
          "name": "location",
          "type": "string"
        }
      ],
      "name": "EntryCreated",
      "type": "event"
    },
    {
      "anonymous": false,
      "inputs": [
        {
          "indexed": true,
          "internalType": "uint256",
          "name": "trackId",
          "type": "uint256"
        },
        {
          "indexed": true,
          "internalType": "uint256",
          "name": "entryId",
          "type": "uint256"
        }
      ],
      "name": "EntryVotedFor",
      "type": "event"
    },
    {
      "anonymous": false,
      "inputs": [
        {
          "indexed": true,
          "internalType": "address",
          "name": "previousOwner",
          "type": "address"
        },
        {
          "indexed": true,
          "internalType": "address",
          "name": "newOwner",
          "type": "address"
        }
      ],
      "name": "OwnershipTransferred",
      "type": "event"
    },
    {
      "anonymous": false,
      "inputs": [
        {
          "indexed": false,
          "internalType": "address",
          "name": "account",
          "type": "address"
        }
      ],
      "name": "Paused",
      "type": "event"
    },
    {
      "anonymous": false,
      "inputs": [
        {
          "indexed": false,
          "internalType": "uint256",
          "name": "trackId",
          "type": "uint256"
        }
      ],
      "name": "TrackBlocked",
      "type": "event"
    },
    {
      "anonymous": false,
      "inputs": [
        {
          "indexed": false,
          "internalType": "uint256",
          "name": "trackId",
          "type": "uint256"
        }
      ],
      "name": "TrackClosed",
      "type": "event"
    },
    {
      "anonymous": false,
      "inputs": [
        {
          "indexed": true,
          "internalType": "uint256",
          "name": "trackId",
          "type": "uint256"
        },
        {
          "indexed": false,
          "internalType": "string",
          "name": "name",
          "type": "string"
        },
        {
          "indexed": false,
          "internalType": "string",
          "name": "desc",
          "type": "string"
        }
      ],
      "name": "TrackCreated",
      "type": "event"
    },
    {
      "anonymous": false,
      "inputs": [
        {
          "indexed": false,
          "internalType": "uint256",
          "name": "trackId",
          "type": "uint256"
        }
      ],
      "name": "TrackOpened",
      "type": "event"
    },
    {
      "anonymous": false,
      "inputs": [
        {
          "indexed": false,
          "internalType": "uint256",
          "name": "trackId",
          "type": "uint256"
        }
      ],
      "name": "TrackUnblocked",
      "type": "event"
    },
    {
      "anonymous": false,
      "inputs": [
        {
          "indexed": false,
          "internalType": "address",
          "name": "account",
          "type": "address"
        }
      ],
      "name": "Unpaused",
      "type": "event"
    },
    {
      "inputs": [],
      "name": "allTracksState",
      "outputs": [
        {
          "internalType": "enum Tracks.State",
          "name": "",
          "type": "uint8"
        }
      ],
      "stateMutability": "view",
      "type": "function"
    },
    {
      "inputs": [],
      "name": "allVotesState",
      "outputs": [
        {
          "internalType": "enum Tracks.State",
          "name": "",
          "type": "uint8"
        }
      ],
      "stateMutability": "view",
      "type": "function"
    },
    {
      "inputs": [
        {
          "internalType": "address",
          "name": "",
          "type": "address"
        }
      ],
      "name": "bannedUsers",
      "outputs": [
        {
          "internalType": "bool",
          "name": "",
          "type": "bool"
        }
      ],
      "stateMutability": "view",
      "type": "function"
    },
    {
      "inputs": [
        {
          "internalType": "address",
          "name": "",
          "type": "address"
        }
      ],
      "name": "donations",
      "outputs": [
        {
          "internalType": "uint256",
          "name": "",
          "type": "uint256"
        }
      ],
      "stateMutability": "view",
      "type": "function"
    },
    {
      "inputs": [
        {
          "internalType": "uint256",
          "name": "",
          "type": "uint256"
        }
      ],
      "name": "entriesTrack",
      "outputs": [
        {
          "internalType": "uint256",
          "name": "",
          "type": "uint256"
        }
      ],
      "stateMutability": "view",
      "type": "function"
    },
    {
      "inputs": [],
      "name": "entryCreationCooldownEnabled",
      "outputs": [
        {
          "internalType": "bool",
          "name": "",
          "type": "bool"
        }
      ],
      "stateMutability": "view",
      "type": "function"
    },
    {
      "inputs": [],
      "name": "entryEventCooldownPeriod",
      "outputs": [
        {
          "internalType": "uint256",
          "name": "",
          "type": "uint256"
        }
      ],
      "stateMutability": "view",
      "type": "function"
    },
    {
      "inputs": [
        {
          "internalType": "address",
          "name": "",
          "type": "address"
        }
      ],
      "name": "entryEventsByUser",
      "outputs": [
        {
          "internalType": "uint256",
          "name": "time",
          "type": "uint256"
        },
        {
          "internalType": "uint256",
          "name": "eventId",
          "type": "uint256"
        }
      ],
      "stateMutability": "view",
      "type": "function"
    },
    {
      "inputs": [
        {
          "internalType": "address",
          "name": "",
          "type": "address"
        },
        {
          "internalType": "uint256",
          "name": "",
          "type": "uint256"
        }
      ],
      "name": "lastVoteTime",
      "outputs": [
        {
          "internalType": "uint256",
          "name": "",
          "type": "uint256"
        }
      ],
      "stateMutability": "view",
      "type": "function"
    },
    {
      "inputs": [],
      "name": "maxTrackCount",
      "outputs": [
        {
          "internalType": "uint256",
          "name": "",
          "type": "uint256"
        }
      ],
      "stateMutability": "view",
      "type": "function"
    },
    {
      "inputs": [],
      "name": "minDonation",
      "outputs": [
        {
          "internalType": "uint256",
          "name": "",
          "type": "uint256"
        }
      ],
      "stateMutability": "view",
      "type": "function"
    },
    {
      "inputs": [],
      "name": "nextEntryId",
      "outputs": [
        {
          "internalType": "uint256",
          "name": "",
          "type": "uint256"
        }
      ],
      "stateMutability": "view",
      "type": "function"
    },
    {
      "inputs": [],
      "name": "nextTrackId",
      "outputs": [
        {
          "internalType": "uint256",
          "name": "",
          "type": "uint256"
        }
      ],
      "stateMutability": "view",
      "type": "function"
    },
    {
      "inputs": [],
      "name": "owner",
      "outputs": [
        {
          "internalType": "address",
          "name": "",
          "type": "address"
        }
      ],
      "stateMutability": "view",
      "type": "function"
    },
    {
      "inputs": [],
      "name": "paused",
      "outputs": [
        {
          "internalType": "bool",
          "name": "",
          "type": "bool"
        }
      ],
      "stateMutability": "view",
      "type": "function"
    },
    {
      "inputs": [],
      "name": "renounceOwnership",
      "outputs": [],
      "stateMutability": "nonpayable",
      "type": "function"
    },
    {
      "inputs": [],
      "name": "trackCount",
      "outputs": [
        {
          "internalType": "uint256",
          "name": "",
          "type": "uint256"
        }
      ],
      "stateMutability": "view",
      "type": "function"
    },
    {
      "inputs": [],
      "name": "trackCreationCooldownEnabled",
      "outputs": [
        {
          "internalType": "bool",
          "name": "",
          "type": "bool"
        }
      ],
      "stateMutability": "view",
      "type": "function"
    },
    {
      "inputs": [
        {
          "internalType": "uint256",
          "name": "",
          "type": "uint256"
        },
        {
          "internalType": "uint256",
          "name": "",
          "type": "uint256"
        }
      ],
      "name": "trackEntries",
      "outputs": [
        {
          "internalType": "uint256",
          "name": "",
          "type": "uint256"
        }
      ],
      "stateMutability": "view",
      "type": "function"
    },
    {
      "inputs": [],
      "name": "trackEventCooldownPeriod",
      "outputs": [
        {
          "internalType": "uint256",
          "name": "",
          "type": "uint256"
        }
      ],
      "stateMutability": "view",
      "type": "function"
    },
    {
      "inputs": [
        {
          "internalType": "address",
          "name": "",
          "type": "address"
        }
      ],
      "name": "trackEventsByUser",
      "outputs": [
        {
          "internalType": "uint256",
          "name": "time",
          "type": "uint256"
        },
        {
          "internalType": "uint256",
          "name": "trackId",
          "type": "uint256"
        }
      ],
      "stateMutability": "view",
      "type": "function"
    },
    {
      "inputs": [
        {
          "internalType": "uint256",
          "name": "",
          "type": "uint256"
        }
      ],
      "name": "trackOwners",
      "outputs": [
        {
          "internalType": "address",
          "name": "",
          "type": "address"
        }
      ],
      "stateMutability": "view",
      "type": "function"
    },
    {
      "inputs": [
        {
          "internalType": "uint256",
          "name": "",
          "type": "uint256"
        }
      ],
      "name": "tracks",
      "outputs": [
        {
          "internalType": "uint256",
          "name": "trackId",
          "type": "uint256"
        },
        {
          "internalType": "string",
          "name": "name",
          "type": "string"
        },
        {
          "internalType": "string",
          "name": "desc",
          "type": "string"
        },
        {
          "internalType": "enum Tracks.State",
          "name": "state",
          "type": "uint8"
        },
        {
          "internalType": "bool",
          "name": "exists",
          "type": "bool"
        },
        {
          "internalType": "bool",
          "name": "visible",
          "type": "bool"
        },
        {
          "internalType": "bool",
          "name": "pinned",
          "type": "bool"
        }
      ],
      "stateMutability": "view",
      "type": "function"
    },
    {
      "inputs": [
        {
          "internalType": "address",
          "name": "newOwner",
          "type": "address"
        }
      ],
      "name": "transferOwnership",
      "outputs": [],
      "stateMutability": "nonpayable",
      "type": "function"
    },
    {
      "inputs": [],
      "name": "voteCooldownPeriod",
      "outputs": [
        {
          "internalType": "uint256",
          "name": "",
          "type": "uint256"
        }
      ],
      "stateMutability": "view",
      "type": "function"
    },
    {
      "inputs": [
        {
          "internalType": "address",
          "name": "",
          "type": "address"
        },
        {
          "internalType": "uint256",
          "name": "",
          "type": "uint256"
        }
      ],
      "name": "votesByAddress",
      "outputs": [
        {
          "internalType": "bool",
          "name": "",
          "type": "bool"
        }
      ],
      "stateMutability": "view",
      "type": "function"
    },
    {
      "inputs": [
        {
          "internalType": "uint256",
          "name": "",
          "type": "uint256"
        }
      ],
      "name": "votesByTrack",
      "outputs": [
        {
          "internalType": "uint256",
          "name": "",
          "type": "uint256"
        }
      ],
      "stateMutability": "view",
      "type": "function"
    },
    {
      "inputs": [],
      "name": "votingCooldownEnabled",
      "outputs": [
        {
          "internalType": "bool",
          "name": "",
          "type": "bool"
        }
      ],
      "stateMutability": "view",
      "type": "function"
    },
    {
      "inputs": [],
      "name": "getTracks",
      "outputs": [
        {
          "components": [
            {
              "internalType": "uint256",
              "name": "trackId",
              "type": "uint256"
            },
            {
              "internalType": "string",
              "name": "name",
              "type": "string"
            },
            {
              "internalType": "string",
              "name": "desc",
              "type": "string"
            },
            {
              "internalType": "enum Tracks.State",
              "name": "state",
              "type": "uint8"
            },
            {
              "internalType": "bool",
              "name": "exists",
              "type": "bool"
            },
            {
              "internalType": "bool",
              "name": "visible",
              "type": "bool"
            },
            {
              "internalType": "bool",
              "name": "pinned",
              "type": "bool"
            }
          ],
          "internalType": "struct Tracks.Track[]",
          "name": "",
          "type": "tuple[]"
        }
      ],
      "stateMutability": "view",
      "type": "function"
    },
    {
      "inputs": [
        {
          "internalType": "uint256",
          "name": "_trackId",
          "type": "uint256"
        }
      ],
      "name": "getTrack",
      "outputs": [
        {
          "components": [
            {
              "internalType": "uint256",
              "name": "trackId",
              "type": "uint256"
            },
            {
              "internalType": "string",
              "name": "name",
              "type": "string"
            },
            {
              "internalType": "string",
              "name": "desc",
              "type": "string"
            },
            {
              "internalType": "enum Tracks.State",
              "name": "state",
              "type": "uint8"
            },
            {
              "internalType": "bool",
              "name": "exists",
              "type": "bool"
            },
            {
              "internalType": "bool",
              "name": "visible",
              "type": "bool"
            },
            {
              "internalType": "bool",
              "name": "pinned",
              "type": "bool"
            }
          ],
          "internalType": "struct Tracks.Track",
          "name": "",
          "type": "tuple"
        }
      ],
      "stateMutability": "view",
      "type": "function"
    },
    {
      "inputs": [
        {
          "internalType": "uint256",
          "name": "_trackId",
          "type": "uint256"
        }
      ],
      "name": "getEntriesForTrack",
      "outputs": [
        {
          "internalType": "uint256[]",
          "name": "",
          "type": "uint256[]"
        }
      ],
      "stateMutability": "view",
      "type": "function"
    },
    {
      "inputs": [
        {
          "internalType": "uint256",
          "name": "_trackId",
          "type": "uint256"
        }
      ],
      "name": "openTrack",
      "outputs": [],
      "stateMutability": "nonpayable",
      "type": "function"
    },
    {
      "inputs": [
        {
          "internalType": "uint256",
          "name": "_trackId",
          "type": "uint256"
        }
      ],
      "name": "closeTrack",
      "outputs": [],
      "stateMutability": "nonpayable",
      "type": "function"
    },
    {
      "inputs": [
        {
          "internalType": "uint256",
          "name": "_trackId",
          "type": "uint256"
        }
      ],
      "name": "blockTrack",
      "outputs": [],
      "stateMutability": "nonpayable",
      "type": "function"
    },
    {
      "inputs": [
        {
          "internalType": "uint256",
          "name": "_trackId",
          "type": "uint256"
        }
      ],
      "name": "unblockTrack",
      "outputs": [],
      "stateMutability": "nonpayable",
      "type": "function"
    },
    {
      "inputs": [
        {
          "internalType": "uint256",
          "name": "_trackId",
          "type": "uint256"
        }
      ],
      "name": "getTrackState",
      "outputs": [
        {
          "internalType": "string",
          "name": "",
          "type": "string"
        }
      ],
      "stateMutability": "view",
      "type": "function"
    },
    {
      "inputs": [
        {
          "internalType": "uint256",
          "name": "_trackId",
          "type": "uint256"
        }
      ],
      "name": "isTrackOpen",
      "outputs": [
        {
          "internalType": "bool",
          "name": "",
          "type": "bool"
        }
      ],
      "stateMutability": "view",
      "type": "function"
    },
    {
      "inputs": [
        {
          "internalType": "uint256",
          "name": "_trackId",
          "type": "uint256"
        }
      ],
      "name": "isTrackClosed",
      "outputs": [
        {
          "internalType": "bool",
          "name": "",
          "type": "bool"
        }
      ],
      "stateMutability": "view",
      "type": "function"
    },
    {
      "inputs": [
        {
          "internalType": "uint256",
          "name": "_trackId",
          "type": "uint256"
        }
      ],
      "name": "isTrackBlocked",
      "outputs": [
        {
          "internalType": "bool",
          "name": "",
          "type": "bool"
        }
      ],
      "stateMutability": "view",
      "type": "function"
    },
    {
      "inputs": [
        {
          "internalType": "uint256",
          "name": "_entryId",
          "type": "uint256"
        }
      ],
      "name": "vote",
      "outputs": [],
      "stateMutability": "nonpayable",
      "type": "function"
    },
    {
      "inputs": [
        {
          "internalType": "uint256",
          "name": "_trackId",
          "type": "uint256"
        },
        {
          "internalType": "string",
          "name": "_name",
          "type": "string"
        },
        {
          "internalType": "string",
          "name": "_desc",
          "type": "string"
        },
        {
          "internalType": "string",
          "name": "_location",
          "type": "string"
        }
      ],
      "name": "addEntry",
      "outputs": [
        {
          "internalType": "uint256",
          "name": "",
          "type": "uint256"
        }
      ],
      "stateMutability": "nonpayable",
      "type": "function"
    },
    {
      "inputs": [
        {
          "internalType": "string",
          "name": "_name",
          "type": "string"
        },
        {
          "internalType": "string",
          "name": "_desc",
          "type": "string"
        }
      ],
      "name": "addTrack",
      "outputs": [
        {
          "internalType": "uint256",
          "name": "",
          "type": "uint256"
        }
      ],
      "stateMutability": "nonpayable",
      "type": "function"
    },
    {
      "inputs": [
        {
          "internalType": "bool",
          "name": "enable",
          "type": "bool"
        }
      ],
      "name": "disableAllTracks",
      "outputs": [],
      "stateMutability": "nonpayable",
      "type": "function"
    },
    {
      "inputs": [
        {
          "internalType": "bool",
          "name": "enable",
          "type": "bool"
        }
      ],
      "name": "disableAllVoting",
      "outputs": [],
      "stateMutability": "nonpayable",
      "type": "function"
    },
    {
      "inputs": [
        {
          "internalType": "address",
          "name": "addr",
          "type": "address"
        },
        {
          "internalType": "bool",
          "name": "banned",
          "type": "bool"
        }
      ],
      "name": "banUser",
      "outputs": [],
      "stateMutability": "nonpayable",
      "type": "function"
    },
    {
      "inputs": [
        {
          "internalType": "address",
          "name": "addr",
          "type": "address"
        }
      ],
      "name": "isUserBanned",
      "outputs": [
        {
          "internalType": "bool",
          "name": "",
          "type": "bool"
        }
      ],
      "stateMutability": "view",
      "type": "function"
    },
    {
      "inputs": [],
      "name": "isSenderInTrackCreationCooldown",
      "outputs": [
        {
          "internalType": "bool",
          "name": "",
          "type": "bool"
        }
      ],
      "stateMutability": "view",
      "type": "function"
    },
    {
      "inputs": [],
      "name": "isSenderInEntryCreationCooldown",
      "outputs": [
        {
          "internalType": "bool",
          "name": "",
          "type": "bool"
        }
      ],
      "stateMutability": "view",
      "type": "function"
    },
    {
      "inputs": [
        {
          "internalType": "uint256",
          "name": "trackId",
          "type": "uint256"
        }
      ],
      "name": "isSenderInVotingCooldown",
      "outputs": [
        {
          "internalType": "bool",
          "name": "",
          "type": "bool"
        }
      ],
      "stateMutability": "view",
      "type": "function"
    },
    {
      "inputs": [
        {
          "internalType": "bool",
          "name": "enable",
          "type": "bool"
        }
      ],
      "name": "enableCooldowns",
      "outputs": [],
      "stateMutability": "nonpayable",
      "type": "function"
    },
    {
      "inputs": [
        {
          "internalType": "uint256",
          "name": "_maxCount",
          "type": "uint256"
        }
      ],
      "name": "setMaxTrackCount",
      "outputs": [],
      "stateMutability": "nonpayable",
      "type": "function"
    },
    {
      "inputs": [
        {
          "internalType": "uint256",
          "name": "_minDonation",
          "type": "uint256"
        }
      ],
      "name": "setMinDonation",
      "outputs": [],
      "stateMutability": "nonpayable",
      "type": "function"
    },
    {
      "inputs": [
        {
          "internalType": "uint256",
          "name": "_donation",
          "type": "uint256"
        }
      ],
      "name": "donateToContractOwner",
      "outputs": [],
      "stateMutability": "payable",
      "type": "function"
    },
    {
      "inputs": [
        {
          "internalType": "uint256",
          "name": "_trackId",
          "type": "uint256"
        },
        {
          "internalType": "uint256",
          "name": "_donation",
          "type": "uint256"
        }
      ],
      "name": "donateToTrackOwner",
      "outputs": [],
      "stateMutability": "payable",
      "type": "function"
    },
    {
      "inputs": [],
      "name": "collectDonations",
      "outputs": [],
      "stateMutability": "payable",
      "type": "function"
    }
  ],
  "bytecode": "0x60806040523480156200001157600080fd5b5062000032620000266200011260201b60201c565b6200011a60201b60201c565b60008060146101000a81548160ff021916908315150217905550603c601181905550603c601281905550603c6013819055506000601460006101000a81548160ff021916908360028111156200008d576200008c62001712565b5b02179055506000601460016101000a81548160ff02191690836002811115620000bb57620000ba62001712565b5b0217905550620000d26001620001de60201b60201c565b620000e2620002be60201b60201c565b620000f56103e8620003e160201b60201c565b6200010c6509184e72a0006200047a60201b60201c565b62001961565b600033905090565b60008060009054906101000a900473ffffffffffffffffffffffffffffffffffffffff169050816000806101000a81548173ffffffffffffffffffffffffffffffffffffffff021916908373ffffffffffffffffffffffffffffffffffffffff1602179055508173ffffffffffffffffffffffffffffffffffffffff168173ffffffffffffffffffffffffffffffffffffffff167f8be0079c531659141344cd1fd0a4f28419497f9722a3daafe3b4186f6b6457e060405160405180910390a35050565b620001ee6200011260201b60201c565b73ffffffffffffffffffffffffffffffffffffffff16620002146200053460201b60201c565b73ffffffffffffffffffffffffffffffffffffffff16146200026d576040517f08c379a00000000000000000000000000000000000000000000000000000000081526004016200026490620014df565b60405180910390fd5b80601460026101000a81548160ff02191690831515021790555080601460036101000a81548160ff02191690831515021790555080601460046101000a81548160ff02191690831515021790555050565b6000620003206040518060400160405280600481526020017f48656c70000000000000000000000000000000000000000000000000000000008152506040518060600160405280602981526020016200728f602991396200055d60201b60201c565b90506200039d816040518060400160405280600881526020017f486f6d6570616765000000000000000000000000000000000000000000000000815250604051806060016040528060248152602001620072b8602491396040518060800160405280604a8152602001620072dc604a913962000a8460201b60201c565b5060016004600083815260200190815260200160002060030160036101000a81548160ff021916908315150217905550620003de8162000f5060201b60201c565b50565b620003f16200011260201b60201c565b73ffffffffffffffffffffffffffffffffffffffff16620004176200053460201b60201c565b73ffffffffffffffffffffffffffffffffffffffff161462000470576040517f08c379a00000000000000000000000000000000000000000000000000000000081526004016200046790620014df565b60405180910390fd5b8060038190555050565b6200048a6200011260201b60201c565b73ffffffffffffffffffffffffffffffffffffffff16620004b06200053460201b60201c565b73ffffffffffffffffffffffffffffffffffffffff161462000509576040517f08c379a00000000000000000000000000000000000000000000000000000000081526004016200050090620014df565b60405180910390fd5b60008111801562000520575066038d7ea4c6800081105b6200052a57600080fd5b8060028190555050565b60008060009054906101000a900473ffffffffffffffffffffffffffffffffffffffff16905090565b600060028081111562000575576200057462001712565b5b601460009054906101000a900460ff1660028111156200059a576200059962001712565b5b1415620005de576040517f08c379a0000000000000000000000000000000000000000000000000000000008152600401620005d59062001523565b60405180910390fd5b33601460029054906101000a900460ff161580620006365750620006076200053460201b60201c565b73ffffffffffffffffffffffffffffffffffffffff168173ffffffffffffffffffffffffffffffffffffffff16145b806200068457506000600960008373ffffffffffffffffffffffffffffffffffffffff1673ffffffffffffffffffffffffffffffffffffffff16815260200190815260200160002060000154145b80620006e0575042601354600960008473ffffffffffffffffffffffffffffffffffffffff1673ffffffffffffffffffffffffffffffffffffffff16815260200190815260200160002060000154620006de9190620015c2565b115b62000722576040517f08c379a0000000000000000000000000000000000000000000000000000000008152600401620007199062001545565b60405180910390fd5b33620007336200053460201b60201c565b73ffffffffffffffffffffffffffffffffffffffff168173ffffffffffffffffffffffffffffffffffffffff16141580620007bf575060011515600d60008373ffffffffffffffffffffffffffffffffffffffff1673ffffffffffffffffffffffffffffffffffffffff16815260200190815260200160002060009054906101000a900460ff16151514155b62000801576040517f08c379a0000000000000000000000000000000000000000000000000000000008152600401620007f89062001501565b60405180910390fd5b6000600e5490506040518060e00160405280828152602001878152602001868152602001600060028111156200083c576200083b62001712565b5b8152602001600115158152602001600115158152602001600015158152506004600083815260200190815260200160002060008201518160000155602082015181600101908051906020019062000895929190620011b2565b506040820151816002019080519060200190620008b4929190620011b2565b5060608201518160030160006101000a81548160ff02191690836002811115620008e357620008e262001712565b5b021790555060808201518160030160016101000a81548160ff02191690831515021790555060a08201518160030160026101000a81548160ff02191690831515021790555060c08201518160030160036101000a81548160ff021916908315150217905550905050604051806040016040528042815260200182815250600960003373ffffffffffffffffffffffffffffffffffffffff1673ffffffffffffffffffffffffffffffffffffffff1681526020019081526020016000206000820151816000015560208201518160010155905050336007600083815260200190815260200160002060006101000a81548173ffffffffffffffffffffffffffffffffffffffff021916908373ffffffffffffffffffffffffffffffffffffffff160217905550600e600081548092919062000a1d9062001695565b9190505550600f600081548092919062000a379062001695565b9190505550807f21579433a032855e20e8afc48e980ddae0b6285e4aa03370f03192be12bea28b878760405162000a70929190620013ec565b60405180910390a280935050505092915050565b600060028081111562000a9c5762000a9b62001712565b5b601460009054906101000a900460ff16600281111562000ac15762000ac062001712565b5b141562000b05576040517f08c379a000000000000000000000000000000000000000000000000000000000815260040162000afc9062001523565b60405180910390fd5b3362000b166200053460201b60201c565b73ffffffffffffffffffffffffffffffffffffffff168173ffffffffffffffffffffffffffffffffffffffff1614158062000ba2575060011515600d60008373ffffffffffffffffffffffffffffffffffffffff1673ffffffffffffffffffffffffffffffffffffffff16815260200190815260200160002060009054906101000a900460ff16151514155b62000be4576040517f08c379a000000000000000000000000000000000000000000000000000000000815260040162000bdb9062001501565b60405180910390fd5b33601460049054906101000a900460ff16158062000c3c575062000c0d6200053460201b60201c565b73ffffffffffffffffffffffffffffffffffffffff168173ffffffffffffffffffffffffffffffffffffffff16145b8062000c8a57506000600a60008373ffffffffffffffffffffffffffffffffffffffff1673ffffffffffffffffffffffffffffffffffffffff16815260200190815260200160002060000154145b8062000ce6575042601254600a60008473ffffffffffffffffffffffffffffffffffffffff1673ffffffffffffffffffffffffffffffffffffffff1681526020019081526020016000206000015462000ce49190620015c2565b115b62000d28576040517f08c379a000000000000000000000000000000000000000000000000000000000815260040162000d1f906200149b565b60405180910390fd5b866000600281111562000d405762000d3f62001712565b5b6004600083815260200190815260200160002060030160009054906101000a900460ff16600281111562000d795762000d7862001712565b5b1462000d8457600080fd5b6000600281111562000d9b5762000d9a62001712565b5b601460009054906101000a900460ff16600281111562000dc05762000dbf62001712565b5b1462000e03576040517f08c379a000000000000000000000000000000000000000000000000000000000815260040162000dfa9062001479565b60405180910390fd5b60006010549050600060066000838152602001908152602001600020541462000e2b57600080fd5b600560008a8152602001908152602001600020819080600181540180825580915050600190039060005260206000200160009091909190915055886006600083815260200190815260200160002081905550604051806040016040528042815260200182815250600a60003373ffffffffffffffffffffffffffffffffffffffff1673ffffffffffffffffffffffffffffffffffffffff16815260200190815260200160002060008201518160000155602082015181600101559050506010600081548092919062000efd9062001695565b919050555080897f313f81e8cc8fe5ab3d1facaeffd8e0d26068ff1776d23a4621a5bdb0c891c8178a8a8a60405162000f399392919062001427565b60405180910390a380945050505050949350505050565b80600115156004600083815260200190815260200160002060030160019054906101000a900460ff1615151462000fbe576040517f08c379a000000000000000000000000000000000000000000000000000000000815260040162000fb59062001567565b60405180910390fd5b8160028081111562000fd55762000fd462001712565b5b6004600083815260200190815260200160002060030160009054906101000a900460ff1660028111156200100e576200100d62001712565b5b141562001052576040517f08c379a00000000000000000000000000000000000000000000000000000000081526004016200104990620014bd565b60405180910390fd5b33620010636200053460201b60201c565b73ffffffffffffffffffffffffffffffffffffffff168173ffffffffffffffffffffffffffffffffffffffff16141580620010ef575060011515600d60008373ffffffffffffffffffffffffffffffffffffffff1673ffffffffffffffffffffffffffffffffffffffff16815260200190815260200160002060009054906101000a900460ff16151514155b62001131576040517f08c379a0000000000000000000000000000000000000000000000000000000008152600401620011289062001501565b60405180910390fd5b60026004600086815260200190815260200160002060030160006101000a81548160ff021916908360028111156200116e576200116d62001712565b5b02179055507fa589501e457bda1f31782af099f2695facb8e79d38d121802e6ac1c53237b84184604051620011a4919062001589565b60405180910390a150505050565b828054620011c0906200165f565b90600052602060002090601f016020900481019282620011e4576000855562001230565b82601f10620011ff57805160ff191683800117855562001230565b8280016001018555821562001230579182015b828111156200122f57825182559160200191906001019062001212565b5b5090506200123f919062001243565b5090565b5b808211156200125e57600081600090555060010162001244565b5090565b60006200126f82620015a6565b6200127b8185620015b1565b93506200128d81856020860162001629565b620012988162001770565b840191505092915050565b6000620012b2602483620015b1565b9150620012bf8262001781565b604082019050919050565b6000620012d9602483620015b1565b9150620012e682620017d0565b604082019050919050565b600062001300601183620015b1565b91506200130d826200181f565b602082019050919050565b600062001327602083620015b1565b9150620013348262001848565b602082019050919050565b60006200134e601d83620015b1565b91506200135b8262001871565b602082019050919050565b600062001375602583620015b1565b915062001382826200189a565b604082019050919050565b60006200139c602483620015b1565b9150620013a982620018e9565b604082019050919050565b6000620013c3601483620015b1565b9150620013d08262001938565b602082019050919050565b620013e6816200161f565b82525050565b6000604082019050818103600083015262001408818562001262565b905081810360208301526200141e818462001262565b90509392505050565b6000606082019050818103600083015262001443818662001262565b9050818103602083015262001459818562001262565b905081810360408301526200146f818462001262565b9050949350505050565b600060208201905081810360008301526200149481620012a3565b9050919050565b60006020820190508181036000830152620014b681620012ca565b9050919050565b60006020820190508181036000830152620014d881620012f1565b9050919050565b60006020820190508181036000830152620014fa8162001318565b9050919050565b600060208201905081810360008301526200151c816200133f565b9050919050565b600060208201905081810360008301526200153e8162001366565b9050919050565b6000602082019050818103600083015262001560816200138d565b9050919050565b600060208201905081810360008301526200158281620013b4565b9050919050565b6000602082019050620015a06000830184620013db565b92915050565b600081519050919050565b600082825260208201905092915050565b6000620015cf826200161f565b9150620015dc836200161f565b9250827fffffffffffffffffffffffffffffffffffffffffffffffffffffffffffffffff03821115620016145762001613620016e3565b5b828201905092915050565b6000819050919050565b60005b83811015620016495780820151818401526020810190506200162c565b8381111562001659576000848401525b50505050565b600060028204905060018216806200167857607f821691505b602082108114156200168f576200168e62001741565b5b50919050565b6000620016a2826200161f565b91507fffffffffffffffffffffffffffffffffffffffffffffffffffffffffffffffff821415620016d857620016d7620016e3565b5b600182019050919050565b7f4e487b7100000000000000000000000000000000000000000000000000000000600052601160045260246000fd5b7f4e487b7100000000000000000000000000000000000000000000000000000000600052602160045260246000fd5b7f4e487b7100000000000000000000000000000000000000000000000000000000600052602260045260246000fd5b6000601f19601f8301169050919050565b7f416c6c20747261636b732068617665206265656e20636c6f736564206279206160008201527f646d696e00000000000000000000000000000000000000000000000000000000602082015250565b7f557365722069732063757272656e746c7920696e20656e74727920636f6f6c6460008201527f6f776e2e00000000000000000000000000000000000000000000000000000000602082015250565b7f547261636b20697320626c6f636b65642e000000000000000000000000000000600082015250565b7f4f776e61626c653a2063616c6c6572206973206e6f7420746865206f776e6572600082015250565b7f5573657220686173206265656e2062616e6e65642062792061646d696e000000600082015250565b7f416c6c20747261636b732068617665206265656e20626c6f636b65642062792060008201527f61646d696e000000000000000000000000000000000000000000000000000000602082015250565b7f557365722069732063757272656e746c7920696e20747261636b20636f6f6c6460008201527f6f776e2e00000000000000000000000000000000000000000000000000000000602082015250565b7f547261636b20646f6573206e6f74206578697374000000000000000000000000600082015250565b61591e80620019716000396000f3fe6080604052600436106103505760003560e01c80638ee223f9116101c6578063caa2c2ad116100f7578063e6b2cf6c11610095578063f2fde38b1161006f578063f2fde38b14610cff578063f838e33f14610d28578063f9eafb5714610d53578063fb00844714610d7e57610350565b8063e6b2cf6c14610c6d578063eea85bc514610c98578063ef75976114610cd657610350565b8063d2496624116100d1578063d249662414610bbd578063db7c01e214610be8578063dc0bd01114610c25578063debe8ab714610c2f57610350565b8063caa2c2ad14610b06578063cc6cb19a14610b43578063d02f448314610b8057610350565b8063a5bf8ea911610164578063add509c01161013e578063add509c014610a59578063b4841f5a14610a82578063bb855ee614610a9e578063c67f8b8a14610ac957610350565b8063a5bf8ea9146109da578063a72024c614610a03578063ab35678c14610a2e57610350565b8063962dd807116101a0578063962dd807146108f25780639ebe639a1461092f5780639ed9b4fd1461095a578063a2e345861461099757610350565b80638ee223f91461084f578063924e9b951461087857806395ab2b98146108b557610350565b80634bc558b3116102a0578063715018a61161023e5780638501eb38116102185780638501eb381461079357806387548fcf146107bc5780638988d078146107e75780638da5cb5b1461082457610350565b8063715018a6146107285780637e8898ea1461073f57806383a6595f1461076a57610350565b80635e11ca821161027a5780635e11ca821461065a578063629058ca1461068557806366cb5936146106c257806368e982b0146106ff57610350565b80634bc558b3146105c95780635be85297146106065780635c975abb1461062f57610350565b80631f6c5f001161030d5780632e42ddbf116102e75780632e42ddbf146104e957806333abbe511461052657806336de40be14610563578063423b7032146105a057610350565b80631f6c5f001461046a57806328ae3ebb146104935780632a3f2f89146104be57610350565b80630121b93f146103555780630955ccff1461037e5780630ea4d2ee146103a95780630fb6d4ac146103e6578063109699b6146104025780631c0e02251461043f575b600080fd5b34801561036157600080fd5b5061037c600480360381019061037791906144ac565b610da9565b005b34801561038a57600080fd5b5061039361134e565b6040516103a09190614f06565b60405180910390f35b3480156103b557600080fd5b506103d060048036038101906103cb91906144ac565b611354565b6040516103dd9190614bff565b60405180910390f35b61040060048036038101906103fb9190614594565b6115af565b005b34801561040e57600080fd5b5061042960048036038101906104249190614594565b61182d565b6040516104369190614f06565b60405180910390f35b34801561044b57600080fd5b5061045461185e565b6040516104619190614f06565b60405180910390f35b34801561047657600080fd5b50610491600480360381019061048c91906144ac565b611864565b005b34801561049f57600080fd5b506104a8611ad8565b6040516104b59190614bc9565b60405180910390f35b3480156104ca57600080fd5b506104d3611ba8565b6040516104e09190614f06565b60405180910390f35b3480156104f557600080fd5b50610510600480360381019061050b91906144d9565b611bae565b60405161051d9190614f06565b60405180910390f35b34801561053257600080fd5b5061054d600480360381019061054891906144ac565b612040565b60405161055a9190614bc9565b60405180910390f35b34801561056f57600080fd5b5061058a60048036038101906105859190614434565b612100565b6040516105979190614f06565b60405180910390f35b3480156105ac57600080fd5b506105c760048036038101906105c291906144ac565b6125f2565b005b3480156105d557600080fd5b506105f060048036038101906105eb91906143c7565b6128a6565b6040516105fd9190614f06565b60405180910390f35b34801561061257600080fd5b5061062d60048036038101906106289190614407565b6128cb565b005b34801561063b57600080fd5b50610644612998565b6040516106519190614bc9565b60405180910390f35b34801561066657600080fd5b5061066f6129ae565b60405161067c9190614be4565b60405180910390f35b34801561069157600080fd5b506106ac60048036038101906106a791906144ac565b6129c1565b6040516106b99190614ee4565b60405180910390f35b3480156106ce57600080fd5b506106e960048036038101906106e491906144ac565b612c34565b6040516106f69190614bc9565b60405180910390f35b34801561070b57600080fd5b50610726600480360381019061072191906144ac565b612cf4565b005b34801561073457600080fd5b5061073d612f38565b005b34801561074b57600080fd5b50610754612fc0565b6040516107619190614bc9565b60405180910390f35b34801561077657600080fd5b50610791600480360381019061078c91906144ac565b612fd3565b005b34801561079f57600080fd5b506107ba60048036038101906107b591906144ac565b613078565b005b3480156107c857600080fd5b506107d16130fe565b6040516107de9190614b85565b60405180910390f35b3480156107f357600080fd5b5061080e6004803603810190610809919061435a565b6133a8565b60405161081b9190614bc9565b60405180910390f35b34801561083057600080fd5b506108396133c8565b6040516108469190614b6a565b60405180910390f35b34801561085b57600080fd5b5061087660048036038101906108719190614387565b6133f1565b005b34801561088457600080fd5b5061089f600480360381019061089a91906144ac565b6134c8565b6040516108ac9190614f06565b60405180910390f35b3480156108c157600080fd5b506108dc60048036038101906108d791906144ac565b6134e0565b6040516108e99190614b6a565b60405180910390f35b3480156108fe57600080fd5b50610919600480360381019061091491906144ac565b613513565b6040516109269190614f06565b60405180910390f35b34801561093b57600080fd5b5061094461352b565b6040516109519190614bc9565b60405180910390f35b34801561096657600080fd5b50610981600480360381019061097c919061435a565b61353e565b60405161098e9190614bc9565b60405180910390f35b3480156109a357600080fd5b506109be60048036038101906109b991906144ac565b613594565b6040516109d19796959493929190614f21565b60405180910390f35b3480156109e657600080fd5b50610a0160048036038101906109fc9190614407565b61371a565b005b348015610a0f57600080fd5b50610a186137fb565b604051610a259190614f06565b60405180910390f35b348015610a3a57600080fd5b50610a43613801565b604051610a509190614f06565b60405180910390f35b348015610a6557600080fd5b50610a806004803603810190610a7b9190614407565b613807565b005b610a9c6004803603810190610a9791906144ac565b6138e8565b005b348015610aaa57600080fd5b50610ab36139b1565b604051610ac09190614f06565b60405180910390f35b348015610ad557600080fd5b50610af06004803603810190610aeb91906144ac565b6139b7565b604051610afd9190614bc9565b60405180910390f35b348015610b1257600080fd5b50610b2d6004803603810190610b2891906144ac565b613aa5565b604051610b3a9190614bc9565b60405180910390f35b348015610b4f57600080fd5b50610b6a6004803603810190610b65919061435a565b613b64565b604051610b779190614f06565b60405180910390f35b348015610b8c57600080fd5b50610ba76004803603810190610ba291906144ac565b613b7c565b604051610bb49190614ba7565b60405180910390f35b348015610bc957600080fd5b50610bd2613be7565b604051610bdf9190614bc9565b60405180910390f35b348015610bf457600080fd5b50610c0f6004803603810190610c0a91906143c7565b613bfa565b604051610c1c9190614bc9565b60405180910390f35b610c2d613c29565b005b348015610c3b57600080fd5b50610c566004803603810190610c51919061435a565b613c73565b604051610c64929190614f9e565b60405180910390f35b348015610c7957600080fd5b50610c82613c97565b604051610c8f9190614f06565b60405180910390f35b348015610ca457600080fd5b50610cbf6004803603810190610cba919061435a565b613c9d565b604051610ccd929190614f9e565b60405180910390f35b348015610ce257600080fd5b50610cfd6004803603810190610cf891906144ac565b613cc1565b005b348015610d0b57600080fd5b50610d266004803603810190610d21919061435a565b613f06565b005b348015610d3457600080fd5b50610d3d613ffe565b604051610d4a9190614f06565b60405180910390f35b348015610d5f57600080fd5b50610d68614004565b604051610d759190614bc9565b60405180910390f35b348015610d8a57600080fd5b50610d936140d4565b604051610da09190614be4565b60405180910390f35b600660008281526020019081526020016000205460006002811115610dd157610dd061532a565b5b6004600083815260200190815260200160002060030160009054906101000a900460ff166002811115610e0757610e0661532a565b5b14610e1157600080fd5b60006002811115610e2557610e2461532a565b5b601460009054906101000a900460ff166002811115610e4757610e4661532a565b5b14610e87576040517f08c379a0000000000000000000000000000000000000000000000000000000008152600401610e7e90614d44565b60405180910390fd5b3382610e916133c8565b73ffffffffffffffffffffffffffffffffffffffff168273ffffffffffffffffffffffffffffffffffffffff161480610f2b575060001515600860008473ffffffffffffffffffffffffffffffffffffffff1673ffffffffffffffffffffffffffffffffffffffff168152602001908152602001600020600083815260200190815260200160002060009054906101000a900460ff161515145b610f6a576040517f08c379a0000000000000000000000000000000000000000000000000000000008152600401610f6190614d84565b60405180910390fd5b600280811115610f7d57610f7c61532a565b5b601460019054906101000a900460ff166002811115610f9f57610f9e61532a565b5b1415610fe0576040517f08c379a0000000000000000000000000000000000000000000000000000000008152600401610fd790614dc4565b60405180910390fd5b33610fe96133c8565b73ffffffffffffffffffffffffffffffffffffffff168173ffffffffffffffffffffffffffffffffffffffff16141580611074575060011515600d60008373ffffffffffffffffffffffffffffffffffffffff1673ffffffffffffffffffffffffffffffffffffffff16815260200190815260200160002060009054906101000a900460ff16151514155b6110b3576040517f08c379a00000000000000000000000000000000000000000000000000000000081526004016110aa90614e44565b60405180910390fd5b336006600087815260200190815260200160002054601460039054906101000a900460ff16158061111657506110e76133c8565b73ffffffffffffffffffffffffffffffffffffffff168273ffffffffffffffffffffffffffffffffffffffff16145b8061117157506000600c60008473ffffffffffffffffffffffffffffffffffffffff1673ffffffffffffffffffffffffffffffffffffffff168152602001908152602001600020600083815260200190815260200160002054145b806111d8575042601154600c60008573ffffffffffffffffffffffffffffffffffffffff1673ffffffffffffffffffffffffffffffffffffffff1681526020019081526020016000206000848152602001908152602001600020546111d691906150bc565b115b611217576040517f08c379a000000000000000000000000000000000000000000000000000000000815260040161120e90614d04565b60405180910390fd5b6000600660008981526020019081526020016000205490506001600860003373ffffffffffffffffffffffffffffffffffffffff1673ffffffffffffffffffffffffffffffffffffffff16815260200190815260200160002060008a815260200190815260200160002060006101000a81548160ff02191690831515021790555042600c60003373ffffffffffffffffffffffffffffffffffffffff1673ffffffffffffffffffffffffffffffffffffffff168152602001908152602001600020600083815260200190815260200160002081905550600b60008281526020019081526020016000206000815480929190611311906152b2565b919050555087817f23b2bfc0c368fdbec2cf6a0878f8f7ab7d497f92861fa232c0111ca69f63dc8260405160405180910390a35050505050505050565b60115481565b606080600015156004600085815260200190815260200160002060030160019054906101000a900460ff16151514156113c4576040518060400160405280600481526020017f6e756c6c0000000000000000000000000000000000000000000000000000000081525090506115a6565b600060028111156113d8576113d761532a565b5b6004600085815260200190815260200160002060030160009054906101000a900460ff16600281111561140e5761140d61532a565b5b1415611451576040518060400160405280600481526020017f6f70656e0000000000000000000000000000000000000000000000000000000081525090506115a5565b600160028111156114655761146461532a565b5b6004600085815260200190815260200160002060030160009054906101000a900460ff16600281111561149b5761149a61532a565b5b14156114de576040518060400160405280600681526020017f636c6f736564000000000000000000000000000000000000000000000000000081525090506115a4565b6002808111156114f1576114f061532a565b5b6004600085815260200190815260200160002060030160009054906101000a900460ff1660028111156115275761152661532a565b5b141561156a576040518060400160405280600781526020017f626c6f636b65640000000000000000000000000000000000000000000000000081525090506115a3565b6040518060400160405280600481526020017f6e756c6c0000000000000000000000000000000000000000000000000000000081525090505b5b5b5b80915050919050565b6115b7612998565b156115f7576040517f08c379a00000000000000000000000000000000000000000000000000000000081526004016115ee90614de4565b60405180910390fd5b60025460026116069190615112565b8111611647576040517f08c379a000000000000000000000000000000000000000000000000000000000815260040161163e90614cc4565b60405180910390fd5b670de0b6b3a76400008110611691576040517f08c379a000000000000000000000000000000000000000000000000000000000815260040161168890614da4565b60405180910390fd5b600073ffffffffffffffffffffffffffffffffffffffff166007600084815260200190815260200160002060009054906101000a900473ffffffffffffffffffffffffffffffffffffffff1673ffffffffffffffffffffffffffffffffffffffff161415611734576040517f08c379a000000000000000000000000000000000000000000000000000000000815260040161172b90614ce4565b60405180910390fd5b60025481611742919061516c565b600160006007600086815260200190815260200160002060009054906101000a900473ffffffffffffffffffffffffffffffffffffffff1673ffffffffffffffffffffffffffffffffffffffff1673ffffffffffffffffffffffffffffffffffffffff16815260200190815260200160002060008282546117c391906150bc565b92505081905550600254600160006117d96133c8565b73ffffffffffffffffffffffffffffffffffffffff1673ffffffffffffffffffffffffffffffffffffffff168152602001908152602001600020600082825461182291906150bc565b925050819055505050565b6005602052816000526040600020818154811061184957600080fd5b90600052602060002001600091509150505481565b60025481565b80600115156004600083815260200190815260200160002060030160019054906101000a900460ff161515146118cf576040517f08c379a00000000000000000000000000000000000000000000000000000000081526004016118c690614ec4565b60405180910390fd5b81600160028111156118e4576118e361532a565b5b6004600083815260200190815260200160002060030160009054906101000a900460ff16600281111561191a5761191961532a565b5b1461195a576040517f08c379a000000000000000000000000000000000000000000000000000000000815260040161195190614ca4565b60405180910390fd5b336119636133c8565b73ffffffffffffffffffffffffffffffffffffffff168173ffffffffffffffffffffffffffffffffffffffff161415806119ee575060011515600d60008373ffffffffffffffffffffffffffffffffffffffff1673ffffffffffffffffffffffffffffffffffffffff16815260200190815260200160002060009054906101000a900460ff16151514155b611a2d576040517f08c379a0000000000000000000000000000000000000000000000000000000008152600401611a2490614e44565b60405180910390fd5b60006004600086815260200190815260200160002060030160006101000a81548160ff02191690836002811115611a6757611a6661532a565b5b021790555060016004600086815260200190815260200160002060030160026101000a81548160ff0219169083151502179055507f5a695f43d53bb74f4457f1a60951e2c514c6de79da9a8d8369848853d647cc6a84604051611aca9190614f06565b60405180910390a150505050565b6000601460049054906101000a900460ff168015611b3857506000600a60003373ffffffffffffffffffffffffffffffffffffffff1673ffffffffffffffffffffffffffffffffffffffff16815260200190815260200160002060000154115b8015611b92575042601254600a60003373ffffffffffffffffffffffffffffffffffffffff1673ffffffffffffffffffffffffffffffffffffffff16815260200190815260200160002060000154611b9091906150bc565b115b15611ba05760019050611ba5565b600090505b90565b60035481565b6000600280811115611bc357611bc261532a565b5b601460009054906101000a900460ff166002811115611be557611be461532a565b5b1415611c26576040517f08c379a0000000000000000000000000000000000000000000000000000000008152600401611c1d90614e64565b60405180910390fd5b33611c2f6133c8565b73ffffffffffffffffffffffffffffffffffffffff168173ffffffffffffffffffffffffffffffffffffffff16141580611cba575060011515600d60008373ffffffffffffffffffffffffffffffffffffffff1673ffffffffffffffffffffffffffffffffffffffff16815260200190815260200160002060009054906101000a900460ff16151514155b611cf9576040517f08c379a0000000000000000000000000000000000000000000000000000000008152600401611cf090614e44565b60405180910390fd5b33601460049054906101000a900460ff161580611d485750611d196133c8565b73ffffffffffffffffffffffffffffffffffffffff168173ffffffffffffffffffffffffffffffffffffffff16145b80611d9557506000600a60008373ffffffffffffffffffffffffffffffffffffffff1673ffffffffffffffffffffffffffffffffffffffff16815260200190815260200160002060000154145b80611dee575042601254600a60008473ffffffffffffffffffffffffffffffffffffffff1673ffffffffffffffffffffffffffffffffffffffff16815260200190815260200160002060000154611dec91906150bc565b115b611e2d576040517f08c379a0000000000000000000000000000000000000000000000000000000008152600401611e2490614d64565b60405180910390fd5b8660006002811115611e4257611e4161532a565b5b6004600083815260200190815260200160002060030160009054906101000a900460ff166002811115611e7857611e7761532a565b5b14611e8257600080fd5b60006002811115611e9657611e9561532a565b5b601460009054906101000a900460ff166002811115611eb857611eb761532a565b5b14611ef8576040517f08c379a0000000000000000000000000000000000000000000000000000000008152600401611eef90614d44565b60405180910390fd5b600060105490506000600660008381526020019081526020016000205414611f1f57600080fd5b600560008a8152602001908152602001600020819080600181540180825580915050600190039060005260206000200160009091909190915055886006600083815260200190815260200160002081905550604051806040016040528042815260200182815250600a60003373ffffffffffffffffffffffffffffffffffffffff1673ffffffffffffffffffffffffffffffffffffffff168152602001908152602001600020600082015181600001556020820151816001015590505060106000815480929190611fef906152b2565b919050555080897f313f81e8cc8fe5ab3d1facaeffd8e0d26068ff1776d23a4621a5bdb0c891c8178a8a8a60405161202993929190614c58565b60405180910390a380945050505050949350505050565b600081600115156004600083815260200190815260200160002060030160019054906101000a900460ff161515146120ad576040517f08c379a00000000000000000000000000000000000000000000000000000000081526004016120a490614ec4565b60405180910390fd5b600160028111156120c1576120c061532a565b5b6004600085815260200190815260200160002060030160009054906101000a900460ff1660028111156120f7576120f661532a565b5b14915050919050565b60006002808111156121155761211461532a565b5b601460009054906101000a900460ff1660028111156121375761213661532a565b5b1415612178576040517f08c379a000000000000000000000000000000000000000000000000000000000815260040161216f90614e64565b60405180910390fd5b33601460029054906101000a900460ff1615806121c757506121986133c8565b73ffffffffffffffffffffffffffffffffffffffff168173ffffffffffffffffffffffffffffffffffffffff16145b8061221457506000600960008373ffffffffffffffffffffffffffffffffffffffff1673ffffffffffffffffffffffffffffffffffffffff16815260200190815260200160002060000154145b8061226d575042601354600960008473ffffffffffffffffffffffffffffffffffffffff1673ffffffffffffffffffffffffffffffffffffffff1681526020019081526020016000206000015461226b91906150bc565b115b6122ac576040517f08c379a00000000000000000000000000000000000000000000000000000000081526004016122a390614ea4565b60405180910390fd5b336122b56133c8565b73ffffffffffffffffffffffffffffffffffffffff168173ffffffffffffffffffffffffffffffffffffffff16141580612340575060011515600d60008373ffffffffffffffffffffffffffffffffffffffff1673ffffffffffffffffffffffffffffffffffffffff16815260200190815260200160002060009054906101000a900460ff16151514155b61237f576040517f08c379a000000000000000000000000000000000000000000000000000000000815260040161237690614e44565b60405180910390fd5b6000600e5490506040518060e00160405280828152602001878152602001868152602001600060028111156123b7576123b661532a565b5b8152602001600115158152602001600115158152602001600015158152506004600083815260200190815260200160002060008201518160000155602082015181600101908051906020019061240e9291906141b3565b50604082015181600201908051906020019061242b9291906141b3565b5060608201518160030160006101000a81548160ff021916908360028111156124575761245661532a565b5b021790555060808201518160030160016101000a81548160ff02191690831515021790555060a08201518160030160026101000a81548160ff02191690831515021790555060c08201518160030160036101000a81548160ff021916908315150217905550905050604051806040016040528042815260200182815250600960003373ffffffffffffffffffffffffffffffffffffffff1673ffffffffffffffffffffffffffffffffffffffff1681526020019081526020016000206000820151816000015560208201518160010155905050336007600083815260200190815260200160002060006101000a81548173ffffffffffffffffffffffffffffffffffffffff021916908373ffffffffffffffffffffffffffffffffffffffff160217905550600e600081548092919061258f906152b2565b9190505550600f60008154809291906125a7906152b2565b9190505550807f21579433a032855e20e8afc48e980ddae0b6285e4aa03370f03192be12bea28b87876040516125de929190614c21565b60405180910390a280935050505092915050565b80600115156004600083815260200190815260200160002060030160019054906101000a900460ff1615151461265d576040517f08c379a000000000000000000000000000000000000000000000000000000000815260040161265490614ec4565b60405180910390fd5b81600060028111156126725761267161532a565b5b6004600083815260200190815260200160002060030160009054906101000a900460ff1660028111156126a8576126a761532a565b5b146126b257600080fd5b600060028111156126c6576126c561532a565b5b601460009054906101000a900460ff1660028111156126e8576126e761532a565b5b14612728576040517f08c379a000000000000000000000000000000000000000000000000000000000815260040161271f90614d44565b60405180910390fd5b336127316133c8565b73ffffffffffffffffffffffffffffffffffffffff168173ffffffffffffffffffffffffffffffffffffffff161415806127bc575060011515600d60008373ffffffffffffffffffffffffffffffffffffffff1673ffffffffffffffffffffffffffffffffffffffff16815260200190815260200160002060009054906101000a900460ff16151514155b6127fb576040517f08c379a00000000000000000000000000000000000000000000000000000000081526004016127f290614e44565b60405180910390fd5b60016004600086815260200190815260200160002060030160006101000a81548160ff021916908360028111156128355761283461532a565b5b021790555060006004600086815260200190815260200160002060030160026101000a81548160ff0219169083151502179055507feabb282842a353a61f42a3352791a6bf8d0f0b5d6e9cec67e0a0e2c42f387b9b846040516128989190614f06565b60405180910390a150505050565b600c602052816000526040600020602052806000526040600020600091509150505481565b6128d36140e7565b73ffffffffffffffffffffffffffffffffffffffff166128f16133c8565b73ffffffffffffffffffffffffffffffffffffffff1614612947576040517f08c379a000000000000000000000000000000000000000000000000000000000815260040161293e90614e24565b60405180910390fd5b80601460026101000a81548160ff02191690831515021790555080601460036101000a81548160ff02191690831515021790555080601460046101000a81548160ff02191690831515021790555050565b60008060149054906101000a900460ff16905090565b601460009054906101000a900460ff1681565b6129c9614239565b816002808111156129dd576129dc61532a565b5b6004600083815260200190815260200160002060030160009054906101000a900460ff166002811115612a1357612a1261532a565b5b1415612a54576040517f08c379a0000000000000000000000000000000000000000000000000000000008152600401612a4b90614e04565b60405180910390fd5b600460008481526020019081526020016000206040518060e001604052908160008201548152602001600182018054612a8c9061524f565b80601f0160208091040260200160405190810160405280929190818152602001828054612ab89061524f565b8015612b055780601f10612ada57610100808354040283529160200191612b05565b820191906000526020600020905b815481529060010190602001808311612ae857829003601f168201915b50505050508152602001600282018054612b1e9061524f565b80601f0160208091040260200160405190810160405280929190818152602001828054612b4a9061524f565b8015612b975780601f10612b6c57610100808354040283529160200191612b97565b820191906000526020600020905b815481529060010190602001808311612b7a57829003601f168201915b505050505081526020016003820160009054906101000a900460ff166002811115612bc557612bc461532a565b5b6002811115612bd757612bd661532a565b5b81526020016003820160019054906101000a900460ff161515151581526020016003820160029054906101000a900460ff161515151581526020016003820160039054906101000a900460ff161515151581525050915050919050565b600081600115156004600083815260200190815260200160002060030160019054906101000a900460ff16151514612ca1576040517f08c379a0000000000000000000000000000000000000000000000000000000008152600401612c9890614ec4565b60405180910390fd5b60006002811115612cb557612cb461532a565b5b6004600085815260200190815260200160002060030160009054906101000a900460ff166002811115612ceb57612cea61532a565b5b14915050919050565b80600115156004600083815260200190815260200160002060030160019054906101000a900460ff16151514612d5f576040517f08c379a0000000000000000000000000000000000000000000000000000000008152600401612d5690614ec4565b60405180910390fd5b81600280811115612d7357612d7261532a565b5b6004600083815260200190815260200160002060030160009054906101000a900460ff166002811115612da957612da861532a565b5b14612de9576040517f08c379a0000000000000000000000000000000000000000000000000000000008152600401612de090614e84565b60405180910390fd5b33612df26133c8565b73ffffffffffffffffffffffffffffffffffffffff168173ffffffffffffffffffffffffffffffffffffffff16141580612e7d575060011515600d60008373ffffffffffffffffffffffffffffffffffffffff1673ffffffffffffffffffffffffffffffffffffffff16815260200190815260200160002060009054906101000a900460ff16151514155b612ebc576040517f08c379a0000000000000000000000000000000000000000000000000000000008152600401612eb390614e44565b60405180910390fd5b60016004600086815260200190815260200160002060030160006101000a81548160ff02191690836002811115612ef657612ef561532a565b5b02179055507fe23a63f864ee1069bc665aa3ed0b1dccc848ab996543e77baed0f465e8145c6084604051612f2a9190614f06565b60405180910390a150505050565b612f406140e7565b73ffffffffffffffffffffffffffffffffffffffff16612f5e6133c8565b73ffffffffffffffffffffffffffffffffffffffff1614612fb4576040517f08c379a0000000000000000000000000000000000000000000000000000000008152600401612fab90614e24565b60405180910390fd5b612fbe60006140ef565b565b601460039054906101000a900460ff1681565b612fdb6140e7565b73ffffffffffffffffffffffffffffffffffffffff16612ff96133c8565b73ffffffffffffffffffffffffffffffffffffffff161461304f576040517f08c379a000000000000000000000000000000000000000000000000000000000815260040161304690614e24565b60405180910390fd5b600081118015613065575066038d7ea4c6800081105b61306e57600080fd5b8060028190555050565b6130806140e7565b73ffffffffffffffffffffffffffffffffffffffff1661309e6133c8565b73ffffffffffffffffffffffffffffffffffffffff16146130f4576040517f08c379a00000000000000000000000000000000000000000000000000000000081526004016130eb90614e24565b60405180910390fd5b8060038190555050565b60606000600354600f5411156131165760035461311a565b600f545b9050600081600f5461312c919061516c565b905060008267ffffffffffffffff81111561314a576131496153b7565b5b60405190808252806020026020018201604052801561318357816020015b613170614239565b8152602001906001900390816131685790505b50905060008290505b815181101561339e57600460008281526020019081526020016000206040518060e0016040529081600082015481526020016001820180546131cd9061524f565b80601f01602080910402602001604051908101604052809291908181526020018280546131f99061524f565b80156132465780601f1061321b57610100808354040283529160200191613246565b820191906000526020600020905b81548152906001019060200180831161322957829003601f168201915b5050505050815260200160028201805461325f9061524f565b80601f016020809104026020016040519081016040528092919081815260200182805461328b9061524f565b80156132d85780601f106132ad576101008083540402835291602001916132d8565b820191906000526020600020905b8154815290600101906020018083116132bb57829003601f168201915b505050505081526020016003820160009054906101000a900460ff1660028111156133065761330561532a565b5b60028111156133185761331761532a565b5b81526020016003820160019054906101000a900460ff161515151581526020016003820160029054906101000a900460ff161515151581526020016003820160039054906101000a900460ff1615151515815250508282815181106133805761337f615388565b5b60200260200101819052508080613396906152b2565b91505061318c565b5080935050505090565b600d6020528060005260406000206000915054906101000a900460ff1681565b60008060009054906101000a900473ffffffffffffffffffffffffffffffffffffffff16905090565b6133f96140e7565b73ffffffffffffffffffffffffffffffffffffffff166134176133c8565b73ffffffffffffffffffffffffffffffffffffffff161461346d576040517f08c379a000000000000000000000000000000000000000000000000000000000815260040161346490614e24565b60405180910390fd5b80600d60008473ffffffffffffffffffffffffffffffffffffffff1673ffffffffffffffffffffffffffffffffffffffff16815260200190815260200160002060006101000a81548160ff0219169083151502179055505050565b60066020528060005260406000206000915090505481565b60076020528060005260406000206000915054906101000a900473ffffffffffffffffffffffffffffffffffffffff1681565b600b6020528060005260406000206000915090505481565b601460049054906101000a900460ff1681565b6000600d60008373ffffffffffffffffffffffffffffffffffffffff1673ffffffffffffffffffffffffffffffffffffffff16815260200190815260200160002060009054906101000a900460ff169050919050565b60046020528060005260406000206000915090508060000154908060010180546135bd9061524f565b80601f01602080910402602001604051908101604052809291908181526020018280546135e99061524f565b80156136365780601f1061360b57610100808354040283529160200191613636565b820191906000526020600020905b81548152906001019060200180831161361957829003601f168201915b50505050509080600201805461364b9061524f565b80601f01602080910402602001604051908101604052809291908181526020018280546136779061524f565b80156136c45780601f10613699576101008083540402835291602001916136c4565b820191906000526020600020905b8154815290600101906020018083116136a757829003601f168201915b5050505050908060030160009054906101000a900460ff16908060030160019054906101000a900460ff16908060030160029054906101000a900460ff16908060030160039054906101000a900460ff16905087565b6137226140e7565b73ffffffffffffffffffffffffffffffffffffffff166137406133c8565b73ffffffffffffffffffffffffffffffffffffffff1614613796576040517f08c379a000000000000000000000000000000000000000000000000000000000815260040161378d90614e24565b60405180910390fd5b80156137cc576002601460006101000a81548160ff021916908360028111156137c2576137c161532a565b5b02179055506137f8565b6000601460006101000a81548160ff021916908360028111156137f2576137f161532a565b5b02179055505b50565b600e5481565b600f5481565b61380f6140e7565b73ffffffffffffffffffffffffffffffffffffffff1661382d6133c8565b73ffffffffffffffffffffffffffffffffffffffff1614613883576040517f08c379a000000000000000000000000000000000000000000000000000000000815260040161387a90614e24565b60405180910390fd5b80156138b9576002601460016101000a81548160ff021916908360028111156138af576138ae61532a565b5b02179055506138e5565b6000601460016101000a81548160ff021916908360028111156138df576138de61532a565b5b02179055505b50565b6138f0612998565b15613930576040517f08c379a000000000000000000000000000000000000000000000000000000000815260040161392790614de4565b60405180910390fd5b600254811180156139485750670de0b6b3a764000081105b61395157600080fd5b806001600061395e6133c8565b73ffffffffffffffffffffffffffffffffffffffff1673ffffffffffffffffffffffffffffffffffffffff16815260200190815260200160002060008282546139a791906150bc565b9250508190555050565b60125481565b6000601460039054906101000a900460ff168015613a2557506000600c60003373ffffffffffffffffffffffffffffffffffffffff1673ffffffffffffffffffffffffffffffffffffffff168152602001908152602001600020600084815260200190815260200160002054115b8015613a8d575042601154600c60003373ffffffffffffffffffffffffffffffffffffffff1673ffffffffffffffffffffffffffffffffffffffff168152602001908152602001600020600085815260200190815260200160002054613a8b91906150bc565b115b15613a9b5760019050613aa0565b600090505b919050565b600081600115156004600083815260200190815260200160002060030160019054906101000a900460ff16151514613b12576040517f08c379a0000000000000000000000000000000000000000000000000000000008152600401613b0990614ec4565b60405180910390fd5b600280811115613b2557613b2461532a565b5b6004600085815260200190815260200160002060030160009054906101000a900460ff166002811115613b5b57613b5a61532a565b5b14915050919050565b60016020528060005260406000206000915090505481565b606060056000838152602001908152602001600020805480602002602001604051908101604052809291908181526020018280548015613bdb57602002820191906000526020600020905b815481526020019060010190808311613bc7575b50505050509050919050565b601460029054906101000a900460ff1681565b60086020528160005260406000206020528060005260406000206000915091509054906101000a900460ff1681565b3373ffffffffffffffffffffffffffffffffffffffff166108fc60019081150290604051600060405180830381858888f19350505050158015613c70573d6000803e3d6000fd5b50565b600a6020528060005260406000206000915090508060000154908060010154905082565b60105481565b60096020528060005260406000206000915090508060000154908060010154905082565b80600115156004600083815260200190815260200160002060030160019054906101000a900460ff16151514613d2c576040517f08c379a0000000000000000000000000000000000000000000000000000000008152600401613d2390614ec4565b60405180910390fd5b81600280811115613d4057613d3f61532a565b5b6004600083815260200190815260200160002060030160009054906101000a900460ff166002811115613d7657613d7561532a565b5b1415613db7576040517f08c379a0000000000000000000000000000000000000000000000000000000008152600401613dae90614e04565b60405180910390fd5b33613dc06133c8565b73ffffffffffffffffffffffffffffffffffffffff168173ffffffffffffffffffffffffffffffffffffffff16141580613e4b575060011515600d60008373ffffffffffffffffffffffffffffffffffffffff1673ffffffffffffffffffffffffffffffffffffffff16815260200190815260200160002060009054906101000a900460ff16151514155b613e8a576040517f08c379a0000000000000000000000000000000000000000000000000000000008152600401613e8190614e44565b60405180910390fd5b60026004600086815260200190815260200160002060030160006101000a81548160ff02191690836002811115613ec457613ec361532a565b5b02179055507fa589501e457bda1f31782af099f2695facb8e79d38d121802e6ac1c53237b84184604051613ef89190614f06565b60405180910390a150505050565b613f0e6140e7565b73ffffffffffffffffffffffffffffffffffffffff16613f2c6133c8565b73ffffffffffffffffffffffffffffffffffffffff1614613f82576040517f08c379a0000000000000000000000000000000000000000000000000000000008152600401613f7990614e24565b60405180910390fd5b600073ffffffffffffffffffffffffffffffffffffffff168173ffffffffffffffffffffffffffffffffffffffff161415613ff2576040517f08c379a0000000000000000000000000000000000000000000000000000000008152600401613fe990614d24565b60405180910390fd5b613ffb816140ef565b50565b60135481565b6000601460029054906101000a900460ff16801561406457506000600960003373ffffffffffffffffffffffffffffffffffffffff1673ffffffffffffffffffffffffffffffffffffffff16815260200190815260200160002060000154115b80156140be575042601354600960003373ffffffffffffffffffffffffffffffffffffffff1673ffffffffffffffffffffffffffffffffffffffff168152602001908152602001600020600001546140bc91906150bc565b115b156140cc57600190506140d1565b600090505b90565b601460019054906101000a900460ff1681565b600033905090565b60008060009054906101000a900473ffffffffffffffffffffffffffffffffffffffff169050816000806101000a81548173ffffffffffffffffffffffffffffffffffffffff021916908373ffffffffffffffffffffffffffffffffffffffff1602179055508173ffffffffffffffffffffffffffffffffffffffff168173ffffffffffffffffffffffffffffffffffffffff167f8be0079c531659141344cd1fd0a4f28419497f9722a3daafe3b4186f6b6457e060405160405180910390a35050565b8280546141bf9061524f565b90600052602060002090601f0160209004810192826141e15760008555614228565b82601f106141fa57805160ff1916838001178555614228565b82800160010185558215614228579182015b8281111561422757825182559160200191906001019061420c565b5b509050614235919061428e565b5090565b6040518060e001604052806000815260200160608152602001606081526020016000600281111561426d5761426c61532a565b5b81526020016000151581526020016000151581526020016000151581525090565b5b808211156142a757600081600090555060010161428f565b5090565b60006142be6142b984614fec565b614fc7565b9050828152602081018484840111156142da576142d96153eb565b5b6142e584828561520d565b509392505050565b6000813590506142fc816158a3565b92915050565b600081359050614311816158ba565b92915050565b600082601f83011261432c5761432b6153e6565b5b813561433c8482602086016142ab565b91505092915050565b600081359050614354816158d1565b92915050565b6000602082840312156143705761436f6153f5565b5b600061437e848285016142ed565b91505092915050565b6000806040838503121561439e5761439d6153f5565b5b60006143ac858286016142ed565b92505060206143bd85828601614302565b9150509250929050565b600080604083850312156143de576143dd6153f5565b5b60006143ec858286016142ed565b92505060206143fd85828601614345565b9150509250929050565b60006020828403121561441d5761441c6153f5565b5b600061442b84828501614302565b91505092915050565b6000806040838503121561444b5761444a6153f5565b5b600083013567ffffffffffffffff811115614469576144686153f0565b5b61447585828601614317565b925050602083013567ffffffffffffffff811115614496576144956153f0565b5b6144a285828601614317565b9150509250929050565b6000602082840312156144c2576144c16153f5565b5b60006144d084828501614345565b91505092915050565b600080600080608085870312156144f3576144f26153f5565b5b600061450187828801614345565b945050602085013567ffffffffffffffff811115614522576145216153f0565b5b61452e87828801614317565b935050604085013567ffffffffffffffff81111561454f5761454e6153f0565b5b61455b87828801614317565b925050606085013567ffffffffffffffff81111561457c5761457b6153f0565b5b61458887828801614317565b91505092959194509250565b600080604083850312156145ab576145aa6153f5565b5b60006145b985828601614345565b92505060206145ca85828601614345565b9150509250929050565b60006145e08383614a06565b905092915050565b60006145f48383614b4c565b60208301905092915050565b614609816151a0565b82525050565b600061461a8261503d565b6146248185615078565b9350836020820285016146368561501d565b8060005b85811015614672578484038952815161465385826145d4565b945061465e8361505e565b925060208a0199505060018101905061463a565b50829750879550505050505092915050565b600061468f82615048565b6146998185615089565b93506146a48361502d565b8060005b838110156146d55781516146bc88826145e8565b97506146c78361506b565b9250506001810190506146a8565b5085935050505092915050565b6146eb816151b2565b82525050565b6146fa816151b2565b82525050565b614709816151fb565b82525050565b614718816151fb565b82525050565b600061472982615053565b614733818561509a565b935061474381856020860161521c565b61474c816153fa565b840191505092915050565b600061476282615053565b61476c81856150ab565b935061477c81856020860161521c565b614785816153fa565b840191505092915050565b600061479d6013836150ab565b91506147a88261540b565b602082019050919050565b60006147c06026836150ab565b91506147cb82615434565b604082019050919050565b60006147e36026836150ab565b91506147ee82615483565b604082019050919050565b60006148066036836150ab565b9150614811826154d2565b604082019050919050565b60006148296026836150ab565b915061483482615521565b604082019050919050565b600061484c6024836150ab565b915061485782615570565b604082019050919050565b600061486f6024836150ab565b915061487a826155bf565b604082019050919050565b60006148926034836150ab565b915061489d8261560e565b604082019050919050565b60006148b5603a836150ab565b91506148c08261565d565b604082019050919050565b60006148d86024836150ab565b91506148e3826156ac565b604082019050919050565b60006148fb6010836150ab565b9150614906826156fb565b602082019050919050565b600061491e6011836150ab565b915061492982615724565b602082019050919050565b60006149416020836150ab565b915061494c8261574d565b602082019050919050565b6000614964601d836150ab565b915061496f82615776565b602082019050919050565b60006149876025836150ab565b91506149928261579f565b604082019050919050565b60006149aa6014836150ab565b91506149b5826157ee565b602082019050919050565b60006149cd6024836150ab565b91506149d882615817565b604082019050919050565b60006149f06014836150ab565b91506149fb82615866565b602082019050919050565b600060e083016000830151614a1e6000860182614b4c565b5060208301518482036020860152614a36828261471e565b91505060408301518482036040860152614a50828261471e565b9150506060830151614a656060860182614700565b506080830151614a7860808601826146e2565b5060a0830151614a8b60a08601826146e2565b5060c0830151614a9e60c08601826146e2565b508091505092915050565b600060e083016000830151614ac16000860182614b4c565b5060208301518482036020860152614ad9828261471e565b91505060408301518482036040860152614af3828261471e565b9150506060830151614b086060860182614700565b506080830151614b1b60808601826146e2565b5060a0830151614b2e60a08601826146e2565b5060c0830151614b4160c08601826146e2565b508091505092915050565b614b55816151f1565b82525050565b614b64816151f1565b82525050565b6000602082019050614b7f6000830184614600565b92915050565b60006020820190508181036000830152614b9f818461460f565b905092915050565b60006020820190508181036000830152614bc18184614684565b905092915050565b6000602082019050614bde60008301846146f1565b92915050565b6000602082019050614bf9600083018461470f565b92915050565b60006020820190508181036000830152614c198184614757565b905092915050565b60006040820190508181036000830152614c3b8185614757565b90508181036020830152614c4f8184614757565b90509392505050565b60006060820190508181036000830152614c728186614757565b90508181036020830152614c868185614757565b90508181036040830152614c9a8184614757565b9050949350505050565b60006020820190508181036000830152614cbd81614790565b9050919050565b60006020820190508181036000830152614cdd816147b3565b9050919050565b60006020820190508181036000830152614cfd816147d6565b9050919050565b60006020820190508181036000830152614d1d816147f9565b9050919050565b60006020820190508181036000830152614d3d8161481c565b9050919050565b60006020820190508181036000830152614d5d8161483f565b9050919050565b60006020820190508181036000830152614d7d81614862565b9050919050565b60006020820190508181036000830152614d9d81614885565b9050919050565b60006020820190508181036000830152614dbd816148a8565b9050919050565b60006020820190508181036000830152614ddd816148cb565b9050919050565b60006020820190508181036000830152614dfd816148ee565b9050919050565b60006020820190508181036000830152614e1d81614911565b9050919050565b60006020820190508181036000830152614e3d81614934565b9050919050565b60006020820190508181036000830152614e5d81614957565b9050919050565b60006020820190508181036000830152614e7d8161497a565b9050919050565b60006020820190508181036000830152614e9d8161499d565b9050919050565b60006020820190508181036000830152614ebd816149c0565b9050919050565b60006020820190508181036000830152614edd816149e3565b9050919050565b60006020820190508181036000830152614efe8184614aa9565b905092915050565b6000602082019050614f1b6000830184614b5b565b92915050565b600060e082019050614f36600083018a614b5b565b8181036020830152614f488189614757565b90508181036040830152614f5c8188614757565b9050614f6b606083018761470f565b614f7860808301866146f1565b614f8560a08301856146f1565b614f9260c08301846146f1565b98975050505050505050565b6000604082019050614fb36000830185614b5b565b614fc06020830184614b5b565b9392505050565b6000614fd1614fe2565b9050614fdd8282615281565b919050565b6000604051905090565b600067ffffffffffffffff821115615007576150066153b7565b5b615010826153fa565b9050602081019050919050565b6000819050602082019050919050565b6000819050602082019050919050565b600081519050919050565b600081519050919050565b600081519050919050565b6000602082019050919050565b6000602082019050919050565b600082825260208201905092915050565b600082825260208201905092915050565b600082825260208201905092915050565b600082825260208201905092915050565b60006150c7826151f1565b91506150d2836151f1565b9250827fffffffffffffffffffffffffffffffffffffffffffffffffffffffffffffffff03821115615107576151066152fb565b5b828201905092915050565b600061511d826151f1565b9150615128836151f1565b9250817fffffffffffffffffffffffffffffffffffffffffffffffffffffffffffffffff0483118215151615615161576151606152fb565b5b828202905092915050565b6000615177826151f1565b9150615182836151f1565b925082821015615195576151946152fb565b5b828203905092915050565b60006151ab826151d1565b9050919050565b60008115159050919050565b60008190506151cc8261588f565b919050565b600073ffffffffffffffffffffffffffffffffffffffff82169050919050565b6000819050919050565b6000615206826151be565b9050919050565b82818337600083830152505050565b60005b8381101561523a57808201518184015260208101905061521f565b83811115615249576000848401525b50505050565b6000600282049050600182168061526757607f821691505b6020821081141561527b5761527a615359565b5b50919050565b61528a826153fa565b810181811067ffffffffffffffff821117156152a9576152a86153b7565b5b80604052505050565b60006152bd826151f1565b91507fffffffffffffffffffffffffffffffffffffffffffffffffffffffffffffffff8214156152f0576152ef6152fb565b5b600182019050919050565b7f4e487b7100000000000000000000000000000000000000000000000000000000600052601160045260246000fd5b7f4e487b7100000000000000000000000000000000000000000000000000000000600052602160045260246000fd5b7f4e487b7100000000000000000000000000000000000000000000000000000000600052602260045260246000fd5b7f4e487b7100000000000000000000000000000000000000000000000000000000600052603260045260246000fd5b7f4e487b7100000000000000000000000000000000000000000000000000000000600052604160045260246000fd5b600080fd5b600080fd5b600080fd5b600080fd5b6000601f19601f8301169050919050565b7f547261636b206973206e6f7420636c6f73656400000000000000000000000000600082015250565b7f7468652076616c7565206f662074686520646f6e6174696f6e20697320746f6f60008201527f20736d616c6c0000000000000000000000000000000000000000000000000000602082015250565b7f7468652073706563696669656420747261636b206f776e657220646f65736e7460008201527f2065786973740000000000000000000000000000000000000000000000000000602082015250565b7f557365722069732063757272656e746c7920696e20766f74696e6720636f6f6c60008201527f646f776e20706572696f6420666f7220747261636b2e00000000000000000000602082015250565b7f4f776e61626c653a206e6577206f776e657220697320746865207a65726f206160008201527f6464726573730000000000000000000000000000000000000000000000000000602082015250565b7f416c6c20747261636b732068617665206265656e20636c6f736564206279206160008201527f646d696e00000000000000000000000000000000000000000000000000000000602082015250565b7f557365722069732063757272656e746c7920696e20656e74727920636f6f6c6460008201527f6f776e2e00000000000000000000000000000000000000000000000000000000602082015250565b7f55736572732063616e6e6f7420766f746520666f72207468652073616d65206560008201527f6e747279206d756c7469706c652074696d65732e000000000000000000000000602082015250565b7f7468652076616c7565206f662074686520646f6e6174696f6e20697320746f6f60008201527f206c617267652c206d6178696d756d2069732031204574686572000000000000602082015250565b7f416c6c20766f74696e6720686173206265656e20626c6f636b6564206279206160008201527f646d696e00000000000000000000000000000000000000000000000000000000602082015250565b7f5061757361626c653a2070617573656400000000000000000000000000000000600082015250565b7f547261636b20697320626c6f636b65642e000000000000000000000000000000600082015250565b7f4f776e61626c653a2063616c6c6572206973206e6f7420746865206f776e6572600082015250565b7f5573657220686173206265656e2062616e6e65642062792061646d696e000000600082015250565b7f416c6c20747261636b732068617665206265656e20626c6f636b65642062792060008201527f61646d696e000000000000000000000000000000000000000000000000000000602082015250565b7f547261636b206973206e6f7420626c6f636b6564000000000000000000000000600082015250565b7f557365722069732063757272656e746c7920696e20747261636b20636f6f6c6460008201527f6f776e2e00000000000000000000000000000000000000000000000000000000602082015250565b7f547261636b20646f6573206e6f74206578697374000000000000000000000000600082015250565b600381106158a05761589f61532a565b5b50565b6158ac816151a0565b81146158b757600080fd5b50565b6158c3816151b2565b81146158ce57600080fd5b50565b6158da816151f1565b81146158e557600080fd5b5056fea26469706673582212207aa8469ea28e340388ed59abf7832c827b480a9570e2d5c30773209ecdbafe3a64736f6c6343000807003354686973206973206120676f6f6420706c61636520746f20737461727420746f206765742068656c70576865726520746f2072656164206d6f726520616e64206765742074686520636f64652e68747470733a2f2f6769746875622e636f6d2f6e69616c6c6372656563682f626c6f636b636861696e2d646576656c6f7065722d626f6f7463616d702d66696e616c2d70726f6a656374",
  "immutableReferences": {},
  "source": "// SPDX-License-Identifier: MIT\r\npragma solidity 0.8.7;\r\n\r\nimport \"@openzeppelin/contracts/access/Ownable.sol\";\r\nimport \"@openzeppelin/contracts/security/Pausable.sol\";\r\n\r\n\r\n\r\n/**\r\n   * @title The Tracks contract enables the storage of collections of \r\n   * text information with voting enabled on each memeber of the collection\r\n   * through emitting events.\r\n   */\r\ncontract Tracks is Ownable, Pausable{\r\n  mapping(address => uint) public donations;\r\n  uint public minDonation;\r\n  uint public maxTrackCount; // Precent out of gas looping by restricting the amount of tracks to iterate\r\n  mapping (uint => Track) public tracks;\r\n  mapping (uint => uint[]) public trackEntries; //trackId => entryId[]\r\n  mapping (uint => uint) public entriesTrack; //entryId => trackId\r\n  mapping (uint => address) public trackOwners; //trackId => address\r\n  mapping (address => mapping (uint => bool)) public votesByAddress; //address => (entryId => bool)\r\n  mapping (address => TrackEvent) public trackEventsByUser; //address => TrackEvent\r\n  mapping (address => EntryEvent) public entryEventsByUser; //address => EntryEvent\r\n  mapping (uint => uint) public votesByTrack; //trackId => vote count\r\n  mapping (address => mapping(uint => uint)) public lastVoteTime; //address => trackId => time(s)\r\n  mapping(address => bool) public bannedUsers;\r\n\r\n  uint public nextTrackId;\r\n  uint public trackCount;\r\n  uint public nextEntryId;\r\n  uint public voteCooldownPeriod;\r\n  uint public entryEventCooldownPeriod;\r\n  uint public trackEventCooldownPeriod;\r\n  State public allTracksState;\r\n  State public allVotesState;\r\n  bool public trackCreationCooldownEnabled;\r\n  bool public votingCooldownEnabled;\r\n  bool public entryCreationCooldownEnabled;\r\n  \r\n  \r\n\tstruct EntryEvent {\r\n\t    uint time;\r\n\t    uint eventId;\r\n\t}\r\n\t\r\n\tstruct TrackEvent {\r\n\t    uint time;\r\n\t    uint trackId;\r\n\t}\r\n\t\r\n  enum State {\r\n      Open,\r\n      Closed,\r\n      Blocked\r\n  }\r\n  struct Track {\r\n      uint  trackId;\r\n      string  name;\r\n      string  desc;\r\n      State state;\r\n      bool exists;\r\n      bool visible;\r\n      bool pinned;\r\n  }\r\n\r\n  event TrackOpened(uint trackId);\r\n  event TrackClosed(uint trackId);\r\n  event TrackBlocked(uint trackId);\r\n  event TrackUnblocked(uint trackId);\r\n  event TrackCreated(uint indexed trackId, string name, string desc);\r\n  event EntryCreated(uint indexed trackId, uint indexed entryId, string name, string desc, string location);\r\n  event EntryVotedFor(uint indexed trackId, uint indexed entryId);\r\n\r\n\r\n  /**\r\n   * @dev Check if the track is in the 'open' state.\r\n   * @param _trackId The id of the track\r\n   */\r\n\tmodifier checkTrackOpen(uint _trackId) {\r\n\t\trequire(tracks[_trackId].state == State.Open);\r\n\t\trequire(allTracksState == State.Open, \"All tracks have been closed by admin\");\r\n    _;\r\n  }\r\n  \r\n\t/**\r\n   * @dev Check if the track is in the 'closed' state.\r\n   * @param _trackId The id of the track\r\n   */\r\n\tmodifier checkTrackClosed(uint _trackId) {\r\n\t\trequire(tracks[_trackId].state == State.Closed, \"Track is not closed\");\r\n    _;\r\n  }\r\n  \r\n  /**\r\n   * @dev Check if the track is in the 'blocked' state.\r\n   * @param _trackId The id of the track\r\n   */\r\n\tmodifier checkTrackBlocked(uint _trackId) {\r\n\t\trequire(tracks[_trackId].state == State.Blocked, \"Track is not blocked\");\r\n    _;\r\n  }\r\n  \r\n  /**\r\n   * @dev Check if the track has been 'blocked' by the admin.\r\n   */\r\n\tmodifier checkTracksNotBlockedByAdmin() {\r\n\t\trequire(allTracksState != State.Blocked, \"All tracks have been blocked by admin\");\r\n    _;\r\n  }\r\n  \r\n  \r\n  /**\r\n   * @dev Check if voting has been 'blocked' by the admin.\r\n   */\r\n\tmodifier checkVotingNotBlockedByAdmin() {\r\n\t\trequire(allVotesState != State.Blocked, \"All voting has been blocked by admin\");\r\n    _;\r\n  }\r\n  \r\n  \r\n  /**\r\n   * @dev Check if the track is not 'blocked'.\r\n   * @param _trackId The id of the track\r\n   */\r\n\tmodifier checkTrackUnblocked(uint _trackId) {\r\n\t\trequire(tracks[_trackId].state != State.Blocked, \"Track is blocked.\");\r\n    _;\r\n  }\r\n  \r\n  /**\r\n   * @dev Check if the track exists.\r\n   * @param _trackId The id of the track\r\n   */\r\n\tmodifier checkTrackExists(uint _trackId) {\r\n\t\t\trequire(tracks[_trackId].exists == true, \"Track does not exist\");\r\n\t    _;\r\n\t  }\r\n\r\n  /**\r\n   * @dev Check if the supplied user address has been banned.\r\n   * @param addr The address of the user to check.\r\n   */\r\n\tmodifier checkIfUserIsBanned(address addr){\r\n\t\t\trequire(\r\n\t\t\t    addr != owner()\r\n\t\t\t    || bannedUsers[addr] != true,\r\n\t\t\t    \"User has been banned by admin\"\r\n\t\t\t);\r\n\t    _;\r\n\t}\r\n\r\n  /**\r\n   * @dev Check if the supplied user address has voted for the given entry.\r\n   * @param addr The address of the user to check.\r\n   * @param _entryId The id of the entry to check.\r\n   */\r\n\tmodifier hasNotVotedForEntry(address addr, uint _entryId){\r\n\t    require(\r\n\t        addr == owner()\r\n\t        || votesByAddress[addr][_entryId] == false,\r\n\t        \"Users cannot vote for the same entry multiple times.\"\r\n\t    );\r\n\t    _;\r\n\t}\r\n\t\r\n\t/**\r\n   * @dev Check if the supplied user is in the voting cooldown period for the\r\n   *  given track.\r\n   * @param addr The address of the user to check.\r\n   * @param trackId The id of the track.\r\n   */\r\n\tmodifier isNotInVotingCooldown(address addr, uint trackId){\r\n\t    require(\r\n\t        !votingCooldownEnabled\r\n          || addr == owner()\r\n\t        || lastVoteTime[addr][trackId] == 0 \r\n\t        || lastVoteTime[addr][trackId] + voteCooldownPeriod > block.timestamp,\r\n\t        \"User is currently in voting cooldown period for track.\"\r\n\t    );\r\n\t    _;\r\n\t}\r\n\r\n  /**\r\n   * @dev Check if the supplied user is in the track creation cooldown period.\r\n   * @param addr The address of the user to check.\r\n   */\r\n\tmodifier isNotInTrackCreationCooldown(address addr){\r\n\t    require(\r\n\t        !trackCreationCooldownEnabled\r\n          || addr == owner()\r\n\t        || trackEventsByUser[addr].time == 0\r\n          || (trackEventsByUser[addr].time + trackEventCooldownPeriod) > block.timestamp,\r\n\t       \"User is currently in track cooldown.\"\r\n\t     );\r\n\t    _;\r\n\t}\r\n\t\r\n\t/**\r\n   * @dev Check if the supplied user is in the entry creation cooldown period.\r\n   * @param addr The address of the user to check.\r\n   */\r\n\tmodifier isNotInEntryCreationCooldown(address addr){\r\n\t    require(\r\n\t        !entryCreationCooldownEnabled\r\n\t        || addr == owner()\r\n\t        || entryEventsByUser[addr].time == 0\r\n\t        || (entryEventsByUser[addr].time + entryEventCooldownPeriod) > block.timestamp,\r\n\t        \"User is currently in entry cooldown.\"\r\n\t    );\r\n\t    _;\r\n\t}\r\n\t\r\n\t/**\r\n   * @dev Create the new contract.\r\n   *  The default is to have tracks open with cooldowns enabled.\r\n   */\r\n  constructor () {\r\n      voteCooldownPeriod = 1 minutes;\r\n      entryEventCooldownPeriod = 1 minutes;\r\n      trackEventCooldownPeriod = 1 minutes;\r\n      allTracksState = State.Open;\r\n      allVotesState = State.Open;\r\n      enableCooldowns(true);\r\n      createHelpTrack();\r\n\t\t\tsetMaxTrackCount(1000); // Set max tracks to 1 million by default\r\n      setMinDonation(0.00001 ether);\r\n  }\r\n\r\n  /**\r\n   * @dev Create the default help documentation links.\r\n   */\r\n  function createHelpTrack() internal {\r\n    uint trackId = addTrack(\"Help\", \"This is a good place to start to get help\");\r\n    addEntry(trackId, \"Homepage\", \"Where to read more and get the code.\", \"https://github.com/niallcreech/blockchain-developer-bootcamp-final-project\");\r\n  \ttracks[trackId].pinned = true;\r\n  \tblockTrack(trackId);\r\n  }\r\n\t/**\r\n   * @dev Get all tracks.\r\n   * \tThere is a hard cap on the amount of tracks that we will return\r\n   * @return array of all tracks by object\r\n   */\r\n  function getTracks() public view returns ( Track[] memory) {\r\n      uint _cappedTrackCount = (trackCount <= maxTrackCount) ? trackCount : maxTrackCount;\r\n      uint _startIndex = (trackCount - _cappedTrackCount);\r\n      Track[] memory _tracks = new Track[](_cappedTrackCount);\r\n      for (uint i=_startIndex; i<_tracks.length; i++) {\r\n          _tracks[i] = tracks[i];\r\n      }\r\n      return _tracks;\r\n  }\r\n\r\n  /**\r\n   * @dev Get a specific tracks object\r\n   * @param _trackId The id of the track\r\n   * @return the relevant Track object\r\n   */\r\n  function getTrack(uint _trackId) public view checkTrackUnblocked(_trackId) returns (Track memory) {\r\n      return tracks[_trackId];\r\n  }\r\n\t\r\n\r\n  /**\r\n   * @dev Get all the entries attached to a specific track\r\n   * @param _trackId The id of the track\r\n   * @return all the Entry ids attached to the track \r\n   */\r\n  function getEntriesForTrack(uint _trackId) public view returns (uint[] memory){\r\n      return trackEntries[_trackId];\r\n  }\r\n\r\n\t/**\r\n   * @dev Set a specific track to the 'Open' state.\r\n   * @param _trackId The id of the track\r\n   */\r\n  function openTrack(uint _trackId) public checkTrackExists(_trackId) checkTrackClosed(_trackId) checkIfUserIsBanned(msg.sender) {\r\n      tracks[_trackId].state = State.Open;\r\n      tracks[_trackId].visible = true;\r\n      emit TrackOpened(_trackId);\r\n  }\r\n\r\n\t/**\r\n   * @dev Set a specific track to the 'Closed' state.\r\n   * @param _trackId The id of the track\r\n   */\r\n\tfunction closeTrack(uint _trackId) public checkTrackExists(_trackId) checkTrackOpen(_trackId) checkIfUserIsBanned(msg.sender){\r\n      tracks[_trackId].state = State.Closed;\r\n      tracks[_trackId].visible = false;\r\n      emit TrackClosed(_trackId);\r\n  }\r\n\r\n\t/**\r\n   * @dev Set a specific track to the 'Blocked' state.\r\n   * @param _trackId The id of the track\r\n   */\r\n\tfunction blockTrack(uint _trackId) public checkTrackExists(_trackId) checkTrackUnblocked(_trackId) checkIfUserIsBanned(msg.sender){\r\n      tracks[_trackId].state = State.Blocked;\r\n      emit TrackBlocked(_trackId);\r\n  }\r\n\r\n  /**\r\n   * @dev Unblock a specific track by settings to the 'Closed' state.\r\n   * @param _trackId The id of the track\r\n   */\r\n  function unblockTrack(uint _trackId) public checkTrackExists(_trackId) checkTrackBlocked(_trackId) checkIfUserIsBanned(msg.sender) {\r\n      tracks[_trackId].state = State.Closed;\r\n      emit TrackUnblocked(_trackId);\r\n  }\r\n\r\n\t/**\r\n   * @dev Get the state of a track as a string key.\r\n   * @param _trackId The id of the track\r\n   */\r\n  function getTrackState(uint _trackId) public view returns (string memory){\r\n      string memory status;\r\n      if (tracks[_trackId].exists == false){\r\n          status = \"null\";\r\n      } else if (tracks[_trackId].state == State.Open){\r\n          status = \"open\";\r\n      } else if (tracks[_trackId].state == State.Closed){\r\n          status = \"closed\";\r\n      } else if (tracks[_trackId].state == State.Blocked){\r\n          status = \"blocked\";\r\n      } else {\r\n          status = \"null\";\r\n      }\r\n      return status;\r\n  }\r\n\r\n\t/**\r\n   * @dev Check a specific track is in the 'Open' state.\r\n   * @param _trackId The id of the track\r\n   */\r\n  function isTrackOpen(uint _trackId) public view checkTrackExists(_trackId) returns (bool){\r\n      return (tracks[_trackId].state == State.Open);\r\n  }\r\n\r\n  /**\r\n   * @dev Check a specific track is in the 'Open' state.\r\n   * @param _trackId The id of the track\r\n   */\r\n  function isTrackClosed(uint _trackId) public view checkTrackExists(_trackId) returns (bool){\r\n      return (tracks[_trackId].state == State.Closed);\r\n  }\r\n  \r\n  /**\r\n   * @dev Check a specific track is in the 'Blocked' state.\r\n   * @param _trackId The id of the track\r\n   */\r\n  function isTrackBlocked(uint _trackId) public view checkTrackExists(_trackId) returns (bool){\r\n      return (tracks[_trackId].state == State.Blocked);\r\n  }\r\n\r\n\t/**\r\n   * @dev Vote for an entry. \r\n   *  Voting emits an event. It also sets a number of variables to follow\r\n   *  users voting patterns so that multiple voting and cooldowns can be \r\n   *  monitored.\r\n   * @param _entryId The id of the entry\r\n   */\r\n  function vote(uint _entryId) public checkTrackOpen(entriesTrack[_entryId]) hasNotVotedForEntry(msg.sender, _entryId) checkVotingNotBlockedByAdmin checkIfUserIsBanned(msg.sender) isNotInVotingCooldown(msg.sender, entriesTrack[_entryId]) {\r\n    uint _trackId = entriesTrack[_entryId];\r\n    votesByAddress[msg.sender][_entryId] = true;\r\n    lastVoteTime[msg.sender][_trackId] = block.timestamp;\r\n    votesByTrack[_trackId]++;\r\n    emit EntryVotedFor(_trackId, _entryId);\r\n  }\r\n\r\n  /**\r\n   * @dev Add an entry to a specific track.\r\n   *  The entry is attached to a track as stored data on-chain. However, the\r\n   *  actual data belonging to the entry is emitted as an event.\r\n   * @param _trackId The id of the track\r\n   * @return the id of the new entry.\r\n   */\r\n  function addEntry(uint _trackId, string memory _name, string memory _desc, string memory _location) public checkTracksNotBlockedByAdmin checkIfUserIsBanned(msg.sender) isNotInEntryCreationCooldown(msg.sender)  checkTrackOpen(_trackId) returns (uint) {\r\n    uint entryId = nextEntryId;\r\n    require(entriesTrack[entryId] == 0);\r\n    trackEntries[_trackId].push(entryId);\r\n    entriesTrack[entryId] = _trackId;\r\n    entryEventsByUser[msg.sender] = EntryEvent(block.timestamp, entryId);\r\n    nextEntryId++;\r\n    emit EntryCreated(_trackId, entryId, _name, _desc, _location);\r\n    return entryId;\r\n  }\r\n\r\n\t/**\r\n   * @dev Add a track. The track is stored as data on-chain.\r\n   * @param _name the name of the track.\r\n   * @param _desc a brief description of what the track is about.\r\n   * @return the trackId of the new track.\r\n   */\r\n  function addTrack(string memory _name, string memory _desc)\r\n    public\r\n      checkTracksNotBlockedByAdmin\r\n      isNotInTrackCreationCooldown(msg.sender)\r\n      checkIfUserIsBanned(msg.sender)\r\n    returns (uint) {\r\n    uint trackId = nextTrackId;\r\n    tracks[trackId] = Track({\r\n      trackId: trackId,\r\n      name: _name,\r\n      desc: _desc,\r\n      state: State.Open,\r\n      exists: true,\r\n      visible: true,\r\n      pinned: false\r\n    });\r\n    trackEventsByUser[msg.sender] = TrackEvent(block.timestamp, trackId);\r\n    trackOwners[trackId] = msg.sender;\r\n    nextTrackId++;\r\n    trackCount++;\r\n    emit TrackCreated(trackId, _name, _desc);\r\n    return trackId;\r\n  }\r\n   \r\n  /**\r\n  * @dev Set all existing tracks to the 'Blocked' state.\r\n  * @param enable true to block, false to unblock.\r\n  */\r\n  function disableAllTracks(bool enable) public onlyOwner {\r\n    if (enable) {\r\n      allTracksState = State.Blocked;   \r\n    } else {\r\n      allTracksState = State.Open;   \r\n    }\r\n  }\r\n  \r\n  /**\r\n   * @dev Set all voting to the 'Blocked' state.\r\n   * @param enable, true to block, false to unblock.\r\n   */ \r\n  function disableAllVoting(bool enable) public onlyOwner {\r\n       if (enable) {\r\n           allVotesState = State.Blocked;   \r\n       } else {\r\n           allVotesState = State.Open;   \r\n       }\r\n\t}\r\n\r\n  /**\r\n   * @dev Ban a user from participation. \r\n   *  This function is only availble to the contract owner.\r\n   * @param addr, address of the user to block\r\n   * @param banned, true to ban, false to unban.\r\n   */ \r\n  function banUser(address addr, bool banned) public onlyOwner {\r\n \t\tbannedUsers[addr] = banned;   \r\n\t}\r\n\t\r\n\t/**\r\n   * @dev CHeck if a user is bannedfrom participation. \r\n   * @param addr, address of the user to block\r\n   * @return true if banned, false otherwise.\r\n   */ \r\n  function isUserBanned(address addr) public view returns (bool) {\r\n \t\treturn bannedUsers[addr];   \r\n\t}\r\n\r\n  /**\r\n   * @dev Check if a user is in a cooldown period for track creation.\r\n   *  Cooldown allows automation blocking to balance throughput.\r\n   * @return true if user is in cooldown, false otherwise.\r\n   */ \r\n  function isSenderInTrackCreationCooldown() public view returns (bool) {\r\n      if (trackCreationCooldownEnabled\r\n          \t&& trackEventsByUser[msg.sender].time > 0\r\n\t        \t&& (trackEventsByUser[msg.sender].time + trackEventCooldownPeriod) > block.timestamp\r\n\t      \t){\r\n\t            return true;\r\n\t   \t}\r\n\t   \treturn false;\r\n\t}\r\n\t\r\n\t/**\r\n   * @dev Check if a user is in a cooldown period for entry creation.\r\n   *  Cooldown allows automation blocking to balance throughput.\r\n   * @return true if user is in cooldown, false otherwise.\r\n   */ \r\n\tfunction isSenderInEntryCreationCooldown() public view returns (bool) {\r\n\t   \tif (entryCreationCooldownEnabled\r\n          \t&& entryEventsByUser[msg.sender].time > 0\r\n\t        \t&& (entryEventsByUser[msg.sender].time + entryEventCooldownPeriod) > block.timestamp\r\n\t      \t){\r\n\t            return true;\r\n\t   \t}\r\n\t   \treturn false;\r\n\t}\r\n\t\r\n\t/**\r\n   * @dev Check if a user is in a cooldown period for voting.\r\n   *  Cooldown allows automation blocking to balance throughput.\r\n   * @return true if user is in cooldown, false otherwise.\r\n   */ \r\n\tfunction isSenderInVotingCooldown(uint trackId) public view returns (bool) {\r\n\t   \tif (votingCooldownEnabled\r\n          \t&& lastVoteTime[msg.sender][trackId] > 0\r\n\t        \t&& (lastVoteTime[msg.sender][trackId] + voteCooldownPeriod) > block.timestamp\r\n\t      \t){\r\n\t            return true;\r\n\t   \t}\r\n\t   \treturn false;\r\n\t}\r\n\t\r\n\t/**\r\n   * @dev Enable or disable the use of cooldowns.\r\n   *  Cooldown allows automation blocking to balance throughput.\r\n   * @param enable A bool set to true to enable cooldowns, false to disable.\r\n   */ \r\n  function enableCooldowns(bool enable) public onlyOwner {\r\n    trackCreationCooldownEnabled = enable;\r\n    votingCooldownEnabled = enable;\r\n    entryCreationCooldownEnabled = enable;\r\n  }\r\n  \r\n  /**\r\n   * @dev set the maximum amount of tracks to iterate through\r\n   * @param _maxCount the maximum length of tracks\r\n   */\r\n   function setMaxTrackCount(uint _maxCount) public onlyOwner{\r\n       maxTrackCount = _maxCount;\r\n   }\r\n  /**\r\n   * @dev Set the minimum donation price.\r\n   * @param _minDonation min donation\r\n   */ \r\n  function setMinDonation(uint _minDonation) public onlyOwner {\r\n    require(_minDonation > 0 && _minDonation < 0.001 ether); // Force min donation to not be excessive as a sanity check\r\n    minDonation = _minDonation;\r\n  }\r\n  \r\n  /**\r\n   * @dev Set the percentage of transaction fees to add to donations.\r\n   * \tDonations are restricted to (0, 1] ether.\r\n   * @param _donation in wei to donate\r\n   */ \r\n  function donateToContractOwner(uint _donation) external payable whenNotPaused {\r\n    require(_donation > minDonation && _donation < 1 ether);\r\n    donations[owner()] += _donation;\r\n  }\r\n  \r\n  /**\r\n   * @dev Set the percentage of transaction fees to add to donations.\r\n   * \tDonations are restricted to (0, 1] ether.\r\n   * @param _trackId id of the track to donate to\r\n   * @param _donation in wei to donate\r\n   */ \r\n  function donateToTrackOwner(uint _trackId, uint _donation) external  payable whenNotPaused {\r\n    require(_donation > (2 * minDonation), \"the value of the donation is too small\");\r\n    require(_donation < 1 ether, \"the value of the donation is too large, maximum is 1 Ether\");\r\n    require(trackOwners[_trackId] != address(0), \"the specified track owner doesnt exist\");\r\n    donations[trackOwners[_trackId]] += (_donation - minDonation);\r\n    donations[owner()] += minDonation;\r\n  }\r\n\r\n  /**\r\n   * @dev Withdraw the donations to the senders address (if allowed)\r\n   * \tDonations are restricted to (0, 1] ether.\r\n   */ \r\n  function collectDonations() external payable {// whenNotPaused returns (uint){\r\n    //require(msg.sender > address(0) && donations[msg.sender] > 0, \"the track author has no donations.\");\r\n    //payable(msg.sender).transfer(donations[msg.sender]);\r\n    payable(msg.sender).transfer(1);\r\n   //return donations[msg.sender];\r\n  }\r\n  \r\n}\r\n\r\n\r\n\t",
  "sourcePath": "D:\\projects\\blockchain-developer-bootcamp-final-project\\contracts\\Tracks.sol",
  "compiler": {
    "name": "solc",
    "version": "0.8.7+commit.e28d00a7.Emscripten.clang"
  },
  "schemaVersion": "3.4.3",
  "updatedAt": "2021-10-26T14:38:03.866Z",
  "devdoc": {
    "kind": "dev",
    "methods": {
      "addEntry(uint256,string,string,string)": {
        "details": "Add an entry to a specific track.  The entry is attached to a track as stored data on-chain. However, the  actual data belonging to the entry is emitted as an event.",
        "params": {
          "_trackId": "The id of the track"
        },
        "returns": {
          "_0": "the id of the new entry."
        }
      },
      "addTrack(string,string)": {
        "details": "Add a track. The track is stored as data on-chain.",
        "params": {
          "_desc": "a brief description of what the track is about.",
          "_name": "the name of the track."
        },
        "returns": {
          "_0": "the trackId of the new track."
        }
      },
      "banUser(address,bool)": {
        "details": "Ban a user from participation.   This function is only availble to the contract owner.",
        "params": {
          "addr": ", address of the user to block",
          "banned": ", true to ban, false to unban."
        }
      },
      "blockTrack(uint256)": {
        "details": "Set a specific track to the 'Blocked' state.",
        "params": {
          "_trackId": "The id of the track"
        }
      },
      "closeTrack(uint256)": {
        "details": "Set a specific track to the 'Closed' state.",
        "params": {
          "_trackId": "The id of the track"
        }
      },
      "collectDonations()": {
        "details": "Withdraw the donations to the senders address (if allowed) \tDonations are restricted to (0, 1] ether."
      },
      "constructor": {
        "details": "Create the new contract.  The default is to have tracks open with cooldowns enabled."
      },
      "disableAllTracks(bool)": {
        "details": "Set all existing tracks to the 'Blocked' state.",
        "params": {
          "enable": "true to block, false to unblock."
        }
      },
      "disableAllVoting(bool)": {
        "details": "Set all voting to the 'Blocked' state.",
        "params": {
          "enable": ", true to block, false to unblock."
        }
      },
      "donateToContractOwner(uint256)": {
        "details": "Set the percentage of transaction fees to add to donations. \tDonations are restricted to (0, 1] ether.",
        "params": {
          "_donation": "in wei to donate"
        }
      },
      "donateToTrackOwner(uint256,uint256)": {
        "details": "Set the percentage of transaction fees to add to donations. \tDonations are restricted to (0, 1] ether.",
        "params": {
          "_donation": "in wei to donate",
          "_trackId": "id of the track to donate to"
        }
      },
      "enableCooldowns(bool)": {
        "details": "Enable or disable the use of cooldowns.  Cooldown allows automation blocking to balance throughput.",
        "params": {
          "enable": "A bool set to true to enable cooldowns, false to disable."
        }
      },
      "getEntriesForTrack(uint256)": {
        "details": "Get all the entries attached to a specific track",
        "params": {
          "_trackId": "The id of the track"
        },
        "returns": {
          "_0": "all the Entry ids attached to the track "
        }
      },
      "getTrack(uint256)": {
        "details": "Get a specific tracks object",
        "params": {
          "_trackId": "The id of the track"
        },
        "returns": {
          "_0": "the relevant Track object"
        }
      },
      "getTrackState(uint256)": {
        "details": "Get the state of a track as a string key.",
        "params": {
          "_trackId": "The id of the track"
        }
      },
      "getTracks()": {
        "details": "Get all tracks. \tThere is a hard cap on the amount of tracks that we will return",
        "returns": {
          "_0": "array of all tracks by object"
        }
      },
      "isSenderInEntryCreationCooldown()": {
        "details": "Check if a user is in a cooldown period for entry creation.  Cooldown allows automation blocking to balance throughput.",
        "returns": {
          "_0": "true if user is in cooldown, false otherwise."
        }
      },
      "isSenderInTrackCreationCooldown()": {
        "details": "Check if a user is in a cooldown period for track creation.  Cooldown allows automation blocking to balance throughput.",
        "returns": {
          "_0": "true if user is in cooldown, false otherwise."
        }
      },
      "isSenderInVotingCooldown(uint256)": {
        "details": "Check if a user is in a cooldown period for voting.  Cooldown allows automation blocking to balance throughput.",
        "returns": {
          "_0": "true if user is in cooldown, false otherwise."
        }
      },
      "isTrackBlocked(uint256)": {
        "details": "Check a specific track is in the 'Blocked' state.",
        "params": {
          "_trackId": "The id of the track"
        }
      },
      "isTrackClosed(uint256)": {
        "details": "Check a specific track is in the 'Open' state.",
        "params": {
          "_trackId": "The id of the track"
        }
      },
      "isTrackOpen(uint256)": {
        "details": "Check a specific track is in the 'Open' state.",
        "params": {
          "_trackId": "The id of the track"
        }
      },
      "isUserBanned(address)": {
        "details": "CHeck if a user is bannedfrom participation. ",
        "params": {
          "addr": ", address of the user to block"
        },
        "returns": {
          "_0": "true if banned, false otherwise."
        }
      },
      "openTrack(uint256)": {
        "details": "Set a specific track to the 'Open' state.",
        "params": {
          "_trackId": "The id of the track"
        }
      },
      "owner()": {
        "details": "Returns the address of the current owner."
      },
      "paused()": {
        "details": "Returns true if the contract is paused, and false otherwise."
      },
      "renounceOwnership()": {
        "details": "Leaves the contract without owner. It will not be possible to call `onlyOwner` functions anymore. Can only be called by the current owner. NOTE: Renouncing ownership will leave the contract without an owner, thereby removing any functionality that is only available to the owner."
      },
      "setMaxTrackCount(uint256)": {
        "details": "set the maximum amount of tracks to iterate through",
        "params": {
          "_maxCount": "the maximum length of tracks"
        }
      },
      "setMinDonation(uint256)": {
        "details": "Set the minimum donation price.",
        "params": {
          "_minDonation": "min donation"
        }
      },
      "transferOwnership(address)": {
        "details": "Transfers ownership of the contract to a new account (`newOwner`). Can only be called by the current owner."
      },
      "unblockTrack(uint256)": {
        "details": "Unblock a specific track by settings to the 'Closed' state.",
        "params": {
          "_trackId": "The id of the track"
        }
      },
      "vote(uint256)": {
        "details": "Vote for an entry.   Voting emits an event. It also sets a number of variables to follow  users voting patterns so that multiple voting and cooldowns can be   monitored.",
        "params": {
          "_entryId": "The id of the entry"
        }
      }
    },
    "title": "The Tracks contract enables the storage of collections of  text information with voting enabled on each memeber of the collection through emitting events.",
    "version": 1
  },
  "userdoc": {
    "kind": "user",
    "methods": {},
    "version": 1
  }
}