{
  "contractName": "Tracks",
  "abi": [
    {
      "inputs": [],
      "stateMutability": "nonpayable",
      "type": "constructor"
    },
    {
      "anonymous": false,
      "inputs": [
        {
          "indexed": true,
          "internalType": "uint256",
          "name": "trackId",
          "type": "uint256"
        },
        {
          "indexed": true,
          "internalType": "uint256",
          "name": "entryId",
          "type": "uint256"
        },
        {
          "indexed": false,
          "internalType": "string",
          "name": "name",
          "type": "string"
        },
        {
          "indexed": false,
          "internalType": "string",
          "name": "desc",
          "type": "string"
        },
        {
          "indexed": false,
          "internalType": "string",
          "name": "location",
          "type": "string"
        }
      ],
      "name": "EntryCreated",
      "type": "event"
    },
    {
      "anonymous": false,
      "inputs": [
        {
          "indexed": true,
          "internalType": "uint256",
          "name": "trackId",
          "type": "uint256"
        },
        {
          "indexed": true,
          "internalType": "uint256",
          "name": "entryId",
          "type": "uint256"
        }
      ],
      "name": "EntryVotedFor",
      "type": "event"
    },
    {
      "anonymous": false,
      "inputs": [
        {
          "indexed": true,
          "internalType": "address",
          "name": "previousOwner",
          "type": "address"
        },
        {
          "indexed": true,
          "internalType": "address",
          "name": "newOwner",
          "type": "address"
        }
      ],
      "name": "OwnershipTransferred",
      "type": "event"
    },
    {
      "anonymous": false,
      "inputs": [
        {
          "indexed": false,
          "internalType": "address",
          "name": "account",
          "type": "address"
        }
      ],
      "name": "Paused",
      "type": "event"
    },
    {
      "anonymous": false,
      "inputs": [
        {
          "indexed": false,
          "internalType": "uint256",
          "name": "trackId",
          "type": "uint256"
        }
      ],
      "name": "TrackBlocked",
      "type": "event"
    },
    {
      "anonymous": false,
      "inputs": [
        {
          "indexed": false,
          "internalType": "uint256",
          "name": "trackId",
          "type": "uint256"
        }
      ],
      "name": "TrackClosed",
      "type": "event"
    },
    {
      "anonymous": false,
      "inputs": [
        {
          "indexed": true,
          "internalType": "uint256",
          "name": "trackId",
          "type": "uint256"
        },
        {
          "indexed": false,
          "internalType": "string",
          "name": "name",
          "type": "string"
        },
        {
          "indexed": false,
          "internalType": "string",
          "name": "desc",
          "type": "string"
        }
      ],
      "name": "TrackCreated",
      "type": "event"
    },
    {
      "anonymous": false,
      "inputs": [
        {
          "indexed": false,
          "internalType": "uint256",
          "name": "trackId",
          "type": "uint256"
        }
      ],
      "name": "TrackOpened",
      "type": "event"
    },
    {
      "anonymous": false,
      "inputs": [
        {
          "indexed": false,
          "internalType": "uint256",
          "name": "trackId",
          "type": "uint256"
        }
      ],
      "name": "TrackUnblocked",
      "type": "event"
    },
    {
      "anonymous": false,
      "inputs": [
        {
          "indexed": false,
          "internalType": "address",
          "name": "account",
          "type": "address"
        }
      ],
      "name": "Unpaused",
      "type": "event"
    },
    {
      "inputs": [],
      "name": "allTracksState",
      "outputs": [
        {
          "internalType": "enum Tracks.State",
          "name": "",
          "type": "uint8"
        }
      ],
      "stateMutability": "view",
      "type": "function"
    },
    {
      "inputs": [],
      "name": "allVotesState",
      "outputs": [
        {
          "internalType": "enum Tracks.State",
          "name": "",
          "type": "uint8"
        }
      ],
      "stateMutability": "view",
      "type": "function"
    },
    {
      "inputs": [
        {
          "internalType": "address",
          "name": "",
          "type": "address"
        }
      ],
      "name": "bannedUsers",
      "outputs": [
        {
          "internalType": "bool",
          "name": "",
          "type": "bool"
        }
      ],
      "stateMutability": "view",
      "type": "function"
    },
    {
      "inputs": [
        {
          "internalType": "address",
          "name": "",
          "type": "address"
        }
      ],
      "name": "donations",
      "outputs": [
        {
          "internalType": "uint256",
          "name": "",
          "type": "uint256"
        }
      ],
      "stateMutability": "view",
      "type": "function"
    },
    {
      "inputs": [
        {
          "internalType": "uint256",
          "name": "",
          "type": "uint256"
        }
      ],
      "name": "entriesTrack",
      "outputs": [
        {
          "internalType": "uint256",
          "name": "",
          "type": "uint256"
        }
      ],
      "stateMutability": "view",
      "type": "function"
    },
    {
      "inputs": [],
      "name": "entryCreationCooldownEnabled",
      "outputs": [
        {
          "internalType": "bool",
          "name": "",
          "type": "bool"
        }
      ],
      "stateMutability": "view",
      "type": "function"
    },
    {
      "inputs": [],
      "name": "entryEventCooldownPeriod",
      "outputs": [
        {
          "internalType": "uint256",
          "name": "",
          "type": "uint256"
        }
      ],
      "stateMutability": "view",
      "type": "function"
    },
    {
      "inputs": [
        {
          "internalType": "address",
          "name": "",
          "type": "address"
        }
      ],
      "name": "entryEventsByUser",
      "outputs": [
        {
          "internalType": "uint256",
          "name": "time",
          "type": "uint256"
        },
        {
          "internalType": "uint256",
          "name": "eventId",
          "type": "uint256"
        }
      ],
      "stateMutability": "view",
      "type": "function"
    },
    {
      "inputs": [
        {
          "internalType": "address",
          "name": "",
          "type": "address"
        },
        {
          "internalType": "uint256",
          "name": "",
          "type": "uint256"
        }
      ],
      "name": "lastVoteTime",
      "outputs": [
        {
          "internalType": "uint256",
          "name": "",
          "type": "uint256"
        }
      ],
      "stateMutability": "view",
      "type": "function"
    },
    {
      "inputs": [],
      "name": "maxTrackCount",
      "outputs": [
        {
          "internalType": "uint256",
          "name": "",
          "type": "uint256"
        }
      ],
      "stateMutability": "view",
      "type": "function"
    },
    {
      "inputs": [],
      "name": "minDonation",
      "outputs": [
        {
          "internalType": "uint256",
          "name": "",
          "type": "uint256"
        }
      ],
      "stateMutability": "view",
      "type": "function"
    },
    {
      "inputs": [],
      "name": "nextEntryId",
      "outputs": [
        {
          "internalType": "uint256",
          "name": "",
          "type": "uint256"
        }
      ],
      "stateMutability": "view",
      "type": "function"
    },
    {
      "inputs": [],
      "name": "nextTrackId",
      "outputs": [
        {
          "internalType": "uint256",
          "name": "",
          "type": "uint256"
        }
      ],
      "stateMutability": "view",
      "type": "function"
    },
    {
      "inputs": [],
      "name": "owner",
      "outputs": [
        {
          "internalType": "address",
          "name": "",
          "type": "address"
        }
      ],
      "stateMutability": "view",
      "type": "function"
    },
    {
      "inputs": [],
      "name": "paused",
      "outputs": [
        {
          "internalType": "bool",
          "name": "",
          "type": "bool"
        }
      ],
      "stateMutability": "view",
      "type": "function"
    },
    {
      "inputs": [],
      "name": "renounceOwnership",
      "outputs": [],
      "stateMutability": "nonpayable",
      "type": "function"
    },
    {
      "inputs": [],
      "name": "trackCount",
      "outputs": [
        {
          "internalType": "uint256",
          "name": "",
          "type": "uint256"
        }
      ],
      "stateMutability": "view",
      "type": "function"
    },
    {
      "inputs": [],
      "name": "trackCreationCooldownEnabled",
      "outputs": [
        {
          "internalType": "bool",
          "name": "",
          "type": "bool"
        }
      ],
      "stateMutability": "view",
      "type": "function"
    },
    {
      "inputs": [
        {
          "internalType": "uint256",
          "name": "",
          "type": "uint256"
        },
        {
          "internalType": "uint256",
          "name": "",
          "type": "uint256"
        }
      ],
      "name": "trackEntries",
      "outputs": [
        {
          "internalType": "uint256",
          "name": "",
          "type": "uint256"
        }
      ],
      "stateMutability": "view",
      "type": "function"
    },
    {
      "inputs": [],
      "name": "trackEventCooldownPeriod",
      "outputs": [
        {
          "internalType": "uint256",
          "name": "",
          "type": "uint256"
        }
      ],
      "stateMutability": "view",
      "type": "function"
    },
    {
      "inputs": [
        {
          "internalType": "address",
          "name": "",
          "type": "address"
        }
      ],
      "name": "trackEventsByUser",
      "outputs": [
        {
          "internalType": "uint256",
          "name": "time",
          "type": "uint256"
        },
        {
          "internalType": "uint256",
          "name": "trackId",
          "type": "uint256"
        }
      ],
      "stateMutability": "view",
      "type": "function"
    },
    {
      "inputs": [
        {
          "internalType": "uint256",
          "name": "",
          "type": "uint256"
        }
      ],
      "name": "trackOwners",
      "outputs": [
        {
          "internalType": "address",
          "name": "",
          "type": "address"
        }
      ],
      "stateMutability": "view",
      "type": "function"
    },
    {
      "inputs": [
        {
          "internalType": "uint256",
          "name": "",
          "type": "uint256"
        }
      ],
      "name": "tracks",
      "outputs": [
        {
          "internalType": "uint256",
          "name": "trackId",
          "type": "uint256"
        },
        {
          "internalType": "string",
          "name": "name",
          "type": "string"
        },
        {
          "internalType": "string",
          "name": "desc",
          "type": "string"
        },
        {
          "internalType": "enum Tracks.State",
          "name": "state",
          "type": "uint8"
        },
        {
          "internalType": "bool",
          "name": "exists",
          "type": "bool"
        },
        {
          "internalType": "bool",
          "name": "visible",
          "type": "bool"
        },
        {
          "internalType": "bool",
          "name": "pinned",
          "type": "bool"
        }
      ],
      "stateMutability": "view",
      "type": "function"
    },
    {
      "inputs": [
        {
          "internalType": "address",
          "name": "newOwner",
          "type": "address"
        }
      ],
      "name": "transferOwnership",
      "outputs": [],
      "stateMutability": "nonpayable",
      "type": "function"
    },
    {
      "inputs": [],
      "name": "voteCooldownPeriod",
      "outputs": [
        {
          "internalType": "uint256",
          "name": "",
          "type": "uint256"
        }
      ],
      "stateMutability": "view",
      "type": "function"
    },
    {
      "inputs": [
        {
          "internalType": "address",
          "name": "",
          "type": "address"
        },
        {
          "internalType": "uint256",
          "name": "",
          "type": "uint256"
        }
      ],
      "name": "votesByAddress",
      "outputs": [
        {
          "internalType": "bool",
          "name": "",
          "type": "bool"
        }
      ],
      "stateMutability": "view",
      "type": "function"
    },
    {
      "inputs": [
        {
          "internalType": "uint256",
          "name": "",
          "type": "uint256"
        }
      ],
      "name": "votesByTrack",
      "outputs": [
        {
          "internalType": "uint256",
          "name": "",
          "type": "uint256"
        }
      ],
      "stateMutability": "view",
      "type": "function"
    },
    {
      "inputs": [],
      "name": "votingCooldownEnabled",
      "outputs": [
        {
          "internalType": "bool",
          "name": "",
          "type": "bool"
        }
      ],
      "stateMutability": "view",
      "type": "function"
    },
    {
      "inputs": [],
      "name": "getTracks",
      "outputs": [
        {
          "components": [
            {
              "internalType": "uint256",
              "name": "trackId",
              "type": "uint256"
            },
            {
              "internalType": "string",
              "name": "name",
              "type": "string"
            },
            {
              "internalType": "string",
              "name": "desc",
              "type": "string"
            },
            {
              "internalType": "enum Tracks.State",
              "name": "state",
              "type": "uint8"
            },
            {
              "internalType": "bool",
              "name": "exists",
              "type": "bool"
            },
            {
              "internalType": "bool",
              "name": "visible",
              "type": "bool"
            },
            {
              "internalType": "bool",
              "name": "pinned",
              "type": "bool"
            }
          ],
          "internalType": "struct Tracks.Track[]",
          "name": "",
          "type": "tuple[]"
        }
      ],
      "stateMutability": "view",
      "type": "function"
    },
    {
      "inputs": [
        {
          "internalType": "uint256",
          "name": "_trackId",
          "type": "uint256"
        }
      ],
      "name": "getTrack",
      "outputs": [
        {
          "components": [
            {
              "internalType": "uint256",
              "name": "trackId",
              "type": "uint256"
            },
            {
              "internalType": "string",
              "name": "name",
              "type": "string"
            },
            {
              "internalType": "string",
              "name": "desc",
              "type": "string"
            },
            {
              "internalType": "enum Tracks.State",
              "name": "state",
              "type": "uint8"
            },
            {
              "internalType": "bool",
              "name": "exists",
              "type": "bool"
            },
            {
              "internalType": "bool",
              "name": "visible",
              "type": "bool"
            },
            {
              "internalType": "bool",
              "name": "pinned",
              "type": "bool"
            }
          ],
          "internalType": "struct Tracks.Track",
          "name": "",
          "type": "tuple"
        }
      ],
      "stateMutability": "view",
      "type": "function"
    },
    {
      "inputs": [
        {
          "internalType": "uint256",
          "name": "_trackId",
          "type": "uint256"
        }
      ],
      "name": "getEntriesForTrack",
      "outputs": [
        {
          "internalType": "uint256[]",
          "name": "",
          "type": "uint256[]"
        }
      ],
      "stateMutability": "view",
      "type": "function"
    },
    {
      "inputs": [
        {
          "internalType": "uint256",
          "name": "_trackId",
          "type": "uint256"
        }
      ],
      "name": "openTrack",
      "outputs": [],
      "stateMutability": "nonpayable",
      "type": "function"
    },
    {
      "inputs": [
        {
          "internalType": "uint256",
          "name": "_trackId",
          "type": "uint256"
        }
      ],
      "name": "closeTrack",
      "outputs": [],
      "stateMutability": "nonpayable",
      "type": "function"
    },
    {
      "inputs": [
        {
          "internalType": "uint256",
          "name": "_trackId",
          "type": "uint256"
        }
      ],
      "name": "blockTrack",
      "outputs": [],
      "stateMutability": "nonpayable",
      "type": "function"
    },
    {
      "inputs": [
        {
          "internalType": "uint256",
          "name": "_trackId",
          "type": "uint256"
        }
      ],
      "name": "unblockTrack",
      "outputs": [],
      "stateMutability": "nonpayable",
      "type": "function"
    },
    {
      "inputs": [
        {
          "internalType": "uint256",
          "name": "_trackId",
          "type": "uint256"
        }
      ],
      "name": "getTrackState",
      "outputs": [
        {
          "internalType": "string",
          "name": "",
          "type": "string"
        }
      ],
      "stateMutability": "view",
      "type": "function"
    },
    {
      "inputs": [
        {
          "internalType": "uint256",
          "name": "_trackId",
          "type": "uint256"
        }
      ],
      "name": "isTrackOpen",
      "outputs": [
        {
          "internalType": "bool",
          "name": "",
          "type": "bool"
        }
      ],
      "stateMutability": "view",
      "type": "function"
    },
    {
      "inputs": [
        {
          "internalType": "uint256",
          "name": "_trackId",
          "type": "uint256"
        }
      ],
      "name": "isTrackClosed",
      "outputs": [
        {
          "internalType": "bool",
          "name": "",
          "type": "bool"
        }
      ],
      "stateMutability": "view",
      "type": "function"
    },
    {
      "inputs": [
        {
          "internalType": "uint256",
          "name": "_trackId",
          "type": "uint256"
        }
      ],
      "name": "isTrackBlocked",
      "outputs": [
        {
          "internalType": "bool",
          "name": "",
          "type": "bool"
        }
      ],
      "stateMutability": "view",
      "type": "function"
    },
    {
      "inputs": [
        {
          "internalType": "uint256",
          "name": "_entryId",
          "type": "uint256"
        }
      ],
      "name": "vote",
      "outputs": [],
      "stateMutability": "nonpayable",
      "type": "function"
    },
    {
      "inputs": [
        {
          "internalType": "uint256",
          "name": "_trackId",
          "type": "uint256"
        },
        {
          "internalType": "string",
          "name": "_name",
          "type": "string"
        },
        {
          "internalType": "string",
          "name": "_desc",
          "type": "string"
        },
        {
          "internalType": "string",
          "name": "_location",
          "type": "string"
        }
      ],
      "name": "addEntry",
      "outputs": [
        {
          "internalType": "uint256",
          "name": "",
          "type": "uint256"
        }
      ],
      "stateMutability": "nonpayable",
      "type": "function"
    },
    {
      "inputs": [
        {
          "internalType": "string",
          "name": "_name",
          "type": "string"
        },
        {
          "internalType": "string",
          "name": "_desc",
          "type": "string"
        }
      ],
      "name": "addTrack",
      "outputs": [
        {
          "internalType": "uint256",
          "name": "",
          "type": "uint256"
        }
      ],
      "stateMutability": "nonpayable",
      "type": "function"
    },
    {
      "inputs": [
        {
          "internalType": "bool",
          "name": "enable",
          "type": "bool"
        }
      ],
      "name": "disableAllTracks",
      "outputs": [],
      "stateMutability": "nonpayable",
      "type": "function"
    },
    {
      "inputs": [
        {
          "internalType": "bool",
          "name": "enable",
          "type": "bool"
        }
      ],
      "name": "disableAllVoting",
      "outputs": [],
      "stateMutability": "nonpayable",
      "type": "function"
    },
    {
      "inputs": [
        {
          "internalType": "address",
          "name": "addr",
          "type": "address"
        },
        {
          "internalType": "bool",
          "name": "banned",
          "type": "bool"
        }
      ],
      "name": "banUser",
      "outputs": [],
      "stateMutability": "nonpayable",
      "type": "function"
    },
    {
      "inputs": [
        {
          "internalType": "address",
          "name": "addr",
          "type": "address"
        }
      ],
      "name": "isUserBanned",
      "outputs": [
        {
          "internalType": "bool",
          "name": "",
          "type": "bool"
        }
      ],
      "stateMutability": "view",
      "type": "function"
    },
    {
      "inputs": [],
      "name": "isSenderInTrackCreationCooldown",
      "outputs": [
        {
          "internalType": "bool",
          "name": "",
          "type": "bool"
        }
      ],
      "stateMutability": "view",
      "type": "function"
    },
    {
      "inputs": [],
      "name": "isSenderInEntryCreationCooldown",
      "outputs": [
        {
          "internalType": "bool",
          "name": "",
          "type": "bool"
        }
      ],
      "stateMutability": "view",
      "type": "function"
    },
    {
      "inputs": [
        {
          "internalType": "uint256",
          "name": "trackId",
          "type": "uint256"
        }
      ],
      "name": "isSenderInVotingCooldown",
      "outputs": [
        {
          "internalType": "bool",
          "name": "",
          "type": "bool"
        }
      ],
      "stateMutability": "view",
      "type": "function"
    },
    {
      "inputs": [
        {
          "internalType": "bool",
          "name": "enable",
          "type": "bool"
        }
      ],
      "name": "enableCooldowns",
      "outputs": [],
      "stateMutability": "nonpayable",
      "type": "function"
    },
    {
      "inputs": [
        {
          "internalType": "uint256",
          "name": "_maxCount",
          "type": "uint256"
        }
      ],
      "name": "setMaxTrackCount",
      "outputs": [],
      "stateMutability": "nonpayable",
      "type": "function"
    },
    {
      "inputs": [
        {
          "internalType": "uint256",
          "name": "_minDonation",
          "type": "uint256"
        }
      ],
      "name": "setMinDonation",
      "outputs": [],
      "stateMutability": "nonpayable",
      "type": "function"
    },
    {
      "inputs": [
        {
          "internalType": "uint256",
          "name": "_donation",
          "type": "uint256"
        }
      ],
      "name": "donateToOwner",
      "outputs": [],
      "stateMutability": "payable",
      "type": "function"
    },
    {
      "inputs": [
        {
          "internalType": "uint256",
          "name": "_trackId",
          "type": "uint256"
        },
        {
          "internalType": "uint256",
          "name": "_donation",
          "type": "uint256"
        }
      ],
      "name": "donateToTrackOwner",
      "outputs": [],
      "stateMutability": "payable",
      "type": "function"
    },
    {
      "inputs": [],
      "name": "withdraw",
      "outputs": [],
      "stateMutability": "nonpayable",
      "type": "function"
    }
  ],
  "bytecode": "0x60806040523480156200001157600080fd5b5062000032620000266200011360201b60201c565b6200011b60201b60201c565b60008060146101000a81548160ff021916908315150217905550603c601181905550603c601281905550603c6013819055506000601460006101000a81548160ff021916908360028111156200008d576200008c62001713565b5b02179055506000601460016101000a81548160ff02191690836002811115620000bb57620000ba62001713565b5b0217905550620000d26001620001df60201b60201c565b620000e2620002bf60201b60201c565b620000f6620f4240620003e260201b60201c565b6200010d6509184e72a0006200047b60201b60201c565b62001962565b600033905090565b60008060009054906101000a900473ffffffffffffffffffffffffffffffffffffffff169050816000806101000a81548173ffffffffffffffffffffffffffffffffffffffff021916908373ffffffffffffffffffffffffffffffffffffffff1602179055508173ffffffffffffffffffffffffffffffffffffffff168173ffffffffffffffffffffffffffffffffffffffff167f8be0079c531659141344cd1fd0a4f28419497f9722a3daafe3b4186f6b6457e060405160405180910390a35050565b620001ef6200011360201b60201c565b73ffffffffffffffffffffffffffffffffffffffff16620002156200053560201b60201c565b73ffffffffffffffffffffffffffffffffffffffff16146200026e576040517f08c379a00000000000000000000000000000000000000000000000000000000081526004016200026590620014e0565b60405180910390fd5b80601460026101000a81548160ff02191690831515021790555080601460036101000a81548160ff02191690831515021790555080601460046101000a81548160ff02191690831515021790555050565b6000620003216040518060400160405280600481526020017f48656c7000000000000000000000000000000000000000000000000000000000815250604051806060016040528060298152602001620073ac602991396200055e60201b60201c565b90506200039e816040518060400160405280600881526020017f486f6d6570616765000000000000000000000000000000000000000000000000815250604051806060016040528060248152602001620073d5602491396040518060800160405280604a8152602001620073f9604a913962000a8560201b60201c565b5060016004600083815260200190815260200160002060030160036101000a81548160ff021916908315150217905550620003df8162000f5160201b60201c565b50565b620003f26200011360201b60201c565b73ffffffffffffffffffffffffffffffffffffffff16620004186200053560201b60201c565b73ffffffffffffffffffffffffffffffffffffffff161462000471576040517f08c379a00000000000000000000000000000000000000000000000000000000081526004016200046890620014e0565b60405180910390fd5b8060038190555050565b6200048b6200011360201b60201c565b73ffffffffffffffffffffffffffffffffffffffff16620004b16200053560201b60201c565b73ffffffffffffffffffffffffffffffffffffffff16146200050a576040517f08c379a00000000000000000000000000000000000000000000000000000000081526004016200050190620014e0565b60405180910390fd5b60008111801562000521575066038d7ea4c6800081105b6200052b57600080fd5b8060028190555050565b60008060009054906101000a900473ffffffffffffffffffffffffffffffffffffffff16905090565b600060028081111562000576576200057562001713565b5b601460009054906101000a900460ff1660028111156200059b576200059a62001713565b5b1415620005df576040517f08c379a0000000000000000000000000000000000000000000000000000000008152600401620005d69062001524565b60405180910390fd5b33601460029054906101000a900460ff161580620006375750620006086200053560201b60201c565b73ffffffffffffffffffffffffffffffffffffffff168173ffffffffffffffffffffffffffffffffffffffff16145b806200068557506000600960008373ffffffffffffffffffffffffffffffffffffffff1673ffffffffffffffffffffffffffffffffffffffff16815260200190815260200160002060000154145b80620006e1575042601354600960008473ffffffffffffffffffffffffffffffffffffffff1673ffffffffffffffffffffffffffffffffffffffff16815260200190815260200160002060000154620006df9190620015c3565b115b62000723576040517f08c379a00000000000000000000000000000000000000000000000000000000081526004016200071a9062001546565b60405180910390fd5b33620007346200053560201b60201c565b73ffffffffffffffffffffffffffffffffffffffff168173ffffffffffffffffffffffffffffffffffffffff16141580620007c0575060011515600d60008373ffffffffffffffffffffffffffffffffffffffff1673ffffffffffffffffffffffffffffffffffffffff16815260200190815260200160002060009054906101000a900460ff16151514155b62000802576040517f08c379a0000000000000000000000000000000000000000000000000000000008152600401620007f99062001502565b60405180910390fd5b6000600e5490506040518060e00160405280828152602001878152602001868152602001600060028111156200083d576200083c62001713565b5b8152602001600115158152602001600115158152602001600015158152506004600083815260200190815260200160002060008201518160000155602082015181600101908051906020019062000896929190620011b3565b506040820151816002019080519060200190620008b5929190620011b3565b5060608201518160030160006101000a81548160ff02191690836002811115620008e457620008e362001713565b5b021790555060808201518160030160016101000a81548160ff02191690831515021790555060a08201518160030160026101000a81548160ff02191690831515021790555060c08201518160030160036101000a81548160ff021916908315150217905550905050604051806040016040528042815260200182815250600960003373ffffffffffffffffffffffffffffffffffffffff1673ffffffffffffffffffffffffffffffffffffffff1681526020019081526020016000206000820151816000015560208201518160010155905050336007600083815260200190815260200160002060006101000a81548173ffffffffffffffffffffffffffffffffffffffff021916908373ffffffffffffffffffffffffffffffffffffffff160217905550600e600081548092919062000a1e9062001696565b9190505550600f600081548092919062000a389062001696565b9190505550807f21579433a032855e20e8afc48e980ddae0b6285e4aa03370f03192be12bea28b878760405162000a71929190620013ed565b60405180910390a280935050505092915050565b600060028081111562000a9d5762000a9c62001713565b5b601460009054906101000a900460ff16600281111562000ac25762000ac162001713565b5b141562000b06576040517f08c379a000000000000000000000000000000000000000000000000000000000815260040162000afd9062001524565b60405180910390fd5b3362000b176200053560201b60201c565b73ffffffffffffffffffffffffffffffffffffffff168173ffffffffffffffffffffffffffffffffffffffff1614158062000ba3575060011515600d60008373ffffffffffffffffffffffffffffffffffffffff1673ffffffffffffffffffffffffffffffffffffffff16815260200190815260200160002060009054906101000a900460ff16151514155b62000be5576040517f08c379a000000000000000000000000000000000000000000000000000000000815260040162000bdc9062001502565b60405180910390fd5b33601460049054906101000a900460ff16158062000c3d575062000c0e6200053560201b60201c565b73ffffffffffffffffffffffffffffffffffffffff168173ffffffffffffffffffffffffffffffffffffffff16145b8062000c8b57506000600a60008373ffffffffffffffffffffffffffffffffffffffff1673ffffffffffffffffffffffffffffffffffffffff16815260200190815260200160002060000154145b8062000ce7575042601254600a60008473ffffffffffffffffffffffffffffffffffffffff1673ffffffffffffffffffffffffffffffffffffffff1681526020019081526020016000206000015462000ce59190620015c3565b115b62000d29576040517f08c379a000000000000000000000000000000000000000000000000000000000815260040162000d20906200149c565b60405180910390fd5b866000600281111562000d415762000d4062001713565b5b6004600083815260200190815260200160002060030160009054906101000a900460ff16600281111562000d7a5762000d7962001713565b5b1462000d8557600080fd5b6000600281111562000d9c5762000d9b62001713565b5b601460009054906101000a900460ff16600281111562000dc15762000dc062001713565b5b1462000e04576040517f08c379a000000000000000000000000000000000000000000000000000000000815260040162000dfb906200147a565b60405180910390fd5b60006010549050600060066000838152602001908152602001600020541462000e2c57600080fd5b600560008a8152602001908152602001600020819080600181540180825580915050600190039060005260206000200160009091909190915055886006600083815260200190815260200160002081905550604051806040016040528042815260200182815250600a60003373ffffffffffffffffffffffffffffffffffffffff1673ffffffffffffffffffffffffffffffffffffffff16815260200190815260200160002060008201518160000155602082015181600101559050506010600081548092919062000efe9062001696565b919050555080897f313f81e8cc8fe5ab3d1facaeffd8e0d26068ff1776d23a4621a5bdb0c891c8178a8a8a60405162000f3a9392919062001428565b60405180910390a380945050505050949350505050565b80600115156004600083815260200190815260200160002060030160019054906101000a900460ff1615151462000fbf576040517f08c379a000000000000000000000000000000000000000000000000000000000815260040162000fb69062001568565b60405180910390fd5b8160028081111562000fd65762000fd562001713565b5b6004600083815260200190815260200160002060030160009054906101000a900460ff1660028111156200100f576200100e62001713565b5b141562001053576040517f08c379a00000000000000000000000000000000000000000000000000000000081526004016200104a90620014be565b60405180910390fd5b33620010646200053560201b60201c565b73ffffffffffffffffffffffffffffffffffffffff168173ffffffffffffffffffffffffffffffffffffffff16141580620010f0575060011515600d60008373ffffffffffffffffffffffffffffffffffffffff1673ffffffffffffffffffffffffffffffffffffffff16815260200190815260200160002060009054906101000a900460ff16151514155b62001132576040517f08c379a0000000000000000000000000000000000000000000000000000000008152600401620011299062001502565b60405180910390fd5b60026004600086815260200190815260200160002060030160006101000a81548160ff021916908360028111156200116f576200116e62001713565b5b02179055507fa589501e457bda1f31782af099f2695facb8e79d38d121802e6ac1c53237b84184604051620011a591906200158a565b60405180910390a150505050565b828054620011c19062001660565b90600052602060002090601f016020900481019282620011e5576000855562001231565b82601f106200120057805160ff191683800117855562001231565b8280016001018555821562001231579182015b828111156200123057825182559160200191906001019062001213565b5b50905062001240919062001244565b5090565b5b808211156200125f57600081600090555060010162001245565b5090565b60006200127082620015a7565b6200127c8185620015b2565b93506200128e8185602086016200162a565b620012998162001771565b840191505092915050565b6000620012b3602483620015b2565b9150620012c08262001782565b604082019050919050565b6000620012da602483620015b2565b9150620012e782620017d1565b604082019050919050565b600062001301601183620015b2565b91506200130e8262001820565b602082019050919050565b600062001328602083620015b2565b9150620013358262001849565b602082019050919050565b60006200134f601d83620015b2565b91506200135c8262001872565b602082019050919050565b600062001376602583620015b2565b915062001383826200189b565b604082019050919050565b60006200139d602483620015b2565b9150620013aa82620018ea565b604082019050919050565b6000620013c4601483620015b2565b9150620013d18262001939565b602082019050919050565b620013e78162001620565b82525050565b6000604082019050818103600083015262001409818562001263565b905081810360208301526200141f818462001263565b90509392505050565b6000606082019050818103600083015262001444818662001263565b905081810360208301526200145a818562001263565b9050818103604083015262001470818462001263565b9050949350505050565b600060208201905081810360008301526200149581620012a4565b9050919050565b60006020820190508181036000830152620014b781620012cb565b9050919050565b60006020820190508181036000830152620014d981620012f2565b9050919050565b60006020820190508181036000830152620014fb8162001319565b9050919050565b600060208201905081810360008301526200151d8162001340565b9050919050565b600060208201905081810360008301526200153f8162001367565b9050919050565b6000602082019050818103600083015262001561816200138e565b9050919050565b600060208201905081810360008301526200158381620013b5565b9050919050565b6000602082019050620015a16000830184620013dc565b92915050565b600081519050919050565b600082825260208201905092915050565b6000620015d08262001620565b9150620015dd8362001620565b9250827fffffffffffffffffffffffffffffffffffffffffffffffffffffffffffffffff03821115620016155762001614620016e4565b5b828201905092915050565b6000819050919050565b60005b838110156200164a5780820151818401526020810190506200162d565b838111156200165a576000848401525b50505050565b600060028204905060018216806200167957607f821691505b6020821081141562001690576200168f62001742565b5b50919050565b6000620016a38262001620565b91507fffffffffffffffffffffffffffffffffffffffffffffffffffffffffffffffff821415620016d957620016d8620016e4565b5b600182019050919050565b7f4e487b7100000000000000000000000000000000000000000000000000000000600052601160045260246000fd5b7f4e487b7100000000000000000000000000000000000000000000000000000000600052602160045260246000fd5b7f4e487b7100000000000000000000000000000000000000000000000000000000600052602260045260246000fd5b6000601f19601f8301169050919050565b7f416c6c20747261636b732068617665206265656e20636c6f736564206279206160008201527f646d696e00000000000000000000000000000000000000000000000000000000602082015250565b7f557365722069732063757272656e746c7920696e20656e74727920636f6f6c6460008201527f6f776e2e00000000000000000000000000000000000000000000000000000000602082015250565b7f547261636b20697320626c6f636b65642e000000000000000000000000000000600082015250565b7f4f776e61626c653a2063616c6c6572206973206e6f7420746865206f776e6572600082015250565b7f5573657220686173206265656e2062616e6e65642062792061646d696e000000600082015250565b7f416c6c20747261636b732068617665206265656e20626c6f636b65642062792060008201527f61646d696e000000000000000000000000000000000000000000000000000000602082015250565b7f557365722069732063757272656e746c7920696e20747261636b20636f6f6c6460008201527f6f776e2e00000000000000000000000000000000000000000000000000000000602082015250565b7f547261636b20646f6573206e6f74206578697374000000000000000000000000600082015250565b615a3a80620019726000396000f3fe6080604052600436106103505760003560e01c80638da5cb5b116101c6578063c67f8b8a116100f7578063e6b2cf6c11610095578063f2fde38b1161006f578063f2fde38b14610d0c578063f838e33f14610d35578063f9eafb5714610d60578063fb00844714610d8b57610350565b8063e6b2cf6c14610c7a578063eea85bc514610ca5578063ef75976114610ce357610350565b8063d02f4483116100d1578063d02f448314610b97578063d249662414610bd4578063db7c01e214610bff578063debe8ab714610c3c57610350565b8063c67f8b8a14610ae0578063caa2c2ad14610b1d578063cc6cb19a14610b5a57610350565b8063a2e3458611610164578063ab35678c1161013e578063ab35678c14610a45578063add509c014610a70578063b7a93fa514610a99578063bb855ee614610ab557610350565b8063a2e34586146109ae578063a5bf8ea9146109f1578063a72024c614610a1a57610350565b806395ab2b98116101a057806395ab2b98146108cc578063962dd807146109095780639ebe639a146109465780639ed9b4fd1461097157610350565b80638da5cb5b1461083b5780638ee223f914610866578063924e9b951461088f57610350565b8063423b7032116102a057806368e982b01161023e57806383a6595f1161021857806383a6595f146107815780638501eb38146107aa57806387548fcf146107d35780638988d078146107fe57610350565b806368e982b014610716578063715018a61461073f5780637e8898ea1461075657610350565b80635c975abb1161027a5780635c975abb146106465780635e11ca8214610671578063629058ca1461069c57806366cb5936146106d957610350565b8063423b7032146105b75780634bc558b3146105e05780635be852971461061d57610350565b80631f6c5f001161030d5780632e42ddbf116102e75780632e42ddbf146104e957806333abbe511461052657806336de40be146105635780633ccfd60b146105a057610350565b80631f6c5f001461046a57806328ae3ebb146104935780632a3f2f89146104be57610350565b80630121b93f146103555780630955ccff1461037e5780630ea4d2ee146103a95780630fb6d4ac146103e6578063109699b6146104025780631c0e02251461043f575b600080fd5b34801561036157600080fd5b5061037c60048036038101906103779190614599565b610db6565b005b34801561038a57600080fd5b5061039361135b565b6040516103a09190614ff3565b60405180910390f35b3480156103b557600080fd5b506103d060048036038101906103cb9190614599565b611361565b6040516103dd9190614cec565b60405180910390f35b61040060048036038101906103fb9190614681565b6115bc565b005b34801561040e57600080fd5b5061042960048036038101906104249190614681565b61183a565b6040516104369190614ff3565b60405180910390f35b34801561044b57600080fd5b5061045461186b565b6040516104619190614ff3565b60405180910390f35b34801561047657600080fd5b50610491600480360381019061048c9190614599565b611871565b005b34801561049f57600080fd5b506104a8611ae5565b6040516104b59190614cb6565b60405180910390f35b3480156104ca57600080fd5b506104d3611bb5565b6040516104e09190614ff3565b60405180910390f35b3480156104f557600080fd5b50610510600480360381019061050b91906145c6565b611bbb565b60405161051d9190614ff3565b60405180910390f35b34801561053257600080fd5b5061054d60048036038101906105489190614599565b61204d565b60405161055a9190614cb6565b60405180910390f35b34801561056f57600080fd5b5061058a60048036038101906105859190614521565b61210d565b6040516105979190614ff3565b60405180910390f35b3480156105ac57600080fd5b506105b56125ff565b005b3480156105c357600080fd5b506105de60048036038101906105d99190614599565b61271b565b005b3480156105ec57600080fd5b50610607600480360381019061060291906144b4565b6129cf565b6040516106149190614ff3565b60405180910390f35b34801561062957600080fd5b50610644600480360381019061063f91906144f4565b6129f4565b005b34801561065257600080fd5b5061065b612ac1565b6040516106689190614cb6565b60405180910390f35b34801561067d57600080fd5b50610686612ad7565b6040516106939190614cd1565b60405180910390f35b3480156106a857600080fd5b506106c360048036038101906106be9190614599565b612aea565b6040516106d09190614fd1565b60405180910390f35b3480156106e557600080fd5b5061070060048036038101906106fb9190614599565b612d5d565b60405161070d9190614cb6565b60405180910390f35b34801561072257600080fd5b5061073d60048036038101906107389190614599565b612e1d565b005b34801561074b57600080fd5b50610754613061565b005b34801561076257600080fd5b5061076b6130e9565b6040516107789190614cb6565b60405180910390f35b34801561078d57600080fd5b506107a860048036038101906107a39190614599565b6130fc565b005b3480156107b657600080fd5b506107d160048036038101906107cc9190614599565b6131a1565b005b3480156107df57600080fd5b506107e8613227565b6040516107f59190614c72565b60405180910390f35b34801561080a57600080fd5b5061082560048036038101906108209190614447565b6134df565b6040516108329190614cb6565b60405180910390f35b34801561084757600080fd5b506108506134ff565b60405161085d9190614c57565b60405180910390f35b34801561087257600080fd5b5061088d60048036038101906108889190614474565b613528565b005b34801561089b57600080fd5b506108b660048036038101906108b19190614599565b6135ff565b6040516108c39190614ff3565b60405180910390f35b3480156108d857600080fd5b506108f360048036038101906108ee9190614599565b613617565b6040516109009190614c57565b60405180910390f35b34801561091557600080fd5b50610930600480360381019061092b9190614599565b61364a565b60405161093d9190614ff3565b60405180910390f35b34801561095257600080fd5b5061095b613662565b6040516109689190614cb6565b60405180910390f35b34801561097d57600080fd5b5061099860048036038101906109939190614447565b613675565b6040516109a59190614cb6565b60405180910390f35b3480156109ba57600080fd5b506109d560048036038101906109d09190614599565b6136cb565b6040516109e8979695949392919061500e565b60405180910390f35b3480156109fd57600080fd5b50610a186004803603810190610a1391906144f4565b613851565b005b348015610a2657600080fd5b50610a2f613932565b604051610a3c9190614ff3565b60405180910390f35b348015610a5157600080fd5b50610a5a613938565b604051610a679190614ff3565b60405180910390f35b348015610a7c57600080fd5b50610a976004803603810190610a9291906144f4565b61393e565b005b610ab36004803603810190610aae9190614599565b613a1f565b005b348015610ac157600080fd5b50610aca613ae8565b604051610ad79190614ff3565b60405180910390f35b348015610aec57600080fd5b50610b076004803603810190610b029190614599565b613aee565b604051610b149190614cb6565b60405180910390f35b348015610b2957600080fd5b50610b446004803603810190610b3f9190614599565b613bdc565b604051610b519190614cb6565b60405180910390f35b348015610b6657600080fd5b50610b816004803603810190610b7c9190614447565b613c9b565b604051610b8e9190614ff3565b60405180910390f35b348015610ba357600080fd5b50610bbe6004803603810190610bb99190614599565b613cb3565b604051610bcb9190614c94565b60405180910390f35b348015610be057600080fd5b50610be9613d1e565b604051610bf69190614cb6565b60405180910390f35b348015610c0b57600080fd5b50610c266004803603810190610c2191906144b4565b613d31565b604051610c339190614cb6565b60405180910390f35b348015610c4857600080fd5b50610c636004803603810190610c5e9190614447565b613d60565b604051610c7192919061508b565b60405180910390f35b348015610c8657600080fd5b50610c8f613d84565b604051610c9c9190614ff3565b60405180910390f35b348015610cb157600080fd5b50610ccc6004803603810190610cc79190614447565b613d8a565b604051610cda92919061508b565b60405180910390f35b348015610cef57600080fd5b50610d0a6004803603810190610d059190614599565b613dae565b005b348015610d1857600080fd5b50610d336004803603810190610d2e9190614447565b613ff3565b005b348015610d4157600080fd5b50610d4a6140eb565b604051610d579190614ff3565b60405180910390f35b348015610d6c57600080fd5b50610d756140f1565b604051610d829190614cb6565b60405180910390f35b348015610d9757600080fd5b50610da06141c1565b604051610dad9190614cd1565b60405180910390f35b600660008281526020019081526020016000205460006002811115610dde57610ddd615446565b5b6004600083815260200190815260200160002060030160009054906101000a900460ff166002811115610e1457610e13615446565b5b14610e1e57600080fd5b60006002811115610e3257610e31615446565b5b601460009054906101000a900460ff166002811115610e5457610e53615446565b5b14610e94576040517f08c379a0000000000000000000000000000000000000000000000000000000008152600401610e8b90614e31565b60405180910390fd5b3382610e9e6134ff565b73ffffffffffffffffffffffffffffffffffffffff168273ffffffffffffffffffffffffffffffffffffffff161480610f38575060001515600860008473ffffffffffffffffffffffffffffffffffffffff1673ffffffffffffffffffffffffffffffffffffffff168152602001908152602001600020600083815260200190815260200160002060009054906101000a900460ff161515145b610f77576040517f08c379a0000000000000000000000000000000000000000000000000000000008152600401610f6e90614e71565b60405180910390fd5b600280811115610f8a57610f89615446565b5b601460019054906101000a900460ff166002811115610fac57610fab615446565b5b1415610fed576040517f08c379a0000000000000000000000000000000000000000000000000000000008152600401610fe490614eb1565b60405180910390fd5b33610ff66134ff565b73ffffffffffffffffffffffffffffffffffffffff168173ffffffffffffffffffffffffffffffffffffffff16141580611081575060011515600d60008373ffffffffffffffffffffffffffffffffffffffff1673ffffffffffffffffffffffffffffffffffffffff16815260200190815260200160002060009054906101000a900460ff16151514155b6110c0576040517f08c379a00000000000000000000000000000000000000000000000000000000081526004016110b790614f31565b60405180910390fd5b336006600087815260200190815260200160002054601460039054906101000a900460ff16158061112357506110f46134ff565b73ffffffffffffffffffffffffffffffffffffffff168273ffffffffffffffffffffffffffffffffffffffff16145b8061117e57506000600c60008473ffffffffffffffffffffffffffffffffffffffff1673ffffffffffffffffffffffffffffffffffffffff168152602001908152602001600020600083815260200190815260200160002054145b806111e5575042601154600c60008573ffffffffffffffffffffffffffffffffffffffff1673ffffffffffffffffffffffffffffffffffffffff1681526020019081526020016000206000848152602001908152602001600020546111e391906151a9565b115b611224576040517f08c379a000000000000000000000000000000000000000000000000000000000815260040161121b90614df1565b60405180910390fd5b6000600660008981526020019081526020016000205490506001600860003373ffffffffffffffffffffffffffffffffffffffff1673ffffffffffffffffffffffffffffffffffffffff16815260200190815260200160002060008a815260200190815260200160002060006101000a81548160ff02191690831515021790555042600c60003373ffffffffffffffffffffffffffffffffffffffff1673ffffffffffffffffffffffffffffffffffffffff168152602001908152602001600020600083815260200190815260200160002081905550600b6000828152602001908152602001600020600081548092919061131e9061539f565b919050555087817f23b2bfc0c368fdbec2cf6a0878f8f7ab7d497f92861fa232c0111ca69f63dc8260405160405180910390a35050505050505050565b60115481565b606080600015156004600085815260200190815260200160002060030160019054906101000a900460ff16151514156113d1576040518060400160405280600481526020017f6e756c6c0000000000000000000000000000000000000000000000000000000081525090506115b3565b600060028111156113e5576113e4615446565b5b6004600085815260200190815260200160002060030160009054906101000a900460ff16600281111561141b5761141a615446565b5b141561145e576040518060400160405280600481526020017f6f70656e0000000000000000000000000000000000000000000000000000000081525090506115b2565b6001600281111561147257611471615446565b5b6004600085815260200190815260200160002060030160009054906101000a900460ff1660028111156114a8576114a7615446565b5b14156114eb576040518060400160405280600681526020017f636c6f736564000000000000000000000000000000000000000000000000000081525090506115b1565b6002808111156114fe576114fd615446565b5b6004600085815260200190815260200160002060030160009054906101000a900460ff16600281111561153457611533615446565b5b1415611577576040518060400160405280600781526020017f626c6f636b65640000000000000000000000000000000000000000000000000081525090506115b0565b6040518060400160405280600481526020017f6e756c6c0000000000000000000000000000000000000000000000000000000081525090505b5b5b5b80915050919050565b6115c4612ac1565b15611604576040517f08c379a00000000000000000000000000000000000000000000000000000000081526004016115fb90614ed1565b60405180910390fd5b600254600261161391906151ff565b3411611654576040517f08c379a000000000000000000000000000000000000000000000000000000000815260040161164b90614db1565b60405180910390fd5b670de0b6b3a7640000341061169e576040517f08c379a000000000000000000000000000000000000000000000000000000000815260040161169590614e91565b60405180910390fd5b600073ffffffffffffffffffffffffffffffffffffffff166007600084815260200190815260200160002060009054906101000a900473ffffffffffffffffffffffffffffffffffffffff1673ffffffffffffffffffffffffffffffffffffffff161415611741576040517f08c379a000000000000000000000000000000000000000000000000000000000815260040161173890614dd1565b60405180910390fd5b6002548161174f9190615259565b600160006007600086815260200190815260200160002060009054906101000a900473ffffffffffffffffffffffffffffffffffffffff1673ffffffffffffffffffffffffffffffffffffffff1673ffffffffffffffffffffffffffffffffffffffff16815260200190815260200160002060008282546117d091906151a9565b92505081905550600254600160006117e66134ff565b73ffffffffffffffffffffffffffffffffffffffff1673ffffffffffffffffffffffffffffffffffffffff168152602001908152602001600020600082825461182f91906151a9565b925050819055505050565b6005602052816000526040600020818154811061185657600080fd5b90600052602060002001600091509150505481565b60025481565b80600115156004600083815260200190815260200160002060030160019054906101000a900460ff161515146118dc576040517f08c379a00000000000000000000000000000000000000000000000000000000081526004016118d390614fb1565b60405180910390fd5b81600160028111156118f1576118f0615446565b5b6004600083815260200190815260200160002060030160009054906101000a900460ff16600281111561192757611926615446565b5b14611967576040517f08c379a000000000000000000000000000000000000000000000000000000000815260040161195e90614d91565b60405180910390fd5b336119706134ff565b73ffffffffffffffffffffffffffffffffffffffff168173ffffffffffffffffffffffffffffffffffffffff161415806119fb575060011515600d60008373ffffffffffffffffffffffffffffffffffffffff1673ffffffffffffffffffffffffffffffffffffffff16815260200190815260200160002060009054906101000a900460ff16151514155b611a3a576040517f08c379a0000000000000000000000000000000000000000000000000000000008152600401611a3190614f31565b60405180910390fd5b60006004600086815260200190815260200160002060030160006101000a81548160ff02191690836002811115611a7457611a73615446565b5b021790555060016004600086815260200190815260200160002060030160026101000a81548160ff0219169083151502179055507f5a695f43d53bb74f4457f1a60951e2c514c6de79da9a8d8369848853d647cc6a84604051611ad79190614ff3565b60405180910390a150505050565b6000601460049054906101000a900460ff168015611b4557506000600a60003373ffffffffffffffffffffffffffffffffffffffff1673ffffffffffffffffffffffffffffffffffffffff16815260200190815260200160002060000154115b8015611b9f575042601254600a60003373ffffffffffffffffffffffffffffffffffffffff1673ffffffffffffffffffffffffffffffffffffffff16815260200190815260200160002060000154611b9d91906151a9565b115b15611bad5760019050611bb2565b600090505b90565b60035481565b6000600280811115611bd057611bcf615446565b5b601460009054906101000a900460ff166002811115611bf257611bf1615446565b5b1415611c33576040517f08c379a0000000000000000000000000000000000000000000000000000000008152600401611c2a90614f51565b60405180910390fd5b33611c3c6134ff565b73ffffffffffffffffffffffffffffffffffffffff168173ffffffffffffffffffffffffffffffffffffffff16141580611cc7575060011515600d60008373ffffffffffffffffffffffffffffffffffffffff1673ffffffffffffffffffffffffffffffffffffffff16815260200190815260200160002060009054906101000a900460ff16151514155b611d06576040517f08c379a0000000000000000000000000000000000000000000000000000000008152600401611cfd90614f31565b60405180910390fd5b33601460049054906101000a900460ff161580611d555750611d266134ff565b73ffffffffffffffffffffffffffffffffffffffff168173ffffffffffffffffffffffffffffffffffffffff16145b80611da257506000600a60008373ffffffffffffffffffffffffffffffffffffffff1673ffffffffffffffffffffffffffffffffffffffff16815260200190815260200160002060000154145b80611dfb575042601254600a60008473ffffffffffffffffffffffffffffffffffffffff1673ffffffffffffffffffffffffffffffffffffffff16815260200190815260200160002060000154611df991906151a9565b115b611e3a576040517f08c379a0000000000000000000000000000000000000000000000000000000008152600401611e3190614e51565b60405180910390fd5b8660006002811115611e4f57611e4e615446565b5b6004600083815260200190815260200160002060030160009054906101000a900460ff166002811115611e8557611e84615446565b5b14611e8f57600080fd5b60006002811115611ea357611ea2615446565b5b601460009054906101000a900460ff166002811115611ec557611ec4615446565b5b14611f05576040517f08c379a0000000000000000000000000000000000000000000000000000000008152600401611efc90614e31565b60405180910390fd5b600060105490506000600660008381526020019081526020016000205414611f2c57600080fd5b600560008a8152602001908152602001600020819080600181540180825580915050600190039060005260206000200160009091909190915055886006600083815260200190815260200160002081905550604051806040016040528042815260200182815250600a60003373ffffffffffffffffffffffffffffffffffffffff1673ffffffffffffffffffffffffffffffffffffffff168152602001908152602001600020600082015181600001556020820151816001015590505060106000815480929190611ffc9061539f565b919050555080897f313f81e8cc8fe5ab3d1facaeffd8e0d26068ff1776d23a4621a5bdb0c891c8178a8a8a60405161203693929190614d45565b60405180910390a380945050505050949350505050565b600081600115156004600083815260200190815260200160002060030160019054906101000a900460ff161515146120ba576040517f08c379a00000000000000000000000000000000000000000000000000000000081526004016120b190614fb1565b60405180910390fd5b600160028111156120ce576120cd615446565b5b6004600085815260200190815260200160002060030160009054906101000a900460ff16600281111561210457612103615446565b5b14915050919050565b600060028081111561212257612121615446565b5b601460009054906101000a900460ff16600281111561214457612143615446565b5b1415612185576040517f08c379a000000000000000000000000000000000000000000000000000000000815260040161217c90614f51565b60405180910390fd5b33601460029054906101000a900460ff1615806121d457506121a56134ff565b73ffffffffffffffffffffffffffffffffffffffff168173ffffffffffffffffffffffffffffffffffffffff16145b8061222157506000600960008373ffffffffffffffffffffffffffffffffffffffff1673ffffffffffffffffffffffffffffffffffffffff16815260200190815260200160002060000154145b8061227a575042601354600960008473ffffffffffffffffffffffffffffffffffffffff1673ffffffffffffffffffffffffffffffffffffffff1681526020019081526020016000206000015461227891906151a9565b115b6122b9576040517f08c379a00000000000000000000000000000000000000000000000000000000081526004016122b090614f91565b60405180910390fd5b336122c26134ff565b73ffffffffffffffffffffffffffffffffffffffff168173ffffffffffffffffffffffffffffffffffffffff1614158061234d575060011515600d60008373ffffffffffffffffffffffffffffffffffffffff1673ffffffffffffffffffffffffffffffffffffffff16815260200190815260200160002060009054906101000a900460ff16151514155b61238c576040517f08c379a000000000000000000000000000000000000000000000000000000000815260040161238390614f31565b60405180910390fd5b6000600e5490506040518060e00160405280828152602001878152602001868152602001600060028111156123c4576123c3615446565b5b8152602001600115158152602001600115158152602001600015158152506004600083815260200190815260200160002060008201518160000155602082015181600101908051906020019061241b9291906142a0565b5060408201518160020190805190602001906124389291906142a0565b5060608201518160030160006101000a81548160ff0219169083600281111561246457612463615446565b5b021790555060808201518160030160016101000a81548160ff02191690831515021790555060a08201518160030160026101000a81548160ff02191690831515021790555060c08201518160030160036101000a81548160ff021916908315150217905550905050604051806040016040528042815260200182815250600960003373ffffffffffffffffffffffffffffffffffffffff1673ffffffffffffffffffffffffffffffffffffffff1681526020019081526020016000206000820151816000015560208201518160010155905050336007600083815260200190815260200160002060006101000a81548173ffffffffffffffffffffffffffffffffffffffff021916908373ffffffffffffffffffffffffffffffffffffffff160217905550600e600081548092919061259c9061539f565b9190505550600f60008154809291906125b49061539f565b9190505550807f21579433a032855e20e8afc48e980ddae0b6285e4aa03370f03192be12bea28b87876040516125eb929190614d0e565b60405180910390a280935050505092915050565b612607612ac1565b15612647576040517f08c379a000000000000000000000000000000000000000000000000000000000815260040161263e90614ed1565b60405180910390fd5b6000600160003373ffffffffffffffffffffffffffffffffffffffff1673ffffffffffffffffffffffffffffffffffffffff168152602001908152602001600020541161269357600080fd5b3373ffffffffffffffffffffffffffffffffffffffff166108fc600160003373ffffffffffffffffffffffffffffffffffffffff1673ffffffffffffffffffffffffffffffffffffffff168152602001908152602001600020549081150290604051600060405180830381858888f19350505050158015612718573d6000803e3d6000fd5b50565b80600115156004600083815260200190815260200160002060030160019054906101000a900460ff16151514612786576040517f08c379a000000000000000000000000000000000000000000000000000000000815260040161277d90614fb1565b60405180910390fd5b816000600281111561279b5761279a615446565b5b6004600083815260200190815260200160002060030160009054906101000a900460ff1660028111156127d1576127d0615446565b5b146127db57600080fd5b600060028111156127ef576127ee615446565b5b601460009054906101000a900460ff16600281111561281157612810615446565b5b14612851576040517f08c379a000000000000000000000000000000000000000000000000000000000815260040161284890614e31565b60405180910390fd5b3361285a6134ff565b73ffffffffffffffffffffffffffffffffffffffff168173ffffffffffffffffffffffffffffffffffffffff161415806128e5575060011515600d60008373ffffffffffffffffffffffffffffffffffffffff1673ffffffffffffffffffffffffffffffffffffffff16815260200190815260200160002060009054906101000a900460ff16151514155b612924576040517f08c379a000000000000000000000000000000000000000000000000000000000815260040161291b90614f31565b60405180910390fd5b60016004600086815260200190815260200160002060030160006101000a81548160ff0219169083600281111561295e5761295d615446565b5b021790555060006004600086815260200190815260200160002060030160026101000a81548160ff0219169083151502179055507feabb282842a353a61f42a3352791a6bf8d0f0b5d6e9cec67e0a0e2c42f387b9b846040516129c19190614ff3565b60405180910390a150505050565b600c602052816000526040600020602052806000526040600020600091509150505481565b6129fc6141d4565b73ffffffffffffffffffffffffffffffffffffffff16612a1a6134ff565b73ffffffffffffffffffffffffffffffffffffffff1614612a70576040517f08c379a0000000000000000000000000000000000000000000000000000000008152600401612a6790614f11565b60405180910390fd5b80601460026101000a81548160ff02191690831515021790555080601460036101000a81548160ff02191690831515021790555080601460046101000a81548160ff02191690831515021790555050565b60008060149054906101000a900460ff16905090565b601460009054906101000a900460ff1681565b612af2614326565b81600280811115612b0657612b05615446565b5b6004600083815260200190815260200160002060030160009054906101000a900460ff166002811115612b3c57612b3b615446565b5b1415612b7d576040517f08c379a0000000000000000000000000000000000000000000000000000000008152600401612b7490614ef1565b60405180910390fd5b600460008481526020019081526020016000206040518060e001604052908160008201548152602001600182018054612bb59061533c565b80601f0160208091040260200160405190810160405280929190818152602001828054612be19061533c565b8015612c2e5780601f10612c0357610100808354040283529160200191612c2e565b820191906000526020600020905b815481529060010190602001808311612c1157829003601f168201915b50505050508152602001600282018054612c479061533c565b80601f0160208091040260200160405190810160405280929190818152602001828054612c739061533c565b8015612cc05780601f10612c9557610100808354040283529160200191612cc0565b820191906000526020600020905b815481529060010190602001808311612ca357829003601f168201915b505050505081526020016003820160009054906101000a900460ff166002811115612cee57612ced615446565b5b6002811115612d0057612cff615446565b5b81526020016003820160019054906101000a900460ff161515151581526020016003820160029054906101000a900460ff161515151581526020016003820160039054906101000a900460ff161515151581525050915050919050565b600081600115156004600083815260200190815260200160002060030160019054906101000a900460ff16151514612dca576040517f08c379a0000000000000000000000000000000000000000000000000000000008152600401612dc190614fb1565b60405180910390fd5b60006002811115612dde57612ddd615446565b5b6004600085815260200190815260200160002060030160009054906101000a900460ff166002811115612e1457612e13615446565b5b14915050919050565b80600115156004600083815260200190815260200160002060030160019054906101000a900460ff16151514612e88576040517f08c379a0000000000000000000000000000000000000000000000000000000008152600401612e7f90614fb1565b60405180910390fd5b81600280811115612e9c57612e9b615446565b5b6004600083815260200190815260200160002060030160009054906101000a900460ff166002811115612ed257612ed1615446565b5b14612f12576040517f08c379a0000000000000000000000000000000000000000000000000000000008152600401612f0990614f71565b60405180910390fd5b33612f1b6134ff565b73ffffffffffffffffffffffffffffffffffffffff168173ffffffffffffffffffffffffffffffffffffffff16141580612fa6575060011515600d60008373ffffffffffffffffffffffffffffffffffffffff1673ffffffffffffffffffffffffffffffffffffffff16815260200190815260200160002060009054906101000a900460ff16151514155b612fe5576040517f08c379a0000000000000000000000000000000000000000000000000000000008152600401612fdc90614f31565b60405180910390fd5b60016004600086815260200190815260200160002060030160006101000a81548160ff0219169083600281111561301f5761301e615446565b5b02179055507fe23a63f864ee1069bc665aa3ed0b1dccc848ab996543e77baed0f465e8145c60846040516130539190614ff3565b60405180910390a150505050565b6130696141d4565b73ffffffffffffffffffffffffffffffffffffffff166130876134ff565b73ffffffffffffffffffffffffffffffffffffffff16146130dd576040517f08c379a00000000000000000000000000000000000000000000000000000000081526004016130d490614f11565b60405180910390fd5b6130e760006141dc565b565b601460039054906101000a900460ff1681565b6131046141d4565b73ffffffffffffffffffffffffffffffffffffffff166131226134ff565b73ffffffffffffffffffffffffffffffffffffffff1614613178576040517f08c379a000000000000000000000000000000000000000000000000000000000815260040161316f90614f11565b60405180910390fd5b60008111801561318e575066038d7ea4c6800081105b61319757600080fd5b8060028190555050565b6131a96141d4565b73ffffffffffffffffffffffffffffffffffffffff166131c76134ff565b73ffffffffffffffffffffffffffffffffffffffff161461321d576040517f08c379a000000000000000000000000000000000000000000000000000000000815260040161321490614f11565b60405180910390fd5b8060038190555050565b6060600354600f54111561323e5761323d6153e8565b5b6000600f5467ffffffffffffffff81111561325c5761325b6154d3565b5b60405190808252806020026020018201604052801561329557816020015b613282614326565b81526020019060019003908161327a5790505b5090506000600354600f54106132b95760035482516132b49190615259565b6132bc565b60005b905060008190505b82518110156134d657600460008281526020019081526020016000206040518060e0016040529081600082015481526020016001820180546133059061533c565b80601f01602080910402602001604051908101604052809291908181526020018280546133319061533c565b801561337e5780601f106133535761010080835404028352916020019161337e565b820191906000526020600020905b81548152906001019060200180831161336157829003601f168201915b505050505081526020016002820180546133979061533c565b80601f01602080910402602001604051908101604052809291908181526020018280546133c39061533c565b80156134105780601f106133e557610100808354040283529160200191613410565b820191906000526020600020905b8154815290600101906020018083116133f357829003601f168201915b505050505081526020016003820160009054906101000a900460ff16600281111561343e5761343d615446565b5b60028111156134505761344f615446565b5b81526020016003820160019054906101000a900460ff161515151581526020016003820160029054906101000a900460ff161515151581526020016003820160039054906101000a900460ff1615151515815250508382815181106134b8576134b76154a4565b5b602002602001018190525080806134ce9061539f565b9150506132c4565b50819250505090565b600d6020528060005260406000206000915054906101000a900460ff1681565b60008060009054906101000a900473ffffffffffffffffffffffffffffffffffffffff16905090565b6135306141d4565b73ffffffffffffffffffffffffffffffffffffffff1661354e6134ff565b73ffffffffffffffffffffffffffffffffffffffff16146135a4576040517f08c379a000000000000000000000000000000000000000000000000000000000815260040161359b90614f11565b60405180910390fd5b80600d60008473ffffffffffffffffffffffffffffffffffffffff1673ffffffffffffffffffffffffffffffffffffffff16815260200190815260200160002060006101000a81548160ff0219169083151502179055505050565b60066020528060005260406000206000915090505481565b60076020528060005260406000206000915054906101000a900473ffffffffffffffffffffffffffffffffffffffff1681565b600b6020528060005260406000206000915090505481565b601460049054906101000a900460ff1681565b6000600d60008373ffffffffffffffffffffffffffffffffffffffff1673ffffffffffffffffffffffffffffffffffffffff16815260200190815260200160002060009054906101000a900460ff169050919050565b60046020528060005260406000206000915090508060000154908060010180546136f49061533c565b80601f01602080910402602001604051908101604052809291908181526020018280546137209061533c565b801561376d5780601f106137425761010080835404028352916020019161376d565b820191906000526020600020905b81548152906001019060200180831161375057829003601f168201915b5050505050908060020180546137829061533c565b80601f01602080910402602001604051908101604052809291908181526020018280546137ae9061533c565b80156137fb5780601f106137d0576101008083540402835291602001916137fb565b820191906000526020600020905b8154815290600101906020018083116137de57829003601f168201915b5050505050908060030160009054906101000a900460ff16908060030160019054906101000a900460ff16908060030160029054906101000a900460ff16908060030160039054906101000a900460ff16905087565b6138596141d4565b73ffffffffffffffffffffffffffffffffffffffff166138776134ff565b73ffffffffffffffffffffffffffffffffffffffff16146138cd576040517f08c379a00000000000000000000000000000000000000000000000000000000081526004016138c490614f11565b60405180910390fd5b8015613903576002601460006101000a81548160ff021916908360028111156138f9576138f8615446565b5b021790555061392f565b6000601460006101000a81548160ff0219169083600281111561392957613928615446565b5b02179055505b50565b600e5481565b600f5481565b6139466141d4565b73ffffffffffffffffffffffffffffffffffffffff166139646134ff565b73ffffffffffffffffffffffffffffffffffffffff16146139ba576040517f08c379a00000000000000000000000000000000000000000000000000000000081526004016139b190614f11565b60405180910390fd5b80156139f0576002601460016101000a81548160ff021916908360028111156139e6576139e5615446565b5b0217905550613a1c565b6000601460016101000a81548160ff02191690836002811115613a1657613a15615446565b5b02179055505b50565b613a27612ac1565b15613a67576040517f08c379a0000000000000000000000000000000000000000000000000000000008152600401613a5e90614ed1565b60405180910390fd5b60025434118015613a7f5750670de0b6b3a764000034105b613a8857600080fd5b8060016000613a956134ff565b73ffffffffffffffffffffffffffffffffffffffff1673ffffffffffffffffffffffffffffffffffffffff1681526020019081526020016000206000828254613ade91906151a9565b9250508190555050565b60125481565b6000601460039054906101000a900460ff168015613b5c57506000600c60003373ffffffffffffffffffffffffffffffffffffffff1673ffffffffffffffffffffffffffffffffffffffff168152602001908152602001600020600084815260200190815260200160002054115b8015613bc4575042601154600c60003373ffffffffffffffffffffffffffffffffffffffff1673ffffffffffffffffffffffffffffffffffffffff168152602001908152602001600020600085815260200190815260200160002054613bc291906151a9565b115b15613bd25760019050613bd7565b600090505b919050565b600081600115156004600083815260200190815260200160002060030160019054906101000a900460ff16151514613c49576040517f08c379a0000000000000000000000000000000000000000000000000000000008152600401613c4090614fb1565b60405180910390fd5b600280811115613c5c57613c5b615446565b5b6004600085815260200190815260200160002060030160009054906101000a900460ff166002811115613c9257613c91615446565b5b14915050919050565b60016020528060005260406000206000915090505481565b606060056000838152602001908152602001600020805480602002602001604051908101604052809291908181526020018280548015613d1257602002820191906000526020600020905b815481526020019060010190808311613cfe575b50505050509050919050565b601460029054906101000a900460ff1681565b60086020528160005260406000206020528060005260406000206000915091509054906101000a900460ff1681565b600a6020528060005260406000206000915090508060000154908060010154905082565b60105481565b60096020528060005260406000206000915090508060000154908060010154905082565b80600115156004600083815260200190815260200160002060030160019054906101000a900460ff16151514613e19576040517f08c379a0000000000000000000000000000000000000000000000000000000008152600401613e1090614fb1565b60405180910390fd5b81600280811115613e2d57613e2c615446565b5b6004600083815260200190815260200160002060030160009054906101000a900460ff166002811115613e6357613e62615446565b5b1415613ea4576040517f08c379a0000000000000000000000000000000000000000000000000000000008152600401613e9b90614ef1565b60405180910390fd5b33613ead6134ff565b73ffffffffffffffffffffffffffffffffffffffff168173ffffffffffffffffffffffffffffffffffffffff16141580613f38575060011515600d60008373ffffffffffffffffffffffffffffffffffffffff1673ffffffffffffffffffffffffffffffffffffffff16815260200190815260200160002060009054906101000a900460ff16151514155b613f77576040517f08c379a0000000000000000000000000000000000000000000000000000000008152600401613f6e90614f31565b60405180910390fd5b60026004600086815260200190815260200160002060030160006101000a81548160ff02191690836002811115613fb157613fb0615446565b5b02179055507fa589501e457bda1f31782af099f2695facb8e79d38d121802e6ac1c53237b84184604051613fe59190614ff3565b60405180910390a150505050565b613ffb6141d4565b73ffffffffffffffffffffffffffffffffffffffff166140196134ff565b73ffffffffffffffffffffffffffffffffffffffff161461406f576040517f08c379a000000000000000000000000000000000000000000000000000000000815260040161406690614f11565b60405180910390fd5b600073ffffffffffffffffffffffffffffffffffffffff168173ffffffffffffffffffffffffffffffffffffffff1614156140df576040517f08c379a00000000000000000000000000000000000000000000000000000000081526004016140d690614e11565b60405180910390fd5b6140e8816141dc565b50565b60135481565b6000601460029054906101000a900460ff16801561415157506000600960003373ffffffffffffffffffffffffffffffffffffffff1673ffffffffffffffffffffffffffffffffffffffff16815260200190815260200160002060000154115b80156141ab575042601354600960003373ffffffffffffffffffffffffffffffffffffffff1673ffffffffffffffffffffffffffffffffffffffff168152602001908152602001600020600001546141a991906151a9565b115b156141b957600190506141be565b600090505b90565b601460019054906101000a900460ff1681565b600033905090565b60008060009054906101000a900473ffffffffffffffffffffffffffffffffffffffff169050816000806101000a81548173ffffffffffffffffffffffffffffffffffffffff021916908373ffffffffffffffffffffffffffffffffffffffff1602179055508173ffffffffffffffffffffffffffffffffffffffff168173ffffffffffffffffffffffffffffffffffffffff167f8be0079c531659141344cd1fd0a4f28419497f9722a3daafe3b4186f6b6457e060405160405180910390a35050565b8280546142ac9061533c565b90600052602060002090601f0160209004810192826142ce5760008555614315565b82601f106142e757805160ff1916838001178555614315565b82800160010185558215614315579182015b828111156143145782518255916020019190600101906142f9565b5b509050614322919061437b565b5090565b6040518060e001604052806000815260200160608152602001606081526020016000600281111561435a57614359615446565b5b81526020016000151581526020016000151581526020016000151581525090565b5b8082111561439457600081600090555060010161437c565b5090565b60006143ab6143a6846150d9565b6150b4565b9050828152602081018484840111156143c7576143c6615507565b5b6143d28482856152fa565b509392505050565b6000813590506143e9816159bf565b92915050565b6000813590506143fe816159d6565b92915050565b600082601f83011261441957614418615502565b5b8135614429848260208601614398565b91505092915050565b600081359050614441816159ed565b92915050565b60006020828403121561445d5761445c615511565b5b600061446b848285016143da565b91505092915050565b6000806040838503121561448b5761448a615511565b5b6000614499858286016143da565b92505060206144aa858286016143ef565b9150509250929050565b600080604083850312156144cb576144ca615511565b5b60006144d9858286016143da565b92505060206144ea85828601614432565b9150509250929050565b60006020828403121561450a57614509615511565b5b6000614518848285016143ef565b91505092915050565b6000806040838503121561453857614537615511565b5b600083013567ffffffffffffffff8111156145565761455561550c565b5b61456285828601614404565b925050602083013567ffffffffffffffff8111156145835761458261550c565b5b61458f85828601614404565b9150509250929050565b6000602082840312156145af576145ae615511565b5b60006145bd84828501614432565b91505092915050565b600080600080608085870312156145e0576145df615511565b5b60006145ee87828801614432565b945050602085013567ffffffffffffffff81111561460f5761460e61550c565b5b61461b87828801614404565b935050604085013567ffffffffffffffff81111561463c5761463b61550c565b5b61464887828801614404565b925050606085013567ffffffffffffffff8111156146695761466861550c565b5b61467587828801614404565b91505092959194509250565b6000806040838503121561469857614697615511565b5b60006146a685828601614432565b92505060206146b785828601614432565b9150509250929050565b60006146cd8383614af3565b905092915050565b60006146e18383614c39565b60208301905092915050565b6146f68161528d565b82525050565b60006147078261512a565b6147118185615165565b9350836020820285016147238561510a565b8060005b8581101561475f578484038952815161474085826146c1565b945061474b8361514b565b925060208a01995050600181019050614727565b50829750879550505050505092915050565b600061477c82615135565b6147868185615176565b93506147918361511a565b8060005b838110156147c25781516147a988826146d5565b97506147b483615158565b925050600181019050614795565b5085935050505092915050565b6147d88161529f565b82525050565b6147e78161529f565b82525050565b6147f6816152e8565b82525050565b614805816152e8565b82525050565b600061481682615140565b6148208185615187565b9350614830818560208601615309565b61483981615516565b840191505092915050565b600061484f82615140565b6148598185615198565b9350614869818560208601615309565b61487281615516565b840191505092915050565b600061488a601383615198565b915061489582615527565b602082019050919050565b60006148ad602683615198565b91506148b882615550565b604082019050919050565b60006148d0602683615198565b91506148db8261559f565b604082019050919050565b60006148f3603683615198565b91506148fe826155ee565b604082019050919050565b6000614916602683615198565b91506149218261563d565b604082019050919050565b6000614939602483615198565b91506149448261568c565b604082019050919050565b600061495c602483615198565b9150614967826156db565b604082019050919050565b600061497f603483615198565b915061498a8261572a565b604082019050919050565b60006149a2603a83615198565b91506149ad82615779565b604082019050919050565b60006149c5602483615198565b91506149d0826157c8565b604082019050919050565b60006149e8601083615198565b91506149f382615817565b602082019050919050565b6000614a0b601183615198565b9150614a1682615840565b602082019050919050565b6000614a2e602083615198565b9150614a3982615869565b602082019050919050565b6000614a51601d83615198565b9150614a5c82615892565b602082019050919050565b6000614a74602583615198565b9150614a7f826158bb565b604082019050919050565b6000614a97601483615198565b9150614aa28261590a565b602082019050919050565b6000614aba602483615198565b9150614ac582615933565b604082019050919050565b6000614add601483615198565b9150614ae882615982565b602082019050919050565b600060e083016000830151614b0b6000860182614c39565b5060208301518482036020860152614b23828261480b565b91505060408301518482036040860152614b3d828261480b565b9150506060830151614b5260608601826147ed565b506080830151614b6560808601826147cf565b5060a0830151614b7860a08601826147cf565b5060c0830151614b8b60c08601826147cf565b508091505092915050565b600060e083016000830151614bae6000860182614c39565b5060208301518482036020860152614bc6828261480b565b91505060408301518482036040860152614be0828261480b565b9150506060830151614bf560608601826147ed565b506080830151614c0860808601826147cf565b5060a0830151614c1b60a08601826147cf565b5060c0830151614c2e60c08601826147cf565b508091505092915050565b614c42816152de565b82525050565b614c51816152de565b82525050565b6000602082019050614c6c60008301846146ed565b92915050565b60006020820190508181036000830152614c8c81846146fc565b905092915050565b60006020820190508181036000830152614cae8184614771565b905092915050565b6000602082019050614ccb60008301846147de565b92915050565b6000602082019050614ce660008301846147fc565b92915050565b60006020820190508181036000830152614d068184614844565b905092915050565b60006040820190508181036000830152614d288185614844565b90508181036020830152614d3c8184614844565b90509392505050565b60006060820190508181036000830152614d5f8186614844565b90508181036020830152614d738185614844565b90508181036040830152614d878184614844565b9050949350505050565b60006020820190508181036000830152614daa8161487d565b9050919050565b60006020820190508181036000830152614dca816148a0565b9050919050565b60006020820190508181036000830152614dea816148c3565b9050919050565b60006020820190508181036000830152614e0a816148e6565b9050919050565b60006020820190508181036000830152614e2a81614909565b9050919050565b60006020820190508181036000830152614e4a8161492c565b9050919050565b60006020820190508181036000830152614e6a8161494f565b9050919050565b60006020820190508181036000830152614e8a81614972565b9050919050565b60006020820190508181036000830152614eaa81614995565b9050919050565b60006020820190508181036000830152614eca816149b8565b9050919050565b60006020820190508181036000830152614eea816149db565b9050919050565b60006020820190508181036000830152614f0a816149fe565b9050919050565b60006020820190508181036000830152614f2a81614a21565b9050919050565b60006020820190508181036000830152614f4a81614a44565b9050919050565b60006020820190508181036000830152614f6a81614a67565b9050919050565b60006020820190508181036000830152614f8a81614a8a565b9050919050565b60006020820190508181036000830152614faa81614aad565b9050919050565b60006020820190508181036000830152614fca81614ad0565b9050919050565b60006020820190508181036000830152614feb8184614b96565b905092915050565b60006020820190506150086000830184614c48565b92915050565b600060e082019050615023600083018a614c48565b81810360208301526150358189614844565b905081810360408301526150498188614844565b905061505860608301876147fc565b61506560808301866147de565b61507260a08301856147de565b61507f60c08301846147de565b98975050505050505050565b60006040820190506150a06000830185614c48565b6150ad6020830184614c48565b9392505050565b60006150be6150cf565b90506150ca828261536e565b919050565b6000604051905090565b600067ffffffffffffffff8211156150f4576150f36154d3565b5b6150fd82615516565b9050602081019050919050565b6000819050602082019050919050565b6000819050602082019050919050565b600081519050919050565b600081519050919050565b600081519050919050565b6000602082019050919050565b6000602082019050919050565b600082825260208201905092915050565b600082825260208201905092915050565b600082825260208201905092915050565b600082825260208201905092915050565b60006151b4826152de565b91506151bf836152de565b9250827fffffffffffffffffffffffffffffffffffffffffffffffffffffffffffffffff038211156151f4576151f3615417565b5b828201905092915050565b600061520a826152de565b9150615215836152de565b9250817fffffffffffffffffffffffffffffffffffffffffffffffffffffffffffffffff048311821515161561524e5761524d615417565b5b828202905092915050565b6000615264826152de565b915061526f836152de565b92508282101561528257615281615417565b5b828203905092915050565b6000615298826152be565b9050919050565b60008115159050919050565b60008190506152b9826159ab565b919050565b600073ffffffffffffffffffffffffffffffffffffffff82169050919050565b6000819050919050565b60006152f3826152ab565b9050919050565b82818337600083830152505050565b60005b8381101561532757808201518184015260208101905061530c565b83811115615336576000848401525b50505050565b6000600282049050600182168061535457607f821691505b6020821081141561536857615367615475565b5b50919050565b61537782615516565b810181811067ffffffffffffffff82111715615396576153956154d3565b5b80604052505050565b60006153aa826152de565b91507fffffffffffffffffffffffffffffffffffffffffffffffffffffffffffffffff8214156153dd576153dc615417565b5b600182019050919050565b7f4e487b7100000000000000000000000000000000000000000000000000000000600052600160045260246000fd5b7f4e487b7100000000000000000000000000000000000000000000000000000000600052601160045260246000fd5b7f4e487b7100000000000000000000000000000000000000000000000000000000600052602160045260246000fd5b7f4e487b7100000000000000000000000000000000000000000000000000000000600052602260045260246000fd5b7f4e487b7100000000000000000000000000000000000000000000000000000000600052603260045260246000fd5b7f4e487b7100000000000000000000000000000000000000000000000000000000600052604160045260246000fd5b600080fd5b600080fd5b600080fd5b600080fd5b6000601f19601f8301169050919050565b7f547261636b206973206e6f7420636c6f73656400000000000000000000000000600082015250565b7f7468652076616c7565206f662074686520646f6e6174696f6e20697320746f6f60008201527f20736d616c6c0000000000000000000000000000000000000000000000000000602082015250565b7f7468652073706563696669656420747261636b206f776e657220646f65736e7460008201527f2065786973740000000000000000000000000000000000000000000000000000602082015250565b7f557365722069732063757272656e746c7920696e20766f74696e6720636f6f6c60008201527f646f776e20706572696f6420666f7220747261636b2e00000000000000000000602082015250565b7f4f776e61626c653a206e6577206f776e657220697320746865207a65726f206160008201527f6464726573730000000000000000000000000000000000000000000000000000602082015250565b7f416c6c20747261636b732068617665206265656e20636c6f736564206279206160008201527f646d696e00000000000000000000000000000000000000000000000000000000602082015250565b7f557365722069732063757272656e746c7920696e20656e74727920636f6f6c6460008201527f6f776e2e00000000000000000000000000000000000000000000000000000000602082015250565b7f55736572732063616e6e6f7420766f746520666f72207468652073616d65206560008201527f6e747279206d756c7469706c652074696d65732e000000000000000000000000602082015250565b7f7468652076616c7565206f662074686520646f6e6174696f6e20697320746f6f60008201527f206c617267652c206d6178696d756d2069732031204574686572000000000000602082015250565b7f416c6c20766f74696e6720686173206265656e20626c6f636b6564206279206160008201527f646d696e00000000000000000000000000000000000000000000000000000000602082015250565b7f5061757361626c653a2070617573656400000000000000000000000000000000600082015250565b7f547261636b20697320626c6f636b65642e000000000000000000000000000000600082015250565b7f4f776e61626c653a2063616c6c6572206973206e6f7420746865206f776e6572600082015250565b7f5573657220686173206265656e2062616e6e65642062792061646d696e000000600082015250565b7f416c6c20747261636b732068617665206265656e20626c6f636b65642062792060008201527f61646d696e000000000000000000000000000000000000000000000000000000602082015250565b7f547261636b206973206e6f7420626c6f636b6564000000000000000000000000600082015250565b7f557365722069732063757272656e746c7920696e20747261636b20636f6f6c6460008201527f6f776e2e00000000000000000000000000000000000000000000000000000000602082015250565b7f547261636b20646f6573206e6f74206578697374000000000000000000000000600082015250565b600381106159bc576159bb615446565b5b50565b6159c88161528d565b81146159d357600080fd5b50565b6159df8161529f565b81146159ea57600080fd5b50565b6159f6816152de565b8114615a0157600080fd5b5056fea26469706673582212201f9269524d7cfe698b5a32481a63120d052b7b1dabaa89e07aa1faa309d29ba664736f6c6343000807003354686973206973206120676f6f6420706c61636520746f20737461727420746f206765742068656c70576865726520746f2072656164206d6f726520616e64206765742074686520636f64652e68747470733a2f2f6769746875622e636f6d2f6e69616c6c6372656563682f626c6f636b636861696e2d646576656c6f7065722d626f6f7463616d702d66696e616c2d70726f6a656374",
  "immutableReferences": {},
  "source": "// SPDX-License-Identifier: MIT\r\npragma solidity ^0.8.0;\r\n\r\nimport \"@openzeppelin/contracts/access/Ownable.sol\";\r\nimport \"@openzeppelin/contracts/security/Pausable.sol\";\r\n\r\n\r\n\r\n/**\r\n   * @title The Tracks contract enables the storage of collections of \r\n   * text information with voting enabled on each memeber of the collection\r\n   * through emitting events.\r\n   */\r\ncontract Tracks is Ownable, Pausable{\r\n  mapping(address => uint) public donations;\r\n  uint public minDonation;\r\n  uint public maxTrackCount; // Precent out of gas looping by restricting the amount of tracks to iterate\r\n  mapping (uint => Track) public tracks;\r\n  mapping (uint => uint[]) public trackEntries; //trackId => entryId[]\r\n  mapping (uint => uint) public entriesTrack; //entryId => trackId\r\n  mapping (uint => address) public trackOwners; //trackId => address\r\n  mapping (address => mapping (uint => bool)) public votesByAddress; //address => (entryId => bool)\r\n  mapping (address => TrackEvent) public trackEventsByUser; //address => TrackEvent\r\n  mapping (address => EntryEvent) public entryEventsByUser; //address => EntryEvent\r\n  mapping (uint => uint) public votesByTrack; //trackId => vote count\r\n  mapping (address => mapping(uint => uint)) public lastVoteTime; //address => trackId => time(s)\r\n  mapping(address => bool) public bannedUsers;\r\n\r\n  uint public nextTrackId;\r\n  uint public trackCount;\r\n  uint public nextEntryId;\r\n  uint public voteCooldownPeriod;\r\n  uint public entryEventCooldownPeriod;\r\n  uint public trackEventCooldownPeriod;\r\n  State public allTracksState;\r\n  State public allVotesState;\r\n  bool public trackCreationCooldownEnabled;\r\n  bool public votingCooldownEnabled;\r\n  bool public entryCreationCooldownEnabled;\r\n  \r\n  \r\n\tstruct EntryEvent {\r\n\t    uint time;\r\n\t    uint eventId;\r\n\t}\r\n\t\r\n\tstruct TrackEvent {\r\n\t    uint time;\r\n\t    uint trackId;\r\n\t}\r\n\t\r\n  enum State {\r\n      Open,\r\n      Closed,\r\n      Blocked\r\n  }\r\n  struct Track {\r\n      uint  trackId;\r\n      string  name;\r\n      string  desc;\r\n      State state;\r\n      bool exists;\r\n      bool visible;\r\n      bool pinned;\r\n  }\r\n\r\n  event TrackOpened(uint trackId);\r\n  event TrackClosed(uint trackId);\r\n  event TrackBlocked(uint trackId);\r\n  event TrackUnblocked(uint trackId);\r\n  event TrackCreated(uint indexed trackId, string name, string desc);\r\n  event EntryCreated(uint indexed trackId, uint indexed entryId, string name, string desc, string location);\r\n  event EntryVotedFor(uint indexed trackId, uint indexed entryId);\r\n\r\n\r\n  /**\r\n   * @dev Check if the track is in the 'open' state.\r\n   * @param _trackId The id of the track\r\n   */\r\n\tmodifier checkTrackOpen(uint _trackId) {\r\n\t\trequire(tracks[_trackId].state == State.Open);\r\n\t\trequire(allTracksState == State.Open, \"All tracks have been closed by admin\");\r\n    _;\r\n  }\r\n  \r\n\t/**\r\n   * @dev Check if the track is in the 'closed' state.\r\n   * @param _trackId The id of the track\r\n   */\r\n\tmodifier checkTrackClosed(uint _trackId) {\r\n\t\trequire(tracks[_trackId].state == State.Closed, \"Track is not closed\");\r\n    _;\r\n  }\r\n  \r\n  /**\r\n   * @dev Check if the track is in the 'blocked' state.\r\n   * @param _trackId The id of the track\r\n   */\r\n\tmodifier checkTrackBlocked(uint _trackId) {\r\n\t\trequire(tracks[_trackId].state == State.Blocked, \"Track is not blocked\");\r\n    _;\r\n  }\r\n  \r\n  /**\r\n   * @dev Check if the track has been 'blocked' by the admin.\r\n   */\r\n\tmodifier checkTracksNotBlockedByAdmin() {\r\n\t\trequire(allTracksState != State.Blocked, \"All tracks have been blocked by admin\");\r\n    _;\r\n  }\r\n  \r\n  \r\n  /**\r\n   * @dev Check if voting has been 'blocked' by the admin.\r\n   */\r\n\tmodifier checkVotingNotBlockedByAdmin() {\r\n\t\trequire(allVotesState != State.Blocked, \"All voting has been blocked by admin\");\r\n    _;\r\n  }\r\n  \r\n  \r\n  /**\r\n   * @dev Check if the track is not 'blocked'.\r\n   * @param _trackId The id of the track\r\n   */\r\n\tmodifier checkTrackUnblocked(uint _trackId) {\r\n\t\trequire(tracks[_trackId].state != State.Blocked, \"Track is blocked.\");\r\n    _;\r\n  }\r\n  \r\n  /**\r\n   * @dev Check if the track exists.\r\n   * @param _trackId The id of the track\r\n   */\r\n\tmodifier checkTrackExists(uint _trackId) {\r\n\t\t\trequire(tracks[_trackId].exists == true, \"Track does not exist\");\r\n\t    _;\r\n\t  }\r\n\r\n  /**\r\n   * @dev Check if the supplied user address has been banned.\r\n   * @param addr The address of the user to check.\r\n   */\r\n\tmodifier checkIfUserIsBanned(address addr){\r\n\t\t\trequire(\r\n\t\t\t    addr != owner()\r\n\t\t\t    || bannedUsers[addr] != true,\r\n\t\t\t    \"User has been banned by admin\"\r\n\t\t\t);\r\n\t    _;\r\n\t}\r\n\r\n  /**\r\n   * @dev Check if the supplied user address has voted for the given entry.\r\n   * @param addr The address of the user to check.\r\n   * @param _entryId The id of the entry to check.\r\n   */\r\n\tmodifier hasNotVotedForEntry(address addr, uint _entryId){\r\n\t    require(\r\n\t        addr == owner()\r\n\t        || votesByAddress[addr][_entryId] == false,\r\n\t        \"Users cannot vote for the same entry multiple times.\"\r\n\t    );\r\n\t    _;\r\n\t}\r\n\t\r\n\t/**\r\n   * @dev Check if the supplied user is in the voting cooldown period for the\r\n   *  given track.\r\n   * @param addr The address of the user to check.\r\n   * @param trackId The id of the track.\r\n   */\r\n\tmodifier isNotInVotingCooldown(address addr, uint trackId){\r\n\t    require(\r\n\t        !votingCooldownEnabled\r\n          || addr == owner()\r\n\t        || lastVoteTime[addr][trackId] == 0 \r\n\t        || lastVoteTime[addr][trackId] + voteCooldownPeriod > block.timestamp,\r\n\t        \"User is currently in voting cooldown period for track.\"\r\n\t    );\r\n\t    _;\r\n\t}\r\n\r\n  /**\r\n   * @dev Check if the supplied user is in the track creation cooldown period.\r\n   * @param addr The address of the user to check.\r\n   */\r\n\tmodifier isNotInTrackCreationCooldown(address addr){\r\n\t    require(\r\n\t        !trackCreationCooldownEnabled\r\n          || addr == owner()\r\n\t        || trackEventsByUser[addr].time == 0\r\n          || (trackEventsByUser[addr].time + trackEventCooldownPeriod) > block.timestamp,\r\n\t       \"User is currently in track cooldown.\"\r\n\t     );\r\n\t    _;\r\n\t}\r\n\t\r\n\t/**\r\n   * @dev Check if the supplied user is in the entry creation cooldown period.\r\n   * @param addr The address of the user to check.\r\n   */\r\n\tmodifier isNotInEntryCreationCooldown(address addr){\r\n\t    require(\r\n\t        !entryCreationCooldownEnabled\r\n\t        || addr == owner()\r\n\t        || entryEventsByUser[addr].time == 0\r\n\t        || (entryEventsByUser[addr].time + entryEventCooldownPeriod) > block.timestamp,\r\n\t        \"User is currently in entry cooldown.\"\r\n\t    );\r\n\t    _;\r\n\t}\r\n\t\r\n\t/**\r\n   * @dev Create the new contract.\r\n   *  The default is to have tracks open with cooldowns enabled.\r\n   */\r\n  constructor () {\r\n      voteCooldownPeriod = 1 minutes;\r\n      entryEventCooldownPeriod = 1 minutes;\r\n      trackEventCooldownPeriod = 1 minutes;\r\n      allTracksState = State.Open;\r\n      allVotesState = State.Open;\r\n      enableCooldowns(true);\r\n      createHelpTrack();\r\n\t\t\tsetMaxTrackCount(1000000); // Set max tracks to 1 million by default\r\n      setMinDonation(0.00001 ether);\r\n  }\r\n\r\n  /**\r\n   * @dev Create the default help documentation links.\r\n   */\r\n  function createHelpTrack() internal {\r\n    uint trackId = addTrack(\"Help\", \"This is a good place to start to get help\");\r\n    addEntry(trackId, \"Homepage\", \"Where to read more and get the code.\", \"https://github.com/niallcreech/blockchain-developer-bootcamp-final-project\");\r\n  \ttracks[trackId].pinned = true;\r\n  \tblockTrack(trackId);\r\n  }\r\n\t/**\r\n   * @dev Get all tracks\r\n   * @return array of all tracks by object\r\n   */\r\n  function getTracks() public view returns ( Track[] memory) {\r\n      assert(trackCount <= maxTrackCount);\r\n      Track[] memory _tracks = new Track[](trackCount);\r\n      uint _startIndex = (trackCount < maxTrackCount) ? 0 : (_tracks.length - maxTrackCount);\r\n      for (uint i=_startIndex; i<_tracks.length; i++) {\r\n          _tracks[i] = tracks[i];\r\n      }\r\n      return _tracks;\r\n  }\r\n\r\n  /**\r\n   * @dev Get a specific tracks object\r\n   * @param _trackId The id of the track\r\n   * @return the relevant Track object\r\n   */\r\n  function getTrack(uint _trackId) public view checkTrackUnblocked(_trackId) returns (Track memory) {\r\n      return tracks[_trackId];\r\n  }\r\n\t\r\n\r\n  /**\r\n   * @dev Get all the entries attached to a specific track\r\n   * @param _trackId The id of the track\r\n   * @return all the Entry ids attached to the track \r\n   */\r\n  function getEntriesForTrack(uint _trackId) public view returns (uint[] memory){\r\n      return trackEntries[_trackId];\r\n  }\r\n\r\n\t/**\r\n   * @dev Set a specific track to the 'Open' state.\r\n   * @param _trackId The id of the track\r\n   */\r\n  function openTrack(uint _trackId) public checkTrackExists(_trackId) checkTrackClosed(_trackId) checkIfUserIsBanned(msg.sender) {\r\n      tracks[_trackId].state = State.Open;\r\n      tracks[_trackId].visible = true;\r\n      emit TrackOpened(_trackId);\r\n  }\r\n\r\n\t/**\r\n   * @dev Set a specific track to the 'Closed' state.\r\n   * @param _trackId The id of the track\r\n   */\r\n\tfunction closeTrack(uint _trackId) public checkTrackExists(_trackId) checkTrackOpen(_trackId) checkIfUserIsBanned(msg.sender){\r\n      tracks[_trackId].state = State.Closed;\r\n      tracks[_trackId].visible = false;\r\n      emit TrackClosed(_trackId);\r\n  }\r\n\r\n\t/**\r\n   * @dev Set a specific track to the 'Blocked' state.\r\n   * @param _trackId The id of the track\r\n   */\r\n\tfunction blockTrack(uint _trackId) public checkTrackExists(_trackId) checkTrackUnblocked(_trackId) checkIfUserIsBanned(msg.sender){\r\n      tracks[_trackId].state = State.Blocked;\r\n      emit TrackBlocked(_trackId);\r\n  }\r\n\r\n  /**\r\n   * @dev Unblock a specific track by settings to the 'Closed' state.\r\n   * @param _trackId The id of the track\r\n   */\r\n  function unblockTrack(uint _trackId) public checkTrackExists(_trackId) checkTrackBlocked(_trackId) checkIfUserIsBanned(msg.sender) {\r\n      tracks[_trackId].state = State.Closed;\r\n      emit TrackUnblocked(_trackId);\r\n  }\r\n\r\n\t/**\r\n   * @dev Get the state of a track as a string key.\r\n   * @param _trackId The id of the track\r\n   */\r\n  function getTrackState(uint _trackId) public view returns (string memory){\r\n      string memory status;\r\n      if (tracks[_trackId].exists == false){\r\n          status = \"null\";\r\n      } else if (tracks[_trackId].state == State.Open){\r\n          status = \"open\";\r\n      } else if (tracks[_trackId].state == State.Closed){\r\n          status = \"closed\";\r\n      } else if (tracks[_trackId].state == State.Blocked){\r\n          status = \"blocked\";\r\n      } else {\r\n          status = \"null\";\r\n      }\r\n      return status;\r\n  }\r\n\r\n\t/**\r\n   * @dev Check a specific track is in the 'Open' state.\r\n   * @param _trackId The id of the track\r\n   */\r\n  function isTrackOpen(uint _trackId) public view checkTrackExists(_trackId) returns (bool){\r\n      return (tracks[_trackId].state == State.Open);\r\n  }\r\n\r\n  /**\r\n   * @dev Check a specific track is in the 'Open' state.\r\n   * @param _trackId The id of the track\r\n   */\r\n  function isTrackClosed(uint _trackId) public view checkTrackExists(_trackId) returns (bool){\r\n      return (tracks[_trackId].state == State.Closed);\r\n  }\r\n  \r\n  /**\r\n   * @dev Check a specific track is in the 'Blocked' state.\r\n   * @param _trackId The id of the track\r\n   */\r\n  function isTrackBlocked(uint _trackId) public view checkTrackExists(_trackId) returns (bool){\r\n      return (tracks[_trackId].state == State.Blocked);\r\n  }\r\n\r\n\t/**\r\n   * @dev Vote for an entry. \r\n   *  Voting emits an event. It also sets a number of variables to follow\r\n   *  users voting patterns so that multiple voting and cooldowns can be \r\n   *  monitored.\r\n   * @param _entryId The id of the entry\r\n   */\r\n  function vote(uint _entryId) public checkTrackOpen(entriesTrack[_entryId]) hasNotVotedForEntry(msg.sender, _entryId) checkVotingNotBlockedByAdmin checkIfUserIsBanned(msg.sender) isNotInVotingCooldown(msg.sender, entriesTrack[_entryId]) {\r\n    uint _trackId = entriesTrack[_entryId];\r\n    votesByAddress[msg.sender][_entryId] = true;\r\n    lastVoteTime[msg.sender][_trackId] = block.timestamp;\r\n    votesByTrack[_trackId]++;\r\n    emit EntryVotedFor(_trackId, _entryId);\r\n  }\r\n\r\n  /**\r\n   * @dev Add an entry to a specific track.\r\n   *  The entry is attached to a track as stored data on-chain. However, the\r\n   *  actual data belonging to the entry is emitted as an event.\r\n   * @param _trackId The id of the track\r\n   * @return the id of the new entry.\r\n   */\r\n  function addEntry(uint _trackId, string memory _name, string memory _desc, string memory _location) public checkTracksNotBlockedByAdmin checkIfUserIsBanned(msg.sender) isNotInEntryCreationCooldown(msg.sender)  checkTrackOpen(_trackId) returns (uint) {\r\n    uint entryId = nextEntryId;\r\n    require(entriesTrack[entryId] == 0);\r\n    trackEntries[_trackId].push(entryId);\r\n    entriesTrack[entryId] = _trackId;\r\n    entryEventsByUser[msg.sender] = EntryEvent(block.timestamp, entryId);\r\n    nextEntryId++;\r\n    emit EntryCreated(_trackId, entryId, _name, _desc, _location);\r\n    return entryId;\r\n  }\r\n\r\n\t/**\r\n   * @dev Add a track. The track is stored as data on-chain.\r\n   * @param _name the name of the track.\r\n   * @param _desc a brief description of what the track is about.\r\n   * @return the trackId of the new track.\r\n   */\r\n  function addTrack(string memory _name, string memory _desc)\r\n    public\r\n      checkTracksNotBlockedByAdmin\r\n      isNotInTrackCreationCooldown(msg.sender)\r\n      checkIfUserIsBanned(msg.sender)\r\n    returns (uint) {\r\n    uint trackId = nextTrackId;\r\n    tracks[trackId] = Track({\r\n      trackId: trackId,\r\n      name: _name,\r\n      desc: _desc,\r\n      state: State.Open,\r\n      exists: true,\r\n      visible: true,\r\n      pinned: false\r\n    });\r\n    trackEventsByUser[msg.sender] = TrackEvent(block.timestamp, trackId);\r\n    trackOwners[trackId] = msg.sender;\r\n    nextTrackId++;\r\n    trackCount++;\r\n    emit TrackCreated(trackId, _name, _desc);\r\n    return trackId;\r\n  }\r\n   \r\n  /**\r\n  * @dev Set all existing tracks to the 'Blocked' state.\r\n  * @param enable true to block, false to unblock.\r\n  */\r\n  function disableAllTracks(bool enable) public onlyOwner {\r\n    if (enable) {\r\n      allTracksState = State.Blocked;   \r\n    } else {\r\n      allTracksState = State.Open;   \r\n    }\r\n  }\r\n  \r\n  /**\r\n   * @dev Set all voting to the 'Blocked' state.\r\n   * @param enable, true to block, false to unblock.\r\n   */ \r\n  function disableAllVoting(bool enable) public onlyOwner {\r\n       if (enable) {\r\n           allVotesState = State.Blocked;   \r\n       } else {\r\n           allVotesState = State.Open;   \r\n       }\r\n\t}\r\n\r\n  /**\r\n   * @dev Ban a user from participation. \r\n   *  This function is only availble to the contract owner.\r\n   * @param addr, address of the user to block\r\n   * @param banned, true to ban, false to unban.\r\n   */ \r\n  function banUser(address addr, bool banned) public onlyOwner {\r\n \t\tbannedUsers[addr] = banned;   \r\n\t}\r\n\t\r\n\t/**\r\n   * @dev CHeck if a user is bannedfrom participation. \r\n   * @param addr, address of the user to block\r\n   * @return true if banned, false otherwise.\r\n   */ \r\n  function isUserBanned(address addr) public view returns (bool) {\r\n \t\treturn bannedUsers[addr];   \r\n\t}\r\n\r\n  /**\r\n   * @dev Check if a user is in a cooldown period for track creation.\r\n   *  Cooldown allows automation blocking to balance throughput.\r\n   * @return true if user is in cooldown, false otherwise.\r\n   */ \r\n  function isSenderInTrackCreationCooldown() public view returns (bool) {\r\n      if (trackCreationCooldownEnabled\r\n          \t&& trackEventsByUser[msg.sender].time > 0\r\n\t        \t&& (trackEventsByUser[msg.sender].time + trackEventCooldownPeriod) > block.timestamp\r\n\t      \t){\r\n\t            return true;\r\n\t   \t}\r\n\t   \treturn false;\r\n\t}\r\n\t\r\n\t/**\r\n   * @dev Check if a user is in a cooldown period for entry creation.\r\n   *  Cooldown allows automation blocking to balance throughput.\r\n   * @return true if user is in cooldown, false otherwise.\r\n   */ \r\n\tfunction isSenderInEntryCreationCooldown() public view returns (bool) {\r\n\t   \tif (entryCreationCooldownEnabled\r\n          \t&& entryEventsByUser[msg.sender].time > 0\r\n\t        \t&& (entryEventsByUser[msg.sender].time + entryEventCooldownPeriod) > block.timestamp\r\n\t      \t){\r\n\t            return true;\r\n\t   \t}\r\n\t   \treturn false;\r\n\t}\r\n\t\r\n\t/**\r\n   * @dev Check if a user is in a cooldown period for voting.\r\n   *  Cooldown allows automation blocking to balance throughput.\r\n   * @return true if user is in cooldown, false otherwise.\r\n   */ \r\n\tfunction isSenderInVotingCooldown(uint trackId) public view returns (bool) {\r\n\t   \tif (votingCooldownEnabled\r\n          \t&& lastVoteTime[msg.sender][trackId] > 0\r\n\t        \t&& (lastVoteTime[msg.sender][trackId] + voteCooldownPeriod) > block.timestamp\r\n\t      \t){\r\n\t            return true;\r\n\t   \t}\r\n\t   \treturn false;\r\n\t}\r\n\t\r\n\t/**\r\n   * @dev Enable or disable the use of cooldowns.\r\n   *  Cooldown allows automation blocking to balance throughput.\r\n   * @param enable A bool set to true to enable cooldowns, false to disable.\r\n   */ \r\n  function enableCooldowns(bool enable) public onlyOwner {\r\n    trackCreationCooldownEnabled = enable;\r\n    votingCooldownEnabled = enable;\r\n    entryCreationCooldownEnabled = enable;\r\n  }\r\n  \r\n  /**\r\n   * @dev set the maximum amount of tracks to iterate through\r\n   * @param _maxCount the maximum length of tracks\r\n   */\r\n   function setMaxTrackCount(uint _maxCount) public onlyOwner{\r\n       maxTrackCount = _maxCount;\r\n   }\r\n  /**\r\n   * @dev Set the minimum donation price.\r\n   * @param _minDonation min donation\r\n   */ \r\n  function setMinDonation(uint _minDonation) public onlyOwner {\r\n    require(_minDonation > 0 && _minDonation < 0.001 ether); // Force min donation to not be excessive as a sanity check\r\n    minDonation = _minDonation;\r\n  }\r\n  \r\n  /**\r\n   * @dev Set the percentage of transaction fees to add to donations.\r\n   * \tDonations are restricted to (0, 1] ether.\r\n   * @param _donation in wei to donate\r\n   */ \r\n  function donateToOwner(uint _donation) public payable whenNotPaused {\r\n    require(msg.value > minDonation && msg.value < 1 ether);\r\n    donations[owner()] += _donation;\r\n  }\r\n  \r\n  /**\r\n   * @dev Set the percentage of transaction fees to add to donations.\r\n   * \tDonations are restricted to (0, 1] ether.\r\n   * @param _trackId id of the track to donate to\r\n   * @param _donation in wei to donate\r\n   */ \r\n  function donateToTrackOwner(uint _trackId, uint _donation) public payable whenNotPaused {\r\n    require(msg.value > (2 * minDonation), \"the value of the donation is too small\");\r\n    require(msg.value < 1 ether, \"the value of the donation is too large, maximum is 1 Ether\");\r\n    require(trackOwners[_trackId] != address(0), \"the specified track owner doesnt exist\");\r\n    donations[trackOwners[_trackId]] += (_donation - minDonation);\r\n    donations[owner()] += minDonation;\r\n  }\r\n\r\n  /**\r\n   * @dev Withdraw the donations to the senders address (if allowed)\r\n   * \tDonations are restricted to (0, 1] ether.\r\n   */ \r\n  function withdraw() public  whenNotPaused{\r\n    require(donations[msg.sender] > 0);\r\n    payable(msg.sender).transfer(donations[msg.sender]);\r\n  }\r\n  \r\n}\r\n\r\n\r\n\t",
  "sourcePath": "/mnt/d/projects/blockchain-developer-bootcamp-final-project/contracts/Tracks.sol",
  "compiler": {
    "name": "solc",
    "version": "0.8.7+commit.e28d00a7.Emscripten.clang"
  },
  "schemaVersion": "3.4.3",
  "updatedAt": "2021-10-26T11:34:26.365Z",
  "devdoc": {
    "kind": "dev",
    "methods": {
      "addEntry(uint256,string,string,string)": {
        "details": "Add an entry to a specific track.  The entry is attached to a track as stored data on-chain. However, the  actual data belonging to the entry is emitted as an event.",
        "params": {
          "_trackId": "The id of the track"
        },
        "returns": {
          "_0": "the id of the new entry."
        }
      },
      "addTrack(string,string)": {
        "details": "Add a track. The track is stored as data on-chain.",
        "params": {
          "_desc": "a brief description of what the track is about.",
          "_name": "the name of the track."
        },
        "returns": {
          "_0": "the trackId of the new track."
        }
      },
      "banUser(address,bool)": {
        "details": "Ban a user from participation.   This function is only availble to the contract owner.",
        "params": {
          "addr": ", address of the user to block",
          "banned": ", true to ban, false to unban."
        }
      },
      "blockTrack(uint256)": {
        "details": "Set a specific track to the 'Blocked' state.",
        "params": {
          "_trackId": "The id of the track"
        }
      },
      "closeTrack(uint256)": {
        "details": "Set a specific track to the 'Closed' state.",
        "params": {
          "_trackId": "The id of the track"
        }
      },
      "constructor": {
        "details": "Create the new contract.  The default is to have tracks open with cooldowns enabled."
      },
      "disableAllTracks(bool)": {
        "details": "Set all existing tracks to the 'Blocked' state.",
        "params": {
          "enable": "true to block, false to unblock."
        }
      },
      "disableAllVoting(bool)": {
        "details": "Set all voting to the 'Blocked' state.",
        "params": {
          "enable": ", true to block, false to unblock."
        }
      },
      "donateToOwner(uint256)": {
        "details": "Set the percentage of transaction fees to add to donations. \tDonations are restricted to (0, 1] ether.",
        "params": {
          "_donation": "in wei to donate"
        }
      },
      "donateToTrackOwner(uint256,uint256)": {
        "details": "Set the percentage of transaction fees to add to donations. \tDonations are restricted to (0, 1] ether.",
        "params": {
          "_donation": "in wei to donate",
          "_trackId": "id of the track to donate to"
        }
      },
      "enableCooldowns(bool)": {
        "details": "Enable or disable the use of cooldowns.  Cooldown allows automation blocking to balance throughput.",
        "params": {
          "enable": "A bool set to true to enable cooldowns, false to disable."
        }
      },
      "getEntriesForTrack(uint256)": {
        "details": "Get all the entries attached to a specific track",
        "params": {
          "_trackId": "The id of the track"
        },
        "returns": {
          "_0": "all the Entry ids attached to the track "
        }
      },
      "getTrack(uint256)": {
        "details": "Get a specific tracks object",
        "params": {
          "_trackId": "The id of the track"
        },
        "returns": {
          "_0": "the relevant Track object"
        }
      },
      "getTrackState(uint256)": {
        "details": "Get the state of a track as a string key.",
        "params": {
          "_trackId": "The id of the track"
        }
      },
      "getTracks()": {
        "details": "Get all tracks",
        "returns": {
          "_0": "array of all tracks by object"
        }
      },
      "isSenderInEntryCreationCooldown()": {
        "details": "Check if a user is in a cooldown period for entry creation.  Cooldown allows automation blocking to balance throughput.",
        "returns": {
          "_0": "true if user is in cooldown, false otherwise."
        }
      },
      "isSenderInTrackCreationCooldown()": {
        "details": "Check if a user is in a cooldown period for track creation.  Cooldown allows automation blocking to balance throughput.",
        "returns": {
          "_0": "true if user is in cooldown, false otherwise."
        }
      },
      "isSenderInVotingCooldown(uint256)": {
        "details": "Check if a user is in a cooldown period for voting.  Cooldown allows automation blocking to balance throughput.",
        "returns": {
          "_0": "true if user is in cooldown, false otherwise."
        }
      },
      "isTrackBlocked(uint256)": {
        "details": "Check a specific track is in the 'Blocked' state.",
        "params": {
          "_trackId": "The id of the track"
        }
      },
      "isTrackClosed(uint256)": {
        "details": "Check a specific track is in the 'Open' state.",
        "params": {
          "_trackId": "The id of the track"
        }
      },
      "isTrackOpen(uint256)": {
        "details": "Check a specific track is in the 'Open' state.",
        "params": {
          "_trackId": "The id of the track"
        }
      },
      "isUserBanned(address)": {
        "details": "CHeck if a user is bannedfrom participation. ",
        "params": {
          "addr": ", address of the user to block"
        },
        "returns": {
          "_0": "true if banned, false otherwise."
        }
      },
      "openTrack(uint256)": {
        "details": "Set a specific track to the 'Open' state.",
        "params": {
          "_trackId": "The id of the track"
        }
      },
      "owner()": {
        "details": "Returns the address of the current owner."
      },
      "paused()": {
        "details": "Returns true if the contract is paused, and false otherwise."
      },
      "renounceOwnership()": {
        "details": "Leaves the contract without owner. It will not be possible to call `onlyOwner` functions anymore. Can only be called by the current owner. NOTE: Renouncing ownership will leave the contract without an owner, thereby removing any functionality that is only available to the owner."
      },
      "setMaxTrackCount(uint256)": {
        "details": "set the maximum amount of tracks to iterate through",
        "params": {
          "_maxCount": "the maximum length of tracks"
        }
      },
      "setMinDonation(uint256)": {
        "details": "Set the minimum donation price.",
        "params": {
          "_minDonation": "min donation"
        }
      },
      "transferOwnership(address)": {
        "details": "Transfers ownership of the contract to a new account (`newOwner`). Can only be called by the current owner."
      },
      "unblockTrack(uint256)": {
        "details": "Unblock a specific track by settings to the 'Closed' state.",
        "params": {
          "_trackId": "The id of the track"
        }
      },
      "vote(uint256)": {
        "details": "Vote for an entry.   Voting emits an event. It also sets a number of variables to follow  users voting patterns so that multiple voting and cooldowns can be   monitored.",
        "params": {
          "_entryId": "The id of the entry"
        }
      },
      "withdraw()": {
        "details": "Withdraw the donations to the senders address (if allowed) \tDonations are restricted to (0, 1] ether."
      }
    },
    "title": "The Tracks contract enables the storage of collections of  text information with voting enabled on each memeber of the collection through emitting events.",
    "version": 1
  },
  "userdoc": {
    "kind": "user",
    "methods": {},
    "version": 1
  }
}