{
  "contractName": "Tracks",
  "abi": [
    {
      "inputs": [],
      "stateMutability": "nonpayable",
      "type": "constructor"
    },
    {
      "anonymous": false,
      "inputs": [
        {
          "indexed": true,
          "internalType": "address",
          "name": "_owner",
          "type": "address"
        },
        {
          "indexed": false,
          "internalType": "uint256",
          "name": "_value",
          "type": "uint256"
        }
      ],
      "name": "CollectedDonations",
      "type": "event"
    },
    {
      "anonymous": false,
      "inputs": [
        {
          "indexed": true,
          "internalType": "address",
          "name": "_owner",
          "type": "address"
        },
        {
          "indexed": false,
          "internalType": "uint256",
          "name": "_value",
          "type": "uint256"
        }
      ],
      "name": "DonationToContractOwner",
      "type": "event"
    },
    {
      "anonymous": false,
      "inputs": [
        {
          "indexed": true,
          "internalType": "uint256",
          "name": "_trackId",
          "type": "uint256"
        },
        {
          "indexed": true,
          "internalType": "address",
          "name": "_owner",
          "type": "address"
        },
        {
          "indexed": false,
          "internalType": "uint256",
          "name": "_value",
          "type": "uint256"
        }
      ],
      "name": "DonationToTrackOwner",
      "type": "event"
    },
    {
      "anonymous": false,
      "inputs": [
        {
          "indexed": true,
          "internalType": "uint256",
          "name": "trackId",
          "type": "uint256"
        },
        {
          "indexed": true,
          "internalType": "uint256",
          "name": "entryId",
          "type": "uint256"
        },
        {
          "indexed": false,
          "internalType": "string",
          "name": "name",
          "type": "string"
        },
        {
          "indexed": false,
          "internalType": "string",
          "name": "desc",
          "type": "string"
        },
        {
          "indexed": false,
          "internalType": "string",
          "name": "location",
          "type": "string"
        }
      ],
      "name": "EntryCreated",
      "type": "event"
    },
    {
      "anonymous": false,
      "inputs": [
        {
          "indexed": true,
          "internalType": "uint256",
          "name": "trackId",
          "type": "uint256"
        },
        {
          "indexed": true,
          "internalType": "uint256",
          "name": "entryId",
          "type": "uint256"
        }
      ],
      "name": "EntryVotedFor",
      "type": "event"
    },
    {
      "anonymous": false,
      "inputs": [
        {
          "indexed": true,
          "internalType": "address",
          "name": "previousOwner",
          "type": "address"
        },
        {
          "indexed": true,
          "internalType": "address",
          "name": "newOwner",
          "type": "address"
        }
      ],
      "name": "OwnershipTransferred",
      "type": "event"
    },
    {
      "anonymous": false,
      "inputs": [
        {
          "indexed": false,
          "internalType": "address",
          "name": "account",
          "type": "address"
        }
      ],
      "name": "Paused",
      "type": "event"
    },
    {
      "anonymous": false,
      "inputs": [
        {
          "indexed": false,
          "internalType": "uint256",
          "name": "trackId",
          "type": "uint256"
        }
      ],
      "name": "TrackBlocked",
      "type": "event"
    },
    {
      "anonymous": false,
      "inputs": [
        {
          "indexed": false,
          "internalType": "uint256",
          "name": "trackId",
          "type": "uint256"
        }
      ],
      "name": "TrackClosed",
      "type": "event"
    },
    {
      "anonymous": false,
      "inputs": [
        {
          "indexed": true,
          "internalType": "uint256",
          "name": "trackId",
          "type": "uint256"
        },
        {
          "indexed": false,
          "internalType": "string",
          "name": "name",
          "type": "string"
        },
        {
          "indexed": false,
          "internalType": "string",
          "name": "desc",
          "type": "string"
        }
      ],
      "name": "TrackCreated",
      "type": "event"
    },
    {
      "anonymous": false,
      "inputs": [
        {
          "indexed": false,
          "internalType": "uint256",
          "name": "trackId",
          "type": "uint256"
        }
      ],
      "name": "TrackOpened",
      "type": "event"
    },
    {
      "anonymous": false,
      "inputs": [
        {
          "indexed": false,
          "internalType": "uint256",
          "name": "trackId",
          "type": "uint256"
        }
      ],
      "name": "TrackUnblocked",
      "type": "event"
    },
    {
      "anonymous": false,
      "inputs": [
        {
          "indexed": false,
          "internalType": "address",
          "name": "account",
          "type": "address"
        }
      ],
      "name": "Unpaused",
      "type": "event"
    },
    {
      "inputs": [],
      "name": "allTracksState",
      "outputs": [
        {
          "internalType": "enum Tracks.State",
          "name": "",
          "type": "uint8"
        }
      ],
      "stateMutability": "view",
      "type": "function"
    },
    {
      "inputs": [],
      "name": "allVotesState",
      "outputs": [
        {
          "internalType": "enum Tracks.State",
          "name": "",
          "type": "uint8"
        }
      ],
      "stateMutability": "view",
      "type": "function"
    },
    {
      "inputs": [
        {
          "internalType": "address",
          "name": "",
          "type": "address"
        }
      ],
      "name": "bannedUsers",
      "outputs": [
        {
          "internalType": "bool",
          "name": "",
          "type": "bool"
        }
      ],
      "stateMutability": "view",
      "type": "function"
    },
    {
      "inputs": [
        {
          "internalType": "address",
          "name": "",
          "type": "address"
        }
      ],
      "name": "donations",
      "outputs": [
        {
          "internalType": "uint256",
          "name": "",
          "type": "uint256"
        }
      ],
      "stateMutability": "view",
      "type": "function"
    },
    {
      "inputs": [
        {
          "internalType": "uint256",
          "name": "",
          "type": "uint256"
        }
      ],
      "name": "entriesTrack",
      "outputs": [
        {
          "internalType": "uint256",
          "name": "",
          "type": "uint256"
        }
      ],
      "stateMutability": "view",
      "type": "function"
    },
    {
      "inputs": [],
      "name": "entryCreationCooldownEnabled",
      "outputs": [
        {
          "internalType": "bool",
          "name": "",
          "type": "bool"
        }
      ],
      "stateMutability": "view",
      "type": "function"
    },
    {
      "inputs": [],
      "name": "entryEventCooldownPeriod",
      "outputs": [
        {
          "internalType": "uint256",
          "name": "",
          "type": "uint256"
        }
      ],
      "stateMutability": "view",
      "type": "function"
    },
    {
      "inputs": [
        {
          "internalType": "address",
          "name": "",
          "type": "address"
        }
      ],
      "name": "entryEventsByUser",
      "outputs": [
        {
          "internalType": "uint256",
          "name": "time",
          "type": "uint256"
        },
        {
          "internalType": "uint256",
          "name": "eventId",
          "type": "uint256"
        }
      ],
      "stateMutability": "view",
      "type": "function"
    },
    {
      "inputs": [
        {
          "internalType": "address",
          "name": "",
          "type": "address"
        },
        {
          "internalType": "uint256",
          "name": "",
          "type": "uint256"
        }
      ],
      "name": "lastVoteTime",
      "outputs": [
        {
          "internalType": "uint256",
          "name": "",
          "type": "uint256"
        }
      ],
      "stateMutability": "view",
      "type": "function"
    },
    {
      "inputs": [],
      "name": "maxTrackCount",
      "outputs": [
        {
          "internalType": "uint256",
          "name": "",
          "type": "uint256"
        }
      ],
      "stateMutability": "view",
      "type": "function"
    },
    {
      "inputs": [],
      "name": "minDonation",
      "outputs": [
        {
          "internalType": "uint256",
          "name": "",
          "type": "uint256"
        }
      ],
      "stateMutability": "view",
      "type": "function"
    },
    {
      "inputs": [],
      "name": "nextEntryId",
      "outputs": [
        {
          "internalType": "uint256",
          "name": "",
          "type": "uint256"
        }
      ],
      "stateMutability": "view",
      "type": "function"
    },
    {
      "inputs": [],
      "name": "nextTrackId",
      "outputs": [
        {
          "internalType": "uint256",
          "name": "",
          "type": "uint256"
        }
      ],
      "stateMutability": "view",
      "type": "function"
    },
    {
      "inputs": [],
      "name": "owner",
      "outputs": [
        {
          "internalType": "address",
          "name": "",
          "type": "address"
        }
      ],
      "stateMutability": "view",
      "type": "function"
    },
    {
      "inputs": [],
      "name": "paused",
      "outputs": [
        {
          "internalType": "bool",
          "name": "",
          "type": "bool"
        }
      ],
      "stateMutability": "view",
      "type": "function"
    },
    {
      "inputs": [],
      "name": "renounceOwnership",
      "outputs": [],
      "stateMutability": "nonpayable",
      "type": "function"
    },
    {
      "inputs": [],
      "name": "trackCount",
      "outputs": [
        {
          "internalType": "uint256",
          "name": "",
          "type": "uint256"
        }
      ],
      "stateMutability": "view",
      "type": "function"
    },
    {
      "inputs": [],
      "name": "trackCreationCooldownEnabled",
      "outputs": [
        {
          "internalType": "bool",
          "name": "",
          "type": "bool"
        }
      ],
      "stateMutability": "view",
      "type": "function"
    },
    {
      "inputs": [
        {
          "internalType": "uint256",
          "name": "",
          "type": "uint256"
        },
        {
          "internalType": "uint256",
          "name": "",
          "type": "uint256"
        }
      ],
      "name": "trackEntries",
      "outputs": [
        {
          "internalType": "uint256",
          "name": "",
          "type": "uint256"
        }
      ],
      "stateMutability": "view",
      "type": "function"
    },
    {
      "inputs": [],
      "name": "trackEventCooldownPeriod",
      "outputs": [
        {
          "internalType": "uint256",
          "name": "",
          "type": "uint256"
        }
      ],
      "stateMutability": "view",
      "type": "function"
    },
    {
      "inputs": [
        {
          "internalType": "address",
          "name": "",
          "type": "address"
        }
      ],
      "name": "trackEventsByUser",
      "outputs": [
        {
          "internalType": "uint256",
          "name": "time",
          "type": "uint256"
        },
        {
          "internalType": "uint256",
          "name": "trackId",
          "type": "uint256"
        }
      ],
      "stateMutability": "view",
      "type": "function"
    },
    {
      "inputs": [
        {
          "internalType": "uint256",
          "name": "",
          "type": "uint256"
        }
      ],
      "name": "trackOwners",
      "outputs": [
        {
          "internalType": "address",
          "name": "",
          "type": "address"
        }
      ],
      "stateMutability": "view",
      "type": "function"
    },
    {
      "inputs": [
        {
          "internalType": "uint256",
          "name": "",
          "type": "uint256"
        }
      ],
      "name": "tracks",
      "outputs": [
        {
          "internalType": "uint256",
          "name": "trackId",
          "type": "uint256"
        },
        {
          "internalType": "string",
          "name": "name",
          "type": "string"
        },
        {
          "internalType": "string",
          "name": "desc",
          "type": "string"
        },
        {
          "internalType": "enum Tracks.State",
          "name": "state",
          "type": "uint8"
        },
        {
          "internalType": "bool",
          "name": "exists",
          "type": "bool"
        },
        {
          "internalType": "bool",
          "name": "visible",
          "type": "bool"
        },
        {
          "internalType": "bool",
          "name": "pinned",
          "type": "bool"
        }
      ],
      "stateMutability": "view",
      "type": "function"
    },
    {
      "inputs": [
        {
          "internalType": "address",
          "name": "newOwner",
          "type": "address"
        }
      ],
      "name": "transferOwnership",
      "outputs": [],
      "stateMutability": "nonpayable",
      "type": "function"
    },
    {
      "inputs": [],
      "name": "voteCooldownPeriod",
      "outputs": [
        {
          "internalType": "uint256",
          "name": "",
          "type": "uint256"
        }
      ],
      "stateMutability": "view",
      "type": "function"
    },
    {
      "inputs": [
        {
          "internalType": "address",
          "name": "",
          "type": "address"
        },
        {
          "internalType": "uint256",
          "name": "",
          "type": "uint256"
        }
      ],
      "name": "votesByAddress",
      "outputs": [
        {
          "internalType": "bool",
          "name": "",
          "type": "bool"
        }
      ],
      "stateMutability": "view",
      "type": "function"
    },
    {
      "inputs": [
        {
          "internalType": "uint256",
          "name": "",
          "type": "uint256"
        }
      ],
      "name": "votesByTrack",
      "outputs": [
        {
          "internalType": "uint256",
          "name": "",
          "type": "uint256"
        }
      ],
      "stateMutability": "view",
      "type": "function"
    },
    {
      "inputs": [],
      "name": "votingCooldownEnabled",
      "outputs": [
        {
          "internalType": "bool",
          "name": "",
          "type": "bool"
        }
      ],
      "stateMutability": "view",
      "type": "function"
    },
    {
      "inputs": [],
      "name": "getTracks",
      "outputs": [
        {
          "components": [
            {
              "internalType": "uint256",
              "name": "trackId",
              "type": "uint256"
            },
            {
              "internalType": "string",
              "name": "name",
              "type": "string"
            },
            {
              "internalType": "string",
              "name": "desc",
              "type": "string"
            },
            {
              "internalType": "enum Tracks.State",
              "name": "state",
              "type": "uint8"
            },
            {
              "internalType": "bool",
              "name": "exists",
              "type": "bool"
            },
            {
              "internalType": "bool",
              "name": "visible",
              "type": "bool"
            },
            {
              "internalType": "bool",
              "name": "pinned",
              "type": "bool"
            }
          ],
          "internalType": "struct Tracks.Track[]",
          "name": "",
          "type": "tuple[]"
        }
      ],
      "stateMutability": "view",
      "type": "function"
    },
    {
      "inputs": [
        {
          "internalType": "uint256",
          "name": "_trackId",
          "type": "uint256"
        }
      ],
      "name": "getTrack",
      "outputs": [
        {
          "components": [
            {
              "internalType": "uint256",
              "name": "trackId",
              "type": "uint256"
            },
            {
              "internalType": "string",
              "name": "name",
              "type": "string"
            },
            {
              "internalType": "string",
              "name": "desc",
              "type": "string"
            },
            {
              "internalType": "enum Tracks.State",
              "name": "state",
              "type": "uint8"
            },
            {
              "internalType": "bool",
              "name": "exists",
              "type": "bool"
            },
            {
              "internalType": "bool",
              "name": "visible",
              "type": "bool"
            },
            {
              "internalType": "bool",
              "name": "pinned",
              "type": "bool"
            }
          ],
          "internalType": "struct Tracks.Track",
          "name": "",
          "type": "tuple"
        }
      ],
      "stateMutability": "view",
      "type": "function"
    },
    {
      "inputs": [
        {
          "internalType": "uint256",
          "name": "_trackId",
          "type": "uint256"
        }
      ],
      "name": "getEntriesForTrack",
      "outputs": [
        {
          "internalType": "uint256[]",
          "name": "",
          "type": "uint256[]"
        }
      ],
      "stateMutability": "view",
      "type": "function"
    },
    {
      "inputs": [
        {
          "internalType": "uint256",
          "name": "_trackId",
          "type": "uint256"
        }
      ],
      "name": "openTrack",
      "outputs": [],
      "stateMutability": "nonpayable",
      "type": "function"
    },
    {
      "inputs": [
        {
          "internalType": "uint256",
          "name": "_trackId",
          "type": "uint256"
        }
      ],
      "name": "closeTrack",
      "outputs": [],
      "stateMutability": "nonpayable",
      "type": "function"
    },
    {
      "inputs": [
        {
          "internalType": "uint256",
          "name": "_trackId",
          "type": "uint256"
        }
      ],
      "name": "blockTrack",
      "outputs": [],
      "stateMutability": "nonpayable",
      "type": "function"
    },
    {
      "inputs": [
        {
          "internalType": "uint256",
          "name": "_trackId",
          "type": "uint256"
        }
      ],
      "name": "unblockTrack",
      "outputs": [],
      "stateMutability": "nonpayable",
      "type": "function"
    },
    {
      "inputs": [
        {
          "internalType": "uint256",
          "name": "_trackId",
          "type": "uint256"
        }
      ],
      "name": "getTrackState",
      "outputs": [
        {
          "internalType": "string",
          "name": "",
          "type": "string"
        }
      ],
      "stateMutability": "view",
      "type": "function"
    },
    {
      "inputs": [
        {
          "internalType": "uint256",
          "name": "_trackId",
          "type": "uint256"
        }
      ],
      "name": "isTrackOpen",
      "outputs": [
        {
          "internalType": "bool",
          "name": "",
          "type": "bool"
        }
      ],
      "stateMutability": "view",
      "type": "function"
    },
    {
      "inputs": [
        {
          "internalType": "uint256",
          "name": "_trackId",
          "type": "uint256"
        }
      ],
      "name": "isTrackClosed",
      "outputs": [
        {
          "internalType": "bool",
          "name": "",
          "type": "bool"
        }
      ],
      "stateMutability": "view",
      "type": "function"
    },
    {
      "inputs": [
        {
          "internalType": "uint256",
          "name": "_trackId",
          "type": "uint256"
        }
      ],
      "name": "isTrackBlocked",
      "outputs": [
        {
          "internalType": "bool",
          "name": "",
          "type": "bool"
        }
      ],
      "stateMutability": "view",
      "type": "function"
    },
    {
      "inputs": [
        {
          "internalType": "uint256",
          "name": "_entryId",
          "type": "uint256"
        }
      ],
      "name": "vote",
      "outputs": [],
      "stateMutability": "nonpayable",
      "type": "function"
    },
    {
      "inputs": [
        {
          "internalType": "uint256",
          "name": "_trackId",
          "type": "uint256"
        },
        {
          "internalType": "string",
          "name": "_name",
          "type": "string"
        },
        {
          "internalType": "string",
          "name": "_desc",
          "type": "string"
        },
        {
          "internalType": "string",
          "name": "_location",
          "type": "string"
        }
      ],
      "name": "addEntry",
      "outputs": [
        {
          "internalType": "uint256",
          "name": "",
          "type": "uint256"
        }
      ],
      "stateMutability": "nonpayable",
      "type": "function"
    },
    {
      "inputs": [
        {
          "internalType": "string",
          "name": "_name",
          "type": "string"
        },
        {
          "internalType": "string",
          "name": "_desc",
          "type": "string"
        }
      ],
      "name": "addTrack",
      "outputs": [
        {
          "internalType": "uint256",
          "name": "",
          "type": "uint256"
        }
      ],
      "stateMutability": "nonpayable",
      "type": "function"
    },
    {
      "inputs": [
        {
          "internalType": "bool",
          "name": "enable",
          "type": "bool"
        }
      ],
      "name": "disableAllTracks",
      "outputs": [],
      "stateMutability": "nonpayable",
      "type": "function"
    },
    {
      "inputs": [
        {
          "internalType": "bool",
          "name": "enable",
          "type": "bool"
        }
      ],
      "name": "disableAllVoting",
      "outputs": [],
      "stateMutability": "nonpayable",
      "type": "function"
    },
    {
      "inputs": [
        {
          "internalType": "address",
          "name": "addr",
          "type": "address"
        },
        {
          "internalType": "bool",
          "name": "banned",
          "type": "bool"
        }
      ],
      "name": "banUser",
      "outputs": [],
      "stateMutability": "nonpayable",
      "type": "function"
    },
    {
      "inputs": [
        {
          "internalType": "address",
          "name": "addr",
          "type": "address"
        }
      ],
      "name": "isUserBanned",
      "outputs": [
        {
          "internalType": "bool",
          "name": "",
          "type": "bool"
        }
      ],
      "stateMutability": "view",
      "type": "function"
    },
    {
      "inputs": [],
      "name": "isSenderInTrackCreationCooldown",
      "outputs": [
        {
          "internalType": "bool",
          "name": "",
          "type": "bool"
        }
      ],
      "stateMutability": "view",
      "type": "function"
    },
    {
      "inputs": [],
      "name": "isSenderInEntryCreationCooldown",
      "outputs": [
        {
          "internalType": "bool",
          "name": "",
          "type": "bool"
        }
      ],
      "stateMutability": "view",
      "type": "function"
    },
    {
      "inputs": [
        {
          "internalType": "uint256",
          "name": "trackId",
          "type": "uint256"
        }
      ],
      "name": "isSenderInVotingCooldown",
      "outputs": [
        {
          "internalType": "bool",
          "name": "",
          "type": "bool"
        }
      ],
      "stateMutability": "view",
      "type": "function"
    },
    {
      "inputs": [
        {
          "internalType": "bool",
          "name": "enable",
          "type": "bool"
        }
      ],
      "name": "enableCooldowns",
      "outputs": [],
      "stateMutability": "nonpayable",
      "type": "function"
    },
    {
      "inputs": [
        {
          "internalType": "uint256",
          "name": "_maxCount",
          "type": "uint256"
        }
      ],
      "name": "setMaxTrackCount",
      "outputs": [],
      "stateMutability": "nonpayable",
      "type": "function"
    },
    {
      "inputs": [
        {
          "internalType": "uint256",
          "name": "_minDonation",
          "type": "uint256"
        }
      ],
      "name": "setMinDonation",
      "outputs": [],
      "stateMutability": "nonpayable",
      "type": "function"
    },
    {
      "inputs": [],
      "name": "donateToContractOwner",
      "outputs": [],
      "stateMutability": "payable",
      "type": "function"
    },
    {
      "inputs": [
        {
          "internalType": "uint256",
          "name": "_trackId",
          "type": "uint256"
        }
      ],
      "name": "donateToTrackOwner",
      "outputs": [],
      "stateMutability": "payable",
      "type": "function"
    },
    {
      "inputs": [],
      "name": "collectDonations",
      "outputs": [
        {
          "internalType": "uint256",
          "name": "",
          "type": "uint256"
        }
      ],
      "stateMutability": "nonpayable",
      "type": "function"
    }
  ],
  "bytecode": "0x60806040523480156200001157600080fd5b5062000032620000266200011260201b60201c565b6200011a60201b60201c565b60008060146101000a81548160ff021916908315150217905550603c601181905550603c601281905550603c6013819055506000601460006101000a81548160ff021916908360028111156200008d576200008c62001712565b5b02179055506000601460016101000a81548160ff02191690836002811115620000bb57620000ba62001712565b5b0217905550620000d26001620001de60201b60201c565b620000e2620002be60201b60201c565b620000f56103e8620003e160201b60201c565b6200010c6509184e72a0006200047a60201b60201c565b62001961565b600033905090565b60008060009054906101000a900473ffffffffffffffffffffffffffffffffffffffff169050816000806101000a81548173ffffffffffffffffffffffffffffffffffffffff021916908373ffffffffffffffffffffffffffffffffffffffff1602179055508173ffffffffffffffffffffffffffffffffffffffff168173ffffffffffffffffffffffffffffffffffffffff167f8be0079c531659141344cd1fd0a4f28419497f9722a3daafe3b4186f6b6457e060405160405180910390a35050565b620001ee6200011260201b60201c565b73ffffffffffffffffffffffffffffffffffffffff16620002146200053460201b60201c565b73ffffffffffffffffffffffffffffffffffffffff16146200026d576040517f08c379a00000000000000000000000000000000000000000000000000000000081526004016200026490620014df565b60405180910390fd5b80601460026101000a81548160ff02191690831515021790555080601460036101000a81548160ff02191690831515021790555080601460046101000a81548160ff02191690831515021790555050565b6000620003206040518060400160405280600481526020017f48656c70000000000000000000000000000000000000000000000000000000008152506040518060600160405280602981526020016200775c602991396200055d60201b60201c565b90506200039d816040518060400160405280600881526020017f486f6d657061676500000000000000000000000000000000000000000000000081525060405180606001604052806024815260200162007785602491396040518060800160405280604a8152602001620077a9604a913962000a8460201b60201c565b5060016004600083815260200190815260200160002060030160036101000a81548160ff021916908315150217905550620003de8162000f5060201b60201c565b50565b620003f16200011260201b60201c565b73ffffffffffffffffffffffffffffffffffffffff16620004176200053460201b60201c565b73ffffffffffffffffffffffffffffffffffffffff161462000470576040517f08c379a00000000000000000000000000000000000000000000000000000000081526004016200046790620014df565b60405180910390fd5b8060038190555050565b6200048a6200011260201b60201c565b73ffffffffffffffffffffffffffffffffffffffff16620004b06200053460201b60201c565b73ffffffffffffffffffffffffffffffffffffffff161462000509576040517f08c379a00000000000000000000000000000000000000000000000000000000081526004016200050090620014df565b60405180910390fd5b60008111801562000520575066038d7ea4c6800081105b6200052a57600080fd5b8060028190555050565b60008060009054906101000a900473ffffffffffffffffffffffffffffffffffffffff16905090565b600060028081111562000575576200057462001712565b5b601460009054906101000a900460ff1660028111156200059a576200059962001712565b5b1415620005de576040517f08c379a0000000000000000000000000000000000000000000000000000000008152600401620005d59062001523565b60405180910390fd5b33601460029054906101000a900460ff161580620006365750620006076200053460201b60201c565b73ffffffffffffffffffffffffffffffffffffffff168173ffffffffffffffffffffffffffffffffffffffff16145b806200068457506000600960008373ffffffffffffffffffffffffffffffffffffffff1673ffffffffffffffffffffffffffffffffffffffff16815260200190815260200160002060000154145b80620006e0575042601354600960008473ffffffffffffffffffffffffffffffffffffffff1673ffffffffffffffffffffffffffffffffffffffff16815260200190815260200160002060000154620006de9190620015c2565b115b62000722576040517f08c379a0000000000000000000000000000000000000000000000000000000008152600401620007199062001545565b60405180910390fd5b33620007336200053460201b60201c565b73ffffffffffffffffffffffffffffffffffffffff168173ffffffffffffffffffffffffffffffffffffffff16141580620007bf575060011515600d60008373ffffffffffffffffffffffffffffffffffffffff1673ffffffffffffffffffffffffffffffffffffffff16815260200190815260200160002060009054906101000a900460ff16151514155b62000801576040517f08c379a0000000000000000000000000000000000000000000000000000000008152600401620007f89062001501565b60405180910390fd5b6000600e5490506040518060e00160405280828152602001878152602001868152602001600060028111156200083c576200083b62001712565b5b8152602001600115158152602001600115158152602001600015158152506004600083815260200190815260200160002060008201518160000155602082015181600101908051906020019062000895929190620011b2565b506040820151816002019080519060200190620008b4929190620011b2565b5060608201518160030160006101000a81548160ff02191690836002811115620008e357620008e262001712565b5b021790555060808201518160030160016101000a81548160ff02191690831515021790555060a08201518160030160026101000a81548160ff02191690831515021790555060c08201518160030160036101000a81548160ff021916908315150217905550905050604051806040016040528042815260200182815250600960003373ffffffffffffffffffffffffffffffffffffffff1673ffffffffffffffffffffffffffffffffffffffff1681526020019081526020016000206000820151816000015560208201518160010155905050336007600083815260200190815260200160002060006101000a81548173ffffffffffffffffffffffffffffffffffffffff021916908373ffffffffffffffffffffffffffffffffffffffff160217905550600e600081548092919062000a1d9062001695565b9190505550600f600081548092919062000a379062001695565b9190505550807f21579433a032855e20e8afc48e980ddae0b6285e4aa03370f03192be12bea28b878760405162000a70929190620013ec565b60405180910390a280935050505092915050565b600060028081111562000a9c5762000a9b62001712565b5b601460009054906101000a900460ff16600281111562000ac15762000ac062001712565b5b141562000b05576040517f08c379a000000000000000000000000000000000000000000000000000000000815260040162000afc9062001523565b60405180910390fd5b3362000b166200053460201b60201c565b73ffffffffffffffffffffffffffffffffffffffff168173ffffffffffffffffffffffffffffffffffffffff1614158062000ba2575060011515600d60008373ffffffffffffffffffffffffffffffffffffffff1673ffffffffffffffffffffffffffffffffffffffff16815260200190815260200160002060009054906101000a900460ff16151514155b62000be4576040517f08c379a000000000000000000000000000000000000000000000000000000000815260040162000bdb9062001501565b60405180910390fd5b33601460049054906101000a900460ff16158062000c3c575062000c0d6200053460201b60201c565b73ffffffffffffffffffffffffffffffffffffffff168173ffffffffffffffffffffffffffffffffffffffff16145b8062000c8a57506000600a60008373ffffffffffffffffffffffffffffffffffffffff1673ffffffffffffffffffffffffffffffffffffffff16815260200190815260200160002060000154145b8062000ce6575042601254600a60008473ffffffffffffffffffffffffffffffffffffffff1673ffffffffffffffffffffffffffffffffffffffff1681526020019081526020016000206000015462000ce49190620015c2565b115b62000d28576040517f08c379a000000000000000000000000000000000000000000000000000000000815260040162000d1f906200149b565b60405180910390fd5b866000600281111562000d405762000d3f62001712565b5b6004600083815260200190815260200160002060030160009054906101000a900460ff16600281111562000d795762000d7862001712565b5b1462000d8457600080fd5b6000600281111562000d9b5762000d9a62001712565b5b601460009054906101000a900460ff16600281111562000dc05762000dbf62001712565b5b1462000e03576040517f08c379a000000000000000000000000000000000000000000000000000000000815260040162000dfa9062001479565b60405180910390fd5b60006010549050600060066000838152602001908152602001600020541462000e2b57600080fd5b600560008a8152602001908152602001600020819080600181540180825580915050600190039060005260206000200160009091909190915055886006600083815260200190815260200160002081905550604051806040016040528042815260200182815250600a60003373ffffffffffffffffffffffffffffffffffffffff1673ffffffffffffffffffffffffffffffffffffffff16815260200190815260200160002060008201518160000155602082015181600101559050506010600081548092919062000efd9062001695565b919050555080897f313f81e8cc8fe5ab3d1facaeffd8e0d26068ff1776d23a4621a5bdb0c891c8178a8a8a60405162000f399392919062001427565b60405180910390a380945050505050949350505050565b80600115156004600083815260200190815260200160002060030160019054906101000a900460ff1615151462000fbe576040517f08c379a000000000000000000000000000000000000000000000000000000000815260040162000fb59062001567565b60405180910390fd5b8160028081111562000fd55762000fd462001712565b5b6004600083815260200190815260200160002060030160009054906101000a900460ff1660028111156200100e576200100d62001712565b5b141562001052576040517f08c379a00000000000000000000000000000000000000000000000000000000081526004016200104990620014bd565b60405180910390fd5b33620010636200053460201b60201c565b73ffffffffffffffffffffffffffffffffffffffff168173ffffffffffffffffffffffffffffffffffffffff16141580620010ef575060011515600d60008373ffffffffffffffffffffffffffffffffffffffff1673ffffffffffffffffffffffffffffffffffffffff16815260200190815260200160002060009054906101000a900460ff16151514155b62001131576040517f08c379a0000000000000000000000000000000000000000000000000000000008152600401620011289062001501565b60405180910390fd5b60026004600086815260200190815260200160002060030160006101000a81548160ff021916908360028111156200116e576200116d62001712565b5b02179055507fa589501e457bda1f31782af099f2695facb8e79d38d121802e6ac1c53237b84184604051620011a4919062001589565b60405180910390a150505050565b828054620011c0906200165f565b90600052602060002090601f016020900481019282620011e4576000855562001230565b82601f10620011ff57805160ff191683800117855562001230565b8280016001018555821562001230579182015b828111156200122f57825182559160200191906001019062001212565b5b5090506200123f919062001243565b5090565b5b808211156200125e57600081600090555060010162001244565b5090565b60006200126f82620015a6565b6200127b8185620015b1565b93506200128d81856020860162001629565b620012988162001770565b840191505092915050565b6000620012b2602483620015b1565b9150620012bf8262001781565b604082019050919050565b6000620012d9602483620015b1565b9150620012e682620017d0565b604082019050919050565b600062001300601183620015b1565b91506200130d826200181f565b602082019050919050565b600062001327602083620015b1565b9150620013348262001848565b602082019050919050565b60006200134e601d83620015b1565b91506200135b8262001871565b602082019050919050565b600062001375602583620015b1565b915062001382826200189a565b604082019050919050565b60006200139c602483620015b1565b9150620013a982620018e9565b604082019050919050565b6000620013c3601483620015b1565b9150620013d08262001938565b602082019050919050565b620013e6816200161f565b82525050565b6000604082019050818103600083015262001408818562001262565b905081810360208301526200141e818462001262565b90509392505050565b6000606082019050818103600083015262001443818662001262565b9050818103602083015262001459818562001262565b905081810360408301526200146f818462001262565b9050949350505050565b600060208201905081810360008301526200149481620012a3565b9050919050565b60006020820190508181036000830152620014b681620012ca565b9050919050565b60006020820190508181036000830152620014d881620012f1565b9050919050565b60006020820190508181036000830152620014fa8162001318565b9050919050565b600060208201905081810360008301526200151c816200133f565b9050919050565b600060208201905081810360008301526200153e8162001366565b9050919050565b6000602082019050818103600083015262001560816200138d565b9050919050565b600060208201905081810360008301526200158281620013b4565b9050919050565b6000602082019050620015a06000830184620013db565b92915050565b600081519050919050565b600082825260208201905092915050565b6000620015cf826200161f565b9150620015dc836200161f565b9250827fffffffffffffffffffffffffffffffffffffffffffffffffffffffffffffffff03821115620016145762001613620016e3565b5b828201905092915050565b6000819050919050565b60005b83811015620016495780820151818401526020810190506200162c565b8381111562001659576000848401525b50505050565b600060028204905060018216806200167857607f821691505b602082108114156200168f576200168e62001741565b5b50919050565b6000620016a2826200161f565b91507fffffffffffffffffffffffffffffffffffffffffffffffffffffffffffffffff821415620016d857620016d7620016e3565b5b600182019050919050565b7f4e487b7100000000000000000000000000000000000000000000000000000000600052601160045260246000fd5b7f4e487b7100000000000000000000000000000000000000000000000000000000600052602160045260246000fd5b7f4e487b7100000000000000000000000000000000000000000000000000000000600052602260045260246000fd5b6000601f19601f8301169050919050565b7f416c6c20747261636b732068617665206265656e20636c6f736564206279206160008201527f646d696e00000000000000000000000000000000000000000000000000000000602082015250565b7f557365722069732063757272656e746c7920696e20656e74727920636f6f6c6460008201527f6f776e2e00000000000000000000000000000000000000000000000000000000602082015250565b7f547261636b20697320626c6f636b65642e000000000000000000000000000000600082015250565b7f4f776e61626c653a2063616c6c6572206973206e6f7420746865206f776e6572600082015250565b7f5573657220686173206265656e2062616e6e65642062792061646d696e000000600082015250565b7f416c6c20747261636b732068617665206265656e20626c6f636b65642062792060008201527f61646d696e000000000000000000000000000000000000000000000000000000602082015250565b7f557365722069732063757272656e746c7920696e20747261636b20636f6f6c6460008201527f6f776e2e00000000000000000000000000000000000000000000000000000000602082015250565b7f547261636b20646f6573206e6f74206578697374000000000000000000000000600082015250565b615deb80620019716000396000f3fe6080604052600436106103505760003560e01c80638ee223f9116101c6578063caa2c2ad116100f7578063e6b2cf6c11610095578063f2fde38b1161006f578063f2fde38b14610d0e578063f838e33f14610d37578063f9eafb5714610d62578063fb00844714610d8d57610350565b8063e6b2cf6c14610c7c578063eea85bc514610ca7578063ef75976114610ce557610350565b8063d2496624116100d1578063d249662414610bab578063db7c01e214610bd6578063dc0bd01114610c13578063debe8ab714610c3e57610350565b8063caa2c2ad14610af4578063cc6cb19a14610b31578063d02f448314610b6e57610350565b8063a5bf8ea911610164578063add509c01161013e578063add509c014610a59578063bb855ee614610a82578063c25f7fe114610aad578063c67f8b8a14610ab757610350565b8063a5bf8ea9146109da578063a72024c614610a03578063ab35678c14610a2e57610350565b8063962dd807116101a0578063962dd807146108f25780639ebe639a1461092f5780639ed9b4fd1461095a578063a2e345861461099757610350565b80638ee223f91461084f578063924e9b951461087857806395ab2b98146108b557610350565b80634bc558b3116102a0578063715018a61161023e5780638501eb38116102185780638501eb381461079357806387548fcf146107bc5780638988d078146107e75780638da5cb5b1461082457610350565b8063715018a6146107285780637e8898ea1461073f57806383a6595f1461076a57610350565b80635e11ca821161027a5780635e11ca821461065a578063629058ca1461068557806366cb5936146106c257806368e982b0146106ff57610350565b80634bc558b3146105c95780635be85297146106065780635c975abb1461062f57610350565b806328ae3ebb1161030d57806333abbe51116102e757806333abbe511461050a57806336de40be14610547578063423b7032146105845780634682bd21146105ad57610350565b806328ae3ebb146104775780632a3f2f89146104a25780632e42ddbf146104cd57610350565b80630121b93f146103555780630955ccff1461037e5780630ea4d2ee146103a9578063109699b6146103e65780631c0e0225146104235780631f6c5f001461044e575b600080fd5b34801561036157600080fd5b5061037c6004803603810190610377919061480f565b610db8565b005b34801561038a57600080fd5b5061039361135d565b6040516103a09190615327565b60405180910390f35b3480156103b557600080fd5b506103d060048036038101906103cb919061480f565b611363565b6040516103dd9190614fe0565b60405180910390f35b3480156103f257600080fd5b5061040d600480360381019061040891906148f7565b6115be565b60405161041a9190615327565b60405180910390f35b34801561042f57600080fd5b506104386115ef565b6040516104459190615327565b60405180910390f35b34801561045a57600080fd5b506104756004803603810190610470919061480f565b6115f5565b005b34801561048357600080fd5b5061048c611869565b6040516104999190614faa565b60405180910390f35b3480156104ae57600080fd5b506104b7611939565b6040516104c49190615327565b60405180910390f35b3480156104d957600080fd5b506104f460048036038101906104ef919061483c565b61193f565b6040516105019190615327565b60405180910390f35b34801561051657600080fd5b50610531600480360381019061052c919061480f565b611dd1565b60405161053e9190614faa565b60405180910390f35b34801561055357600080fd5b5061056e60048036038101906105699190614797565b611e91565b60405161057b9190615327565b60405180910390f35b34801561059057600080fd5b506105ab60048036038101906105a6919061480f565b612383565b005b6105c760048036038101906105c2919061480f565b612637565b005b3480156105d557600080fd5b506105f060048036038101906105eb919061472a565b61296a565b6040516105fd9190615327565b60405180910390f35b34801561061257600080fd5b5061062d6004803603810190610628919061476a565b61298f565b005b34801561063b57600080fd5b50610644612a5c565b6040516106519190614faa565b60405180910390f35b34801561066657600080fd5b5061066f612a72565b60405161067c9190614fc5565b60405180910390f35b34801561069157600080fd5b506106ac60048036038101906106a7919061480f565b612a85565b6040516106b99190615305565b60405180910390f35b3480156106ce57600080fd5b506106e960048036038101906106e4919061480f565b612cf8565b6040516106f69190614faa565b60405180910390f35b34801561070b57600080fd5b506107266004803603810190610721919061480f565b612db8565b005b34801561073457600080fd5b5061073d612ffc565b005b34801561074b57600080fd5b50610754613084565b6040516107619190614faa565b60405180910390f35b34801561077657600080fd5b50610791600480360381019061078c919061480f565b613097565b005b34801561079f57600080fd5b506107ba60048036038101906107b5919061480f565b61313c565b005b3480156107c857600080fd5b506107d16131c2565b6040516107de9190614f66565b60405180910390f35b3480156107f357600080fd5b5061080e600480360381019061080991906146bd565b61346c565b60405161081b9190614faa565b60405180910390f35b34801561083057600080fd5b5061083961348c565b6040516108469190614f4b565b60405180910390f35b34801561085b57600080fd5b50610876600480360381019061087191906146ea565b6134b5565b005b34801561088457600080fd5b5061089f600480360381019061089a919061480f565b61358c565b6040516108ac9190615327565b60405180910390f35b3480156108c157600080fd5b506108dc60048036038101906108d7919061480f565b6135a4565b6040516108e99190614f4b565b60405180910390f35b3480156108fe57600080fd5b506109196004803603810190610914919061480f565b6135d7565b6040516109269190615327565b60405180910390f35b34801561093b57600080fd5b506109446135ef565b6040516109519190614faa565b60405180910390f35b34801561096657600080fd5b50610981600480360381019061097c91906146bd565b613602565b60405161098e9190614faa565b60405180910390f35b3480156109a357600080fd5b506109be60048036038101906109b9919061480f565b613658565b6040516109d19796959493929190615342565b60405180910390f35b3480156109e657600080fd5b50610a0160048036038101906109fc919061476a565b6137de565b005b348015610a0f57600080fd5b50610a186138bf565b604051610a259190615327565b60405180910390f35b348015610a3a57600080fd5b50610a436138c5565b604051610a509190615327565b60405180910390f35b348015610a6557600080fd5b50610a806004803603810190610a7b919061476a565b6138cb565b005b348015610a8e57600080fd5b50610a976139ac565b604051610aa49190615327565b60405180910390f35b610ab56139b2565b005b348015610ac357600080fd5b50610ade6004803603810190610ad9919061480f565b613acf565b604051610aeb9190614faa565b60405180910390f35b348015610b0057600080fd5b50610b1b6004803603810190610b16919061480f565b613bbd565b604051610b289190614faa565b60405180910390f35b348015610b3d57600080fd5b50610b586004803603810190610b5391906146bd565b613c7c565b604051610b659190615327565b60405180910390f35b348015610b7a57600080fd5b50610b956004803603810190610b90919061480f565b613c94565b604051610ba29190614f88565b60405180910390f35b348015610bb757600080fd5b50610bc0613cff565b604051610bcd9190614faa565b60405180910390f35b348015610be257600080fd5b50610bfd6004803603810190610bf8919061472a565b613d12565b604051610c0a9190614faa565b60405180910390f35b348015610c1f57600080fd5b50610c28613d41565b604051610c359190615327565b60405180910390f35b348015610c4a57600080fd5b50610c656004803603810190610c6091906146bd565b613fd6565b604051610c739291906153bf565b60405180910390f35b348015610c8857600080fd5b50610c91613ffa565b604051610c9e9190615327565b60405180910390f35b348015610cb357600080fd5b50610cce6004803603810190610cc991906146bd565b614000565b604051610cdc9291906153bf565b60405180910390f35b348015610cf157600080fd5b50610d0c6004803603810190610d07919061480f565b614024565b005b348015610d1a57600080fd5b50610d356004803603810190610d3091906146bd565b614269565b005b348015610d4357600080fd5b50610d4c614361565b604051610d599190615327565b60405180910390f35b348015610d6e57600080fd5b50610d77614367565b604051610d849190614faa565b60405180910390f35b348015610d9957600080fd5b50610da2614437565b604051610daf9190614fc5565b60405180910390f35b600660008281526020019081526020016000205460006002811115610de057610ddf615756565b5b6004600083815260200190815260200160002060030160009054906101000a900460ff166002811115610e1657610e15615756565b5b14610e2057600080fd5b60006002811115610e3457610e33615756565b5b601460009054906101000a900460ff166002811115610e5657610e55615756565b5b14610e96576040517f08c379a0000000000000000000000000000000000000000000000000000000008152600401610e8d90615125565b60405180910390fd5b3382610ea061348c565b73ffffffffffffffffffffffffffffffffffffffff168273ffffffffffffffffffffffffffffffffffffffff161480610f3a575060001515600860008473ffffffffffffffffffffffffffffffffffffffff1673ffffffffffffffffffffffffffffffffffffffff168152602001908152602001600020600083815260200190815260200160002060009054906101000a900460ff161515145b610f79576040517f08c379a0000000000000000000000000000000000000000000000000000000008152600401610f7090615165565b60405180910390fd5b600280811115610f8c57610f8b615756565b5b601460019054906101000a900460ff166002811115610fae57610fad615756565b5b1415610fef576040517f08c379a0000000000000000000000000000000000000000000000000000000008152600401610fe6906151e5565b60405180910390fd5b33610ff861348c565b73ffffffffffffffffffffffffffffffffffffffff168173ffffffffffffffffffffffffffffffffffffffff16141580611083575060011515600d60008373ffffffffffffffffffffffffffffffffffffffff1673ffffffffffffffffffffffffffffffffffffffff16815260200190815260200160002060009054906101000a900460ff16151514155b6110c2576040517f08c379a00000000000000000000000000000000000000000000000000000000081526004016110b990615265565b60405180910390fd5b336006600087815260200190815260200160002054601460039054906101000a900460ff16158061112557506110f661348c565b73ffffffffffffffffffffffffffffffffffffffff168273ffffffffffffffffffffffffffffffffffffffff16145b8061118057506000600c60008473ffffffffffffffffffffffffffffffffffffffff1673ffffffffffffffffffffffffffffffffffffffff168152602001908152602001600020600083815260200190815260200160002054145b806111e7575042601154600c60008573ffffffffffffffffffffffffffffffffffffffff1673ffffffffffffffffffffffffffffffffffffffff1681526020019081526020016000206000848152602001908152602001600020546111e591906154e8565b115b611226576040517f08c379a000000000000000000000000000000000000000000000000000000000815260040161121d906150e5565b60405180910390fd5b6000600660008981526020019081526020016000205490506001600860003373ffffffffffffffffffffffffffffffffffffffff1673ffffffffffffffffffffffffffffffffffffffff16815260200190815260200160002060008a815260200190815260200160002060006101000a81548160ff02191690831515021790555042600c60003373ffffffffffffffffffffffffffffffffffffffff1673ffffffffffffffffffffffffffffffffffffffff168152602001908152602001600020600083815260200190815260200160002081905550600b60008281526020019081526020016000206000815480929190611320906156de565b919050555087817f23b2bfc0c368fdbec2cf6a0878f8f7ab7d497f92861fa232c0111ca69f63dc8260405160405180910390a35050505050505050565b60115481565b606080600015156004600085815260200190815260200160002060030160019054906101000a900460ff16151514156113d3576040518060400160405280600481526020017f6e756c6c0000000000000000000000000000000000000000000000000000000081525090506115b5565b600060028111156113e7576113e6615756565b5b6004600085815260200190815260200160002060030160009054906101000a900460ff16600281111561141d5761141c615756565b5b1415611460576040518060400160405280600481526020017f6f70656e0000000000000000000000000000000000000000000000000000000081525090506115b4565b6001600281111561147457611473615756565b5b6004600085815260200190815260200160002060030160009054906101000a900460ff1660028111156114aa576114a9615756565b5b14156114ed576040518060400160405280600681526020017f636c6f736564000000000000000000000000000000000000000000000000000081525090506115b3565b600280811115611500576114ff615756565b5b6004600085815260200190815260200160002060030160009054906101000a900460ff16600281111561153657611535615756565b5b1415611579576040518060400160405280600781526020017f626c6f636b65640000000000000000000000000000000000000000000000000081525090506115b2565b6040518060400160405280600481526020017f6e756c6c0000000000000000000000000000000000000000000000000000000081525090505b5b5b5b80915050919050565b600560205281600052604060002081815481106115da57600080fd5b90600052602060002001600091509150505481565b60025481565b80600115156004600083815260200190815260200160002060030160019054906101000a900460ff16151514611660576040517f08c379a0000000000000000000000000000000000000000000000000000000008152600401611657906152e5565b60405180910390fd5b816001600281111561167557611674615756565b5b6004600083815260200190815260200160002060030160009054906101000a900460ff1660028111156116ab576116aa615756565b5b146116eb576040517f08c379a00000000000000000000000000000000000000000000000000000000081526004016116e290615085565b60405180910390fd5b336116f461348c565b73ffffffffffffffffffffffffffffffffffffffff168173ffffffffffffffffffffffffffffffffffffffff1614158061177f575060011515600d60008373ffffffffffffffffffffffffffffffffffffffff1673ffffffffffffffffffffffffffffffffffffffff16815260200190815260200160002060009054906101000a900460ff16151514155b6117be576040517f08c379a00000000000000000000000000000000000000000000000000000000081526004016117b590615265565b60405180910390fd5b60006004600086815260200190815260200160002060030160006101000a81548160ff021916908360028111156117f8576117f7615756565b5b021790555060016004600086815260200190815260200160002060030160026101000a81548160ff0219169083151502179055507f5a695f43d53bb74f4457f1a60951e2c514c6de79da9a8d8369848853d647cc6a8460405161185b9190615327565b60405180910390a150505050565b6000601460049054906101000a900460ff1680156118c957506000600a60003373ffffffffffffffffffffffffffffffffffffffff1673ffffffffffffffffffffffffffffffffffffffff16815260200190815260200160002060000154115b8015611923575042601254600a60003373ffffffffffffffffffffffffffffffffffffffff1673ffffffffffffffffffffffffffffffffffffffff1681526020019081526020016000206000015461192191906154e8565b115b156119315760019050611936565b600090505b90565b60035481565b600060028081111561195457611953615756565b5b601460009054906101000a900460ff16600281111561197657611975615756565b5b14156119b7576040517f08c379a00000000000000000000000000000000000000000000000000000000081526004016119ae90615285565b60405180910390fd5b336119c061348c565b73ffffffffffffffffffffffffffffffffffffffff168173ffffffffffffffffffffffffffffffffffffffff16141580611a4b575060011515600d60008373ffffffffffffffffffffffffffffffffffffffff1673ffffffffffffffffffffffffffffffffffffffff16815260200190815260200160002060009054906101000a900460ff16151514155b611a8a576040517f08c379a0000000000000000000000000000000000000000000000000000000008152600401611a8190615265565b60405180910390fd5b33601460049054906101000a900460ff161580611ad95750611aaa61348c565b73ffffffffffffffffffffffffffffffffffffffff168173ffffffffffffffffffffffffffffffffffffffff16145b80611b2657506000600a60008373ffffffffffffffffffffffffffffffffffffffff1673ffffffffffffffffffffffffffffffffffffffff16815260200190815260200160002060000154145b80611b7f575042601254600a60008473ffffffffffffffffffffffffffffffffffffffff1673ffffffffffffffffffffffffffffffffffffffff16815260200190815260200160002060000154611b7d91906154e8565b115b611bbe576040517f08c379a0000000000000000000000000000000000000000000000000000000008152600401611bb590615145565b60405180910390fd5b8660006002811115611bd357611bd2615756565b5b6004600083815260200190815260200160002060030160009054906101000a900460ff166002811115611c0957611c08615756565b5b14611c1357600080fd5b60006002811115611c2757611c26615756565b5b601460009054906101000a900460ff166002811115611c4957611c48615756565b5b14611c89576040517f08c379a0000000000000000000000000000000000000000000000000000000008152600401611c8090615125565b60405180910390fd5b600060105490506000600660008381526020019081526020016000205414611cb057600080fd5b600560008a8152602001908152602001600020819080600181540180825580915050600190039060005260206000200160009091909190915055886006600083815260200190815260200160002081905550604051806040016040528042815260200182815250600a60003373ffffffffffffffffffffffffffffffffffffffff1673ffffffffffffffffffffffffffffffffffffffff168152602001908152602001600020600082015181600001556020820151816001015590505060106000815480929190611d80906156de565b919050555080897f313f81e8cc8fe5ab3d1facaeffd8e0d26068ff1776d23a4621a5bdb0c891c8178a8a8a604051611dba93929190615039565b60405180910390a380945050505050949350505050565b600081600115156004600083815260200190815260200160002060030160019054906101000a900460ff16151514611e3e576040517f08c379a0000000000000000000000000000000000000000000000000000000008152600401611e35906152e5565b60405180910390fd5b60016002811115611e5257611e51615756565b5b6004600085815260200190815260200160002060030160009054906101000a900460ff166002811115611e8857611e87615756565b5b14915050919050565b6000600280811115611ea657611ea5615756565b5b601460009054906101000a900460ff166002811115611ec857611ec7615756565b5b1415611f09576040517f08c379a0000000000000000000000000000000000000000000000000000000008152600401611f0090615285565b60405180910390fd5b33601460029054906101000a900460ff161580611f585750611f2961348c565b73ffffffffffffffffffffffffffffffffffffffff168173ffffffffffffffffffffffffffffffffffffffff16145b80611fa557506000600960008373ffffffffffffffffffffffffffffffffffffffff1673ffffffffffffffffffffffffffffffffffffffff16815260200190815260200160002060000154145b80611ffe575042601354600960008473ffffffffffffffffffffffffffffffffffffffff1673ffffffffffffffffffffffffffffffffffffffff16815260200190815260200160002060000154611ffc91906154e8565b115b61203d576040517f08c379a0000000000000000000000000000000000000000000000000000000008152600401612034906152c5565b60405180910390fd5b3361204661348c565b73ffffffffffffffffffffffffffffffffffffffff168173ffffffffffffffffffffffffffffffffffffffff161415806120d1575060011515600d60008373ffffffffffffffffffffffffffffffffffffffff1673ffffffffffffffffffffffffffffffffffffffff16815260200190815260200160002060009054906101000a900460ff16151514155b612110576040517f08c379a000000000000000000000000000000000000000000000000000000000815260040161210790615265565b60405180910390fd5b6000600e5490506040518060e001604052808281526020018781526020018681526020016000600281111561214857612147615756565b5b8152602001600115158152602001600115158152602001600015158152506004600083815260200190815260200160002060008201518160000155602082015181600101908051906020019061219f929190614516565b5060408201518160020190805190602001906121bc929190614516565b5060608201518160030160006101000a81548160ff021916908360028111156121e8576121e7615756565b5b021790555060808201518160030160016101000a81548160ff02191690831515021790555060a08201518160030160026101000a81548160ff02191690831515021790555060c08201518160030160036101000a81548160ff021916908315150217905550905050604051806040016040528042815260200182815250600960003373ffffffffffffffffffffffffffffffffffffffff1673ffffffffffffffffffffffffffffffffffffffff1681526020019081526020016000206000820151816000015560208201518160010155905050336007600083815260200190815260200160002060006101000a81548173ffffffffffffffffffffffffffffffffffffffff021916908373ffffffffffffffffffffffffffffffffffffffff160217905550600e6000815480929190612320906156de565b9190505550600f6000815480929190612338906156de565b9190505550807f21579433a032855e20e8afc48e980ddae0b6285e4aa03370f03192be12bea28b878760405161236f929190615002565b60405180910390a280935050505092915050565b80600115156004600083815260200190815260200160002060030160019054906101000a900460ff161515146123ee576040517f08c379a00000000000000000000000000000000000000000000000000000000081526004016123e5906152e5565b60405180910390fd5b816000600281111561240357612402615756565b5b6004600083815260200190815260200160002060030160009054906101000a900460ff16600281111561243957612438615756565b5b1461244357600080fd5b6000600281111561245757612456615756565b5b601460009054906101000a900460ff16600281111561247957612478615756565b5b146124b9576040517f08c379a00000000000000000000000000000000000000000000000000000000081526004016124b090615125565b60405180910390fd5b336124c261348c565b73ffffffffffffffffffffffffffffffffffffffff168173ffffffffffffffffffffffffffffffffffffffff1614158061254d575060011515600d60008373ffffffffffffffffffffffffffffffffffffffff1673ffffffffffffffffffffffffffffffffffffffff16815260200190815260200160002060009054906101000a900460ff16151514155b61258c576040517f08c379a000000000000000000000000000000000000000000000000000000000815260040161258390615265565b60405180910390fd5b60016004600086815260200190815260200160002060030160006101000a81548160ff021916908360028111156125c6576125c5615756565b5b021790555060006004600086815260200190815260200160002060030160026101000a81548160ff0219169083151502179055507feabb282842a353a61f42a3352791a6bf8d0f0b5d6e9cec67e0a0e2c42f387b9b846040516126299190615327565b60405180910390a150505050565b61263f612a5c565b1561267f576040517f08c379a000000000000000000000000000000000000000000000000000000000815260040161267690615205565b60405180910390fd5b600254600261268e919061553e565b34116126cf576040517f08c379a00000000000000000000000000000000000000000000000000000000081526004016126c6906150a5565b60405180910390fd5b670de0b6b3a76400003410612719576040517f08c379a0000000000000000000000000000000000000000000000000000000008152600401612710906151a5565b60405180910390fd5b600073ffffffffffffffffffffffffffffffffffffffff166007600083815260200190815260200160002060009054906101000a900473ffffffffffffffffffffffffffffffffffffffff1673ffffffffffffffffffffffffffffffffffffffff1614156127bc576040517f08c379a00000000000000000000000000000000000000000000000000000000081526004016127b3906150c5565b60405180910390fd5b60006007600083815260200190815260200160002060009054906101000a900473ffffffffffffffffffffffffffffffffffffffff1690506000600254346128049190615598565b90506000600254905081600160008573ffffffffffffffffffffffffffffffffffffffff1673ffffffffffffffffffffffffffffffffffffffff168152602001908152602001600020600082825461285c91906154e8565b92505081905550806001600061287061348c565b73ffffffffffffffffffffffffffffffffffffffff1673ffffffffffffffffffffffffffffffffffffffff16815260200190815260200160002060008282546128b991906154e8565b925050819055508273ffffffffffffffffffffffffffffffffffffffff16847ffb06d18ea2ffa97ead216b6832a596bf4b758654d5e5de9e380d36d96c5775c9846040516129079190615327565b60405180910390a361291761348c565b73ffffffffffffffffffffffffffffffffffffffff167f94344a679ac3583b770333c5634ece187b2da99d3ad5707d0f031fc14d521ad73460405161295c9190615327565b60405180910390a250505050565b600c602052816000526040600020602052806000526040600020600091509150505481565b61299761444a565b73ffffffffffffffffffffffffffffffffffffffff166129b561348c565b73ffffffffffffffffffffffffffffffffffffffff1614612a0b576040517f08c379a0000000000000000000000000000000000000000000000000000000008152600401612a0290615245565b60405180910390fd5b80601460026101000a81548160ff02191690831515021790555080601460036101000a81548160ff02191690831515021790555080601460046101000a81548160ff02191690831515021790555050565b60008060149054906101000a900460ff16905090565b601460009054906101000a900460ff1681565b612a8d61459c565b81600280811115612aa157612aa0615756565b5b6004600083815260200190815260200160002060030160009054906101000a900460ff166002811115612ad757612ad6615756565b5b1415612b18576040517f08c379a0000000000000000000000000000000000000000000000000000000008152600401612b0f90615225565b60405180910390fd5b600460008481526020019081526020016000206040518060e001604052908160008201548152602001600182018054612b509061567b565b80601f0160208091040260200160405190810160405280929190818152602001828054612b7c9061567b565b8015612bc95780601f10612b9e57610100808354040283529160200191612bc9565b820191906000526020600020905b815481529060010190602001808311612bac57829003601f168201915b50505050508152602001600282018054612be29061567b565b80601f0160208091040260200160405190810160405280929190818152602001828054612c0e9061567b565b8015612c5b5780601f10612c3057610100808354040283529160200191612c5b565b820191906000526020600020905b815481529060010190602001808311612c3e57829003601f168201915b505050505081526020016003820160009054906101000a900460ff166002811115612c8957612c88615756565b5b6002811115612c9b57612c9a615756565b5b81526020016003820160019054906101000a900460ff161515151581526020016003820160029054906101000a900460ff161515151581526020016003820160039054906101000a900460ff161515151581525050915050919050565b600081600115156004600083815260200190815260200160002060030160019054906101000a900460ff16151514612d65576040517f08c379a0000000000000000000000000000000000000000000000000000000008152600401612d5c906152e5565b60405180910390fd5b60006002811115612d7957612d78615756565b5b6004600085815260200190815260200160002060030160009054906101000a900460ff166002811115612daf57612dae615756565b5b14915050919050565b80600115156004600083815260200190815260200160002060030160019054906101000a900460ff16151514612e23576040517f08c379a0000000000000000000000000000000000000000000000000000000008152600401612e1a906152e5565b60405180910390fd5b81600280811115612e3757612e36615756565b5b6004600083815260200190815260200160002060030160009054906101000a900460ff166002811115612e6d57612e6c615756565b5b14612ead576040517f08c379a0000000000000000000000000000000000000000000000000000000008152600401612ea4906152a5565b60405180910390fd5b33612eb661348c565b73ffffffffffffffffffffffffffffffffffffffff168173ffffffffffffffffffffffffffffffffffffffff16141580612f41575060011515600d60008373ffffffffffffffffffffffffffffffffffffffff1673ffffffffffffffffffffffffffffffffffffffff16815260200190815260200160002060009054906101000a900460ff16151514155b612f80576040517f08c379a0000000000000000000000000000000000000000000000000000000008152600401612f7790615265565b60405180910390fd5b60016004600086815260200190815260200160002060030160006101000a81548160ff02191690836002811115612fba57612fb9615756565b5b02179055507fe23a63f864ee1069bc665aa3ed0b1dccc848ab996543e77baed0f465e8145c6084604051612fee9190615327565b60405180910390a150505050565b61300461444a565b73ffffffffffffffffffffffffffffffffffffffff1661302261348c565b73ffffffffffffffffffffffffffffffffffffffff1614613078576040517f08c379a000000000000000000000000000000000000000000000000000000000815260040161306f90615245565b60405180910390fd5b6130826000614452565b565b601460039054906101000a900460ff1681565b61309f61444a565b73ffffffffffffffffffffffffffffffffffffffff166130bd61348c565b73ffffffffffffffffffffffffffffffffffffffff1614613113576040517f08c379a000000000000000000000000000000000000000000000000000000000815260040161310a90615245565b60405180910390fd5b600081118015613129575066038d7ea4c6800081105b61313257600080fd5b8060028190555050565b61314461444a565b73ffffffffffffffffffffffffffffffffffffffff1661316261348c565b73ffffffffffffffffffffffffffffffffffffffff16146131b8576040517f08c379a00000000000000000000000000000000000000000000000000000000081526004016131af90615245565b60405180910390fd5b8060038190555050565b60606000600354600f5411156131da576003546131de565b600f545b9050600081600f546131f09190615598565b905060008267ffffffffffffffff81111561320e5761320d6157e3565b5b60405190808252806020026020018201604052801561324757816020015b61323461459c565b81526020019060019003908161322c5790505b50905060008290505b815181101561346257600460008281526020019081526020016000206040518060e0016040529081600082015481526020016001820180546132919061567b565b80601f01602080910402602001604051908101604052809291908181526020018280546132bd9061567b565b801561330a5780601f106132df5761010080835404028352916020019161330a565b820191906000526020600020905b8154815290600101906020018083116132ed57829003601f168201915b505050505081526020016002820180546133239061567b565b80601f016020809104026020016040519081016040528092919081815260200182805461334f9061567b565b801561339c5780601f106133715761010080835404028352916020019161339c565b820191906000526020600020905b81548152906001019060200180831161337f57829003601f168201915b505050505081526020016003820160009054906101000a900460ff1660028111156133ca576133c9615756565b5b60028111156133dc576133db615756565b5b81526020016003820160019054906101000a900460ff161515151581526020016003820160029054906101000a900460ff161515151581526020016003820160039054906101000a900460ff161515151581525050828281518110613444576134436157b4565b5b6020026020010181905250808061345a906156de565b915050613250565b5080935050505090565b600d6020528060005260406000206000915054906101000a900460ff1681565b60008060009054906101000a900473ffffffffffffffffffffffffffffffffffffffff16905090565b6134bd61444a565b73ffffffffffffffffffffffffffffffffffffffff166134db61348c565b73ffffffffffffffffffffffffffffffffffffffff1614613531576040517f08c379a000000000000000000000000000000000000000000000000000000000815260040161352890615245565b60405180910390fd5b80600d60008473ffffffffffffffffffffffffffffffffffffffff1673ffffffffffffffffffffffffffffffffffffffff16815260200190815260200160002060006101000a81548160ff0219169083151502179055505050565b60066020528060005260406000206000915090505481565b60076020528060005260406000206000915054906101000a900473ffffffffffffffffffffffffffffffffffffffff1681565b600b6020528060005260406000206000915090505481565b601460049054906101000a900460ff1681565b6000600d60008373ffffffffffffffffffffffffffffffffffffffff1673ffffffffffffffffffffffffffffffffffffffff16815260200190815260200160002060009054906101000a900460ff169050919050565b60046020528060005260406000206000915090508060000154908060010180546136819061567b565b80601f01602080910402602001604051908101604052809291908181526020018280546136ad9061567b565b80156136fa5780601f106136cf576101008083540402835291602001916136fa565b820191906000526020600020905b8154815290600101906020018083116136dd57829003601f168201915b50505050509080600201805461370f9061567b565b80601f016020809104026020016040519081016040528092919081815260200182805461373b9061567b565b80156137885780601f1061375d57610100808354040283529160200191613788565b820191906000526020600020905b81548152906001019060200180831161376b57829003601f168201915b5050505050908060030160009054906101000a900460ff16908060030160019054906101000a900460ff16908060030160029054906101000a900460ff16908060030160039054906101000a900460ff16905087565b6137e661444a565b73ffffffffffffffffffffffffffffffffffffffff1661380461348c565b73ffffffffffffffffffffffffffffffffffffffff161461385a576040517f08c379a000000000000000000000000000000000000000000000000000000000815260040161385190615245565b60405180910390fd5b8015613890576002601460006101000a81548160ff0219169083600281111561388657613885615756565b5b02179055506138bc565b6000601460006101000a81548160ff021916908360028111156138b6576138b5615756565b5b02179055505b50565b600e5481565b600f5481565b6138d361444a565b73ffffffffffffffffffffffffffffffffffffffff166138f161348c565b73ffffffffffffffffffffffffffffffffffffffff1614613947576040517f08c379a000000000000000000000000000000000000000000000000000000000815260040161393e90615245565b60405180910390fd5b801561397d576002601460016101000a81548160ff0219169083600281111561397357613972615756565b5b02179055506139a9565b6000601460016101000a81548160ff021916908360028111156139a3576139a2615756565b5b02179055505b50565b60125481565b6139ba612a5c565b156139fa576040517f08c379a00000000000000000000000000000000000000000000000000000000081526004016139f190615205565b60405180910390fd5b60025434118015613a125750670de0b6b3a764000034105b613a1b57600080fd5b3460016000613a2861348c565b73ffffffffffffffffffffffffffffffffffffffff1673ffffffffffffffffffffffffffffffffffffffff1681526020019081526020016000206000828254613a7191906154e8565b92505081905550613a8061348c565b73ffffffffffffffffffffffffffffffffffffffff167f94344a679ac3583b770333c5634ece187b2da99d3ad5707d0f031fc14d521ad734604051613ac59190615327565b60405180910390a2565b6000601460039054906101000a900460ff168015613b3d57506000600c60003373ffffffffffffffffffffffffffffffffffffffff1673ffffffffffffffffffffffffffffffffffffffff168152602001908152602001600020600084815260200190815260200160002054115b8015613ba5575042601154600c60003373ffffffffffffffffffffffffffffffffffffffff1673ffffffffffffffffffffffffffffffffffffffff168152602001908152602001600020600085815260200190815260200160002054613ba391906154e8565b115b15613bb35760019050613bb8565b600090505b919050565b600081600115156004600083815260200190815260200160002060030160019054906101000a900460ff16151514613c2a576040517f08c379a0000000000000000000000000000000000000000000000000000000008152600401613c21906152e5565b60405180910390fd5b600280811115613c3d57613c3c615756565b5b6004600085815260200190815260200160002060030160009054906101000a900460ff166002811115613c7357613c72615756565b5b14915050919050565b60016020528060005260406000206000915090505481565b606060056000838152602001908152602001600020805480602002602001604051908101604052809291908181526020018280548015613cf357602002820191906000526020600020905b815481526020019060010190808311613cdf575b50505050509050919050565b601460029054906101000a900460ff1681565b60086020528160005260406000206020528060005260406000206000915091509054906101000a900460ff1681565b6000613d4b612a5c565b15613d8b576040517f08c379a0000000000000000000000000000000000000000000000000000000008152600401613d8290615205565b60405180910390fd5b600073ffffffffffffffffffffffffffffffffffffffff163373ffffffffffffffffffffffffffffffffffffffff16118015613e0657506000600160003373ffffffffffffffffffffffffffffffffffffffff1673ffffffffffffffffffffffffffffffffffffffff16815260200190815260200160002054115b613e45576040517f08c379a0000000000000000000000000000000000000000000000000000000008152600401613e3c906151c5565b60405180910390fd5b60003390506000600160008373ffffffffffffffffffffffffffffffffffffffff1673ffffffffffffffffffffffffffffffffffffffff1681526020019081526020016000205490506000600160008473ffffffffffffffffffffffffffffffffffffffff1673ffffffffffffffffffffffffffffffffffffffff1681526020019081526020016000208190555060008273ffffffffffffffffffffffffffffffffffffffff1682604051613ef990614f36565b60006040518083038185875af1925050503d8060008114613f36576040519150601f19603f3d011682016040523d82523d6000602084013e613f3b565b606091505b5050905080613f7f576040517f08c379a0000000000000000000000000000000000000000000000000000000008152600401613f7690615185565b60405180910390fd5b8273ffffffffffffffffffffffffffffffffffffffff167fcb6b7e07b2dfa46d7de915c583ffc492190624e38abe6ebebd8270553f33d13683604051613fc59190615327565b60405180910390a281935050505090565b600a6020528060005260406000206000915090508060000154908060010154905082565b60105481565b60096020528060005260406000206000915090508060000154908060010154905082565b80600115156004600083815260200190815260200160002060030160019054906101000a900460ff1615151461408f576040517f08c379a0000000000000000000000000000000000000000000000000000000008152600401614086906152e5565b60405180910390fd5b816002808111156140a3576140a2615756565b5b6004600083815260200190815260200160002060030160009054906101000a900460ff1660028111156140d9576140d8615756565b5b141561411a576040517f08c379a000000000000000000000000000000000000000000000000000000000815260040161411190615225565b60405180910390fd5b3361412361348c565b73ffffffffffffffffffffffffffffffffffffffff168173ffffffffffffffffffffffffffffffffffffffff161415806141ae575060011515600d60008373ffffffffffffffffffffffffffffffffffffffff1673ffffffffffffffffffffffffffffffffffffffff16815260200190815260200160002060009054906101000a900460ff16151514155b6141ed576040517f08c379a00000000000000000000000000000000000000000000000000000000081526004016141e490615265565b60405180910390fd5b60026004600086815260200190815260200160002060030160006101000a81548160ff0219169083600281111561422757614226615756565b5b02179055507fa589501e457bda1f31782af099f2695facb8e79d38d121802e6ac1c53237b8418460405161425b9190615327565b60405180910390a150505050565b61427161444a565b73ffffffffffffffffffffffffffffffffffffffff1661428f61348c565b73ffffffffffffffffffffffffffffffffffffffff16146142e5576040517f08c379a00000000000000000000000000000000000000000000000000000000081526004016142dc90615245565b60405180910390fd5b600073ffffffffffffffffffffffffffffffffffffffff168173ffffffffffffffffffffffffffffffffffffffff161415614355576040517f08c379a000000000000000000000000000000000000000000000000000000000815260040161434c90615105565b60405180910390fd5b61435e81614452565b50565b60135481565b6000601460029054906101000a900460ff1680156143c757506000600960003373ffffffffffffffffffffffffffffffffffffffff1673ffffffffffffffffffffffffffffffffffffffff16815260200190815260200160002060000154115b8015614421575042601354600960003373ffffffffffffffffffffffffffffffffffffffff1673ffffffffffffffffffffffffffffffffffffffff1681526020019081526020016000206000015461441f91906154e8565b115b1561442f5760019050614434565b600090505b90565b601460019054906101000a900460ff1681565b600033905090565b60008060009054906101000a900473ffffffffffffffffffffffffffffffffffffffff169050816000806101000a81548173ffffffffffffffffffffffffffffffffffffffff021916908373ffffffffffffffffffffffffffffffffffffffff1602179055508173ffffffffffffffffffffffffffffffffffffffff168173ffffffffffffffffffffffffffffffffffffffff167f8be0079c531659141344cd1fd0a4f28419497f9722a3daafe3b4186f6b6457e060405160405180910390a35050565b8280546145229061567b565b90600052602060002090601f016020900481019282614544576000855561458b565b82601f1061455d57805160ff191683800117855561458b565b8280016001018555821561458b579182015b8281111561458a57825182559160200191906001019061456f565b5b50905061459891906145f1565b5090565b6040518060e00160405280600081526020016060815260200160608152602001600060028111156145d0576145cf615756565b5b81526020016000151581526020016000151581526020016000151581525090565b5b8082111561460a5760008160009055506001016145f2565b5090565b600061462161461c8461540d565b6153e8565b90508281526020810184848401111561463d5761463c615817565b5b614648848285615639565b509392505050565b60008135905061465f81615d70565b92915050565b60008135905061467481615d87565b92915050565b600082601f83011261468f5761468e615812565b5b813561469f84826020860161460e565b91505092915050565b6000813590506146b781615d9e565b92915050565b6000602082840312156146d3576146d2615821565b5b60006146e184828501614650565b91505092915050565b6000806040838503121561470157614700615821565b5b600061470f85828601614650565b925050602061472085828601614665565b9150509250929050565b6000806040838503121561474157614740615821565b5b600061474f85828601614650565b9250506020614760858286016146a8565b9150509250929050565b6000602082840312156147805761477f615821565b5b600061478e84828501614665565b91505092915050565b600080604083850312156147ae576147ad615821565b5b600083013567ffffffffffffffff8111156147cc576147cb61581c565b5b6147d88582860161467a565b925050602083013567ffffffffffffffff8111156147f9576147f861581c565b5b6148058582860161467a565b9150509250929050565b60006020828403121561482557614824615821565b5b6000614833848285016146a8565b91505092915050565b6000806000806080858703121561485657614855615821565b5b6000614864878288016146a8565b945050602085013567ffffffffffffffff8111156148855761488461581c565b5b6148918782880161467a565b935050604085013567ffffffffffffffff8111156148b2576148b161581c565b5b6148be8782880161467a565b925050606085013567ffffffffffffffff8111156148df576148de61581c565b5b6148eb8782880161467a565b91505092959194509250565b6000806040838503121561490e5761490d615821565b5b600061491c858286016146a8565b925050602061492d858286016146a8565b9150509250929050565b60006149438383614dd2565b905092915050565b60006149578383614f18565b60208301905092915050565b61496c816155cc565b82525050565b600061497d8261545e565b6149878185615499565b9350836020820285016149998561543e565b8060005b858110156149d557848403895281516149b68582614937565b94506149c18361547f565b925060208a0199505060018101905061499d565b50829750879550505050505092915050565b60006149f282615469565b6149fc81856154aa565b9350614a078361544e565b8060005b83811015614a38578151614a1f888261494b565b9750614a2a8361548c565b925050600181019050614a0b565b5085935050505092915050565b614a4e816155de565b82525050565b614a5d816155de565b82525050565b614a6c81615627565b82525050565b614a7b81615627565b82525050565b6000614a8c82615474565b614a9681856154c6565b9350614aa6818560208601615648565b614aaf81615826565b840191505092915050565b6000614ac582615474565b614acf81856154d7565b9350614adf818560208601615648565b614ae881615826565b840191505092915050565b6000614b006013836154d7565b9150614b0b82615837565b602082019050919050565b6000614b236026836154d7565b9150614b2e82615860565b604082019050919050565b6000614b466026836154d7565b9150614b51826158af565b604082019050919050565b6000614b696036836154d7565b9150614b74826158fe565b604082019050919050565b6000614b8c6026836154d7565b9150614b978261594d565b604082019050919050565b6000614baf6024836154d7565b9150614bba8261599c565b604082019050919050565b6000614bd26024836154d7565b9150614bdd826159eb565b604082019050919050565b6000614bf56034836154d7565b9150614c0082615a3a565b604082019050919050565b6000614c186026836154d7565b9150614c2382615a89565b604082019050919050565b6000614c3b603a836154d7565b9150614c4682615ad8565b604082019050919050565b6000614c5e6022836154d7565b9150614c6982615b27565b604082019050919050565b6000614c816024836154d7565b9150614c8c82615b76565b604082019050919050565b6000614ca46010836154d7565b9150614caf82615bc5565b602082019050919050565b6000614cc76011836154d7565b9150614cd282615bee565b602082019050919050565b6000614cea6020836154d7565b9150614cf582615c17565b602082019050919050565b6000614d0d601d836154d7565b9150614d1882615c40565b602082019050919050565b6000614d306025836154d7565b9150614d3b82615c69565b604082019050919050565b6000614d536014836154d7565b9150614d5e82615cb8565b602082019050919050565b6000614d766000836154bb565b9150614d8182615ce1565b600082019050919050565b6000614d996024836154d7565b9150614da482615ce4565b604082019050919050565b6000614dbc6014836154d7565b9150614dc782615d33565b602082019050919050565b600060e083016000830151614dea6000860182614f18565b5060208301518482036020860152614e028282614a81565b91505060408301518482036040860152614e1c8282614a81565b9150506060830151614e316060860182614a63565b506080830151614e446080860182614a45565b5060a0830151614e5760a0860182614a45565b5060c0830151614e6a60c0860182614a45565b508091505092915050565b600060e083016000830151614e8d6000860182614f18565b5060208301518482036020860152614ea58282614a81565b91505060408301518482036040860152614ebf8282614a81565b9150506060830151614ed46060860182614a63565b506080830151614ee76080860182614a45565b5060a0830151614efa60a0860182614a45565b5060c0830151614f0d60c0860182614a45565b508091505092915050565b614f218161561d565b82525050565b614f308161561d565b82525050565b6000614f4182614d69565b9150819050919050565b6000602082019050614f606000830184614963565b92915050565b60006020820190508181036000830152614f808184614972565b905092915050565b60006020820190508181036000830152614fa281846149e7565b905092915050565b6000602082019050614fbf6000830184614a54565b92915050565b6000602082019050614fda6000830184614a72565b92915050565b60006020820190508181036000830152614ffa8184614aba565b905092915050565b6000604082019050818103600083015261501c8185614aba565b905081810360208301526150308184614aba565b90509392505050565b600060608201905081810360008301526150538186614aba565b905081810360208301526150678185614aba565b9050818103604083015261507b8184614aba565b9050949350505050565b6000602082019050818103600083015261509e81614af3565b9050919050565b600060208201905081810360008301526150be81614b16565b9050919050565b600060208201905081810360008301526150de81614b39565b9050919050565b600060208201905081810360008301526150fe81614b5c565b9050919050565b6000602082019050818103600083015261511e81614b7f565b9050919050565b6000602082019050818103600083015261513e81614ba2565b9050919050565b6000602082019050818103600083015261515e81614bc5565b9050919050565b6000602082019050818103600083015261517e81614be8565b9050919050565b6000602082019050818103600083015261519e81614c0b565b9050919050565b600060208201905081810360008301526151be81614c2e565b9050919050565b600060208201905081810360008301526151de81614c51565b9050919050565b600060208201905081810360008301526151fe81614c74565b9050919050565b6000602082019050818103600083015261521e81614c97565b9050919050565b6000602082019050818103600083015261523e81614cba565b9050919050565b6000602082019050818103600083015261525e81614cdd565b9050919050565b6000602082019050818103600083015261527e81614d00565b9050919050565b6000602082019050818103600083015261529e81614d23565b9050919050565b600060208201905081810360008301526152be81614d46565b9050919050565b600060208201905081810360008301526152de81614d8c565b9050919050565b600060208201905081810360008301526152fe81614daf565b9050919050565b6000602082019050818103600083015261531f8184614e75565b905092915050565b600060208201905061533c6000830184614f27565b92915050565b600060e082019050615357600083018a614f27565b81810360208301526153698189614aba565b9050818103604083015261537d8188614aba565b905061538c6060830187614a72565b6153996080830186614a54565b6153a660a0830185614a54565b6153b360c0830184614a54565b98975050505050505050565b60006040820190506153d46000830185614f27565b6153e16020830184614f27565b9392505050565b60006153f2615403565b90506153fe82826156ad565b919050565b6000604051905090565b600067ffffffffffffffff821115615428576154276157e3565b5b61543182615826565b9050602081019050919050565b6000819050602082019050919050565b6000819050602082019050919050565b600081519050919050565b600081519050919050565b600081519050919050565b6000602082019050919050565b6000602082019050919050565b600082825260208201905092915050565b600082825260208201905092915050565b600081905092915050565b600082825260208201905092915050565b600082825260208201905092915050565b60006154f38261561d565b91506154fe8361561d565b9250827fffffffffffffffffffffffffffffffffffffffffffffffffffffffffffffffff0382111561553357615532615727565b5b828201905092915050565b60006155498261561d565b91506155548361561d565b9250817fffffffffffffffffffffffffffffffffffffffffffffffffffffffffffffffff048311821515161561558d5761558c615727565b5b828202905092915050565b60006155a38261561d565b91506155ae8361561d565b9250828210156155c1576155c0615727565b5b828203905092915050565b60006155d7826155fd565b9050919050565b60008115159050919050565b60008190506155f882615d5c565b919050565b600073ffffffffffffffffffffffffffffffffffffffff82169050919050565b6000819050919050565b6000615632826155ea565b9050919050565b82818337600083830152505050565b60005b8381101561566657808201518184015260208101905061564b565b83811115615675576000848401525b50505050565b6000600282049050600182168061569357607f821691505b602082108114156156a7576156a6615785565b5b50919050565b6156b682615826565b810181811067ffffffffffffffff821117156156d5576156d46157e3565b5b80604052505050565b60006156e98261561d565b91507fffffffffffffffffffffffffffffffffffffffffffffffffffffffffffffffff82141561571c5761571b615727565b5b600182019050919050565b7f4e487b7100000000000000000000000000000000000000000000000000000000600052601160045260246000fd5b7f4e487b7100000000000000000000000000000000000000000000000000000000600052602160045260246000fd5b7f4e487b7100000000000000000000000000000000000000000000000000000000600052602260045260246000fd5b7f4e487b7100000000000000000000000000000000000000000000000000000000600052603260045260246000fd5b7f4e487b7100000000000000000000000000000000000000000000000000000000600052604160045260246000fd5b600080fd5b600080fd5b600080fd5b600080fd5b6000601f19601f8301169050919050565b7f547261636b206973206e6f7420636c6f73656400000000000000000000000000600082015250565b7f7468652076616c7565206f662074686520646f6e6174696f6e20697320746f6f60008201527f20736d616c6c0000000000000000000000000000000000000000000000000000602082015250565b7f7468652073706563696669656420747261636b206f776e657220646f65736e7460008201527f2065786973740000000000000000000000000000000000000000000000000000602082015250565b7f557365722069732063757272656e746c7920696e20766f74696e6720636f6f6c60008201527f646f776e20706572696f6420666f7220747261636b2e00000000000000000000602082015250565b7f4f776e61626c653a206e6577206f776e657220697320746865207a65726f206160008201527f6464726573730000000000000000000000000000000000000000000000000000602082015250565b7f416c6c20747261636b732068617665206265656e20636c6f736564206279206160008201527f646d696e00000000000000000000000000000000000000000000000000000000602082015250565b7f557365722069732063757272656e746c7920696e20656e74727920636f6f6c6460008201527f6f776e2e00000000000000000000000000000000000000000000000000000000602082015250565b7f55736572732063616e6e6f7420766f746520666f72207468652073616d65206560008201527f6e747279206d756c7469706c652074696d65732e000000000000000000000000602082015250565b7f6661696c656420746f207472616e7366657220646f6e6174696f6e7320746f2060008201527f617574686f720000000000000000000000000000000000000000000000000000602082015250565b7f7468652076616c7565206f662074686520646f6e6174696f6e20697320746f6f60008201527f206c617267652c206d6178696d756d2069732031204574686572000000000000602082015250565b7f74686520747261636b20617574686f7220686173206e6f20646f6e6174696f6e60008201527f732e000000000000000000000000000000000000000000000000000000000000602082015250565b7f416c6c20766f74696e6720686173206265656e20626c6f636b6564206279206160008201527f646d696e00000000000000000000000000000000000000000000000000000000602082015250565b7f5061757361626c653a2070617573656400000000000000000000000000000000600082015250565b7f547261636b20697320626c6f636b65642e000000000000000000000000000000600082015250565b7f4f776e61626c653a2063616c6c6572206973206e6f7420746865206f776e6572600082015250565b7f5573657220686173206265656e2062616e6e65642062792061646d696e000000600082015250565b7f416c6c20747261636b732068617665206265656e20626c6f636b65642062792060008201527f61646d696e000000000000000000000000000000000000000000000000000000602082015250565b7f547261636b206973206e6f7420626c6f636b6564000000000000000000000000600082015250565b50565b7f557365722069732063757272656e746c7920696e20747261636b20636f6f6c6460008201527f6f776e2e00000000000000000000000000000000000000000000000000000000602082015250565b7f547261636b20646f6573206e6f74206578697374000000000000000000000000600082015250565b60038110615d6d57615d6c615756565b5b50565b615d79816155cc565b8114615d8457600080fd5b50565b615d90816155de565b8114615d9b57600080fd5b50565b615da78161561d565b8114615db257600080fd5b5056fea26469706673582212207505f3292dca9367c610dc3861ba5dda560ea8f7e5838bdeec68f510988e4bba64736f6c6343000807003354686973206973206120676f6f6420706c61636520746f20737461727420746f206765742068656c70576865726520746f2072656164206d6f726520616e64206765742074686520636f64652e68747470733a2f2f6769746875622e636f6d2f6e69616c6c6372656563682f626c6f636b636861696e2d646576656c6f7065722d626f6f7463616d702d66696e616c2d70726f6a656374",
  "immutableReferences": {},
  "source": "// SPDX-License-Identifier: MIT\npragma solidity 0.8.7;\n\nimport \"@openzeppelin/contracts/access/Ownable.sol\";\nimport \"@openzeppelin/contracts/security/Pausable.sol\";\n\n\n\n/**\n   * @title The Tracks contract enables the storage of collections of \n   * text information with voting enabled on each memeber of the collection\n   * through emitting events.\n   * @author Niall Creech\n   * @dev Simple PoC on using events to implement a non-critical vote.\n   */\ncontract Tracks is Ownable, Pausable{\n  mapping(address => uint) public donations;\n  uint public minDonation;\n  uint public maxTrackCount; // Precent out of gas looping by restricting the amount of tracks to iterate\n  mapping (uint => Track) public tracks;\n  mapping (uint => uint[]) public trackEntries; //trackId => entryId[]\n  mapping (uint => uint) public entriesTrack; //entryId => trackId\n  mapping (uint => address) public trackOwners; //trackId => address\n  mapping (address => mapping (uint => bool)) public votesByAddress; //address => (entryId => bool)\n  mapping (address => TrackEvent) public trackEventsByUser; //address => TrackEvent\n  mapping (address => EntryEvent) public entryEventsByUser; //address => EntryEvent\n  mapping (uint => uint) public votesByTrack; //trackId => vote count\n  mapping (address => mapping(uint => uint)) public lastVoteTime; //address => trackId => time(s)\n  mapping(address => bool) public bannedUsers;\n\n  uint public nextTrackId;\n  uint public trackCount;\n  uint public nextEntryId;\n  uint public voteCooldownPeriod;\n  uint public entryEventCooldownPeriod;\n  uint public trackEventCooldownPeriod;\n  State public allTracksState;\n  State public allVotesState;\n  bool public trackCreationCooldownEnabled;\n  bool public votingCooldownEnabled;\n  bool public entryCreationCooldownEnabled;\n  \n  \n\tstruct EntryEvent {\n\t    uint time;\n\t    uint eventId;\n\t}\n\t\n\tstruct TrackEvent {\n\t    uint time;\n\t    uint trackId;\n\t}\n\t\n  enum State {\n      Open,\n      Closed,\n      Blocked\n  }\n  struct Track {\n      uint  trackId;\n      string  name;\n      string  desc;\n      State state;\n      bool exists;\n      bool visible;\n      bool pinned;\n  }\n\n  event TrackOpened(uint trackId);\n  event TrackClosed(uint trackId);\n  event TrackBlocked(uint trackId);\n  event TrackUnblocked(uint trackId);\n  event TrackCreated(uint indexed trackId, string name, string desc);\n  event EntryCreated(uint indexed trackId, uint indexed entryId, string name, string desc, string location);\n  event EntryVotedFor(uint indexed trackId, uint indexed entryId);\n  event DonationToTrackOwner(uint indexed _trackId, address indexed _owner, uint _value);\n  event DonationToContractOwner(address indexed _owner, uint _value);\n  event CollectedDonations(address indexed _owner, uint _value);\n\n\n  /**\n   * @dev Check if the track is in the 'open' state.\n   * @param _trackId The id of the track\n   */\n\tmodifier checkTrackOpen(uint _trackId) {\n\t\trequire(tracks[_trackId].state == State.Open);\n\t\trequire(allTracksState == State.Open, \"All tracks have been closed by admin\");\n    _;\n  }\n  \n\t/**\n   * @dev Check if the track is in the 'closed' state.\n   * @param _trackId The id of the track\n   */\n\tmodifier checkTrackClosed(uint _trackId) {\n\t\trequire(tracks[_trackId].state == State.Closed, \"Track is not closed\");\n    _;\n  }\n  \n  /**\n   * @dev Check if the track is in the 'blocked' state.\n   * @param _trackId The id of the track\n   */\n\tmodifier checkTrackBlocked(uint _trackId) {\n\t\trequire(tracks[_trackId].state == State.Blocked, \"Track is not blocked\");\n    _;\n  }\n  \n  /**\n   * @dev Check if the track has been 'blocked' by the admin.\n   */\n\tmodifier checkTracksNotBlockedByAdmin() {\n\t\trequire(allTracksState != State.Blocked, \"All tracks have been blocked by admin\");\n    _;\n  }\n  \n  \n  /**\n   * @dev Check if voting has been 'blocked' by the admin.\n   */\n\tmodifier checkVotingNotBlockedByAdmin() {\n\t\trequire(allVotesState != State.Blocked, \"All voting has been blocked by admin\");\n    _;\n  }\n  \n  \n  /**\n   * @dev Check if the track is not 'blocked'.\n   * @param _trackId The id of the track\n   */\n\tmodifier checkTrackUnblocked(uint _trackId) {\n\t\trequire(tracks[_trackId].state != State.Blocked, \"Track is blocked.\");\n    _;\n  }\n  \n  /**\n   * @dev Check if the track exists.\n   * @param _trackId The id of the track\n   */\n\tmodifier checkTrackExists(uint _trackId) {\n\t\t\trequire(tracks[_trackId].exists == true, \"Track does not exist\");\n\t    _;\n\t  }\n\n  /**\n   * @dev Check if the supplied user address has been banned.\n   * @param addr The address of the user to check.\n   */\n\tmodifier checkIfUserIsBanned(address addr){\n\t\t\trequire(\n\t\t\t    addr != owner()\n\t\t\t    || bannedUsers[addr] != true,\n\t\t\t    \"User has been banned by admin\"\n\t\t\t);\n\t    _;\n\t}\n\n  /**\n   * @dev Check if the supplied user address has voted for the given entry.\n   * @param addr The address of the user to check.\n   * @param _entryId The id of the entry to check.\n   */\n\tmodifier hasNotVotedForEntry(address addr, uint _entryId){\n\t    require(\n\t        addr == owner()\n\t        || votesByAddress[addr][_entryId] == false,\n\t        \"Users cannot vote for the same entry multiple times.\"\n\t    );\n\t    _;\n\t}\n\t\n\t/**\n   * @dev Check if the supplied user is in the voting cooldown period for the\n   *  given track.\n   * @param addr The address of the user to check.\n   * @param trackId The id of the track.\n   */\n\tmodifier isNotInVotingCooldown(address addr, uint trackId){\n\t    require(\n\t        !votingCooldownEnabled\n          || addr == owner()\n\t        || lastVoteTime[addr][trackId] == 0 \n\t        || lastVoteTime[addr][trackId] + voteCooldownPeriod > block.timestamp,\n\t        \"User is currently in voting cooldown period for track.\"\n\t    );\n\t    _;\n\t}\n\n  /**\n   * @dev Check if the supplied user is in the track creation cooldown period.\n   * @param addr The address of the user to check.\n   */\n\tmodifier isNotInTrackCreationCooldown(address addr){\n\t    require(\n\t        !trackCreationCooldownEnabled\n          || addr == owner()\n\t        || trackEventsByUser[addr].time == 0\n          || (trackEventsByUser[addr].time + trackEventCooldownPeriod) > block.timestamp,\n\t       \"User is currently in track cooldown.\"\n\t     );\n\t    _;\n\t}\n\t\n\t/**\n   * @dev Check if the supplied user is in the entry creation cooldown period.\n   * @param addr The address of the user to check.\n   */\n\tmodifier isNotInEntryCreationCooldown(address addr){\n\t    require(\n\t        !entryCreationCooldownEnabled\n\t        || addr == owner()\n\t        || entryEventsByUser[addr].time == 0\n\t        || (entryEventsByUser[addr].time + entryEventCooldownPeriod) > block.timestamp,\n\t        \"User is currently in entry cooldown.\"\n\t    );\n\t    _;\n\t}\n\t\n\t/**\n   * @dev Create the new contract.\n   *  The default is to have tracks open with cooldowns enabled.\n   */\n  constructor () {\n      voteCooldownPeriod = 1 minutes;\n      entryEventCooldownPeriod = 1 minutes;\n      trackEventCooldownPeriod = 1 minutes;\n      allTracksState = State.Open;\n      allVotesState = State.Open;\n      enableCooldowns(true);\n      createHelpTrack();\n\t\t\tsetMaxTrackCount(1000); // Set max tracks to 1 million by default\n      setMinDonation(0.00001 ether);\n  }\n\n  /**\n   * @dev Create the default help documentation links.\n   */\n  function createHelpTrack() internal {\n    uint trackId = addTrack(\"Help\", \"This is a good place to start to get help\");\n    addEntry(trackId, \"Homepage\", \"Where to read more and get the code.\", \"https://github.com/niallcreech/blockchain-developer-bootcamp-final-project\");\n  \ttracks[trackId].pinned = true;\n  \tblockTrack(trackId);\n  }\n\t/**\n   * @notice Get all tracks.\n   * @dev \tThere is a hard cap on the amount of tracks that we will return\n   * @return array of all tracks by object\n   */\n  function getTracks() public view returns ( Track[] memory) {\n      uint _cappedTrackCount = (trackCount <= maxTrackCount) ? trackCount : maxTrackCount;\n      uint _startIndex = (trackCount - _cappedTrackCount);\n      Track[] memory _tracks = new Track[](_cappedTrackCount);\n      for (uint i=_startIndex; i<_tracks.length; i++) {\n          _tracks[i] = tracks[i];\n      }\n      return _tracks;\n  }\n\n  /**\n   * @notice Get a specific tracks object\n   * @dev Fails if track is blocked\n   * @param _trackId The id of the track\n   * @return the relevant Track object\n   */\n  function getTrack(uint _trackId) public view checkTrackUnblocked(_trackId) returns (Track memory) {\n      return tracks[_trackId];\n  }\n\t\n\n  /**\n   * @notice Get all the entries attached to a specific track\n   * @param _trackId The id of the track\n   * @return all the Entry ids attached to the track \n   */\n  function getEntriesForTrack(uint _trackId) public view returns (uint[] memory){\n      return trackEntries[_trackId];\n  }\n\n\t/**\n   * @notice Set a specific track to the 'Open' state.\n   * @dev Fails if track is closed, user is banned, or track doesnt exist\n   * @param _trackId The id of the track\n   */\n  function openTrack(uint _trackId) public checkTrackExists(_trackId) checkTrackClosed(_trackId) checkIfUserIsBanned(msg.sender) {\n      tracks[_trackId].state = State.Open;\n      tracks[_trackId].visible = true;\n      emit TrackOpened(_trackId);\n  }\n\n\t/**\n   * @notice Set a specific track to the 'Closed' state.\n   * @dev Fails if track is open, user is banned, or track doesnt exist\n   * @param _trackId The id of the track\n   */\n\tfunction closeTrack(uint _trackId) public checkTrackExists(_trackId) checkTrackOpen(_trackId) checkIfUserIsBanned(msg.sender){\n      tracks[_trackId].state = State.Closed;\n      tracks[_trackId].visible = false;\n      emit TrackClosed(_trackId);\n  }\n\n\t/**\n   * @notice Set a specific track to the 'Blocked' state.\n   * @dev Fails if track is already blocked, user is banned, or track doesnt exist\n   * @param _trackId The id of the track\n   */\n\tfunction blockTrack(uint _trackId) public checkTrackExists(_trackId) checkTrackUnblocked(_trackId) checkIfUserIsBanned(msg.sender){\n      tracks[_trackId].state = State.Blocked;\n      emit TrackBlocked(_trackId);\n  }\n\n  /**\n   * @notice Unblock a specific track by settings to the 'Closed' state.\n   * @dev Fails if track is already unblocked, user is banned, or track doesnt exist\n   * @param _trackId The id of the track\n   */\n  function unblockTrack(uint _trackId) public checkTrackExists(_trackId) checkTrackBlocked(_trackId) checkIfUserIsBanned(msg.sender) {\n      tracks[_trackId].state = State.Closed;\n      emit TrackUnblocked(_trackId);\n  }\n\n\t/**\n   * @notice Get the state of a track as a string key.\n   * @param _trackId The id of the track\n   */\n  function getTrackState(uint _trackId) public view returns (string memory){\n      string memory status;\n      if (tracks[_trackId].exists == false){\n          status = \"null\";\n      } else if (tracks[_trackId].state == State.Open){\n          status = \"open\";\n      } else if (tracks[_trackId].state == State.Closed){\n          status = \"closed\";\n      } else if (tracks[_trackId].state == State.Blocked){\n          status = \"blocked\";\n      } else {\n          status = \"null\";\n      }\n      return status;\n  }\n\n\t/**\n   * @notice Check a specific track is in the 'Open' state.\n   * @dev Fails if track doesnt exist\n   * @param _trackId The id of the track\n   */\n  function isTrackOpen(uint _trackId) public view checkTrackExists(_trackId) returns (bool){\n      return (tracks[_trackId].state == State.Open);\n  }\n\n  /**\n   * @notice Check a specific track is in the 'Open' state.\n   * @dev Fails if track doesnt exist\n   * @param _trackId The id of the track\n   */\n  function isTrackClosed(uint _trackId) public view checkTrackExists(_trackId) returns (bool){\n      return (tracks[_trackId].state == State.Closed);\n  }\n  \n  /**\n   * @notice Check a specific track is in the 'Blocked' state.\n   * @dev Fails if track doesnt exist\n   * @param _trackId The id of the track\n   */\n  function isTrackBlocked(uint _trackId) public view checkTrackExists(_trackId) returns (bool){\n      return (tracks[_trackId].state == State.Blocked);\n  }\n\n\t/**\n   * @notice Vote for an entry. \n   * @dev Voting emits an event.\n   *  It also sets a number of variables to follow users voting patterns so that\n   *  multiple voting and cooldowns can be monitored.\n   * @param _entryId The id of the entry\n   */\n  function vote(uint _entryId) public checkTrackOpen(entriesTrack[_entryId]) hasNotVotedForEntry(msg.sender, _entryId) checkVotingNotBlockedByAdmin checkIfUserIsBanned(msg.sender) isNotInVotingCooldown(msg.sender, entriesTrack[_entryId]) {\n    uint _trackId = entriesTrack[_entryId];\n    votesByAddress[msg.sender][_entryId] = true;\n    lastVoteTime[msg.sender][_trackId] = block.timestamp;\n    votesByTrack[_trackId]++;\n    emit EntryVotedFor(_trackId, _entryId);\n  }\n\n  /**\n   * @notice Add an entry to a specific track.\n   * @dev The entry is attached to a track as stored data on-chain. However, the\n   *  actual data belonging to the entry is emitted as an event.\n   * @param _trackId The id of the track\n   * @return the id of the new entry.\n   */\n  function addEntry(uint _trackId, string memory _name, string memory _desc, string memory _location) public checkTracksNotBlockedByAdmin checkIfUserIsBanned(msg.sender) isNotInEntryCreationCooldown(msg.sender)  checkTrackOpen(_trackId) returns (uint) {\n    uint entryId = nextEntryId;\n    require(entriesTrack[entryId] == 0);\n    trackEntries[_trackId].push(entryId);\n    entriesTrack[entryId] = _trackId;\n    entryEventsByUser[msg.sender] = EntryEvent(block.timestamp, entryId);\n    nextEntryId++;\n    emit EntryCreated(_trackId, entryId, _name, _desc, _location);\n    return entryId;\n  }\n\n\t/**\n   * @notice Add a track.\n   * @dev The track is stored as data on-chain.\n   * @param _name the name of the track.\n   * @param _desc a brief description of what the track is about.\n   * @return the trackId of the new track.\n   */\n  function addTrack(string memory _name, string memory _desc)\n    public\n      checkTracksNotBlockedByAdmin\n      isNotInTrackCreationCooldown(msg.sender)\n      checkIfUserIsBanned(msg.sender)\n    returns (uint) {\n    uint trackId = nextTrackId;\n    tracks[trackId] = Track({\n      trackId: trackId,\n      name: _name,\n      desc: _desc,\n      state: State.Open,\n      exists: true,\n      visible: true,\n      pinned: false\n    });\n    trackEventsByUser[msg.sender] = TrackEvent(block.timestamp, trackId);\n    trackOwners[trackId] = msg.sender;\n    nextTrackId++;\n    trackCount++;\n    emit TrackCreated(trackId, _name, _desc);\n    return trackId;\n  }\n   \n  /**\n  * @notice Set all existing tracks to the 'Blocked' state.\n  * @dev This function is only availble to the contract owner.\n  * @param enable true to block, false to unblock.\n  */\n  function disableAllTracks(bool enable) public onlyOwner {\n    if (enable) {\n      allTracksState = State.Blocked;   \n    } else {\n      allTracksState = State.Open;   \n    }\n  }\n  \n  /**\n   * @notice Set all voting to the 'Blocked' state.\n   * @dev This function is only availble to the contract owner.\n   * @param enable, true to block, false to unblock.\n   */ \n  function disableAllVoting(bool enable) public onlyOwner {\n       if (enable) {\n           allVotesState = State.Blocked;   \n       } else {\n           allVotesState = State.Open;   \n       }\n\t}\n\n  /**\n   * @notice Ban a user from participation. \n   * @dev This function is only availble to the contract owner.\n   * @param banned, true to ban, false to unban.\n   */ \n  function banUser(address addr, bool banned) public onlyOwner {\n \t\tbannedUsers[addr] = banned;   \n\t}\n\t\n\t/**\n   * @notice Check if a user is banned from participation. \n   * @param addr, address of the user to block\n   * @return true if banned, false otherwise.\n   */ \n  function isUserBanned(address addr) public view returns (bool) {\n \t\treturn bannedUsers[addr];   \n\t}\n\n  /**\n   * @notice Check if a user is in a cooldown period for track creation.\n   * @dev Cooldown allows automation blocking to balance throughput.\n   * @return true if user is in cooldown, false otherwise.\n   */ \n  function isSenderInTrackCreationCooldown() public view returns (bool) {\n      if (trackCreationCooldownEnabled\n          \t&& trackEventsByUser[msg.sender].time > 0\n\t        \t&& (trackEventsByUser[msg.sender].time + trackEventCooldownPeriod) > block.timestamp\n\t      \t){\n\t            return true;\n\t   \t}\n\t   \treturn false;\n\t}\n\t\n\t/**\n   * @notice Check if a user is in a cooldown period for entry creation.\n   * @dev Cooldown allows automation blocking to balance throughput.\n   * @return true if user is in cooldown, false otherwise.\n   */ \n\tfunction isSenderInEntryCreationCooldown() public view returns (bool) {\n\t   \tif (entryCreationCooldownEnabled\n          \t&& entryEventsByUser[msg.sender].time > 0\n\t        \t&& (entryEventsByUser[msg.sender].time + entryEventCooldownPeriod) > block.timestamp\n\t      \t){\n\t            return true;\n\t   \t}\n\t   \treturn false;\n\t}\n\t\n\t/**\n   * @notice Check if a user is in a cooldown period for voting.\n   * @dev Cooldown allows automation blocking to balance throughput.\n   * @return true if user is in cooldown, false otherwise.\n   */ \n\tfunction isSenderInVotingCooldown(uint trackId) public view returns (bool) {\n\t   \tif (votingCooldownEnabled\n          \t&& lastVoteTime[msg.sender][trackId] > 0\n\t        \t&& (lastVoteTime[msg.sender][trackId] + voteCooldownPeriod) > block.timestamp\n\t      \t){\n\t            return true;\n\t   \t}\n\t   \treturn false;\n\t}\n\t\n\t/**\n   * @notice Enable or disable the use of cooldowns.\n   * @dev Cooldown allows automation blocking to balance throughput.\n   * @param enable A bool set to true to enable cooldowns, false to disable.\n   */ \n  function enableCooldowns(bool enable) public onlyOwner {\n    trackCreationCooldownEnabled = enable;\n    votingCooldownEnabled = enable;\n    entryCreationCooldownEnabled = enable;\n  }\n  \n  /**\n   * @notice set the maximum amount of tracks to iterate through\n   * @dev This function is only availble to the contract owner.\n   * @param _maxCount the maximum length of tracks\n   */\n   function setMaxTrackCount(uint _maxCount) public onlyOwner{\n       maxTrackCount = _maxCount;\n   }\n  /**\n   * @notice Set the minimum donation price.\n   * @dev This function is only availble to the contract owner.\n   * @param _minDonation min donation\n   */ \n  function setMinDonation(uint _minDonation) public onlyOwner {\n    require(_minDonation > 0 && _minDonation < 0.001 ether); // Force min donation to not be excessive as a sanity check\n    minDonation = _minDonation;\n  }\n  \n  /**\n   * @notice Set the percentage of transaction fees to add to donations.\n   * @dev Donations are restricted to (0, 1] ether.\n   */ \n  function donateToContractOwner() public payable whenNotPaused {\n    require(msg.value > minDonation && msg.value < 1 ether);\n    donations[owner()] += msg.value;\n    emit DonationToContractOwner(owner(), msg.value);\n  }\n  \n  /**\n   * @notice Set the percentage of transaction fees to add to donations.\n   * @dev Donations are restricted to (0, 1] ether.\n   * @param _trackId id of the track to donate to\n   */ \n  function donateToTrackOwner(uint _trackId) external  payable whenNotPaused {\n    require(msg.value > (2 * minDonation), \"the value of the donation is too small\");\n    require(msg.value < 1 ether, \"the value of the donation is too large, maximum is 1 Ether\");\n    require(trackOwners[_trackId] != address(0), \"the specified track owner doesnt exist\");\n    address _trackOwner = trackOwners[_trackId];\n    uint _trackOwnerDonation = (msg.value - minDonation);\n    uint _contractOwnerDonation = minDonation;\n    donations[_trackOwner] += _trackOwnerDonation;\n    donations[owner()] += _contractOwnerDonation;\n    emit DonationToTrackOwner(_trackId, _trackOwner, _trackOwnerDonation);\n\t\temit DonationToContractOwner(owner(), msg.value);\n  }\n\n  /**\n   * @notice Withdraw the donations to the senders address (if allowed)\n   * @dev donations are restricted to (0, 1] ether.\n   */ \n  function collectDonations() public whenNotPaused returns (uint){\n    require(msg.sender > address(0)\n        && donations[msg.sender] > 0,\n        \"the track author has no donations.\"\n    );\n    address payable _author = payable(msg.sender);\n    uint _val = donations[_author];\n  \tdonations[_author] = 0;\n    (bool _success, ) = _author.call{value: _val}(\"\"); //bytes memory _data\n  \trequire(_success, \"failed to transfer donations to author\");\n    emit CollectedDonations(_author, _val);\n   \treturn _val;\n  }\n}\n",
  "sourcePath": "/mnt/d/projects/tracks/contracts/Tracks.sol",
  "compiler": {
    "name": "solc",
    "version": "0.8.7+commit.e28d00a7.Emscripten.clang"
  },
  "schemaVersion": "3.4.3",
  "updatedAt": "2022-06-22T13:24:44.751Z",
  "devdoc": {
    "author": "Niall Creech",
    "details": "Simple PoC on using events to implement a non-critical vote.",
    "kind": "dev",
    "methods": {
      "addEntry(uint256,string,string,string)": {
        "details": "The entry is attached to a track as stored data on-chain. However, the  actual data belonging to the entry is emitted as an event.",
        "params": {
          "_trackId": "The id of the track"
        },
        "returns": {
          "_0": "the id of the new entry."
        }
      },
      "addTrack(string,string)": {
        "details": "The track is stored as data on-chain.",
        "params": {
          "_desc": "a brief description of what the track is about.",
          "_name": "the name of the track."
        },
        "returns": {
          "_0": "the trackId of the new track."
        }
      },
      "banUser(address,bool)": {
        "details": "This function is only availble to the contract owner.",
        "params": {
          "banned": ", true to ban, false to unban."
        }
      },
      "blockTrack(uint256)": {
        "details": "Fails if track is already blocked, user is banned, or track doesnt exist",
        "params": {
          "_trackId": "The id of the track"
        }
      },
      "closeTrack(uint256)": {
        "details": "Fails if track is open, user is banned, or track doesnt exist",
        "params": {
          "_trackId": "The id of the track"
        }
      },
      "collectDonations()": {
        "details": "donations are restricted to (0, 1] ether."
      },
      "constructor": {
        "details": "Create the new contract.  The default is to have tracks open with cooldowns enabled."
      },
      "disableAllTracks(bool)": {
        "details": "This function is only availble to the contract owner.",
        "params": {
          "enable": "true to block, false to unblock."
        }
      },
      "disableAllVoting(bool)": {
        "details": "This function is only availble to the contract owner.",
        "params": {
          "enable": ", true to block, false to unblock."
        }
      },
      "donateToContractOwner()": {
        "details": "Donations are restricted to (0, 1] ether."
      },
      "donateToTrackOwner(uint256)": {
        "details": "Donations are restricted to (0, 1] ether.",
        "params": {
          "_trackId": "id of the track to donate to"
        }
      },
      "enableCooldowns(bool)": {
        "details": "Cooldown allows automation blocking to balance throughput.",
        "params": {
          "enable": "A bool set to true to enable cooldowns, false to disable."
        }
      },
      "getEntriesForTrack(uint256)": {
        "params": {
          "_trackId": "The id of the track"
        },
        "returns": {
          "_0": "all the Entry ids attached to the track "
        }
      },
      "getTrack(uint256)": {
        "details": "Fails if track is blocked",
        "params": {
          "_trackId": "The id of the track"
        },
        "returns": {
          "_0": "the relevant Track object"
        }
      },
      "getTrackState(uint256)": {
        "params": {
          "_trackId": "The id of the track"
        }
      },
      "getTracks()": {
        "details": "There is a hard cap on the amount of tracks that we will return",
        "returns": {
          "_0": "array of all tracks by object"
        }
      },
      "isSenderInEntryCreationCooldown()": {
        "details": "Cooldown allows automation blocking to balance throughput.",
        "returns": {
          "_0": "true if user is in cooldown, false otherwise."
        }
      },
      "isSenderInTrackCreationCooldown()": {
        "details": "Cooldown allows automation blocking to balance throughput.",
        "returns": {
          "_0": "true if user is in cooldown, false otherwise."
        }
      },
      "isSenderInVotingCooldown(uint256)": {
        "details": "Cooldown allows automation blocking to balance throughput.",
        "returns": {
          "_0": "true if user is in cooldown, false otherwise."
        }
      },
      "isTrackBlocked(uint256)": {
        "details": "Fails if track doesnt exist",
        "params": {
          "_trackId": "The id of the track"
        }
      },
      "isTrackClosed(uint256)": {
        "details": "Fails if track doesnt exist",
        "params": {
          "_trackId": "The id of the track"
        }
      },
      "isTrackOpen(uint256)": {
        "details": "Fails if track doesnt exist",
        "params": {
          "_trackId": "The id of the track"
        }
      },
      "isUserBanned(address)": {
        "params": {
          "addr": ", address of the user to block"
        },
        "returns": {
          "_0": "true if banned, false otherwise."
        }
      },
      "openTrack(uint256)": {
        "details": "Fails if track is closed, user is banned, or track doesnt exist",
        "params": {
          "_trackId": "The id of the track"
        }
      },
      "owner()": {
        "details": "Returns the address of the current owner."
      },
      "paused()": {
        "details": "Returns true if the contract is paused, and false otherwise."
      },
      "renounceOwnership()": {
        "details": "Leaves the contract without owner. It will not be possible to call `onlyOwner` functions anymore. Can only be called by the current owner. NOTE: Renouncing ownership will leave the contract without an owner, thereby removing any functionality that is only available to the owner."
      },
      "setMaxTrackCount(uint256)": {
        "details": "This function is only availble to the contract owner.",
        "params": {
          "_maxCount": "the maximum length of tracks"
        }
      },
      "setMinDonation(uint256)": {
        "details": "This function is only availble to the contract owner.",
        "params": {
          "_minDonation": "min donation"
        }
      },
      "transferOwnership(address)": {
        "details": "Transfers ownership of the contract to a new account (`newOwner`). Can only be called by the current owner."
      },
      "unblockTrack(uint256)": {
        "details": "Fails if track is already unblocked, user is banned, or track doesnt exist",
        "params": {
          "_trackId": "The id of the track"
        }
      },
      "vote(uint256)": {
        "details": "Voting emits an event.  It also sets a number of variables to follow users voting patterns so that  multiple voting and cooldowns can be monitored.",
        "params": {
          "_entryId": "The id of the entry"
        }
      }
    },
    "title": "The Tracks contract enables the storage of collections of  text information with voting enabled on each memeber of the collection through emitting events.",
    "version": 1
  },
  "userdoc": {
    "kind": "user",
    "methods": {
      "addEntry(uint256,string,string,string)": {
        "notice": "Add an entry to a specific track."
      },
      "addTrack(string,string)": {
        "notice": "Add a track."
      },
      "banUser(address,bool)": {
        "notice": "Ban a user from participation. "
      },
      "blockTrack(uint256)": {
        "notice": "Set a specific track to the 'Blocked' state."
      },
      "closeTrack(uint256)": {
        "notice": "Set a specific track to the 'Closed' state."
      },
      "collectDonations()": {
        "notice": "Withdraw the donations to the senders address (if allowed)"
      },
      "disableAllTracks(bool)": {
        "notice": "Set all existing tracks to the 'Blocked' state."
      },
      "disableAllVoting(bool)": {
        "notice": "Set all voting to the 'Blocked' state."
      },
      "donateToContractOwner()": {
        "notice": "Set the percentage of transaction fees to add to donations."
      },
      "donateToTrackOwner(uint256)": {
        "notice": "Set the percentage of transaction fees to add to donations."
      },
      "enableCooldowns(bool)": {
        "notice": "Enable or disable the use of cooldowns."
      },
      "getEntriesForTrack(uint256)": {
        "notice": "Get all the entries attached to a specific track"
      },
      "getTrack(uint256)": {
        "notice": "Get a specific tracks object"
      },
      "getTrackState(uint256)": {
        "notice": "Get the state of a track as a string key."
      },
      "getTracks()": {
        "notice": "Get all tracks."
      },
      "isSenderInEntryCreationCooldown()": {
        "notice": "Check if a user is in a cooldown period for entry creation."
      },
      "isSenderInTrackCreationCooldown()": {
        "notice": "Check if a user is in a cooldown period for track creation."
      },
      "isSenderInVotingCooldown(uint256)": {
        "notice": "Check if a user is in a cooldown period for voting."
      },
      "isTrackBlocked(uint256)": {
        "notice": "Check a specific track is in the 'Blocked' state."
      },
      "isTrackClosed(uint256)": {
        "notice": "Check a specific track is in the 'Open' state."
      },
      "isTrackOpen(uint256)": {
        "notice": "Check a specific track is in the 'Open' state."
      },
      "isUserBanned(address)": {
        "notice": "Check if a user is banned from participation. "
      },
      "openTrack(uint256)": {
        "notice": "Set a specific track to the 'Open' state."
      },
      "setMaxTrackCount(uint256)": {
        "notice": "set the maximum amount of tracks to iterate through"
      },
      "setMinDonation(uint256)": {
        "notice": "Set the minimum donation price."
      },
      "unblockTrack(uint256)": {
        "notice": "Unblock a specific track by settings to the 'Closed' state."
      },
      "vote(uint256)": {
        "notice": "Vote for an entry. "
      }
    },
    "version": 1
  }
}