{
  "contractName": "Tracks",
  "abi": [
    {
      "inputs": [],
      "stateMutability": "nonpayable",
      "type": "constructor"
    },
    {
      "anonymous": false,
      "inputs": [
        {
          "indexed": true,
          "internalType": "uint256",
          "name": "trackId",
          "type": "uint256"
        },
        {
          "indexed": true,
          "internalType": "uint256",
          "name": "entryId",
          "type": "uint256"
        },
        {
          "indexed": false,
          "internalType": "string",
          "name": "name",
          "type": "string"
        },
        {
          "indexed": false,
          "internalType": "string",
          "name": "desc",
          "type": "string"
        },
        {
          "indexed": false,
          "internalType": "string",
          "name": "location",
          "type": "string"
        }
      ],
      "name": "EntryCreated",
      "type": "event"
    },
    {
      "anonymous": false,
      "inputs": [
        {
          "indexed": true,
          "internalType": "uint256",
          "name": "trackId",
          "type": "uint256"
        },
        {
          "indexed": true,
          "internalType": "uint256",
          "name": "entryId",
          "type": "uint256"
        }
      ],
      "name": "EntryVotedFor",
      "type": "event"
    },
    {
      "anonymous": false,
      "inputs": [
        {
          "indexed": true,
          "internalType": "address",
          "name": "previousOwner",
          "type": "address"
        },
        {
          "indexed": true,
          "internalType": "address",
          "name": "newOwner",
          "type": "address"
        }
      ],
      "name": "OwnershipTransferred",
      "type": "event"
    },
    {
      "anonymous": false,
      "inputs": [
        {
          "indexed": false,
          "internalType": "uint256",
          "name": "trackId",
          "type": "uint256"
        }
      ],
      "name": "TrackBlocked",
      "type": "event"
    },
    {
      "anonymous": false,
      "inputs": [
        {
          "indexed": false,
          "internalType": "uint256",
          "name": "trackId",
          "type": "uint256"
        }
      ],
      "name": "TrackClosed",
      "type": "event"
    },
    {
      "anonymous": false,
      "inputs": [
        {
          "indexed": true,
          "internalType": "uint256",
          "name": "trackId",
          "type": "uint256"
        },
        {
          "indexed": false,
          "internalType": "string",
          "name": "name",
          "type": "string"
        },
        {
          "indexed": false,
          "internalType": "string",
          "name": "desc",
          "type": "string"
        }
      ],
      "name": "TrackCreated",
      "type": "event"
    },
    {
      "anonymous": false,
      "inputs": [
        {
          "indexed": false,
          "internalType": "uint256",
          "name": "trackId",
          "type": "uint256"
        }
      ],
      "name": "TrackOpened",
      "type": "event"
    },
    {
      "anonymous": false,
      "inputs": [
        {
          "indexed": false,
          "internalType": "uint256",
          "name": "trackId",
          "type": "uint256"
        }
      ],
      "name": "TrackUnblocked",
      "type": "event"
    },
    {
      "inputs": [],
      "name": "allTracksState",
      "outputs": [
        {
          "internalType": "enum Tracks.State",
          "name": "",
          "type": "uint8"
        }
      ],
      "stateMutability": "view",
      "type": "function",
      "constant": true
    },
    {
      "inputs": [],
      "name": "allVotesState",
      "outputs": [
        {
          "internalType": "enum Tracks.State",
          "name": "",
          "type": "uint8"
        }
      ],
      "stateMutability": "view",
      "type": "function",
      "constant": true
    },
    {
      "inputs": [
        {
          "internalType": "address",
          "name": "",
          "type": "address"
        }
      ],
      "name": "bannedUsers",
      "outputs": [
        {
          "internalType": "bool",
          "name": "",
          "type": "bool"
        }
      ],
      "stateMutability": "view",
      "type": "function",
      "constant": true
    },
    {
      "inputs": [
        {
          "internalType": "uint256",
          "name": "",
          "type": "uint256"
        }
      ],
      "name": "entriesTrack",
      "outputs": [
        {
          "internalType": "uint256",
          "name": "",
          "type": "uint256"
        }
      ],
      "stateMutability": "view",
      "type": "function",
      "constant": true
    },
    {
      "inputs": [],
      "name": "entryCreationCooldownEnabled",
      "outputs": [
        {
          "internalType": "bool",
          "name": "",
          "type": "bool"
        }
      ],
      "stateMutability": "view",
      "type": "function",
      "constant": true
    },
    {
      "inputs": [],
      "name": "entryEventCooldownPeriod",
      "outputs": [
        {
          "internalType": "uint256",
          "name": "",
          "type": "uint256"
        }
      ],
      "stateMutability": "view",
      "type": "function",
      "constant": true
    },
    {
      "inputs": [
        {
          "internalType": "address",
          "name": "",
          "type": "address"
        }
      ],
      "name": "entryEventsByUser",
      "outputs": [
        {
          "internalType": "uint256",
          "name": "time",
          "type": "uint256"
        },
        {
          "internalType": "uint256",
          "name": "eventId",
          "type": "uint256"
        }
      ],
      "stateMutability": "view",
      "type": "function",
      "constant": true
    },
    {
      "inputs": [
        {
          "internalType": "address",
          "name": "",
          "type": "address"
        },
        {
          "internalType": "uint256",
          "name": "",
          "type": "uint256"
        }
      ],
      "name": "lastVoteTime",
      "outputs": [
        {
          "internalType": "uint256",
          "name": "",
          "type": "uint256"
        }
      ],
      "stateMutability": "view",
      "type": "function",
      "constant": true
    },
    {
      "inputs": [],
      "name": "nextEntryId",
      "outputs": [
        {
          "internalType": "uint256",
          "name": "",
          "type": "uint256"
        }
      ],
      "stateMutability": "view",
      "type": "function",
      "constant": true
    },
    {
      "inputs": [],
      "name": "nextTrackId",
      "outputs": [
        {
          "internalType": "uint256",
          "name": "",
          "type": "uint256"
        }
      ],
      "stateMutability": "view",
      "type": "function",
      "constant": true
    },
    {
      "inputs": [],
      "name": "owner",
      "outputs": [
        {
          "internalType": "address",
          "name": "",
          "type": "address"
        }
      ],
      "stateMutability": "view",
      "type": "function",
      "constant": true
    },
    {
      "inputs": [],
      "name": "renounceOwnership",
      "outputs": [],
      "stateMutability": "nonpayable",
      "type": "function"
    },
    {
      "inputs": [],
      "name": "trackCount",
      "outputs": [
        {
          "internalType": "uint256",
          "name": "",
          "type": "uint256"
        }
      ],
      "stateMutability": "view",
      "type": "function",
      "constant": true
    },
    {
      "inputs": [],
      "name": "trackCreationCooldownEnabled",
      "outputs": [
        {
          "internalType": "bool",
          "name": "",
          "type": "bool"
        }
      ],
      "stateMutability": "view",
      "type": "function",
      "constant": true
    },
    {
      "inputs": [
        {
          "internalType": "uint256",
          "name": "",
          "type": "uint256"
        },
        {
          "internalType": "uint256",
          "name": "",
          "type": "uint256"
        }
      ],
      "name": "trackEntries",
      "outputs": [
        {
          "internalType": "uint256",
          "name": "",
          "type": "uint256"
        }
      ],
      "stateMutability": "view",
      "type": "function",
      "constant": true
    },
    {
      "inputs": [],
      "name": "trackEventCooldownPeriod",
      "outputs": [
        {
          "internalType": "uint256",
          "name": "",
          "type": "uint256"
        }
      ],
      "stateMutability": "view",
      "type": "function",
      "constant": true
    },
    {
      "inputs": [
        {
          "internalType": "address",
          "name": "",
          "type": "address"
        }
      ],
      "name": "trackEventsByUser",
      "outputs": [
        {
          "internalType": "uint256",
          "name": "time",
          "type": "uint256"
        },
        {
          "internalType": "uint256",
          "name": "trackId",
          "type": "uint256"
        }
      ],
      "stateMutability": "view",
      "type": "function",
      "constant": true
    },
    {
      "inputs": [
        {
          "internalType": "uint256",
          "name": "",
          "type": "uint256"
        }
      ],
      "name": "trackOwners",
      "outputs": [
        {
          "internalType": "address",
          "name": "",
          "type": "address"
        }
      ],
      "stateMutability": "view",
      "type": "function",
      "constant": true
    },
    {
      "inputs": [
        {
          "internalType": "uint256",
          "name": "",
          "type": "uint256"
        }
      ],
      "name": "tracks",
      "outputs": [
        {
          "internalType": "uint256",
          "name": "trackId",
          "type": "uint256"
        },
        {
          "internalType": "string",
          "name": "name",
          "type": "string"
        },
        {
          "internalType": "string",
          "name": "desc",
          "type": "string"
        },
        {
          "internalType": "enum Tracks.State",
          "name": "state",
          "type": "uint8"
        },
        {
          "internalType": "bool",
          "name": "exists",
          "type": "bool"
        },
        {
          "internalType": "bool",
          "name": "visible",
          "type": "bool"
        },
        {
          "internalType": "bool",
          "name": "pinned",
          "type": "bool"
        }
      ],
      "stateMutability": "view",
      "type": "function",
      "constant": true
    },
    {
      "inputs": [
        {
          "internalType": "address",
          "name": "newOwner",
          "type": "address"
        }
      ],
      "name": "transferOwnership",
      "outputs": [],
      "stateMutability": "nonpayable",
      "type": "function"
    },
    {
      "inputs": [],
      "name": "voteCooldownPeriod",
      "outputs": [
        {
          "internalType": "uint256",
          "name": "",
          "type": "uint256"
        }
      ],
      "stateMutability": "view",
      "type": "function",
      "constant": true
    },
    {
      "inputs": [
        {
          "internalType": "address",
          "name": "",
          "type": "address"
        },
        {
          "internalType": "uint256",
          "name": "",
          "type": "uint256"
        }
      ],
      "name": "votesByAddress",
      "outputs": [
        {
          "internalType": "bool",
          "name": "",
          "type": "bool"
        }
      ],
      "stateMutability": "view",
      "type": "function",
      "constant": true
    },
    {
      "inputs": [
        {
          "internalType": "uint256",
          "name": "",
          "type": "uint256"
        }
      ],
      "name": "votesByTrack",
      "outputs": [
        {
          "internalType": "uint256",
          "name": "",
          "type": "uint256"
        }
      ],
      "stateMutability": "view",
      "type": "function",
      "constant": true
    },
    {
      "inputs": [],
      "name": "votingCooldownEnabled",
      "outputs": [
        {
          "internalType": "bool",
          "name": "",
          "type": "bool"
        }
      ],
      "stateMutability": "view",
      "type": "function",
      "constant": true
    },
    {
      "inputs": [],
      "name": "getTracks",
      "outputs": [
        {
          "components": [
            {
              "internalType": "uint256",
              "name": "trackId",
              "type": "uint256"
            },
            {
              "internalType": "string",
              "name": "name",
              "type": "string"
            },
            {
              "internalType": "string",
              "name": "desc",
              "type": "string"
            },
            {
              "internalType": "enum Tracks.State",
              "name": "state",
              "type": "uint8"
            },
            {
              "internalType": "bool",
              "name": "exists",
              "type": "bool"
            },
            {
              "internalType": "bool",
              "name": "visible",
              "type": "bool"
            },
            {
              "internalType": "bool",
              "name": "pinned",
              "type": "bool"
            }
          ],
          "internalType": "struct Tracks.Track[]",
          "name": "",
          "type": "tuple[]"
        }
      ],
      "stateMutability": "view",
      "type": "function",
      "constant": true
    },
    {
      "inputs": [
        {
          "internalType": "uint256",
          "name": "_trackId",
          "type": "uint256"
        }
      ],
      "name": "getTrack",
      "outputs": [
        {
          "components": [
            {
              "internalType": "uint256",
              "name": "trackId",
              "type": "uint256"
            },
            {
              "internalType": "string",
              "name": "name",
              "type": "string"
            },
            {
              "internalType": "string",
              "name": "desc",
              "type": "string"
            },
            {
              "internalType": "enum Tracks.State",
              "name": "state",
              "type": "uint8"
            },
            {
              "internalType": "bool",
              "name": "exists",
              "type": "bool"
            },
            {
              "internalType": "bool",
              "name": "visible",
              "type": "bool"
            },
            {
              "internalType": "bool",
              "name": "pinned",
              "type": "bool"
            }
          ],
          "internalType": "struct Tracks.Track",
          "name": "",
          "type": "tuple"
        }
      ],
      "stateMutability": "view",
      "type": "function",
      "constant": true
    },
    {
      "inputs": [
        {
          "internalType": "uint256",
          "name": "_trackId",
          "type": "uint256"
        }
      ],
      "name": "getEntriesForTrack",
      "outputs": [
        {
          "internalType": "uint256[]",
          "name": "",
          "type": "uint256[]"
        }
      ],
      "stateMutability": "view",
      "type": "function",
      "constant": true
    },
    {
      "inputs": [
        {
          "internalType": "uint256",
          "name": "_trackId",
          "type": "uint256"
        }
      ],
      "name": "openTrack",
      "outputs": [],
      "stateMutability": "nonpayable",
      "type": "function"
    },
    {
      "inputs": [
        {
          "internalType": "uint256",
          "name": "_trackId",
          "type": "uint256"
        }
      ],
      "name": "closeTrack",
      "outputs": [],
      "stateMutability": "nonpayable",
      "type": "function"
    },
    {
      "inputs": [
        {
          "internalType": "uint256",
          "name": "_trackId",
          "type": "uint256"
        }
      ],
      "name": "blockTrack",
      "outputs": [],
      "stateMutability": "nonpayable",
      "type": "function"
    },
    {
      "inputs": [
        {
          "internalType": "uint256",
          "name": "_trackId",
          "type": "uint256"
        }
      ],
      "name": "unblockTrack",
      "outputs": [],
      "stateMutability": "nonpayable",
      "type": "function"
    },
    {
      "inputs": [
        {
          "internalType": "uint256",
          "name": "_trackId",
          "type": "uint256"
        }
      ],
      "name": "getTrackState",
      "outputs": [
        {
          "internalType": "string",
          "name": "",
          "type": "string"
        }
      ],
      "stateMutability": "view",
      "type": "function",
      "constant": true
    },
    {
      "inputs": [
        {
          "internalType": "uint256",
          "name": "_trackId",
          "type": "uint256"
        }
      ],
      "name": "isTrackOpen",
      "outputs": [
        {
          "internalType": "bool",
          "name": "",
          "type": "bool"
        }
      ],
      "stateMutability": "view",
      "type": "function",
      "constant": true
    },
    {
      "inputs": [
        {
          "internalType": "uint256",
          "name": "_trackId",
          "type": "uint256"
        }
      ],
      "name": "isTrackClosed",
      "outputs": [
        {
          "internalType": "bool",
          "name": "",
          "type": "bool"
        }
      ],
      "stateMutability": "view",
      "type": "function",
      "constant": true
    },
    {
      "inputs": [
        {
          "internalType": "uint256",
          "name": "_trackId",
          "type": "uint256"
        }
      ],
      "name": "isTrackBlocked",
      "outputs": [
        {
          "internalType": "bool",
          "name": "",
          "type": "bool"
        }
      ],
      "stateMutability": "view",
      "type": "function",
      "constant": true
    },
    {
      "inputs": [
        {
          "internalType": "uint256",
          "name": "_entryId",
          "type": "uint256"
        }
      ],
      "name": "vote",
      "outputs": [],
      "stateMutability": "nonpayable",
      "type": "function"
    },
    {
      "inputs": [
        {
          "internalType": "uint256",
          "name": "_trackId",
          "type": "uint256"
        },
        {
          "internalType": "string",
          "name": "_name",
          "type": "string"
        },
        {
          "internalType": "string",
          "name": "_desc",
          "type": "string"
        },
        {
          "internalType": "string",
          "name": "_location",
          "type": "string"
        }
      ],
      "name": "addEntry",
      "outputs": [
        {
          "internalType": "uint256",
          "name": "",
          "type": "uint256"
        }
      ],
      "stateMutability": "nonpayable",
      "type": "function"
    },
    {
      "inputs": [
        {
          "internalType": "string",
          "name": "_name",
          "type": "string"
        },
        {
          "internalType": "string",
          "name": "_desc",
          "type": "string"
        }
      ],
      "name": "addTrack",
      "outputs": [
        {
          "internalType": "uint256",
          "name": "",
          "type": "uint256"
        }
      ],
      "stateMutability": "nonpayable",
      "type": "function"
    },
    {
      "inputs": [
        {
          "internalType": "bool",
          "name": "enable",
          "type": "bool"
        }
      ],
      "name": "disableAllTracks",
      "outputs": [],
      "stateMutability": "nonpayable",
      "type": "function"
    },
    {
      "inputs": [
        {
          "internalType": "bool",
          "name": "enable",
          "type": "bool"
        }
      ],
      "name": "disableAllVoting",
      "outputs": [],
      "stateMutability": "nonpayable",
      "type": "function"
    },
    {
      "inputs": [
        {
          "internalType": "address",
          "name": "addr",
          "type": "address"
        },
        {
          "internalType": "bool",
          "name": "banned",
          "type": "bool"
        }
      ],
      "name": "banUser",
      "outputs": [],
      "stateMutability": "nonpayable",
      "type": "function"
    },
    {
      "inputs": [
        {
          "internalType": "address",
          "name": "addr",
          "type": "address"
        }
      ],
      "name": "isUserBanned",
      "outputs": [
        {
          "internalType": "bool",
          "name": "",
          "type": "bool"
        }
      ],
      "stateMutability": "view",
      "type": "function",
      "constant": true
    },
    {
      "inputs": [],
      "name": "isSenderInTrackCreationCooldown",
      "outputs": [
        {
          "internalType": "bool",
          "name": "",
          "type": "bool"
        }
      ],
      "stateMutability": "view",
      "type": "function",
      "constant": true
    },
    {
      "inputs": [],
      "name": "isSenderInEntryCreationCooldown",
      "outputs": [
        {
          "internalType": "bool",
          "name": "",
          "type": "bool"
        }
      ],
      "stateMutability": "view",
      "type": "function",
      "constant": true
    },
    {
      "inputs": [
        {
          "internalType": "uint256",
          "name": "trackId",
          "type": "uint256"
        }
      ],
      "name": "isSenderInVotingCooldown",
      "outputs": [
        {
          "internalType": "bool",
          "name": "",
          "type": "bool"
        }
      ],
      "stateMutability": "view",
      "type": "function",
      "constant": true
    },
    {
      "inputs": [
        {
          "internalType": "bool",
          "name": "enable",
          "type": "bool"
        }
      ],
      "name": "enableCooldowns",
      "outputs": [],
      "stateMutability": "nonpayable",
      "type": "function"
    }
  ],
  "bytecode": "0x60806040523480156200001157600080fd5b506200003262000026620000ce60201b60201c565b620000d660201b60201c565b603c600e81905550603c600f81905550603c6010819055506000601160006101000a81548160ff021916908360028111156200007357620000726200157a565b5b02179055506000601160016101000a81548160ff02191690836002811115620000a157620000a06200157a565b5b0217905550620000b860016200019a60201b60201c565b620000c86200027a60201b60201c565b620017c9565b600033905090565b60008060009054906101000a900473ffffffffffffffffffffffffffffffffffffffff169050816000806101000a81548173ffffffffffffffffffffffffffffffffffffffff021916908373ffffffffffffffffffffffffffffffffffffffff1602179055508173ffffffffffffffffffffffffffffffffffffffff168173ffffffffffffffffffffffffffffffffffffffff167f8be0079c531659141344cd1fd0a4f28419497f9722a3daafe3b4186f6b6457e060405160405180910390a35050565b620001aa620000ce60201b60201c565b73ffffffffffffffffffffffffffffffffffffffff16620001d06200039c60201b60201c565b73ffffffffffffffffffffffffffffffffffffffff161462000229576040517f08c379a0000000000000000000000000000000000000000000000000000000008152600401620002209062001347565b60405180910390fd5b80601160026101000a81548160ff02191690831515021790555080601160036101000a81548160ff02191690831515021790555080601160046101000a81548160ff02191690831515021790555050565b6000620002dc6040518060400160405280600481526020017f48656c7000000000000000000000000000000000000000000000000000000000815250604051806060016040528060298152602001620063b860299139620003c560201b60201c565b905062000359816040518060400160405280600881526020017f486f6d6570616765000000000000000000000000000000000000000000000000815250604051806060016040528060248152602001620063e1602491396040518060800160405280604a815260200162006405604a9139620008ec60201b60201c565b50600180600083815260200190815260200160002060030160036101000a81548160ff021916908315150217905550620003998162000db860201b60201c565b50565b60008060009054906101000a900473ffffffffffffffffffffffffffffffffffffffff16905090565b6000600280811115620003dd57620003dc6200157a565b5b601160009054906101000a900460ff1660028111156200040257620004016200157a565b5b141562000446576040517f08c379a00000000000000000000000000000000000000000000000000000000081526004016200043d906200138b565b60405180910390fd5b33601160029054906101000a900460ff1615806200049e57506200046f6200039c60201b60201c565b73ffffffffffffffffffffffffffffffffffffffff168173ffffffffffffffffffffffffffffffffffffffff16145b80620004ec57506000600660008373ffffffffffffffffffffffffffffffffffffffff1673ffffffffffffffffffffffffffffffffffffffff16815260200190815260200160002060000154145b8062000548575042601054600660008473ffffffffffffffffffffffffffffffffffffffff1673ffffffffffffffffffffffffffffffffffffffff168152602001908152602001600020600001546200054691906200142a565b115b6200058a576040517f08c379a00000000000000000000000000000000000000000000000000000000081526004016200058190620013ad565b60405180910390fd5b336200059b6200039c60201b60201c565b73ffffffffffffffffffffffffffffffffffffffff168173ffffffffffffffffffffffffffffffffffffffff1614158062000627575060011515600a60008373ffffffffffffffffffffffffffffffffffffffff1673ffffffffffffffffffffffffffffffffffffffff16815260200190815260200160002060009054906101000a900460ff16151514155b62000669576040517f08c379a0000000000000000000000000000000000000000000000000000000008152600401620006609062001369565b60405180910390fd5b6000600b5490506040518060e0016040528082815260200187815260200186815260200160006002811115620006a457620006a36200157a565b5b81526020016001151581526020016001151581526020016000151581525060016000838152602001908152602001600020600082015181600001556020820151816001019080519060200190620006fd9291906200101a565b5060408201518160020190805190602001906200071c9291906200101a565b5060608201518160030160006101000a81548160ff021916908360028111156200074b576200074a6200157a565b5b021790555060808201518160030160016101000a81548160ff02191690831515021790555060a08201518160030160026101000a81548160ff02191690831515021790555060c08201518160030160036101000a81548160ff021916908315150217905550905050604051806040016040528042815260200182815250600660003373ffffffffffffffffffffffffffffffffffffffff1673ffffffffffffffffffffffffffffffffffffffff1681526020019081526020016000206000820151816000015560208201518160010155905050336004600083815260200190815260200160002060006101000a81548173ffffffffffffffffffffffffffffffffffffffff021916908373ffffffffffffffffffffffffffffffffffffffff160217905550600b60008154809291906200088590620014fd565b9190505550600c60008154809291906200089f90620014fd565b9190505550807f21579433a032855e20e8afc48e980ddae0b6285e4aa03370f03192be12bea28b8787604051620008d892919062001254565b60405180910390a280935050505092915050565b60006002808111156200090457620009036200157a565b5b601160009054906101000a900460ff1660028111156200092957620009286200157a565b5b14156200096d576040517f08c379a000000000000000000000000000000000000000000000000000000000815260040162000964906200138b565b60405180910390fd5b336200097e6200039c60201b60201c565b73ffffffffffffffffffffffffffffffffffffffff168173ffffffffffffffffffffffffffffffffffffffff1614158062000a0a575060011515600a60008373ffffffffffffffffffffffffffffffffffffffff1673ffffffffffffffffffffffffffffffffffffffff16815260200190815260200160002060009054906101000a900460ff16151514155b62000a4c576040517f08c379a000000000000000000000000000000000000000000000000000000000815260040162000a439062001369565b60405180910390fd5b33601160049054906101000a900460ff16158062000aa4575062000a756200039c60201b60201c565b73ffffffffffffffffffffffffffffffffffffffff168173ffffffffffffffffffffffffffffffffffffffff16145b8062000af257506000600760008373ffffffffffffffffffffffffffffffffffffffff1673ffffffffffffffffffffffffffffffffffffffff16815260200190815260200160002060000154145b8062000b4e575042600f54600760008473ffffffffffffffffffffffffffffffffffffffff1673ffffffffffffffffffffffffffffffffffffffff1681526020019081526020016000206000015462000b4c91906200142a565b115b62000b90576040517f08c379a000000000000000000000000000000000000000000000000000000000815260040162000b879062001303565b60405180910390fd5b866000600281111562000ba85762000ba76200157a565b5b6001600083815260200190815260200160002060030160009054906101000a900460ff16600281111562000be15762000be06200157a565b5b1462000bec57600080fd5b6000600281111562000c035762000c026200157a565b5b601160009054906101000a900460ff16600281111562000c285762000c276200157a565b5b1462000c6b576040517f08c379a000000000000000000000000000000000000000000000000000000000815260040162000c6290620012e1565b60405180910390fd5b6000600d549050600060036000838152602001908152602001600020541462000c9357600080fd5b600260008a8152602001908152602001600020819080600181540180825580915050600190039060005260206000200160009091909190915055886003600083815260200190815260200160002081905550604051806040016040528042815260200182815250600760003373ffffffffffffffffffffffffffffffffffffffff1673ffffffffffffffffffffffffffffffffffffffff1681526020019081526020016000206000820151816000015560208201518160010155905050600d600081548092919062000d6590620014fd565b919050555080897f313f81e8cc8fe5ab3d1facaeffd8e0d26068ff1776d23a4621a5bdb0c891c8178a8a8a60405162000da1939291906200128f565b60405180910390a380945050505050949350505050565b80600115156001600083815260200190815260200160002060030160019054906101000a900460ff1615151462000e26576040517f08c379a000000000000000000000000000000000000000000000000000000000815260040162000e1d90620013cf565b60405180910390fd5b8160028081111562000e3d5762000e3c6200157a565b5b6001600083815260200190815260200160002060030160009054906101000a900460ff16600281111562000e765762000e756200157a565b5b141562000eba576040517f08c379a000000000000000000000000000000000000000000000000000000000815260040162000eb19062001325565b60405180910390fd5b3362000ecb6200039c60201b60201c565b73ffffffffffffffffffffffffffffffffffffffff168173ffffffffffffffffffffffffffffffffffffffff1614158062000f57575060011515600a60008373ffffffffffffffffffffffffffffffffffffffff1673ffffffffffffffffffffffffffffffffffffffff16815260200190815260200160002060009054906101000a900460ff16151514155b62000f99576040517f08c379a000000000000000000000000000000000000000000000000000000000815260040162000f909062001369565b60405180910390fd5b60026001600086815260200190815260200160002060030160006101000a81548160ff0219169083600281111562000fd65762000fd56200157a565b5b02179055507fa589501e457bda1f31782af099f2695facb8e79d38d121802e6ac1c53237b841846040516200100c9190620013f1565b60405180910390a150505050565b8280546200102890620014c7565b90600052602060002090601f0160209004810192826200104c576000855562001098565b82601f106200106757805160ff191683800117855562001098565b8280016001018555821562001098579182015b82811115620010975782518255916020019190600101906200107a565b5b509050620010a79190620010ab565b5090565b5b80821115620010c6576000816000905550600101620010ac565b5090565b6000620010d7826200140e565b620010e3818562001419565b9350620010f581856020860162001491565b6200110081620015d8565b840191505092915050565b60006200111a60248362001419565b91506200112782620015e9565b604082019050919050565b60006200114160248362001419565b91506200114e8262001638565b604082019050919050565b60006200116860118362001419565b9150620011758262001687565b602082019050919050565b60006200118f60208362001419565b91506200119c82620016b0565b602082019050919050565b6000620011b6601d8362001419565b9150620011c382620016d9565b602082019050919050565b6000620011dd60258362001419565b9150620011ea8262001702565b604082019050919050565b60006200120460248362001419565b9150620012118262001751565b604082019050919050565b60006200122b60148362001419565b91506200123882620017a0565b602082019050919050565b6200124e8162001487565b82525050565b60006040820190508181036000830152620012708185620010ca565b90508181036020830152620012868184620010ca565b90509392505050565b60006060820190508181036000830152620012ab8186620010ca565b90508181036020830152620012c18185620010ca565b90508181036040830152620012d78184620010ca565b9050949350505050565b60006020820190508181036000830152620012fc816200110b565b9050919050565b600060208201905081810360008301526200131e8162001132565b9050919050565b60006020820190508181036000830152620013408162001159565b9050919050565b60006020820190508181036000830152620013628162001180565b9050919050565b600060208201905081810360008301526200138481620011a7565b9050919050565b60006020820190508181036000830152620013a681620011ce565b9050919050565b60006020820190508181036000830152620013c881620011f5565b9050919050565b60006020820190508181036000830152620013ea816200121c565b9050919050565b600060208201905062001408600083018462001243565b92915050565b600081519050919050565b600082825260208201905092915050565b6000620014378262001487565b9150620014448362001487565b9250827fffffffffffffffffffffffffffffffffffffffffffffffffffffffffffffffff038211156200147c576200147b6200154b565b5b828201905092915050565b6000819050919050565b60005b83811015620014b157808201518184015260208101905062001494565b83811115620014c1576000848401525b50505050565b60006002820490506001821680620014e057607f821691505b60208210811415620014f757620014f6620015a9565b5b50919050565b60006200150a8262001487565b91507fffffffffffffffffffffffffffffffffffffffffffffffffffffffffffffffff82141562001540576200153f6200154b565b5b600182019050919050565b7f4e487b7100000000000000000000000000000000000000000000000000000000600052601160045260246000fd5b7f4e487b7100000000000000000000000000000000000000000000000000000000600052602160045260246000fd5b7f4e487b7100000000000000000000000000000000000000000000000000000000600052602260045260246000fd5b6000601f19601f8301169050919050565b7f416c6c20747261636b732068617665206265656e20636c6f736564206279206160008201527f646d696e00000000000000000000000000000000000000000000000000000000602082015250565b7f557365722069732063757272656e746c7920696e20656e74727920636f6f6c6460008201527f6f776e2e00000000000000000000000000000000000000000000000000000000602082015250565b7f547261636b20697320626c6f636b65642e000000000000000000000000000000600082015250565b7f4f776e61626c653a2063616c6c6572206973206e6f7420746865206f776e6572600082015250565b7f5573657220686173206265656e2062616e6e65642062792061646d696e000000600082015250565b7f416c6c20747261636b732068617665206265656e20626c6f636b65642062792060008201527f61646d696e000000000000000000000000000000000000000000000000000000602082015250565b7f557365722069732063757272656e746c7920696e20747261636b20636f6f6c6460008201527f6f776e2e00000000000000000000000000000000000000000000000000000000602082015250565b7f547261636b20646f6573206e6f74206578697374000000000000000000000000600082015250565b614bdf80620017d96000396000f3fe608060405234801561001057600080fd5b506004361061028a5760003560e01c806395ab2b981161015c578063caa2c2ad116100ce578063eea85bc511610087578063eea85bc514610878578063ef759761146108a9578063f2fde38b146108c5578063f838e33f146108e1578063f9eafb57146108ff578063fb0084471461091d5761028a565b8063caa2c2ad1461077b578063d02f4483146107ab578063d2496624146107db578063db7c01e2146107f9578063debe8ab714610829578063e6b2cf6c1461085a5761028a565b8063a5bf8ea911610120578063a5bf8ea9146106b9578063a72024c6146106d5578063ab35678c146106f3578063add509c014610711578063bb855ee61461072d578063c67f8b8a1461074b5761028a565b806395ab2b98146105d5578063962dd807146106055780639ebe639a146106355780639ed9b4fd14610653578063a2e34586146106835761028a565b80635be85297116102005780637e8898ea116101b95780637e8898ea146104ff57806387548fcf1461051d5780638988d0781461053b5780638da5cb5b1461056b5780638ee223f914610589578063924e9b95146105a55761028a565b80635be852971461043f5780635e11ca821461045b578063629058ca1461047957806366cb5936146104a957806368e982b0146104d9578063715018a6146104f55761028a565b806328ae3ebb1161025257806328ae3ebb146103455780632e42ddbf1461036357806333abbe511461039357806336de40be146103c3578063423b7032146103f35780634bc558b31461040f5761028a565b80630121b93f1461028f5780630955ccff146102ab5780630ea4d2ee146102c9578063109699b6146102f95780631f6c5f0014610329575b600080fd5b6102a960048036038101906102a49190613a1d565b61093b565b005b6102b3610ee0565b6040516102c0919061436b565b60405180910390f35b6102e360048036038101906102de9190613a1d565b610ee6565b6040516102f091906140e4565b60405180910390f35b610313600480360381019061030e9190613b05565b611141565b604051610320919061436b565b60405180910390f35b610343600480360381019061033e9190613a1d565b611172565b005b61034d6113e5565b60405161035a91906140ae565b60405180910390f35b61037d60048036038101906103789190613a4a565b611467565b60405161038a919061436b565b60405180910390f35b6103ad60048036038101906103a89190613a1d565b6118f9565b6040516103ba91906140ae565b60405180910390f35b6103dd60048036038101906103d891906139a5565b6119b9565b6040516103ea919061436b565b60405180910390f35b61040d60048036038101906104089190613a1d565b611eab565b005b61042960048036038101906104249190613938565b61215e565b604051610436919061436b565b60405180910390f35b61045960048036038101906104549190613978565b612183565b005b610463612250565b60405161047091906140c9565b60405180910390f35b610493600480360381019061048e9190613a1d565b612263565b6040516104a09190614349565b60405180910390f35b6104c360048036038101906104be9190613a1d565b6124d6565b6040516104d091906140ae565b60405180910390f35b6104f360048036038101906104ee9190613a1d565b612596565b005b6104fd6127d9565b005b610507612861565b60405161051491906140ae565b60405180910390f35b610525612874565b604051610532919061406a565b60405180910390f35b610555600480360381019061055091906138cb565b612aee565b60405161056291906140ae565b60405180910390f35b610573612b0e565b604051610580919061404f565b60405180910390f35b6105a3600480360381019061059e91906138f8565b612b37565b005b6105bf60048036038101906105ba9190613a1d565b612c0e565b6040516105cc919061436b565b60405180910390f35b6105ef60048036038101906105ea9190613a1d565b612c26565b6040516105fc919061404f565b60405180910390f35b61061f600480360381019061061a9190613a1d565b612c59565b60405161062c919061436b565b60405180910390f35b61063d612c71565b60405161064a91906140ae565b60405180910390f35b61066d600480360381019061066891906138cb565b612c84565b60405161067a91906140ae565b60405180910390f35b61069d60048036038101906106989190613a1d565b612cda565b6040516106b09796959493929190614386565b60405180910390f35b6106d360048036038101906106ce9190613978565b612e60565b005b6106dd612f41565b6040516106ea919061436b565b60405180910390f35b6106fb612f47565b604051610708919061436b565b60405180910390f35b61072b60048036038101906107269190613978565b612f4d565b005b61073561302e565b604051610742919061436b565b60405180910390f35b61076560048036038101906107609190613a1d565b613034565b60405161077291906140ae565b60405180910390f35b61079560048036038101906107909190613a1d565b6130c6565b6040516107a291906140ae565b60405180910390f35b6107c560048036038101906107c09190613a1d565b613185565b6040516107d2919061408c565b60405180910390f35b6107e36131f0565b6040516107f091906140ae565b60405180910390f35b610813600480360381019061080e9190613938565b613203565b60405161082091906140ae565b60405180910390f35b610843600480360381019061083e91906138cb565b613232565b604051610851929190614403565b60405180910390f35b610862613256565b60405161086f919061436b565b60405180910390f35b610892600480360381019061088d91906138cb565b61325c565b6040516108a0929190614403565b60405180910390f35b6108c360048036038101906108be9190613a1d565b613280565b005b6108df60048036038101906108da91906138cb565b6134c5565b005b6108e96135bd565b6040516108f6919061436b565b60405180910390f35b6109076135c3565b60405161091491906140ae565b60405180910390f35b610925613645565b60405161093291906140c9565b60405180910390f35b60036000828152602001908152602001600020546000600281111561096357610962614701565b5b6001600083815260200190815260200160002060030160009054906101000a900460ff16600281111561099957610998614701565b5b146109a357600080fd5b600060028111156109b7576109b6614701565b5b601160009054906101000a900460ff1660028111156109d9576109d8614701565b5b14610a19576040517f08c379a0000000000000000000000000000000000000000000000000000000008152600401610a10906141e9565b60405180910390fd5b3382610a23612b0e565b73ffffffffffffffffffffffffffffffffffffffff168273ffffffffffffffffffffffffffffffffffffffff161480610abd575060001515600560008473ffffffffffffffffffffffffffffffffffffffff1673ffffffffffffffffffffffffffffffffffffffff168152602001908152602001600020600083815260200190815260200160002060009054906101000a900460ff161515145b610afc576040517f08c379a0000000000000000000000000000000000000000000000000000000008152600401610af390614229565b60405180910390fd5b600280811115610b0f57610b0e614701565b5b601160019054906101000a900460ff166002811115610b3157610b30614701565b5b1415610b72576040517f08c379a0000000000000000000000000000000000000000000000000000000008152600401610b6990614249565b60405180910390fd5b33610b7b612b0e565b73ffffffffffffffffffffffffffffffffffffffff168173ffffffffffffffffffffffffffffffffffffffff16141580610c06575060011515600a60008373ffffffffffffffffffffffffffffffffffffffff1673ffffffffffffffffffffffffffffffffffffffff16815260200190815260200160002060009054906101000a900460ff16151514155b610c45576040517f08c379a0000000000000000000000000000000000000000000000000000000008152600401610c3c906142a9565b60405180910390fd5b336003600087815260200190815260200160002054601160039054906101000a900460ff161580610ca85750610c79612b0e565b73ffffffffffffffffffffffffffffffffffffffff168273ffffffffffffffffffffffffffffffffffffffff16145b80610d0357506000600960008473ffffffffffffffffffffffffffffffffffffffff1673ffffffffffffffffffffffffffffffffffffffff168152602001908152602001600020600083815260200190815260200160002054145b80610d6a575042600e54600960008573ffffffffffffffffffffffffffffffffffffffff1673ffffffffffffffffffffffffffffffffffffffff168152602001908152602001600020600084815260200190815260200160002054610d689190614521565b115b610da9576040517f08c379a0000000000000000000000000000000000000000000000000000000008152600401610da0906141a9565b60405180910390fd5b6000600360008981526020019081526020016000205490506001600560003373ffffffffffffffffffffffffffffffffffffffff1673ffffffffffffffffffffffffffffffffffffffff16815260200190815260200160002060008a815260200190815260200160002060006101000a81548160ff02191690831515021790555042600960003373ffffffffffffffffffffffffffffffffffffffff1673ffffffffffffffffffffffffffffffffffffffff168152602001908152602001600020600083815260200190815260200160002081905550600860008281526020019081526020016000206000815480929190610ea390614689565b919050555087817f23b2bfc0c368fdbec2cf6a0878f8f7ab7d497f92861fa232c0111ca69f63dc8260405160405180910390a35050505050505050565b600e5481565b606080600015156001600085815260200190815260200160002060030160019054906101000a900460ff1615151415610f56576040518060400160405280600481526020017f6e756c6c000000000000000000000000000000000000000000000000000000008152509050611138565b60006002811115610f6a57610f69614701565b5b6001600085815260200190815260200160002060030160009054906101000a900460ff166002811115610fa057610f9f614701565b5b1415610fe3576040518060400160405280600481526020017f6f70656e000000000000000000000000000000000000000000000000000000008152509050611137565b60016002811115610ff757610ff6614701565b5b6001600085815260200190815260200160002060030160009054906101000a900460ff16600281111561102d5761102c614701565b5b1415611070576040518060400160405280600681526020017f636c6f73656400000000000000000000000000000000000000000000000000008152509050611136565b60028081111561108357611082614701565b5b6001600085815260200190815260200160002060030160009054906101000a900460ff1660028111156110b9576110b8614701565b5b14156110fc576040518060400160405280600781526020017f626c6f636b6564000000000000000000000000000000000000000000000000008152509050611135565b6040518060400160405280600481526020017f6e756c6c0000000000000000000000000000000000000000000000000000000081525090505b5b5b5b80915050919050565b6002602052816000526040600020818154811061115d57600080fd5b90600052602060002001600091509150505481565b80600115156001600083815260200190815260200160002060030160019054906101000a900460ff161515146111dd576040517f08c379a00000000000000000000000000000000000000000000000000000000081526004016111d490614329565b60405180910390fd5b81600160028111156111f2576111f1614701565b5b6001600083815260200190815260200160002060030160009054906101000a900460ff16600281111561122857611227614701565b5b14611268576040517f08c379a000000000000000000000000000000000000000000000000000000000815260040161125f90614189565b60405180910390fd5b33611271612b0e565b73ffffffffffffffffffffffffffffffffffffffff168173ffffffffffffffffffffffffffffffffffffffff161415806112fc575060011515600a60008373ffffffffffffffffffffffffffffffffffffffff1673ffffffffffffffffffffffffffffffffffffffff16815260200190815260200160002060009054906101000a900460ff16151514155b61133b576040517f08c379a0000000000000000000000000000000000000000000000000000000008152600401611332906142a9565b60405180910390fd5b60006001600086815260200190815260200160002060030160006101000a81548160ff0219169083600281111561137557611374614701565b5b0217905550600180600086815260200190815260200160002060030160026101000a81548160ff0219169083151502179055507f5a695f43d53bb74f4457f1a60951e2c514c6de79da9a8d8369848853d647cc6a846040516113d7919061436b565b60405180910390a150505050565b6000601160049054906101000a900460ff168015611451575042600f54600760003373ffffffffffffffffffffffffffffffffffffffff1673ffffffffffffffffffffffffffffffffffffffff1681526020019081526020016000206000015461144f9190614521565b105b1561145f5760019050611464565b600090505b90565b600060028081111561147c5761147b614701565b5b601160009054906101000a900460ff16600281111561149e5761149d614701565b5b14156114df576040517f08c379a00000000000000000000000000000000000000000000000000000000081526004016114d6906142c9565b60405180910390fd5b336114e8612b0e565b73ffffffffffffffffffffffffffffffffffffffff168173ffffffffffffffffffffffffffffffffffffffff16141580611573575060011515600a60008373ffffffffffffffffffffffffffffffffffffffff1673ffffffffffffffffffffffffffffffffffffffff16815260200190815260200160002060009054906101000a900460ff16151514155b6115b2576040517f08c379a00000000000000000000000000000000000000000000000000000000081526004016115a9906142a9565b60405180910390fd5b33601160049054906101000a900460ff16158061160157506115d2612b0e565b73ffffffffffffffffffffffffffffffffffffffff168173ffffffffffffffffffffffffffffffffffffffff16145b8061164e57506000600760008373ffffffffffffffffffffffffffffffffffffffff1673ffffffffffffffffffffffffffffffffffffffff16815260200190815260200160002060000154145b806116a7575042600f54600760008473ffffffffffffffffffffffffffffffffffffffff1673ffffffffffffffffffffffffffffffffffffffff168152602001908152602001600020600001546116a59190614521565b115b6116e6576040517f08c379a00000000000000000000000000000000000000000000000000000000081526004016116dd90614209565b60405180910390fd5b86600060028111156116fb576116fa614701565b5b6001600083815260200190815260200160002060030160009054906101000a900460ff16600281111561173157611730614701565b5b1461173b57600080fd5b6000600281111561174f5761174e614701565b5b601160009054906101000a900460ff16600281111561177157611770614701565b5b146117b1576040517f08c379a00000000000000000000000000000000000000000000000000000000081526004016117a8906141e9565b60405180910390fd5b6000600d54905060006003600083815260200190815260200160002054146117d857600080fd5b600260008a8152602001908152602001600020819080600181540180825580915050600190039060005260206000200160009091909190915055886003600083815260200190815260200160002081905550604051806040016040528042815260200182815250600760003373ffffffffffffffffffffffffffffffffffffffff1673ffffffffffffffffffffffffffffffffffffffff1681526020019081526020016000206000820151816000015560208201518160010155905050600d60008154809291906118a890614689565b919050555080897f313f81e8cc8fe5ab3d1facaeffd8e0d26068ff1776d23a4621a5bdb0c891c8178a8a8a6040516118e29392919061413d565b60405180910390a380945050505050949350505050565b600081600115156001600083815260200190815260200160002060030160019054906101000a900460ff16151514611966576040517f08c379a000000000000000000000000000000000000000000000000000000000815260040161195d90614329565b60405180910390fd5b6001600281111561197a57611979614701565b5b6001600085815260200190815260200160002060030160009054906101000a900460ff1660028111156119b0576119af614701565b5b14915050919050565b60006002808111156119ce576119cd614701565b5b601160009054906101000a900460ff1660028111156119f0576119ef614701565b5b1415611a31576040517f08c379a0000000000000000000000000000000000000000000000000000000008152600401611a28906142c9565b60405180910390fd5b33601160029054906101000a900460ff161580611a805750611a51612b0e565b73ffffffffffffffffffffffffffffffffffffffff168173ffffffffffffffffffffffffffffffffffffffff16145b80611acd57506000600660008373ffffffffffffffffffffffffffffffffffffffff1673ffffffffffffffffffffffffffffffffffffffff16815260200190815260200160002060000154145b80611b26575042601054600660008473ffffffffffffffffffffffffffffffffffffffff1673ffffffffffffffffffffffffffffffffffffffff16815260200190815260200160002060000154611b249190614521565b115b611b65576040517f08c379a0000000000000000000000000000000000000000000000000000000008152600401611b5c90614309565b60405180910390fd5b33611b6e612b0e565b73ffffffffffffffffffffffffffffffffffffffff168173ffffffffffffffffffffffffffffffffffffffff16141580611bf9575060011515600a60008373ffffffffffffffffffffffffffffffffffffffff1673ffffffffffffffffffffffffffffffffffffffff16815260200190815260200160002060009054906101000a900460ff16151514155b611c38576040517f08c379a0000000000000000000000000000000000000000000000000000000008152600401611c2f906142a9565b60405180910390fd5b6000600b5490506040518060e0016040528082815260200187815260200186815260200160006002811115611c7057611c6f614701565b5b81526020016001151581526020016001151581526020016000151581525060016000838152602001908152602001600020600082015181600001556020820151816001019080519060200190611cc7929190613724565b506040820151816002019080519060200190611ce4929190613724565b5060608201518160030160006101000a81548160ff02191690836002811115611d1057611d0f614701565b5b021790555060808201518160030160016101000a81548160ff02191690831515021790555060a08201518160030160026101000a81548160ff02191690831515021790555060c08201518160030160036101000a81548160ff021916908315150217905550905050604051806040016040528042815260200182815250600660003373ffffffffffffffffffffffffffffffffffffffff1673ffffffffffffffffffffffffffffffffffffffff1681526020019081526020016000206000820151816000015560208201518160010155905050336004600083815260200190815260200160002060006101000a81548173ffffffffffffffffffffffffffffffffffffffff021916908373ffffffffffffffffffffffffffffffffffffffff160217905550600b6000815480929190611e4890614689565b9190505550600c6000815480929190611e6090614689565b9190505550807f21579433a032855e20e8afc48e980ddae0b6285e4aa03370f03192be12bea28b8787604051611e97929190614106565b60405180910390a280935050505092915050565b80600115156001600083815260200190815260200160002060030160019054906101000a900460ff16151514611f16576040517f08c379a0000000000000000000000000000000000000000000000000000000008152600401611f0d90614329565b60405180910390fd5b8160006002811115611f2b57611f2a614701565b5b6001600083815260200190815260200160002060030160009054906101000a900460ff166002811115611f6157611f60614701565b5b14611f6b57600080fd5b60006002811115611f7f57611f7e614701565b5b601160009054906101000a900460ff166002811115611fa157611fa0614701565b5b14611fe1576040517f08c379a0000000000000000000000000000000000000000000000000000000008152600401611fd8906141e9565b60405180910390fd5b33611fea612b0e565b73ffffffffffffffffffffffffffffffffffffffff168173ffffffffffffffffffffffffffffffffffffffff16141580612075575060011515600a60008373ffffffffffffffffffffffffffffffffffffffff1673ffffffffffffffffffffffffffffffffffffffff16815260200190815260200160002060009054906101000a900460ff16151514155b6120b4576040517f08c379a00000000000000000000000000000000000000000000000000000000081526004016120ab906142a9565b60405180910390fd5b600180600086815260200190815260200160002060030160006101000a81548160ff021916908360028111156120ed576120ec614701565b5b021790555060006001600086815260200190815260200160002060030160026101000a81548160ff0219169083151502179055507feabb282842a353a61f42a3352791a6bf8d0f0b5d6e9cec67e0a0e2c42f387b9b84604051612150919061436b565b60405180910390a150505050565b6009602052816000526040600020602052806000526040600020600091509150505481565b61218b613658565b73ffffffffffffffffffffffffffffffffffffffff166121a9612b0e565b73ffffffffffffffffffffffffffffffffffffffff16146121ff576040517f08c379a00000000000000000000000000000000000000000000000000000000081526004016121f690614289565b60405180910390fd5b80601160026101000a81548160ff02191690831515021790555080601160036101000a81548160ff02191690831515021790555080601160046101000a81548160ff02191690831515021790555050565b601160009054906101000a900460ff1681565b61226b6137aa565b8160028081111561227f5761227e614701565b5b6001600083815260200190815260200160002060030160009054906101000a900460ff1660028111156122b5576122b4614701565b5b14156122f6576040517f08c379a00000000000000000000000000000000000000000000000000000000081526004016122ed90614269565b60405180910390fd5b600160008481526020019081526020016000206040518060e00160405290816000820154815260200160018201805461232e90614626565b80601f016020809104026020016040519081016040528092919081815260200182805461235a90614626565b80156123a75780601f1061237c576101008083540402835291602001916123a7565b820191906000526020600020905b81548152906001019060200180831161238a57829003601f168201915b505050505081526020016002820180546123c090614626565b80601f01602080910402602001604051908101604052809291908181526020018280546123ec90614626565b80156124395780601f1061240e57610100808354040283529160200191612439565b820191906000526020600020905b81548152906001019060200180831161241c57829003601f168201915b505050505081526020016003820160009054906101000a900460ff16600281111561246757612466614701565b5b600281111561247957612478614701565b5b81526020016003820160019054906101000a900460ff161515151581526020016003820160029054906101000a900460ff161515151581526020016003820160039054906101000a900460ff161515151581525050915050919050565b600081600115156001600083815260200190815260200160002060030160019054906101000a900460ff16151514612543576040517f08c379a000000000000000000000000000000000000000000000000000000000815260040161253a90614329565b60405180910390fd5b6000600281111561255757612556614701565b5b6001600085815260200190815260200160002060030160009054906101000a900460ff16600281111561258d5761258c614701565b5b14915050919050565b80600115156001600083815260200190815260200160002060030160019054906101000a900460ff16151514612601576040517f08c379a00000000000000000000000000000000000000000000000000000000081526004016125f890614329565b60405180910390fd5b8160028081111561261557612614614701565b5b6001600083815260200190815260200160002060030160009054906101000a900460ff16600281111561264b5761264a614701565b5b1461268b576040517f08c379a0000000000000000000000000000000000000000000000000000000008152600401612682906142e9565b60405180910390fd5b33612694612b0e565b73ffffffffffffffffffffffffffffffffffffffff168173ffffffffffffffffffffffffffffffffffffffff1614158061271f575060011515600a60008373ffffffffffffffffffffffffffffffffffffffff1673ffffffffffffffffffffffffffffffffffffffff16815260200190815260200160002060009054906101000a900460ff16151514155b61275e576040517f08c379a0000000000000000000000000000000000000000000000000000000008152600401612755906142a9565b60405180910390fd5b600180600086815260200190815260200160002060030160006101000a81548160ff0219169083600281111561279757612796614701565b5b02179055507fe23a63f864ee1069bc665aa3ed0b1dccc848ab996543e77baed0f465e8145c60846040516127cb919061436b565b60405180910390a150505050565b6127e1613658565b73ffffffffffffffffffffffffffffffffffffffff166127ff612b0e565b73ffffffffffffffffffffffffffffffffffffffff1614612855576040517f08c379a000000000000000000000000000000000000000000000000000000000815260040161284c90614289565b60405180910390fd5b61285f6000613660565b565b601160039054906101000a900460ff1681565b60606000600c5467ffffffffffffffff8111156128945761289361478e565b5b6040519080825280602002602001820160405280156128cd57816020015b6128ba6137aa565b8152602001906001900390816128b25790505b50905060005b600c54811015612ae657600160008281526020019081526020016000206040518060e00160405290816000820154815260200160018201805461291590614626565b80601f016020809104026020016040519081016040528092919081815260200182805461294190614626565b801561298e5780601f106129635761010080835404028352916020019161298e565b820191906000526020600020905b81548152906001019060200180831161297157829003601f168201915b505050505081526020016002820180546129a790614626565b80601f01602080910402602001604051908101604052809291908181526020018280546129d390614626565b8015612a205780601f106129f557610100808354040283529160200191612a20565b820191906000526020600020905b815481529060010190602001808311612a0357829003601f168201915b505050505081526020016003820160009054906101000a900460ff166002811115612a4e57612a4d614701565b5b6002811115612a6057612a5f614701565b5b81526020016003820160019054906101000a900460ff161515151581526020016003820160029054906101000a900460ff161515151581526020016003820160039054906101000a900460ff161515151581525050828281518110612ac857612ac761475f565b5b60200260200101819052508080612ade90614689565b9150506128d3565b508091505090565b600a6020528060005260406000206000915054906101000a900460ff1681565b60008060009054906101000a900473ffffffffffffffffffffffffffffffffffffffff16905090565b612b3f613658565b73ffffffffffffffffffffffffffffffffffffffff16612b5d612b0e565b73ffffffffffffffffffffffffffffffffffffffff1614612bb3576040517f08c379a0000000000000000000000000000000000000000000000000000000008152600401612baa90614289565b60405180910390fd5b80600a60008473ffffffffffffffffffffffffffffffffffffffff1673ffffffffffffffffffffffffffffffffffffffff16815260200190815260200160002060006101000a81548160ff0219169083151502179055505050565b60036020528060005260406000206000915090505481565b60046020528060005260406000206000915054906101000a900473ffffffffffffffffffffffffffffffffffffffff1681565b60086020528060005260406000206000915090505481565b601160049054906101000a900460ff1681565b6000600a60008373ffffffffffffffffffffffffffffffffffffffff1673ffffffffffffffffffffffffffffffffffffffff16815260200190815260200160002060009054906101000a900460ff169050919050565b6001602052806000526040600020600091509050806000015490806001018054612d0390614626565b80601f0160208091040260200160405190810160405280929190818152602001828054612d2f90614626565b8015612d7c5780601f10612d5157610100808354040283529160200191612d7c565b820191906000526020600020905b815481529060010190602001808311612d5f57829003601f168201915b505050505090806002018054612d9190614626565b80601f0160208091040260200160405190810160405280929190818152602001828054612dbd90614626565b8015612e0a5780601f10612ddf57610100808354040283529160200191612e0a565b820191906000526020600020905b815481529060010190602001808311612ded57829003601f168201915b5050505050908060030160009054906101000a900460ff16908060030160019054906101000a900460ff16908060030160029054906101000a900460ff16908060030160039054906101000a900460ff16905087565b612e68613658565b73ffffffffffffffffffffffffffffffffffffffff16612e86612b0e565b73ffffffffffffffffffffffffffffffffffffffff1614612edc576040517f08c379a0000000000000000000000000000000000000000000000000000000008152600401612ed390614289565b60405180910390fd5b8015612f12576002601160006101000a81548160ff02191690836002811115612f0857612f07614701565b5b0217905550612f3e565b6000601160006101000a81548160ff02191690836002811115612f3857612f37614701565b5b02179055505b50565b600b5481565b600c5481565b612f55613658565b73ffffffffffffffffffffffffffffffffffffffff16612f73612b0e565b73ffffffffffffffffffffffffffffffffffffffff1614612fc9576040517f08c379a0000000000000000000000000000000000000000000000000000000008152600401612fc090614289565b60405180910390fd5b8015612fff576002601160016101000a81548160ff02191690836002811115612ff557612ff4614701565b5b021790555061302b565b6000601160016101000a81548160ff0219169083600281111561302557613024614701565b5b02179055505b50565b600f5481565b6000601160039054906101000a900460ff1680156130ae575042600e54600960003373ffffffffffffffffffffffffffffffffffffffff1673ffffffffffffffffffffffffffffffffffffffff1681526020019081526020016000206000858152602001908152602001600020546130ac9190614521565b115b156130bc57600190506130c1565b600090505b919050565b600081600115156001600083815260200190815260200160002060030160019054906101000a900460ff16151514613133576040517f08c379a000000000000000000000000000000000000000000000000000000000815260040161312a90614329565b60405180910390fd5b60028081111561314657613145614701565b5b6001600085815260200190815260200160002060030160009054906101000a900460ff16600281111561317c5761317b614701565b5b14915050919050565b6060600260008381526020019081526020016000208054806020026020016040519081016040528092919081815260200182805480156131e457602002820191906000526020600020905b8154815260200190600101908083116131d0575b50505050509050919050565b601160029054906101000a900460ff1681565b60056020528160005260406000206020528060005260406000206000915091509054906101000a900460ff1681565b60076020528060005260406000206000915090508060000154908060010154905082565b600d5481565b60066020528060005260406000206000915090508060000154908060010154905082565b80600115156001600083815260200190815260200160002060030160019054906101000a900460ff161515146132eb576040517f08c379a00000000000000000000000000000000000000000000000000000000081526004016132e290614329565b60405180910390fd5b816002808111156132ff576132fe614701565b5b6001600083815260200190815260200160002060030160009054906101000a900460ff16600281111561333557613334614701565b5b1415613376576040517f08c379a000000000000000000000000000000000000000000000000000000000815260040161336d90614269565b60405180910390fd5b3361337f612b0e565b73ffffffffffffffffffffffffffffffffffffffff168173ffffffffffffffffffffffffffffffffffffffff1614158061340a575060011515600a60008373ffffffffffffffffffffffffffffffffffffffff1673ffffffffffffffffffffffffffffffffffffffff16815260200190815260200160002060009054906101000a900460ff16151514155b613449576040517f08c379a0000000000000000000000000000000000000000000000000000000008152600401613440906142a9565b60405180910390fd5b60026001600086815260200190815260200160002060030160006101000a81548160ff0219169083600281111561348357613482614701565b5b02179055507fa589501e457bda1f31782af099f2695facb8e79d38d121802e6ac1c53237b841846040516134b7919061436b565b60405180910390a150505050565b6134cd613658565b73ffffffffffffffffffffffffffffffffffffffff166134eb612b0e565b73ffffffffffffffffffffffffffffffffffffffff1614613541576040517f08c379a000000000000000000000000000000000000000000000000000000000815260040161353890614289565b60405180910390fd5b600073ffffffffffffffffffffffffffffffffffffffff168173ffffffffffffffffffffffffffffffffffffffff1614156135b1576040517f08c379a00000000000000000000000000000000000000000000000000000000081526004016135a8906141c9565b60405180910390fd5b6135ba81613660565b50565b60105481565b6000601160039054906101000a900460ff16801561362f575042601054600660003373ffffffffffffffffffffffffffffffffffffffff1673ffffffffffffffffffffffffffffffffffffffff1681526020019081526020016000206000015461362d9190614521565b105b1561363d5760019050613642565b600090505b90565b601160019054906101000a900460ff1681565b600033905090565b60008060009054906101000a900473ffffffffffffffffffffffffffffffffffffffff169050816000806101000a81548173ffffffffffffffffffffffffffffffffffffffff021916908373ffffffffffffffffffffffffffffffffffffffff1602179055508173ffffffffffffffffffffffffffffffffffffffff168173ffffffffffffffffffffffffffffffffffffffff167f8be0079c531659141344cd1fd0a4f28419497f9722a3daafe3b4186f6b6457e060405160405180910390a35050565b82805461373090614626565b90600052602060002090601f0160209004810192826137525760008555613799565b82601f1061376b57805160ff1916838001178555613799565b82800160010185558215613799579182015b8281111561379857825182559160200191906001019061377d565b5b5090506137a691906137ff565b5090565b6040518060e00160405280600081526020016060815260200160608152602001600060028111156137de576137dd614701565b5b81526020016000151581526020016000151581526020016000151581525090565b5b80821115613818576000816000905550600101613800565b5090565b600061382f61382a84614451565b61442c565b90508281526020810184848401111561384b5761384a6147c2565b5b6138568482856145e4565b509392505050565b60008135905061386d81614b64565b92915050565b60008135905061388281614b7b565b92915050565b600082601f83011261389d5761389c6147bd565b5b81356138ad84826020860161381c565b91505092915050565b6000813590506138c581614b92565b92915050565b6000602082840312156138e1576138e06147cc565b5b60006138ef8482850161385e565b91505092915050565b6000806040838503121561390f5761390e6147cc565b5b600061391d8582860161385e565b925050602061392e85828601613873565b9150509250929050565b6000806040838503121561394f5761394e6147cc565b5b600061395d8582860161385e565b925050602061396e858286016138b6565b9150509250929050565b60006020828403121561398e5761398d6147cc565b5b600061399c84828501613873565b91505092915050565b600080604083850312156139bc576139bb6147cc565b5b600083013567ffffffffffffffff8111156139da576139d96147c7565b5b6139e685828601613888565b925050602083013567ffffffffffffffff811115613a0757613a066147c7565b5b613a1385828601613888565b9150509250929050565b600060208284031215613a3357613a326147cc565b5b6000613a41848285016138b6565b91505092915050565b60008060008060808587031215613a6457613a636147cc565b5b6000613a72878288016138b6565b945050602085013567ffffffffffffffff811115613a9357613a926147c7565b5b613a9f87828801613888565b935050604085013567ffffffffffffffff811115613ac057613abf6147c7565b5b613acc87828801613888565b925050606085013567ffffffffffffffff811115613aed57613aec6147c7565b5b613af987828801613888565b91505092959194509250565b60008060408385031215613b1c57613b1b6147cc565b5b6000613b2a858286016138b6565b9250506020613b3b858286016138b6565b9150509250929050565b6000613b518383613eeb565b905092915050565b6000613b658383614031565b60208301905092915050565b613b7a81614577565b82525050565b6000613b8b826144a2565b613b9581856144dd565b935083602082028501613ba785614482565b8060005b85811015613be35784840389528151613bc48582613b45565b9450613bcf836144c3565b925060208a01995050600181019050613bab565b50829750879550505050505092915050565b6000613c00826144ad565b613c0a81856144ee565b9350613c1583614492565b8060005b83811015613c46578151613c2d8882613b59565b9750613c38836144d0565b925050600181019050613c19565b5085935050505092915050565b613c5c81614589565b82525050565b613c6b81614589565b82525050565b613c7a816145d2565b82525050565b613c89816145d2565b82525050565b6000613c9a826144b8565b613ca481856144ff565b9350613cb48185602086016145f3565b613cbd816147d1565b840191505092915050565b6000613cd3826144b8565b613cdd8185614510565b9350613ced8185602086016145f3565b613cf6816147d1565b840191505092915050565b6000613d0e601383614510565b9150613d19826147e2565b602082019050919050565b6000613d31603683614510565b9150613d3c8261480b565b604082019050919050565b6000613d54602683614510565b9150613d5f8261485a565b604082019050919050565b6000613d77602483614510565b9150613d82826148a9565b604082019050919050565b6000613d9a602483614510565b9150613da5826148f8565b604082019050919050565b6000613dbd603483614510565b9150613dc882614947565b604082019050919050565b6000613de0602483614510565b9150613deb82614996565b604082019050919050565b6000613e03601183614510565b9150613e0e826149e5565b602082019050919050565b6000613e26602083614510565b9150613e3182614a0e565b602082019050919050565b6000613e49601d83614510565b9150613e5482614a37565b602082019050919050565b6000613e6c602583614510565b9150613e7782614a60565b604082019050919050565b6000613e8f601483614510565b9150613e9a82614aaf565b602082019050919050565b6000613eb2602483614510565b9150613ebd82614ad8565b604082019050919050565b6000613ed5601483614510565b9150613ee082614b27565b602082019050919050565b600060e083016000830151613f036000860182614031565b5060208301518482036020860152613f1b8282613c8f565b91505060408301518482036040860152613f358282613c8f565b9150506060830151613f4a6060860182613c71565b506080830151613f5d6080860182613c53565b5060a0830151613f7060a0860182613c53565b5060c0830151613f8360c0860182613c53565b508091505092915050565b600060e083016000830151613fa66000860182614031565b5060208301518482036020860152613fbe8282613c8f565b91505060408301518482036040860152613fd88282613c8f565b9150506060830151613fed6060860182613c71565b5060808301516140006080860182613c53565b5060a083015161401360a0860182613c53565b5060c083015161402660c0860182613c53565b508091505092915050565b61403a816145c8565b82525050565b614049816145c8565b82525050565b60006020820190506140646000830184613b71565b92915050565b600060208201905081810360008301526140848184613b80565b905092915050565b600060208201905081810360008301526140a68184613bf5565b905092915050565b60006020820190506140c36000830184613c62565b92915050565b60006020820190506140de6000830184613c80565b92915050565b600060208201905081810360008301526140fe8184613cc8565b905092915050565b600060408201905081810360008301526141208185613cc8565b905081810360208301526141348184613cc8565b90509392505050565b600060608201905081810360008301526141578186613cc8565b9050818103602083015261416b8185613cc8565b9050818103604083015261417f8184613cc8565b9050949350505050565b600060208201905081810360008301526141a281613d01565b9050919050565b600060208201905081810360008301526141c281613d24565b9050919050565b600060208201905081810360008301526141e281613d47565b9050919050565b6000602082019050818103600083015261420281613d6a565b9050919050565b6000602082019050818103600083015261422281613d8d565b9050919050565b6000602082019050818103600083015261424281613db0565b9050919050565b6000602082019050818103600083015261426281613dd3565b9050919050565b6000602082019050818103600083015261428281613df6565b9050919050565b600060208201905081810360008301526142a281613e19565b9050919050565b600060208201905081810360008301526142c281613e3c565b9050919050565b600060208201905081810360008301526142e281613e5f565b9050919050565b6000602082019050818103600083015261430281613e82565b9050919050565b6000602082019050818103600083015261432281613ea5565b9050919050565b6000602082019050818103600083015261434281613ec8565b9050919050565b600060208201905081810360008301526143638184613f8e565b905092915050565b60006020820190506143806000830184614040565b92915050565b600060e08201905061439b600083018a614040565b81810360208301526143ad8189613cc8565b905081810360408301526143c18188613cc8565b90506143d06060830187613c80565b6143dd6080830186613c62565b6143ea60a0830185613c62565b6143f760c0830184613c62565b98975050505050505050565b60006040820190506144186000830185614040565b6144256020830184614040565b9392505050565b6000614436614447565b90506144428282614658565b919050565b6000604051905090565b600067ffffffffffffffff82111561446c5761446b61478e565b5b614475826147d1565b9050602081019050919050565b6000819050602082019050919050565b6000819050602082019050919050565b600081519050919050565b600081519050919050565b600081519050919050565b6000602082019050919050565b6000602082019050919050565b600082825260208201905092915050565b600082825260208201905092915050565b600082825260208201905092915050565b600082825260208201905092915050565b600061452c826145c8565b9150614537836145c8565b9250827fffffffffffffffffffffffffffffffffffffffffffffffffffffffffffffffff0382111561456c5761456b6146d2565b5b828201905092915050565b6000614582826145a8565b9050919050565b60008115159050919050565b60008190506145a382614b50565b919050565b600073ffffffffffffffffffffffffffffffffffffffff82169050919050565b6000819050919050565b60006145dd82614595565b9050919050565b82818337600083830152505050565b60005b838110156146115780820151818401526020810190506145f6565b83811115614620576000848401525b50505050565b6000600282049050600182168061463e57607f821691505b6020821081141561465257614651614730565b5b50919050565b614661826147d1565b810181811067ffffffffffffffff821117156146805761467f61478e565b5b80604052505050565b6000614694826145c8565b91507fffffffffffffffffffffffffffffffffffffffffffffffffffffffffffffffff8214156146c7576146c66146d2565b5b600182019050919050565b7f4e487b7100000000000000000000000000000000000000000000000000000000600052601160045260246000fd5b7f4e487b7100000000000000000000000000000000000000000000000000000000600052602160045260246000fd5b7f4e487b7100000000000000000000000000000000000000000000000000000000600052602260045260246000fd5b7f4e487b7100000000000000000000000000000000000000000000000000000000600052603260045260246000fd5b7f4e487b7100000000000000000000000000000000000000000000000000000000600052604160045260246000fd5b600080fd5b600080fd5b600080fd5b600080fd5b6000601f19601f8301169050919050565b7f547261636b206973206e6f7420636c6f73656400000000000000000000000000600082015250565b7f557365722069732063757272656e746c7920696e20766f74696e6720636f6f6c60008201527f646f776e20706572696f6420666f7220747261636b2e00000000000000000000602082015250565b7f4f776e61626c653a206e6577206f776e657220697320746865207a65726f206160008201527f6464726573730000000000000000000000000000000000000000000000000000602082015250565b7f416c6c20747261636b732068617665206265656e20636c6f736564206279206160008201527f646d696e00000000000000000000000000000000000000000000000000000000602082015250565b7f557365722069732063757272656e746c7920696e20656e74727920636f6f6c6460008201527f6f776e2e00000000000000000000000000000000000000000000000000000000602082015250565b7f55736572732063616e6e6f7420766f746520666f72207468652073616d65206560008201527f6e747279206d756c7469706c652074696d65732e000000000000000000000000602082015250565b7f416c6c20766f74696e6720686173206265656e20626c6f636b6564206279206160008201527f646d696e00000000000000000000000000000000000000000000000000000000602082015250565b7f547261636b20697320626c6f636b65642e000000000000000000000000000000600082015250565b7f4f776e61626c653a2063616c6c6572206973206e6f7420746865206f776e6572600082015250565b7f5573657220686173206265656e2062616e6e65642062792061646d696e000000600082015250565b7f416c6c20747261636b732068617665206265656e20626c6f636b65642062792060008201527f61646d696e000000000000000000000000000000000000000000000000000000602082015250565b7f547261636b206973206e6f7420626c6f636b6564000000000000000000000000600082015250565b7f557365722069732063757272656e746c7920696e20747261636b20636f6f6c6460008201527f6f776e2e00000000000000000000000000000000000000000000000000000000602082015250565b7f547261636b20646f6573206e6f74206578697374000000000000000000000000600082015250565b60038110614b6157614b60614701565b5b50565b614b6d81614577565b8114614b7857600080fd5b50565b614b8481614589565b8114614b8f57600080fd5b50565b614b9b816145c8565b8114614ba657600080fd5b5056fea2646970667358221220a0a09c52e335e60e03b3450ca0674d3f4dc70c4146bf1b3a3a8585f3e767590b64736f6c6343000807003354686973206973206120676f6f6420706c61636520746f20737461727420746f206765742068656c70576865726520746f2072656164206d6f726520616e64206765742074686520636f64652e68747470733a2f2f6769746875622e636f6d2f6e69616c6c6372656563682f626c6f636b636861696e2d646576656c6f7065722d626f6f7463616d702d66696e616c2d70726f6a656374",
  "immutableReferences": {},
  "source": "// SPDX-License-Identifier: MIT\r\npragma solidity ^0.8.0;\r\nimport \"@openzeppelin/contracts/access/Ownable.sol\";\r\n\r\n/**\r\n   * @title The Tracks contract enables the storage of collections of \r\n   * text information with voting enabled on each memeber of the collection\r\n   * through emitting events.\r\n   */\r\ncontract Tracks is Ownable {\r\n  mapping (uint => Track) public tracks;\r\n  mapping (uint => uint[]) public trackEntries; //trackId => entryId[]\r\n  mapping (uint => uint) public entriesTrack; //entryId => trackId\r\n  mapping (uint => address) public trackOwners; //trackId => address\r\n  mapping (address => mapping (uint => bool)) public votesByAddress; //address => (entryId => bool)\r\n  mapping (address => TrackEvent) public trackEventsByUser; //address => TrackEvent\r\n  mapping (address => EntryEvent) public entryEventsByUser; //address => EntryEvent\r\n  mapping (uint => uint) public votesByTrack; //trackId => vote count\r\n  mapping (address => mapping(uint => uint)) public lastVoteTime; //address => trackId => time(s)\r\n  mapping(address => bool) public bannedUsers;\r\n\r\n  uint public nextTrackId;\r\n  uint public trackCount;\r\n  uint public nextEntryId;\r\n  uint public voteCooldownPeriod;\r\n  uint public entryEventCooldownPeriod;\r\n  uint public trackEventCooldownPeriod;\r\n  State public allTracksState;\r\n  State public allVotesState;\r\n  bool public trackCreationCooldownEnabled;\r\n  bool public votingCooldownEnabled;\r\n  bool public entryCreationCooldownEnabled;\r\n  \r\n  \r\n\tstruct EntryEvent {\r\n\t    uint time;\r\n\t    uint eventId;\r\n\t}\r\n\t\r\n\tstruct TrackEvent {\r\n\t    uint time;\r\n\t    uint trackId;\r\n\t}\r\n\t\r\n  enum State {\r\n      Open,\r\n      Closed,\r\n      Blocked\r\n  }\r\n  struct Track {\r\n      uint  trackId;\r\n      string  name;\r\n      string  desc;\r\n      State state;\r\n      bool exists;\r\n      bool visible;\r\n      bool pinned;\r\n  }\r\n\r\n  event TrackOpened(uint trackId);\r\n  event TrackClosed(uint trackId);\r\n  event TrackBlocked(uint trackId);\r\n  event TrackUnblocked(uint trackId);\r\n  event TrackCreated(uint indexed trackId, string name, string desc);\r\n  event EntryCreated(uint indexed trackId, uint indexed entryId, string name, string desc, string location);\r\n  event EntryVotedFor(uint indexed trackId, uint indexed entryId);\r\n\r\n\r\n  /**\r\n   * @dev Check if the track is in the 'open' state.\r\n   * @param _trackId The id of the track\r\n   */\r\n\tmodifier checkTrackOpen(uint _trackId) {\r\n\t\trequire(tracks[_trackId].state == State.Open);\r\n\t\trequire(allTracksState == State.Open, \"All tracks have been closed by admin\");\r\n    _;\r\n  }\r\n  \r\n\t/**\r\n   * @dev Check if the track is in the 'closed' state.\r\n   * @param _trackId The id of the track\r\n   */\r\n\tmodifier checkTrackClosed(uint _trackId) {\r\n\t\trequire(tracks[_trackId].state == State.Closed, \"Track is not closed\");\r\n    _;\r\n  }\r\n  \r\n  /**\r\n   * @dev Check if the track is in the 'blocked' state.\r\n   * @param _trackId The id of the track\r\n   */\r\n\tmodifier checkTrackBlocked(uint _trackId) {\r\n\t\trequire(tracks[_trackId].state == State.Blocked, \"Track is not blocked\");\r\n    _;\r\n  }\r\n  \r\n  /**\r\n   * @dev Check if the track has been 'blocked' by the admin.\r\n   */\r\n\tmodifier checkTracksNotBlockedByAdmin() {\r\n\t\trequire(allTracksState != State.Blocked, \"All tracks have been blocked by admin\");\r\n    _;\r\n  }\r\n  \r\n  \r\n  /**\r\n   * @dev Check if voting has been 'blocked' by the admin.\r\n   */\r\n\tmodifier checkVotingNotBlockedByAdmin() {\r\n\t\trequire(allVotesState != State.Blocked, \"All voting has been blocked by admin\");\r\n    _;\r\n  }\r\n  \r\n  \r\n  /**\r\n   * @dev Check if the track is not 'blocked'.\r\n   * @param _trackId The id of the track\r\n   */\r\n\tmodifier checkTrackUnblocked(uint _trackId) {\r\n\t\trequire(tracks[_trackId].state != State.Blocked, \"Track is blocked.\");\r\n    _;\r\n  }\r\n  \r\n  /**\r\n   * @dev Check if the track exists.\r\n   * @param _trackId The id of the track\r\n   */\r\n\tmodifier checkTrackExists(uint _trackId) {\r\n\t\t\trequire(tracks[_trackId].exists == true, \"Track does not exist\");\r\n\t    _;\r\n\t  }\r\n\r\n  /**\r\n   * @dev Check if the supplied user address has been banned.\r\n   * @param addr The address of the user to check.\r\n   */\r\n\tmodifier checkIfUserIsBanned(address addr){\r\n\t\t\trequire(\r\n\t\t\t    addr != owner()\r\n\t\t\t    || bannedUsers[addr] != true,\r\n\t\t\t    \"User has been banned by admin\"\r\n\t\t\t);\r\n\t    _;\r\n\t}\r\n\r\n  /**\r\n   * @dev Check if the supplied user address has voted for the given entry.\r\n   * @param addr The address of the user to check.\r\n   * @param _entryId The id of the entry to check.\r\n   */\r\n\tmodifier hasNotVotedForEntry(address addr, uint _entryId){\r\n\t    require(\r\n\t        addr == owner()\r\n\t        || votesByAddress[addr][_entryId] == false,\r\n\t        \"Users cannot vote for the same entry multiple times.\"\r\n\t    );\r\n\t    _;\r\n\t}\r\n\t\r\n\t/**\r\n   * @dev Check if the supplied user is in the voting cooldown period for the\r\n   *  given track.\r\n   * @param addr The address of the user to check.\r\n   * @param trackId The id of the track.\r\n   */\r\n\tmodifier isNotInVotingCooldown(address addr, uint trackId){\r\n\t    require(\r\n\t        !votingCooldownEnabled\r\n          || addr == owner()\r\n\t        || lastVoteTime[addr][trackId] == 0 \r\n\t        || lastVoteTime[addr][trackId] + voteCooldownPeriod > block.timestamp,\r\n\t        \"User is currently in voting cooldown period for track.\"\r\n\t    );\r\n\t    _;\r\n\t}\r\n\r\n  /**\r\n   * @dev Check if the supplied user is in the track creation cooldown period.\r\n   * @param addr The address of the user to check.\r\n   */\r\n\tmodifier isNotInTrackCreationCooldown(address addr){\r\n\t    require(\r\n\t        !trackCreationCooldownEnabled\r\n          || addr == owner()\r\n\t        || trackEventsByUser[addr].time == 0\r\n          || (trackEventsByUser[addr].time + trackEventCooldownPeriod) > block.timestamp,\r\n\t       \"User is currently in track cooldown.\"\r\n\t     );\r\n\t    _;\r\n\t}\r\n\t\r\n\t/**\r\n   * @dev Check if the supplied user is in the entry creation cooldown period.\r\n   * @param addr The address of the user to check.\r\n   */\r\n\tmodifier isNotInEntryCreationCooldown(address addr){\r\n\t    require(\r\n\t        !entryCreationCooldownEnabled\r\n\t        || addr == owner()\r\n\t        || entryEventsByUser[addr].time == 0\r\n\t        || (entryEventsByUser[addr].time + entryEventCooldownPeriod) > block.timestamp,\r\n\t        \"User is currently in entry cooldown.\"\r\n\t    );\r\n\t    _;\r\n\t}\r\n\t\r\n\t/**\r\n   * @dev Create the new contract.\r\n   *  The default is to have tracks open with cooldowns enabled.\r\n   */\r\n  constructor () {\r\n      voteCooldownPeriod = 1 minutes;\r\n      entryEventCooldownPeriod = 1 minutes;\r\n      trackEventCooldownPeriod = 1 minutes;\r\n      allTracksState = State.Open;\r\n      allVotesState = State.Open;\r\n      enableCooldowns(true);\r\n      createHelpTrack();\r\n  }\r\n\r\n  /**\r\n   * @dev Create the default help documentation links.\r\n   */\r\n  function createHelpTrack() internal {\r\n    uint trackId = addTrack(\"Help\", \"This is a good place to start to get help\");\r\n    addEntry(trackId, \"Homepage\", \"Where to read more and get the code.\", \"https://github.com/niallcreech/blockchain-developer-bootcamp-final-project\");\r\n  \ttracks[trackId].pinned = true;\r\n  \tblockTrack(trackId);\r\n  }\r\n\t/**\r\n   * @dev Get all tracks\r\n   * @return array of all tracks by object\r\n   */\r\n  function getTracks() public view returns ( Track[] memory) {\r\n      Track[] memory _tracks = new Track[](trackCount);\r\n      for (uint i=0; i<trackCount; i++) {\r\n          _tracks[i] = tracks[i];\r\n      }\r\n      return _tracks;\r\n  }\r\n\r\n  /**\r\n   * @dev Get a specific tracks object\r\n   * @param _trackId The id of the track\r\n   * @return the relevant Track object\r\n   */\r\n  function getTrack(uint _trackId) public view checkTrackUnblocked(_trackId) returns (Track memory) {\r\n      return tracks[_trackId];\r\n  }\r\n\t\r\n\r\n  /**\r\n   * @dev Get all the entries attached to a specific track\r\n   * @param _trackId The id of the track\r\n   * @return all the Entry ids attached to the track \r\n   */\r\n  function getEntriesForTrack(uint _trackId) public view returns (uint[] memory){\r\n      return trackEntries[_trackId];\r\n  }\r\n\r\n\t/**\r\n   * @dev Set a specific track to the 'Open' state.\r\n   * @param _trackId The id of the track\r\n   */\r\n  function openTrack(uint _trackId) public checkTrackExists(_trackId) checkTrackClosed(_trackId) checkIfUserIsBanned(msg.sender){\r\n      tracks[_trackId].state = State.Open;\r\n      tracks[_trackId].visible = true;\r\n      emit TrackOpened(_trackId);\r\n  }\r\n\r\n\t/**\r\n   * @dev Set a specific track to the 'Closed' state.\r\n   * @param _trackId The id of the track\r\n   */\r\n\tfunction closeTrack(uint _trackId) public checkTrackExists(_trackId) checkTrackOpen(_trackId) checkIfUserIsBanned(msg.sender){\r\n      tracks[_trackId].state = State.Closed;\r\n      tracks[_trackId].visible = false;\r\n      emit TrackClosed(_trackId);\r\n  }\r\n\r\n\t/**\r\n   * @dev Set a specific track to the 'Blocked' state.\r\n   * @param _trackId The id of the track\r\n   */\r\n\tfunction blockTrack(uint _trackId) public checkTrackExists(_trackId) checkTrackUnblocked(_trackId) checkIfUserIsBanned(msg.sender){\r\n      tracks[_trackId].state = State.Blocked;\r\n      emit TrackBlocked(_trackId);\r\n  }\r\n\r\n  /**\r\n   * @dev Unblock a specific track by settings to the 'Closed' state.\r\n   * @param _trackId The id of the track\r\n   */\r\n  function unblockTrack(uint _trackId) public checkTrackExists(_trackId) checkTrackBlocked(_trackId) checkIfUserIsBanned(msg.sender) {\r\n      tracks[_trackId].state = State.Closed;\r\n      emit TrackUnblocked(_trackId);\r\n  }\r\n\r\n\t/**\r\n   * @dev Get the state of a track as a string key.\r\n   * @param _trackId The id of the track\r\n   */\r\n  function getTrackState(uint _trackId) public view returns (string memory){\r\n      string memory status;\r\n      if (tracks[_trackId].exists == false){\r\n          status = \"null\";\r\n      } else if (tracks[_trackId].state == State.Open){\r\n          status = \"open\";\r\n      } else if (tracks[_trackId].state == State.Closed){\r\n          status = \"closed\";\r\n      } else if (tracks[_trackId].state == State.Blocked){\r\n          status = \"blocked\";\r\n      } else {\r\n          status = \"null\";\r\n      }\r\n      return status;\r\n  }\r\n\r\n\t/**\r\n   * @dev Check a specific track is in the 'Open' state.\r\n   * @param _trackId The id of the track\r\n   */\r\n  function isTrackOpen(uint _trackId) public view checkTrackExists(_trackId) returns (bool){\r\n      return (tracks[_trackId].state == State.Open);\r\n  }\r\n\r\n  /**\r\n   * @dev Check a specific track is in the 'Open' state.\r\n   * @param _trackId The id of the track\r\n   */\r\n  function isTrackClosed(uint _trackId) public view checkTrackExists(_trackId) returns (bool){\r\n      return (tracks[_trackId].state == State.Closed);\r\n  }\r\n  \r\n  /**\r\n   * @dev Check a specific track is in the 'Blocked' state.\r\n   * @param _trackId The id of the track\r\n   */\r\n  function isTrackBlocked(uint _trackId) public view checkTrackExists(_trackId) returns (bool){\r\n      return (tracks[_trackId].state == State.Blocked);\r\n  }\r\n\r\n\t/**\r\n   * @dev Vote for an entry. \r\n   *  Voting emits an event. It also sets a number of variables to follow\r\n   *  users voting patterns so that multiple voting and cooldowns can be \r\n   *  monitored.\r\n   * @param _entryId The id of the entry\r\n   */\r\n  function vote(uint _entryId) public checkTrackOpen(entriesTrack[_entryId]) hasNotVotedForEntry(msg.sender, _entryId) checkVotingNotBlockedByAdmin checkIfUserIsBanned(msg.sender) isNotInVotingCooldown(msg.sender, entriesTrack[_entryId]) {\r\n    uint _trackId = entriesTrack[_entryId];\r\n    votesByAddress[msg.sender][_entryId] = true;\r\n    lastVoteTime[msg.sender][_trackId] = block.timestamp;\r\n    votesByTrack[_trackId]++;\r\n    emit EntryVotedFor(_trackId, _entryId);\r\n  }\r\n\r\n  /**\r\n   * @dev Add an entry to a specific track.\r\n   *  The entry is attached to a track as stored data on-chain. However, the\r\n   *  actual data belonging to the entry is emitted as an event.\r\n   * @param _trackId The id of the track\r\n   * @return the id of the new entry.\r\n   */\r\n  function addEntry(uint _trackId, string memory _name, string memory _desc, string memory _location) public checkTracksNotBlockedByAdmin checkIfUserIsBanned(msg.sender) isNotInEntryCreationCooldown(msg.sender)  checkTrackOpen(_trackId) returns (uint) {\r\n    uint entryId = nextEntryId;\r\n    require(entriesTrack[entryId] == 0);\r\n    trackEntries[_trackId].push(entryId);\r\n    entriesTrack[entryId] = _trackId;\r\n    entryEventsByUser[msg.sender] = EntryEvent(block.timestamp, entryId);\r\n    nextEntryId++;\r\n    emit EntryCreated(_trackId, entryId, _name, _desc, _location);\r\n    return entryId;\r\n  }\r\n\r\n\t/**\r\n   * @dev Add a track. The track is stored as data on-chain.\r\n   * @param _name the name of the track.\r\n   * @param _desc a brief description of what the track is about.\r\n   * @return the trackId of the new track.\r\n   */\r\n  function addTrack(string memory _name, string memory _desc)\r\n    public\r\n      checkTracksNotBlockedByAdmin\r\n      isNotInTrackCreationCooldown(msg.sender)\r\n      checkIfUserIsBanned(msg.sender)\r\n    returns (uint) {\r\n    uint trackId = nextTrackId;\r\n    tracks[trackId] = Track({\r\n      trackId: trackId,\r\n      name: _name,\r\n      desc: _desc,\r\n      state: State.Open,\r\n      exists: true,\r\n      visible: true,\r\n      pinned: false\r\n    });\r\n    trackEventsByUser[msg.sender] = TrackEvent(block.timestamp, trackId);\r\n    trackOwners[trackId] = msg.sender;\r\n    nextTrackId++;\r\n    trackCount++;\r\n    emit TrackCreated(trackId, _name, _desc);\r\n    return trackId;\r\n  }\r\n   \r\n  /**\r\n  * @dev Set all existing tracks to the 'Blocked' state.\r\n  * @param enable true to block, false to unblock.\r\n  */\r\n  function disableAllTracks(bool enable) public onlyOwner {\r\n    if (enable) {\r\n      allTracksState = State.Blocked;   \r\n    } else {\r\n      allTracksState = State.Open;   \r\n    }\r\n  }\r\n  \r\n  /**\r\n   * @dev Set all voting to the 'Blocked' state.\r\n   * @param enable, true to block, false to unblock.\r\n   */ \r\n  function disableAllVoting(bool enable) public onlyOwner {\r\n       if (enable) {\r\n           allVotesState = State.Blocked;   \r\n       } else {\r\n           allVotesState = State.Open;   \r\n       }\r\n\t}\r\n\r\n  /**\r\n   * @dev Ban a user from participation. \r\n   *  This function is only availble to the contract owner.\r\n   * @param addr, address of the user to block\r\n   * @param banned, true to ban, false to unban.\r\n   */ \r\n  function banUser(address addr, bool banned) public onlyOwner {\r\n \t\tbannedUsers[addr] = banned;   \r\n\t}\r\n\t\r\n\t/**\r\n   * @dev CHeck if a user is bannedfrom participation. \r\n   * @param addr, address of the user to block\r\n   * @return true if banned, false otherwise.\r\n   */ \r\n  function isUserBanned(address addr) public view returns (bool) {\r\n \t\treturn bannedUsers[addr];   \r\n\t}\r\n\r\n  /**\r\n   * @dev Check if a user is in a cooldown period for track creation.\r\n   *  Cooldown allows automation blocking to balance throughput.\r\n   * @return true if user is in cooldown, false otherwise.\r\n   */ \r\n  function isSenderInTrackCreationCooldown() public view returns (bool) {\r\n      if (votingCooldownEnabled\r\n\t        && ((trackEventsByUser[msg.sender].time + trackEventCooldownPeriod) < block.timestamp)){\r\n\t            return true;\r\n\t   \t}\r\n\t   \treturn false;\r\n\t}\r\n\t\r\n\t/**\r\n   * @dev Check if a user is in a cooldown period for entry creation.\r\n   *  Cooldown allows automation blocking to balance throughput.\r\n   * @return true if user is in cooldown, false otherwise.\r\n   */ \r\n\tfunction isSenderInEntryCreationCooldown() public view returns (bool) {\r\n      if (entryCreationCooldownEnabled\r\n\t        && ((entryEventsByUser[msg.sender].time + entryEventCooldownPeriod) < block.timestamp)){\r\n\t            return true;\r\n\t   \t}\r\n\t   \treturn false;\r\n\t}\r\n\t\r\n\t/**\r\n   * @dev Check if a user is in a cooldown period for voting.\r\n   *  Cooldown allows automation blocking to balance throughput.\r\n   * @return true if user is in cooldown, false otherwise.\r\n   */ \r\n\tfunction isSenderInVotingCooldown(uint trackId) public view returns (bool) {\r\n      if (votingCooldownEnabled\r\n\t        && ((lastVoteTime[msg.sender][trackId] + voteCooldownPeriod) > block.timestamp)){\r\n\t            return true;\r\n\t   \t}\r\n\t   \treturn false;\r\n\t}\r\n\t\r\n\t/**\r\n   * @dev Enable or disable the use of cooldowns.\r\n   *  Cooldown allows automation blocking to balance throughput.\r\n   * @param enable A bool set to true to enable cooldowns, false to disable.\r\n   */ \r\n  function enableCooldowns(bool enable) public onlyOwner {\r\n    trackCreationCooldownEnabled = enable;\r\n    votingCooldownEnabled = enable;\r\n    entryCreationCooldownEnabled = enable;\r\n  }\r\n}\r\n\r\n\r\n\t",
  "sourcePath": "D:\\projects\\blockchain-developer-bootcamp-final-project\\contracts\\Tracks.sol",
  "compiler": {
    "name": "solc",
    "version": "0.8.7+commit.e28d00a7.Emscripten.clang"
  },
  "schemaVersion": "3.4.3",
  "updatedAt": "2021-10-19T12:19:17.446Z",
  "networkType": "ethereum",
  "devdoc": {
    "kind": "dev",
    "methods": {
      "addEntry(uint256,string,string,string)": {
        "details": "Add an entry to a specific track.  The entry is attached to a track as stored data on-chain. However, the  actual data belonging to the entry is emitted as an event.",
        "params": {
          "_trackId": "The id of the track"
        },
        "returns": {
          "_0": "the id of the new entry."
        }
      },
      "addTrack(string,string)": {
        "details": "Add a track. The track is stored as data on-chain.",
        "params": {
          "_desc": "a brief description of what the track is about.",
          "_name": "the name of the track."
        },
        "returns": {
          "_0": "the trackId of the new track."
        }
      },
      "banUser(address,bool)": {
        "details": "Ban a user from participation.   This function is only availble to the contract owner.",
        "params": {
          "addr": ", address of the user to block",
          "banned": ", true to ban, false to unban."
        }
      },
      "blockTrack(uint256)": {
        "details": "Set a specific track to the 'Blocked' state.",
        "params": {
          "_trackId": "The id of the track"
        }
      },
      "closeTrack(uint256)": {
        "details": "Set a specific track to the 'Closed' state.",
        "params": {
          "_trackId": "The id of the track"
        }
      },
      "constructor": {
        "details": "Create the new contract.  The default is to have tracks open with cooldowns enabled."
      },
      "disableAllTracks(bool)": {
        "details": "Set all existing tracks to the 'Blocked' state.",
        "params": {
          "enable": "true to block, false to unblock."
        }
      },
      "disableAllVoting(bool)": {
        "details": "Set all voting to the 'Blocked' state.",
        "params": {
          "enable": ", true to block, false to unblock."
        }
      },
      "enableCooldowns(bool)": {
        "details": "Enable or disable the use of cooldowns.  Cooldown allows automation blocking to balance throughput.",
        "params": {
          "enable": "A bool set to true to enable cooldowns, false to disable."
        }
      },
      "getEntriesForTrack(uint256)": {
        "details": "Get all the entries attached to a specific track",
        "params": {
          "_trackId": "The id of the track"
        },
        "returns": {
          "_0": "all the Entry ids attached to the track "
        }
      },
      "getTrack(uint256)": {
        "details": "Get a specific tracks object",
        "params": {
          "_trackId": "The id of the track"
        },
        "returns": {
          "_0": "the relevant Track object"
        }
      },
      "getTrackState(uint256)": {
        "details": "Get the state of a track as a string key.",
        "params": {
          "_trackId": "The id of the track"
        }
      },
      "getTracks()": {
        "details": "Get all tracks",
        "returns": {
          "_0": "array of all tracks by object"
        }
      },
      "isSenderInEntryCreationCooldown()": {
        "details": "Check if a user is in a cooldown period for entry creation.  Cooldown allows automation blocking to balance throughput.",
        "returns": {
          "_0": "true if user is in cooldown, false otherwise."
        }
      },
      "isSenderInTrackCreationCooldown()": {
        "details": "Check if a user is in a cooldown period for track creation.  Cooldown allows automation blocking to balance throughput.",
        "returns": {
          "_0": "true if user is in cooldown, false otherwise."
        }
      },
      "isSenderInVotingCooldown(uint256)": {
        "details": "Check if a user is in a cooldown period for voting.  Cooldown allows automation blocking to balance throughput.",
        "returns": {
          "_0": "true if user is in cooldown, false otherwise."
        }
      },
      "isTrackBlocked(uint256)": {
        "details": "Check a specific track is in the 'Blocked' state.",
        "params": {
          "_trackId": "The id of the track"
        }
      },
      "isTrackClosed(uint256)": {
        "details": "Check a specific track is in the 'Open' state.",
        "params": {
          "_trackId": "The id of the track"
        }
      },
      "isTrackOpen(uint256)": {
        "details": "Check a specific track is in the 'Open' state.",
        "params": {
          "_trackId": "The id of the track"
        }
      },
      "isUserBanned(address)": {
        "details": "CHeck if a user is bannedfrom participation. ",
        "params": {
          "addr": ", address of the user to block"
        },
        "returns": {
          "_0": "true if banned, false otherwise."
        }
      },
      "openTrack(uint256)": {
        "details": "Set a specific track to the 'Open' state.",
        "params": {
          "_trackId": "The id of the track"
        }
      },
      "owner()": {
        "details": "Returns the address of the current owner."
      },
      "renounceOwnership()": {
        "details": "Leaves the contract without owner. It will not be possible to call `onlyOwner` functions anymore. Can only be called by the current owner. NOTE: Renouncing ownership will leave the contract without an owner, thereby removing any functionality that is only available to the owner."
      },
      "transferOwnership(address)": {
        "details": "Transfers ownership of the contract to a new account (`newOwner`). Can only be called by the current owner."
      },
      "unblockTrack(uint256)": {
        "details": "Unblock a specific track by settings to the 'Closed' state.",
        "params": {
          "_trackId": "The id of the track"
        }
      },
      "vote(uint256)": {
        "details": "Vote for an entry.   Voting emits an event. It also sets a number of variables to follow  users voting patterns so that multiple voting and cooldowns can be   monitored.",
        "params": {
          "_entryId": "The id of the entry"
        }
      }
    },
    "title": "The Tracks contract enables the storage of collections of  text information with voting enabled on each memeber of the collection through emitting events.",
    "version": 1
  },
  "userdoc": {
    "kind": "user",
    "methods": {},
    "version": 1
  }
}